:020000040800F2
:10000000309000206D020008255C0008894400083B
:100010002D580008910F0008256B00080000000013
:10002000000000000000000000000000AD0100081A
:10003000C51200080000000009020008396100082C
:10004000870200088702000887020008870200086C
:10005000870200088702000887020008870200085C
:10006000870200088702000887020008870200084C
:10007000870200088702000887020008870200083C
:1000800087020008870200088702000800000000BD
:1000900000000000000000000000000087020008CF
:1000A00087020008356200088702000887020008FE
:1000B00087020008870200088702000887020008FC
:1000C00087020008870200088702000887020008EC
:1000D00087020008016A000887020008000000008B
:1000E000870200088702000887020008000000005D
:1000F000000000000000000000000000870200086F
:10010000000000008702000887020008870200083C
:1001100000000000000000000000000000000000DF
:10012000870200088702000887020008870200088B
:10013000870200080000000000000000000000002E
:10014000000000000000000000000000870200081E
:10015000870200088702000887020008870200085B
:10016000870200088702000800000000000000006D
:10017000000000000000000000000000000000007F
:1001800000000000870200080000000000000000DE
:1001900087020008DFF810D000F054FC0048004748
:1001A000DD9F0008AFF30080309000202C4B1968D1
:1001B0000868B0E8F04F80F30988BFF36F8F4FF005
:1001C000000080F3118870470000000008480068B4
:1001D000006880F308884FF0000080F3148862B64E
:1001E00061B6BFF34F8FBFF36F8F00DF00BF00BF5B
:1001F00008ED00E0DFF80C00016841F470010160D7
:10020000704700BF88ED00E0EFF30980BFF36F8F08
:10021000134B1A681EF0100F08BF20ED108A20E95A
:10022000F04F106009B44FF0500080F31188BFF315
:100230004F8FBFF36F8F0BF0CFFF4FF0000080F3B5
:10024000118809BC19680868B0E8F04F1EF0100F5B
:1002500008BFB0EC108A80F30988BFF36F8F704736
:1002600088000020EFF305807047000006488047B3
:1002700006480047FEE7FEE7FEE7FEE7FEE7FEE78B
:10028000FEE7FEE7FEE7FEE72162000895010008B1
:100290002DE9F05F0546002092469B4688460646BB
:1002A000814640241BE0284641464746224600F04E
:1002B00050FA53465A46C01A914110D31146184677
:1002C000224600F037FA2D1A67EB01084F46224606
:1002D0000120002100F02EFA17EB00094E41201EEC
:1002E000A4F10104DFDC484631462A464346BDE816
:1002F000F09F40EA01039B0703D009E008C9121FE1
:1003000008C0042AFAD203E011F8013B00F8013BCF
:10031000521EF9D27047D2B201E000F8012B491EFB
:10032000FBD270470022F6E710B513460A46044692
:100330001946FFF7F0FF204610BD421C10F8011BC4
:100340000029FBD1801A70472DE9FE4F804681EAD3
:100350000300C00F0C46009021F0004123F000453F
:10036000B8EB0200A94105D24046214690461C4602
:100370000B46024623F00040104347D0270DC7F339
:100380000A00C3F30A510290401A019040286BDA28
:10039000C3F3130040F4801B0098924620B1002361
:1003A000D2EB030A63EB0B0B01985946C0F14002F4
:1003B000504600F0BFF906460D4650465946019A90
:1003C00000F0D7F910EB08006141002487EA1152D0
:1003D00084EAE7731A4340D0009A62B3019A012A73
:1003E0004FEA075215DC001B61EB02014FF000429F
:1003F00002EA0752CDE90042001C41F58011324665
:100400002B4600F00EFA03B0BDE8F08F40462146BF
:10041000F9E7001B61EB0201001C41F58013001895
:100420005B412018A2F5001747EB030140EAD570A5
:10043000B6196D4111E06D084FEA360645EAC07500
:100440004FEA0752001B61EB0201001C41F58011CD
:1004500049084FEA30000019514132462B4603B09B
:10046000BDE8F04F00F0CEB9009801224000002313
:10047000D0EB020263EBE073009821464FEAE07490
:10048000B8EB000061EB0401E9E783F000435BE7B0
:1004900081F0004158E72DE9FE4F81EA030404F0A2
:1004A000004421F0004100944FF0000B23F0004382
:1004B00050EA01045ED052EA03045BD0C3F30A544D
:1004C000C1F30A552C44A4F2F3340194A0FB025466
:1004D000C1F3130141F48011C3F3130343F48013F8
:1004E00001FB024400FB034E840A970A44EA81544C
:1004F00047EA8357A4FB076802958D0A05FB078529
:100500004FEA932C04FB0C542705029D4FEA065832
:1005100047EA1637B5EB08056EEB070C870E920E0F
:1005200047EA811742EA8312A7FB0201B6EB0B01EF
:1005300064EB00042B0D43EA0C335E1844EB1C50B3
:10054000DA465146E7FB0201C5F313044FEA0B33C9
:1005500043EA14534FEA0432019C43EA0603A4F130
:100560000C040294009CCDE900B400F05AF903B0E9
:10057000BDE8F08F00200146F9E72DE9F04D81EA52
:10058000030404F0004B21F0004514464FF0000A2C
:1005900023F0004150EA050220D054EA01021DD0A8
:1005A000C5F30A570246C5F31303C1F31300C1F3A1
:1005B0000A5640F4801543F48013A7EB0608101B7D
:1005C000D64608F2FD3873EB050002D308F10108A6
:1005D00001E092185B41B8F1000F03DA00200146F8
:1005E000BDE8F08D00204FF48011064684460EE0F1
:1005F000171B73EB050705D3121B63EB05030643BB
:100600004CEA010C49084FEA300092185B4150EA6D
:100610000107EDD152EA030012D082EA040083EA16
:100620000501084305D0101BAB4106D2012200236F
:1006300006E000224FF0004302E06FF00102531089
:100640001AEB06004CEB085110EB0A0041EB0B01D2
:10065000BDE8F04D00F0D6B80EB5C10F80EAE070ED
:100660000844CA07002140F233438DE80E000A46D1
:100670000B4600F0D6F803B000BD00F0004230F0A9
:1006800000400AD0C10D01F56071C0F3160042EAC6
:100690000151C208400711437047002001467047CE
:1006A00030B5041E71F1000404DB4FF000444042F9
:1006B00064EB0101141E73F1000405DB1C464FF0CE
:1006C0000043524263EB0403994208BF904230BD9D
:1006D00001F0004330B421F0004150EA010206D09D
:1006E0000A0DA2F56072C1F31301002A02DC30BCCE
:1006F00000207047440F44EAC104C100E01830BC38
:1007000000EBC25000F047B830B50B460146002060
:100710002022012409E021FA02F59D4205D303FAC3
:1007200002F5491B04FA02F52844151EA2F1010244
:10073000F1DC30BD202A04DB203A00FA02F100206F
:1007400070479140C2F1200320FA03F3194390400F
:100750007047202A04DB203A21FA02F0002170477A
:1007600021FA02F3D040C2F1200291400843194619
:100770007047202A06DBCB17203A41FA02F043EA01
:10078000E07306E041FA02F3D040C2F1200291404A
:100790000843194670470029A8BF7047401C49000C
:1007A00008BF20F00100704710B4B0FA80FC00FAD6
:1007B0000CF050EA010404BF10BC704749B1CCF101
:1007C000200421FA04F411FA0CF118BF012121438D
:1007D0000843A3EB0C01CB1D4FEA00614FEA102048
:1007E00042BF002010BC704700EBC35010440029EA
:1007F000A4BF10BC7047401C490008BF20F0010096
:1008000010BC704710B5141E73F1000408DA401CC8
:1008100041F1000192185B411A4301D120F001001F
:1008200010BD2DE9F04D92469B4611B1B1FA81F20F
:1008300002E0B0FA80F220329046FFF77BFF0446D8
:100840000F4640EA0A0041EA0B0153465A46084364
:1008500013D0114653EA010019D0C8F140025046A6
:10086000FFF777FF05460E46504659464246FFF7CA
:1008700061FF084305D0012004E020463946BDE869
:10088000F08D0020054346EAE0762C4337430A9872
:100890006305E40AA0EB08000022FD0A44EA47547D
:1008A0000A3002D500200146E9E701051019694127
:1008B000DDE9084500196941BDE8F04DA2E770B5D2
:1008C00021F0004303430CD0C1F30A550024D5EBBB
:1008D000040564EB0403D617AD1AB34102DB002014
:1008E000014670BD201841EB025170BD2DE9F04D5D
:1008F00000231A461B1A8A4103DB00200146BDE88B
:10090000F08DC1F30A52C1F3130141F480154FF089
:10091000000BD10702D100186D41521E002704467A
:1009200040F2FF11384601EB620A3E46804602461D
:1009300000204FF48011FFF70CFFC2197141BB1862
:1009400046EB0100B4EB030C75EB000C04D3E41A86
:1009500065EB000517460E46241908F101006D41AC
:1009600080463428E3DDF91946EB0600091BA8414F
:1009700003D24FF0FF32134601E0002213461BEB77
:10098000070046EB0A51BDE8F04DFFF73BBF2DE9EC
:10099000FE4FC3F30A5701F000450024C1F30A5685
:1009A000C3F31303C1F3130143F4801312EB020AE0
:1009B000A64641F48011009543EB030CA7F1010B0F
:1009C00016E0B0EB0A0061EB0C01071E71F10007A5
:1009D00007DA4FF00008D0EB080085F0004568EB1F
:1009E0000101171A73EB0107EBD3761E001849417A
:1009F0005E45F6DA50EA010209D0CDE900E50022B1
:100A000013460296FFF70DFF03B0BDE8F08F2046B6
:100A10000099F9E7C1F30A52C1F3130140F2FF3321
:100A200041F480119A4202DA00200146704740F2F8
:100A300033439A42A2F2334202DC5242FFF789BEAC
:100A4000FFF778BE064C074D06E0E06840F0010372
:100A500094E8070098471034AC42F6D3FFF79EFBAA
:100A6000C83C0208E83C02080EB540F2334102914E
:100A70000021CDE900110A460B46FFF7D2FE03B074
:100A800000BD70B5C1F30A5201F000450024C1F366
:100A9000130140F2FF3341F480119A4201DA002041
:100AA00070BD40F233439A42A2F2334203DC524219
:100AB000FFF74FFE00E090402C43F1D0404270BD64
:100AC00070B58C1810F8015B15F0070301D110F810
:100AD000013B2A1106D110F8012B03E010F8016B3D
:100AE00001F8016B5B1EF9D12B0705D40023521EC0
:100AF0000DD401F8013BFAE710F8013BCB1A921C28
:100B000003E013F8015B01F8015B521EF9D5A14225
:100B1000D8D3002070BD00002DE9FF4107460D46E7
:100B20000024009505200290012001906946384676
:100B300001F008FB00260FE0384601F0ADFC1E2155
:100B4000384601F041FC384601F0C2FB0444384607
:100B500001F02CFD701CC6B20C4800788642EBDB1D
:100B600000EE104AB8EE400ADFED090A60EE200AF6
:100B70000648007800EE100AB8EE400A80EE801AAF
:100B8000DFED040A81EE200ABDE8FF815F0000204E
:100B90003333534000F07F4555494A6822F44032D0
:100BA0004A604A6843681A434A600268526822F4FD
:100BB000807203685A6002685368026943EA02223D
:100BC00003685A600268526822F0407203685A60F3
:100BD0000268526883681A4303685A600268926820
:100BE00022F4006203689A6002689268C3681A433C
:100BF00003689A603F4B826A9A4218D002689268F2
:100C000022F0706203689A6002689268836A1A43ED
:100C100003689A600268926822F0405203689A6002
:100C200002689268C36A1A4303689A600BE002681C
:100C3000926822F0706203689A600268926822F0FB
:100C4000405203689A600268926822F002020368C8
:100C50009A6002689368027E43EA420203689A60DF
:100C60002022125CA2B10268526842F4006203685A
:100C70005A600268526822F4604203685A6002684F
:100C80005368426A521E43EA423203685A6005E0E2
:100C90000268526822F4006203685A600268D26AED
:100CA00022F470020368DA620268D36A828B521EF1
:100CB00043EA02520368DA620268926822F4007220
:100CC00003689A600268936890F8302043EA4222F1
:100CD00003689A600268926822F4806203689A60EE
:100CE00002689368426943EA822203689A60704707
:100CF000002301400100000F00BF002404E0601C3D
:100D0000C4B20A200BF0A4F8F9E700001CB50124D6
:100D10000AF078FF3C48032100236202CDE900106D
:100D20003AA13D480BF0D0FE0446012C02D13BA075
:100D300005F0FAFE4048032100234FF40072CDE98C
:100D400000103EA140480BF0BFFE0446012C02D12A
:100D50003EA005F0E9FE444804210023CA01CDE984
:100D6000001042A144480BF0AFFE0446012C02D112
:100D700042A005F0D9FE4848032100234FF4007239
:100D8000CDE9001045A148480BF09EFE0446012C19
:100D900002D146A005F0C8FE4B48052100234FF4C0
:100DA0000072CDE9001049A14D480BF08DFE0446BC
:100DB000012C02D14BA005F0B7FE544804210023BA
:100DC000CA01CDE9001052A154480BF07DFE044643
:100DD000012C02D152A005F0A7FE5848042100239F
:100DE000CA01CDE9001056A158480BF06DFE04462B
:100DF000012C02D156A005F097FE5C4800680BF06C
:100E0000BFF80AF029FF1CBD180000204C45445FC4
:100E10005461736B00000000ED520008B4B4BDA82B
:100E2000204C45445F5461736B20C8CECEF1B3C9EA
:100E3000B9A6210A0A000000240000204B45595F92
:100E40005461736B00000000BD490008B4B4BDA834
:100E5000204B45595F5461736B20C8CECEF1B3C9A6
:100E6000B9A6210A0A0000002000002045433131C4
:100E70005F5461736B00000009180008B4B4BDA88A
:100E800020454331315F5461736B20C8CECEF1B33E
:100E9000C9B9A6210A0A00001C0000204C43445F87
:100EA0005461736B00000000C9510008B4B4BDA8C0
:100EB000204C43445F5461736B20C8CECEF1B3C95C
:100EC000B9A6210A0A00000028000020436C6F73B5
:100ED00065646C6F6F705F464F435F5461736B0066
:100EE000950F0008B4B4BDA820436C6F7365646CA3
:100EF0006F6F705F464F435F5461736B20C8CECEF7
:100F0000F1B3C9B9A6210A0A000000002C00002094
:100F100055534152545F5461736B0000116A0008CD
:100F2000B4B4BDA82055534152545F5461736B2033
:100F3000C8CECEF1B3C9B9A6210A0A0030000020FC
:100F40004144435F5461736B00000000F90C0008DA
:100F5000B4B4BDA8204144435F5461736B20C8CE34
:100F6000CEF1B3C9B9A6210A0A000000140000207E
:100F700010B501F07BFF05F0F9F804F0BFFA04F0BA
:100F800073FB04F053FB04F0E9FB04F07FFA10BD9F
:100F900000BFFEE71CB500BF1EA005F0C5FD642024
:100FA0000AF056FF9FED1E0A1E4880ED000A1E49FA
:100FB000002004F0EFFB1D481D4B02220121DFED54
:100FC0001D0A9FED1D0A0090002003F0D3FC0020B5
:100FD00004F02EFC00219FED120A084604F0BAFD31
:100FE0000121164880F85410022180F8551014A0F1
:100FF00005F09AFD0CE00B4890ED000A002009F086
:101000000DF8002008F064FE032101A80AF04EFF4D
:10101000F1E700004153353630300D0A0000000082
:101020000000000044000020E00900209809002092
:10103000C7CFFFFF000048420AD7233CB0880020FA
:101040004D6F746F722072656164792E0D0A000015
:1010500070B52DED068B84B004469FED8A0A04EB33
:10106000C40000EB4000884901EB001080ED250A28
:101070009FED840A04EBC40000EB400001EB00107C
:1010800080ED290A9FED7F0A04EBC40000EB4000CD
:1010900001EB001080ED2D0A00256AE004EBC4008E
:1010A00000EB4000784901EB001000F188060FCEFC
:1010B00007F015FE04EBC40000EB4000724901EBA1
:1010C0000010D0ED250A30EE200A04EBC40000EB3E
:1010D000400001EB001080ED250A04EBC40000EB9A
:1010E000400001EB001000F198060FCE07F0F7FD6D
:1010F00004EBC40000EB4000634901EB0010D0EDAD
:10110000290A30EE200A04EBC40000EB400001EB9A
:10111000001080ED290A04EBC40000EB400001EB55
:101120000010D0F8AC00594988421ED004EBC4002E
:1011300000EB4000544901EB001000F1A8060FCE6F
:1011400007F0CDFD04EBC40000EB40004E4901EB7D
:101150000010D0ED2D0A30EE200A04EBC40000EBA5
:10116000400001EB001080ED2D0A01200AF070FE16
:101170006D1CB5F57A7F91DB04EBC40000EB4000F9
:10118000414901EB001090ED250ADFED410A80EEA8
:10119000201A04EBC40000EB400001EB001080EDCE
:1011A000251A04EBC40000EB400001EB001090EDA9
:1011B000290ADFED370A80EE201A04EBC40000EBA9
:1011C000400001EB001080ED291A04EBC40000EB95
:1011D000400001EB0010D0F8AC002C49884214D03C
:1011E00004EBC40000EB4000274901EB001090ED38
:1011F0002D0ADFED270A80EE201A04EBC40000EB75
:10120000400001EB001080ED2D1A04EBC40000EB50
:1012100040001D4A02EB001090ED2D0A10EE101A4E
:101220000846FFF72AFA41EC180B04EBC40000EB68
:101230004000154A02EB001090ED290A10EE101A3A
:101240000846FFF71AFA41EC190B04EBC40000EB57
:1012500040000D4A02EB001090ED250A10EE101A26
:101260000846FFF70AFA41EC1A0B8DED028B8DED63
:10127000009B53EC1A2B07A005F056FC04B0BDEC04
:10128000068B70BD00000000B0880020C7CFFFFFB4
:1012900000007A446F66667365745F69613A252E53
:1012A00034662C6F66667365745F69623A252E3406
:1012B000662C6F66667365745F69633A252E3466C3
:1012C0002E0D0A007047000010B5FD484078052833
:1012D00014D1FC48007990B9FA484078401EF94989
:1012E000487008464078FF28F2D108460078F64951
:1012F00001EB0010007B401EF249487006E1F14806
:101300000078F14901EB00108068EE49497801EB63
:10131000410100EB8100007AA0B90020E949087181
:1013200008464078401E487008464078FF28E5D1BE
:1013300008460078E44901EB0010007B401EE149BB
:101340004870E3E0DF490978DF4A02EB0111896860
:10135000DC4A527802EB420201EB820008F0D7FF30
:101360000446012C04D0022C20D0032C7DD16AE04D
:10137000D4480078D44901EB00108068D1494978FD
:1013800001EB410100EB810040680068401ECD493F
:101390000978CD4A02EB01118968CA4A527802EBFA
:1013A000420201EB820149680860AEE0C54800785E
:1013B00030B3C4484078042822DAC2480078C249D1
:1013C00001EB00108068BF49497801EB410100EB57
:1013D0008100406890ED000ADFEDBC0A30EE600A43
:1013E000B8480078B84901EB00108068B5494978E1
:1013F00001EB410100EB8100406880ED000A21E033
:10140000B0480078B04901EB00108068AD494978D8
:1014100001EB410100EB8100406890ED000AF7EE1E
:10142000000A30EE600AA7480078A74901EB0010D7
:101430008068A449497801EB410100EB81004068D4
:1014400080ED000A61E09F48007878BB9D484078B5
:1014500004282CDA9B4800789B4901EB0010806837
:101460009849497801EB410100E04AE000EB810036
:10147000406890ED001BB0EE410AF0EE610A9FED6E
:10148000941B53EC112B51EC100BFEF7FEFF8D4A11
:1014900012788D4B03EB021292688A4B5B7803EB58
:1014A000430302EB8302526803C229E0FFE7854849
:1014B0000078854901EB001080688249497801EB8A
:1014C000410100EB8100406890ED001BB0EE410A45
:1014D000F0EE610A9FED801B53EC112B51EC100BC9
:1014E000FEF7D3FF774A1278774B03EB021292682C
:1014F000744B5B7803EB430302EB8302526803C235
:1015000003E077A005F010FB00BF00BF6C484078F7
:10151000062813D16B48007988B96A484078401C86
:1015200068494870084640780978674A02EB01111B
:10153000097B8842EDD100206249487021E1614871
:101540000078614901EB001080685E49497801EB41
:10155000410100EB8100007A98B9002059490871D7
:1015600008464078401C4870084640780978564A3A
:1015700002EB0111097B8842E0D1002051494870FB
:10158000FFE050490978504A02EB011189684D4A41
:10159000527802EB420201EB820008F0B8FE0446EA
:1015A000012C04D0022C20D0032C7DD16AE04548C8
:1015B0000078454901EB001080684249497801EB09
:1015C000410100EB810040680068401C3D490978FA
:1015D0003D4A02EB011189683A4A527802EB420215
:1015E00001EB820149680860CAE03648007830B3F0
:1015F00034484078042822DA32480078324901EB36
:10160000001080682F49497801EB410100EB81000F
:10161000406890ED000ADFED2D0A30EE200A2948DF
:101620000078294901EB001080682649497801EBD0
:10163000410100EB8100406880ED000A21E0214873
:101640000078214901EB001080681E49497801EBC0
:10165000410100EB8100406890ED000AF7EE000ABE
:1016600030EE200A17480078174901EB0010806817
:101670001449497801EB410100EB8100406880ED9D
:10168000000A7DE00F480078C8B90E484078042869
:1016900047DA0C4800780C4901EB001080680949D2
:1016A000497801EB410100E065E000EB8100406812
:1016B00090ED001BB0EE410AF0EE610A1AE030E056
:1016C000C00200207C0200203C020020ACC527376D
:1016D00000000080B5F8E43E000000000000F03F8C
:1016E0004543313120556E6B6E6F776E2074797083
:1016F000650A00001FED0A1B53EC112B51EC100B77
:10170000FEF722FE3D4A12783D4B03EB021292682F
:101710003A4B5B7803EB430302EB8302526803C24C
:1017200028E036480078364901EB001080683349DC
:10173000497801EB410100EB8100406890ED001B0E
:10174000B0EE410AF0EE610A1FED1D1B53EC112BA8
:1017500051EC100BFEF7F8FD284A1278284B03EBEA
:1017600002129268254B5B7803EB430302EB830282
:10177000526803C204E0AFF2980005F0D5F900BF4B
:1017800000BF20484078012818D11C480079012862
:1017900003D100201949087110E018480078184951
:1017A00001EB001080681549497801EB410100EB1D
:1017B0008100007A10B10120104908711148407869
:1017C00008280AD10D480078401C0C4908700846CA
:1017D0000078042801D1002008700A4840780728C2
:1017E0000AD106480078401E04490870084600786F
:1017F000FF2801D10320087010BD00007C020020EA
:101800003C020020C002002000BF1FE0104800780A
:1018100020B90521002000F057F917E000F096F9F3
:10182000044600F019F80B4948700846407840B16A
:10183000084640788978884203D0064840780549B0
:101840008870FFF741FD05200AF002FBDEE700008B
:10185000BF020020C002002010B50146002001296F
:1018600000D105204A1C02B90620032900D1072017
:10187000CA1C02B90820022936D1894A1268894B4C
:101880009A4204DA864A1268521C854B1A60864ACC
:101890001278142393FBF2F2814B1B689A4202D117
:1018A0000122824B1A70824A1268002A0BDD7E4A9E
:1018B0001278962393FBF2F27D4B1B689A4202DB6F
:1018C00001227C4B1A70784A12784FF4167393FBFE
:1018D000F2F2734B1B689A4251D10122764B1A7077
:1018E0000022724B1A704AE06F4A1278142393FB5D
:1018F000F2F26B4B1B689A420BDD0022684B1A60B8
:101900006A4B1A706C4B1A706A4B1A70684B1A60EB
:1019100035E0664A1278012A2AD1664A127842B91D
:10192000634A1268002A04DB614A1268521C604B49
:101930001A60604A1278012A0BD15B4A127896230A
:1019400093FBF2F25A4B1B689A4202DB0222594B7C
:101950001A70584A12785AB9534A1278962393FB50
:10196000F2F2534B1B689A4202DA00224F4B1A7074
:10197000514A1278012A02D100224F4B1A704A4A6A
:101980001278142393FBF2F2454B1B689A4279DAE2
:10199000464A12783ABB444A1278962393FBF2F2F5
:1019A000434B1B689A421EDA3F4A12784FF4167373
:1019B00093FBF2F23A4B1B689A4214DD3F4A1278CD
:1019C0008AB93F4A1278072A03D03D4A1278082A7A
:1019D00001D1FF2000E001200022314B1A60344B7E
:1019E0001A60344B1A70334A1278022A16D1304AE0
:1019F0001268002A12DD2C4A1278962393FBF2F229
:101A00002B4B1B689A4209DB02200022244B1A60F0
:101A1000274B1A60254B1A70264B1A70264A1278EB
:101A2000012A1ED1204A12784FF4167393FBF2F26A
:101A30001B4B1B689A4214DC224A1268521C214B31
:101A40001A60194A1278C82393FBF2F21D4B1B68E7
:101A5000B3FBF2F402FB14321AB90022194B1A60DC
:101A60000420154A12786AB90F4A12784FF4167397
:101A700093FBF2F20A4B1B689A4203DC032000221C
:101A8000074B1A6028B10E4A1278904201D00C4AD6
:101A90001070FF2803D100200022094B1A7010BDDE
:101AA000B4020020A0860100C0020020BC02002079
:101AB000B8020020BE020020BD020020AD020020BE
:101AC000C3020020C402002070B505460C461DB9B3
:101AD00000201349087002E001201149087004B980
:101AE0000124104804704FF480510F4800F0D0FEDC
:101AF0000E4908704FF480410B4800F0C9FE0C49B4
:101B0000087000200B4908600B4908600B490870F9
:101B10000B4908700B49087001200B49087070BD13
:101B2000B0020020C002002000040240AE020020EB
:101B3000AF020020B4020020B8020020BC02002046
:101B4000BD020020BE020020BF02002010B500240C
:101B50006D48007840BB4FF480516C4800F098FE0F
:101B60006B49097888421ED04FF48051674800F0D5
:101B70008FFE50B94FF48041644800F089FE01287F
:101B800001D1012401E04FF0FF344FF480515F4850
:101B900000F07EFE5E4908704FF480415B4800F023
:101BA00077FE5C4908708CE04FF48051574800F094
:101BB0006FFE574909788842F5D04FF48051534859
:101BC00000F066FE012836D152480078012805D180
:101BD00081034E4800F05CFE00B901244D480078B6
:101BE00038B94FF48041494800F052FE012800D135
:101BF000841E4FF48041454800F04AFE454909786B
:101C0000884206D14FF48041404800F041FE00B9BF
:101C100001244FF480413D4800F03AFE3D490978E7
:101C2000884240D14FF48041384800F031FE01280D
:101C300039D1841E37E037480078012806D1810366
:101C4000324800F025FE08B94FF0FF3431480078E3
:101C500038B94FF480412D4800F01AFE012800D118
:101C600001244FF48041294800F012FE29490978E7
:101C7000884207D14FF48041244800F009FE08B99A
:101C80004FF0FF344FF48041204800F001FE21491D
:101C90000978884207D14FF480411C4800F0F8FDD4
:101CA000012800D101244FF48051184800F0F0FDC4
:101CB000174908704FF48041144800F0E9FD1549B8
:101CC00008704FF40051114800F0E2FD78B924B9D2
:101CD0001148007808B9022409E001200E49087073
:101CE000012C00D10324601C08B96FF002044FF4EA
:101CF0000051064800F0CCFD012802D10020064921
:101D00000870204610BD0000B00200200004024010
:101D1000AE020020AF020020AD02002072B600BF6C
:101D2000FEE770B504460AF06FFF0546656060681F
:101D3000206070BD00F108010A4A11700A4908705C
:101D400011460978091D094A117007490978091DCA
:101D5000074A11700021074A117091705170D170BB
:101D60001171704732010020310100202F01002045
:101D7000300100207C0200203EB599480078994946
:101D800001EB0010007B00287DD000241EE1944868
:101D90004078A04215D00020934909784FF6FF7291
:101DA000CDE90021029091480078914A127804FB15
:101DB000020081B24FF478438EA2DC2003F0E3F9F5
:101DC0002DE087480079A8B90020874909784FF6A7
:101DD000FF72CDE90021029084480078844A12788D
:101DE00004FB020081B24FF4784383A2DC2003F0AD
:101DF000CAF914E000207C4909784FF6FF72CDE95A
:101E00000021029079480078794A127804FB020098
:101E100081B24FF4784379A2DC2003F0B4F9704921
:101E20000978704A02EB0111896804EB440201EB66
:101E3000820008F06CFA05462846012D04D00228DD
:101E400025D003287DD16DE0674800784FF6FF71FB
:101E50004FF47842CDE90021029061480078614B4F
:101E600003EB0010806804EB440300EB8300406840
:101E700002685E4800785E4B1B7804FB030081B269
:101E80000423782000E0AAE003F012F99BE0544814
:101E9000007808B1032C22DB534800784FF6FF711D
:101EA000CDE900104E4800784E4A02EB00108068E1
:101EB00004EB440200EB82004068D0ED000AB0EE73
:101EC000600A4A4800784A4A127804FB020081B24C
:101ED0004FF478430622782002F0F6FF21E04248D2
:101EE00000784FF6FF71CDE900103D4800783D4A7B
:101EF00002EB0010806804EB440200EB82004068B3
:101F0000D0ED000AB0EE600A38480078384A1278FE
:101F100004FB020081B24FF478430622782003F0DC
:101F20004DF850E02E48007808B1032C24DB2E48F1
:101F300000784FF6FF71CDE9001029480078294A52
:101F400000E03CE002EB0010806804EB440200EB90
:101F500082004068D0ED000AB0EE600A23480078A5
:101F6000234A127804FB020081B24FF47843062220
:101F7000782002F0A9FF21E01B4800784FF6FF719E
:101F8000CDE9001016480078164A02EB0010806870
:101F900004EB440200EB82004068D0ED000AB0EE92
:101FA000600A12480078124A127804FB020081B2DB
:101FB0004FF478430622782003F000F803E010A0E5
:101FC00004F0B2FD00BF00BF601CC4B2044800783A
:101FD000044901EB0010007BA0423FF7D8AE3EBDA4
:101FE0007C0200203C020020310100202F01002053
:101FF00030010020200000003C0000002A0000000A
:10200000556E6B6E6F776E20747970650A000000F4
:102010003EB538490978384A02EB01110868FEF7E5
:102020008CF9C5B247F67C50009034480378F02212
:102030000021084602F097FD4FF6FF70F0231A4684
:1020400000902E480178002002F08DFD47F67C506C
:10205000F0236E22009029480178104602F01FFDFF
:1020600000202749097847F67C52CDE900210290EB
:1020700020490978204B03EB01110A687821A1EB74
:10208000C50188B24FF47843002103F07CF8194869
:102090000078194901EB0010007B48B300241FE0D1
:1020A0000020184909784FF6FF72CDE9002102900F
:1020B00010480078104B03EB0010806804EB4403D9
:1020C00050F823200D4800780F4B1B7804FB0300C9
:1020D00081B24FF47843002003F055F8601CC4B27D
:1020E00004480078044901EB0010007BA042D7DCD3
:1020F0003EBD00007C0200203C0200202F01002099
:1021000032010020310100203001002070B504466A
:10211000204600F00FF805462068A84204D9206840
:10212000C0F1FF362E4401E020682E1AA66025601B
:10213000304670BD10B5044600F0B8FB60606068C2
:1021400010BD000038B502460020009000BF92F894
:102150003C00012801D1022038BD012082F83C005A
:1021600000BF0868092816D91068C0680C780A3CB6
:1021700004EB44050724AC40A0431468E0600C78ED
:102180000A3C04EB44048868A0401468E4682043D7
:102190001468E06013E0106800690C7804EB4405F3
:1021A0000724AC40A043146820610C7804EB44047D
:1021B0008868A04014682469204314682061486836
:1021C000072817D21068406B0C79641E04EB840555
:1021D0001F24AC40A04314686063088880B20C7967
:1021E000641E04EB8404A0401468646B20431468EC
:1021F000606331E048680D2817D21068006B0C79D5
:10220000E41F04EB84051F24AC40A0431468206342
:10221000088880B20C79E41F04EB8404A0401468A1
:10222000246B20431468206316E01068C06A0C79A0
:102230000D3C04EB84051F24AC40A0431468E0620D
:10224000088880B20C790D3C04EB8404A04014682B
:10225000E46A20431468E062194B1A4C1068A042EB
:1022600006D10868122803D1586840F480005860ED
:10227000144C1068A0421CD10868102802D00868CD
:10228000112816D1586840F40000586008681028DA
:102290000FD10D4800680D4CB0FBF4F000EB80004E
:1022A0004000009002E00098401E00900098002836
:1022B000F9D100BF002082F83C0000BF00BF4BE70F
:1022C00000230140002001408400002040420F0014
:1022D00001460868C06C704770B5044600250CB90B
:1022E000012070BD1549A06A884200D000BF206C53
:1022F00030B9204600F024F80020606484F83C00E7
:10230000206C00F0100088B9206C20F4885040F058
:10231000020020642046FEF73FFC00206064206C31
:1023200020F0020040F00100206400E0012500BF21
:10233000002084F83C0000BF2846D2E70100000FCF
:1023400010B586B00446142101A8FDF7EBFF1A4929
:10235000206888422ED100BF0020009017480068F6
:1023600040F48070154908600846006800F48070E9
:10237000009000BF00BF00BF002000900F4814383D
:10238000006840F001000D491439086008460068F3
:1023900000F00100009000BF00BF06200190032064
:1023A00002900020039001A9054800F08DF905482E
:1023B00000F072F806B010BD002001404438024021
:1023C000000002409809002070B504460D46002622
:1023D0002068806800F48060B0F5806F11D12068BB
:1023E000806800F48070B0F5807F0AD1206C40F0E6
:1023F0002000206400BF002084F83C0000BF0120C2
:1024000070BD00F053FA064618E0681CB0B125B163
:1024100000F04CFA801BA84210D92068006800F038
:10242000020002280AD0206C40F00400206400BFA3
:10243000002084F83C0000BF0320E1E7206800682A
:1024400000F002000228E0D16FF01200216808605D
:10245000206C40F4007020642068806800F04050D8
:10246000B8B9207EA8B92068C06A00F4700020B115
:102470002068806800F4806058B9206C20F4807077
:102480002064206C00F4805018B9206C40F00100EA
:1024900020640020B4E7000008B501460020009049
:1024A00000BF91F83C00012801D1022008BD0120A5
:1024B00081F83C0000BF0868806800F00100A0B906
:1024C0000868806840F001000B6898603348006835
:1024D000334BB0FBF3F000EB4000009002E00098BB
:1024E000401E009000980028F9D10868806800F02C
:1024F0000100002848D0086C40F20163984340F482
:10250000807008640868406800F4806028B1086C36
:1025100020F4005040F480500864086C00F48050AF
:10252000B0F5805F04D1486C20F00600486401E0FB
:102530000020486400BF002081F83C0000BF194A19
:102540006FF022000B681860506800F01F0058B947
:102550000868806800F04050F0B90868806840F072
:1025600080400B68986017E00F4B0868984213D1C1
:102570000868806800F0405070B90868806840F0D2
:1025800080400B68986007E0086C40F01000086419
:10259000486C40F001004864002087E78400002078
:1025A00040420F000023014000200140014600BFCF
:1025B00091F83C00012801D102207047012081F8E8
:1025C0003C0000BF0868806820F001000A68906045
:1025D0000868806800F0010028B9086C20F4885071
:1025E00040F00100086400BF002081F83C0000BFFB
:1025F00000BFE2E770B50446A56D00F057F9064646
:1026000094F83500022808D08020606500BF0020C3
:1026100084F8340000BF012070BD2068006820F0FD
:102620001600216808602068406920F08000216859
:102630004861206C08B9A06C28B12068006820F0BF
:102640000800216808602068006820F00100216807
:10265000086010E000F02AF9801B05280BD9202023
:102660006065032084F8350000BF002084F8340042
:1026700000BF0320D0E72068006800F001000028B8
:10268000E8D194F85C103F208840A860012084F8CD
:10269000350000BF002084F8340000BF00BFBBE756
:1026A000014691F83500022803D0802048650120BA
:1026B0007047052081F835000868006820F00100A7
:1026C0000A6810600020F3E7F8B502460B460025C3
:1026D000002400200021C7E0012606FA01F51E684B
:1026E00006EA0504AC4274D11E7906F00306012EF9
:1026F00004D01E7906F00306022E13D190684F0015
:102700000326BE40B0434F00DE68BE4030439060B9
:10271000506801268E40B0431E79C6F300168E40E5
:10272000304350601E7906F00306032E09D0D068AE
:102730004F000326BE40B0434F009E68BE4030436A
:10274000D0601E7906F00306022E13D1CF0802F1E5
:10275000200656F827004E07F70E0F26BE40B0435E
:102760004F07FF0E1E69BE403043CF0802F120061E
:1027700046F8270010684F000326BE40B0431E797C
:1027800006F003064F00BE40304310605E6806F45A
:102790004036002E67D000BF00260096344E3668C3
:1027A00046F48046324F3E603E46366806F4804628
:1027B000009600BF00BF2F4E8F0856F827008E07E7
:1027C000370F0F26BE40B0432B4EB24202D1002637
:1027D00015E048E0294EB24201D101260FE0284E13
:1027E000B24201D102260AE0264EB24201D10326AE
:1027F00005E0254EB24201D1042600E007268F07EE
:102800003F0FBE4030431B4E8F0846F827001F4E37
:102810003068A0435E6806F4801606B120431B4E64
:102820003060361D3068A0435E6806F4001606B1BD
:102830002043164E361D3060144E361F3068A043BC
:102840005E6806F4003606B12043104E361F306035
:10285000361F3068A0435E6806F4803606B1204318
:102860000A4E083E3060491C1029FFF435AFF8BD10
:102870004438024008380140000002400004024091
:1028800000080240000C024000100240083C0140D9
:10289000024613690B400BB1012000E00020704795
:1028A0000AB1816101E00B0483617047014800684F
:1028B000704700007800002070B504460CB9012074
:1028C00070BD94F83D0028B9002084F83C002046F3
:1028D00000F05EFA242084F83D002068006820F0B3
:1028E0000100216808602068006840F40040216809
:1028F00008602068006820F400402168086000F04B
:10290000B3FC05465C496068884206D85B4885424E
:1029100001D2012007E0002005E05948854201D29C
:10292000012000E00020012800D1C9E75548B5FB8F
:10293000F0F62068406820F03F003043216848608E
:102940004D496068884201D8701C07E04FF49670CA
:1029500070434FF47A71B0FBF1F0401C2168096AB2
:1029600021F03F01084321680862434960688842BA
:1029700014D8681E61684900B0FBF1F0401CC0F338
:102980000B00042801D204203DE0681E6168490064
:10299000B0FBF1F0401CC0F30B0034E0A06838B984
:1029A000681E616801EB4101B0FBF1F0401C0AE0D8
:1029B000681E616801EBC10202EB0111B0FBF1F08E
:1029C000401C40F48040C0F30B0008B901201AE01D
:1029D000A06848B9681E616801EB4101B0FBF1F0E5
:1029E000401CC0F30B000CE0681E616801EBC102E3
:1029F00002EB0111B0FBF1F0401CC0F30B0040F4FE
:102A0000804040F400402168C9694CF6FF72914350
:102A100008432168C861D4E90701084321680968AF
:102A200021F0C001084321680860D4E9031008437D
:102A30002168896848F2FF32914308432168886021
:102A4000D4E9050108432168C96821F0FF01084362
:102A50002168C8602068006840F0010021680860B3
:102A600000202064202084F83D000020206384F8AA
:102A70003E0000BF24E70000A086010080841E0005
:102A800000093D0040420F002DE9FC5F04460F465F
:102A900090469946DDE90CAB0E9EFFF707FF054611
:102AA00094F83D00202870D119230122B549204611
:102AB000009501F0BBFD10B10220BDE8FC9F00BFF6
:102AC00094F83C00012801D10220F6E7012084F8A7
:102AD0003C0000BF2068006800F0010028B92068B1
:102AE000006840F00100216808602068006820F458
:102AF000006021680860222084F83D00402084F8AE
:102B00003E0000202064C4F824A0A4F82AB0608D00
:102B100020859D48E0624B46424639462046CDE935
:102B2000006501F0D3FC08B10120C6E7208D88B90B
:102B300000BF0020019020684069019020688069F2
:102B4000019000BF00BF2068006840F40070216859
:102B5000086040E0208D012818D12068006820F42A
:102B600080602168086000BF0020019020684069F3
:102B7000019020688069019000BF00BF2068006854
:102B800040F400702168086025E0F8E0208D0228FC
:102B900016D12068006820F48060216808602068F1
:102BA000006840F400602168086000BF00200190C8
:102BB00020684069019020688069019000BF0AE0A8
:102BC00000BF002001902068406901902068806962
:102BD000019000BF00BFC3E0208D03287ED8208D68
:102BE000012815D12A463146204601F0FBFD08B1E7
:102BF000012062E720680069616A0870606A401C11
:102C00006062208D401E2085608D401E6085A7E09B
:102C1000208D02282AD1334600225C4920460095A7
:102C200001F004FD08B1012047E72068006840F486
:102C300000702168086020680069616A0870606A35
:102C4000401C6062208D401E2085608D401E608586
:102C500020680069616A0870606A401C6062208DAB
:102C6000401E2085608D401E608579E0334600223D
:102C700046492046009501F0D9FC08B101201CE727
:102C80002068006820F4806021680860206800697E
:102C9000616A0870606A401C6062208D401E208559
:102CA000608D401E608533460022384920460095DD
:102CB00001F0BCFC08B10120FFE62068006840F488
:102CC00000702168086020680069616A0870606AA5
:102CD000401C6062208D401E208500E010E0608D69
:102CE000401E608520680069616A0870606A401C47
:102CF0006062208D401E2085608D401E60852FE023
:102D00002A463146204601F06DFD08B10120D4E687
:102D100020680069616A0870606A401C6062208DEA
:102D2000401E2085608D401E608520684069C0F38C
:102D30008000A8B1208D032805D12068006820F408
:102D400080602168086020680069616A0870606AB4
:102D5000401C6062208D401E2085608D401E608575
:102D6000208D00287FF438AF202084F83D0000201B
:102D700084F83E0000BF84F83C0000BF9DE60220BE
:102D80009BE60000020010000000FFFF04000100AD
:102D900010B586B00446142101A8FDF7C3FA2949ED
:102DA000206888424CD100BF00200090264800686F
:102DB00040F00100244908600846006800F0010066
:102DC000009000BF00BF00BF0020009008460068D0
:102DD00040F0020008600846006800F00200009021
:102DE00000BF00BF881501901220029000200390C0
:102DF000032004900420059001A91448FFF764FC07
:102E000010200190122002900020039003200490D3
:102E10000920059001A90E48FFF756FC00BF0020CD
:102E2000009009481030006840F400000649103155
:102E300008600846006800F40000009000BF00BF72
:102E400006B010BD005C0040303802400000024077
:102E50000004024003480068034909780844014916
:102E600008607047780000208000002010B50D48F1
:102E7000006840F400700B4908600846006840F4A0
:102E8000806008600846006840F480700860032095
:102E900000F0D6F80F2000F007F800F055F80020F9
:102EA00010BD0000003C0240F0B587B0044600268B
:102EB000002700BF002000901E48006840F001007D
:102EC0001C4908600846006800F00100009000BF3F
:102ED00000BF01A902A800F09FF900F0D5F906464D
:102EE0001548B6FBF0F0471E14481549086040F23B
:102EF000E7311348C1604760002101618160816151
:102F000000F0C8FC054695B90D4800F011FD0546D6
:102F10006DB9192000F042F8102C07D2002221468A
:102F2000192000F04FF80748046000E0012528460A
:102F300007B0F0BD4438024040420F00000001409D
:102F4000C40B00207C00002008B500BF00200090CA
:102F50001148006840F480400F4908600846006846
:102F600000F48040009000BF00BF00BF0020009030
:102F7000081F006840F08050091F0860084600687C
:102F800000F08050009000BF00BF00220F21901E73
:102F900000F018F808BD0000443802400146084619
:102FA00000280DDB00BF00BF00F01F0301229A4084
:102FB00043099B0003F1E023C3F8002100BF00BFD9
:102FC00000BF70472DE9F05F80460D46164600278A
:102FD00003F0D2FD074639462A46334601F0070082
:102FE000C0F1070ABAF1040F02D94FF0040A01E058
:102FF000C0F1070AD14600F1040ABAF1070F02D264
:103000004FF0000A01E0A0F1030AD4464FF0010A94
:103010000AFA09FAAAF1010A0AEA020A0AFA0CFAF9
:103020004FF0010B0BFA0CFBABF1010B0BEA030B9E
:103030004AEA0B042146404603F0A6FDBDE8F09F96
:1030400000BF00F00702064B19684FF6FF03194056
:10305000044B0B4343EA0221014B196000BF704748
:103060000CED00E00000FA0500BFBFF34F8F0748EA
:10307000006800F4E06006490843001D0349086049
:10308000BFF34F8F00BF00BF00BFFDE70CED00E0B6
:103090000000FA0570B504460D460CB9012070BD5C
:1030A0005848006800F00700A84209D255490D7041
:1030B0000846006800F00700A84201D00120EEE7B2
:1030C000207800F0020002281DD1207800F00400D2
:1030D000042805D14C48006840F4E0504A49086093
:1030E000207800F00800082805D14748006840F41F
:1030F0006040454908604448006820F0F000A1683D
:10310000084341490860207800F00100A8B36068D6
:10311000012807D13C4808380068C0F34040B8B9DE
:103120000120BCE76068022802D06068032807D14C
:10313000354808380068C0F3406048B90120AEE760
:10314000314808380068C0F3400008B90120A6E7FC
:103150002D48006820F00300616808432A49086090
:10316000FFF7A4FB064609E0FFF7A0FB801B41F236
:103170008831884202D9032091E707E0224800689D
:1031800000F00C006168B0EB810FEDD11D480068C4
:1031900000F00700A84209D91A490D7008460068D6
:1031A00000F00700A84201D0012078E7207800F065
:1031B0000400042807D11448006820F4E050E168B6
:1031C000084311490860207800F00800082808D159
:1031D0000D48006820F46040216940EAC1000A49B6
:1031E000086000F061F808490968C1F30311074A53
:1031F000515CC8400649086006480068FFF754FE65
:1032000000204CE7003C024008380240BCD00008D7
:10321000840000207C0000200F2202600D4A12680A
:1032200002F0030242600B4A126802F0F002826070
:10323000084A126802F4E052C260064A126802F4B8
:103240006042D2080261044A126802F007020A6072
:103250007047000008380240003C02400148006806
:10326000704700008400002000B5FFF7F7FF044915
:103270000968C1F38221034A515CC84000BD0000C7
:1032800008380240CCD0000800B5FFF7E7FF04493A
:103290000968C1F34231034A515CC84000BD0000D7
:1032A00008380240CCD000082DE9F0470024002562
:1032B0000026A1462548006800F00C0020B1042833
:1032C00005D008283AD105E0DFF8849039E0DFF82E
:1032D000849036E01D48001F006800F03F041B4842
:1032E000001F006800F4800078B11A481749091FD0
:1032F0000968C1F38811A0FB017001462246002332
:103300003846FCF7C5FF05460EE011480F49091F76
:103310000968C1F38811A0FB017001462246002311
:103320003846FCF7B5FF05460848001F0068C0F3A3
:103330000140401C4600B5FBF6F902E0DFF81090B2
:1033400000BF00BF4846BDE8F087000008380240D3
:103350000024F40040787D01F8B504460CB9012042
:10336000F8BD207800F00100002874D0F94800680A
:1033700000F00C0004280DD0F648006800F00C00A6
:10338000082813D1F348001F006800F48000B0F54E
:10339000800F0BD1EF4808380068C0F34040002888
:1033A00059D06068002856D10120D9E700BF606875
:1033B000B0F5803F08D1E7480838006840F4803015
:1033C000E449083908601EE06068B0F5A02F0DD10F
:1033D000E0480838006840F48020DE490839086079
:1033E0000846006840F4803008600CE0D94808388E
:1033F000006820F48030D749083908600846006822
:1034000020F48020086000BF606890B1FFF74EFA9A
:10341000054606E0FFF74AFA401B642801D903205D
:103420009EE7CC4808380068C0F340400028F1D03F
:1034300011E0FFF73BFA054606E0FFF737FA401BBD
:10344000642801D903208BE7C24808380068C0F31C
:1034500040400028F1D1207800F0020002285FD11E
:10346000BC48006800F00C0058B1BA48006800F091
:103470000C0008281CD1B748001F006800F4800029
:10348000B0B9B44808380068C0F3400020B1E06823
:10349000012801D0012063E7AE480838006820F019
:1034A000F800216940EAC100AA490839086037E0FC
:1034B000E06800B30120A8490860FFF7F7F9054666
:1034C00006E0FFF7F3F9401B022801D9032047E784
:1034D000A04808380068C0F340000028F1D09D489B
:1034E0000838006820F0F800216940EAC1009949D5
:1034F0000839086014E0002097490860FFF7D6F902
:10350000054606E0FFF7D2F9401B022801D9032047
:1035100026E7904808380068C0F340000028F1D141
:10352000207800F0080008282CD16069A8B101209B
:103530008A490860FFF7BAF9054606E0FFF7B6F9D1
:10354000401B022801D903200AE782486C3000683A
:10355000C0F340000028F1D014E000207F4908604B
:10356000FFF7A4F9054606E0FFF7A0F9401B022883
:1035700001D90320F4E677486C300068C0F34000BE
:103580000028F1D1207800F00400042870D1002731
:1035900070483830006800F0805090B900BF0020BB
:1035A00000906C483830006840F0805069493831EC
:1035B00008600846006800F08050009000BF00BF1F
:1035C00001276748006800F48070B0B9644800685B
:1035D00040F4807062490860FFF768F9054606E02C
:1035E000FFF764F9401B022801D90320B8E65C48C4
:1035F000006800F480700028F2D000BFA0680128A5
:1036000008D154486830006840F0010051496831E1
:1036100008601DE0A06805280DD14E48683000689C
:1036200040F004004B49683108600846006840F0EB
:10363000010008600CE047486830006820F0010095
:103640004449683108600846006820F004000860BA
:1036500000BFA068A8B1FFF729F9054609E0FFF708
:1036600025F9401B41F28831884202D9032077E6D0
:1036700026E0384868300068C0F340000028EED0EB
:1036800013E0FFF713F9054608E0FFF70FF9401BB9
:1036900041F28831884201D9032061E62D48683023
:1036A0000068C0F340000028EFD1012F07D129485E
:1036B0003830006820F0805026493831086000BF5B
:1036C000A069002845D02348006800F00C000828B5
:1036D0005DD0A069022845D100201F490866FFF788
:1036E000E5F8054606E0FFF7E1F8401B022801D99E
:1036F000032035E6174808380068C0F3406000280A
:10370000F1D1D4E907010843616A40EA811101223D
:10371000A06AC2EB500041EA00412C20005D41EA62
:1037200000600C49091F086001200B490866FFF77B
:10373000BDF8054606E0FFF7B9F8401B022801D99D
:1037400003200DE6034808380068C0F340600028F5
:10375000F1D049E00838024000004742800E47425D
:1037600000700040002021490866FFF79FF80546D9
:1037700006E0FFF79BF8401B022801D90320EFE584
:103780001B480068C0F340600028F2D12CE0A0691B
:10379000012800D1E4E51648001D0668A06901284B
:1037A00020D006F48001E06981421BD106F03F0180
:1037B000206A814216D147F6C0703040616AB0EB92
:1037C000811F0FD106F440310122A06AC2EB5000E4
:1037D000B1EB004F06D106F070612C20005DB1EB1B
:1037E000006F01D00120BBE50020B9E50000474291
:1037F000003802407047704730B502460B4600BFA4
:1038000092F83C00012801D1022030BD012082F84D
:103810003C0000BF022082F83D0010684468106838
:10382000816824F070041868044310684460144DE3
:103830001068A84213D01068B0F1804F0FD0114D1E
:103840001068A8420BD0104D1068A84207D00F4D49
:103850001068A84203D00E4D1068A84205D121F08F
:1038600080015868014310688160012082F83D00A2
:1038700000BF002082F83C0000BF00BFC5E7000089
:10388000000001400004004000080040000C00401F
:103890000040014010B504460CB9012010BD94F859
:1038A0003D0028B9002084F83C00204600F026F8AE
:1038B000022084F83D00211D206802F0C3FC012095
:1038C00084F8460000BF84F83E0001213F200155E6
:1038D000402001554120015500BF00BF012084F860
:1038E000420043200155442001554520015500BFA9
:1038F000012084F83D000020D0E7000008B50A4A06
:10390000016891420FD100BF002100910749096869
:1039100041F00201054A11601146096801F00201F7
:10392000009100BF00BF08BD0004004040380240C5
:10393000014691F83D00012801D001207047022086
:1039400081F83D000868C06840F001000B68D8604D
:10395000164B0868984213D00868B0F1804F0FD01A
:10396000134B086898420BD0124B0868984207D056
:10397000114B0868984203D0104B086898420CD14C
:103980000868806800F00702062A0CD00868006802
:1039900040F001000B68186005E00868006840F01E
:1039A00001000B6818600020C8E70000000001401B
:1039B0000004004000080040000C004000400140AE
:1039C0002DE9F04104460D46002700BF94F83C0065
:1039D000012802D10220BDE8F081012084F83C00DA
:1039E00000BF022084F83D002068866826F0770634
:1039F00026F47F46206886602868502833D00CDC87
:103A0000202850D004DC00284BD0102851D149E0A8
:103A1000302849D040284CD139E060282DD070287A
:103A200007D0B0F5805F03D0B0F5005F41D10DE065
:103A300041E0D5E902136A68206802F06EFC206854
:103A4000866846F077062068866034E0D5E9021380
:103A50006A68206802F061FC2068806840F4804059
:103A60002168886027E0EA686968206802F026FD1E
:103A70005021206802F05CFC1DE0EA68696820685B
:103A800002F02FFD6021206802F052FC13E0EA688A
:103A90006968206802F012FD4021206802F048FCAD
:103AA00009E000BF00BF00BF2968206802F040FCA9
:103AB00001E0012700BF00BF012084F83D0000BFE6
:103AC000002084F83C0000BF384684E7704770B59A
:103AD00004462068C5682068066906F002000228CE
:103AE00019D105F00200022815D1401F2168086194
:103AF000012020772068806900F0030018B120467B
:103B0000FFF7E4FF05E0204600F0E6F8204600F06D
:103B10009AF90020207706F00400042819D105F056
:103B20000400042815D1C0432168086102202077D1
:103B30002068806900F4407018B12046FFF7C6FF86
:103B400005E0204600F0C8F8204600F07CF900208F
:103B5000207706F00800082819D105F00800082889
:103B600015D1C04321680861042020772068C0690E
:103B700000F0030018B12046FFF7A8FF05E020463B
:103B800000F0AAF8204600F05EF90020207706F049
:103B90001000102819D105F01000102815D1C043CD
:103BA00021680861082020772068C06900F440700F
:103BB00018B12046FFF78AFF05E0204600F08CF898
:103BC000204600F040F90020207706F0010048B1BF
:103BD00005F0010030B16FF0010021680861204656
:103BE00000F0A8F906F08000802809D105F08000D7
:103BF000802805D1C043216808612046FFF7FAFDFF
:103C000006F04000402809D105F04000402805D1C9
:103C1000C04321680861204600F098F906F02000B2
:103C2000202809D105F02000202805D1C0432168B3
:103C300008612046FFF7DFFD70BD000010B586B0BB
:103C40000446142101A8FCF76DFB1F492068884237
:103C500038D100BF002000901C48006840F00100EF
:103C60001A4908600846006800F00100009000BF93
:103C700000BF00BF002000900846006840F002002E
:103C800008600846006800F00200009000BF00BF16
:103C9000C020019002200290002003900490022096
:103CA000059001A90A48FEF70FFD032001900220AC
:103CB00002900020039004900220059001A905487D
:103CC000FEF702FD06B010BD00040040303802408F
:103CD000000002400004024070472DE9F041044614
:103CE0000D461646002700BF94F83C00012802D17B
:103CF0000220BDE8F081012084F83C0000BF36B10D
:103D0000042E1BD0082E31D00C2E5ED145E0294662
:103D1000206802F017FB2068806940F008002168E5
:103D200088612068806920F004002168886120682B
:103D30008069296908432168886148E0294620682C
:103D400002F030FB2068806940F4006021688861DF
:103D50002068806920F4806021688861206880691B
:103D6000296940EA01202168886130E029462068FD
:103D700002F04CFB2068C06940F008002168C8616F
:103D80002068C06920F004002168C8612068C0690B
:103D9000296908432168C86119E02946206802F0B2
:103DA00069FB2068C06940F400602168C861206830
:103DB000C06920F480602168C8612068C0692969F1
:103DC00040EA01202168C86101E0012700BF00BF6F
:103DD00000BF002084F83C0000BF384689E710B5DA
:103DE00004460CB9012010BD94F83D0028B900200C
:103DF00084F83C00204600F025F8022084F83D00BD
:103E0000211D206802F01EFA012084F8460000BF40
:103E100084F83E0001213F200155402001554120FA
:103E2000015500BF00BF012084F842004320015526
:103E3000442001554520015500BF012084F83D0074
:103E40000020D0E77047704770B504460D4615B99D
:103E500094F83E000BE0042D02D13F20005D06E007
:103E6000082D02D14020005D01E04120005D0128C5
:103E700001D0012070BD1DB9022084F83E000EE083
:103E8000042D03D102213F20015508E0082D03D164
:103E900002214020015502E002214120015501226A
:103EA0002946206802F028FA1D492068884201D17D
:103EB000012000E0002028B12068406C40F4004060
:103EC0002168486416492068884213D02068B0F100
:103ED000804F0FD01349206888420BD012492068C8
:103EE000884207D011492068884203D010492068D1
:103EF00088420CD12068806800F00706062E0CD09E
:103F00002068006840F001002168086005E0206832
:103F1000006840F00100216808600020AAE7000066
:103F2000000001400004004000080040000C004078
:103F30000040014010B5044603492068884201D181
:103F4000FEF788FF10BD0000000001407047704779
:103F5000704700002DE9F84F044620680568206886
:103F6000C668206847694FF00009CA4605F00F0986
:103F7000B9F1000F0AD105F0200038B106F0200099
:103F800020B1204602F011FBBDE8F88FB9F1000F17
:103F90007CD007F0010018B906F49070002875D0A5
:103FA00005F0010030B106F4807018B1606C40F08B
:103FB0000100606405F0040030B107F0010018B1A1
:103FC000606C40F00200606405F0020030B107F060
:103FD000010018B1606C40F00400606405F0080056
:103FE00048B106F0200010B907F0010018B1606C6C
:103FF00040F008006064606C002846D005F02000A6
:1040000028B106F0200010B1204602F0CEFA206858
:104010004069C0F3801A606C00F0080010B9BAF172
:10402000000F2DD0204602F07AFA2068406900F097
:104030004000402820D100BF00BF2168143151E862
:10404000001F21F040002168143141E80002002ADD
:10405000F3D100BFE06B50B17748E16B0865E06BCE
:10406000FEF71EFB88B1E06B016D88470DE020462E
:10407000FFF76EFF09E009E02046FFF769FF04E063
:104080002046FFF765FF002060647DE7206B012874
:1040900078D105F01000002874D006F01000002838
:1040A000FAD000BF002000902068006800902068CF
:1040B0004068009000BF00BF2068406900F04000E9
:1040C000402860D1E06B006840681FFA80F8B8F1C2
:1040D000000F56D0A08D404553DDA4F82E80E06B34
:1040E000C069B0F5807F43D000BF00BF21680C31AC
:1040F00051E8001F21F4807021680C3141E8000272
:10410000002AF3D100BF00BF00BF2168143151E87D
:10411000001F21F001002168143141E80002002A4B
:10412000F3D100BF00BF00BF2168143151E8001F68
:1041300021F040002168143141E80002002AF3D147
:1041400000BF202084F842000020206300BF00BF91
:1041500021680C3151E8001F21F0100021680C315A
:1041600041E80002002AF3D100BFE06BFEF742FAFB
:1041700002206063A08DE28D801A81B22046FFF795
:10418000E6FE01E742E0A08DE18D401A1FFA80F8BB
:10419000E08DD0B3B8F1000F37D000BF00BF216869
:1041A0000C3151E8001F21F4907021680C3141E876
:1041B0000002002AF3D100BF00BF00BF2168143104
:1041C00051E8001F21F001002168143141E800028C
:1041D000002AF3D100BF202084F842000020206391
:1041E00000BF00BF21680C3151E8001F21F0100012
:1041F00021680C3141E80002002AF3D100BF0220FF
:10420000606341462046FFF7A2FEBDE605F0800050
:1042100030B106F0800018B1204602F07BFBB3E617
:1042200005F0400030B106F0400018B1204602F021
:10423000ACF9A9E600BFA7E60B65000810B5044677
:104240000CB9012010BDA06900B100E000BF94F8D6
:10425000410028B9002084F84000204600F02AF8E8
:10426000242084F841002068C06820F400502168B0
:10427000C860204602F018FA2068006920F49040D7
:10428000216808612068406920F02A00216848619F
:104290002068C06840F400502168C8600020606455
:1042A000202084F8410084F842000020606300BFB1
:1042B000C8E7000010B586B00446142101A8FCF739
:1042C00031F81F492068884238D100BF0020009093
:1042D0001C48006840F010001A4908600846006851
:1042E00000F01000009000BF00BF00BF0020009051
:1042F00014481438006840F001001249143908606D
:104300000846006800F00100009000BF00BF4FF4B5
:10431000C0600190022002900020039003200490CE
:104320000720059001A90848FEF7CEF900220521D3
:104330002520FEF747FE2520FEF730FE06B010BD13
:1043400000100140443802400000024070B50446AD
:104350000D46164694F8420020280BD105B10EB93F
:10436000012070BD0020206332462946204602F01D
:10437000B1FAF6E70220F4E770B504460F49206869
:10438000884219D100BF5021EFF3118081F31188C9
:10439000BFF34F8FBFF36F8F00BF05460121084861
:1043A00005F0C8FF012206490648FFF7CFFF28465F
:1043B00080F3118800BF00BF70BD000000100140F5
:1043C000760000207C0B00202DE9F84F04460E46B5
:1043D000174699464FF0000A94F84100202850D122
:1043E00006B117B90120BDE8F88F002060642120D4
:1043F00084F84100FEF75AFA8246A784E784A06851
:10440000B0F5805F04D1206910B90025B04602E004
:1044100035464FF000081EE053460022802120461A
:10442000CDF8009002F0A6FA20B1202084F84100D7
:104430000320D8E745B9B8F80000C0F308002168A8
:10444000486008F1020803E02878216848606D1C84
:10445000E08C401EE084E08C0028DDD15346002231
:1044600040212046CDF8009002F084FA20B12020AF
:1044700084F841000320B6E7202084F841000020A2
:10448000B1E70220AFE7704700BFFEE701460868CA
:104490004069C0F38020B0B16FF480600A68506159
:1044A00000200863202081F83D00002081F83E00B4
:1044B000086C40F00400086400BF002081F83C0054
:1044C00000BF012070470020FCE700002DE9F84301
:1044D00004460F4615469946DDE9088620680068BF
:1044E00040F48060216808602068006840F48070B3
:1044F00021680860434600224FF0011120460096D3
:1045000000F094F860B12068006800F48070B0F5A5
:10451000807F02D14FF4007020640320BDE8F8834F
:1045200007F0FE0021680861334642463E492046B6
:1045300000F0DBF808B10120F0E700BF0020009098
:1045400020684069009020688069009000BF00BF2B
:1045500032464146204600F08AF950B1206C0428CA
:1045600005D12068006840F40070216808600120CF
:10457000D4E7B9F1010F03D1E8B22168086117E06F
:10458000C5F307202168086132464146204600F005
:104590006EF950B1206C042805D12068006840F401
:1045A0000070216808600120B8E7E8B2216808615E
:1045B00032464146204600F05AF950B1206C04289A
:1045C00005D12068006840F400702168086001206F
:1045D000A4E72068006840F48070216808604346C2
:1045E00000224FF001112046009600F01FF858B14C
:1045F0002068006800F48070B0F5807F02D14FF42D
:1046000000702064032089E7F8B240F001002168BF
:104610000861334642460449204600F066F808B176
:1046200001207BE7002079E7020001002DE9F0413D
:1046300004460D4617461E46DDF8188038E0701C0B
:10464000A8B3FEF733F9A0EB0800B04200D876BB60
:10465000C5F3074001280AD120684069A9B2084083
:10466000A9B2884201D101200BE0002009E02068B6
:104670008069A9B20840A9B2884201D1012000E0B6
:104680000020B84214D100202063202084F83D008F
:10469000002084F83E00206C40F02000206400BF21
:1046A000002084F83C0000BF0120BDE8F081FFE756
:1046B000C5F3074001280AD120684069A9B2084023
:1046C000A9B2884201D101200BE0002009E0206856
:1046D0008069A9B20840A9B2884201D1012000E056
:1046E0000020B842ABD00020DFE72DE9F0410446BE
:1046F0000D4616461F4658E020684069C0F38020EA
:10470000E8B12068006840F40070216808606FF428
:1047100080602168486100202063202084F83D00EB
:10472000002084F83E00206C40F00400206400BFAC
:10473000002084F83C0000BF0120BDE8F081701C1F
:1047400090B3FEF7B3F8C01BB04200D866BBC5F308
:10475000074001280AD120684069A9B20840A9B2DF
:10476000884201D101200BE0002009E02068806927
:10477000A9B20840A9B2884201D1012000E000207E
:1047800090B900202063202084F83D00002084F8A8
:104790003E00206C40F02000206400BF002084F820
:1047A0003C0000BF0120C8E7FFE7C5F30740012830
:1047B0000AD120684069A9B20840A9B2884201D153
:1047C00001200BE0002009E020688069A9B20840C0
:1047D000A9B2884201D1012000E0002000288BD03E
:1047E0000020AAE770B504460D46164637E020685B
:1047F0004069C0F30010A0B16FF01000216848615B
:1048000000202063202084F83D00002084F83E0032
:10481000206C206400BF002084F83C0000BF012011
:1048200070BDFEF743F8801BA84200D8BDB92068D0
:104830004069C0F3801090B900202063202084F8E4
:104840003D00002084F83E00206C40F020002064F1
:1048500000BF002084F83C0000BF0120E0E7206892
:104860004069C0F380100028C1D00020D8E770B59F
:1048700004460D46164625E02046FFF707FE08B120
:10488000012070BD681CE8B1FEF710F8801BA8423B
:1048900000D8BDB920684069C0F3C01090B90020AD
:1048A0002063202084F83D00002084F83E00206C26
:1048B00040F02000206400BF002084F83C0000BFCE
:1048C0000120DEE720684069C0F3C0100028D3D083
:1048D0000020D6E72DE9F0472DED028B84B0044689
:1048E0000020039000BF3220042103AACDE900215B
:1048F000029004EBC40101EB41011B4A02EB0111E0
:1049000001230C22886D6C21FEF7BEF80C260427CB
:104910003046FBF7A1FE41EC180BB0EE481AF0EE62
:10492000681A9FED120B02F033FAA6EB070801207C
:1049300000FA08F0401E00F0FF090120B840401EB8
:1049400000F0FF0A9DF80D0000EA09059DF80C0033
:1049500000EA0A0000FA08F0284485B2284604B0AC
:10496000BDEC028BBDE8F087B0880020000000009D
:10497000000000402DE9F0412DED028B82B004468D
:10498000B0EE408AF0EE608A0D4616461F46DDF80E
:1049900028803B4632462946F0EE680AB0EE480AC7
:1049A0002046CDF8008004F015FD2046FCF750FBB2
:1049B00002B0BDEC028BBDE8F081000049E00121AE
:1049C0002448FDF765FF002840D10F2007F040FA8A
:1049D00001212048FDF75CFFA0B91F48007801289D
:1049E00010D001201C4908701C48007828B91C48C8
:1049F0000068401C1A49086004E019480068401E1D
:104A00001749086001211348FDF742FF012802D130
:104A100000201149087012480068052807DB0520AE
:104A20000F4908600D480078C0430C4908700C48D5
:104A3000006810F1050F0CDC6FF0040008490860F5
:104A400006480078C0430549087002E0142007F0CA
:104A5000FFF9B4E7000002404800002038000020C1
:104A6000340000202DE9F04107460C4615461E464D
:104A70002A2000F001FC384600F0EEFB284600F04A
:104A8000EBFB2B2000F0F8FB204600F0E5FB304666
:104A900000F0E2FB2C2000F0EFFBBDE8F0812DE9F7
:104AA000FF4F85B081468A460020039083460798D1
:104AB000A0EB09050898A0EB0A06CDF80890CDF800
:104AC00004A0002D01DD012705E00DB9002702E05B
:104AD0004FF0FF376D42002E02DD4FF0010806E077
:104AE00016B94FF0000802E04FF0FF387642B542A9
:104AF00001DD2C4600E03446002004901EE0019ABF
:104B000091B2029A90B2129A00F01FF803982844CA
:104B10000390B3440398A04205DD0398001B039063
:104B2000029838440290A34504DDABEB040B0198D6
:104B3000404401900498401C80B20490611C049889
:104B40008842DCDB09B0BDE8F08F70B504460D4645
:104B500016462B46224629462046FFF783FF30465D
:104B600000F07AFB70BD2DE9F04706460F4614466B
:104B70001D46DDF820A0681E83B2601E82B2394651
:104B80003046FFF76FFFB8460EE0B14606E05046EC
:104B900000F062FB09F101001FFA80F9A145F6DB84
:104BA00008F101001FFA80F8A845EEDBBDE8F087A8
:104BB00008B5002280216B48FDF772FE142007F033
:104BC00047F9012280216748FDF76AFE142007F0AB
:104BD0003FF9012220216348FDF762FE142007F00F
:104BE00037F9112000F048FB782007F031F9362022
:104BF00000F042FB002000F038FB3A2000F03CFBC4
:104C0000052000F032FBB22000F036FB0C2000F053
:104C10002CFB0C2000F029FB002000F026FB3320A9
:104C200000F023FB332000F020FBB72000F024FB32
:104C3000352000F01AFBBB2000F01EFB322000F0F4
:104C400014FBC22000F018FB012000F00EFBC32073
:104C500000F012FB152000F008FBC42000F00CFB54
:104C6000202000F002FBC62000F006FB0F2000F021
:104C7000FCFAD02000F000FBA42000F0F6FAA120FE
:104C800000F0F3FAE02000F0F7FAD02000F0EDFA9F
:104C9000082000F0EAFA0E2000F0E7FA092000F000
:104CA000E4FA092000F0E1FA052000F0DEFA3120F4
:104CB00000F0DBFA332000F0D8FA482000F0D5FAF3
:104CC000172000F0D2FA142000F0CFFA152000F0DF
:104CD000CCFA312000F0C9FA342000F0C6FAE12005
:104CE00000F0CAFAD02000F0C0FA082000F0BDFAA7
:104CF0000E2000F0BAFA092000F0B7FA092000F0FF
:104D0000B4FA152000F0B1FA312000F0AEFA3320E9
:104D100000F0ABFA482000F0A8FA172000F0A5FA3E
:104D2000142000F0A2FA152000F09FFA312000F0C4
:104D30009CFA342000F099FA212000F09DFA2920F5
:104D400000F09AFA4FF6FF70F0231A460021009007
:104D50000846FFF708FF012003490870034908705F
:104D600008BD000000040240AB02002097020020B2
:104D70002DE9FF5F80468A4617469B460F9D00201F
:104D80000290CDF80080284605EBD071C1F34704AE
:104D90002046E21704EB5272D2102146E31704EBCF
:104DA0005373DB10A4EBC3030BB1012300E000231A
:104DB0001A446A4392B20192A7F12000C7B20AEBEB
:104DC0000500401E83B208EB0400401E82B251462B
:104DD0004046FFF747FE002669E00C2D07D107EBA0
:104DE0004700354901EB8000805D03901BE0102DEA
:104DF00005D1324800EB0710805D039013E0182DB9
:104E000007D107EB47002E4901EB0010805D0390AE
:104E100009E0202D05D12B4800EB8710805D039021
:104E200001E0BDE8FF9F4FF000093AE01098C8B9D3
:104E3000012000FA09F00399084018B1584600F023
:104E40000BFA02E00E9800F007FA0298401CC0B27C
:104E50000290029890FBF4F104FB1100E8B90020E5
:104E6000029021E0012000FA09F00399084020B1E6
:104E70005A4651464046FFF768FE08F101001FFA06
:104E800080F80098A8EB0000A04206D1DDF8008071
:104E90000AF101001FFA80FA06E009F1010000F0B2
:104EA000FF09B9F1080FC1DB00BF701C86B2019881
:104EB000864292DB00BFB4E7D4D0000848D5000892
:104EC00038DB000808ED00082DE9FF4F2DED020B3F
:104ED0002DED028B83B00746B0EE408A1546DDE922
:104EE0001486304606EBD071C1F34709B5EEC08A8F
:104EF000F1EE10FA0ADB0020CDE9008602902022B4
:104F000038460A9B0899FFF733FF0DE0B1EE480AD7
:104F1000B0EE408A0020CDE9008602902D2238466E
:104F20000A9B0899FFF724FF07EB090087B29FED62
:104F3000220A28EE000ABCEEC00A10EE100A1FFA80
:104F400080FB002430E0281B401EC1B20A2005F07F
:104F5000D3F9BBFBF0F00A21B0FBF1F201FB120A1E
:104F6000A81EA04210D10020A91E01FB0971CDE9A5
:104F70000086029088B22E220A9B0899FFF7F8FE5D
:104F8000601CC4B2681CC5B200200AF13001CAB26C
:104F900004FB0971CDE90086029088B20A9B08994A
:104FA000FFF7E6FE601CC4B2AC42CCDB03B0BDEC44
:104FB000028B06B0BDE8F08F0000C8422DE9FF4F1C
:104FC0002DED020B2DED028B83B00746B0EE408A2B
:104FD0001546DDE91486304606EBD071C1F347096A
:104FE000B5EEC08AF1EE10FA0ADB0020CDE90086AA
:104FF0000290202238460A9B0899FFF7B9FE0DE07F
:10500000B1EE480AB0EE408A0020CDE90086029059
:105010002D2238460A9B0899FFF7AAFE07EB0900E4
:1050200087B29FED220A28EE000ABCEEC00A10EEFD
:10503000100A1FFA80FB002430E0281B401EC1B27A
:105040000A2005F059F9BBFBF0F00A21B0FBF1F2A0
:1050500001FB120A681FA04210D10020691F01FB4A
:105060000971CDE90086029088B22E220A9B089928
:10507000FFF77EFE601CC4B2681CC5B200200AF1B6
:105080003001CAB204FB0971CDE90086029088B2F2
:105090000A9B0899FFF76CFE601CC4B2AC42CCDBE3
:1050A00003B0BDEC028B06B0BDE8F08F0050C347E3
:1050B0002DE9FF4F85B0064617469846DDE9139562
:1050C00000200490284605EBD071C1F3470B002F58
:1050D0000ADB0020CDE90095029020223046129B89
:1050E0000699FFF745FE0AE07F420020CDE90095D2
:1050F00002902D223046129B0699FFF739FE06EBEF
:105100000B0086B2B8B20390002437E0A8EB04008D
:10511000401EC1B20A2005F0EFF80399B1FBF0F090
:105120000A21B0FBF1F201FB120A0498A8B9A8F118
:105130000100A04211DDBAF1000F0CD1002004FBE8
:105140000B61CDE90095029088B22022129B06994E
:10515000FFF70EFE10E00120049000200AF130015C
:10516000CAB204FB0B61CDE90095029088B2129B94
:105170000699FFF7FDFD00BF601CC4B24445C5DBC6
:1051800009B0BDE8F08F2DE9FE4F06460F461446E4
:105190009846DDE90D5ADDF8309010E0CDE9015A6E
:1051A000CDF800902278434639463046FFF7E0FDBF
:1051B000284605EBD07106EB61018EB2641C2078A5
:1051C0000028EBD1BDE8FE8F3AE01E48007850B9C8
:1051D000FFF7EEFC1820FCF7ADFDFCF719FF3220BD
:1051E00006F036FE2CE01848006818490860184898
:1051F00090ED090A084680ED020A154890ED0A0A6A
:10520000084680ED040A124890ED0B0A084680ED2E
:10521000050A0F48406F48600E4800780D498978AC
:10522000884208D0FCF7F4FE0A48007809498870E3
:105230000020487001E0FCF79FFD322006F008FED8
:10524000C3E70000AB02002034000020108C0020D7
:10525000B08800207C02002010B50446201200F027
:105260001DF8E0B200F01AF810BD10B50446204653
:1052700000F014F810BD000010B5044600224021D3
:105280000548FDF70DFB204600F008F801224021FB
:105290000148FDF705FB10BD0004024070B504464F
:1052A00000251DE000224FF400710F48FDF7F8FAC9
:1052B00004F0800028B1012211020B48FDF7F0FA3A
:1052C00005E000224FF480710748FDF7E9FA01225A
:1052D00051020548FDF7E4FA6006040E681CC5B2E9
:1052E000082DDFDB70BD0000000402401AE00E480C
:1052F000006880F400500C4908600C4890ED000AEA
:10530000B8EEC00AB0EEC00ADFED090A20EE200AAE
:10531000BCEEC00A10EE100AC0B200F164042046D0
:1053200006F096FDE3E70000140802403400002078
:105330000000C84210B504469FED300A04EBC400DB
:1053400000EB40002E4901EB001080ED310A9FED8B
:105350002D0A04EBC40000EB400001EB001080EDCF
:10536000320A04EBC40101EB4101254A02EB0111B1
:1053700001F1CC00FCF7D5FC9FED200A04EBC40042
:1053800000EB40001E4901EB001080ED360A9FED56
:105390001D0A04EBC40000EB400001EB001080ED9F
:1053A000370A04EBC40101EB4101154A02EB01117C
:1053B00001F1E000FCF7B5FC9FED130A04EBC4001B
:1053C00000EB40000E4901EB001080ED3B0A9FED21
:1053D0000D0A04EBC40000EB400001EB001080ED6F
:1053E0003C0A04EBC40101EB4101054A02EB011147
:1053F00001F1F400FCF795FC10BD0000CDCC4C3D54
:10540000B08800200000000017B7D13810B52DED8E
:10541000048B0446B0EE408A04F10800FCF776FEE7
:1054200000EE100AB8EE400ADFED160A20EE200A60
:10543000F0EE409A9FED140AF4EEC09AF1EE10FAE5
:1054400006DD84ED018AB0EE480ABDEC048B10BD88
:1054500094ED000AD4ED000A70EEA90AC0EE208A8D
:1054600094ED010A20EE280AF7EE000A70EEE80A31
:10547000B0EE409A00EE889A84ED019AB0EE490AA7
:10548000E3E700006F12833A9A99993E1FB5002016
:1054900000900190029003901548164908604FF45F
:1054A000403048600021134881600161017680F836
:1054B0002010C162104981620021C1600121C161D7
:1054C000002180F8301001214161FCF705FF08B18F
:1054D000FCF724FC01200090019000200290694616
:1054E0000448FCF72FFE08B1FCF718FC1FBD0000B4
:1054F00000200140980900200100000F00B587B08E
:10550000142102A8FAF70EFF00BF002001904348C3
:10551000006840F00400414908600846006800F057
:105520000400019000BF00BF00BF002001900846AA
:10553000006840F0800008600846006800F08000C5
:10554000019000BF00BF00BF002001900846006826
:1055500040F0010008600846006800F0010001907A
:1055600000BF00BF00BF002001900846006840F067
:10557000020008600846006800F00200019000BFC9
:1055800000BF00224FF400512548FDF789F90022A1
:1055900004212448FDF784F901224FF47871214851
:1055A000FDF77EF94FF40050029001200390002097
:1055B0000490059002A91A48FDF786F80120029090
:1055C000002003900120049002A91748FDF77CF801
:1055D00004200290012003900020049001200590F7
:1055E00002A91048FDF770F84FF4E0400290002047
:1055F00003900120049002A90A48FDF765F84FF4D2
:105600007870029001200390002004900220059001
:1056100002A90448FDF758F807B000BD3038024031
:1056200000080240000402400000024010B50B4890
:105630000B4908600B484860002109488160C1603F
:105640004FF480410161002141618161C1610162CA
:10565000FDF732F908B1FCF761FB10BD005C0040BA
:10566000E0090020A086010000B58DB0002009905F
:105670000A900B900C90079008901C216846FAF74E
:1056800051FE3448344908600320486020213248E4
:1056900081604FF4C871C160002101618161FEF732
:1056A000F9F808B1FCF73AFB4FF48050099009A9CA
:1056B0002948FEF785F908B1FCF730FB2648FEF7CC
:1056C0008EFB08B1FCF72AFB00200790089007A981
:1056D0002148FEF791F808B1FCF720FB602000900C
:1056E00000200190029004200490002269461A488C
:1056F000FEF7F3FA08B1FCF711FB042269461648DD
:10570000FEF7EBFA08B1FCF709FB082269461248DC
:10571000FEF7E3FA08B1FCF701FB0C2269460E48DC
:10572000FEF7DBFA08B1FCF7F9FA00210A48FEF7A8
:105730008BFB04210848FEF787FB08210648FEF78B
:1057400083FB0C210448FEF77FFB0348FEF776FA43
:105750000DB000BD00040040340A002010B50B4815
:105760000B4908604FF4E13048600021084881602F
:10577000C16001610C21416100218161C161FEF7BD
:105780005DFD08B1FCF7CAFA10BD00000010014031
:105790007C0B002070B504460D4604EBC40000EB02
:1057A0004000204901EB001085654FF4805104EB67
:1057B000C40000EB40001B4A02EB0010C16520460C
:1057C000FFF788F804EBC40101EB4101154A02EB35
:1057D000011148669FED140A04EBC40000EB400081
:1057E000114601EB001080ED180A9FED0F0A04EB43
:1057F000C40000EB400001EB001080ED1A0A00210C
:1058000004EBC40000EB400002EB0010416604EB27
:10581000C40101EB410102EB011101F16C00FCF745
:1058200080FA70BDB08800200000000000BFFEE7D5
:1058300010B504462046FFF77DFDB9A001F074F9CC
:1058400004EBC40000EB4000B84901EB001090ED00
:10585000060A04EBC40000EB400001EB0010D0EDA1
:10586000030AB4EEE00AF1EE10FA0FDD04EBC40017
:1058700000EB400001EB001090ED030A04EBC400C4
:1058800000EB400001EB001080ED060A04EBC400C1
:1058900000EB4000A54901EB00100470A44804EBA4
:1058A000C40101EB4101A14A02EB01114860B2EED3
:1058B000080A04EBC40000EB4000114601EB0010A5
:1058C00080ED020AB0EE000A04EBC40000EB4000D9
:1058D00001EB001080ED060A072004EBC40101EB88
:1058E000410102EB0111C86104EBC40000EB400070
:1058F000114601EB001090ED020AF0EE000A80EE76
:10590000201A04EBC40000EB400001EB001080ED16
:10591000031AB3EE040A04EBC40000EB400001EBF1
:10592000001080ED050AB2EE040A04EBC40000EB9F
:10593000400001EB001080ED040A002004EBC401DC
:1059400001EB410102EB01110862204600F06CF905
:10595000002104EBC40000EB4000744A02EB00108D
:1059600080F85410012104EBC40000EB400002EB6E
:10597000001080F855109FED6F0A04EBC40000EB97
:105980004000114601EB001080ED090A9FED690A05
:1059900004EBC40000EB400001EB001080ED0A0AAC
:1059A0009FED640A04EBC40000EB400001EB001023
:1059B00080ED0B0A9FED5F0A04EBC40000EB400092
:1059C00001EB001080ED0C0A9FED5A0A04EBC400B5
:1059D00000EB400001EB001080ED0E0A9FED550A30
:1059E00004EBC40000EB400001EB001080ED0F0A57
:1059F0009FED500A04EBC40000EB400001EB0010E7
:105A000080ED100A9FED4B0A04EBC40000EB400050
:105A100001EB001080ED110A9FED460A04EBC40073
:105A200000EB400001EB001080ED120A9FED410AEF
:105A300004EBC40000EB400001EB001080ED130A02
:105A40009FED3C0A04EBC40000EB400001EB0010AA
:105A500080ED140A04EBC40000EB400001EB0010E1
:105A600090ED030A04EBC40000EB400001EB0010D2
:105A700080ED5A0A04EBC40000EB400001EB00107B
:105A800090ED030A04EBC40000EB400001EB0010B2
:105A900080ED650A04EBC40000EB400001EB001050
:105AA00090F8540080B904EBC40000EB400001EB17
:105AB000001090ED030A04EBC40000EB400001EB82
:105AC000001080ED440A10E004EBC40000EB40003D
:105AD000164901EB001090ED040A04EBC40000EB42
