:020000040800F2
:10000000384D00206D020008B7220008991A000838
:10001000B5220008490600084F280008000000002B
:10002000000000000000000000000000AD0100081A
:100030004B060008000000000902000855230008D4
:10004000870200088702000887020008870200086C
:10005000870200088702000887020008870200085C
:10006000870200088702000887020008870200084C
:10007000870200088702000887020008870200083C
:1000800087020008870200088702000800000000BD
:1000900000000000000000000000000087020008CF
:1000A000870200082524000887020008870200084C
:1000B00087020008870200088702000887020008FC
:1000C00087020008870200088702000887020008EC
:1000D000870200088702000887020008000000006D
:1000E000870200088702000887020008000000005D
:1000F000000000000000000000000000870200086F
:10010000000000008702000887020008870200083C
:1001100000000000000000000000000000000000DF
:10012000870200088702000887020008870200088B
:10013000870200080000000000000000000000002E
:10014000000000000000000000000000870200081E
:10015000870200088702000887020008870200085B
:10016000870200088702000800000000000000006D
:10017000000000000000000000000000000000007F
:1001800000000000870200080000000000000000DE
:1001900087020008DFF810D000F048F90048004757
:1001A000D9280008AFF30080384D00202C4B196887
:1001B0000868B0E8F04F80F30988BFF36F8F4FF005
:1001C000000080F3118870470000000008480068B4
:1001D000006880F308884FF0000080F3148862B64E
:1001E00061B6BFF34F8FBFF36F8F00DF00BF00BF5B
:1001F00008ED00E0DFF80C00016841F470010160D7
:10020000704700BF88ED00E0EFF30980BFF36F8F08
:10021000134B1A681EF0100F08BF20ED108A20E95A
:10022000F04F106009B44FF0500080F31188BFF315
:100230004F8FBFF36F8F03F0FBF94FF0000080F397
:10024000118809BC19680868B0E8F04F1EF0100F5B
:1002500008BFB0EC108A80F30988BFF36F8F704736
:1002600038000020EFF30580704700000648804703
:1002700006480047FEE7FEE7FEE7FEE7FEE7FEE78B
:10028000FEE7FEE7FEE7FEE71524000895010008FB
:100290002DE9F05F0546002092469B4688460646BB
:1002A000814640241BE0284641464746224600F04E
:1002B00076F853465A46C01A914110D31146184653
:1002C000224600F05DF82D1A67EB01084F462246E2
:1002D0000120002100F054F817EB00094E41201EC8
:1002E000A4F10104DFDC484631462A464346BDE816
:1002F000F09F40EA01039B0703D009E008C9121FE1
:1003000008C0042AFAD203E011F8013B00F8013BCF
:10031000521EF9D27047D2B201E000F8012B491EFB
:10032000FBD270470022F6E710B513460A46044692
:100330001946FFF7F0FF204610BD421C10F8011BC4
:100340000029FBD1801A704701F0004330B421F03E
:10035000004150EA010206D00A0DA2F56072C1F315
:100360001301002A02DC30BC00207047440F44EA2D
:10037000C104C100E01830BC00EBC25000F01FB84F
:10038000202A04DB203A00FA02F100207047914055
:10039000C2F1200320FA03F3194390407047202A4A
:1003A00004DB203A21FA02F00021704721FA02F31F
:1003B000D040C2F1200291400843194670470029FD
:1003C000A8BF7047401C490008BF20F001007047DB
:1003D00010B4B0FA80FC00FA0CF050EA010404BF3B
:1003E00010BC704749B1CCF1200421FA04F411FA91
:1003F0000CF118BF012121430843A3EB0C01CB1DD5
:100400004FEA00614FEA102042BF002010BC704745
:1004100000EBC35010440029A4BF10BC7047401C1F
:10042000490008BF20F0010010BC7047064C074D82
:1004300006E0E06840F0010394E8070098471034B4
:10044000AC42F6D3FFF7AAFEE47400080475000876
:1004500070B58C1810F8015B15F0070301D110F886
:10046000013B2A1106D110F8012B03E010F8016BB3
:1004700001F8016B5B1EF9D12B0705D40023521E36
:100480000DD401F8013BFAE710F8013BCB1A921C9E
:1004900003E013F8015B01F8015B521EF9D5A1429C
:1004A000D8D3002070BD00007CB502F0DFFE2B48E1
:1004B0000324CDE900404FF4007500232A4628A10B
:1004C0002A4803F0BBFB012802D129A002F0C0F9A1
:1004D00022480023001DCDE900402A462BA12E48CA
:1004E00003F0ACFB012802D12CA002F0B1F91B48AB
:1004F00000230830CDE900402A462FA1324803F0FE
:100500009DFB012802D131A002F0A2F913482A462E
:100510000C30CDE9004000F1080335A1374803F065
:100520008DFB012802D136A002F092F90B4800237E
:100530001030CDE900402A4638A13B4803F07EFB4D
:10054000012802D139A002F083F90448001FC069D4
:1005500002F08AFFBDE87C4002F0A8BE0400002043
:100560004C45445F5461736B00000000B9200008E3
:10057000B4B4BDA8204C45445F5461736B20C8CE11
:10058000CEF1B3C9B9A6210A0A0000004B45595F54
:100590005461736B000000009D1A0008B4B4BDA83C
:1005A000204B45595F5461736B20C8CECEF1B3C95F
:1005B000B9A6210A0A00000050574D5F4445544532
:1005C00043545F5461736B00B9220008B4B4BDA8F2
:1005D0002050574D5F4445544543545F5461736BFD
:1005E00020C8CECEF1B3C9B9A6210A0A0000000086
:1005F0004C43445F5461736B000000000D20000801
:10060000B4B4BDA8204C43445F5461736B20C8CE82
:10061000CEF1B3C9B9A6210A0A0000004543313121
:100620005F5461736B0000004D060008B4B4BDA8B0
:1006300020454331315F5461736B20C8CECEF1B396
:10064000C9B9A6210A0A0000FEE770470B4D0C4C01
:10065000287868B100F00CF900F014F8607018B157
:10066000A178884200D0A070052002F0D7FEEFE705
:100670000521002000F0D4F8EAE7000097010020EF
:10068000990100202DE9F047634B844603F10901ED
:1006900000209625D3E90374AE000A784FF0020AD1
:1006A0004FF014090146BCF1010F06D0BCF1FF3F29
:1006B00005D0BCF1030F0AD002E005200AE00620B5
:1006C0001CF1030F05D0BCF1020F0DD002E0072092
:1006D00000E00820B9FBF2FCBC4521DDD9601971AE
:1006E0005971997119613AE0DFF830C1674501DA53
:1006F0007F1CDF60B9FBF2F8D3F80CC00127E0459E
:1007000000D11F71002C04DDB5FBF2F8A04500DB21
:100710009F71B6FBF2F4644521D15F7119711EE03F
:100720001F79012F0FD19F791FB1012F0FD027B152
:1007300009E0002C01DB641C1C61B5FBF2F41F69AD
:10074000BC4200DA19715C79012C07D007E0B5FBD7
:10075000F2F7A742F7DB83F806A0F4E75971B9FB7B
:10076000F2FC2D4CDF68247ABC454ADA93F804C0C9
:10077000BCF1000F0BD1B5FBF2FCD3F81080C445DF
:1007800005DAB6FBF2FCBC4501DD1F781FB19F798D
:10079000022F0AD015E0072C05D0082C03D0012029
:1007A000D96019610CE0FF20FAE71F69002F08DD0E
:1007B000B5FBF2F5BD4204DBD96019610220197165
:1007C00099715D79012D01D09DB11AE0B6FBF2F56A
:1007D000DE68B54215DC5D696D1CC826B6FBF2F219
:1007E000B5FBF2F602FB16525D6152B90420596165
:1007F00009E0B6FBF2F2DD68AA4202DC0320D96010
:1008000001E0002806D0A04200D01872FF2801D1D4
:1008100000201972BDE8F08790010020A086010039
:100820002DE9F0410025104C012610B1E67011B100
:1008300002E0E570FBE701210B480C4F0930017025
:100840004FF48051384600F03BFA60704FF480411D
:10085000384600F035FAA070E560256125716571B4
:10086000A571E671BDE8F08190010020000402400E
:100870002DE9F0475A4D00244FF48050E978671E67
:10088000584E0029814601464FF4804830460ED02C
:1008900000F016FA697888427ED04946304600F06A
:1008A0000FFA0128A87817D0012841D046E000F0BF
:1008B00007FA6978884271D04946304600F000FA5C
:1008C00000285FD14146304600F0FAF9012801D1F5
:1008D000012457E03C4655E0012805D14146304609
:1008E00000F0EEF900B90124A87830B9414630464D
:1008F00000F0E6F9012800D13C464146304600F0C0
:10090000DFF9A978884205D14146304600F0D8F990
:1009100000B901244146304600F0D2F9A978884256
:1009200030D14146304600F0CBF90128D2D029E041
:100930004146304600F0C4F900B93C46A87830B9C9
:100940004146304600F0BCF9012800D1012441465F
:10095000304600F0B5F9A978884205D141463046C5
:1009600000F0AEF900B93C4647464146304600F03B
:10097000A7F9A978884205D13946304600F0A0F998
:100980000128A5D04946304600F09AF968704146E2
:10099000304600F095F900E000E0A8704FF40057F1
:1009A0003946304600F08CF978B92878204306D0D3
:1009B00001202870012C04D0601C04D005E0022422
:1009C00003E0032401E06FF002043946304600F0F2
:1009D00077F9012801D1002028702046BDE8F08772
:1009E000900100200004024072B6FEE738B5144CB6
:1009F00000F1080147F67C55E170A070891DCBB26B
:100A00002370801D6070201D022101700021817003
:100A10004170C170F0220846009501F0DFF84FF6F2
:100A2000FF700090F0231A462178002001F0D6F8DC
:100A30005A220095F0232178104601F076F838BD4F
:100A4000B80000202DE9FE4F244D2E1D287806EB1E
:100A500000100068FFF771FC2F1F47F67C53FA78EF
:100A60004FF00008CDE90032CDF808802978C0B2F7
:100A700006EB011140420A68782101EBC0004FF4F7
:100A8000784980B24B46414601F06DFA287806EB72
:100A90000010007B00281FD0CA4600244FF6FF79C3
:100AA00014E0BB78CDF80090CDE90138816804EB03
:100AB000440051F820203878797814FB010081B285
:100AC0005346002001F04FFA641CE4B2287806EB8C
:100AD0000010017BA142E4D8BDE8FE8FBC000020DD
:100AE0002DE9F84FDFF8B8A10022012403254FF0CB
:100AF0000F090AF1040BAAF1040E00BF0B6804FAF7
:100B000002F63340B34273D10F7907F00307012F88
:100B100001D0022F16D187684FEA420805FA08FC77
:100B200027EA0C07D1F80CC00CFA08FC4CEA070CB9
:100B3000C0F808C04768B7430E79C6F30016964060
:100B40003E4346600E79F643B6070DD0C76856009F
:100B500005FA06FC27EA0C07D1F808C00CFA06FCD7
:100B60004CEA070CC0F80CC00E7906F00306022E02
:100B700010D1D60800EB8608D8F8206057074FEA56
:100B8000D76C09FA0CF7BE430F6907FA0CF7374325
:100B9000C8F8207006684FEA420C05FA0CF7BE430D
:100BA0000F7907F0030707FA0CF7374307604E6821
:100BB00016F4403F6DD03B4E376847F480473760AE
:100BC000366822F0030706F480460096364E07EB9F
:100BD000060CDCF8086897073F0F09FA07F826EAC1
:100BE0000806DFF8C880404503D14FF000081EE03A
:100BF0004FE0DFF8BC80404502D14FF0010816E01D
:100C0000DFF8B080404502D14FF002080FE0DFF876
:100C1000A880404502D14FF0030808E0DFF89C802F
:100C2000404502D14FF0040801E04FF0070808FAF0
:100C300007F848EA0608CCF80888DAF80060574652
:100C4000D1F804C09E435FEACC2C00D51E433E6021
:100C5000DBF800605F46D1F804C09E435FEA8C2C4D
:100C600000D51E433E60DEF800607746D1F804C030
:100C70009E435FEA8C3C00D51E433E60084F083F10
:100C80003E68D1F804C09E435FEACC3C00D51E43C9
:100C90003E60521C102AFFF431AFBDE8F88F00000F
:100CA000083C01404438024000300140000002404E
:100CB0000004024000080240000C02400010024004
:100CC0000069084000D0012070470AB18161704777
:100CD0000904FBE7014880687047000028000020F5
:100CE0000248816802781144816070472800002022
:100CF0000B4810B5016841F400710160016841F4CE
:100D000080610160016841F480710160032000F09E
:100D100099F80F2000F006F800F04AF8002010BD06
:100D2000003C024030B505461C4887B000240168ED
:100D300041F001010160006806A900F00100009087
:100D400001A800F02BF900F059F91549154AB0FB3C
:100D5000F1F11548491E026040F2E732C0E9032470
:100D6000C0E90114846100F081FB040012D10E4837
:100D700000F0BEFB04000DD1192000F035F8102D55
:100D800007D200222946192000F03CF807480560E8
:100D900000E0012407B0204630BD00004438024086
:100DA00040420F0000000140E40800202C00002019
:100DB0000C4882B0016841F480410160006800F491
:100DC000804000900748001F016841F08051016099
:100DD0000068002200F0805000900F21901E02B0A9
:100DE00000F010B844380240002809DB00F01F0270
:100DF000012191404009800000F1E020C0F800117D
:100E000070470000F0B40E4B1B680C46C3F302237E
:100E1000C3F10705042D00D90425191D072901D2A6
:100E2000002300E0DB1E012606FA05F1491E2140E1
:100E300099409E40761E16403143F0BC01F010BD33
:100E40000CED00E0064900F0070208684FF6FF03CA
:100E5000184040EA0220034A10430860704700002F
:100E60000CED00E00000FA052DE9F0470E46050004
:100E700065D0DFF81481D8F80000F7B200F0070061
:100E8000B04207D288F80070D8F8000000F00700E0
:100E9000B04254D128683D4C810712D5400703D594
:100EA000206840F4E05020602878000703D52068CF
:100EB00040F4604020602068A96820F0F0000843FA
:100EC00020602878C0072DD030496868083901288B
:100ED00012D0022813D0032811D0096889070029ED
:100EE0002DDA216821F0030101432160FFF7F2FEB2
:100EF000814641F2883A0EE009688903EFE7096804
:100F00008901ECE7FFF7E6FEA0EB0901514502D9A4
:100F10000320BDE8F0872068696800F00C00B0EBA2
:100F2000810FEFD1D8F80010404601F00701B1421F
:100F300007D90770006800F00700B04201D0012017
:100F4000E7E72878400705D52068E96820F4E050F5
:100F5000084320602878000706D52068296920F416
:100F6000604040EAC100206000F058F82168084A5B
:100F7000C1F30311515CC840064908600648006887
:100F8000FFF7D0FE0020C4E7003C024008380240D2
:100F900074400008340000202C0000200F22026062
:100FA0000C4A136803F003034360136803F0F00373
:100FB0008360136803F4E053C36012684FF4E05396
:100FC00003EAD20202610448006800F007000860EA
:100FD0007047000008380240003C024004480549C0
:100FE00000680968044AC1F38221515CC840704717
:100FF00034000020083802408440000804480549B5
:1010000000680968044AC1F34231515CC840704726
:10101000340000200838024084400008154810B50C
:10102000006810F00C02144813D01449042A0FD0A1
:10103000082A0ED10F4C241F2268236802F03F02B9
:101040005B0207D52068C0F38810A0FB010106E011
:10105000084610BD2168C1F38811A1FB00010023DF
:10106000FFF716F92168C1F30141491C4900B0FBA3
:10107000F1F010BD083802400024F40040787D01F2
:101080002DE9F84F04006ED02078DFF84C93C007AC
:10109000A9F104054AD009F104000168C1F38101F6
:1010A000012908D00068C0F3810002280AD1D9F8CC
:1010B0000000400206D52868800337D56068002804
:1010C000E1D033E06068B0F5803F10D0B0F5A02FDC
:1010D000286810D020F480302860286820F4802010
:1010E00028606068A8B1FFF7F5FD06460DE02868A6
:1010F00040F48030F4E740F480202860F7E700BF38
:10110000FFF7E8FD801B642873D828688003F7D5B3
:101110000CE0FFF7DFFD064605E000BFFFF7DAFD54
:10112000801B6428F0D828688003F7D42078DFF883
:10113000AC8280074FF0000A3ED5A748001D016829
:1011400011F00C0F08D00068C0F3810002280BD109
:10115000D9F80000400207D42868800716D5E06857
:10116000012800D112E033E1E068B8B10120C8F8ED
:101170000000FFF7AFFD064605E000BFFFF7AAFD40
:10118000801B0228C0D828688007F7D52868216905
:1011900020F0F80040EAC10028600DE0C8F800A087
:1011A000FFF798FD064604E0FFF794FD801B022838
:1011B0001FD828688007F7D42078000722D5864FEB
:1011C00087486169703771B101210160FFF782FDC5
:1011D000064604E0FFF77EFD801B022809D8386828
:1011E0008007F7D50EE0C0F800A0FFF773FD0646B4
:1011F00005E082E0FFF76EFD801B02287DD838688D
:101200008007F7D42078400768D5DFF8CCB10027F5
:101210000BF13C0BDBF80000C0000BD4DBF8001036
:1012200041F08051CBF80010DBF80000012700F0FE
:10123000805000906B4E3068C00510D4306840F488
:1012400080703060FFF746FD009005E0FFF742FD3B
:101250000099401A022850D83068C005F6D55E4E75
:10126000A0686C3601280FD00528306810D020F017
:1012700001003060306820F004003060A068B8B130
:10128000FFF728FD00900FE0306840F00100F4E720
:1012900040F004003060F7E7FFF71CFD0099411AA9
:1012A00041F28830814266D830688007F4D50EE07C
:1012B000FFF710FD009007E0FFF70CFD0099411AC1
:1012C00041F28830814256D830688007F4D42FB17B
:1012D000DBF8001021F08051CBF80010A069C8B3F2
:1012E0003D49091D0968C1F3810102294AD002283C
:1012F000504607D0C8F8600000E03CE0FFF7EAFC89
:1013000004463BE04746C8F86000FFF7E3FC0646AA
:1013100005E000BFFFF7DEFC801B02282BD8286801
:101320008001F7D4D4E907010843A16A2E4A49088D
:1013300002EB0141626A41EA8211084394F82C10E1
:1013400040EA0161C9F8001001203866FFF7C2FCCD
:10135000044606E03EE000BFFFF7BCFC001B02288D
:1013600009D828688001F7D534E000BFFFF7B2FC48
:10137000001B022802D90320BDE8F88F28688001ED
:10138000F4D427E00128F7D0D9F80000E26900F48E
:10139000800191421CD1226A00F03F01914217D195
:1013A00047F6C071626A0140B1EB821F10D1A26A98
:1013B0004FF0FF3300F4403103EB5202B1EB024F28
:1013C00006D194F82C1000F07060B0EB016F01D0E2
:1013D0000120D1E70020CFE7043802400000474257
:1013E000800E4742007000400000FFFF70477047CA
:1013F00070B590F83C20012A2CD0012480F83C40A4
:10140000022280F83D2003685A689D6822F0700629
:101410000A6832435A60104B02689A420ED0B2F109
:10142000804F0BD00D4B9A4208D00D4B9A4205D0FD
:101430000C4B9A4202D00C4B9A4204D1496825F0D9
:1014400080031943916080F83D40002180F83C10F2
:10145000084670BD022070BD00000140000400403D
:1014600000080040000C00400040014010B504009E
:1014700003D094F83D0010B107E0012010BD00201A
:1014800084F83C00204600F01FF8022084F83D005C
:10149000211D206800F0CCFF012084F8460084F86C
:1014A0003E0084F83F0084F8400084F8410084F84E
:1014B000420084F8430084F8440084F8450084F82E
:1014C0003D00002010BD000008B5006806498842B4
:1014D00008D10648016841F002010160006800F08F
:1014E0000200009008BD00000004004040380240A7
:1014F00090F83D10012901D001207047022180F8A9
:101500003D100168CA6842F00102CA6000680E49D5
:1015100088420ED0B0F1804F0BD00C49884208D0E1
:101520000B49884205D00B49884202D00A498842BB
:1015300004D1816801F00701062903D0016841F058
:1015400001010160002070470000014000040040DC
:1015500000080040000C00400040014070B5044607
:1015600090F83C000025012817D0012684F83C6043
:10157000022084F83D002068826822F0770222F47D
:101580007F4282600868502838D00DDC20284FD078
:1015900005DC90B3102811D14AE0022070BD30283C
:1015A00046D040280AD13BE060282FD070280DD0CB
:1015B000B0F5805F03D0B0F5005F12D0012584F84C
:1015C0003D60002084F83C00284670BDCB68D1E91E
:1015D0000121206800F07EFF2068816841F07701DA
:1015E00009E0CB68D1E90121206800F073FF206891
:1015F000816841F480418160E1E719E0CA68496887
:10160000206801F01BF85021206806E0CA6849688C
:10161000206801F024F86021206800F065FFCEE723
:10162000CA684968206801F009F840212068F4E799
:10163000226801461046F0E770472DE9F041044664
:101640000068C66805694FF00007A90713D5B10700
:1016500011D5F91E0161012020772068806980077B
:10166000204602D0FFF7E8FF04E000F0BBF8204678
:1016700000F04DF92777680716D5700714D5216853
:101680006FF004000861022020772068806910F460
:10169000407F204602D0FFF7CFFF04E000F0A2F821
:1016A000204600F034F92777280715D5300713D5E1
:1016B00021686FF008000861042020772068C06965
:1016C0008007204602D0FFF7B7FF04E000F08AF859
:1016D000204600F01CF92777E80616D5F00614D549
:1016E00021686FF010000861082020772068C06929
:1016F00010F4407F204602D0FFF79EFF04E000F088
:1017000071F8204600F003F92777E80708D0F007C2
:1017100006D021686FF001000861204600F0F8F85B
:10172000280608D5300606D521686FF080000861CC
:101730002046FFF75BFE680608D5700606D52168CF
:101740006FF040000861204600F0ECF8A8060AD5CA
:10175000B00608D521686FF0200008612046BDE87A
:10176000F041FFF744BEBDE8F081000030B587B01E
:10177000044614216846FEF7D5FD164920688842C4
:1017800026D115480024016841F00101016001687B
:1017900001F001010591016841F00201016000685A
:1017A000022500F002000590C0200090CDE9015410
:1017B00069460A48CDE90345FFF792F903200090F6
:1017C000CDE9015469460648CDE90345FFF788F99C
:1017D00007B030BD00040040303802400000024035
:1017E00000040240704770B5044690F83C000026A3
:1017F0000D4601280FD0012084F83C006AB1042A6C
:101800001DD0082A2FD00C2A3FD00126002084F8B2
:101810003C00304670BD022070BD206800F06CFEB8
:101820002068816941F0080181612068816921F0A7
:1018300004018161206881692A69114311E02068EF
:1018400000F082FE2068816941F4006181612068B6
:10185000816921F480618161206881692A6941EA96
:1018600002218161D2E7206800F09AFE2068C169F8
:1018700041F00801C1612068C16921F00401C16122
:101880002068C1692A69114311E0206800F0B4FEA4
:101890002068C16941F40061C1612068C16921F417
:1018A0008061C1612068C1692A6941EA0221C16180
:1018B000ACE710B5040003D094F83D0010B107E088
:1018C000012010BD002084F83C00204600F01EF8E6
:1018D000022084F83D00211D206800F0A9FD0120B0
:1018E00084F8460084F83E0084F83F0084F8400005
:1018F00084F8410084F8420084F8430084F84400EE
:1019000084F8450084F83D00002010BD7047704702
:1019100000680349884201D1FFF7E2B9704700002F
:1019200000000140704770B5040004D094F84100F5
:10193000002510B106E0012070BD84F8405020461B
:1019400000F024F8242084F841002068C16821F4C4
:101950000051C160204600F0BBFE2068016921F4FF
:10196000904101612068416921F02A0141612068AC
:10197000C16841F40051C1606564202084F84100D1
:1019800084F842006563002070BD000010B586B089
:10199000044614216846FEF7C5FC144920688842B5
:1019A00021D113480021026842F010020260006851
:1019B00000F0100005900E481438026842F0010251
:1019C0000260006800F0010005904FF4C0600090D4
:1019D0000220CDE90101032003900720049069460D
:1019E0000448FFF77DF806B010BD0000001001406C
:1019F00044380240000002402DE9F843044690F8C4
:101A00004100984616460D46202802D00220BDE827
:101A1000F88385B17EB100206064212084F8410004
:101A2000FFF758F9A6848146E684A0682027B0F520
:101A3000805F02D003E00120E9E7206910B12E4663
:101A400000250EE000260CE08021204600F0C6FEB6
:101A5000A8B9C6B116F8010B21684860E08C401E99
:101A6000E084E08C4B464FF00002CDF80080002867
:101A7000EAD14FF04001204600F0B0FE40B184F8BA
:101A800041700320C3E735F8020BC0F30800E3E719
:101A900084F841700020BAE7FEE700000127124DEC
:101AA000124C002601212846FFF70AF90028F9D137
:101AB0000A2001F0B3FC01212846FFF701F930B9F3
:101AC0002078012803D02770A069401CA061012163
:101AD0002846FFF7F5F8012800D12670A0690928EB
:101AE000E0DDA661DEE7000000000240000000200B
:101AF0002DE9F04104461D4616460F462A2000F007
:101B0000A1FA204600F094FA304600F091FA2B201A
:101B100000F098FA384600F08BFA284600F088FA70
:101B2000BDE8F0412C2000F08DBA2DE9FE4F161AC9
:101B3000CDE900104FF000085D1A47464FF0FF3026
:101B4000002E02DD4FF0010102E003D14FF0000151
:101B50008B4602E08346C6F10006002D02DD4FF001
:101B6000010002E003D14FF00000824602E082460D
:101B7000C5F10005AE4201DD344600E02C46601C94
:101B80004FF00009029019E000980C9A81B2019878
:101B900080B200F018F8B0442F44A04504DD01984D
:101BA000A8EB040858440190A74203DD00983F1BAE
:101BB0005044009009F101001FFA80F9029989450B
:101BC000E2DBBDE8FE8F10B514460B460246FFF778
:101BD0008FFF2046BDE8104000F02ABA2DE9F047FB
:101BE00080461F46581E83B21646501E82B20C46CF
:101BF0004046DDF82090FFF77BFF0AE0454604E011
:101C0000484600F015FA6D1CADB2B542F8D3641C1D
:101C1000A4B2BC42F2D3BDE8F087000038B56C4CEA
:101C2000002280212046FFF750F8142001F0F6FB37
:101C3000012280212046FFF748F8142001F0EEFB36
:101C4000012220212046FFF740F8142001F0E6FB96
:101C5000112000F0F7F9782001F0E0FB362000F0C9
:101C6000F1F9002000F002FA3A2000F0EBF905202B
:101C700000F0FCF9B22000F0E5F90C2000F0F6F9D4
:101C80000C2000F0F3F9002000F0F0F9332000F010
:101C9000EDF9332000F0EAF9B72000F0D3F9352050
:101CA00000F0E4F9BB2000F0CDF9322000F0DEF9BD
:101CB000C22000F0C7F9012000F0D8F9C32000F0DD
:101CC000C1F9152000F0D2F9C42000F0BBF92020A2
:101CD00000F0CCF9C62000F0B5F90F2000F0C6F9ED
:101CE000D02000F0AFF9A42000F0C0F9A12000F04E
:101CF000BDF9E02000F0A6F9D02000F0B7F90820E7
:101D000000F0B4F90E2000F0B1F9092000F0AEF9AE
:101D1000092000F0ABF9052000F0A8F9312000F00F
:101D2000A5F9332000F0A2F9482000F09FF9172010
:101D300000F09CF9142000F099F9152000F096F9B4
:101D4000312000F093F9342000F090F9E12000F008
:101D500079F9D02000F08AF9082000F087F90E20E8
:101D600000F084F9092000F081F9092000F07EF9E3
:101D7000152000F07BF9312000F078F9332000F0D5
:101D800075F9482000F072F9172000F06FF914205F
:101D900000F06CF9152000F069F9312000F066F9C7
:101DA000342000F063F9212000F04CF9292000F0E4
:101DB00049F94FF6FF70F023002100901A460846BB
:101DC000FFF70CFF0349012008700349087038BD74
:101DD00000040240B5000020B40000202DE9FF4FB0
:101DE00081B00446DDF83C9000904FEA59074FF06F
:101DF0000008780700D0012000EBD70000FB09FBAA
:101E0000203AD0B20390029802994844401E83B20F
:101E1000E019401E82B22046FFF76AFE002553E01B
:101E2000B9F10C0F2AD0B9F1100F2ED0B9F1180F5B
:101E30002ED0B9F1200F49D12749039801EB80102A
:101E4000002610F805A0109800284FF0010000FAB5
:101E500006F000EA0A0022D020B12046049A029936
:101E6000FFF7B1FE641C0098A4B2201AB84225D135
:101E70000298009C401C80B2029023E0039817490E
:101E800000EB400001EB8000DAE71549039803E01E
:101E90000398144900EB400001EB0010D0E708B1B3
:101EA000049800E00E9800F0C3F808F10100C0B2F9
:101EB000B0FBF7F1804607FB118050B1761CF6B2FB
:101EC000082EC0D36D1CADB25D45A9D305B0BDE8E9
:101ED000F08F4FF00008F5E7C05C00088C40000868
:101EE00000450008F04A00082DE9FF4F83B00026A6
:101EF000DDE911B81D4682464FEA58073446B1461F
:101F00002CE0281B401EC1B20A2000F00BFD0599F1
:101F1000B1FBF0F00A21B0FBF1F201FB120026B98F
:101F2000691E8C4201DA58B101263030C2B204FB7E
:101F300007A0CDF800B0CDE9018980B2109B08E080
:101F4000CDF800B004FB07A0CDE90189109B80B259
:101F500020220499FFF742FF641CE4B2AC42D0D3C4
:101F600007B0BDE8F08F2DE9FE4F9946DDE90D671A
:101F700014468A460546DDF830800CE0CDF8008036
:101F80004B4651462846CDE90167FFF727FF05EB91
:101F9000560085B2641C2278002AEFD1BDE8FE8F7E
:101FA000FEB500784FF4784618244FF6FF7500967A
:101FB000C0F10900CDE90154C2B2782102230846DC
:101FC000FFF792FF0096104FCDE901547A78022373
:101FD000A0217820FFF788FF3A780096CDE90154D8
:101FE0000223A0215020FFF77FFF0096CDE9015486
:101FF000BA780223C8217820FFF776FFBDE8FE40BB
:102000004FF4AF7001F00ABA99010020074C054661
:10201000217819B12846FFF7C3FFF9E7FFF7FEFD66
:102020001820FEF7E3FCFEF70DFDF1E7B5000020F8
:1020300010B50446000A00F019F8E0B2BDE81040FF
:1020400000F014B870B5084C054600224021204627
:10205000FEF73BFE284600F009F82046BDE8704038
:1020600001224021FEF731BE000402402DE9F0417B
:10207000104F054600244FF480784FF4007600227C
:1020800031463846FEF721FE280601D5012200E040
:10209000002241463846FEF718FE012231463846F6
:1020A000FEF713FE6806641C050EE4B2082CE6D3A6
:1020B000BDE8F08100040240084C094D6426206808
:1020C00080F400502060A86900EBC00101EB001013
:1020D00006EB800001F0A2F9F1E7000014080240CD
:1020E000000000202DE9F04186B014216846FEF77B
:1020F00019F92B480024016841F0040101600168CE
:1021000001F004010591016841F08001016001685E
:1021100001F080010591016841F001010160016851
:1021200001F001010591016841F0020101600068C0
:102130001C4F00F002004FF4005505900022294684
:102140003846FEF7C2FDDFF860804FF47876012252
:1021500031464046FEF7B9FD00950125CDE9015411
:10216000694638460394FEF7BBFCCDE90054694646
:102170000E480295FEF7B4FC4FF4E0408DE83100C4
:1021800069464046FEF7ACFC0220CDE90240CDE9AD
:10219000006569464046FEF7A3FC06B0BDE8F08145
:1021A00030380240000802400004024000000240B3
:1021B00010B58EB000240794089409940A940B94E7
:1021C0001C2168460C94FEF7ADF82B4829490160A4
:1021D0000721C0E9011441F28831C0E903148021CC
:1021E0008161FFF743F908B1FEF7FEFB4FF4805021
:1021F000079007A92048FFF7B1F908B1FEF7F4FBF3
:102200001D48FFF756FB08B1FEF7EEFB0B940BA938
:1022100019480C94FFF7ECF808B1FEF7E5FB6020D5
:10222000CDE9000402940022694613480494FFF7A4
:10223000DAFA08B1FEF7D8FB042269460E48FFF728
:10224000D2FA08B1FEF7D0FB082269460A48FFF728
:10225000CAFA08B1FEF7C8FB0C2269460648FFF728
:10226000C2FA08B1FEF7C0FB0348FFF77FFA0EB0D1
:1022700010BD000000040040540800200C4810B5B8
:102280000A4901604FF4E1314160002181600C2274
:10229000C160C0E904128161C161FFF744FB0028FD
:1022A00003D0BDE81040FEF79FBB10BD00100140F9
:1022B0009C080020FEE7FEE7094D4FF4FA7400BFCA
:1022C00095ED080B51EC100BFEF73EF800EE100AEE
:1022D000002000F007F8204601F0A0F8F0E7000029
:1022E00000000020B5EEC00AF1EE10FA02D89FED12
:1022F000160A06E010EE101AB1F17E5F01DBB7EEB0
:10230000000A1349DFED110A096858B1042811D0F9
:1023100020EE200A0828BCEEC00A10EE100A11D0E8
:102320000864704720EE200ABCEEC00A10EE100AC6
:102330004863704720EE200ABCEEC00A10EE100A77
:1023400088637047C86370470000000000409C45E8
:102350005408002010B5502080F31188BFF34F8F30
:10236000BFF36F8F01F0D6FC18B104494FF08050D5
:102370000860002080F3118810BD000004ED00E02B
:1023800030B593B030216846FDF7CCFF14210CA87E
:10239000FDF7C8FF1D480025016841F0805101602C
:1023A000006800F0805011901948016821F4404104
:1023B00041F4004101600068022400F440401190A3
:1023C00001200090000401908001CDE90640192011
:1023D0000890A020CDE9090404200B906846FEF780
:1023E0004FFE08B172B6FEE70CA90F2081E831005C
:1023F0004FF48050CDE90F0502210CA8FEF734FD03
:10240000002801D072B6FEE713B030BD403802405C
:10241000007000400248016841F47001016070479B
:1024200088ED00E00148FFF708B90000E40800204B
:10243000F0B50268204B214C9F03214D214E98425C
:1024400007D0B84205D0A04203D0A84201D0B04284
:1024500004D122F0700C4A6842EA0C02984210D073
:10246000B8420ED0A0420CD0A8420AD0B04208D048
:10247000154CA04205D0154CA04202D0144CA042ED
:1024800003D122F44074CA6822434C6922F08002CE
:10249000224302608A68C2620A688262984201D15D
:1024A00009690163012141610169C90703D001691B
:1024B00021F001010161F0BD000001400004004075
:1024C00000080040000C0040004001400044014072
:1024D0000048014010B5846842EA032224F47F4496
:1024E0000A432243826010BD826822F070020A43D0
:1024F00042F007018160704730B5036A026A22F03A
:10250000010202624268846924F073050C682C435E
:1025100023F002058B682B430A4DA8420BD123F010
:102520000805CB6822F440722B434D6923F0040365
:1025300015438A692A4342608461496841630362A2
:1025400030BD00000000014030B5026A036A23F08C
:1025500010030362436884690D6824F4E64444EA86
:1025600005248D6822F0200242EA05120B4DA84294
:102570000ED1CD6822F0800242EA05124D6923F4A3
:10258000406343EA85038D6922F0400243EA8503F4
:102590004360846149688163026230BD000001408C
:1025A00030B5036A026A22F4807202624268C4692A
:1025B00023F4007324F073050C682C438D6843EA00
:1025C00005230C4DA8420ED1CD6823F4006343EAE5
:1025D00005234D6922F4405242EA05128D6923F425
:1025E000806342EA05124260C4614968C1630362C4
:1025F00030BD00000000014030B5046A026A22F4D8
:10260000805202624268C3690D6823F4E64343EADC
:1026100005238D6824F4005444EA0534064DA8428D
:1026200004D14D6922F4804242EA85124260C361BE
:1026300049680164046230BD0000014010B5036ABE
:10264000046A24F001040462846924F0F00444EA7A
:10265000021423F00A020A438461026210BD10B51D
:10266000036A046A24F010040462846923F0A0035E
:1026700024F4704444EA023243EA011182610162A7
:1026800010BD01680C3151E8002F22F4907241E82E
:102690000023002BF5D10168143151E8002F22F0FE
:1026A000010241E80023002BF5D1016B012909D17A
:1026B00001680C3151E8002F22F0100241E800239C
:1026C000002BF5D1202180F84210002101637047D2
:1026D00070B5044600680169E26821F44051114375
:1026E00001612169A068E2690843616911430843F7
:1026F0002168CA6849F20C639A430243CA602068A1
:102700004169A26921F44071114341613149206856
:10271000884202D03049884202D1FEF76FFC01E0C6
:10272000FEF75CFCE2690023192164253226B2F52C
:10273000004F626828D0A0FB0101930F9200FDF7C3
:10274000A7FD0146B0FBF5F06FF01802504301EB16
:10275000800006EB0010B0FBF5F000F0F002B1FBDA
:10276000F5F002EB0012B1FBF5F06FF018035843DF
:1027700001EB800006EB0010B0FBF5F000F00F005D
:1027800021681044886070BDA0FB010192185B4174
:10279000FDF77EFD0146B0FBF5F00201B1FBF5F05F
:1027A0006FF01803584301EB800006EBC000B0FB4C
:1027B000F5F000F0F80002EB4002B1FBF5F05843F1
:1027C00001EB800006EBC000B0FBF5F000F0070065
:1027D000D6E7000000100140001401402DE9F84345
:1027E000984617460D460446089E24E0701C22D0E9
:1027F000FEF770FAA0EB0800B0421AD8CEB12068FC
:10280000C168490717D5802D15D0402D13D0016818
:10281000C94309070FD4016800254068009020468D
:10282000FFF72FFF0820606484F840500120BDE8C6
:10283000F8830320FBE72068006835EA000004D035
:102840000020B842D2D00020F1E70120F9E7FEE7EE
:10285000014A024900F023B8C1280008A80100205D
:102860000907090E002804DB00F1E02080F80014BD
:10287000704700F00F0000F1E02080F8141D704751
:1028800002E008C8121F08C1002AFAD17047704739
:10289000002001E001C1121F002AFBD170472DE981
:1028A000F04116460F460446002503E03946B0477E
:1028B000641C6D1C20780028F8D12846BDE8F08102
:1028C00013B56423012269460248FFF795F8009882
:1028D0001CBD00009C0800201CB5FEF709FAFFF79C
:1028E0004FFDFFF7FFFBFFF763FCFFF7C7FC07494E
:1028F0000120CDE900014202002305A1084801F0B2
:102900009DF908B100F048FEFEE700001C00002021
:102910004170705461736B437265617465000000AF
:10292000A90400080246012000E05043491EC9B234
:10293000FBD270472DE9F041184C0F460546E6687A
:102940002068001D00F036FC38B9206890F82C1083
:1029500001208840216981432161681C07D137B17A
:102960002168BDE8F0410E48091D00F073BC2068E5
:102970003544B5424560216805D2A06BBDE8F04101
:10298000091D00F04FBC606B091D00F04BFCA06AF4
:10299000854200D2A562BDE8F08100003800002029
:1029A0003C0C00202DE9F041054600F05FFC2D4C69
:1029B000A068401CA06020682B4F10B1606930B344
:1029C0002BE02560A068012827D1002606EB8600B1
:1029D00007EB800000F018FC761C202EF6D323486D
:1029E00000F012FC2148143000F00EFC1F48283083
:1029F00000F00AFC1D483C3000F006FC1B4850303B
:102A000000F002FC194860631430A06305E0206800
:102A1000E96AC06A884200D82560606A401C60622A
:102A2000E96A0120226988401043206101EB81009E
:102A300007EB8000291D00F00DFC00F037FC6069F9
:102A400000280CD02068E96AC06A884207D2084989
:102A50004FF080500860BFF34F8FBFF36F8FBDE81A
:102A6000F0810000380000206C090020EC0B0020F1
:102A700004ED00E038B500F0F9FB104C2068C8B94F
:102A80000F4800F0C1FB0E48143000F0BDFB0C48AD
:102A9000E060143020610A4B0020C03B009003F13D
:102AA00048020C210A2000F06BFE206010B105A145
:102AB00000F07EFCBDE8384000F0F8BB7400002058
:102AC000100D0020546D72510000000030B4026CF3
:102AD0000B46002A0BD0C1681144C1608468A14232
:102AE00001D30168C16030BC1846FDF702BC30BCA0
:102AF00070472DE9F041856B174604460026026CAD
:102B000082B1C7B1E068FDF7F4FBE168206C091AF7
:102B1000E1602268914202D2A168081AE060022FA7
:102B200016D017E02068A8B9A06801F059F9064648
:102B30000020A0600EE06068FDF7DBFB216C6068A0
:102B400008446060A168884204D32068606001E0A6
:102B500005B16D1E6D1CA5633046BDE8F08110B552
:102B6000044690F8510058B101280CD002280FD02B
:102B7000502080F31188BFF34F8FBFF36F8FFEE7B4
:102B8000206B00F0A7FB2046BDE8104000F0A2BB80
:102B900010BD000010484FF47051420706D0C01D10
:102BA0000D4920F00700411AC1F570510B4A00236E
:102BB0000144C2E900030839183A21F00701116005
:102BC0004B600B600B1AC0E9001393604FF000409C
:102BD0005360506170470000380D0020A0000020B5
:102BE000144E154CA6F52F774FF08058DFF84C9017
:102BF00012E000BF00F03AFBF068C568281D00F045
:102C0000D9FAA068401EA0606068401E606000F0B5
:102C10004DFB2846FFF7A3FF60680028EAD138681B
:102C20000128F9D9C9F80080BFF34F8FBFF36F8F28
:102C3000F2E70000280C00203800002004ED00E03E
:102C40000346009829B10260C0E90F31012100F06C
:102C5000CBBD0060F8E72DE9F0479A46DDE909842D
:102C600081466FF00303206B03EB82021044089E41
:102C700020F00707780707D0502080F31188BFF3B2
:102C80004F8FBFF36F8FFEE7002561B1002023183F
:102C90000A5C83F834200A5C12B1401C1028F6D379
:102CA00084F8435001E084F83450202E00D31F26CE
:102CB000E662C4E91165201D00F0B1FA04F11800C4
:102CC00000F0ADFA2461C6F120006462A061E56401
:102CD00084F8505052464946384600F055FA206074
:102CE000B8F1000F01D0C8F80040BDE8F08700003F
:102CF00030B5114900E011460A688242FBD34B68A7
:102D00005C18844203D14068184448600846436810
:102D10001C18944209D1084C183C2468A24209D0DE
:102D200052681A4442600A6812680260814200D008
:102D3000086030BD0460F9E7A000002070B50024F1
:102D400041600B4D0061914206D8D11A82699142CF
:102D500006D2011D286907E09A4203D2994201D3A5
:102D6000012403E0011DE86800F05CFA204670BD14
:102D70007400002010B5044600F078FAA06B28B16A
:102D80005FF0000400F092FA204610BD0124F9E73C
:102D900030B587B0394D67E00498002864DB069CA5
:102DA000606910B1201D00F005FA03A800F0D8F802
:102DB000024604980A2857D2DFE800F00505052DE1
:102DC000334A05052D3394F8240040F0010084F8BF
:102DD00024000599A069059B01442046FFF7AEFF3A
:102DE00068B3216A2046884794F8240040073BD501
:102DF000002000900598A16900234218194620463A
:102E000001F008F9D8B9502080F31188BFF34F8F33
:102E1000BFF36F8FFEE714F8240F20F0010020703D
:102E200022E094F8240040F0010084F82400059882
:102E3000A06128B1811813462046FFF77FFF13E0F9
:102E4000502080F31188BFF34F8FBFF36F8FFEE7E1
:102E500094F82400810703D4204600F03BFA03E0F5
:102E600020F0010084F82400002204A9286800F062
:102E70000FFE002890D107B030BD00007400002084
:102E80002DE9FC410F46054600F0CAFB01A800F001
:102E900067F80446019818B101F02AF8BDE8FC81F2
:102EA000254EAFB130690068D0B30027291B3A46E0
:102EB000306800F091FA01F01BF80028EED11F49AC
:102EC0004FF080500860BFF34F8FBFF36F8FE5E77F
:102ED000A542EBD801F00CF8F0682746C068C4683A
:102EE000201D00F067F994F82400410719D5A06966
:102EF0002B4641193A462046FFF720FFA8B1002093
:102F00000346014600902A46204601F083F860B946
:102F1000502080F31188BFF34F8FBFF36F8FFEE710
:102F200007E020F0010084F82400216A2046884749
:102F3000B4E70127BAE700007400002004ED00E0C8
:102F40000648416B096829B1416BC968C96849687D
:102F5000816270474FF0FF31FAE70000380000202F
:102F600070B5054600F0D0FE064E0446B0688442B7
:102F700003D200F009F8012000E00020286020467C
:102F8000B46070BD74000020F8B5194D20E0C06831
:102F9000C4680668201D00F00DF9216A20468847A4
:102FA00094F82400400713D5A0693044B04206D9F4
:102FB00024616060211DE86800F034F908E0002019
:102FC0000346014600903246204601F023F838B10E
:102FD000E86801680029DAD12969C5E90310F8BD5C
:102FE000502080F31188BFF34F8FBFF36F8FFEE740
:102FF0007400002008484068401C4FF0500080F3E7
:10300000118804D0BFF34F8FBFF36F8FFEE7BFF37C
:103010004F8FBFF36F8FFEE7A8000020074CE068DA
:10302000016841B1C0680021D0F80000FFF728FF17
:10303000FFF7AEFEF3E701210020F7E77400002060
:103040002DE9F041044600F011F994F9455004F1DE
:10305000240609E0606A48B1304600F00DFF08B16F
:1030600000F060FA6D1E6DB2002DF3DC4FF0FF36FC
:1030700084F8456000F01AF900F0F8F894F944502B
:1030800004F1100709E0206948B1384600F0F4FE69
:1030900008B100F047FA6D1E6DB2002DF3DC84F824
:1030A0004460BDE8F04100F001B900002DE9F041B5
:1030B0000546002700F0B4FA324E306808B9FFF731
:1030C00069FD706905424ED1C5B3083568070ED059
:1030D00005F00700C0F108000544680707D050203C
:1030E00080F31188BFF34F8FBFF36F8FFEE72DB3CF
:1030F0007068854237D82348183001460C6801E0D3
:1031000020460C466168A94202D221680029F7D105
:1031100031688C4227D007682168016060680837F1
:10312000411B10290FD96019420708D0502080F3A5
:103130001188BFF34F8FBFF36F8FFEE713E041603D
:103140006560FFF7D5FD61687068401A7060B2680D
:10315000904200D2B060706901430020C4E90001D0
:10316000F068401CF06000F0C3FE780707D05020E4
:1031700080F31188BFF34F8FBFF36F8FFEE73846A0
:10318000BDE8F0818800002010B5031F4FF0807467
:103190001C601B1F21F001011960191F044B0B60FB
:1031A00014390A60091F6FF0020244380A6010BD2A
:1031B000F52F0008D0E9013201699A60D0E90123B6
:1031C0005A604A68824201D182684A6000220261E4
:1031D0000868401E0860086870470000034B0360E1
:1031E00003F154000860802010607047AC0100209B
:1031F000044B036003F1540008604FF480701060CA
:10320000704700000004002000F108014FF0FF3279
:10321000C0E90112C1600161002101607047002115
:103220000161704730B50B685A1C02D000F10802EA
:1032300002E0026904E02246546825689D42FAD9FA
:1032400053684B6099608A60516008610168491C4D
:10325000016030BD42684A6093688B609368596032
:10326000916008610168491C01607047502080F33B
:103270001188BFF34F8FBFF36F8F0A494868401C16
:10328000486001280CD10848006810F0FF0F07D0F3
:10329000502080F31188BFF34F8FBFF36F8FFEE78D
:1032A00070470000A800002004ED00E008494868CD
:1032B00028B1401E486001D180F31188704750202A
:1032C00080F31188BFF34F8FBFF36F8FFEE70000CD
:1032D000A800002070B500282AD0164DA0F10804DF
:1032E00060686969084207D1502080F31188BFF3F4
:1032F0004F8FBFF36F8FFEE722683AB1502080F303
:103300001188BFF34F8FBFF36F8FFEE78843606074
:1033100000F086F960686968084468602046FFF735
:10332000E7FC2869401C2861BDE8704000F0E0BD62
:1033300070BD0000880000204FF0E02000210161F6
:10334000816105494FF47A720968B1FBF2F1491EB7
:1033500041610721016170473400002010B5FCF77E
:1033600081FF114910280ED300F1E02090F8F003FE
:103370000A78904207D2502080F31188BFF34F8F14
:10338000BFF36F8FFEE709480068896800F4E060CA
:10339000884207D9502080F31188BFF34F8FBFF3C5
:1033A0006F8FFEE710BD0000A80000200CED00E0CC
:1033B00010B5084B002200BF53F832401CB1521C1C
:1033C000082AF9D310BD43F8321003EBC20148605C
:1033D00010BD00002C09002070B515460E460446AD
:1033E000FFF744FF94F944100020491C01D184F8F0
:1033F000440094F94510491C01D184F84500FFF7B9
:1034000055FFA06B28B92A46314604F1240000F08C
:10341000A7F82046BDE87040FFF712BE10B50200C5
:1034200014D00F48006B38B1502080F31188BFF3DF
:103430004F8FBFF36F8FFEE700F0F2F800211046C8
:10344000FFF778FA00F054FD002807D105494FF046
:1034500080500860BFF34F8FBFF36F8F10BD000027
:103460003800002004ED00E070B50546FFF7FEFED1
:10347000244C05B92568281DFFF79CFE58B9E86A59
:10348000214A00EB800152F8211021B9012181402D
:10349000206988432061A86A18B105F11800FFF778
:1034A00089FE606A401C60622068854207D1291D40
:1034B0001648FFF7CFFE6068401C606007E0A06818
:1034C000401EA0602846FFF74AFBFFF739FDFFF7D3
:1034D000EDFE6069002814D02068854211D1206B70
:1034E00038B1502080F31188BFF34F8FBFF36F8F37
:1034F000FEE707494FF080500860BFF34F8FBFF3DE
:103500006F8F70BD380000206C090020280C00204F
:1035100004ED00E002490A6A0260C9684160704730
:103520003800002001490120C861704738000020A0
:1035300010B50C4650B1094909681831FFF772FE01
:103540002046BDE810400121FFF7F4B9502080F378
:103550001188BFF34F8FBFF36F8FFEE73800002055
:1035600070B514460D4668B10A4909681831FFF76D
:1035700071FE0CB14FF0FF3521462846BDE8704082
:10358000FFF7D8B9502080F31188BFF34F8FBFF3F6
:103590006F8FFEE73800002030B587B00024039419
:1035A00005AA04A903A80494FFF718FEDDE90301A6
:1035B0000094CDE90110002315A11748059A00F0E9
:1035C0006AFB164D0028E8621FD000F0F3FC0128CA
:1035D00009D0401C19D1502080F31188BFF34F8FC0
:1035E000BFF36F8FFEE7502080F31188BFF34F8F3A
:1035F000BFF36F8F4FF0FF30A86201206861EC606D
:1036000007B0BDE8304000F041B807B030BD000061
:1036100049444C4500000000E12B00083800002020
:103620000248016B491C016370470000380000200C
:103630001448016B11B10121C16170470021C161C2
:103640000169B1FA81F1C1F11F0101EB81020E495B
:1036500051F822306BB101EB820101F108034A6895
:1036600052684A609A4201D152684A60D16801604A
:103670007047502080F31188BFF34F8FBFF36F8FD7
:10368000FEE70000380000206C0900201CB5374818
:103690000168374A914207D1502080F31188BFF367
:1036A0004F8FBFF36F8FFEE700683149491E884294
:1036B00007D1502080F31188BFF34F8FBFF36F8F76
:1036C000FEE72C4908780190FF20087008788DF8F3
:1036D00000009DF800009DF8002000F0F0009042EE
:1036E00007D0502080F31188BFF34F8FBFF36F8F47
:1036F000FEE79DF80000204C00F0500020700720ED
:10370000A06005E09DF8002052008DF80020401ECA
:103710009DF800201206F5D4A060032807D05020A1
:1037200080F31188BFF34F8FBFF36F8FFEE74FF425
:103730004070A060019808700C482030016841F486
:1037400070010160016841F070410160FFF7F4FD14
:1037500000206060FCF74EFD0848016841F04041E0
:103760000160FCF733FD00201CBD000000ED00E00F
:1037700071C20F4100E400E0A800002034EF00E037
:1037800038B5049D18B153B1CAB181B120E05020C1
:1037900080F31188BFF34F8FBFF36F8FFEE7502088
:1037A00080F31188BFF34F8FBFF36F8FFEE7502078
:1037B00080F31188BFF34F8FBFF36F8FFEE739B1EE
:1037C000502080F31188BFF34F8FBFF36F8FFEE758
:1037D00048241C46012384F846302B460094FFF70A
:1037E0002FFA204638BD000070B50D46040025D0E4
:1037F000FFF73CFDD4E90F20216802FB0011A16016
:103800000021A163216861600A46D4E90F01401ECE
:1038100000FB0121E16021464FF0FF3001F8440F29
:10382000487004F110008DB1FFF7EEFC04F12400A4
:10383000FFF7EAFCFFF73AFD012070BD502080F34E
:103840001188BFF34F8FBFF36F8FFEE72169002907
:10385000F0D000F011FB0028ECD004494FF080506C
:103860000860BFF34F8FBFF36F8FE3E704ED00E015
:103870002DE9FF4782B01D468A464FF0000804003C
:1038800003D0BAF1000F08D011E0502080F3118866
:10389000BFF34F8FBFF36F8FFEE7206C38B150201E
:1038A00080F31188BFF34F8FBFF36F8FFEE7022DB8
:1038B0000AD1E06B012807D0502080F31188BFF3B4
:1038C0004F8FBFF36F8FFEE700F010FA3F4F4FF0BE
:1038D00000094FF0805648B9049838B1502080F361
:1038E0001188BFF34F8FBFF36F8FFEE7FFF7BEFC6A
:1038F000A06BE16B884207D3022D05D00498D0B1AC
:10390000B8F1000F1AD01EE02A4651462046FFF7B4
:10391000F0F8616A19B104F1240000F0ADFA20B1A9
:103920003E60BFF34F8FBFF36F8FFFF7BFFC0120E7
:1039300006B0BDE8F087FFF7B9FC22E06846FFF764
:10394000E9FD4FF00108FFF7B1FCFFF769FEFFF753
:103950008DFC94F94400401C01D184F8449094F902
:103960004500401C01D184F84590FFF79FFC04A955
:10397000684600F029F930B12046FFF761FB00F0FE
:10398000B7FA0020D4E7FFF771FCA06BE16B884227
:1039900013D1FFF78BFC04F110000499FFF7C8FD69
:1039A0002046FFF74DFB00F0A3FA00289ED13E60B1
:1039B000BFF34F8FBFF36F8F98E7FFF777FC204679
:1039C000FFF73EFB00F094FA90E7000004ED00E002
:1039D0002DE9F0471F4690468946040003D0B9F10F
:1039E000000F08D011E0502080F31188BFF34F8FF3
:1039F000BFF36F8FFEE7206C38B1502080F3118841
:103A0000BFF34F8FBFF36F8FFEE7022F0AD1E06B3A
:103A1000012807D0502080F31188BFF34F8FBFF3E8
:103A20006F8FFEE7FFF79AFC5020EFF3118680F3CB
:103A30001188BFF34F8FBFF36F8FA06BE16B88428C
:103A400006D3022F04D0002086F31188BDE8F0874A
:103A500094F94550A06B3A4649462046FFF749F88D
:103A6000681C04D06D1C84F845500120ECE7606AA6
:103A70000028FAD004F1240000F0FEF90028F4D068
:103A8000B8F1000FF1D00121C8F80010EDE70000F7
:103A90002DE9F747002683B08A46040003D0BAF127
:103AA000000F08D011E0502080F31188BFF34F8F32
:103AB000BFF36F8FFEE7206C38B1502080F3118880
:103AC000BFF34F8FBFF36F8FFEE700F00FF9DFF802
:103AD000F4804FF000094FF0805748B9059838B18D
:103AE000502080F31188BFF34F8FBFF36F8FFEE735
:103AF000FFF7BCFBA56BC5B151462046FEF7E6FFBC
:103B00006D1EA563206950B104F1100000F0B4F9F6
:103B100028B1C8F80070BFF34F8FBFF36F8FFFF766
:103B2000C5FB012006B0BDE8F087059808B11EB1BD
:103B300006E0FFF7BBFB27E06846FFF7EBFC01263A
:103B4000FFF7B4FBFFF76CFDFFF790FB94F944001F
:103B5000401C01D184F8449094F94500401C01D1E7
:103B600084F84590FFF7A2FB05A9684600F02CF801
:103B7000002820460AD0FFF763FA00F0B9F9204682
:103B8000FFF7F8F80028B3D00020CBE7FFF7F2F8F2
:103B900090B104F124000599FFF7CAFC2046FFF715
:103BA0004FFA00F0A5F90028A2D1C8F80070BFF3C1
:103BB0004F8FBFF36F8F9BE72046FFF741FA00F06E
:103BC00097F995E704ED00E02DE9F0410C4605007A
:103BD00011D0C4B1FFF74AFB174BDA686E68206852
:103BE000911B471C17D02F681B6A9F4219D0964221
:103BF00017D8012410E0502080F31188BFF34F8FB5
:103C0000BFF36F8FFEE7502080F31188BFF34F8F13
:103C1000BFF36F8FFEE70024FFF748FB2046BDE8A7
:103C2000F081884205D9401A20602846FFF772FCCF
:103C3000F1E700202060DCE7380000202DE9FF5F7D
:103C40008346DDE90E87994616468A469000FFF7BF
:103C50002DFA05001CD05420FFF728FA040014D0D8
:103C60000020256384F85100CDE90240CDE90087AA
:103C70004B46324651465846FEF7EDFF2046FEF7CA
:103C800091FE012004B0BDE8F09F2846FFF722FB1B
:103C90004FF0FF30F6E7F0B585B0DDE90B640A9D23
:103CA000A6B1DCB1542700972663022684F8516040
:103CB000002604AFCDE90246CDE90057FEF7CBFF61
:103CC0002046FEF76FFE049805B0F0BD502080F34B
:103CD0001188BFF34F8FBFF36F8FFEE7502080F343
:103CE0001188BFF34F8FBFF36F8FFEE7054841691F
:103CF00019B1006B18B100207047012070470220F5
:103D000070470000380000200148C068704700007C
:103D1000380000202DE9F0412F4C0026206B28B1FF
:103D2000A069401CA0613046BDE8F081E5686D1CCB
:103D3000E56013D1606B006838B1502080F31188C2
:103D4000BFF34F8FBFF36F8FFEE7606BA16B6163B3
:103D5000A063206A401C2062FFF7F2F8A06ADFF837
:103D60007C80854209D3606B0068A0B1606BC0683D
:103D7000C7687868854211D2A0622068C06A00EBEB
:103D8000800158F82100012800D90126E0690028A7
:103D9000C9D00126C7E74FF0FF30EDE7381DFFF728
:103DA00009FAB86A18B107F11800FFF703FAF96ABF
:103DB0000120226988401043206101EB810108EB5A
:103DC0008100391DFFF746FAF86A2168C96A8842FE
:103DD000C9D30126C7E70000380000206C09002085
:103DE00070B504004FF0000140D0214D2868844296
:103DF00007D0502080F31188BFF34F8FBFF36F8F30
:103E0000FEE7A06C38B1401EA064636CE26A9A427F
:103E10002CD040B12AE0502080F31188BFF34F8F9F
:103E2000BFF36F8FFEE7201DFFF7C4F9114A012190
:103E300050B9E06A00EB800352F8233023B92B69B4
:103E400001FA00F083432B61606CE062C0F1200056
:103E5000A061E06A2B6981401943296100EB800071
:103E600002EB8000211DFFF7F5F90121084670BD26
:103E7000380000206C0900202DE9F041C068C468BA
:103E8000ACB104F118000746FFF794F9154D286B03
:103E90000126A0B139461448FFF7DCF9E06A296829
:103EA000C96A88421BD90120EE61BDE8F08150202B
:103EB00080F31188BFF34F8FBFF36F8FFEE7201D94
:103EC000FFF778F9E16A2A6906FA01F010432861E0
:103ED00001EB8100054901EB8000211DDCE700209A
:103EE000E3E7000038000020140C00206C090020DB
:103EF0002DE9F0472C4D00242746286B38B1FFF7F9
:103F0000B5F9286B401E2863286B40B146E050206D
:103F100080F31188BFF34F8FBFF36F8FFEE7A9685F
:103F2000224E0120D1B3A6F52A7980463068E8B147
:103F3000F068C46804F11800FFF73CF9201DFFF792
:103F400039F9E06A2A6908FA00F11143296100EBA6
:103F5000800109EB8100211DFFF77CF9E06A2968E7
:103F6000C96A8842E2D3C5F81C80DFE70CB1FEF7CE
:103F7000E7FFAC6944B14646FFF7CCFE00B1EE6105
:103F8000641EF9D10020A861E86938B10849012709
:103F900038070860BFF34F8FBFF36F8FFFF786F9C5
:103FA0003846BDE8F087000038000020140C0020DF
:103FB00004ED00E010B586B0FEF75CFD114C206802
:103FC000B8B100200390049005AA04A903A8FFF744
:103FD0000FF9DDE9032102208DE8070000230AA183
:103FE0000B48059AFFF757FE606010B106B001203C
:103FF00010BD502080F31188BFF34F8FBFF36F8F38
:10400000FEE7000074000020546D722053766300B8
:104010001D300008FEB51E4613460200089D4FF0F5
:10402000000014D0124C2768002F0FD0CDE90013E8
:104030000292062915DAFFF759FE02284FF0000315
:104040000DD0002269462068FFF712FCFEBD50200B
:1040500080F31188BFF34F8FBFF36F8FFEE72A46BF
:10406000F0E70023324669463846FFF7B1FCFEBD53
:1040700074000020000000000000000001020304A2
:104080000607080900000000010203040000000008
:10409000000000000000000000000404040404000C
:1040A0000004000014140A000000000000000000DA
:1040B00000000A0A1F0A0A1F0A0A000000040E155F
:1040C00005060C14150E0400000012150D152E2CFB
:1040D0002A1200000000040A0A36151529160000ED
:1040E00002020100000000000000000010080804A7
:1040F000040404040808100002040408080808085E
:104100000404020000000004150E0E150400000057
:1041100000000008083E0808000000000000000041
:10412000000000000202010000000000003F00004B
:10413000000000000000000000000000000200007D
:1041400000201010080804040202010000000E11F3
:1041500011111111110E00000000040604040404E2
:10416000040E000000000E1111080402011F0000DF
:1041700000000E11100C1010110E00000000080CB1
:104180000C0A091F081C000000001F01010F11107C
:10419000110E000000000C12010D1311110E000091
:1041A00000001E10080804040404000000000E11A2
:1041B000110E1111110E000000000E111119161030
:1041C00009060000000000000400000000040000D8
:1041D00000000000000400000004040000001008BB
:1041E0000402020408100000000000003F003F002D
:1041F0000000000000000204081010080402000083
:1042000000000E11110804040004000000001C222C
:10421000292D2D1D221C0000000004040C0A0A1E7A
:104220001233000000000F12120E1212120F0000C3
:1042300000001E1101010101110E000000000F120B
:1042400012121212120F000000001F120A0E0A02B0
:10425000121F000000001F120A0E0A0202070000CF
:1042600000001C1201013911120C00000000331271
:10427000121E12121233000000001F040404040472
:10428000041F000000003E08080808080808090785
:10429000000037120A060A12123700000000070257
:1042A00002020202223F000000003B1B1B1B1515EF
:1042B0001535000000003B1216161A1A12170000DE
:1042C00000000E1111111111110E000000000F124B
:1042D000120E02020207000000000E111111111748
:1042E000190E180000000F12120E0A1212370000E9
:1042F00000001E1101060810110F000000001F151C
:1043000004040404040E00000000331212121212FE
:10431000120C000000003312120A0A0C0404000000
:104320000000151515150E0A0A0A000000001B0AE8
:104330000A04040A0A1B000000001B0A0A0A0404FB
:10434000040E000000001F0908040402121F0000F0
:104350001C0404040404040404041C0000020204F9
:1043600004040808081010000E08080808080808C7
:1043700008080E00040A0000000000000000000011
:1043800000000000000000000000003F02040000E8
:10439000000000000000000000000000000C121CE3
:1043A000123C000000030202020E1212120E000064
:1043B00000000000001C1202120C00000018101077
:1043C000101C1212123C000000000000000C121E13
:1043D000021C000000182404041E0404041E000033
:1043E00000000000003C120C021C221C0003020210
:1043F000020E12121237000000040400000604042A
:10440000040E000000080800000C0808080808074F
:1044100000030202021A0A060A130000000704043D
:1044200004040404041F000000000000000F151520
:104430001515000000000000000F121212370000D6
:1044400000000000000C1212120C0000000000001E
:10445000000F1212120E020700000000001C1212C0
:10446000121C103800000000001B060202070000AA
:1044700000000000001E020C101E000000000004DE
:10448000041E0404041C000000000000001B1212A3
:10449000123C000000000000001B0A0A0404000097
:1044A000000000000015150E0A0A000000000000C0
:1044B000001B0A040A1B0000000000000033121257
:1044C0000C08040300000000001E0804041E000085
:1044D00018080808080C0808080818000808080840
:1044E0000808080808080808060404040408040466
:1044F000040406001609000000000000000000008F
:1045000000000000000000000000000000000000AB
:104510000000000808080808080800001818000033
:1045200000486C24120000000000000000000000A1
:104530000000002424247F1212127F1212120000A5
:104540000000081C2A2A0A0C1828282A2A1C0808F5
:1045500000000022251515152A5854545422000035
:104560000000000C1212120A76252911916E00002B
:104570000006060403000000000000000000000028
:1045800000402010100808080808081010204000FB
:10459000000204080810101010101008080402008F
:1045A0000000000008086B1C1C6B080800000000DD
:1045B00000000000080808087F080808080000003C
:1045C00000000000000000000000000006060403D8
:1045D0000000000000000000FE00000000000000DD
:1045E00000000000000000000000000006060000BF
:1045F000000080404020201010080804040202003F
:104600000000001824424242424242422418000064
:10461000000000080E08080808080808083E000006
:104620000000003C4242422020100804427E00006C
:104630000000003C4242201820404042221C000062
:10464000000000203028242422227E202078000030
:104650000000007E0202021A26404042221C000096
:10466000000000382402021A2642424224180000A8
:104670000000007E22221010080808080808000028
:104680000000003C4242422418244242423C0000C6
:10469000000000182442424264584040241C00009C
:1046A00000000000000018180000000018180000AA
:1046B00000000000000000080000000000080804DE
:1046C00000000040201008040204081020400000F0
:1046D0000000000000007F0000007F0000000000DC
:1046E000000000020408102040201008040200000E
:1046F0000000003C42424640201010001818000004
:104700000000001C225A555555552D42221C000010
:104710000000000808181414243C224242E700005C
:104720000000001F2222221E22424242221F0000BD
:104730000000007C4242010101010142221C0000F4
:104740000000001F2242424242424242221F000019
:104750000000003F4212121E12120242423F0000AD
:104760000000003F4212121E121202020207000055
:104770000000003C2222010101712122221C0000C4
:10478000000000E7424242427E42424242E70000CD
:104790000000003E0808080808080808083E000055
:1047A0000000007C10101010101010101010110FCD
:1047B0000000007722120A0E0A121222227700004D
:1047C000000000070202020202020202427F000011
:1047D00000000077363636362A2A2A2A2A6B00004D
:1047E000000000E346464A4A5252526262470000C5
:1047F0000000001C2241414141414141221C000076
:104800000000003F424242423E0202020207000014
:104810000000001C2241414141414D53321C6000C7
:104820000000003F4242423E1212222242C70000D4
:104830000000007C4242020418204042423E000038
:104840000000007F4908080808080808081C000044
:10485000000000E74242424242424242423C0000E3
:10486000000000E742422224241414180808000023
:104870000000006B49494949555536222222000063
:10488000000000E7422424181818242442E70000FE
:10489000000000772222141408080808081C0000F1
:1048A0000000007E2120101008040442423F000056
:1048B00000780808080808080808080808087800A8
:1048C00000000202040408080810102020204040C4
:1048D000001E1010101010101010101010101E00DC
:1048E000003844000000000000000000000000004C
:1048F000000000000000000000000000000000FFB9
:104900000006080000000000000000000000000099
:10491000000000000000003C4278444242FC0000DD
:10492000000000030202021A26424242261A000038
:104930000000000000000038440202024438000079
:1049400000000060404040784442424264D8000089
:10495000000000000000003C427E0202423C0000D9
:10496000000000F08808087E08080808083E0000DB
:10497000000000000000007C22221C023C42423C5D
:10498000000000030202023A4642424242E70000AF
:104990000000000C0C00000E08080808083E00008B
:1049A0000000003030000038202020202020221E6F
:1049B0000000000302020272120A1612227700009F
:1049C0000000000E0808080808080808083E000053
:1049D000000000000000007F9292929292B70000C7
:1049E000000000000000003B4642424242E7000057
:1049F000000000000000003C42424242423C0000F5
:104A0000000000000000001B26424242221E020756
:104A1000000000000000007844424242447840E038
:104A200000000000000000774C040404041F000094
:104A3000000000000000007C42023C40423E0000BA
:104A4000000000000008083E0808080808300000C0
:104A500000000000000000634242424262DC0000AD
:104A600000000000000000E74224241408080000B1
:104A700000000000000000EB4949555522220000CB
:104A8000000000000000007624181818246E0000B2
:104A900000000000000000E7422424141808080762
:104AA000000000000000007E22100808447E000084
:104AB00000C0202020202010202020202020C00006
:104AC00010101010101010101010101010101010E6
:104AD0000006080808080810080808080808060062
:104AE0000C32C200000000000000000000000000C6
:104AF00000000000000000000000000000000000B6
:104B000000000000000000000000000000000000A5
:104B10000000000000000000000000000000000095
:104B20000000000000000000600060006000600005
:104B300060006000600040002000200020000000B5
:104B40000000000060006000600000000000000045
:104B500000000000600660063003980188004400F1
:104B60000000000000000000000000000000000045
:104B70000000000000000000000000000000000035
:104B800000000000000000001002100210021002DD
:104B9000FE07FE0708020801080108010801FE07D8
:104BA000FE070401040104010401000000000000EC
:104BB00000000000000040004000F00158034C03DA
:104BC000CC034C0058007000E000C001C00140035D
:104BD0004C035C034C034801F0004000400000001F
:104BE00000000000000000000E010A019100910089
:104BF0009100510051003A00AE03A002500450044D
:104C000048044804480484028403000000000000B3
:104C1000000000000000000038006C006C006C0018
:104C20006C006C002C0098071C011A013301330141
:104C30006301E300C308C6093C0700000000000050
:104C4000000000000C001C00100010000800040010
:104C50000000000000000000000000000000000054
:104C60000000000000000000000000000000000044
:104C700000000000000400020001800080004000ED
:104C80004000200020002000200020002000200004
:104C9000400040008000800000010002000400008D
:104CA00000000000020004000800100010002000B6
:104CB0002000400040004000400040004000400014
:104CC0002000200010001000080004000200000076
:104CD0000000000000000000000000004000C000D4
:104CE0004000460C4E0FD001F0015E0F460C400014
:104CF0004000400000000000000000000000000034
:104D00000000000000000000000000000000400063
:104D10004000400040004000FE0F400040004000C6
:104D20004000400000000000000000000000000003
:104D30000000000000000000000000000000000073
:104D40000000000000000000000000000000000063
:104D5000000000000C001C001000100008000400FF
:104D60000000000000000000000000000000000043
:104D70000000000000000000FE070000000000002E
:104D80000000000000000000000000000000000023
:104D90000000000000000000000000000000000013
:104DA0000000000000000000000000000000000003
:104DB000000000001C001C001C000000000000009F
:104DC00000000000000400060002000300010001D2
:104DD00080008000400040006000200020001000A3
:104DE0001000080008000C0004000600020000008B
:104DF00000000000000000000000F00098010C031B
:104E00000C0306060606060606060606060606063F
:104E100006060C030C039801F000000000000000DF
:104E20000000000000000000000040007C00600066
:104E30006000600060006000600060006000600072
:104E40006000600060006000FC03000000000000E3
:104E500000000000000000000000F80084010203D0
:104E600006030603000300018001C000600020006B
:104E70001000080204020602FE0300000000000009
:104E8000000000000000000000007800C60086015D
:104E9000860180018001C0007000800100010003D4
:104EA0000003060306038601F8000000000000006E
:104EB0000000000000000000000080018001C0012F
:104EC000A001A00190018801880184018201FE0FE8
:104ED0008001800180018001E007000000000000E7
:104EE00000000000000000000000FC0304000400BB
:104EF000040004000400F4008C0104030003000318
:104F00000603060382018401F8000000000000008F
:104F100000000000000000000000E00118030C0386
:104F20000C0004000600E60116030E06060606063F
:104F3000060604060C021803F00000000000000042
:104F400000000000000000000000F8070C0604024A
:104F5000040100010001800080004000400040008A
:104F60006000600060006000600000000000000061
:104F700000000000000000000000F8010C0306061D
:104F8000060606060C021C03F000C8010C03060608
:104F90000606060606060C03F001000000000000ED
:104FA00000000000000000000000F0000C010C03F5
:104FB000060206060606060606078C0678060006A2
:104FC000000300030C018C017800000000000000C9
:104FD00000000000000000000000000000000000D1
:104FE00000000000E000E000E00000000000000021
:104FF00000000000E000E000E00000000000000011
:1050000000000000000000000000000000000000A0
:1050100000000000600060000000000000000000D0
:105020000000000000006000600040002000200040
:1050300000000000000000000004000200018000E9
:1050400040002000100008000400080010002000AC
:105050004000800000010002000400000000000089
:105060000000000000000000000000000000000040
:1050700000000000FE07000000000000FE07000026
:105080000000000000000000000000000000000020
:1050900000000000000000000400080010002000D4
:1050A00040008000000100020004000200018000B6
:1050B0004000200010000800040000000000000074
:1050C00000000000000000000000E0031806040CCF
:1050D000040C0C0C0C0C0007800140004000400048
:1050E00000000000E000E000E00000000000000020
:1050F0000000000000000000E00018030C02CC05D6
:1051000064056605A605B604B604B604B604B60280
:10511000E4010C040C021803F00000000000000081
:10512000000000000000000000006000600050006F
:10513000D00090009000880088010801F801040365
:1051400004030402020202060F0F00000000000028
:1051500000000000000000000000FE008C030C03B3
:105160000C030C030C038C01FC000C030C020C065A
:105170000C060C060C060C03FE01000000000000EB
:1051800000000000000000000000E00318030C060F
:105190000C040404060006000600060006000600D3
:1051A00006040C040C021803F000000000000000CC
:1051B000000000000000000000007F008C010C03D4
:1051C0000C030C060C060C060C060C060C060C0652
:1051D0000C060C030C038C017F0000000000000093
:1051E00000000000000000000000FF0306030604AA
:1051F0000604060086008600FE0086008600860003
:105200000600060406040602FF030000000000007A
:1052100000000000000000000000FF030603060479
:105220000604060086008600FE00860086008600D2
:1052300006000600060006001F0000000000000037
:1052400000000000000000000000F00018010C0247
:105250000C0204020600060006000600C60F060344
:1052600006030C030C031803F0000000000000000C
:10527000000000000000000000000F0F06060606F8
:105280000606060606060606FE07060606060606C5
:1052900006060606060606060F0F000000000000C0
:1052A00000000000000000000000FC03600060003F
:1052B00060006000600060006000600060006000EE
:1052C0006000600060006000FC030000000000005F
:1052D00000000000000000000000F807C000C0004F
:1052E000C000C000C000C000C000C000C000C000BE
:1052F000C000C000C000C000C000C60066003C0086
:1053000000000000000000000000CF038601C6007E
:1053100046002600160036002E006E004600C6002D
:1053200086008601060106038F07000000000000CA
:10533000000000000000000000001F000600060042
:10534000060006000600060006000600060006002D
:105350000600060406040602FF0300000000000029
:10536000000000000000000000000707860386031D
:105370008E038E034E034E034A035A035A033A0325
:1053800032033203320312038707000000000000DB
:10539000000000000000000000008E0F0C021C0244
:1053A0001C0234023402640264024402C402840215
:1053B00084038403040304031F02000000000000B0
:1053C00000000000000000000000F00098010C0345
:1053D0000C0206060606060606060606060606066B
:1053E00006060C020C039801F0000000000000000B
:1053F00000000000000000000000FF000603060699
:1054000006060606060606068603FE0006000600D9
:1054100006000600060006001F0000000000000055
:1054200000000000000000000000F00098010C03E4
:105430000C0206060606060606060606060606060A
:1054400076064C02CC039801F000800700030000B0
:1054500000000000000000000000FF010603060637
:105460000606060606060603FE004600C60086007F
:1054700086010603060306060F0E0000000000006A
:1054800000000000000000000000F8020C0306020B
:10549000060206000E003C00F800E003800300074F
:1054A0000206020606060C03F001000000000000E0
:1054B00000000000000000000000FE076204610818
:1054C00061086000600060006000600060006000D3
:1054D0006000600060006000F80100000000000053
:1054E000000000000000000000001E070C020C027B
:1054F0000C020C020C020C020C020C020C020C023C
:105500000C020C020C021801F00000000000000068
:10551000000000000000000000000F070602040168
:1055200004010C010C0188008800980098005000CC
:10553000500070003000200020000000000000003B
:1055400000000000000000000000F70E62044204AA
:105550004604460464026402E402E4029C029C01E4
:105560009801980188018800880000000000000070
:10557000000000000000000000009E070C01080170
:1055800018019000B0006000200060006000D000B2
:1055900090008801080104038E070000000000004D
:1055A000000000000000000000000F0F06040402CD
:1055B0000C0208011801B800B00070006000600023
:1055C0006000600060006000F80100000000000062
:1055D00000000000000000000000FC070C020603B1
:1055E00002018001800040004000200020001000E7
:1055F000180008040C040402FE0300000000000070
:1056000000000000E0032000200020002000200017
:10561000200020002000200020002000200020008A
:10562000200020002000200020002000E0030000D7
:105630000000000000000000040004000800080052
:105640001000100010002000200040004000C000AA
:10565000800080000001000100020002000200043E
:10566000000000007C00400040004000400040007E
:10567000400040004000400040004000400040002A
:105680004000400040004000400040007C0000001E
:105690000000600090000801000000000000000011
:1056A00000000000000000000000000000000000FA
:1056B00000000000000000000000000000000000EA
:1056C00000000000000000000000000000000000DA
:1056D00000000000000000000000000000000000CA
:1056E0000000000000000000000000000000FF0FAC
:1056F0000000000018006000000000000000000032
:105700000000000000000000000000000000000099
:105710000000000000000000000000000000000089
:105720000000000000000000000000000000000079
:1057300000000000F0010C030C030003E0031C0355
:105740000E03060306038E0B7C0E00000000000013
:10575000000000000000000008000E000C000C001B
:105760000C000C00CC013C031C060C060C060C06BD
:105770000C060C060C021C03E401000000000000F3
:105780000000000000000000000000000000000019
:1057900000000000F0008C018C018601060006006C
:1057A000060006020C020C01F000000000000000E0
:1057B00000000000000000000002C003000300031E
:1057C0000003000378038C030C030603060306039F
:1057D0000603060304038C077801000000000000A4
:1057E00000000000000000000000000000000000B9
:1057F00000000000E001180308020C060C06FC077C
:105800000C000C0018041802E00100000000000069
:1058100000000000000000000000C0036006300629
:1058200030003000FE013000300030003000300029
:105830003000300030003000FC01000000000000AB
:105840000000000000000000000000000000000058
:1058500000000000F007D8068C018C018C01980133
:10586000F8000C00FC00CC03060306038E03F800CE
:10587000000000000000000008000E000C000C00FA
:105880000C000C00EC011C030C030C030C030C03B8
:105890000C030C030C030C039E0700000000000027
:1058A0000000000000000000000060006000000038
:1058B000000040007C00600060006000600060004C
:1058C0006000600060006000FC0300000000000059
:1058D00000000000000000000000C001C001000046
:1058E00000000001F0018001800180018001800141
:1058F000800180018001800180018001CC007C005A
:10590000000000000000000008000E000C000C0069
:105910000C000C008C038C008C004C006C005C00B4
:105920008C008C010C010C039E070000000000009D
:10593000000000000000000040007C0060006000EB
:105940006000600060006000600060006000600057
:105950006000600060006000FC03000000000000C8
:105960000000000000000000000000000000000037
:10597000000000003707EE06660666066606660645
:105980006606660666066606FF0F00000000000059
:105990000000000000000000000000000000000007
:1059A00000000000EE011C030C030C030C030C03AD
:1059B0000C030C030C030C039E0700000000000006
:1059C00000000000000000000000000000000000D7
:1059D00000000000F00098010C030606060606060B
:1059E000060606060C030C03F00000000000000091
:1059F00000000000000000000000000000000000A7
:105A000000000000EE011C030C060C060C060C0640
:105A10000C060C060C031C03EC010C000C003E00F1
:105A20000000000000000000000000000000000076
:105A30000000000078028C030C0306030603060333
:105A40000603060304038C03780300030003C00766
:105A50000000000000000000000000000000000046
:105A6000000000009F0358063806180018001800B0
:105A70001800180018001800FF00000000000000C7
:105A80000000000000000000000000000000000016
:105A900000000000F0031C030C020C023800F000B0
:105AA000C003040304038C03FC0100000000000099
:105AB00000000000000000000000000020002000A6
:105AC00030003000FE013000300030003000300087
:105AD0003000300030023002E00100000000000021
