:020000040800F2
:10000000385100206D02000813410008F531000846
:1000100011410008ED0C0008194A0008000000001A
:10002000000000000000000000000000AD0100081A
:10003000710F0008000000000902000801440008D8
:10004000870200088702000887020008870200086C
:10005000870200088702000887020008870200085C
:10006000870200088702000887020008870200084C
:10007000870200088702000887020008870200083C
:1000800087020008870200088702000800000000BD
:1000900000000000000000000000000087020008CF
:1000A00087020008D1440008870200088702000880
:1000B0008702000887020008DD4400088702000864
:1000C00087020008870200088702000887020008EC
:1000D00087020008F94900088702000800000000B4
:1000E000870200088702000887020008000000005D
:1000F000000000000000000000000000870200086F
:10010000000000008702000887020008870200083C
:1001100000000000000000000000000000000000DF
:10012000870200088702000887020008870200088B
:10013000870200080000000000000000000000002E
:10014000000000000000000000000000870200081E
:10015000870200088702000887020008870200085B
:10016000870200088702000800000000000000006D
:10017000000000000000000000000000000000007F
:1001800000000000870200080000000000000000DE
:1001900087020008DFF810D000F04CFC0048004750
:1001A0007D640008AFF30080385100202C4B1968A3
:1001B0000868B0E8F04F80F30988BFF36F8F4FF005
:1001C000000080F3118870470000000008480068B4
:1001D000006880F308884FF0000080F3148862B64E
:1001E00061B6BFF34F8FBFF36F8F00DF00BF00BF5B
:1001F00008ED00E0DFF80C00016841F470010160D7
:10020000704700BF88ED00E0EFF30980BFF36F8F08
:10021000134B1A681EF0100F08BF20ED108A20E95A
:10022000F04F106009B44FF0500080F31188BFF315
:100230004F8FBFF36F8F07F0B5FB4FF0000080F3D7
:10024000118809BC19680868B0E8F04F1EF0100F5B
:1002500008BFB0EC108A80F30988BFF36F8F704736
:100260003C000020EFF305807047000006488047FF
:1002700006480047FEE7FEE7FEE7FEE7FEE7FEE78B
:10028000FEE7FEE7FEE7FEE7C1440008950100082F
:100290002DE9F05F0546002092469B4688460646BB
:1002A000814640241BE0284641464746224600F04E
:1002B00037FA53465A46C01A914110D31146184690
:1002C000224600F01EFA2D1A67EB01084F4622461F
:1002D0000120002100F015FA17EB00094E41201E05
:1002E000A4F10104DFDC484631462A464346BDE816
:1002F000F09F40EA01039B0703D009E008C9121FE1
:1003000008C0042AFAD203E011F8013B00F8013BCF
:10031000521EF9D27047D2B201E000F8012B491EFB
:10032000FBD270470022F6E710B513460A46044692
:100330001946FFF7F0FF204610BD421C10F8011BC4
:100340000029FBD1801A70472DE9FE4F804681EAD3
:100350000300C00F0C46009021F0004123F000453F
:10036000B8EB0200A94105D24046214690461C4602
:100370000B46024623F00040104347D0270DC7F339
:100380000A00C3F30A510290401A019040286BDA28
:10039000C3F3130040F4801B0098924620B1002361
:1003A000D2EB030A63EB0B0B01985946C0F14002F4
:1003B000504600F0A6F906460D4650465946019AA9
:1003C00000F0BEF910EB08006141002487EA1152E9
:1003D00084EAE7731A4340D0009A62B3019A012A73
:1003E0004FEA075215DC001B61EB02014FF000429F
:1003F00002EA0752CDE90042001C41F58011324665
:100400002B4600F0F5F903B0BDE8F08F40462146D9
:10041000F9E7001B61EB0201001C41F58013001895
:100420005B412018A2F5001747EB030140EAD570A5
:10043000B6196D4111E06D084FEA360645EAC07500
:100440004FEA0752001B61EB0201001C41F58011CD
:1004500049084FEA30000019514132462B4603B09B
:10046000BDE8F04F00F0B5B900980122400000232C
:10047000D0EB020263EBE073009821464FEAE07490
:10048000B8EB000061EB0401E9E783F000435BE7B0
:1004900081F0004158E72DE9FE4F81EA030404F0A2
:1004A000004421F0004100944FF0000B23F0004382
:1004B00050EA01045ED052EA03045BD0C3F30A544D
:1004C000C1F30A552C44A4F2F3340194A0FB025466
:1004D000C1F3130141F48011C3F3130343F48013F8
:1004E00001FB024400FB034E840A970A44EA81544C
:1004F00047EA8357A4FB076802958D0A05FB078529
:100500004FEA932C04FB0C542705029D4FEA065832
:1005100047EA1637B5EB08056EEB070C870E920E0F
:1005200047EA811742EA8312A7FB0201B6EB0B01EF
:1005300064EB00042B0D43EA0C335E1844EB1C50B3
:10054000DA465146E7FB0201C5F313044FEA0B33C9
:1005500043EA14534FEA0432019C43EA0603A4F130
:100560000C040294009CCDE900B400F041F903B002
:10057000BDE8F08F00200146F9E72DE9F04D81EA52
:10058000030404F0004B21F0004514464FF0000A2C
:1005900023F0004150EA050220D054EA01021DD0A8
:1005A000C5F30A570246C5F31303C1F31300C1F3A1
:1005B0000A5640F4801543F48013A7EB0608101B7D
:1005C000D64608F2FD3873EB050002D308F10108A6
:1005D00001E092185B41B8F1000F03DA00200146F8
:1005E000BDE8F08D00204FF48011064684460EE0F1
:1005F000171B73EB050705D3121B63EB05030643BB
:100600004CEA010C49084FEA300092185B4150EA6D
:100610000107EDD152EA030012D082EA040083EA16
:100620000501084305D0101BAB4106D2012200236F
:1006300006E000224FF0004302E06FF00102531089
:100640001AEB06004CEB085110EB0A0041EB0B01D2
:10065000BDE8F04D00F0BDB80EB540F23341029157
:100660000021CDE900110A460B4600F0C1F803B0A5
:1006700000BDC1F30A5210B5C1F3130140F2FF33BC
:1006800041F480119A4201DA002010BD40F2334358
:100690009A42A2F2334203DC524200F041F810BD0C
:1006A000904010BD00F0004230F000400AD0C10D73
:1006B00001F56071C0F3160042EA0151C20840071B
:1006C0001143704700200146704701F0004330B4E9
:1006D00021F0004150EA010206D00A0DA2F5607235
:1006E000C1F31301002A02DC30BC00207047440F24
:1006F00044EAC104C100E01830BC00EBC25000F075
:1007000031B8202A04DB203A00FA02F100207047B9
:100710009140C2F1200320FA03F31943904070473F
:10072000202A04DB203A21FA02F00021704721FA46
:1007300002F3D040C2F120029140084319467047AD
:10074000202A06DBCB17203A41FA02F043EAE07395
:1007500006E041FA02F3D040C2F120029140084382
:10076000194670470029A8BF7047401C490008BFC0
:1007700020F00100704710B4B0FA80FC00FA0CF0D1
:1007800050EA010404BF10BC704749B1CCF1200409
:1007900021FA04F411FA0CF118BF01212143084396
:1007A000A3EB0C01CB1D4FEA00614FEA102042BFC2
:1007B000002010BC704700EBC35010440029A4BFB8
:1007C00010BC7047401C490008BF20F0010010BC5D
:1007D000704710B5141E73F1000408DA401C41F193
:1007E000000192185B411A4301D120F0010010BDB5
:1007F0002DE9F04D92469B4611B1B1FA81F202E02B
:10080000B0FA80F220329046FFF77BFF04460F4695
:1008100040EA0A0041EA0B0153465A46084313D006
:10082000114653EA010019D0C8F140025046FFF7C3
:1008300077FF05460E46504659464246FFF761FF90
:10084000084305D0012004E020463946BDE8F08D7C
:100850000020054346EAE0762C4337430A986305B7
:10086000E40AA0EB08000022FD0A44EA47540A30DB
:1008700002D500200146E9E7010510196941DDE9CB
:10088000084500196941BDE8F04DA2E770B521F0B7
:10089000004303430CD0C1F30A550024D5EB0405F3
:1008A00064EB0403D617AD1AB34102DB0020014606
:1008B00070BD201841EB025170BD2DE9F04D0023B1
:1008C0001A461B1A8A4103DB00200146BDE8F08D61
:1008D000C1F30A52C1F3130141F480154FF0000B2C
:1008E000D10702D100186D41521E0027044640F284
:1008F000FF11384601EB620A3E4680460246002060
:100900004FF48011FFF70CFFC2197141BB1846EB81
:100910000100B4EB030C75EB000C04D3E41A65EB97
:10092000000517460E46241908F101006D41804666
:100930003428E3DDF91946EB0600091BA84103D270
:100940004FF0FF32134601E0002213461BEB070075
:1009500046EB0A51BDE8F04DFFF73BBF2DE9FE4FD6
:10096000C3F30A5701F000450024C1F30A56C3F34C
:100970001303C1F3130143F4801312EB020AA646DA
:1009800041F48011009543EB030CA7F1010B16E035
:10099000B0EB0A0061EB0C01071E71F1000707DAEA
:1009A0004FF00008D0EB080085F0004568EB01012E
:1009B000171A73EB0107EBD3761E001849415E4509
:1009C000F6DA50EA010209D0CDE900E5002213462B
:1009D0000296FFF70DFF03B0BDE8F08F20460099A7
:1009E000F9E70EB5C10F80EAE0700844CA0700219C
:1009F00040F233438DE80E000A460B46FFF7F8FE3F
:100A000003B000BD30B5041E71F1000404DB4FF0EB
:100A10000044404264EB0101141E73F1000405DB45
:100A20001C464FF00043524263EB0403994208BF57
:100A3000904230BD064C074D06E0E06840F00103EF
:100A400094E8070098471034AC42F6D3FFF7A6FBB2
:100A500088BA0008A8BA000870B5C1F30A5201F0BC
:100A600000450024C1F3130140F2FF3341F480112B
:100A70009A4201DA002070BD40F233439A42A2F25A
:100A8000334203DC5242FFF74BFE00E090402C4320
:100A9000F1D0404270BD70B58C1810F8015B15F0B4
:100AA000070301D110F8013B2A1106D110F8012BE0
:100AB00003E010F8016B01F8016B5B1EF9D12B0705
:100AC00005D40023521E0DD401F8013BFAE710F8BB
:100AD000013BCB1A921C03E013F8015B01F8015BA8
:100AE000521EF9D5A142D8D3002070BD7CB506F0C6
:100AF00031FD33480324CDE900404FF40075002355
:100B00002A4630A1324807F053FA012802D131A019
:100B100003F084FF2A480023001DCDE900402A4647
:100B200033A1364807F044FA012802D134A003F07B
:100B300075FF2348394B0830CDE900402A4638A1DB
:100B40003A4807F035FA012802D139A003F066FFD0
:100B50001B4905200C31CDE9000100232A463BA1A9
:100B60003F4807F025FA012802D13EA003F056FFC6
:100B7000134904201431CDE9000100232A4643A182
:100B8000464807F015FA012802D145A003F046FFB8
:100B90000B4800231030CDE900402A4648A14B48BD
:100BA00007F006FA012802D149A003F037FF0448F4
:100BB000001F406A06F012FEBDE87C4006F0EABC69
:100BC000040000204C45445F5461736B000000003A
:100BD000553D0008B4B4BDA8204C45445F54617332
:100BE0006B20C8CECEF1B3C9B9A6210A0A00000015
:100BF0004B45595F5461736B0000000035350008A8
:100C0000B4B4BDA8204B45595F5461736B20C8CE66
:100C1000CEF1B3C9B9A6210A0A000000C44A0020D7
:100C20004C43445F5461736B00000000513C00086A
:100C3000B4B4BDA8204C43445F5461736B20C8CE4C
:100C4000CEF1B3C9B9A6210A0A000000436C6F7344
:100C500065646C6F6F705F464F435F5461736B00E8
:100C6000F10C0008B4B4BDA820436C6F7365646CCC
:100C70006F6F705F464F435F5461736B20C8CECE79
:100C8000F1B3C9B9A6210A0A0000000050726F74BE
:100C90006F636F6C5F5461736B0000005942000812
:100CA000B4B4BDA82050726F746F636F6C5F5461F1
:100CB000736B20C8CECEF1B3C9B9A6210A0A0000D1
:100CC000454331315F5461736B00000071120008BD
:100CD000B4B4BDA820454331315F5461736B20C863
:100CE000CECEF1B3C9B9A6210A0A0000FEE7000082
:100CF0002DED028B84B0012204213C4800F0BFFF9F
:100D00003B4E9FED3C8A3C4C307868B13B4800F04C
:100D100051FE94ED080A054610EE100A3849884243
:100D20002FD99FED380A33E03948374A37498DE8E3
:100D300007003248DFED370A4FF0FF3307229FEDFF
:100D4000360A0021243800F065FC07F097F903907B
:100D50002A48F0EE481AB0EE481ADFED300A9FED4F
:100D6000300A243800F081F82448F0EE481AB0EE3A
:100D7000481ADFED2C0A9FED2C0A243800F068F8A1
:100D8000C2E710EE100A2949884201DD9FED280ACA
:100D9000284984ED080AB0EEC00A10EE100A884215
:100DA0000BDA26489FED240A80ED000A9FED240A05
:100DB00080ED010A80ED028A0BE0B0EE481A0F4880
:100DC000F0EE411ADFED1F0A9FED1F0A243800F0F4
:100DD0004CF80A4894ED080A243800F06FF81B48D4
:100DE0000321456003A806F0B3FC8DE70004024030
:100DF0002402002000000000000000206C4B0020B6
:100E00000000C8C20000C8C26C02002044020020DA
:100E1000440900200AD7233C66664641A69B443B12
:100E20000E4F2F3B6F12033AEC51B83D0000C84201
:100E30000000C842000070410E4FAF3AF04B002056
:100E4000A69BC43A52491D3BBDBEE93AC44A0020A4
:100E5000016A81ED000A016AC1ED010A016A81EDB2
:100E6000021A006AC0ED031A7047C16981ED000AD9
:100E7000C169C1ED010AC16981ED021AC069C0ED05
:100E8000031A7047024981ED060AC06903F054B99C
:100E9000C44A002010B50446006905F0C3FAD4ED39
:100EA000030A6069F8EEE00A20EE800A02F080FF93
:100EB000014880ED050A10BDC44A002010B5044663
:100EC0002DED028BD0ED030AF8EEE00A60EE808A89
:100ED00005F0E4F9B0EE408A2046FFF7DBFF38EE7C
:100EE000C00ADFED0A0A9FED0A1A204660EE200ACA
:100EF00080EE810AFFF7C6FFF0EE480ABDEC028BD8
:100F00002046BDE8104006F05BB900000000344305
:100F1000DB0F494070B505462DED028BB0EE080A97
:100F20009FED0F8AF0EE480A06F04AF940F2DC50D5
:100F300006F0E8FB284605F0B1F90A4CF0EE480A45
:100F4000284684ED060A9FED080A06F039F907489D
:100F500094ED060A80ED030ABDEC028B70BD000023
:100F6000E4CB96402402002000000000C44A002088
:100F7000704700002DE9F047DFF8C8A22DED068B81
:100F8000B7EE009A9AF801009FEDAF8B04259FED14
:100F9000B0ABB14F00264FF00809A7F108040528AF
:100FA00023D121462279487809780346401EBC4661
:100FB000C0B20CEB0111EAB103EB4303D1F808C056
:100FC00009EB83083A461CF80880B8F1000F1BD0E3
:100FD0000CEB830005F084FA012817D0022823D0F7
:100FE00003284CD09DA003F019FD9AF801000628B3
:100FF0006BD089E06070FF2802D1087B401E6070D2
:10100000BDEC068BBDE8F0872671F3E720786178A8
:1010100002EB001001EB4101806805EB81014058B3
:101020000168491E0160E0E72078C0B161780429B9
:1010300015D202EB001001EB4101806805EB810144
:1010400050F80180D8F80000FFF72CFB53EC182B68
:10105000FFF71BFAFFF739FBC8F80000C5E702EB02
:1010600000106178806801EB410105EB8101405877
:1010700090ED000A30EE490A80ED000AB5E72178CC
:1010800071B9607804280BD200EB4000916805EB41
:1010900080000A58904692ED000B53EC182B0DE09F
:1010A00002EB01106178806801EB410105EB8101E1
:1010B0004258904692ED000B53EC1A2B51EC100B5A
:1010C000FFF7E3F9C8E900018FE7207970B32078D2
:1010D0003A4607EB001C6078DCF8083000EB400172
:1010E00009EB810813F80880B8F1000F27D003EB53
:1010F000810005F0F5F901282BD0022837D003280C
:101100005DD056A003F08AFC9AF8010001287CD03B
:10111000082879D007287FF473AF2078401EC0B22A
:101120002070FF28F7D10320207069E76078401C09
:10113000C0B26070217807EB0111097B05E0401C0B
:101140002671C0B260709CF80C108842EDD16670B8
:1011500056E72078617802EB001001EB41018068CE
:1011600005EB810140580168491C0160CCE72078FB
:10117000A8B16178042912D202EB001001EB410101
:10118000806805EB810145582868FFF78BFA53EC1E
:10119000182BFFF7D9F8FFF798FA2860B4E702EBAD
:1011A00000106178806801EB410105EB8101405836
:1011B00090ED000A30EE090A80ED000AA4E72178DC
:1011C00069B9607804280AD200EB4000916805EB09
:1011D000800053EC182B0D5895ED000B0CE002EB42
:1011E00001106178806801EB410105EB810153EC4E
:1011F0001A2B455895ED000B51EC100BFFF7A4F896
:10120000C5E9000180E700E013E0207901280ED055
:10121000207807EB00108168607800EB400209EB52
:101220008200085C002893D001202071E8E6267136
:10123000E6E62078401CC0B22070042888D12670D1
:10124000DEE600000D020020F168E388B5F8E43E18
:10125000000000000000F03FC8000020454331318D
:1012600020556E6B6E6F776E20747970650A000082
:101270000C4D0D4C287878B100F00EF900F016F8FE
:10128000607018B1A178884200D0A070FFF772FE9C
:10129000052006F037FAEDE70521002000F0D4F82C
:1012A000E8E700000B0200200D0200202DE9F047C6
:1012B000634B844603F1090100209625D3E90374AA
:1012C000AE000A784FF0020A4FF014090146BCF153
:1012D000010F06D0BCF1FF3F05D0BCF1030F0AD0CF
:1012E00002E005200AE006201CF1030F05D0BCF146
:1012F000020F0DD002E0072000E00820B9FBF2FC4D
:10130000BC4521DDD96019715971997119613AE0B3
:10131000DFF830C1674501DA7F1CDF60B9FBF2F806
:10132000D3F80CC00127E04500D11F71002C04DD6B
:10133000B5FBF2F8A04500DB9F71B6FBF2F4644503
:1013400021D15F7119711EE01F79012F0FD19F7993
:101350001FB1012F0FD027B109E0002C01DB641C65
:101360001C61B5FBF2F41F69BC4200DA19715C79AB
:10137000012C07D007E0B5FBF2F7A742F7DB83F8B3
:1013800006A0F4E75971B9FBF2FC2D4CDF68247A12
:10139000BC454ADA93F804C0BCF1000F0BD1B5FB91
:1013A000F2FCD3F81080C44505DAB6FBF2FCBC456C
:1013B00001DD1F781FB19F79022F0AD015E0072C9D
:1013C00005D0082C03D00120D96019610CE0FF2062
:1013D000FAE71F69002F08DDB5FBF2F5BD4204DB1B
:1013E000D96019610220197199715D79012D01D0BF
:1013F0009DB11AE0B6FBF2F5DE68B54215DC5D6919
:101400006D1CC826B6FBF2F2B5FBF2F602FB1652D3
:101410005D6152B90420596109E0B6FBF2F2DD6862
:10142000AA4202DC0320D96001E0002806D0A042D5
:1014300000D01872FF2801D100201972BDE8F08792
:1014400004020020A08601002DE9F0410025104C87
:10145000012610B1E67011B102E0E570FBE7012151
:101460000B480C4F093001704FF48051384600F0A2
:1014700001FC60704FF48041384600F0FBFBA07027
:10148000E560256125716571A571E671BDE8F081A2
:1014900004020020000402402DE9F0475A4D0024C8
:1014A0004FF48050E978671E584E00298146014666
:1014B0004FF4804830460ED000F0DCFB697888425B
:1014C0007ED04946304600F0D5FB0128A87817D0D9
:1014D000012841D046E000F0CDFB6978884271D008
:1014E0004946304600F0C6FB00285FD141463046F1
:1014F00000F0C0FB012801D1012457E03C4655E033
:10150000012805D14146304600F0B4FB00B9012462
:10151000A87830B94146304600F0ACFB012800D134
:101520003C464146304600F0A5FBA978884205D1EB
:101530004146304600F09EFB00B90124414630464A
:1015400000F098FBA978884230D14146304600F03F
:1015500091FB0128D2D029E04146304600F08AFBB9
:1015600000B93C46A87830B94146304600F082FBCD
:10157000012800D101244146304600F07BFBA978C8
:10158000884205D14146304600F074FB00B93C4624
:1015900047464146304600F06DFBA978884205D1A8
:1015A0003946304600F066FB0128A5D04946304652
:1015B00000F060FB68704146304600F05BFB00E0E5
:1015C00000E0A8704FF400573946304600F052FB57
:1015D00078B92878204306D001202870012C04D047
:1015E000601C04D005E0022403E0032401E06FF056
:1015F00002043946304600F03DFB012801D10020AD
:1016000028702046BDE8F087040200200004024054
:1016100072B6FEE72DE9F041344FF0EEC01A2DED21
:10162000028BB0EE608ADDE90965DDF820C001704B
:1016300097ED011A0446F4EEC11AF1EE10FA01DB3F
:10164000B0EE410A84ED010AC4E9022301EB8102F4
:1016500002EBC100264A274B02EB800001EB81021E
:1016600003EB8203A361244B03EB8202C4E904026F
:1016700001EB410303EBC102204B03EB8203E36167
:101680001F4B03EB82022262624602F025FEB0EE9F
:10169000480AA06902F080FBB0EE480A606902F0D7
:1016A0007BFB94ED010AB6EE008A20EE082A86ED57
:1016B000042AE06996EC040A02F02CFD94ED010A7C
:1016C00020EE082A85ED042A206A95EC040A02F02F
:1016D00021FD04F1240000F015F82046FFF71AFC64
:1016E00001203870BDEC028BBDE8F081240200209F
:1016F000E04A0020C84B0020A04B0020F04B002007
:10170000484C002010B5044606F0B8FC206060602C
:1017100010BD0000084A00F10801D1709070091D49
:101720001170001D50700020111D087088704870E5
:10173000C870087170470000BC0000202DE9FE4F02
:10174000614D05F10806287806EB0010007B0028A3
:1017500046D00024A1462F1F4FF6FF784FF4784B58
:101760004FF0040A36E06878A0420CD0BA78CDF881
:101770000890CDE900823878797814FB010081B2B5
:101780005B4652A20EE02879BA78CDF80890CDE9F0
:10179000008200283878797824D014FB010081B2C7
:1017A0005B464BA2DC2002F036FA287804EB4402B8
:1017B00006EB0010806800EB820004F091FE012827
:1017C00016D002282BD003284DD042A003F026F9D2
:1017D000641CE4B2287806EB0010007BA042C2D85B
:1017E000BDE8FE8F14FB010081B25B463DA2D9E744
:1017F000BB78CDF800B0CDE9018328780AEB8201EF
:1018000006EB00108068405839780268787814FB3D
:10181000001081B20423782002F0A2F9D8E72878DA
:1018200008B1032C0FD3BB7806EB0010CDE9008381
:1018300081680AEB82000858797890ED000A3878C0
:1018400014FB010022E0BB7806EB0010CDE9008319
:1018500081680AEB82000858797890ED000A3878A0
:1018600014FB010028E0287808B1032C15D3BB78BD
:1018700006EB0010CDE9008381680AEB820008586E
:10188000397890ED000A787814FB001081B25B463D
:101890000622782002F084F89AE7BB7806EB001065
:1018A000CDE9008381680AEB82000858397890ED11
:1018B000000A787814FB001081B25B46062278207B
:1018C00002F0DEF884E70000C000002020000000E5
:1018D0002A000000556E6B6E6F776E20747970650C
:1018E0000A0000003C0000002DE9FE4F304D05F1DC
:1018F0000806287806EB00100068FEF71EFD47F684
:101900007C572C1F00F0FF08009700212378F0225D
:10191000084601F0BFFE4FF6FF7AF023CDF800A095
:101920001A462178002001F0B5FE6E220097F023C0
:101930002178104601F055FEE1784FF00009CDE91D
:101940000071CDF808902878782106EB0010026825
:10195000C8F1000001EBC0004FF4784880B2434664
:10196000494602F058F9287806EB0010007B002861
:101970001CD0002714E0A378CDF800A0CDE90139F0
:10198000806807EB470150F821202078617817FB29
:10199000010081B24346002002F03DF97F1CFFB2F6
:1019A000287806EB0010017BB942E4D8BDE8FE8F31
:1019B000C000002010B5044600F00AF821688142FA
:1019C00002D9C943014400E0411A2060084610BD15
:1019D00010B5044606F052FB606010BD2DE9F041E1
:1019E0000446876D00F050F9064694F8350000254E
:1019F000022806D08020606584F834500120BDE8BC
:101A0000F0812068016821F01601016020684169B9
:101A100021F080014161206C08B9A06C20B12068E0
:101A2000016821F0080101602068016821F00101CE
:101A300001600CE000F028F9801B052807D9202060
:101A40006065032084F8350084F83450D7E72068B7
:101A50000068C007EED194F85C103F208840B86061
:101A6000012084F8350084F834500020C7E790F84E
:101A70003510022903D080214165012070470521DE
:101A800080F835100068016821F001010160002034
:101A9000704700002DE9F84FDFF8B8A100220124BB
:101AA00003254FF00F090AF1040BAAF1040E00BF41
:101AB0000B6804FA02F63340B34273D10F7907F092
:101AC0000307012F01D0022F16D187684FEA420881
:101AD00005FA08FC27EA0C07D1F80CC00CFA08FC40
:101AE0004CEA070CC0F808C04768B7430E79C6F344
:101AF000001696403E4346600E79F643B6070DD079
:101B0000C768560005FA06FC27EA0C07D1F808C09A
:101B10000CFA06FC4CEA070CC0F80CC00E7906F073
:101B20000306022E10D1D60800EB8608D8F82060F4
:101B300057074FEAD76C09FA0CF7BE430F6907FA4B
:101B40000CF73743C8F8207006684FEA420C05FAD4
:101B50000CF7BE430F7907F0030707FA0CF737437A
:101B600007604E6816F4403F6DD03B4E376847F42F
:101B700080473760366822F0030706F480460096F7
:101B8000364E07EB060CDCF8086897073F0F09FA9A
:101B900007F826EA0806DFF8C880404503D14FF071
:101BA00000081EE04FE0DFF8BC80404502D14FF056
:101BB000010816E0DFF8B080404502D14FF002087E
:101BC0000FE0DFF8A880404502D14FF0030808E09D
:101BD000DFF89C80404502D14FF0040801E04FF04F
:101BE000070808FA07F848EA0608CCF80888DAF87F
:101BF00000605746D1F804C09E435FEACC2C00D564
:101C00001E433E60DBF800605F46D1F804C09E438F
:101C10005FEA8C2C00D51E433E60DEF800607746FC
:101C2000D1F804C09E435FEA8C3C00D51E433E6061
:101C3000084F083F3E68D1F804C09E435FEACC3CA1
:101C400000D51E433E60521C102AFFF431AFBDE8A0
:101C5000F88F0000083C0140443802400030014049
:101C6000000002400004024000080240000C024054
:101C7000001002400069084000D0012070470AB1FE
:101C8000816170470904FBE70148806870470000E4
:101C90002C00002070B5040025D094F83D000025EC
:101CA00020B984F83C50204600F0BAF9242084F88A
:101CB0003D002068016821F0010101602068016891
:101CC00041F4004101602068016821F40041016095
:101CD00000F080FB4D4A6168914201D84C4900E018
:101CE0004C49884201D2012070BD4B492368B0FBAA
:101CF000F1F15E6826F03F060E435E606368934232
:101D000006D94FF4967359434FF47A73B1FBF3F14C
:101D10002368491C1E6A26F03F0631431962616838
:101D2000914210D84900401EB0FBF1F2521CC2F3A0
:101D30000B02042A01D2042022E0B0FBF1F0401C87
:101D4000C0F30B001CE0A268F2B301EBC10303EB8C
:101D50000116431EB3FBF6F35B1C43F480431B05E3
:101D600049D092B301EBC10202EB0111401EB0FB5E
:101D7000F1F0401CC0F30B0040F4804040F4004000
:101D80002168CA694CF6FF739A431043C861D4E9CD
:101D9000071001432068026822F0C002114301606D
:101DA000D4E9030101432068826848F2FF339A4373
:101DB00011438160D4E9050108432168CA6822F013
:101DC000FF021043C86001E00EE016E020680168E1
:101DD00041F0010101602564202084F83D00256365
:101DE00084F83E50002070BD01EB4106431EB3FB5A
:101DF000F6F35B1CB3E70120C2E701EB4101401E93
:101E0000B0FBF1F0401CC0F30B00B7E7A086010067
:101E100080841E0000093D0040420F002DE9FF4F65
:101E200083B09A46DDE9118793460446DDF8409079
:101E3000FFF72AFF054694F83D00202870D11923AA
:101E4000012274492046009501F06AFA0028F5D174
:101E500094F83C00012863D0012084F83C002068FD
:101E60000168C90703D1016841F0010101602068E0
:101E7000016821F400610160222084F83D004020C7
:101E800084F83E0000262664C4F82490A4F82A8032
:101E9000608D20856048E062CDE9007553465A4662
:101EA0002046049901F0BEF9002879D1208DD0B1E7
:101EB000012821D00228206824D04169806900903F
:101EC000208D032866D801282BD0544902283B4690
:101ED0004FF00002009557D08846204601F020FAC6
:101EE00000285DD13AE0206841698169009101686C
:101EF00041F4007101607DE02068016821F4806197
:101F00000160F0E7016821F48061016020680168E8
:101F100041F400610160206841698069009069E0D6
:101F200075E02A463946204601F0A0FA88BB54E005
:101F30002068016841F40071016020680069616AED
:101F40000870606A401C6062218D491E2185618D88
:101F5000491E618521680969017042E020680168B5
:101F600021F48061016020680069616A0870606A1C
:101F7000401C6062208D401E2085608D401E608563
:101F80003B46002241460095204601F0C9F900B9C0
:101F9000CEE705E02A463946204601F067FA18B137
:101FA000012007B0BDE8F08F20680069616A087001
:101FB000606A401C6062208D401E81B22185608D68
:101FC000401E608520684269D243520712D403291B
:101FD00003D1016821F48061016020680069616AB1
:101FE0000870606A401C6062208D401E2085608DF4
:101FF000401E6085208D00287FF462AF202084F889
:102000003D0084F83E6084F83C600020C9E702206F
:10201000C7E70000020010000000FFFF04000100FD
:1020200070B586B0044614216846FEF77BF91D4959
:102030002068884234D11C480024016841F0010125
:102040000160016801F001010591016841F00201A0
:1020500001600068122500F0020005904FF48070C6
:10206000CDE90005032602940420CDE9036069460A
:102070000E48FFF70FFD1020CDE90005029409205E
:10208000CDE9036069460A48FFF704FD06481030B1
:10209000016841F400010160006800F4000005904F
:1020A00006B070BD005C00403038024000000240C5
:1020B0000004024002488168027811448160704740
:1020C0002C0000200B4810B5016841F4007101603C
:1020D000016841F480610160016841F48071016030
:1020E000032000F099F80F2000F006F800F04AF8FD
:1020F000002010BD003C024030B505461C4887B0AA
:102100000024016841F001010160006806A900F0A7
:102110000100009001A800F03DF900F06BF91549AD
:10212000154AB0FBF1F11548491E026040F2E73252
:10213000C0E90324C0E90114846100F093FB0400AA
:1021400012D10E4800F0E6FB04000DD1192000F07A
:1021500035F8102D07D200222946192000F03CF84E
:102160000748056000E0012407B0204630BD0000AC
:102170004438024040420F0000000140700A002035
:10218000300000200C4882B0016841F480410160B9
:10219000006800F4804000900748001F016841F08B
:1021A000805101600068002200F0805000900F21F3
:1021B000901E02B000F010B844380240002809DB3D
:1021C00000F01F02012191404009800000F1E02051
:1021D000C0F8001170470000F0B40E4B1B680C46AD
:1021E000C3F30223C3F10705042D00D90425191DEB
:1021F000072901D2002300E0DB1E012606FA05F1C3
:10220000491E214099409E40761E16403143F0BC45
:1022100002F024BC0CED00E0064900F0070208685B
:102220004FF6FF03184040EA0220034A10430860BB
:10223000704700000CED00E00000FA05BFF34F8F7F
:1022400005480168054A01F4E06111430160BFF3EC
:102250004F8F00BFFDE700000CED00E00400FA0521
:102260002DE9F0470E46050065D0DFF81481D8F857
:102270000000F7B200F00700B04207D288F8007003
:10228000D8F8000000F00700B04254D128683D4C57
:10229000810712D5400703D5206840F4E050206044
:1022A0002878000703D5206840F46040206020684B
:1022B000A96820F0F000084320602878C0072DD0DE
:1022C000304968680839012812D0022813D0032841
:1022D00011D00968890700292DDA216821F003014E
:1022E00001432160FFF7D0FC814641F2883A0EE0BD
:1022F00009688903EFE709688901ECE7FFF7C4FC87
:10230000A0EB0901514502D90320BDE8F087206800
:10231000696800F00C00B0EB810FEFD1D8F8001025
:10232000404601F00701B14207D90770006800F08C
:102330000700B04201D00120E7E72878400705D523
:102340002068E96820F4E0500843206028780007FE
:1023500006D52068296920F4604040EAC100206069
:1023600000F058F82168084AC1F30311515CC840D5
:102370000649086006480068FFF7BEFE0020C4E773
:10238000003C024008380240E88300083800002082
:10239000300000200F2202600C4A136803F0030390
:1023A0004360136803F0F0038360136803F4E053A1
:1023B000C36012684FF4E05303EAD202026104489A
:1023C000006800F00700086070470000083802400D
:1023D000003C02400448054900680968044AC1F30A
:1023E0008221515CC8407047380000200838024004
:1023F000F88300080448054900680968044AC1F3E5
:102400004231515CC8407047380000200838024013
:10241000F8830008154810B5006810F00C02144845
:1024200013D01449042A0FD0082A0ED10F4C241FB0
:102430002268236802F03F025B0207D52068C0F3E0
:102440008810A0FB010106E0084610BD2168C1F319
:102450008811A1FB00010023FDF71AFF2168C1F3D9
:102460000141491C4900B0FBF1F010BD08380240A1
:102470000024F40040787D012DE9F84F04006ED06F
:102480002078DFF84C93C007A9F104054AD009F180
:1024900004000168C1F38101012908D00068C0F37C
:1024A000810002280AD1D9F80000400206D5286828
:1024B000800337D560680028E1D033E06068B0F56C
:1024C000803F10D0B0F5A02F286810D020F48030C5
:1024D0002860286820F4802028606068A8B1FFF791
:1024E000D3FB06460DE0286840F48030F4E740F462
:1024F00080202860F7E700BFFFF7C6FB801B642839
:1025000073D828688003F7D50CE0FFF7BDFB0646BB
:1025100005E000BFFFF7B8FB801B6428F0D82868EF
:102520008003F7D42078DFF8AC8280074FF0000AF0
:102530003ED5A748001D016811F00C0F08D00068B7
:10254000C0F3810002280BD1D9F80000400207D463
:102550002868800716D5E068012800D112E033E131
:10256000E068B8B10120C8F80000FFF78DFB06460F
:1025700005E000BFFFF788FB801B0228C0D8286851
:102580008007F7D52868216920F0F80040EAC100EB
:1025900028600DE0C8F800A0FFF776FB064604E0CF
:1025A000FFF772FB801B02281FD828688007F7D42A
:1025B0002078000722D5864F87486169703771B14E
:1025C00001210160FFF760FB064604E0FFF75CFBBA
:1025D000801B022809D838688007F7D50EE0C0F8BC
:1025E00000A0FFF751FB064605E082E0FFF74CFB39
:1025F000801B02287DD838688007F7D420784007F0
:1026000068D5DFF8CCB100270BF13C0BDBF80000FC
:10261000C0000BD4DBF8001041F08051CBF8001063
:10262000DBF80000012700F0805000906B4E30680E
:10263000C00510D4306840F480703060FFF724FB90
:10264000009005E0FFF720FB0099401A022850D8BF
:102650003068C005F6D55E4EA0686C3601280FD0F4
:102660000528306810D020F001003060306820F07C
:1026700004003060A068B8B1FFF706FB00900FE0DF
:10268000306840F00100F4E740F004003060F7E704
:10269000FFF7FAFA0099411A41F28830814266D870
:1026A00030688007F4D50EE0FFF7EEFA009007E0FF
:1026B000FFF7EAFA0099411A41F28830814256D870
:1026C00030688007F4D42FB1DBF8001021F080517E
:1026D000CBF80010A069C8B33D49091D0968C1F3D2
:1026E000810102294AD00228504607D0C8F860006C
:1026F00000E03CE0FFF7C8FA04463BE04746C8F874
:102700006000FFF7C1FA064605E000BFFFF7BCFA1C
:10271000801B02282BD828688001F7D4D4E9070150
:102720000843A16A2E4A490802EB0141626A41EA64
:102730008211084394F82C1040EA0161C9F8001096
:1027400001203866FFF7A0FA044606E03EE000BF2D
:10275000FFF79AFA001B022809D828688001F7D5EC
:1027600034E000BFFFF790FA001B022802D90320D3
:10277000BDE8F88F28688001F4D427E00128F7D05D
:10278000D9F80000E26900F4800191421CD1226A6C
:1027900000F03F01914217D147F6C071626A0140D3
:1027A000B1EB821F10D1A26A4FF0FF3300F4403129
:1027B00003EB5202B1EB024F06D194F82C1000F05B
:1027C0007060B0EB016F01D00120D1E70020CFE7AE
:1027D0000438024000004742800E4742007000402B
:1027E0000000FFFF7047704770B590F83C20012A49
:1027F0002CD0012480F83C40022280F83D20036860
:102800005A689D6822F070060A6832435A60104B7D
:1028100002689A420ED0B2F1804F0BD00D4B9A4213
:1028200008D00D4B9A4205D00C4B9A4202D00C4B6B
:102830009A4204D1496825F080031943916080F8D9
:102840003D40002180F83C10084670BD022070BD5C
:10285000000001400004004000080040000C00405F
:102860000040014010B5040003D094F83D0010B1C1
:1028700007E0012010BD002084F83C00204600F055
:102880001FF8022084F83D00211D206801F02CFE75
:10289000012084F8460084F83E0084F83F0084F864
:1028A000400084F8410084F8420084F8430084F832
:1028B000440084F8450084F83D00002010BD00006D
:1028C00008B5114A01681148914208D1016841F0E8
:1028D00002010160006800F00200009008BD0C4A8F
:1028E0009142FBD1016841F00401016000680022BF
:1028F00000F00400009006211E20FFF76DFCBDE8EB
:1029000008401E20FFF75ABC000400404038024037
:102910000008004090F83D10012901D001207047C7
:10292000022180F83D100168CA6842F00102CA60C5
:1029300000680E4988420ED0B0F1804F0BD00C4990
:10294000884208D00B49884205D00B49884202D002
:102950000A49884204D1816801F00701062903D0A1
:10296000016841F001010160002070470000014052
:102970000004004000080040000C004000400140FE
:1029800070B5044690F83C000025012817D00126B8
:1029900084F83C60022084F83D002068826822F0C0
:1029A000770222F47F4282600868502838D00DDC1C
:1029B00020284FD005DC90B3102811D14AE0022026
:1029C00070BD302846D040280AD13BE060282FD087
:1029D00070280DD0B0F5805F03D0B0F5005F12D045
:1029E000012584F83D60002084F83C00284670BD35
:1029F000CB68D1E90121206801F0D5FD206881680C
:102A000041F0770109E0CB68D1E90121206801F0AC
:102A1000CAFD2068816841F480418160E1E719E0E6
:102A2000CA684968206801F073FE5021206806E0FA
:102A3000CA684968206801F07CFE6021206801F0C6
:102A4000BCFDCEE7CA684968206801F061FE4021FC
:102A50002068F4E7226801461046F0E770472DE948
:102A6000F04104460068C66805694FF00007A907F1
:102A700013D5B10711D5F91E016101202077206817
:102A800080698007204602D0FFF7E8FF04E000F0ED
:102A9000BBF8204600F04DF92777680716D5700778
:102AA00014D521686FF004000861022020772068A7
:102AB000806910F4407F204602D0FFF7CFFF04E08A
:102AC00000F0A2F8204600F034F92777280715D542
:102AD000300713D521686FF00800086104202077C3
:102AE0002068C0698007204602D0FFF7B7FF04E0E6
:102AF00000F08AF8204600F01CF92777E80616D582
:102B0000F00614D521686FF01000086108202077C6
:102B10002068C06910F4407F204602D0FFF79EFF76
:102B200004E000F071F8204600F003F92777E80789
:102B300008D0F00706D021686FF001000861204638
:102B400000F050F9280608D5300606D521686FF048
:102B5000800008612046FFF745FE680608D570062C
:102B600006D521686FF040000861204600F044F966
:102B7000A8060AD5B00608D521686FF020000861C4
:102B80002046BDE8F041FFF72EBEBDE8F081000011
:102B900030B587B0044614216846FDF7C3FB1649DB
:102BA0002068884226D115480024016841F00101BF
:102BB0000160016801F001010591016841F0020125
:102BC00001600068022500F002000590C02000901E
:102BD000CDE9015469460A48CDE90345FEF75AFF9D
:102BE00003200090CDE9015469460648CDE903452C
:102BF000FEF750FF07B030BD0004004030380240FF
:102C00000000024000040240704770B5044690F88E
:102C10003C0000260D4601280FD0012084F83C001E
:102C20006AB1042A1DD0082A2FD00C2A3FD00126D1
:102C3000002084F83C00304670BD022070BD206842
:102C400001F0C4FC2068816941F0080181612068BD
:102C5000816921F004018161206881692A69114339
:102C600011E0206801F0DAFC2068816941F400611C
:102C700081612068816921F48061816120688169B6
:102C80002A6941EA02218161D2E7206801F0F2FC61
:102C90002068C16941F00801C1612068C16921F063
:102CA0000401C1612068C1692A69114311E02068EB
:102CB00001F00CFD2068C16941F40061C161206828
:102CC000C16921F48061C1612068C1692A6941EA52
:102CD0000221C161ACE710B5040003D094F83D00B7
:102CE00010B107E0012010BD002084F83C00204610
:102CF00000F01EF8022084F83D00211D206801F03C
:102D0000F3FB012084F8460084F83E0084F83F007D
:102D100084F8400084F8410084F8420084F84300BD
:102D200084F8440084F8450084F83D00002010BD7C
:102D30007047704710B50446022249B104290ED0ED
:102D4000082913D094F84100012816D0012010BDA5
:102D500094F83E000128F9D184F83E200FE094F861
:102D60003F000128F2D184F83F2008E094F84000A9
:102D70000128EBD184F8402001E084F841200122B1
:102D8000206801F003FC12492068884203D1426C9C
:102D900042F400424264206888420ED0B0F1804F75
:102DA0000BD00C49884208D00B49884205D00B490A
:102DB000884202D00A49884204D1816801F00701A3
:102DC000062903D0016841F001010160002010BD17
:102DD000000001400004004000080040000C0040DA
:102DE0000040014000680349884201D1FFF762B901
:102DF00070470000000001407047704770470000B6
:102E0000F8B5016804460868CA684B6910F00F0FEE
:102E10004FF0000559D003F0010602F490773743D4
:102E200065D0C10705D0D10503D5616C41F0010122
:102E30006164410705D5D90703D0616C41F00201F7
:102E40006164810705D5D90703D0616C41F00401A5
:102E50006164010707D502F02001314303D0616CA2
:102E600041F008016164616C00293AD0800604D504
:102E7000900602D5204601F09DFC20684069616CF7
:102E8000C0F38010090700D460B3204601F06BFC4A
:102E900020684069400621D52068143050E8001FA2
:102EA00021F0400140E80012002AF5D1E06BA8B102
:102EB0006E490165E06BFEF7DAFD002811D0E06B8A
:102EC000016D01B0BDE8F040084783060FD59306B9
:102ED0000DD52046BDE8F84001F06CBC2046FFF758
:102EE0008DFFF8BD2046FFF789FF6564F8BD266BAE
:102EF0002023012E7DD1C6067BD5D60679D508685C
:102F00004868009048694FF00206400641D5E16BE1
:102F1000086840680004000CE8D0A28D8242E5D920
:102F2000E085C869B0F5807F2DD020680C3050E86E
:102F3000001F21F4807140E80012002AF5D12068BA
:102F4000143050E8001F21F0010140E80012002A6F
:102F5000F5D12068143050E8001F21F0400140E80E
:102F60000012002AF5D184F84230256320680C3025
:102F700050E8001F21F0100140E80012002AF5D1AE
:102F8000E06BFEF72BFD6663A08DE18D401A81B2E8
:102F90002AE0A08DE18D401A81B2E08D0028A5D0F5
:102FA0000029A3D022680C3252E8000F20F4907060
:102FB00042E80007002FF5D12068143050E8002FB8
:102FC00022F0010240E80027002FF5D184F84230BA
:102FD000256320680C3050E8002F22F0100240E8F2
:102FE0000023002BF5D166632046FFF706FFF8BDEE
:102FF000FFE705062BD5150629D594F841002128B1
:10300000F5D1A068B0F5805F01D12069B0B1206A28
:10301000411C2162216800784860E08C401E000459
:10302000000CE084E3D12068C16821F08001C16018
:103030002068C16841F04001C160D8E7206A00887B
:10304000C0F308004860206A801C2062E5E7400663
:10305000CDD55006CBD5CA68204622F04002CA60C2
:1030600084F8413000F0C5F8C1E700005747000878
:1030700070B5040004D094F84100002510B106E0BA
:10308000012070BD84F84050204600F023F8242031
:1030900084F841002068C16821F40051C1602046D5
:1030A00001F0EAFB2068016921F490410161206888
:1030B000416921F02A0141612068C16841F4005151
:1030C000C1606564202084F8410084F84200656393
:1030D000002070BD10B586B0044614216846FDF787
:1030E00021F918492068884229D11748002102682F
:1030F00042F010020260006800F0100005901248D3
:103100001438026842F001020260006800F0010019
:1031100005904FF4C06000900220CDE9010103202A
:1031200003900720049069460848FEF7B3FC00228C
:1031300005212520FFF750F82520FFF73FF806B0BE
:1031400010BD000000100140443802400000024061
:1031500070472DE9F843044690F84100984616461A
:103160000D46202802D00220BDE8F88385B17EB14B
:1031700000206064212084F84100FEF785FDA684CC
:103180008146E684A0682027B0F5805F02D003E086
:103190000120E9E7206910B12E4600250EE0002647
:1031A0000CE08021204601F0EDFBA8B9C6B116F86D
:1031B000010B21684860E08C401EE084E08C4B46A7
:1031C0004FF00002CDF800800028EAD14FF0400116
:1031D000204601F0D7FB40B184F841700320C3E7DB
:1031E00035F8020BC0F30800E3E784F841700020D3
:1031F000BAE77047FEE701684A69D24352050FD427
:103200006FF480624A61002140F8301F202242732F
:103210008173026942F00402026101730120704768
:10322000002070472DE9F84F0446006889460B9D41
:1032300001689846174641F4806101602068016882
:1032400041F48071016000954FF0011B0022594646
:1032500020460A9B00F064F84FF4007A40B12068E1
:103260000068C00501D5C4F840A00320BDE8F88F70
:10327000216809F0FE0008612B46284920460A9A79
:1032800000F096F8F0BB20684169806900902A46FA
:1032900020460A9900F022F940B1206C04283AD166
:1032A0002068016841F40071016034E0FEB2B8F1B9
:1032B000010F09D02168380A08612A4620460A9978
:1032C00000F00CF90028E8D1206806612A46204663
:1032D0000A9900F003F90028DFD12068016841F461
:1032E0008071016000950022594620460A9B00F03B
:1032F00017F80028B3D1216809F0FF0040F0010061
:10330000086100E007E02B46044920460A9A00F0D5
:103310004FF80028AAD00120A8E700000200010011
:103320002DE9F047984617460D460446C1F3074677
:10333000DDF820902AE000BFB8F1FF3F26D0FEF76D
:10334000A3FCA0EB0901414502D8B8F1000F1DD143
:103350002068012E16D0806925EA00000004000CC8
:1033600012D00020B84211D1002044F8300F2021A3
:103370006173A073216941F0200121612073012054
:10338000BDE8F0874069E7E70120EBE72068012E00
:103390000AD0806925EA00000004000C06D0002055
:1033A000B842C9D00020EBE74069F3E70120F7E716
:1033B0002DE9F047984616460D4604464FF00009A1
:1033C0004FF0200AC1F3074723E020684069C0435B
:1033D000400515D42068016841F40071016021683E
:1033E0006FF480604861C4F8309084F83DA084F8A0
:1033F0003E90216C41F00401216484F83C9021E06E
:10340000701C06D0FEF740FCA0EB0800B04203D8C9
:1034100016B1012F1FD021E02068012F15D080693F
:1034200025EA00000004000C18D000BF44F8309FCB
:1034300084F80DA084F80E90216941F020012161EB
:1034400084F80C900120BDE8F087406925EA00006F
:103450000004000CEAD12068406901E0206880691E
:1034600025EA00000004000CAFD1ECE72DE9F041A3
:10347000002590460E460446202728E04069C043B8
:10348000C0060CD454F8301B6FF01000486144F8AB
:1034900010596777A577206A2062257714E0FEF738
:1034A000F3FBA0EB0800B04200D886B92068406961
:1034B000C04340060BD544F8305F6773A57320699D
:1034C00040F02000206125730120BDE8F0812068D4
:1034D0004169C9434906D1D40020F6E770B51646C4
:1034E0000D4604461EE02046FFF785FE08B1012088
:1034F00070BD681C16D0FEF7C7FB801BA84200D821
:1035000085B920684069C04300060BD5002044F807
:10351000300F20216173A073216941F020012161E6
:103520002073E4E720684069C0430006DBD4002034
:1035300070BD00001A4D1B4C6FF004060121284697
:10354000FEF798FB0028F9D10A2004F0DBF80121EE
:103550002846FEF78FFB50B96078012807D001207C
:10356000607020780028E06908D0401EE0610121E9
:103570002846FEF77FFB012802D003E0401CF5E758
:1035800000206070E069052802DB0520E06102E0B0
:10359000B042D3DCE6612078C0432070CEE7000063
:1035A00000000240000000202DE9F04104461D46C5
:1035B00016460F462A2000F093FB204600F086FBBB
:1035C000304600F083FB2B2000F08AFB384600F0E9
:1035D0007DFB284600F07AFBBDE8F0412C2000F08E
:1035E0007FBB2DE9FE4F161ACDE900104FF0000801
:1035F0005D1A47464FF0FF30002E02DD4FF001010B
:1036000002E003D14FF000018B4602E08346C6F191
:103610000006002D02DD4FF0010002E003D14FF063
:103620000000824602E08246C5F10005AE4201DD9F
:10363000344600E02C46601C4FF00009029019E06F
:1036400000980C9A81B2019880B200F018F8B0444A
:103650002F44A04504DD0198A8EB040858440190CC
:10366000A74203DD00983F1B5044009009F1010080
:103670001FFA80F902998945E2DBBDE8FE8F10B59B
:1036800014460B460246FFF78FFF2046BDE8104068
:1036900000F01CBB2DE9F04780461F46581E83B240
:1036A0001646501E82B20C464046DDF82090FFF7C9
:1036B0007BFF0AE0454604E0484600F007FB6D1C2E
:1036C000ADB2B542F8D3641CA4B2BC42F2D3BDE89B
:1036D000F087000038B56C4C002280212046FEF7B0
:1036E000CEFA142004F00EF8012280212046FEF7C5
:1036F000C6FA142004F006F8012220212046FEF725
:10370000BEFA142003F0FEFF112000F0E9FA782041
:1037100003F0F8FF362000F0E3FA002000F0F4FA9E
:103720003A2000F0DDFA052000F0EEFAB22000F0B9
:10373000D7FA0C2000F0E8FA0C2000F0E5FA00209F
:1037400000F0E2FA332000F0DFFA332000F0DCFA78
:10375000B72000F0C5FA352000F0D6FABB2000F003
:10376000BFFA322000F0D0FAC22000F0B9FA0120EE
:1037700000F0CAFAC32000F0B3FA152000F0C4FA32
:10378000C42000F0ADFA202000F0BEFAC62000F000
:10379000A7FA0F2000F0B8FAD02000F0A1FAA42078
:1037A00000F0B2FAA12000F0AFFAE02000F098FAA1
:1037B000D02000F0A9FA082000F0A6FA0E2000F0B0
:1037C000A3FA092000F0A0FA092000F09DFA0520D4
:1037D00000F09AFA312000F097FA332000F094FAC2
:1037E000482000F091FA172000F08EFA142000F023
:1037F0008BFA152000F088FA312000F085FA342089
:1038000000F082FAE12000F06BFAD02000F07CFAA0
:10381000082000F079FA0E2000F076FA092000F076
:1038200073FA092000F070FA152000F06DFA3120CB
:1038300000F06AFA332000F067FA482000F064FADA
:10384000172000F061FA142000F05EFA152000F055
:103850005BFA312000F058FA342000F055FA2120AC
:1038600000F03EFA292000F03BFA4FF6FF70F023FB
:10387000002100901A460846FFF70CFF034901207B
:1038800008700349087038BD00040240B9000020E8
:10389000B80000202DE9FF4F81B00446DDF83C90D0
:1038A00000904FEA59074FF00008780700D0012038
:1038B00000EBD70000FB09FB203AD0B2039002983E
:1038C00002994844401E83B2E019401E82B220464D
:1038D000FFF76AFE002553E0B9F10C0F2AD0B9F1C9
:1038E000100F2ED0B9F1180F2ED0B9F1200F49D1F9
:1038F0002749039801EB8010002610F805A01098C6
:1039000000284FF0010000FA06F000EA0A0022D079
:1039100020B12046049A0299FFF7B1FE641C00987A
:10392000A4B2201AB84225D10298009C401C80B253
:10393000029023E00398174900EB400001EB800060
:10394000DAE71549039803E00398144900EB4000B7
:1039500001EB0010D0E708B1049800E00E9800F0E9
:10396000B5F908F10100C0B2B0FBF7F1804607FBE2
:10397000118050B1761CF6B2082EC0D36D1CADB2CA
:103980005D45A9D305B0BDE8F08F4FF00008F5E71D
:1039900034A000080084000874880008648E0008C1
:1039A0002DE9FF4F15462DED020B04464FF0000A9E
:1039B0002DED028B85B0B0EE408ADDE91686B5EEBE
:1039C000C08A7708F1EE10FA05DB41468DE8420423
:1039D00020220C9B06E041468DE842040C9BB1EE90
:1039E000488A2D2220460A99FFF754FF9FED230AAB
:1039F000E0191FFA80F928EE000A0024BCEEC00A84
:103A000010EE100A80B2039030E0281B401EC1B2B5
:103A10000A2002F05DFD0399B1FBF0F00A21B0FB32
:103A2000F1F201FB120BA81E84420FD1CDE90086F2
:103A300000FB0790CDF808A080B22E220C9B0A99BB
:103A4000FFF728FF641C6D1CE4B2EDB20BF13000EF
:103A5000C2B2CDE9008604FB0790CDF808A080B281
:103A60000C9B0A99FFF716FF641CE4B2AC42CCD35E
:103A700005B0BDEC028B06B0BDE8F08F0000C84277
:103A80002DE9FF4F15462DED020B04464FF0000ABD
:103A90002DED028B85B0B0EE408ADDE91686B5EEDD
:103AA000C08A7708F1EE10FA05DB41468DE8420442
:103AB00020220C9B06E041468DE842040C9BB1EEAF
:103AC000488A2D2220460A99FFF7E4FE9FED230A3B
:103AD000E0191FFA80F928EE000A0024BCEEC00AA3
:103AE00010EE100A80B2039030E0281B401EC1B2D5
:103AF0000A2002F0EDFC0399B1FBF0F00A21B0FBC3
:103B0000F1F201FB120B681F84420FD1CDE9008650
:103B100000FB0790CDF808A080B22E220C9B0A99DA
:103B2000FFF7B8FE641C6D1CE4B2EDB20BF130007F
:103B3000C2B2CDE9008604FB0790CDF808A080B2A0
:103B40000C9B0A99FFF7A6FE641CE4B2AC42CCD3EE
:103B500005B0BDEC028B06B0BDE8F08F0050C34746
:103B60002DE9FF4F85B04FF0000ADDE913851E46B1
:103B7000140083464FEA5507D14605D441468DE8E7
:103B800022022022129B05E041468DE82202544287
:103B9000129B2D2258460699FFF77CFE0BEB07007F
:103BA0001FFA80FBA0B2002403902FE0301B401EC0
:103BB000C1B20A2002F08CFC0399B1FBF0F00A219B
:103BC000B0FBF1F201FB1200BAF1000F05D1711E3A
:103BD0008C4202DA60B14FF0010A3030C2B204FB0D
:103BE00007B0CDE9008580B2CDF80890129B08E0BF
:103BF00004FB07B0CDE90085129B80B2CDF8089098
:103C000020220699FFF746FE641CE4B2B442CDD3ED
:103C100009B0BDE8F08F2DE9FE4F9946DDE90D674B
:103C200014468A460546DDF830800CE0CDF8008069
:103C30004B4651462846CDE90167FFF72BFE05EBC1
:103C4000560085B2641C2278002AEFD1BDE8FE8FB1
:103C5000194FDFF868801A4D1A4E1B4C4FF00009BF
:103C60003878D0B1D8F81C002860306902F086FBA3
:103C700085ED020A134802F011FB85ED040A306954
:103C8000406A68602078A17888420ED0FDF72CFE4B
:103C90002078A07084F8019009E0FFF71BFD182040
:103CA000FDF738FDFDF720FE01E0FDF747FD32206E
:103CB00003F028FDD4E70000B90000200000002038
:103CC000C44A0020484B0020C000002010B5044624
:103CD000000A00F019F8E0B2BDE8104000F014B896
:103CE00070B5084C0546002240212046FDF7C7FF6D
:103CF000284600F009F82046BDE870400122402126
:103D0000FDF7BDBF000402402DE9F041104F05460C
:103D100000244FF480784FF4007600223146384674
:103D2000FDF7ADFF280601D5012200E00022414643
:103D30003846FDF7A4FF012231463846FDF79FFFC4
:103D40006806641C050EE4B2082CE6D3BDE8F081D9
:103D5000000402402DED028B0C4C0D4D9FED0D8AA1
:103D6000206880F40050206095ED070AB8EEC00A84
:103D7000B0EEC00A20EE080ABCEEC00A10EE100A2F
:103D8000C0B2643003F0BEFCEAE700001408024051
:103D9000000000200000C84280ED000A9FED030AE9
:103DA00080ED010A0830FDF7ADBC00000000000006
:103DB00010B504462DED028BB0EE408A0830FDF7B9
:103DC000F9FD00EE100ADFED170A2061B8EE400A97
:103DD00020EE200AB5EEC00AF1EE10FA02D2B0EEE3
:103DE000600A0BE010EE100A0F49884206DD84EDF0
:103DF000018AB0EE480ABDEC028B10BD94ED001AAA
:103E000031EE000AC1EE000A94ED010AB7EE001A85
:103E100020EE200A71EE600A00EE880A84ED010AA5
:103E2000E9E700006F12833A9A99993E2DE9F04133
:103E300086B014216846FCF775FA324800250168FF
:103E400041F004010160016801F00401059101687D
:103E500041F080010160016801F080010591016875
:103E600041F001010160016801F001010591016863
:103E700041F0020101600068234F00F002004FF49E
:103E800000540590002221463846FDF7F8FEDFF881
:103E90007C80002204214046FDF7F1FE4FF4787645
:103EA000012231464046FDF7EAFE00940124CDE9A7
:103EB0000145694638460395FDF7ECFDCDE900451F
:103EC000694613480294FDF7E5FD04208DE83100B2
:103ED000694640460394FDF7DDFD4FF4E040CDE92F
:103EE0000005694602944046FDF7D4FD0220CDE965
:103EF0000250CDE9006469464046FDF7CBFD06B0AF
:103F0000BDE8F08130380240000802400004024061
:103F1000000002400D4810B50B4901600C4941609A
:103F200000214FF480428160C0E903124161816148
:103F3000C1610162FDF7AEFE002803D0BDE810406C
:103F4000FDF766BB10BD0000005C00404409002086
:103F5000A086010010B58EB000240794089409943F
:103F60000A940B941C2168460C94FCF7DBF9334847
:103F7000314901600721C0E901144FF4C871C0E95B
:103F8000031480218161FEF76DFC08B1FDF740FB51
:103F90004FF48050079007A92848FEF7F1FC08B1BC
:103FA000FDF736FB2548FEF796FE08B1FDF730FB1E
:103FB0000B940BA921480C94FEF716FC08B1FDF7F1
:103FC00027FB6020CDE900040294002269461B48CB
:103FD0000494FEF71AFE08B1FDF71AFB04226946A5
:103FE0001648FEF712FE08B1FDF712FB08226946DB
:103FF0001248FEF70AFE08B1FDF70AFB0C226946DB
:104000000E48FEF702FE08B1FDF702FB00210B4847
:10401000FEF790FE04210948FEF78CFE08210748B0
:10402000FEF788FE0C210548FEF784FE0348FEF7E4
:10403000AFFD0EB010BD0000000400409809002044
:1040400030B587B00025214C009501950295039568
:1040500004951D48059520600720C4E9010542F23A
:104060001070C4E903058020A0612046FEF7FAFB2A
:1040700008B1FDF7CDFA4FF480500090694613481F
:10408000FEF77EFC08B1FDF7C3FA049504A90F48BA
:104090000595FEF7A9FB08B1FDF7BAFA2068C06ADA
:1040A000401CFCF7D9FA9FED0A1B53EC112BFCF7CF
:1040B00064FAFCF7DEFA0123069006AA19460620E8
:1040C00003F05EF907B030BD00080040E0090020B1
:1040D000000000000088C3400C4810B50A49016088
:1040E0004FF4E1314160002181600C22C160C0E9E0
:1040F00004128161C161FEF7BBFF002803D0BDE857
:104100001040FDF785BA10BD00100140280A0020BC
:10411000FEE7FEE780EC050A00219FED060A80ED30
:10412000050A80ED060A80ED070A81622030FDF75E
:10413000E9BA00000000000010B504462DED028B26
:10414000B0EE408A2030FDF735FC00EE100AA06288
:10415000F8EE400A9FED3F0A20EE801AB5EEC01A35
:10416000F1EE10FA04D911EE100AB0F17C5F01DD16
:10417000B0EE401AD4ED010A94ED000AF6EE001AF2
:1041800060EE810A94ED053A60EE082A94ED070A84
:1041900060EEA10A73EE081A00EEA10AD4ED040A3B
:1041A000F1EE601AF4EEC01AF1EE10FA02DDB0EE94
:1041B000610A06E0F4EEC00AF1EE10FA01D2B0EEA8
:1041C000600A38EE433AB0EE402A94ED020A72EEED
:1041D000822A20EE033A83EE010A32EE800AF4EEE0
:1041E000C01AF1EE10FA02DDB0EE610A06E0F4EE5C
:1041F000C00AF1EE10FA01D2B0EE600AD4ED031A53
:10420000F5EEC01AF1EE10FA1ADDD4ED060A30EE22
:10421000603AC3EE012AF4EEE21AF1EE10FA04D28B
:10422000B0EE600A01EE810A0AE0B1EE613AB4EE46
:10423000E23AF1EE10FA03DDB0EE600A01EEC10AD7
:1042400084ED072A84ED060A84ED058ABDEC028B15
:1042500010BD00006F12833A1CB502F057FA02201D
:10426000012300906A461946184603F089F816485B
:104270000068C06A401CFCF7EFF99FED141B53EC7B
:10428000112BFCF77AF9FCF7F4F90123019001AA4C
:104290001946062003F074F80E4C00BF02F082FEAF
:1042A00094ED080A01236A46B1EE400A1946BDEEB4
:1042B000C00A18468DED000A03F062F803F0DCF83E
:1042C0000A2003F01FFAE9E7E009002000000000DF
:1042D0000088C3400000002010B50446C4E9001265
:1042E00002F05EF8012003F00DFA204602F058F8C3
:1042F00051EC100BFCF7E9F9A06104F11C00FDF78B
:1043000001FA012003F0FEF9204602F049F80120ED
:1043100003F0F8F9204602F043F851EC100BFCF7DB
:10432000D4F9A06004F10C00BDE81040FDF7EAB933
:1043300010B504462DED028B02F032F851EC100B53
:10434000FCF7C3F908EE100A04F10C00FDF732FB8C
:10435000606194ED020A0D4938EE400AF0EEC00AA1
:1043600010EE900A88420BDDB5EEC00AA16AF1EEAC
:1043700010FA02DD4FF0FF3000E001200844A06297
:1043800084ED028ABDEC028B10BD00007CD9A040F8
:10439000B5EEC00AF1EE10FA02D89FED160A06E05B
:1043A00010EE101AB1F17E5F01DBB7EE000A13497F
:1043B000DFED110A096858B1042811D020EE200A57
:1043C0000828BCEEC00A10EE100A11D0086470472D
:1043D00020EE200ABCEEC00A10EE100A48637047B7
:1043E00020EE200ABCEEC00A10EE100A8863704767
:1043F000C8637047000000000000C843980900200F
:1044000010B5502080F31188BFF34F8FBFF36F8F2B
:1044100003F03AFE18B104494FF0805008600020C4
:1044200080F3118810BD000004ED00E030B593B0BA
:1044300030216846FBF776FF14210CA8FBF772FFCA
:104440001D480025016841F080510160006800F0BE
:10445000805011901948016821F4404141F4004115
:1044600001600068022400F4404011900120009097
:10447000000401908001CDE9064019200890A02099
:10448000CDE9090404200B906846FDF7F5FF08B15B
:1044900072B6FEE70CA90F2081E831004FF480507E
:1044A000CDE90F0502210CA8FDF7DAFE002801D0A6
:1044B00072B6FEE713B030BD4038024000700040D5
:1044C0000248016841F470010160704788ED00E026
:1044D0000148FEF7C4BA0000700A00200148FEF748
:1044E000BEBA0000E0090020F0B50268204B214C64
:1044F0009F03214D214E984207D0B84205D0A042DB
:1045000003D0A84201D0B04204D122F0700C4A6816
:1045100042EA0C02984210D0B8420ED0A0420CD011
:10452000A8420AD0B04208D0154CA04205D0154C84
:10453000A04202D0144CA04203D122F44074CA68B5
:1045400022434C6922F08002224302608A68C262E0
:104550000A688262984201D10969016301214161BF
:104560000169C90703D0016921F001010161F0BDB2
:10457000000001400004004000080040000C004022
:1045800000400140004401400048014010B501F0E6
:104590001F030121046A99408C430462016A9A4016
:1045A0001143016210BD10B5846842EA032224F46D
:1045B0007F440A432243826010BD826822F0700269
:1045C0000A4342F0070181607047000030B5036A7A
:1045D000026A22F0010202624268846924F07305D3
:1045E0000C682C4323F002058B682B430A4DA8422C
:1045F0000BD123F00805CB6822F440722B434D69A0
:1046000023F0040315438A692A43426084614968A0
:104610004163036230BD00000000014030B5026A12
:10462000036A23F010030362436884690D6824F46D
:10463000E64444EA05248D6822F0200242EA05128D
:104640000B4DA8420ED1CD6822F0800242EA05123D
:104650004D6923F4406343EA85038D6922F04002EB
:1046600043EA85034360846149688163026230BD27
:104670000000014030B5036A026A22F480720262CF
:104680004268C46923F4007324F073050C682C435A
:104690008D6843EA05230C4DA8420ED1CD6823F462
:1046A000006343EA05234D6922F4405242EA0512B1
:1046B0008D6923F4806342EA05124260C46149684F
:1046C000C163036230BD00000000014030B5046AE0
:1046D000026A22F4805202624268C3690D6823F4C0
:1046E000E64343EA05238D6824F4005444EA053484
:1046F000064DA84204D14D6922F4804242EA851257
:104700004260C36149680164046230BD0000014039
:1047100010B5036A046A24F001040462846924F079
:10472000F00444EA021423F00A020A43846102629C
:1047300010BD10B5036A046A24F010040462846991
:1047400023F0A00324F4704444EA023243EA011146
:104750008261016210BD10B5806B0021C185C184EA
:10476000FEF74CFB10BD01680C3151E8002F22F41C
:10477000907241E80023002BF5D10168143151E813
:10478000002F22F0010241E80023002BF5D1016B3C
:10479000012909D101680C3151E8002F22F01002E3
:1047A00041E80023002BF5D1202180F842100021A0
:1047B0000163704708B590F84210222901D0022009
:1047C00008BD82684FF480539A4201D1016921B13A
:1047D000816A9A421BD04AB10AE00268816A526833
:1047E000C2F308020A80816A891C08E0026972B17A
:1047F0000268526802F07F020A70816A491C816275
:10480000C18D491E0904090CC18503D01BE0026853
:104810005268F1E70168CA6822F02002CA600168A4
:10482000CA6822F48072CA6001684A6922F00102F3
:104830004A61202180F8421000214163026B012A65
:1048400003D0FEF785FC002008BD016301680C3130
:1048500051E8002F22F0100241E80023002BF5D18F
:1048600001680A68D20602D50A6849680091818DFC
:10487000FEF7C3FAE7E7000070B504460068016977
:10488000E26821F44051114301612169A068E269A5
:1048900008436169114308432168CA6849F20C63FF
:1048A0009A430243CA6020684169A26921F44071B9
:1048B0001143416131492068884202D03049884221
:1048C00002D1FDF797FD01E0FDF784FDE2690023C9
:1048D000192164253226B2F5004F626828D0A0FB6A
:1048E0000101930F9200FBF7D3FC0146B0FBF5F0FA
:1048F0006FF01802504301EB800006EB0010B0FB94
:10490000F5F000F0F002B1FBF5F002EB0012B1FBA4
:10491000F5F06FF01803584301EB800006EB001030
:10492000B0FBF5F000F00F0021681044886070BD06
:10493000A0FB010192185B41FBF7AAFC0146B0FB0A
:10494000F5F00201B1FBF5F06FF01803584301EBED
:10495000800006EBC000B0FBF5F000F0F80002EBC1
:104960004002B1FBF5F0584301EB800006EBC000BC
:10497000B0FBF5F000F00700D6E7000000100140A2
:10498000001401402DE9F843984617460D460446A9
:10499000089E24E0701C22D0FDF776F9A0EB0800F9
:1049A000B0421AD8CEB12068C168490717D5802D0A
:1049B00015D0402D13D00168C94309070FD40168F1
:1049C0000025406800902046FFF7CDFE0820606477
:1049D00084F840500120BDE8F8830320FBE72068FD
:1049E000006835EA000004D00020B842D2D0002090
:1049F000F1E70120F9E70000064808B500684068C3
:104A00008DF800000121684601F078FD0148FEF7AD
:104A1000F7F908BD280A0020FEE70000014A024914
:104A200001F078BC656300089402002003B401988B
:104A30004100009850EAC12018BF04204A0D18BF59
:104A400040F0010040F2FF72B2EB515F08BF40F04E
:104A50000200012808BF052002B070470907090EAF
:104A6000002804DB00F1E02080F80014704700F01B
:104A70000F0000F1E02080F8141D704700000000D6
:104A800010B52F499FED2C1B2DED020B84B005981E
:104A900020F000408842D8BF9DED040B2DDD294950
:104AA000884209D1049840B94FF0010001F0F0FBB1
:104AB00001F0AEFB06B010BD05DB9DED040B01F06F
:104AC00093FB06B010BD68469DED040B00F08CFF13
:104AD00010F0030004BF9DED021B9DED000B0CD0F8
:104AE00001280ED09DED021B9DED000B022817D072
:104AF000012001F0C9FA06B010BD01F091F906B02D
:104B000010BD9DED021B9DED000B012001F0BCFAD4
:104B100051EC100B81F0004106B041EC100B10BDC0
:104B200001F07EF951EC100B81F0004106B041EC30
:104B3000100B10BD0000000000000000000000008D
:104B4000FB21E93F0000F07F10B52DED040B86B08E
:104B50009DED060B10EE100A10EE901A8DED000B75
:104B6000002818BF0120084320F00040C0F17F60FA
:104B700000F1E040C00F21D19DED080B10EE101A9E
:104B800010EE900A8DED000B002918BF012108439B
:104B900020F00040C0F17F6000F1E040C00F0DD177
:104BA00029490798B1EB400F04BF0698002842D06E
:104BB0000998400004BF089800283CD09DED080BE0
:104BC00053EC102B9DED060B51EC100BFBF7C6FEC2
:104BD000CDE902019DED020B40F2FF7110EE900A4B
:104BE0008DED000B31EA105021D00798039900F0A9
:104BF000004001F00041884219D09DED080B8DED79
:104C0000040B9DED020B8DED000B10EE900A059943
:104C100061F31E0005909DED041B9DED020B51EC10
:104C2000110B53EC102BFBF733FCCDE902019DED8A
:104C3000020B0AB010BD012001F02AFB0AB0BDE84A
:104C4000104001F0E5BA00000000E0FF00000000A5
:104C50002DE9F04D2DED040B2DED0E8B96B0DDE919
:104C60002550279CDDF890A025F0004624F0004850
:104C7000BAF1000F14BF0121002101EB4502FC49EC
:104C800053184A1093422AD3002814BF012300234B
:104C900003EB44030B44F7498B4220D358EA00014D
:104CA0009FEDF59B76D0DFF8D8B35D4503D1BAF11F
:104CB000000F05D188E0BAF1000F08BF002100D035
:104CC000012101EB450111F5001F08D8002814BF90
:104CD0000121002101EB440111F5001F0BD99DEDCD
:104CE000261B9DED240B16B0BDEC0E8B04B0BDE869
:104CF000F04D01F083BA0027002DBCBFE149884583
:104D000021DAE1498845A8BF02271CDAC3451ADC2D
:104D1000DE4901EB2851142908DDC1F1340220FAE3
:104D200002F101FA02F282420DD108E058B9C1F154
:104D3000140228FA02F101FA02F2424503D101F00D
:104D40000101C1F1020756EA0A0124D1002C22DA3E
:104D5000002D18BF022F01D0012F0AD0022001F030
:104D600097FA16B0BDEC0E8B04B0BDE8F04D01F023
:104D700023BA022001F08CFA01F01EFA51EC100B5C
:104D800081F0004141EC100B16B0BDEC0E8B04B06D
:104D9000BDE8F08D18E09FEDBEAB9FEDBF8B002806
:104DA00071D1B848804522D105F1804010F58010BE
:104DB00008BFBAF1000F07D0B3450ADC002CA8BF2A
:104DC0009DED260BE0DA0DE0B0EE490AF0EE690A3F
:104DD000DAE7002C06DA9DED260B51EC100B81F082
:104DE00000416FE0AE48784490ED000BCCE7D84529
:104DF0004DD1002C48DA2EB186423AD1BAF1000FDB
:104E000042D126E0BAF1000F13D0022001F040FA9F
:104E100001F00EFA8DED020B9DED240B8DED000BD4
:104E200010EE900A039961F31E0003909DED020BB2
:104E3000AAE78DED02AB9DED240B1AEE901A10EE51
:104E4000900A8DED000B61F31E0003909DED020BA7
:104E50009AE78DED028B9DED240B18EE901A10EE63
:104E6000900A8DED000B61F31E0003909DED020B87
:104E70008AE709DA9DED240B51EC190B53EC102B4A
:104E8000FBF77BFB1EE020E09DED240B7CE78642D8
:104E90001BDAB4F1804F0DD0A4F10050B0F1FF50F7
:104EA00013D1002D11DB9DED240B51EC100B02F002
:104EB000ABFA07E09DED240B53EC102B51EC100BDB
:104EC00000F0C2BC41EC100B5EE79DED240B51ECF1
:104ED000100B01F03BFABAF1000FCDE90E0142D1FF
:104EE0009FED710B46B3A6F1E040B0F17F600CD0AE
:104EF0005E4538D1002D00DAA7B3022F0CBF012088
:104F00004FF0FF30FBF76DFDDCE7002D01DD002CDD
:104F10000DDA002D01DD002C1FDB002D16DA002C30
:104F200014DB012F08BF9FED620B3FF42DAFB0EEF5
:104F30004A0AF0EE6A0A27E7022F18BF002D0CD0AC
:104F4000012F0AD1002DFFF61FAF06E0002DB8BFDC
:104F5000002C08DA012F3FF417AFB0EE480AF0EE4C
:104F6000680A11E71BE0012000EBE57050EA070139
:104F700015D0791EB0EE498AF0EE698A084308BF61
:104F80009FED4D8B4E480025804570DD4D494E48C4
:104F9000884514DDB0420DDB002C19DB2FE0012029
:104FA00001F076F916B0BDEC0E8B04B0BDE8F04D03
:104FB00001F02EB9B34502DC002C09DC1FE086426B
:104FC00002DA002C1BDA03E05E452BDD002C16DD37
:104FD000022001F05DF901F02BF98DED020B53EC8D
:104FE0001A2B51EC180BFBF756FACDE90001039987
:104FF000019861F31E0003909DED020BC4E60220B0
:1050000001F046F901F024F910EE901A18EE900A1A
:105010008DED020B8DED008B61F31E0003909DED75
:10502000020BB1E69DED0E0B53EC192B51EC100B5E
:10503000FBF72BFA9FED260BCDE9080153EC102B63
:105040009DED080B51EC100BFBF725FA9FED221B91
:1050500053EC112BFBF71CFA9DED081B53EC112BA5
:10506000FBF719FA9FED1E1B53EC112B3CE08CE073
:10507000FFFF1F00FFFF0F00000000000000F03FD7
:105080000000F03F0000F07F0000404301FCFFFF04
:10509000000000000000F07F0000000000000000A1
:1050A000C66A000000000000000000000000008050
:1050B000000000000000F0FF000000000000F0BF52
:1050C0000000E0410000F043FFFFEF3F0000000060
:1050D000000000000000D03F555555555555D53FAF
:1050E000000000000000E03FFBF7D2F99DED080B47
:1050F00041EC1A0B53EC102B51EC100BFBF7CBF9D6
:1051000053EC1A2BFBF7C7F941EC1A0B9FEDFE0B82
:1051100053EC102B9DED080B51EC100BFBF7BBF97A
:1051200041EC1B0B9FEDFA0B51EC1A0B53EC102BBF
:10513000FBF7B1F941EC1A0B9FEDF70B53EC102B79
:105140009DED080B51EC100BFBF7A5F953EC1A2B56
:10515000FBF79BF941EC1A0B51EC1B0B53EC1A2B90
:10516000FBF7F2F80690CDE906519DED060B53ECE6
:105170001B2B51EC100BFBF788F953EC1A2BFBF7A8
:1051800087F941EC100B00F0A1B90020B6F5801FA3
:105190000EDA9FEDE30B53EC102B9DED0E0B51EC53
:1051A000100BFBF778F9CDE90E016FF034000E46D5
:1051B00000EB2650A0F2FF37C6F31300DA4940F0A7
:1051C0007F6646F040568842D8BF002408DDD749A4
:1051D0008142C8BF012403DC0024A6F580167F1C91
:1051E000D348784400EBC4000F9690ED00CB9DEDC2
:1051F0000E0B53EC1C2B51EC100BFBF746F99DEDFD
:105200000E0B41EC1B0B53EC1C2B51EC100BFBF762
:105210009BF841EC100B51EC190B53EC102BFBF7E6
:10522000ACF941EC1D0B51EC1B0B53EC1D2BFBF7A8
:1052300032F941EC1A0BBF488DED10AB7844109554
:1052400090ED000B4FF0005040EA660000EB844008
:105250008DED080B00F5002009909DED080B53EC37
:105260001C2B51EC100BFBF710F99DED0E1B53ECB2
:10527000112BFBF70DF941EC100B53EC102B9DEDAE
:10528000100B51EC100BFBF706F99DED080B41ECF0
:105290001C0B53EC102B9DED100B51EC100BFBF77E
:1052A000FAF853EC1B2BFBF7F3F853EC1C2BFBF732
:1052B000ECF853EC1D2BFBF7EEF841EC1C0B53EC18
:1052C0001A2B51EC1A0BFBF7E6F841EC1B0B9A4832
:1052D0000621B0EE4B0AF0EE6B0A784400F058FE5F
:1052E000B0EE401AF0EE601AB0EE41DAF0EE61DA9C
:1052F00053EC1B2B51EC1B0BFBF7CDF853EC1D2B88
:10530000FBF7C9F89DED100B41EC1B0B53EC1A2B6E
:1053100051EC100BFBF718F853EC1C2BFBF7BBF808
:1053200053EC1B2BFBF710F89DED100B41EC1B0B06
:1053300053EC102B51EC100BFBF7ADF841EC1D0BAF
:105340009FED7FEB53EC1E2BFAF7FEFF53EC1B2B6C
:10535000FAF7FAFF0890CDE908519DED080B53ECE0
:105360001E2B51EC100BFBF790F853EC1D2BFBF7A9
:105370008CF853EC1B2BFBF78BF89DED080B41ECE5
:105380001D0B53EC102B9DED100B51EC100BFBF78C
:1053900082F841EC1B0B53EC1A2B51EC1D0BFBF765
:1053A0007AF89DED080B41EC1A0B53EC102B51ECE5
:1053B0001C0BFBF770F853EC1A2BFAF7C5FF41EC06
:1053C0001A0B51EC1B0B53EC1A2BFAF7BDFF0C9088
:1053D000CDE90C519DED0C0B53EC1B2B51EC100B3C
:1053E000FBF753F853EC1A2BFBF752F841EC1B0B6D
:1053F0009FED550B53EC102B9DED0C0B51EC100B4E
:10540000FBF749F841EC1A0B9FED510B51EC1B0BCC
:1054100053EC102BFBF73FF841EC1B0B9FED4E0BB1
:1054200053EC102B9DED0C0B51EC100BFBF733F8EC
:1054300053EC1B2BFAF788FF41EC100B48487844DB
:1054400000EBC40090ED001B51EC100B53EC112B42
:10545000FAF77AFF41EC1B0B3846FBF7C2FACDE9AD
:10546000080153EC1B2B51EC1A0BFAF76DFF41ECC2
:10547000100B3C48784400EBC40090ED00CB51EC9D
:10548000100B53EC1C2BFAF75FFF9DED081B53EC40
:10549000112BFAF759FF0690CDE906519DED080B47
:1054A00053EC102B9DED060B51EC100BFAF7EDFFB2
:1054B00053EC1C2BFAF7E9FF53EC1A2BFAF7E5FF34
:1054C00053EC1B2BFAF7E4FF41EC100B9DED261B70
:1054D00053EC102B8DED001B00959DED260B51EC30
:1054E000100BFAF7D8FF9DED000B41EC1A0B53ECB3
:1054F000102B9DED260B51EC100BFAF7C6FF9DED1E
:10550000061B53EC112B2FE0000000604715F73FFE
:10551000FE822B654715F73F44DF5DF80BAE543E26
:1055200000000000000040438E9803007AB60B0094
:1055300012660000706600004A650000000000006E
:105540000000000000000840000000E009C7EE3F36
:10555000FD033ADC09C7EE3FF5015B14E02F3EBEC8
:10556000D663000090630000FAF795FF53EC1A2B06
:10557000FAF7EAFE9DED060B41EC1A0B53EC102BEB
:105580009DED000B51EC100BFAF785FFCDE90C01F6
:105590009DED0C0B51EC1A0B53EC102BFAF7D4FECB
:1055A000CDE902010C46AA498C422FDB611A08435F
:1055B00018D19DED0C0B53EC102B9DED020B51EC13
:1055C000100BFAF762FF41EC1B0B9FEDA30B51ECA4
:1055D0001A0B53EC102BFAF7B7FE53EC1B2BFBF70F
:1055E00011FA2DD2022000F053FE00F021FE10EE41
:1055F000901A18EE900A8DED020B8DED008B61F381
:105600001E0003909DED020BFFF7BEBB944A24F0F1
:105610000041914214D39349214408437FF4EFACF5
:105620009DED0C0B53EC102B9DED020B51EC100B70
:10563000FAF72BFF53EC1A2BFBF7E4F97FF6DFACFC
:1056400024F000408849894A002601EB205182421B
:105650002BDA481C4FF4801121FA00F02044844AD0
:10566000C0F30A517A44A1F2FF3192ED000B814A56
:105670008DED080BCA4020EA0202C0F3130040F48B
:105680008010C1F1140120FA01F60992002CB8BF74
:1056900076429DED080B53EC102B9DED0C0B51EC5D
:1056A000100BFAF7F2FECDE90C019DED0C0B51EC5D
:1056B0001A0B53EC102BFAF747FE9FED6F0B089077
:1056C000CDE9085153EC102B9DED080B51EC100B5C
:1056D000FAF7E1FE41EC1B0B9FED690B53EC102B2D
:1056E0009DED080B51EC100BFAF7D5FE9DED0C0B60
:1056F00041EC1C0B53EC102B9DED080B51EC100BE7
:10570000FAF7C3FE53EC1A2BFAF7C2FE9FED5E1BAD
:1057100053EC112BFAF7BFFE53EC1C2BFAF714FED7
:1057200041EC1A0B51EC1B0B53EC1A2BFAF70CFE45
:10573000CDE902019DED020B53EC1B2B51EC100B3C
:10574000FAF7A3FE53EC1A2BFAF7A2FE9DED020B1B
:1057500041EC1A0B53EC102B51EC100BFAF79BFE9B
:10576000CDE908014A489DED080B0521784400F079
:105770000FFC9DED081B51EC100B53EC112BFAF7AD
:105780008AFE9DED021B53EC112BFAF781FECDE949
:1057900006019DED020B53EC1A2B51EC100BFAF79E
:1057A0007AFE53EC1A2BFAF7CFFD9FED3B0B41EC41
:1057B0001A0B53EC102B9DED060B51EC100BFAF766
:1057C00064FE9DED060B41EC1B0B53EC102B9DED85
:1057D000020B51EC100BFAF75EFE53EC1B2BFAF7A1
:1057E000CCFE53EC1A2BFAF750FE9DED021B53EC46
:1057F000112BFAF74AFE53EC192BFAF749FECDE9C3
:10580000020101EB065001150029C8BF039015DC09
:105810009DED020B324651EC100BFBF737F8FFF70A
:1058200005F9042808BF00F013FD32469DED020B78
:1058300051EC100BFBF72AF8CDE902019DED020BAC
:1058400051EC180B53EC102BFAF725FEFFF73ABB7F
:105850000000904000000000FE822B654715973C39
:1058600000CC904000346F3F01FCFFFF0000E03FA0
:1058700048620000FFFF0F0000000000432EE63FDB
:10588000396CA80C615C20BEEF39FAFE422EE63F6F
:10589000E860000000000000000000000000004080
:1058A00010B52F499FED2C1B2DED020B84B00598F0
:1058B00020F000408842DCBF00209DED040B32DD6B
:1058C0002849884209D1049840B94FF0010000F0FE
:1058D000DFFC00F09DFC06B010BD05DB9DED040B68
:1058E00000F082FC06B010BD68469DED040B00F090
:1058F0007BF810F0030011D0012818D09DED021B99
:105900009DED000B02281AD000F08AFA51EC100B22
:1059100081F0004106B041EC100B10BD9DED021B63
:105920009DED000B012000F0AFFB06B010BD9DED1A
:10593000021B9DED000B00F073FA06B010BD0120B4
:1059400000F0A2FB51EC100B81F0004106B041ECDD
:10595000100B10BD0000000000000000000000005F
:10596000FB21E93F0000F07F00B52DED048BB0EE88
:10597000409AF0EE609A83B051EC190BFAF79DFF54
:1059800041EC180B18EE100A18EE901A8DED008BF2
:10599000002818BF0120084320F00040C0F17F60BC
:1059A00000F1E040C00F14D019EE101A19EE900A61
:1059B0008DED009B002918BF0121084320F0004015
:1059C000C0F17F6000F1E040C00F04BF012000F093
:1059D0005FFCB0EE480A03B0F0EE680ABDEC048B41
:1059E00000BD0000000000002DE9F14F04462DED40
:1059F000020B2DED088B8AB09FEDE70B80ED020BBB
:105A0000139EE74826F0004585420ADC9DED120B07
:105A1000002084ED000B0AB0BDEC088B03B0BDE89C
:105A2000F08FE0489FEDE0AB9FEDE1BBA84247DD82
:105A3000E14F9FEDE39B9FEDE48B9DED120B53EC4B
:105A40001A2B51EC100B002E1CDDFAF71EFD41EC59
:105A5000100BBD4208D053EC1B2B51EC100BFAF786
:105A600014FDC4E900010BE053EC192B51EC100BB1
:105A7000FAF70BFD53EC182BFAF707FDC4E9000108
:105A80000120C8E7FAF760FC41EC100BBD4208D0DA
:105A900053EC1B2B51EC100BFAF756FCC4E9000138
:105AA0000BE053EC192B51EC100BFAF74DFC53ECB7
:105AB000182BFAF749FCC4E900014FF0FF30AAE7C0
:105AC000C348A84279DB9DED120B51EC100B00F09E
:105AD0003DFC41EC180B9FEDC00B53EC102BFAF77B
