:020000040800F2
:10000000B04C00206D0200083B2C0008EB1E0008DD
:10001000392C0008290B00080F31000800000000EF
:10002000000000000000000000000000AD0100081A
:10003000910B00080000000009020008C52D00080F
:10004000870200088702000887020008870200086C
:10005000870200088702000887020008870200085C
:10006000870200088702000887020008870200084C
:10007000870200088702000887020008870200083C
:1000800087020008870200088702000800000000BD
:1000900000000000000000000000000087020008CF
:1000A00087020008952E00088702000887020008D2
:1000B00087020008870200088702000887020008FC
:1000C00087020008870200088702000887020008EC
:1000D000870200088702000887020008000000006D
:1000E000870200088702000887020008000000005D
:1000F000000000000000000000000000870200086F
:10010000000000008702000887020008870200083C
:1001100000000000000000000000000000000000DF
:10012000870200088702000887020008870200088B
:10013000870200080000000000000000000000002E
:10014000000000000000000000000000870200081E
:10015000870200088702000887020008870200085B
:10016000870200088702000800000000000000006D
:10017000000000000000000000000000000000007F
:1001800000000000870200080000000000000000DE
:1001900087020008DFF810D000F0FEFB004800479F
:1001A0008D3E0008AFF30080B04C00202C4B196846
:1001B0000868B0E8F04F80F30988BFF36F8F4FF005
:1001C000000080F3118870470000000008480068B4
:1001D000006880F308884FF0000080F3148862B64E
:1001E00061B6BFF34F8FBFF36F8F00DF00BF00BF5B
:1001F00008ED00E0DFF80C00016841F470010160D7
:10020000704700BF88ED00E0EFF30980BFF36F8F08
:10021000134B1A681EF0100F08BF20ED108A20E95A
:10022000F04F106009B44FF0500080F31188BFF315
:100230004F8FBFF36F8F04F05BFE4FF0000080F331
:10024000118809BC19680868B0E8F04F1EF0100F5B
:1002500008BFB0EC108A80F30988BFF36F8F704736
:1002600034000020EFF30580704700000648804707
:1002700006480047FEE7FEE7FEE7FEE7FEE7FEE78B
:10028000FEE7FEE7FEE7FEE7852E00089501000881
:100290002DE9F05F0546002092469B4688460646BB
:1002A000814640241BE0284641464746224600F04E
:1002B00028FA53465A46C01A914110D3114618469F
:1002C000224600F00FFA2D1A67EB01084F4622462E
:1002D0000120002100F006FA17EB00094E41201E14
:1002E000A4F10104DFDC484631462A464346BDE816
:1002F000F09F40EA01039B0703D009E008C9121FE1
:1003000008C0042AFAD203E011F8013B00F8013BCF
:10031000521EF9D27047D2B201E000F8012B491EFB
:10032000FBD270470022F6E710B513460A46044692
:100330001946FFF7F0FF204610BD2DE9FE4F80461D
:1003400081EA0300C00F0C46009021F0004123F029
:100350000045B8EB0200A94105D24046214690462F
:100360001C460B46024623F00040104347D0270DA1
:10037000C7F30A00C3F30A510290401A01904028C3
:100380006BDAC3F3130040F4801B0098924620B14F
:100390000023D2EB030A63EB0B0B01985946C0F123
:1003A0004002504600F09EF906460D46504659461A
:1003B000019A00F0B6F910EB08006141002487EAC9
:1003C000115284EAE7731A4340D0009A62B3019A4B
:1003D000012A4FEA075215DC001B61EB02014FF0C6
:1003E000004202EA0752CDE90042001C41F58011AB
:1003F00032462B4600F0EDF903B0BDE8F08F4046E1
:100400002146F9E7001B61EB0201001C41F5801356
:1004100000185B412018A2F5001747EB030140EAE2
:10042000D570B6196D4111E06D084FEA360645EA00
:10043000C0754FEA0752001B61EB0201001C41F539
:10044000801149084FEA30000019514132462B46CD
:1004500003B0BDE8F04F00F0ADB9009801224000B4
:100460000023D0EB020263EBE073009821464FEAD1
:10047000E074B8EB000061EB0401E9E783F00043AE
:100480005BE781F0004158E72DE9FE4F81EA030464
:1004900004F0004421F0004100944FF0000B23F0E1
:1004A000004350EA01045ED052EA03045BD0C3F378
:1004B0000A54C1F30A552C44A4F2F3340194A0FB6E
:1004C0000254C1F3130141F48011C3F3130343F445
:1004D000801301FB024400FB034E840A970A44EA9E
:1004E000815447EA8357A4FB076802958D0A05FBF0
:1004F00007854FEA932C04FB0C542705029D4FEA15
:10050000065847EA1637B5EB08056EEB070C870E61
:10051000920E47EA811742EA8312A7FB0201B6EB6B
:100520000B0164EB00042B0D43EA0C335E1844EB23
:100530001C50DA465146E7FB0201C5F313044FEAAB
:100540000B3343EA14534FEA0432019C43EA060397
:10055000A4F10C040294009CCDE900B400F039F938
:1005600003B0BDE8F08F00200146F9E72DE9F04D1A
:1005700081EA030404F0004B21F0004514464FF0DB
:10058000000A23F0004150EA050220D054EA01029B
:100590001DD0C5F30A570246C5F31303C1F3130078
:1005A000C1F30A5640F4801543F48013A7EB060804
:1005B000101BD64608F2FD3873EB050002D308F194
:1005C000010801E092185B41B8F1000F03DA002046
:1005D0000146BDE8F08D00204FF4801106468446A8
:1005E0000EE0171B73EB050705D3121B63EB050326
:1005F00006434CEA010C49084FEA300092185B416F
:1006000050EA0107EDD152EA030012D082EA040059
:1006100083EA0501084305D0101BAB4106D2012235
:10062000002306E000224FF0004302E06FF00102D9
:1006300053101AEB06004CEB085110EB0A0041EB8B
:100640000B01BDE8F04D00F0B5B80EB5C10F80EA62
:10065000E0700844CA07002140F233438DE80E00E1
:100660000A460B4600F0B5F803B000BD0EB540F2E7
:10067000334102910021CDE900110A460B4600F0FA
:10068000A8F803B000BD00F0004230F000400AD0EE
:10069000C10D01F56071C0F3160042EA0151C208B4
:1006A00040071143704700200146704701F00043A6
:1006B00030B421F0004150EA010206D00A0DA2F543
:1006C0006072C1F31301002A02DC30BC00207047C5
:1006D000440F44EAC104C100E01830BC00EBC25032
:1006E00000F031B8202A04DB203A00FA02F10020A1
:1006F00070479140C2F1200320FA03F31943904060
:100700007047202A04DB203A21FA02F000217047CA
:1007100021FA02F3D040C2F1200291400843194669
:100720007047202A06DBCB17203A41FA02F043EA51
:10073000E07306E041FA02F3D040C2F1200291409A
:100740000843194670470029A8BF7047401C49005C
:1007500008BF20F00100704710B4B0FA80FC00FA26
:100760000CF050EA010404BF10BC704749B1CCF151
:10077000200421FA04F411FA0CF118BF01212143DD
:100780000843A3EB0C01CB1D4FEA00614FEA102098
:1007900042BF002010BC704700EBC350104400293A
:1007A000A4BF10BC7047401C490008BF20F00100E6
:1007B00010BC704710B5141E73F1000408DA401C19
:1007C00041F1000192185B411A4301D120F0010070
:1007D00010BD2DE9F04D92469B4611B1B1FA81F260
:1007E00002E0B0FA80F220329046FFF77BFF044629
:1007F0000F4640EA0A0041EA0B0153465A460843B5
:1008000013D0114653EA010019D0C8F140025046F6
:10081000FFF777FF05460E46504659464246FFF71A
:1008200061FF084305D0012004E020463946BDE8B9
:10083000F08D0020054346EAE0762C4337430A98C2
:100840006305E40AA0EB08000022FD0A44EA4754CD
:100850000A3002D500200146E9E701051019694177
:10086000DDE9084500196941BDE8F04DA2E72DE931
:10087000F04D00231A461B1A8A4103DB0020014673
:10088000BDE8F08DC1F30A52C1F3130141F48015A4
:100890004FF0000BD10702D100186D41521E002706
:1008A000044640F2FF11384601EB620A3E4680469C
:1008B000024600204FF48011FFF723FFC219714157
:1008C000BB1846EB0100B4EB030C75EB000C04D332
:1008D000E41A65EB000517460E46241908F10100DD
:1008E0006D4180463428E3DDF91946EB0600091B0B
:1008F000A84103D24FF0FF32134601E00022134615
:100900001BEB070046EB0A51BDE8F04DFFF752BF65
:100910002DE9FE4FC3F30A5701F000450024C1F34F
:100920000A56C3F31303C1F3130143F4801312EB0C
:10093000020AA64641F48011009543EB030CA7F18F
:10094000010B16E0B0EB0A0061EB0C01071E71F120
:10095000000707DA4FF00008D0EB080085F00045EB
:1009600068EB0101171A73EB0107EBD3761E001831
:1009700049415E45F6DA50EA010209D0CDE900E5C9
:10098000002213460296FFF724FF03B0BDE8F08F64
:1009900020460099F9E70000064C074D06E0E068A4
:1009A00040F0010394E8070098471034AC42F6D3B6
:1009B000FFF7F4FB608E0008808E000870B5C1F36D
:1009C0000A5201F000450024C1F3130140F2FF3345
:1009D00041F480119A4201DA002070BD40F23343A5
:1009E0009A42A2F2334203DC5242FFF78AFE00E051
:1009F00090402C43F1D0404270BD08B504F0E4FDB6
:100A000000900221684604F049F9FAE77CB504F049
:100A100047F828480324CDE900404FF4007500232F
:100A20002A4625A1274804F069FD012822D1214842
:100A30000023001DCDE900402A4623A1254804F0EB
:100A40005DFD012816D11B4902200831CDE90001C6
:100A500000232A4620A1244804F050FD012809D192
:100A60001448224B0C30CDE900402A4620A12348EF
:100A700004F044FD0F4905201031CDE900010023A9
:100A80002A461FA1234804F039FD0A4904201431E5
:100A9000CDE9000100232A461FA1224804F02EFDC3
:100AA0000448001F006A04F03FF9BDE87C4004F0F0
:100AB00017B80000040000204C45445F5461736B7C
:100AC00000000000052A00084B45595F5461736B14
:100AD000000000002D22000850574D5F444554454A
:100AE00043545F5461736B00492D00088448002013
:100AF0004C43445F5461736B0000000031290008CF
:100B00004F70656E6C6F6F705F464F435F546173DB
:100B10006B0000003D2C00084153353630305F54E7
:100B200061736B00FB090008FEE70000014880EDDF
:100B3000080A7047BC00002010B5114CB0EE080A3E
:100B40002DED028B9FED0F8AC4E90601F0EE480AF5
:100B500003F072FE40F6B83004F07AF803F0B6F80D
:100B600084ED050AF0EE480A9FED070A03F064FEE3
:100B7000064894ED050A80ED030ABDEC028B10BD1A
:100B8000BC000020E4CB9640000000008448002018
:100B9000704772B6FEE70000064A10B592ED000AF3
:100BA000FFF7C4FFD2E90101FFF7C6FF02490120A8
:100BB000087010BD98480020BC00002001607047FC
:100BC00010B5044604F000FD014620682160081AB3
:100BD00010BD00002DE9F84FDFF8B8A10022012474
:100BE00003254FF00F090AF1040BAAF1040E00BF10
:100BF0000B6804FA02F63340B34273D10F7907F061
:100C00000307012F01D0022F16D187684FEA42084F
:100C100005FA08FC27EA0C07D1F80CC00CFA08FC0E
:100C20004CEA070CC0F808C04768B7430E79C6F312
:100C3000001696403E4346600E79F643B6070DD047
:100C4000C768560005FA06FC27EA0C07D1F808C069
:100C50000CFA06FC4CEA070CC0F80CC00E7906F042
:100C60000306022E10D1D60800EB8608D8F82060C3
:100C700057074FEAD76C09FA0CF7BE430F6907FA1A
:100C80000CF73743C8F8207006684FEA420C05FAA3
:100C90000CF7BE430F7907F0030707FA0CF7374349
:100CA00007604E6816F4403F6DD03B4E376847F4FE
:100CB00080473760366822F0030706F480460096C6
:100CC000364E07EB060CDCF8086897073F0F09FA69
:100CD00007F826EA0806DFF8C880404503D14FF040
:100CE00000081EE04FE0DFF8BC80404502D14FF025
:100CF000010816E0DFF8B080404502D14FF002084D
:100D00000FE0DFF8A880404502D14FF0030808E06B
:100D1000DFF89C80404502D14FF0040801E04FF01D
:100D2000070808FA07F848EA0608CCF80888DAF84D
:100D300000605746D1F804C09E435FEACC2C00D532
:100D40001E433E60DBF800605F46D1F804C09E435E
:100D50005FEA8C2C00D51E433E60DEF800607746CB
:100D6000D1F804C09E435FEA8C3C00D51E433E6030
:100D7000084F083F3E68D1F804C09E435FEACC3C70
:100D800000D51E433E60521C102AFFF431AFBDE86F
:100D9000F88F0000083C0140443802400030014018
:100DA000000002400004024000080240000C024023
:100DB000001002400069084000D0012070470AB1CD
:100DC000816170470904FBE70148806870470000B3
:100DD0002400002070B5040025D094F83D000025C3
:100DE00020B984F83C50204600F0BAF9242084F859
:100DF0003D002068016821F0010101602068016860
:100E000041F4004101602068016821F40041016063
:100E100000F06EFB4D4A6168914201D84C4900E0F8
:100E20004C49884201D2012070BD4B492368B0FB78
:100E3000F1F15E6826F03F060E435E606368934200
:100E400006D94FF4967359434FF47A73B1FBF3F11B
:100E50002368491C1E6A26F03F0631431962616807
:100E6000914210D84900401EB0FBF1F2521CC2F36F
:100E70000B02042A01D2042022E0B0FBF1F0401C56
:100E8000C0F30B001CE0A268F2B301EBC10303EB5B
:100E90000116431EB3FBF6F35B1C43F480431B05B2
:100EA00049D092B301EBC10202EB0111401EB0FB2D
:100EB000F1F0401CC0F30B0040F4804040F40040CF
:100EC0002168CA694CF6FF739A431043C861D4E99C
:100ED000071001432068026822F0C002114301603C
:100EE000D4E9030101432068826848F2FF339A4342
:100EF00011438160D4E9050108432168CA6822F0E2
:100F0000FF021043C86001E00EE016E020680168AF
:100F100041F0010101602564202084F83D00256333
:100F200084F83E50002070BD01EB4106431EB3FB28
:100F3000F6F35B1CB3E70120C2E701EB4101401E61
:100F4000B0FBF1F0401CC0F30B00B7E7A086010036
:100F500080841E0000093D0040420F002DE9FF4F34
:100F600083B09A46DDE9118793460446DDF8409048
:100F7000FFF72AFF054694F83D00202870D1192379
:100F8000012274492046009501F046F80028F5D169
:100F900094F83C00012863D0012084F83C002068CC
:100FA0000168C90703D1016841F0010101602068AF
:100FB000016821F400610160222084F83D00402096
:100FC00084F83E0000262664C4F82490A4F82A8001
:100FD000608D20856048E062CDE9007553465A4631
:100FE0002046049900F09AFF002879D1208DD0B1D5
:100FF000012821D00228206824D04169806900900E
:10100000208D032866D801282BD0544902283B465E
:101010004FF00002009557D08846204600F0FCFFB4
:1010200000285DD13AE0206841698169009101683A
:1010300041F4007101607DE02068016821F4806165
:101040000160F0E7016821F48061016020680168B7
:1010500041F400610160206841698069009069E0A5
:1010600075E02A463946204601F07CF888BB54E0FA
:101070002068016841F40071016020680069616ABC
:101080000870606A401C6062218D491E2185618D57
:10109000491E618521680969017042E02068016884
:1010A00021F48061016020680069616A0870606AEB
:1010B000401C6062208D401E2085608D401E608532
:1010C0003B46002241460095204600F0A5FF00B9AE
:1010D000CEE705E02A463946204601F043F818B12C
:1010E000012007B0BDE8F08F20680069616A0870D0
:1010F000606A401C6062208D401E81B22185608D37
:10110000401E608520684269D243520712D40329E9
:1011100003D1016821F48061016020680069616A7F
:101120000870606A401C6062208D401E2085608DC2
:10113000401E6085208D00287FF462AF202084F857
:101140003D0084F83E6084F83C600020C9E702203E
:10115000C7E70000020010000000FFFF04000100CC
:1011600070B586B0044614216846FFF7DBF81D49C8
:101170002068884234D11C480024016841F00101F4
:101180000160016801F001010591016841F002016F
:1011900001600068122500F0020005904FF4807095
:1011A000CDE90005032602940420CDE903606946D9
:1011B0000E48FFF70FFD1020CDE90005029409202D
:1011C000CDE9036069460A48FFF704FD0648103080
:1011D000016841F400010160006800F4000005901E
:1011E00006B070BD005C0040303802400000024094
:1011F000000402400248816802781144816070470F
:10120000240000200B4810B5016841F40071016012
:10121000016841F480610160016841F480710160FE
:10122000032000F099F80F2000F006F800F04AF8CB
:10123000002010BD003C024030B505461C4887B078
:101240000024016841F001010160006806A900F076
:101250000100009001A800F02BF900F059F91549A0
:10126000154AB0FBF1F11548491E026040F2E73221
:10127000C0E90324C0E90114846100F081FB04008B
:1012800012D10E4800F0BEFB04000DD1192000F071
:1012900035F8102D07D200222946192000F03CF81D
:1012A0000748056000E0012407B0204630BD00007B
:1012B0004438024040420F000000014088010020F5
:1012C000280000200C4882B0016841F48041016090
:1012D000006800F4804000900748001F016841F05A
:1012E000805101600068002200F0805000900F21C2
:1012F000901E02B000F010B844380240002809DB0C
:1013000000F01F02012191404009800000F1E0201F
:10131000C0F8001170470000F0B40E4B1B680C467B
:10132000C3F30223C3F10705042D00D90425191DB9
:10133000072901D2002300E0DB1E012606FA05F191
:10134000491E214099409E40761E16403143F0BC14
:1013500001F0F6BE0CED00E0064900F00702086857
:101360004FF6FF03184040EA0220034A104308608A
:10137000704700000CED00E00000FA052DE9F04791
:101380000E46050065D0DFF81481D8F80000F7B2EA
:1013900000F00700B04207D288F80070D8F80000CB
:1013A00000F00700B04254D128683D4C810712D5A7
:1013B000400703D5206840F4E050206028780007FB
:1013C00003D5206840F4604020602068A96820F0C0
:1013D000F000084320602878C0072DD030496868A5
:1013E0000839012812D0022813D0032811D0096827
:1013F000890700292DDA216821F0030101432160CA
:10140000FFF7E2FC814641F2883A0EE00968890361
:10141000EFE709688901ECE7FFF7D6FCA0EB0901CB
:10142000514502D90320BDE8F0872068696800F0C3
:101430000C00B0EB810FEFD1D8F80010404601F05E
:101440000701B14207D90770006800F00700B042F9
:1014500001D00120E7E72878400705D52068E96832
:1014600020F4E050084320602878000706D5206863
:10147000296920F4604040EAC100206000F058F87B
:101480002168084AC1F30311515CC840064908604D
:1014900006480068FFF7D0FE0020C4E7003C024089
:1014A000083802403459000830000020280000208D
:1014B0000F2202600C4A136803F0030343601368B1
:1014C00003F0F0038360136803F4E053C360126811
:1014D0004FF4E05303EAD20202610448006800F0CE
:1014E000070008607047000008380240003C0240D6
:1014F0000448054900680968044AC1F38221515C27
:10150000C8407047300000200838024044590008A5
:101510000448054900680968044AC1F34231515C36
:10152000C840704730000020083802404459000885
:10153000154810B5006810F00C02144813D0144977
:10154000042A0FD0082A0ED10F4C241F22682368CA
:1015500002F03F025B0207D52068C0F38810A0FBB1
:10156000010106E0084610BD2168C1F38811A1FB06
:1015700000010023FEF78CFE2168C1F30141491CE4
:101580004900B0FBF1F010BD083802400024F4001F
:1015900040787D012DE9F84F04006ED02078DFF807
:1015A0004C93C007A9F104054AD009F10400016871
:1015B000C1F38101012908D00068C0F3810002282D
:1015C0000AD1D9F80000400206D52868800337D533
:1015D00060680028E1D033E06068B0F5803F10D04B
:1015E000B0F5A02F286810D020F48030286028683B
:1015F00020F4802028606068A8B1FFF7E5FB06466C
:101600000DE0286840F48030F4E740F48020286042
:10161000F7E700BFFFF7D8FB801B642873D8286862
:101620008003F7D50CE0FFF7CFFB064605E000BFCF
:10163000FFF7CAFB801B6428F0D828688003F7D422
:101640002078DFF8AC8280074FF0000A3ED5A7482B
:10165000001D016811F00C0F08D00068C0F3810074
:1016600002280BD1D9F80000400207D4286880076F
:1016700016D5E068012800D112E033E1E068B8B186
:101680000120C8F80000FFF79FFB064605E000BFF9
:10169000FFF79AFB801B0228C0D828688007F7D57F
:1016A0002868216920F0F80040EAC10028600DE0B8
:1016B000C8F800A0FFF788FB064604E0FFF784FBAC
:1016C000801B02281FD828688007F7D420780007DD
:1016D00022D5864F87486169703771B10121016059
:1016E000FFF772FB064604E0FFF76EFB801B022843
:1016F00009D838688007F7D50EE0C0F800A0FFF7DA
:1017000063FB064605E082E0FFF75EFB801B0228D4
:101710007DD838688007F7D42078400768D5DFF88F
:10172000CCB100270BF13C0BDBF80000C0000BD460
:10173000DBF8001041F08051CBF80010DBF800001E
:10174000012700F0805000906B4E3068C00510D427
:10175000306840F480703060FFF736FB009005E0A1
:10176000FFF732FB0099401A022850D83068C005B4
:10177000F6D55E4EA0686C3601280FD0052830687B
:1017800010D020F001003060306820F0040030609C
:10179000A068B8B1FFF718FB00900FE0306840F088
:1017A0000100F4E740F004003060F7E7FFF70CFBBE
:1017B0000099411A41F28830814266D8306880072A
:1017C000F4D50EE0FFF700FB009007E0FFF7FCFA0E
:1017D0000099411A41F28830814256D8306880071A
:1017E000F4D42FB1DBF8001021F08051CBF80010B9
:1017F000A069C8B33D49091D0968C1F381010229E7
:101800004AD00228504607D0C8F8600000E03CE00B
:10181000FFF7DAFA04463BE04746C8F86000FFF7F6
:10182000D3FA064605E000BFFFF7CEFA801B022878
:101830002BD828688001F7D4D4E907010843A16AAE
:101840002E4A490802EB0141626A41EA82110843CB
:1018500094F82C1040EA0161C9F8001001203866A4
:10186000FFF7B2FA044606E03EE000BFFFF7ACFA2D
:10187000001B022809D828688001F7D534E000BF92
:10188000FFF7A2FA001B022802D90320BDE8F88F57
:1018900028688001F4D427E00128F7D0D9F80000A7
:1018A000E26900F4800191421CD1226A00F03F01FC
:1018B000914217D147F6C071626A0140B1EB821FB5
:1018C00010D1A26A4FF0FF3300F4403103EB520213
:1018D000B1EB024F06D194F82C1000F07060B0EB21
:1018E000016F01D00120D1E70020CFE7043802408A
:1018F00000004742800E4742007000400000FFFF9A
:101900007047704770B590F83C20012A2CD0012414
:1019100080F83C40022280F83D2003685A689D68A8
:1019200022F070060A6832435A60104B02689A42ED
:101930000ED0B2F1804F0BD00D4B9A4208D00D4B18
:101940009A4205D00C4B9A4202D00C4B9A4204D1D9
:10195000496825F080031943916080F83D400021DB
:1019600080F83C10084670BD022070BD00000140A8
:101970000004004000080040000C0040004001400E
:1019800010B5040003D094F83D0010B107E0012029
:1019900010BD002084F83C00204600F01FF8022013
:1019A00084F83D00211D206801F07AFA012084F8B6
:1019B000460084F83E0084F83F0084F8400084F834
:1019C000410084F8420084F8430084F8440084F81D
:1019D000450084F83D00002010BD000008B50068F7
:1019E0000649884208D10648016841F002010160B9
:1019F000006800F00200009008BD000000040040F4
:101A00004038024090F83D10012901D00120704774
:101A1000022180F83D100168CA6842F00102CA60E4
:101A200000680E4988420ED0B0F1804F0BD00C49AF
:101A3000884208D00B49884205D00B49884202D021
:101A40000A49884204D1816801F00701062903D0C0
:101A5000016841F001010160002070470000014071
:101A60000004004000080040000C0040004001401D
:101A700070B5044690F83C000025012817D00126D7
:101A800084F83C60022084F83D002068826822F0DF
:101A9000770222F47F4282600868502838D00DDC3B
:101AA00020284FD005DC90B3102811D14AE0022045
:101AB00070BD302846D040280AD13BE060282FD0A6
:101AC00070280DD0B0F5805F03D0B0F5005F12D064
:101AD000012584F83D60002084F83C00284670BD54
:101AE000CB68D1E90121206801F039FA20688168CA
:101AF00041F0770109E0CB68D1E90121206801F0CC
:101B00002EFA2068816841F480418160E1E719E0A4
:101B1000CA684968206801F0D7FA5021206806E0B9
:101B2000CA684968206801F0E0FA6021206801F085
:101B300020FACEE7CA684968206801F0C5FA40215A
:101B40002068F4E7226801461046F0E770472DE967
:101B5000F04104460068C66805694FF00007A90710
:101B600013D5B10711D5F91E016101202077206836
:101B700080698007204602D0FFF7E8FF04E000F00C
:101B8000BBF8204600F04DF92777680716D5700797
:101B900014D521686FF004000861022020772068C6
:101BA000806910F4407F204602D0FFF7CFFF04E0A9
:101BB00000F0A2F8204600F034F92777280715D561
:101BC000300713D521686FF00800086104202077E2
:101BD0002068C0698007204602D0FFF7B7FF04E005
:101BE00000F08AF8204600F01CF92777E80616D5A1
:101BF000F00614D521686FF01000086108202077E6
:101C00002068C06910F4407F204602D0FFF79EFF95
:101C100004E000F071F8204600F003F92777E807A8
:101C200008D0F00706D021686FF001000861204657
:101C300000F050F9280608D5300606D521686FF067
:101C4000800008612046FFF75BFE680608D5700635
:101C500006D521686FF040000861204600F044F985
:101C6000A8060AD5B00608D521686FF020000861E3
:101C70002046BDE8F041FFF744BEBDE8F08100001A
:101C800030B587B0044614216846FEF74BFB164971
:101C90002068884226D115480024016841F00101DE
:101CA0000160016801F001010591016841F0020144
:101CB00001600068022500F002000590C02000903D
:101CC000CDE9015469460A48CDE90345FEF782FF94
:101CD00003200090CDE9015469460648CDE903454B
:101CE000FEF778FF07B030BD0004004030380240F6
:101CF0000000024000040240704770B5044690F8AE
:101D00003C0000260D4601280FD0012084F83C003D
:101D10006AB1042A1DD0082A2FD00C2A3FD00126F0
:101D2000002084F83C00304670BD022070BD206861
:101D300001F028F92068816941F00801816120687B
:101D4000816921F004018161206881692A69114358
:101D500011E0206801F03EF92068816941F40061DA
:101D600081612068816921F48061816120688169D5
:101D70002A6941EA02218161D2E7206801F056F91F
:101D80002068C16941F00801C1612068C16921F082
:101D90000401C1612068C1692A69114311E020680A
:101DA00001F070F92068C16941F40061C1612068E7
:101DB000C16921F48061C1612068C1692A6941EA71
:101DC0000221C161ACE710B5040003D094F83D00D6
:101DD00010B107E0012010BD002084F83C0020462F
:101DE00000F01EF8022084F83D00211D206801F05B
:101DF00057F8012084F8460084F83E0084F83F003C
:101E000084F8400084F8410084F8420084F84300DC
:101E100084F8440084F8450084F83D00002010BD9B
:101E20007047704710B50446022249B104290ED00C
:101E3000082913D094F84100012816D0012010BDC4
:101E400094F83E000128F9D184F83E200FE094F880
:101E50003F000128F2D184F83F2008E094F84000C8
:101E60000128EBD184F8402001E084F841200122D0
:101E7000206801F067F812492068884203D1426C5B
:101E800042F400424264206888420ED0B0F1804F94
:101E90000BD00C49884208D00B49884205D00B4929
:101EA000884202D00A49884204D1816801F00701C2
:101EB000062903D0016841F001010160002010BD36
:101EC000000001400004004000080040000C0040F9
:101ED0000040014000680349884201D1FFF78AB9F8
:101EE00070470000000001407047FEE701684A6942
:101EF000D24352050FD46FF480624A61002140F84A
:101F0000301F202242738173026942F00402026191
:101F10000173012070470020704700002DE9F84F41
:101F20000446006889460B9D01689846174641F4AF
:101F3000806101602068016841F480710160009552
:101F40004FF0011B0022594620460A9B00F064F81E
:101F50004FF4007A40B120680068C00501D5C4F88C
:101F600040A00320BDE8F88F216809F0FE00086159
:101F70002B46284920460A9A00F096F8F0BB2068C4
:101F80004169806900902A4620460A9900F022F9AA
:101F900040B1206C04283AD12068016841F40071F6
:101FA000016034E0FEB2B8F1010F09D02168380AAF
:101FB00008612A4620460A9900F00CF90028E8D169
:101FC000206806612A4620460A9900F003F9002895
:101FD000DFD12068016841F4807101600095002222
:101FE000594620460A9B00F017F80028B3D1216813
:101FF00009F0FF0040F00100086100E007E02B4617
:10200000044920460A9A00F04FF80028AAD001207F
:10201000A8E70000020001002DE9F04798461746A6
:102020000D460446C1F30746DDF820902AE000BFC4
:10203000B8F1FF3F26D0FEF7C7FEA0EB09014145EE
:1020400002D8B8F1000F1DD12068012E16D080698A
:1020500025EA00000004000C12D00020B84211D183
:10206000002044F8300F20216173A073216941F0F2
:102070002001216120730120BDE8F0874069E7E776
:102080000120EBE72068012E0AD0806925EA0000D4
:102090000004000C06D00020B842C9D00020EBE7B5
:1020A0004069F3E70120F7E72DE9F0479846164627
:1020B0000D4604464FF000094FF0200AC1F30747D0
:1020C00023E020684069C043400515D420680168BA
:1020D00041F40071016021686FF480604861C4F8C8
:1020E000309084F83DA084F83E90216C41F00401CA
:1020F000216484F83C9021E0701C06D0FEF764FE59
:10210000A0EB0800B04203D816B1012F1FD021E088
:102110002068012F15D0806925EA00000004000C1A
:1021200018D000BF44F8309F84F80DA084F80E90BA
:10213000216941F02001216184F80C900120BDE863
:10214000F087406925EA00000004000CEAD120680D
:10215000406901E02068806925EA00000004000C65
:10216000AFD1ECE72DE9F041002590460E4604463C
:10217000202728E04069C043C0060CD454F8301B27
:102180006FF01000486144F810596777A577206A0E
:102190002062257714E0FEF717FEA0EB0800B0429E
:1021A00000D886B920684069C04340060BD544F882
:1021B000305F6773A573206940F0200020612573AC
:1021C0000120BDE8F08120684169C9434906D1D4A6
:1021D0000020F6E770B516460D4604461EE0204680
:1021E000FFF784FE08B1012070BD681C16D0FEF711
:1021F000EBFD801BA84200D885B920684069C04328
:1022000000060BD5002044F8300F20216173A07325
:10221000216941F0200121612073E4E720684069D1
:10222000C0430006DBD4002070BD0000194D1A4CDD
:10223000002601212846FEF7BDFD0028F9D10A201D
:1022400002F006FD01212846FEF7B4FD50B9607882
:10225000012807D00120607020780028E06908D0AC
:10226000401EE06101212846FEF7A4FD012802D0AE
:1022700002E0401CF5E76670E069052802DB0520F6
:10228000E06102E00028D4DCE6612078C0432070E1
:10229000CFE7000000000240000000202DE9F041DF
:1022A00004461D4616460F462A2000F071FB2046C4
:1022B00000F064FB304600F061FB2B2000F068FB6F
:1022C000384600F05BFB284600F058FBBDE8F041C3
:1022D0002C2000F05DBB10B514460B460246FFF7FC
:1022E000DDFF2046BDE8104000F048BB2DE9F04777
:1022F00080461F46581E83B21646501E82B20C46B8
:102300004046DDF82090FFF7C9FF0AE0454604E0AB
:10231000484600F033FB6D1CADB2B542F8D3641CE7
:10232000A4B2BC42F2D3BDE8F087000038B56C4CD3
:10233000002280212046FEF742FD142002F088FC96
:10234000012280212046FEF73AFD142002F080FC95
:10235000012220212046FEF732FD142002F078FCF5
:10236000112000F015FB642002F072FC362000F012
:102370000FFB002000F020FB3A2000F009FB0520B5
:1023800000F01AFBB22000F003FB0C2000F014FB5D
:102390000C2000F011FB002000F00EFB332000F0B9
:1023A0000BFB332000F008FBB72000F0F1FA3520DA
:1023B00000F002FBBB2000F0EBFA322000F0FCFA48
:1023C000C22000F0E5FA012000F0F6FAC32000F088
:1023D000DFFA152000F0F0FAC42000F0D9FA20202E
:1023E00000F0EAFAC62000F0D3FA0F2000F0E4FA79
:1023F000D02000F0CDFAA42000F0DEFAA12000F0F9
:10240000DBFAE02000F0C4FAD02000F0D5FA082072
:1024100000F0D2FA0E2000F0CFFA092000F0CCFA3A
:10242000092000F0C9FA052000F0C6FA312000F0BA
:10243000C3FA332000F0C0FA482000F0BDFA17209C
:1024400000F0BAFA142000F0B7FA152000F0B4FA40
:10245000312000F0B1FA342000F0AEFAE12000F0B3
:1024600097FAD02000F0A8FA082000F0A5FA0E2074
:1024700000F0A2FA092000F09FFA092000F09CFA6F
:10248000152000F099FA312000F096FA332000F080
:1024900093FA482000F090FA172000F08DFA1420EB
:1024A00000F08AFA152000F087FA312000F084FA53
:1024B000342000F081FA212000F06AFA292000F08F
:1024C00067FA4FF6FF70F023002100901A46084685
:1024D000FFF70CFF0349012008700349087038BD5D
:1024E00000040240B1000020B00000202DE9FF4FA1
:1024F00081B00446DDF83C9000904FEA59074FF058
:102500000008780700D0012000EBD70000FB09FB92
:10251000203AD0B20390029802994844401E83B2F8
:10252000E019401E82B22046FFF7B8FE002553E0B6
:10253000B9F10C0F2AD0B9F1100F2ED0B9F1180F44
:102540002ED0B9F1200F49D12749039801EB801013
:10255000002610F805A0109800284FF0010000FA9E
:1025600006F000EA0A0022D020B12046049A02991F
:10257000FFF7B1FE641C0098A4B2201AB84225D11E
:102580000298009C401C80B2029023E003981749F7
:1025900000EB400001EB8000DAE71549039803E007
:1025A0000398144900EB400001EB0010D0E708B19C
:1025B000049800E00E9800F0E1F908F10100C0B2C3
:1025C000B0FBF7F1804607FB118050B1761CF6B2E4
:1025D000082EC0D36D1CADB25D45A9D305B0BDE8D2
:1025E000F08F4FF00008F5E7807500084C5900089F
:1025F000C05D0008B06300082DE9FF4F15462DEDC2
:10260000020B04464FF0000A2DED028B85B0B0EEB0
:10261000408ADDE91686B5EEC08A7708F1EE10FA39
:1026200005DB41468DE8420420220C9B06E0414632
:102630008DE842040C9BB1EE488A2D2220460A996F
:10264000FFF754FF9FED230AE0191FFA80F928EEE7
:10265000000A0024BCEEC00A10EE100A80B20390FB
:1026600030E0281B401EC1B20A2001F035FC03995E
:10267000B1FBF0F00A21B0FBF1F201FB120BA81E36
:1026800084420FD1CDE9008600FB0790CDF808A069
:1026900080B22E220C9B0A99FFF728FF641C6D1C48
:1026A000E4B2EDB20BF13000C2B2CDE9008604FB1A
:1026B0000790CDF808A080B20C9B0A99FFF716FF8F
:1026C000641CE4B2AC42CCD305B0BDEC028B06B0C6
:1026D000BDE8F08F0000C8422DE9FF4F85B04FF0F4
:1026E000000ADDE913851E46140083464FEA5507AC
:1026F000D14605D441468DE822022022129B05E0F6
:1027000041468DE822025442129B2D2258460699DA
:10271000FFF7ECFE0BEB07001FFA80FBA0B20024D2
:1027200003902FE0301B401EC1B20A2001F0D4FB01
:102730000399B1FBF0F00A21B0FBF1F201FB1200AA
:10274000BAF1000F05D1711E8C4202DA60B14FF070
:10275000010A3030C2B204FB07B0CDE9008580B277
:10276000CDF80890129B08E004FB07B0CDE9008586
:10277000129B80B2CDF8089020220699FFF7B6FE92
:10278000641CE4B2B442CDD309B0BDE8F08F2DE9AA
:10279000FE4F9946DDE90D6714468A460546DDF889
:1027A00030800CE0CDF800804B4651462846CDE9FC
:1027B0000167FFF79BFE05EB560085B2641C22788B
:1027C000002AEFD1BDE8FE8FFEB590ED020A064665
:1027D0000020B5EEC00A1824F1EE10FA4FF6FF758E
:1027E0004FF478473B4600950ED1CDE9014022A237
:1027F0003C21FFF7CCFFCDE9005405223C213B46AC
:102800009FED1F0A78200EE0CDE901401DA23C217A
:102810000020FFF7BCFFCDE9005496ED020A3B46CD
:1028200005223C217820FFF7E7FECDE9005496ED24
:10283000040A3B4605225A217820FFF7DDFE327854
:102840000097CDE90154782104230846FFF744FF9F
:1028500072680097CDE90154042390217820FFF796
:102860003BFF0097CDE901540423DA43B4217820DB
:10287000FFF732FFFEBD00004661696C75726500AE
:102880003333CA435375636365737300FEB54FF604
:10289000FF74F02300211A4608460094FFF726FD36
:1028A00000251826CDE900464FF478473B4615A28F
:1028B000294628460295FFF76AFFCDE900463B46C8
:1028C00013A21E2100200295FFF761FFCDE900460B
:1028D0003B4612A23C2100200295FFF758FFCDE9AC
:1028E00000463B460FA25A2100200295FFF74FFFFA
:1028F000CDE900463B460DA2782100200295FFF766
:1029000046FFFEBD4C45445F487A5F534554000086
:102910004375725F416E673A00000000565F4D4993
:102920004E3A0000456C5F416E673A00443A000041
:102930000E4E0F4F0F4C104D8046307880B1F86925
:10294000206095ED030A404684ED020A95ED040AE5
:1029500084ED040AFFF738FF322002F079F9ECE742
:10296000FFF7E4FC4046FFF791FFF5E7B1000020D8
:1029700000000020844800209848002010B504463C
:10298000000A00F019F8E0B2BDE8104000F014B8F9
:1029900070B5084C0546002240212046FEF70FFA8C
:1029A000284600F009F82046BDE870400122402189
:1029B000FEF705BA000402402DE9F041104F05462C
:1029C00000244FF480784FF40076002231463846D8
:1029D000FEF7F5F9280601D5012200E00022414664
:1029E0003846FEF7ECF9012231463846FEF7E7F9A2
:1029F0006806641C050EE4B2082CE6D3BDE8F0813D
:102A000000040240084C094D6426206880F4005000
:102A10002060E86900EBC00101EB001006EB8000CC
:102A200002F016F9F1E7000014080240000000204F
:102A30002DE9F04186B014216846FDF773FC2F485C
:102A40000024016841F004010160016801F0040103
:102A50000591016841F001010160016801F0010187
:102A60000591016841F0020101600068244F00F007
:102A700002004FF400550590002229463846FEF723
:102A80009EF9DFF88080002204214046FEF797F986
:102A90004FF47876012231464046FEF790F90095D2
:102AA0000125CDE90154694638460394FEF792F8B2
:102AB000CDE90054144F694638460295FEF78AF86E
:102AC0000820CDE90004694638460294FEF782F8F2
:102AD0000420CDE9000569464046CDE90245FEF7F0
:102AE00079F80220CDE90240CDE90065694640460B
:102AF000FEF770F806B0BDE8F08100003038024003
:102B00000008024000040240000002400D4810B5D9
:102B10000B4901600C49416000214FF48042816003
:102B2000C0E9031241618161C1610162FEF752F99E
:102B3000002803D0BDE81040FEF72BB810BD000000
:102B4000005C0040EC000020A086010010B58EB0B3
:102B500000240794089409940A940B941C21684655
:102B60000C94FDF7DFFB3348314901600321C0E9D4
:102B700001144FF48071C0E9031480218161FEF7D4
:102B8000FFFE08B1FEF705F84FF48050079007A943
:102B90002848FEF76DFF08B1FDF7FBFF2548FFF75A
:102BA00012F908B1FDF7F5FF0B940BA921480C941D
:102BB000FEF7A8FE08B1FDF7ECFF6020CDE90004A8
:102BC0000294002269461B480494FFF796F808B166
:102BD000FDF7DFFF042269461648FFF78EF808B1BB
:102BE000FDF7D7FF082269461248FFF786F808B1BB
:102BF000FDF7CFFF0C2269460E48FFF77EF808B1BB
:102C0000FDF7C7FF00210B48FFF70CF90421094825
:102C1000FFF708F908210748FFF704F90C210548D8
:102C2000FFF700F90348FFF72BF80EB010BD0000C6
:102C30000004004040010020FEE7FEE72DED048B7C
:102C400082B002F0C1FC334C9FED310A009084ED5C
:102C5000000A072060604FF0FF30A0609FED2E8AD1
:102C6000012204212D48FEF7AAF82D4D2878E0B363
:102C70002C48FDF7A5FF064601F080F884ED030A15
:102C8000D4ED020AF8EEE00A20EE800A10EE100AF7
:102C9000FDF7F9FC41EC190B2348C069FDF7D5FCA1
:102CA0009FED221B53EC112BFDF7EEFB53EC192B80
:102CB000FDF7E4FB41EC190B18EE100AFDF7E3FCFD
:102CC00053EC192BFDF7E0FB9FED1A1B53EC112B76
:102CD000FDF7DAFB9FED191B53EC112BFDF746FCBA
:102CE000FDF7E4FC00EE100A00E00AE0D4ED040A6F
:102CF00001F0A2FD134803214660684601F0CEFFB3
:102D0000B4E7FDF749FF07480099FDF757FFADE726
:102D10006666364198480020C520B03D0004024058
:102D2000BC000020E4000020000000207F6ABC748A
:102D30009318F43F0000000000806640000000602F
:102D4000FB210940844800204FF47A74204601F0AA
:102D50007FFFFBE7B5EEC00AF1EE10FA02D89FED57
:102D6000160A06E010EE101AB1F17E5F01DBB7EE35
:102D7000000A1349DFED110A096858B1042811D07F
:102D800020EE200A0828BCEEC00A10EE100A11D06E
:102D90000864704720EE200ABCEEC00A10EE100A4C
:102DA0004863704720EE200ABCEEC00A10EE100AFD
:102DB00088637047C86370470000000000008043CC
:102DC0004001002010B5502080F31188BFF34F8FD1
:102DD000BFF36F8F02F0FEFB18B104494FF0805033
:102DE0000860002080F3118810BD000004ED00E0B1
:102DF00030B593B030216846FDF794FA14210CA841
:102E0000FDF790FA1D480024016841F080510160EF
:102E1000006800F0805011901948016821F4404189
:102E200041F4004101600068022500F44040119027
:102E3000012003901020009506950490CDE90740ED
:102E4000A020CDE9090504200B906846FEF7A2FBFF
:102E500008B172B6FEE70F20CDE90C054FF48050A3
:102E6000CDE90E4002210CA81094FEF787FA002845
:102E700001D072B6FEE713B030BD0000403802400A
:102E8000007000400248016841F470010160704721
:102E900088ED00E00148FEF75ABE000088010020DE
:102EA000F0B50268204B214C9F03214D214E9842E2
:102EB00007D0B84205D0A04203D0A84201D0B0420A
:102EC00004D122F0700C4A6842EA0C02984210D0F9
:102ED000B8420ED0A0420CD0A8420AD0B04208D0CE
:102EE000154CA04205D0154CA04202D0144CA04273
:102EF00003D122F44074CA6822434C6922F0800254
:102F0000224302608A68C2620A688262984201D1E2
:102F100009690163012141610169C90703D00169A0
:102F200021F001010161F0BD0000014000040040FA
:102F300000080040000C00400040014000440140F7
:102F40000048014010B501F01F030121046A9940B7
:102F50008C430462016A9A401143016210BD10B5AE
:102F6000846842EA032224F47F440A4322438260B5
:102F700010BD826822F070020A4342F007018160AE
:102F80007047000030B5036A026A22F00102026253
:102F90004268846924F073050C682C4323F0020511
:102FA0008B682B430A4DA8420BD123F00805CB6850
:102FB00022F440722B434D6923F0040315438A69C0
:102FC0002A434260846149684163036230BD000066
:102FD0000000014030B5026A036A23F01003036267
:102FE000436884690D6824F4E64444EA05248D6846
:102FF00022F0200242EA05120B4DA8420ED1CD6804
:1030000022F0800242EA05124D6923F4406343EA4C
:1030100085038D6922F0400243EA850343608461A1
:1030200049688163026230BD0000014030B5036A27
:10303000026A22F4807202624268C46923F4007357
:1030400024F073050C682C438D6843EA05230C4D6E
:10305000A8420ED1CD6823F4006343EA05234D69ED
:1030600022F4405242EA05128D6923F4806342EA59
:1030700005124260C4614968C163036230BD00004B
:103080000000014030B5046A026A22F480520262F4
:103090004268C3690D6823F4E64343EA05238D685B
:1030A00024F4005444EA0534064DA84204D14D6985
:1030B00022F4804242EA85124260C3614968016499
:1030C000046230BD0000014010B5036A046A24F0B8
:1030D00001040462846924F0F00444EA021423F039
:1030E0000A020A438461026210BD10B5036A046AD1
:1030F00024F010040462846923F0A00324F47044D3
:1031000044EA023243EA01118261016210BDFEE726
:1031100003B401984100009850EAC12018BF042070
:103120004A0D18BF40F0010040F2FF72B2EB515F50
:1031300008BF40F00200012808BF052002B0704718
:103140000907090E002804DB00F1E02080F80014D4
:10315000704700F00F0000F1E02080F8141D704768
:1031600010B52F499FED2C1B2DED020B84B0059857
:1031700020F000408842D8BF9DED040B2DDD294989
:10318000884209D1049840B94FF0010000F098FD41
:1031900000F066FD06B010BD05DB9DED040B00F0F0
:1031A00053FD06B010BD68469DED040B00F064F9B8
:1031B00010F0030004BF9DED021B9DED000B0CD031
:1031C00001280ED09DED021B9DED000B022817D0AB
:1031D000012000F0A1FC06B010BD00F069FB06B0B4
:1031E00010BD9DED021B9DED000B012000F094FC35
:1031F00051EC100B81F0004106B041EC100B10BDFA
:1032000000F056FB51EC100B81F0004106B041EC90
:10321000100B10BD000000000000000000000000C6
:10322000FB21E93F0000F07F10B52DED040B86B0C7
:103230009DED060B10EE100A10EE901A8DED000BAE
:10324000002818BF0120084320F00040C0F17F6033
:1032500000F1E040C00F21D19DED080B10EE101AD7
:1032600010EE900A8DED000B002918BF01210843D4
:1032700020F00040C0F17F6000F1E040C00F0DD1B0
:1032800029490798B1EB400F04BF0698002842D0A7
:103290000998400004BF089800283CD09DED080B19
:1032A00053EC102B9DED060B51EC100BFDF730FB92
:1032B000CDE902019DED020B40F2FF7110EE900A84
:1032C0008DED000B31EA105021D00798039900F0E2
:1032D000004001F00041884219D09DED080B8DEDB2
:1032E000040B9DED020B8DED000B10EE900A05997D
:1032F00061F31E0005909DED041B9DED020B51EC4A
:10330000110B53EC102BFDF7BCF8CDE902019DED3C
:10331000020B0AB010BD012000F0D2FC0AB0BDE8DB
:10332000104000F09DBC00000000E0FF0000000025
:1033300010B52F499FED2C1B2DED020B84B0059885
:1033400020F000408842DCBF00209DED040B32DD00
:103350002849884209D1049840B94FF0010000F093
:10336000AFFC00F07DFC06B010BD05DB9DED040B4D
:1033700000F06AFC06B010BD68469DED040B00F03D
:103380007BF810F0030011D0012818D09DED021B2E
:103390009DED000B02281AD000F08AFA51EC100BB8
:1033A00081F0004106B041EC100B10BD9DED021BF9
:1033B0009DED000B012000F0AFFB06B010BD9DEDB0
:1033C000021B9DED000B00F073FA06B010BD01204A
:1033D00000F0A2FB51EC100B81F0004106B041EC73
:1033E000100B10BD000000000000000000000000F5
:1033F000FB21E93F0000F07F00B52DED048BB0EE1E
:10340000409AF0EE609A83B051EC190BFDF72FFA59
:1034100041EC180B18EE100A18EE901A8DED008B87
:10342000002818BF0120084320F00040C0F17F6051
:1034300000F1E040C00F14D019EE101A19EE900AF6
:103440008DED009B002918BF0121084320F00040AA
:10345000C0F17F6000F1E040C00F04BF012000F028
:103460002FFCB0EE480A03B0F0EE680ABDEC048B06
:1034700000BD0000000000002DE9F14F04462DEDD5
:10348000020B2DED088B8AB09FEDE70B80ED020B50
:10349000139EE74826F0004585420ADC9DED120B9D
:1034A000002084ED000B0AB0BDEC088B03B0BDE832
:1034B000F08FE0489FEDE0AB9FEDE1BBA84247DD18
:1034C000E14F9FEDE39B9FEDE48B9DED120B53ECE1
:1034D0001A2B51EC100B002E1CDDFCF7CFFF41EC3A
:1034E000100BBD4208D053EC1B2B51EC100BFCF71A
:1034F000C5FFC4E900010BE053EC192B51EC100B94
:10350000FCF7BCFF53EC182BFCF7B8FFC4E9000133
:103510000120C8E7FCF711FF41EC100BBD4208D0B9
:1035200053EC1B2B51EC100BFCF707FFC4E9000117
:103530000BE053EC192B51EC100BFCF7FEFE53EC97
:10354000182BFCF7FAFEC4E900014FF0FF30AAE7A0
:10355000C348A84279DB9DED120B51EC100B00F033
:1035600001FC41EC180B9FEDC00B53EC102BFCF74A
:103570008BFF9FEDBF1B53EC112BFCF7DEFEFDF71D
:103580001DFA0746FDF761F841EC190B53EC1A2BB5
:10359000FCF77AFF53EC182BFCF773FF41EC180B88
:1035A00053EC1B2B51EC190BFCF76EFFDFF8C8A294
:1035B00041EC100B4FEA15580125FA4453EC102B3F
:1035C00051EC180BFCF75AFF032DC4E900013DD064
:1035D000C1F30A5005EB4511A8EB000011398142F7
:1035E00034DA0AEB051BB0EE48AA9BED000BF0EEB7
:1035F00068AA53EC102B51EC190BFCF745FF41EC7A
:103600001B0B51EC1A0B53EC1B2BFCF737FF41EC57
:10361000180B51EC1A0B53EC182BFCF72FFF53EC43
:103620001B2BFCF72BFF9BED020B41EC1A0B53EC11
:10363000102B51EC190BFCF727FF53EC1A2BFCF75E
:103640001DFF41EC100B6D1CB8E70EE0002EA8BF6B
:103650003846BFF628AF94ED000B51EC100B81F00B
:103660000041C4E9000178421DE7C6F3130040F4AD
:10367000801EC6F30A50A0F2F530471100F01F0576
:10368000C5F12000DDF848B00890002006900790B2
:103690000520EC467949002D07EB0002794408BF6C
:1036A00051F8221009D051F8223001EB8201AB40D1
:1036B0004A68089922FA01F11943A1FB0E26A1FBE1
:1036C0000B131A449A4234BF0123002303EB06086C
:1036D0000CEB8003D3E901A60E448E4234BF0121D6
:1036E000002192448A4411B1924502D903E09245E7
:1036F00001D2012100E00021C3E901A641444CF8B8
:103700002010011EA0F10100C4DC029800F100505D
:10371000850F0298DDE903678000DDF81480FCF76F
:1037200094FF41EC1A0B3046FCF7A0FF9FED541BB1
:1037300053EC112BFCF7A8FE41EC1B0B3846FCF7B1
:1037400095FF9FED511B53EC112BFCF79DFE41ECB7
:10375000180B4046FCF78AFF9FED4D1B53EC112BD5
:10376000FCF792FE41EC190B51EC180B53EC192BA2
:10377000FCF7E3FD53EC1B2BFCF7DFFD53EC1A2B9E
:10378000FCF7DBFDCDE90801002008909DED080B5A
:1037900053EC1A2B51EC100BFCF770FE53EC1B2B67
:1037A000FCF76CFE53EC182BFCF768FE53EC192B5E
:1037B000FCF767FE9FED381B53EC112BFCF764FE02
:1037C0009FED370B41EC180B53EC102B9DED080BC4
:1037D00051EC100BFCF758FE53EC182BFCF7ADFD29
:1037E0009FED310B41EC180B53EC102B9DED080BAA
:1037F00051EC100BFCF748FE53EC182BFCF79DFD29
:1038000041EC100B139810F0004F06D06D4251ECB4
:10381000100B81F0004141EC100B284684ED000BA9
:1038200041E6000000000000000000000000000071
:10383000FB21E93F7CD9024000004054FB21F93FC5
:103840003163621A61B4D03DFB21F93F00000000F2
:103850000000601A61B4D03D7370032E8A19A33B37
:10386000FB2139410000000083C8C96D305FE43F8F
:10387000000000000000E03FB257000000570000C9
:10388000000000000000103E000000000000103C9E
:10389000000000000000103A182D4454FB21F93DAF
:1038A0003326A611460B113C00000054FB21F93DC4
:1038B00010B52DED040B2DED088B82B0B0EE419AC2
:1038C000F0EE619A0B9820F000449FED4BABB4F101
:1038D000795F11DA9DED0A0B51EC100BFDF76EF8D4
:1038E000002801BFB0EE4A0AF0EE6A0A02B0BDEC51
:1038F000088B04BF04B010BD9DED0A0B53EC102BD8
:1039000051EC100BFCF7C0FD41EC180B3C480621B4
:10391000B0EE480AF0EE680A784400F081F853EC03
:10392000182B51EC100BFCF7AFFD9DED0A0B41EC91
:103930001B0B53EC192B51EC100BFCF7A5FD41ECC4
:10394000190B53EC1B2B51EC180BFCF79DFD53ECA2
:10395000192BFCF793FD9FED2C0B41EC190B53EC4D
:10396000102B51EC180BFCF78FFD41EC100B284885
:10397000844210DA53EC192B51EC100BFCF77EFD4E
:1039800053EC1A2BFCF77DFD41EC100B02B0BDECA3
:10399000088B04B010BD1F48A042BCBF9FED1E1B8A
:1039A0008DED001B06DBA4F50010019000200090B7
:1039B0009DED001B51EC100B53EC112BFCF75EFD41
:1039C0009DED000B41EC180B53EC102B51EC1A0B36
:1039D000FCF754FD41EC1A0B53EC192B51EC180B6E
:1039E000FCF74CFD53EC1A2BFCF74BFD41EC100B94
:1039F000CCE7000000000000000000000000F03FE5
:103A00002454000000000000000000000000E03F1F
:103A10003333D33F0000E93F000000000000D23FF5
:103A200070B504462DED028B4D1E00EBC500B0EEC7
:103A3000408AF0EE608A90ED000B35F0060017D05A
:103A400053EC182B51EC100BFCF71EFD41EC100B46
:103A50006D1E04EBC50090ED001B51EC100B53ECF8
:103A6000112BFCF76AFC41EC100B35F00600E7D196
:103A7000022D36D0042D1CD0062D1CBFBDEC028BB0
:103A800070BD53EC182B51EC100BFCF7FDFC94EDC2
:103A90000A1B53EC112BFCF750FC53EC182BFCF7D2
:103AA000F3FC94ED081B53EC112BFCF746FC41ECA6
:103AB000100B53EC182B51EC100BFCF7E5FC94EDBC
:103AC000061B53EC112BFCF738FC53EC182BFCF7BE
:103AD000DBFC94ED040B53EC102BFCF72EFC41ECBB
:103AE000100B53EC182B51EC100BFCF7CDFC94EDA4
:103AF000021B53EC112BFCF720FC53EC182BFCF7AA
:103B0000C3FC94ED001B53EC112BFCF716FCBDEC31
:103B1000028B41EC100B70BD31B504462DED040B4A
:103B20002DED0A8BB0EE41BAF0EE61BA0B989DED27
:103B30000A0B20F00040B0F1795F0DDA51EC100B68
:103B4000FFF7E6FA042808BF00F09AF89DED0A0B8B
:103B5000BDEC0A8B05B030BD53EC102B51EC100BB3
:103B6000FCF792FC41EC180B9DED0A0B53EC182B63
:103B700051EC100BFCF788FC41EC190B2C48B0EE13
:103B8000480AF0EE680A05217844FFF749FF9FEDE7
:103B90002ACBB0EE40AAF0EE60AA9CB353EC1C2BEB
:103BA00051EC190BFCF770FC41EC1C0B53EC1A2B7D
:103BB00051EC190BFCF768FC9FED210B41EC190B44
:103BC00053EC102B51EC1B0BFCF75EFC53EC192B48
:103BD000FCF754FC53EC182BFCF756FC53EC1B2B56
:103BE000FCF74CFC53EC1C2BFCF748FC9DED0A1B2E
:103BF00053EC112BFCF745FCBDEC0A8B05B041ECF6
:103C0000100B30BDFFE753EC1A2B51EC180BFCF7EF
:103C10003BFC53EC1C2BFCF790FB53EC192BFCF7F3
:103C200033FC9DED0A1B53EC112BFCF786FBE3E7FD
:103C3000AC52000000000000495555555555C5BF10
:103C4000000000000000E03F10B553EC102B51ECD9
:103C5000100BFCF772FB41EC100B10BD00000000D4
:103C60009FED050B10B553EC102B51EC100BFCF72E
:103C70007DFC41EC100B10BD0000000000000000B6
:103C80009FED050B10B553EC102B51EC100BFCF70E
:103C9000FBFB41EC100B10BD000000000000001009
:103CA00002E008C8121F08C1002AFAD17047704705
:103CB000002001E001C1121F002AFBD17047000063
:103CC0000149086070470000E800002010B500F0CE
:103CD000A9F80948D0E90621514300EE901AB8EE40
:103CE000E01AD0ED050ABDE8104051EE000AB0EE32
:103CF000600A00F015B80000BC0000200748F0EE94
:103D0000400AD0E90621514300EE101AB8EEC01A5D
:103D100090ED050A11EE200A00F002B8BC00002068
:103D200010B510EE100AFCF7AEFC41EC100B9FED45
:103D30000A1BFFF779FA51EC100BFCF7B7FC00EE09
:103D4000100AB5EEC00AF1EE10FA03DADFED040A4C
:103D500030EE200A10BD000000000060FB21194079
:103D6000DB0FC94082B0CDE9000121F00040019095
:103D70009DED000B02B051EC100B704710B52DED0E
:103D8000028B00F04FF8B0EE408AFFF7B7FF1D48F6
:103D90001D4980ED040A18EE100A884204D19FEDF7
:103DA0001B0ABDEC028B10BD19481A4A90ED010A9E
:103DB00038EE400AF0EEC00A10EE901A914201DC93
:103DC0009FED150A154AF0EEC00A10EE901A9142C6
:103DD0000BDDB5EEC00AF1EE10FA02DD4FF0FF3157
:103DE00000E0012102681144016080ED018AD0EDFC
:103DF000000A9FED0B1AB0EE480AF8EEE00A00EE5A
:103E0000810ACEE79848002000FE7FC7000000002E
:103E1000B400002017B7D13817B7D138ABF4B4408D
:103E2000DB0FC94010B500F09FFC41F28831884299
:103E30001AD200F099FCFCF719FC9FED0D1B53EC16
:103E4000112BFCF721FB9FED0C1B53EC112BFCF706
:103E50001BFB9FED0B1B53EC112BFCF787FBFCF7B7
:103E600025FC00EE100A10BD9FED070A10BD0000F2
:103E70008E3BA583F57FB63F00000060FB21094023
:103E8000000000000080664000FE7FC71CB5FDF703
:103E9000B9F9FEF7ADFFFEF7CBFDFEF757FEFEF7D3
:103EA00035FE07490120CDE900014202002305A1AA
:103EB000084801F023FB08B100F0CEFFFEE7000048
:103EC000200000204170705461736B43726561740F
:103ED000650000000D0A00080246012000E0504382
:103EE000491EC9B2FBD270472DE9F041184C0F466C
:103EF0000546E6682068001D00F076FD38B92068A8
:103F000090F82C1001208840216981432161681CB0
:103F100007D137B12168BDE8F0410E48091D00F016
:103F2000B3BD20683544B5424560216805D2A06B19
:103F3000BDE8F041091D00F08FBD606B091D00F068
:103F40008BFDA06A854200D2A562BDE8F081000029
:103F500034000020880B00202DE9F041054600F0D8
:103F60009FFD2D4CA068401CA06020682B4F10B115
:103F7000606930B32BE02560A068012827D10026B6
:103F800006EB860007EB800000F058FD761C202E23
:103F9000F6D3234800F052FD2148143000F04EFDC6
:103FA0001F48283000F04AFD1D483C3000F046FD17
:103FB0001B48503000F042FD194860631430A06384
:103FC00005E02068E96AC06A884200D82560606A16
:103FD000401C6062E96A0120226988401043206128
:103FE00001EB810007EB8000291D00F04DFD00F082
:103FF00077FD606900280CD02068E96AC06A8842B1
:1040000007D208494FF080500860BFF34F8FBFF3CD
:104010006F8FBDE8F081000034000020B808002058
:10402000380B002004ED00E038B500F039FD104CED
:104030002068C8B90F4800F001FD0E48143000F0A8
:10404000FDFC0C48E060143020610A4B0020C03BAE
:10405000009003F148020C210A2000F0F1FF2060DB
:1040600010B105A100F0BEFDBDE8384000F038BD3C
:10407000700000205C0C0020546D725100000000A4
:1040800030B4026C0B46002A0BD0C1681144C160E9
:104090008468A14201D30168C16030BC1846FCF7B6
:1040A00028B930BC70472DE9F041856B17460446AE
:1040B0000026026C82B1C7B1E068FCF71AF9E1682A
:1040C000206C091AE1602268914202D2A168081AA4
:1040D000E060022F16D017E02068A8B9A06801F0B0
:1040E000DFFA06460020A0600EE06068FCF701F9E8
:1040F000216C606808446060A168884204D320682D
:10410000606001E005B16D1E6D1CA5633046BDE821
:10411000F08110B5044690F8510058B101280CD038
:1041200002280FD0502080F31188BFF34F8FBFF3C8
:104130006F8FFEE7206B00F0E7FC2046BDE81040E3
:1041400000F0E2BC10BD000010484FF4705142076F
:1041500006D0C01D0D4920F00700411AC1F570516D
:104160000B4A00230144C2E900030839183A21F040
:10417000070111604B600B600B1AC0E900139360DC
:104180004FF000405360506170470000840C0020E5
:104190009C000020144E154CA6F52F774FF0805848
:1041A000DFF84C9012E000BF00F07AFCF068C568C0
:1041B000281D00F019FCA068401EA0606068401E29
:1041C000606000F08DFC2846FFF7A3FF60680028C0
:1041D000EAD138680128F9D9C9F80080BFF34F8FB8
:1041E000BFF36F8FF2E70000740B00203400002053
:1041F00004ED00E00346009829B10260C0E90F31E8
:10420000012100F051BF0060F8E72DE9F0479A4620
:10421000DDE9098481466FF00303206B03EB820222
:104220001044089E20F00707780707D0502080F33D
:104230001188BFF34F8FBFF36F8FFEE7002561B189
:10424000002023180A5C83F834200A5C12B1401C59
:104250001028F6D384F8435001E084F83450202E1F
:1042600000D31F26E662C4E91165201D00F0F1FBB2
:1042700004F1180000F0EDFB2461C6F12000646237
:10428000A061E56484F8505052464946384600F033
:1042900055FA2060B8F1000F01D0C8F80040BDE821
:1042A000F087000030B5114900E011460A688242EB
:1042B000FBD34B685C18844203D1406818444860C3
:1042C000084643681C18944209D1084C183C2468DD
:1042D000A24209D052681A4442600A681268026019
:1042E000814200D0086030BD0460F9E79C000020E6
:1042F00070B5002441600B4D0061914206D8D11A7F
:104300008269914206D2011D286907E09A4203D2D0
:10431000994201D3012403E0011DE86800F09CFBF1
:10432000204670BD7000002010B5044600F0B8FBB8
:10433000A06B28B15FF0000400F0D2FB204610BD56
:104340000124F9E730B587B0394D67E004980028BB
:1043500064DB069C606910B1201D00F045FB03A8DA
:1043600000F0D8F8024604980A2857D2DFE800F097
:104370000505052D334A05052D3394F8240040F03A
:10438000010084F824000599A069059B014420469A
:10439000FFF7AEFF68B3216A2046884794F82400EF
:1043A00040073BD5002000900598A16900234218E2
:1043B0001946204601F08EFAD8B9502080F31188B2
:1043C000BFF34F8FBFF36F8FFEE714F8240F20F079
:1043D0000100207022E094F8240040F0010084F8ED
:1043E00024000598A06128B1811813462046FFF7E4
:1043F0007FFF13E0502080F31188BFF34F8FBFF38E
:104400006F8FFEE794F82400810703D4204600F064
:104410007BFB03E020F0010084F82400002204A9C3
:10442000286800F095FF002890D107B030BD00004B
:10443000700000202DE9FC410F46054600F050FDBC
:1044400001A800F067F80446019818B101F0B0F92E
:10445000BDE8FC81254EAFB130690068D0B30027BC
:10446000291B3A46306800F0D1FB01F0A1F9002881
:10447000EED11F494FF080500860BFF34F8FBFF35C
:104480006F8FE5E7A542EBD801F092F9F068274677
:10449000C068C468201D00F0A7FA94F82400410702
:1044A00019D5A0692B4641193A462046FFF720FF4F
:1044B000A8B100200346014600902A46204601F09C
:1044C00009FA60B9502080F31188BFF34F8FBFF312
:1044D0006F8FFEE707E020F0010084F82400216AD6
:1044E00020468847B4E70127BAE7000070000020A3
:1044F00004ED00E00648416B096829B1416BC968C9
:10450000C9684968816270474FF0FF31FAE70000DF
:104510003400002070B5054601F056F8064E0446FA
:10452000B068844203D200F009F8012000E00020C6
:1045300028602046B46070BD70000020F8B5194DA9
:1045400020E0C068C4680668201D00F04DFA216AAA
:104550002046884794F82400400713D5A0693044CA
:10456000B04206D924616060211DE86800F074FA49
:1045700008E000200346014600903246204601F044
:10458000A9F938B1E86801680029DAD12969C5E9D3
:104590000310F8BD502080F31188BFF34F8FBFF395
:1045A0006F8FFEE77000002008484068401C4FF005
:1045B000500080F3118804D0BFF34F8FBFF36F8F8B
:1045C000FEE7BFF34F8FBFF36F8FFEE7A40000201D
:1045D000074CE068016841B1C0680021D0F80000D4
:1045E000FFF728FFFFF7AEFEF3E701210020F7E712
:1045F000700000202DE9F041044600F051FA94F9D2
:10460000455004F1240609E0606A48B1304601F0E3
:1046100093F808B100F0E6FB6D1E6DB2002DF3DCDF
:104620004FF0FF3684F8456000F05AFA00F038FA8F
:1046300094F9445004F1100709E0206948B1384664
:1046400001F07AF808B100F0CDFB6D1E6DB2002DBF
:10465000F3DC84F84460BDE8F04100F041BA0000AA
:104660002DE9F0410546002700F03AFC324E306853
:1046700008B9FFF769FD706905424ED1C5B3083529
:1046800068070ED005F00700C0F108000544680770
:1046900007D0502080F31188BFF34F8FBFF36F8F87
:1046A000FEE72DB37068854237D82348183001469D
:1046B0000C6801E020460C466168A94202D22168DC
:1046C0000029F7D131688C4227D007682168016042
:1046D00060680837411B10290FD96019420708D0BC
:1046E000502080F31188BFF34F8FBFF36F8FFEE729
:1046F00013E041606560FFF7D5FD61687068401A9E
:104700007060B268904200D2B060706901430020CE
:10471000C4E90001F068401CF06001F049F8780736
:1047200007D0502080F31188BFF34F8FBFF36F8FF6
:10473000FEE73846BDE8F0818400002010B5031F75
:104740004FF080741C601B1F21F001011960191FBC
:10475000044B0B6014390A60091F6FF002024438E1
:104760000A6010BDA94500081FB500200390322241
:10477000042103A88DE8070001230C226C210448C2
:10478000FCF7ECFBBDF80C0004B040BA10BD000013
:10479000EC00002010B52648DFED262A4FF07E51B0
:1047A0002DED028B90ED082AC0EE021AF5EEC01A2C
:1047B000F1EE10FA02D2B0EE620A08E011EE900AB1
:1047C000884202DDB7EE000A01E0B0EE610A80EE39
:1047D000828AB5EEC08AF1EE10FA02D2B0EE628A99
:1047E00005E018EE100A884201DDB7EE008AC1EE3E
:1047F000028AF5EEC08AF1EE10FA02D2F0EE628A79
:1048000005E018EE900A884201DDF7EE008A0020EC
:10481000FEF7A0FAB0EE480A0420FEF79BFAB0EECD
:10482000680ABDEC028B0820BDE81040FEF792BA82
:10483000BC0000200000000070B5664CBEEE001AFF
:104840002DED0A8BB6EE008AD4ED081A21EE811AFE
:10485000B4EEC01AF1EE10FA06DC21EE881AB4EEBE
:10486000C01AF1EE10FA01D2B0EE410AF0EE408A21
:10487000B0EE600AFFF754FA10EE105A2846FBF724
:1048800002FF41EC100BFEF753FDB0EE409AB1EE83
:10489000680AF0EE609A10EE100AFBF7F4FE53EC93
:1048A000192BFBF7F1FDFBF701FF60622846FBF7D0
:1048B000EAFE41EC100BFEF753FCB0EE409AF0EE2E
:1048C000609A18EE900AFBF7DEFE53EC192BFBF70B
:1048D000DBFDFBF7EBFE6060D4ED098A94ED080A7E
:1048E0000546F0EE680A40EE080A20EE080A10EECF
:1048F000100AC4ED020AFBF7C6FE41EC1B0B18EED2
:10490000900AFBF7C0FE41EC190B2846FBF7BBFEF3
:104910009FED31CB41EC1A0BB0EE4C0AF0EE6C0A75
:10492000FEF76AFD53EC1A2B51EC100BFBF7ACFDB4
:1049300053EC192BFBF7A2FD9FED29AB53EC1A2B7F
:10494000FBF7A2FD53EC1B2BFBF7F7FCFBF7AEFECE
:10495000E06094ED080A20EE080A10EE100AFBF75A
:1049600092FE41EC190B6068FBF78DFE41EC180BD1
:10497000B0EE4C0AF0EE6C0AFEF73EFD53EC182B3D
:1049800051EC100BFBF780FD94ED090A41EC180B7C
:10499000B1EE400A10EE100AFBF775FE53EC182B2F
:1049A000FBF76CFD53EC1A2BFBF76EFD53EC192B48
:1049B000FBF7C3FCFBF77AFE01EE100A84ED041A44
:1049C000D4ED030A94ED020ABDEC0A8BBDE87040F9
:1049D000FFF7E0BEBC00002000000000000008401F
:1049E000000000000000E03FD0E9013201699A6058
:1049F000D0E901235A604A68824201D182684A6044
:104A0000002202610868401E0860086870470000C4
:104A1000034B036003F1540008608020106070476E
:104A2000D0010020044B036003F1540008604FF4F0
:104A300080701060704700002404002000F108011D
:104A40004FF0FF32C0E90112C16001610021016035
:104A5000704700210161704730B50B685A1C02D0C5
:104A600000F1080202E0026904E022465468256869
:104A70009D42FAD953684B6099608A605160086121
:104A80000168491C016030BD42684A6093688B60D0
:104A900093685960916008610168491C0160704722
:104AA000502080F31188BFF34F8FBFF36F8F0A49F7
:104AB0004868401C486001280CD10848006810F084
:104AC000FF0F07D0502080F31188BFF34F8FBFF343
:104AD0006F8FFEE770470000A400002004ED00E0A7
:104AE0000849486828B1401E486001D180F3118808
:104AF0007047502080F31188BFF34F8FBFF36F8F43
:104B0000FEE70000A400002070B500282AD0164D52
:104B1000A0F1080460686969084207D1502080F359
:104B20001188BFF34F8FBFF36F8FFEE722683AB152
:104B3000502080F31188BFF34F8FBFF36F8FFEE7D4
:104B40008843606000F0CCF9606869680844686078
:104B50002046FFF7A7FB2869401C2861BDE870408C
:104B600000F026BE70BD0000840000204FF0E02061
:104B700000210161816105494FF47A720968B1FB36
:104B8000F2F1491E416107210161704730000020A8
:104B900010B5FBF767FB114910280ED300F1E02098
:104BA00090F8F0030A78904207D2502080F31188E1
:104BB000BFF34F8FBFF36F8FFEE709480068896826
:104BC00000F4E060884207D9502080F31188BFF3D9
:104BD0004F8FBFF36F8FFEE710BD0000A4000020D1
:104BE0000CED00E010B5084B002200BF53F8324036
:104BF0001CB1521C082AF9D310BD43F8321003EB44
:104C0000C201486010BD00007808002070B515464C
:104C10000E460446FFF744FF94F944100020491C57
:104C200001D184F8440094F94510491C01D184F85D
:104C30004500FFF755FFA06B28B92A46314604F11D
:104C4000240000F0EDF82046BDE87040FFF7D2BC2C
:104C500010B5020014D00F48006B38B1502080F31B
:104C60001188BFF34F8FBFF36F8FFEE700F038F965
:104C700000211046FFF738F900F09AFD002807D10F
:104C800005494FF080500860BFF34F8FBFF36F8F1F
:104C900010BD00003400002004ED00E070B50D46AA
:104CA00004000BD095B11E4A106BB8B1502080F3B0
:104CB0001188BFF34F8FBFF36F8FFEE7502080F353
:104CC0001188BFF34F8FBFF36F8FFEE7502080F343
:104CD0001188BFF34F8FBFF36F8FFEE700F000F92D
:104CE000D26823685919934204D98B420AD9914258
:104CF00002D807E08B42FAD9881A21600021FFF719
:104D0000F3F800E0216000F053FD002807D10549C9
:104D10004FF080500860BFF34F8FBFF36F8F70BDAF
:104D20003400002004ED00E070B50546FFF7B8FE42
:104D3000244C05B92568281DFFF756FE58B9E86AC6
:104D4000214A00EB800152F8211021B90121814054
:104D5000206988432061A86A18B105F11800FFF79F
:104D600043FE606A401C60622068854207D1291DAD
:104D70001648FFF789FE6068401C606007E0A06885
:104D8000401EA0602846FFF7C4F9FFF7B3FBFFF70A
:104D9000A7FE6069002814D02068854211D1206BDD
:104DA00038B1502080F31188BFF34F8FBFF36F8F5E
:104DB000FEE707494FF080500860BFF34F8FBFF305
:104DC0006F8F70BD34000020B8080020740B0020E5
:104DD00004ED00E002490A6A0260C9684160704758
:104DE0003400002001490120C861704734000020D0
:104DF00010B50C4650B1094909681831FFF72CFE6F
:104E00002046BDE810400121FFF76EB8502080F326
:104E10001188BFF34F8FBFF36F8FFEE73400002080
:104E200070B514460D4668B10A4909681831FFF794
:104E30002BFE0CB14FF0FF3521462846BDE87040EF
:104E4000FFF752B8502080F31188BFF34F8FBFF3A4
:104E50006F8FFEE73400002030B587B00024039444
:104E600005AA04A903A80494FFF7D2FDDDE9030114
:104E70000094CDE90110002315A11748059A00F010
:104E80006AFB164D0028E8621FD000F0F3FC0128F1
:104E900009D0401C19D1502080F31188BFF34F8FE7
:104EA000BFF36F8FFEE7502080F31188BFF34F8F61
:104EB000BFF36F8F4FF0FF30A86201206861EC6094
:104EC00007B0BDE8304000F041B807B030BD000089
:104ED00049444C4500000000954100083400002082
:104EE0000248016B491C0163704700003400002038
:104EF0001448016B11B10121C16170470021C161EA
:104F00000169B1FA81F1C1F11F0101EB81020E4982
:104F100051F822306BB101EB820101F108034A68BC
:104F200052684A609A4201D152684A60D168016071
:104F30007047502080F31188BFF34F8FBFF36F8FFE
:104F4000FEE7000034000020B80800201CB53748F8
:104F50000168374A914207D1502080F31188BFF38E
:104F60004F8FBFF36F8FFEE700683149491E8842BB
:104F700007D1502080F31188BFF34F8FBFF36F8F9D
:104F8000FEE72C4908780190FF20087008788DF81A
:104F900000009DF800009DF8002000F0F000904215
:104FA00007D0502080F31188BFF34F8FBFF36F8F6E
:104FB000FEE79DF80000204C00F050002070072014
:104FC000A06005E09DF8002052008DF80020401EF2
:104FD0009DF800201206F5D4A060032807D05020C9
:104FE00080F31188BFF34F8FBFF36F8FFEE74FF44D
:104FF0004070A060019808700C482030016841F4AE
:1050000070010160016841F070410160FFF7AEFD81
:1050100000206060FBF7EEF80848016841F040416D
:105020000160FBF7D3F800201CBD000000ED00E09C
:1050300071C20F4100E400E0A400002034EF00E062
:1050400038B5049D18B153B1CAB181B120E05020E8
:1050500080F31188BFF34F8FBFF36F8FFEE75020AF
:1050600080F31188BFF34F8FBFF36F8FFEE750209F
:1050700080F31188BFF34F8FBFF36F8FFEE739B115
:10508000502080F31188BFF34F8FBFF36F8FFEE77F
:1050900048241C46012384F846302B460094FFF731
:1050A000A9F8204638BD000070B50D46040025D093
:1050B000FFF7F6FCD4E90F20216802FB0011A16084
:1050C0000021A163216861600A46D4E90F01401EF6
:1050D00000FB0121E16021464FF0FF3001F8440F51
:1050E000487004F110008DB1FFF7A8FC04F1240012
:1050F000FFF7A4FCFFF7F4FC012070BD502080F303
:105100001188BFF34F8FBFF36F8FFEE7216900292E
:10511000F0D000F011FB0028ECD004494FF0805093
:105120000860BFF34F8FBFF36F8FE3E704ED00E03C
:105130002DE9FF4782B01D468A464FF00008040063
:1051400003D0BAF1000F08D011E0502080F311888D
:10515000BFF34F8FBFF36F8FFEE7206C38B1502045
:1051600080F31188BFF34F8FBFF36F8FFEE7022DDF
:105170000AD1E06B012807D0502080F31188BFF3DB
:105180004F8FBFF36F8FFEE700F010FA3F4F4FF0E5
:1051900000094FF0805648B9049838B1502080F388
:1051A0001188BFF34F8FBFF36F8FFEE7FFF778FCD7
:1051B000A06BE16B884207D3022D05D00498D0B1D3
:1051C000B8F1000F1AD01EE02A4651462046FEF7DD
:1051D0006AFF616A19B104F1240000F0ADFA20B150
:1051E0003E60BFF34F8FBFF36F8FFFF779FC012055
:1051F00006B0BDE8F087FFF773FC22E06846FFF7D2
:10520000E9FD4FF00108FFF76BFCFFF769FEFFF7C0
:1052100047FC94F94400401C01D184F8449094F96F
:105220004500401C01D184F84590FFF759FC04A9C2
:10523000684600F029F930B12046FFF7DBF900F0AD
:10524000B7FA0020D4E7FFF72BFCA06BE16B884294
:1052500013D1FFF745FC04F110000499FFF7C8FDD6
:105260002046FFF7C7F900F0A3FA00289ED13E6060
:10527000BFF34F8FBFF36F8F98E7FFF731FC2046E6
:10528000FFF7B8F900F094FA90E7000004ED00E0B1
:105290002DE9F0471F4690468946040003D0B9F136
:1052A000000F08D011E0502080F31188BFF34F8F1A
:1052B000BFF36F8FFEE7206C38B1502080F3118868
:1052C000BFF34F8FBFF36F8FFEE7022F0AD1E06B62
:1052D000012807D0502080F31188BFF34F8FBFF310
:1052E0006F8FFEE7FFF754FC5020EFF3118680F339
:1052F0001188BFF34F8FBFF36F8FA06BE16B8842B4
:1053000006D3022F04D0002086F31188BDE8F08771
:1053100094F94550A06B3A4649462046FEF7C3FE35
:10532000681C04D06D1C84F845500120ECE7606ACD
:105330000028FAD004F1240000F0FEF90028F4D08F
:10534000B8F1000FF1D00121C8F80010EDE700001E
:105350002DE9F747002683B08A46040003D0BAF14E
:10536000000F08D011E0502080F31188BFF34F8F59
:10537000BFF36F8FFEE7206C38B1502080F31188A7
:10538000BFF34F8FBFF36F8FFEE700F00FF9DFF829
:10539000F4804FF000094FF0805748B9059838B1B4
:1053A000502080F31188BFF34F8FBFF36F8FFEE75C
:1053B000FFF776FBA56BC5B151462046FEF760FEB0
:1053C0006D1EA563206950B104F1100000F0B4F91E
:1053D00028B1C8F80070BFF34F8FBFF36F8FFFF78E
:1053E0007FFB012006B0BDE8F087059808B11EB12B
:1053F00006E0FFF775FB27E06846FFF7EBFC0126A8
:10540000FFF76EFBFFF76CFDFFF74AFB94F94400D2
:10541000401C01D184F8449094F94500401C01D10E
:1054200084F84590FFF75CFB05A9684600F02CF86E
:10543000002820460AD0FFF7DDF800F0B9F9204631
:10544000FEF772FF0028B3D00020CBE7FEF76CFF19
:1054500090B104F124000599FFF7CAFC2046FFF73C
:10546000C9F800F0A5F90028A2D1C8F80070BFF370
:105470004F8FBFF36F8F9BE72046FFF7BBF800F01D
:1054800097F995E704ED00E02DE9F0410C460500A1
:1054900011D0C4B1FFF704FB174BDA686E682068BF
:1054A000911B471C17D02F681B6A9F4219D0964248
:1054B00017D8012410E0502080F31188BFF34F8FDC
:1054C000BFF36F8FFEE7502080F31188BFF34F8F3B
:1054D000BFF36F8FFEE70024FFF702FB2046BDE815
:1054E000F081884205D9401A20602846FFF772FCF7
:1054F000F1E700202060DCE7340000202DE9FF5FA9
:105500008346DDE90E87994616468A469000FFF7E6
:10551000A7F805001CD05420FFF7A2F8040014D00F
:105520000020256384F85100CDE90240CDE90087D1
:105530004B46324651465846FEF767FE2046FEF778
:105540000BFD012004B0BDE8F09F2846FFF7DCFA10
:105550004FF0FF30F6E7F0B585B0DDE90B640A9D4A
:10556000A6B1DCB1542700972663022684F8516067
:10557000002604AFCDE90246CDE90057FEF745FE0F
:105580002046FEF7E9FC049805B0F0BD502080F3FA
:105590001188BFF34F8FBFF36F8FFEE7502080F36A
:1055A0001188BFF34F8FBFF36F8FFEE70548416946
:1055B00019B1006B18B1002070470120704702201C
:1055C00070470000340000200148C06870470000A8
:1055D000340000202DE9F0412F4C0026206B28B12B
:1055E000A069401CA0613046BDE8F081E5686D1CF3
:1055F000E56013D1606B006838B1502080F31188EA
:10560000BFF34F8FBFF36F8FFEE7606BA16B6163DA
:10561000A063206A401C2062FEF76CFFA06ADFF8DE
:105620007C80854209D3606B0068A0B1606BC06864
:10563000C7687868854211D2A0622068C06A00EB12
:10564000800158F82100012800D90126E0690028CE
:10565000C9D00126C7E74FF0FF30EDE7381DFFF74F
:10566000C3F9B86A18B107F11800FFF7BDF9F96A74
:105670000120226988401043206101EB810108EB81
:105680008100391DFFF700FAF86A2168C96A88426B
:10569000C9D30126C7E7000034000020B808002065
:1056A00070B504004FF0000140D0214D28688442BD
:1056B00007D0502080F31188BFF34F8FBFF36F8F57
:1056C000FEE7A06C38B1401EA064636CE26A9A42A7
:1056D0002CD040B12AE0502080F31188BFF34F8FC7
:1056E000BFF36F8FFEE7201DFFF77EF9114A0121FE
:1056F00050B9E06A00EB800352F8233023B92B69DC
:1057000001FA00F083432B61606CE062C0F120007D
:10571000A061E06A2B6981401943296100EB800098
:1057200002EB8000211DFFF7AFF90121084670BD93
:1057300034000020B80800202DE9F041C068C4689A
:10574000ACB104F118000746FFF74EF9154D286B70
:105750000126A0B139461448FFF796F9E06A296896
:10576000C96A88421BD90120EE61BDE8F081502052
:1057700080F31188BFF34F8FBFF36F8FFEE7201DBB
:10578000FFF732F9E16A2A6906FA01F0104328614D
:1057900001EB8100054901EB8000211DDCE70020C1
:1057A000E3E7000034000020600B0020B808002070
:1057B0002DE9F0472C4D00242746286B38B1FFF720
:1057C0006FF9286B401E2863286B40B146E05020DB
:1057D00080F31188BFF34F8FBFF36F8FFEE7A96887
:1057E000224E0120D1B3A6F52A7980463068E8B16F
:1057F000F068C46804F11800FFF7F6F8201DFFF701
:10580000F3F8E06A2A6908FA00F11143296100EB14
:10581000800109EB8100211DFFF736F9E06A296854
:10582000C96A8842E2D3C5F81C80DFE70CB1FEF7F5
:1058300061FEAC6944B14646FFF7CCFE00B1EE61B3
:10584000641EF9D10020A861E86938B10849012730
:1058500038070860BFF34F8FBFF36F8FFFF740F932
:105860003846BDE8F087000034000020600B0020BF
:1058700004ED00E010B586B0FEF7D6FB114C2068B1
:10588000B8B100200390049005AA04A903A8FFF76B
:10589000C9F8DDE9032102208DE8070000230AA1F1
:1058A0000B48059AFFF757FE606010B106B0012063
:1058B00010BD502080F31188BFF34F8FBFF36F8F5F
:1058C000FEE7000070000020546D722053766300E4
:1058D000D1450008FEB51E4613460200089D4FF054
:1058E000000014D0124C2768002F0FD0CDE9001310
:1058F0000292062915DAFFF759FE02284FF000033D
:105900000DD0002269462068FFF712FCFEBD502032
:1059100080F31188BFF34F8FBFF36F8FFEE72A46E6
:10592000F0E70023324669463846FFF7B1FCFEBD7A
:1059300070000020000000000000000001020304CD
:10594000060708090000000001020304000000002F
:105950000000000000000000000004040404040033
:105960000004000014140A00000000000000000001
:1059700000000A0A1F0A0A1F0A0A000000040E1586
:1059800005060C14150E0400000012150D152E2C22
:105990002A1200000000040A0A3615152916000014
:1059A00002020100000000000000000010080804CE
:1059B0000404040408081000020404080808080885
:1059C0000404020000000004150E0E15040000007F
:1059D00000000008083E0808000000000000000069
:1059E000000000000202010000000000003F000073
:1059F00000000000000000000000000000020000A5
:105A000000201010080804040202010000000E111A
:105A100011111111110E0000000004060404040409
:105A2000040E000000000E1111080402011F000006
:105A300000000E11100C1010110E00000000080CD8
:105A40000C0A091F081C000000001F01010F1110A3
:105A5000110E000000000C12010D1311110E0000B8
:105A600000001E10080804040404000000000E11C9
:105A7000110E1111110E000000000E111119161057
:105A800009060000000000000400000000040000FF
:105A900000000000000400000004040000001008E2
:105AA0000402020408100000000000003F003F0054
:105AB00000000000000002040810100804020000AA
:105AC00000000E11110804040004000000001C2254
:105AD000292D2D1D221C0000000004040C0A0A1EA2
