:020000040800F2
:10000000B84D00206D020008C52C00085F250008CF
:10001000012C0008450C00085536000800000000BF
:10002000000000000000000000000000AD0100081A
:100030001D0D00080000000009020008E12F000863
:10004000870200088702000887020008870200086C
:10005000870200088702000887020008870200085C
:10006000870200088702000887020008870200084C
:10007000870200088702000887020008870200083C
:1000800087020008870200088702000800000000BD
:1000900000000000000000000000000087020008CF
:1000A00087020008B13000088702000887020008B4
:1000B00087020008870200088702000887020008FC
:1000C00087020008870200088702000887020008EC
:1000D00087020008013600088702000800000000BF
:1000E000870200088702000887020008000000005D
:1000F000000000000000000000000000870200086F
:10010000000000008702000887020008870200083C
:1001100000000000000000000000000000000000DF
:10012000870200088702000887020008870200088B
:10013000870200080000000000000000000000002E
:10014000000000000000000000000000870200081E
:10015000870200088702000887020008870200085B
:10016000870200088702000800000000000000006D
:10017000000000000000000000000000000000007F
:1001800000000000870200080000000000000000DE
:1001900087020008DFF810D000F06CFC0048004730
:1001A00089580008AFF30080B84D00202C4B196827
:1001B0000868B0E8F04F80F30988BFF36F8F4FF005
:1001C000000080F3118870470000000008480068B4
:1001D000006880F308884FF0000080F3148862B64E
:1001E00061B6BFF34F8FBFF36F8F00DF00BF00BF5B
:1001F00008ED00E0DFF80C00016841F470010160D7
:10020000704700BF88ED00E0EFF30980BFF36F8F08
:10021000134B1A681EF0100F08BF20ED108A20E95A
:10022000F04F106009B44FF0500080F31188BFF315
:100230004F8FBFF36F8F06F0E5FD4FF0000080F3A6
:10024000118809BC19680868B0E8F04F1EF0100F5B
:1002500008BFB0EC108A80F30988BFF36F8F704736
:1002600030000020EFF3058070470000064880470B
:1002700006480047FEE7FEE7FEE7FEE7FEE7FEE78B
:10028000FEE7FEE7FEE7FEE7A13000089501000863
:100290002DE9F05F0546002092469B4688460646BB
:1002A000814640241BE0284641464746224600F04E
:1002B00068FA53465A46C01A914110D3114618465F
:1002C000224600F04FFA2D1A67EB01084F462246EE
:1002D0000120002100F046FA17EB00094E41201ED4
:1002E000A4F10104DFDC484631462A464346BDE816
:1002F000F09F40EA01039B0703D009E008C9121FE1
:1003000008C0042AFAD203E011F8013B00F8013BCF
:10031000521EF9D27047D2B201E000F8012B491EFB
:10032000FBD270470022F6E710B513460A46044692
:100330001946FFF7F0FF204610BD2DE9FE4F80461D
:1003400081EA0300C00F0C46009021F0004123F029
:100350000045B8EB0200A94105D24046214690462F
:100360001C460B46024623F00040104347D0270DA1
:10037000C7F30A00C3F30A510290401A01904028C3
:100380006BDAC3F3130040F4801B0098924620B14F
:100390000023D2EB030A63EB0B0B01985946C0F123
:1003A0004002504600F0DEF906460D4650465946DA
:1003B000019A00F0F6F910EB08006141002487EA89
:1003C000115284EAE7731A4340D0009A62B3019A4B
:1003D000012A4FEA075215DC001B61EB02014FF0C6
:1003E000004202EA0752CDE90042001C41F58011AB
:1003F00032462B4600F02DFA03B0BDE8F08F4046A0
:100400002146F9E7001B61EB0201001C41F5801356
:1004100000185B412018A2F5001747EB030140EAE2
:10042000D570B6196D4111E06D084FEA360645EA00
:10043000C0754FEA0752001B61EB0201001C41F539
:10044000801149084FEA30000019514132462B46CD
:1004500003B0BDE8F04F00F0EDB900980122400074
:100460000023D0EB020263EBE073009821464FEAD1
:10047000E074B8EB000061EB0401E9E783F00043AE
:100480005BE781F0004158E72DE9FE4F81EA030464
:1004900004F0004421F0004100944FF0000B23F0E1
:1004A000004350EA01045ED052EA03045BD0C3F378
:1004B0000A54C1F30A552C44A4F2F3340194A0FB6E
:1004C0000254C1F3130141F48011C3F3130343F445
:1004D000801301FB024400FB034E840A970A44EA9E
:1004E000815447EA8357A4FB076802958D0A05FBF0
:1004F00007854FEA932C04FB0C542705029D4FEA15
:10050000065847EA1637B5EB08056EEB070C870E61
:10051000920E47EA811742EA8312A7FB0201B6EB6B
:100520000B0164EB00042B0D43EA0C335E1844EB23
:100530001C50DA465146E7FB0201C5F313044FEAAB
:100540000B3343EA14534FEA0432019C43EA060397
:10055000A4F10C040294009CCDE900B400F079F9F8
:1005600003B0BDE8F08F00200146F9E72DE9F04D1A
:1005700081EA030404F0004B21F0004514464FF0DB
:10058000000A23F0004150EA050220D054EA01029B
:100590001DD0C5F30A570246C5F31303C1F3130078
:1005A000C1F30A5640F4801543F48013A7EB060804
:1005B000101BD64608F2FD3873EB050002D308F194
:1005C000010801E092185B41B8F1000F03DA002046
:1005D0000146BDE8F08D00204FF4801106468446A8
:1005E0000EE0171B73EB050705D3121B63EB050326
:1005F00006434CEA010C49084FEA300092185B416F
:1006000050EA0107EDD152EA030012D082EA040059
:1006100083EA0501084305D0101BAB4106D2012235
:10062000002306E000224FF0004302E06FF00102D9
:1006300053101AEB06004CEB085110EB0A0041EB8B
:100640000B01BDE8F04D00F0F5B80EB5C10F80EA22
:10065000E0700844CA07002140F233438DE80E00E1
:100660000A460B4600F0F5F803B000BD70B5C1F3C3
:100670000A5201F000450024C1F3130140F2FF3398
:1006800041F480119A4201DA002070BD40F23343F8
:100690009A42A2F2334203DC524200F072F800E0C8
:1006A00090402C43F1D0404270BD00F0004230F049
:1006B00000400AD0C10D01F56071C0F3160042EA96
:1006C0000151C2084007114370470020014670479E
:1006D00030B5041E71F1000404DB4FF000444042C9
:1006E00064EB0101141E73F1000405DB1C464FF09E
:1006F0000043524263EB0403994208BF904230BD6D
:1007000001F0004330B421F0004150EA010206D06C
:100710000A0DA2F56072C1F31301002A02DC30BC9D
:1007200000207047440F44EAC104C100E01830BC07
:1007300000EBC25000F047B830B50B460146002030
:100740002022012409E021FA02F59D4205D303FA93
:1007500002F5491B04FA02F52844151EA2F1010214
:10076000F1DC30BD202A04DB203A00FA02F100203F
:1007700070479140C2F1200320FA03F319439040DF
:100780007047202A04DB203A21FA02F0002170474A
:1007900021FA02F3D040C2F12002914008431946E9
:1007A0007047202A06DBCB17203A41FA02F043EAD1
:1007B000E07306E041FA02F3D040C2F1200291401A
:1007C0000843194670470029A8BF7047401C4900DC
:1007D00008BF20F00100704710B4B0FA80FC00FAA6
:1007E0000CF050EA010404BF10BC704749B1CCF1D1
:1007F000200421FA04F411FA0CF118BF012121435D
:100800000843A3EB0C01CB1D4FEA00614FEA102017
:1008100042BF002010BC704700EBC35010440029B9
:10082000A4BF10BC7047401C490008BF20F0010065
:1008300010BC704710B5141E73F1000408DA401C98
:1008400041F1000192185B411A4301D120F00100EF
:1008500010BD2DE9F04D92469B4611B1B1FA81F2DF
:1008600002E0B0FA80F220329046FFF77BFF0446A8
:100870000F4640EA0A0041EA0B0153465A46084334
:1008800013D0114653EA010019D0C8F14002504676
:10089000FFF777FF05460E46504659464246FFF79A
:1008A00061FF084305D0012004E020463946BDE839
:1008B000F08D0020054346EAE0762C4337430A9842
:1008C0006305E40AA0EB08000022FD0A44EA47544D
:1008D0000A3002D500200146E9E7010510196941F7
:1008E000DDE9084500196941BDE8F04DA2E770B5A2
:1008F00021F0004303430CD0C1F30A550024D5EB8B
:10090000040564EB0403D617AD1AB34102DB0020E3
:10091000014670BD201841EB025170BD2DE9F04D2C
:1009200000231A461B1A8A4103DB00200146BDE85A
:10093000F08DC1F30A52C1F3130141F480154FF059
:10094000000BD10702D100186D41521E002704464A
:1009500040F2FF11384601EB620A3E4680460246ED
:1009600000204FF48011FFF70CFFC2197141BB1832
:1009700046EB0100B4EB030C75EB000C04D3E41A56
:1009800065EB000517460E46241908F101006D417C
:1009900080463428E3DDF91946EB0600091BA8411F
:1009A00003D24FF0FF32134601E0002213461BEB47
:1009B000070046EB0A51BDE8F04DFFF73BBF2DE9BC
:1009C000FE4FC3F30A5701F000450024C1F30A5655
:1009D000C3F31303C1F3130143F4801312EB020AB0
:1009E000A64641F48011009543EB030CA7F1010BDF
:1009F00016E0B0EB0A0061EB0C01071E71F1000775
:100A000007DA4FF00008D0EB080085F0004568EBEE
:100A10000101171A73EB0107EBD3761E0018494149
:100A20005E45F6DA50EA010209D0CDE900E5002280
:100A300013460296FFF70DFF03B0BDE8F08F204686
:100A40000099F9E7C1F30A52C1F3130140F2FF33F1
:100A500041F480119A4202DA00200146704740F2C8
:100A600033439A42A2F2334202DC5242FFF789BE7C
:100A7000FFF778BE064C074D06E0E06840F0010342
:100A800094E8070098471034AC42F6D3FFF786FB92
:100A9000C07C0008E07C000830B58C1810F8012BF1
:100AA00012F00F0301D110F8013B120906D110F822
:100AB000012B03E010F8015B01F8015B5B1EF9D12B
:100AC00001E001F8013B521EFBD1A142E6D3002018
:100AD00030BD08B506F05AFD00900221684606F0C8
:100AE00067F8FAE77CB505F065FF022022490402A9
:100AF000CDE900010023224620A1234806F0E0FCB6
:100B0000012802D121A002F0A7FD1B480525001DE8
:100B1000CDE900500023224623A1284806F0D0FC4E
:100B2000012802D126A002F097FD134903200C31C1
:100B3000CDE90001002322462BA12E4806F0C0FC7F
:100B4000012802D12CA002F087FD0B4800230830B9
:100B5000CDE9005022462FA1314806F0B1FC012812
:100B600002D130A002F078FD0348406906F066F833
:100B7000BDE87C4005F03EBF000000204C45445FCE
:100B80005461736B00000000E9280008B4B4BDA8EC
:100B9000204C45445F5461736B20C8CECEF1B3C97D
:100BA000B9A6210A0A000000436C6F7365646C6F7C
:100BB0006F705F464F435F5461736B00490C0008D0
:100BC000B4B4BDA820436C6F7365646C6F6F705FC5
:100BD000464F435F5461736B20C8CECEF1B3C9B9A1
:100BE000A6210A0A0000000055534152545F546187
:100BF000736B00000D360008B4B4BDA820555341F6
:100C000052545F5461736B20C8CECEF1B3C9B9A6FC
:100C1000210A0A004153353630305F5461736B004E
:100C2000D30A0008B4B4BDA8204153353630305F34
:100C30005461736B20C8CECEF1B3C9B9A6210A0A9C
:100C400000000000FEE7000008B501F011FF22A03F
:100C500002F002FD4FF47A7005F084FF01F0BAFF54
:100C60002048B2EE080A204980ED000A07200860FB
:100C70001E48B1EE080A204980ED000A1C48B3EE78
:100C8000040A204C80ED000A1A48B0EE040A80EDF8
:100C9000000A00200870194901209FED190A087008
:100CA00084ED060A01F0AEFF01F0DEFF02F070F8FD
:100CB00015A002F0D1FC01220421174800F07CF9B4
:100CC00094ED060A04F006FE04F09AFD032168463E
:100CD00005F06EFFF4E700004153353630300D0A61
:100CE00000000000B0000020BC000020B400002084
:100CF000C4000020B8000020F0000020F100002017
:100D000000000000000000204D6F746F72207265BB
:100D10006164792E0D0A000000040240704772B62B
:100D2000FEE72DE9F0410446876D00F04BF90646D9
:100D300094F835000025022806D08020606584F8EC
:100D400034500120BDE8F0812068016821F01601CF
:100D500001602068416921F080014161206C08B97F
:100D6000A06C20B12068016821F0080101602068B2
:100D7000016821F0010101600CE000F023F9801B03
:100D8000052807D920206065032084F8350084F801
:100D90003450D7E720680068C007EED194F85C10A3
:100DA0003F208840B860012084F8350084F8345032
:100DB0000020C7E790F83510022903D08021416553
:100DC00001207047052180F835100068016821F086
:100DD00001010160002070472DE9F84FDFF8B8A14C
:100DE0000022012403254FF00F090AF1040BAAF198
:100DF000040E00BF0B6804FA02F63340B34273D10D
:100E00000F7907F00307012F01D0022F16D1876851
:100E10004FEA420805FA08FC27EA0C07D1F80CC093
:100E20000CFA08FC4CEA070CC0F808C04768B74346
:100E30000E79C6F3001696403E4346600E79F6439F
:100E4000B6070DD0C768560005FA06FC27EA0C075E
:100E5000D1F808C00CFA06FC4CEA070CC0F80CC02C
:100E60000E7906F00306022E10D1D60800EB860894
:100E7000D8F8206057074FEAD76C09FA0CF7BE4341
:100E80000F6907FA0CF73743C8F8207006684FEA75
:100E9000420C05FA0CF7BE430F7907F0030707FA77
:100EA0000CF7374307604E6816F4403F6DD03B4E59
:100EB000376847F480473760366822F0030706F446
:100EC00080460096364E07EB060CDCF8086897075C
:100ED0003F0F09FA07F826EA0806DFF8C880404500
:100EE00003D14FF000081EE04FE0DFF8BC80404522
:100EF00002D14FF0010816E0DFF8B080404502D182
:100F00004FF002080FE0DFF8A880404502D14FF013
:100F1000030808E0DFF89C80404502D14FF0040848
:100F200001E04FF0070808FA07F848EA0608CCF88D
:100F30000888DAF800605746D1F804C09E435FEA9B
:100F4000CC2C00D51E433E60DBF800605F46D1F834
:100F500004C09E435FEA8C2C00D51E433E60DEF841
:100F600000607746D1F804C09E435FEA8C3C00D510
:100F70001E433E60084F083F3E68D1F804C09E43C0
:100F80005FEACC3C00D51E433E60521C102AFFF4A1
:100F900031AFBDE8F88F0000083C01404438024002
:100FA00000300140000002400004024000080240FE
:100FB000000C0240001002400AB181617047090430
:100FC000FBE7000001488068704700002000002017
:100FD00070B5040025D094F83D00002520B984F8B0
:100FE0003C50204600F0BAF9242084F83D002068E7
:100FF000016821F0010101602068016841F40041AD
:1010000001602068016821F40041016000F080FB6C
:101010004D4A6168914201D84C4900E04C498842F0
:1010200001D2012070BD4B492368B0FBF1F15E682D
:1010300026F03F060E435E606368934206D94FF484
:10104000967359434FF47A73B1FBF3F12368491C4B
:101050001E6A26F03F06314319626168914210D83A
:101060004900401EB0FBF1F2521CC2F30B02042AED
:1010700001D2042022E0B0FBF1F0401CC0F30B00D1
:101080001CE0A268F2B301EBC10303EB0116431E9F
:10109000B3FBF6F35B1C43F480431B0549D092B3CA
:1010A00001EBC10202EB0111401EB0FBF1F0401C4C
:1010B000C0F30B0040F4804040F400402168CA694E
:1010C0004CF6FF739A431043C861D4E907100143FB
:1010D0002068026822F0C00211430160D4E90301D4
:1010E00001432068826848F2FF339A4311438160CC
:1010F000D4E9050108432168CA6822F0FF021043C1
:10110000C86001E00EE016E02068016841F00101CE
:1011100001602564202084F83D00256384F83E505A
:10112000002070BD01EB4106431EB3FBF6F35B1CD0
:10113000B3E70120C2E701EB4101401EB0FBF1F033
:10114000401CC0F30B00B7E7A086010080841E009E
:1011500000093D0040420F002DE9FF4F83B09A4641
:10116000DDE9118793460446DDF84090FFF72AFF3A
:10117000054694F83D00202870D1192301227449B6
:101180002046009501F082FA0028F5D194F83C0041
:10119000012863D0012084F83C0020680168C90759
:1011A00003D1016841F0010101602068016821F468
:1011B00000610160222084F83D00402084F83E0058
:1011C00000262664C4F82490A4F82A80608D208527
:1011D0006048E062CDE9007553465A4620460499BE
:1011E00001F0D6F9002879D1208DD0B1012821D085
:1011F0000228206824D0416980690090208D03284E
:1012000066D801282BD0544902283B464FF00002F3
:10121000009557D08846204601F038FA00285DD165
:101220003AE02068416981690091016841F40071E8
:1012300001607DE02068016821F480610160F0E7D1
:10124000016821F4806101602068016841F4006157
:101250000160206841698069009069E075E02A4674
:101260003946204601F0B8FA88BB54E0206801688E
:1012700041F40071016020680069616A0870606A69
:10128000401C6062218D491E2185618D491E61854A
:1012900021680969017042E02068016821F48061D9
:1012A000016020680069616A0870606A401C6062C1
:1012B000208D401E2085608D401E60853B460022AB
:1012C00041460095204601F0E1F900B9CEE705E07E
:1012D0002A463946204601F07FFA18B1012007B0AE
:1012E000BDE8F08F20680069616A0870606A401C80
:1012F0006062208D401E81B22185608D401E608518
:1013000020684269D243520712D4032903D10168ED
:1013100021F48061016020680069616A0870606A78
:10132000401C6062208D401E2085608D401E6085BF
:10133000208D00287FF462AF202084F83D0084F8DF
:101340003E6084F83C600020C9E70220C7E7000047
:10135000020010000000FFFF0400010070B586B01D
:10136000044614216846FEF7DDFF1D4920688842C7
:1013700034D11C480024016841F00101016001687A
:1013800001F001010591016841F00201016000686E
:10139000122500F0020005904FF48070CDE90005A1
:1013A000032602940420CDE9036069460E48FFF746
:1013B00013FD1020CDE9000502940920CDE903605A
:1013C00069460A48FFF708FD06481030016841F4F5
:1013D00000010160006800F40000059006B070BDD7
:1013E000005C00403038024000000240000402402F
:1013F0000248816802781144816070472000002013
:101400000B4810B5016841F400710160016841F4B6
:1014100080610160016841F480710160032000F087
:1014200099F80F2000F006F800F04AF8002010BDEF
:10143000003C024030B505461C4887B000240168D6
:1014400041F001010160006806A900F00100009070
:1014500001A800F03DF900F06BF91549154AB0FB01
:10146000F1F11548491E026040F2E732C0E9032459
:10147000C0E90114846100F093FB040012D10E480E
:1014800000F0D0FB04000DD1192000F035F8102D2C
:1014900007D200222946192000F03CF807480560D1
:1014A00000E0012407B0204630BD0000443802406F
:1014B00040420F0000000140CC0800202400002022
:1014C0000C4882B0016841F480410160006800F47A
:1014D000804000900748001F016841F08051016082
:1014E0000068002200F0805000900F21901E02B092
:1014F00000F010B844380240002809DB00F01F0259
:10150000012191404009800000F1E020C0F8001165
:1015100070470000F0B40E4B1B680C46C3F3022367
:10152000C3F10705042D00D90425191D072901D28F
:10153000002300E0DB1E012606FA05F1491E2140CA
:1015400099409E40761E16403143F0BC02F0ACB884
:101550000CED00E0064900F0070208684FF6FF03B3
:10156000184040EA0220034A104308607047000018
:101570000CED00E00000FA05BFF34F8F054801684D
:10158000054A01F4E06111430160BFF34F8F00BFD2
:10159000FDE700000CED00E00400FA052DE9F0473E
:1015A0000E46050065D0DFF81481D8F80000F7B2C8
:1015B00000F00700B04207D288F80070D8F80000A9
:1015C00000F00700B04254D128683D4C810712D585
:1015D000400703D5206840F4E050206028780007D9
:1015E00003D5206840F4604020602068A96820F09E
:1015F000F000084320602878C0072DD03049686883
:101600000839012812D0022813D0032811D0096804
:10161000890700292DDA216821F0030101432160A7
:10162000FFF7D0FC814641F2883A0EE00968890351
:10163000EFE709688901ECE7FFF7C4FCA0EB0901BB
:10164000514502D90320BDE8F0872068696800F0A1
:101650000C00B0EB810FEFD1D8F80010404601F03C
:101660000701B14207D90770006800F00700B042D7
:1016700001D00120E7E72878400705D52068E96810
:1016800020F4E050084320602878000706D5206841
:10169000296920F4604040EAC100206000F058F859
:1016A0002168084AC1F30311515CC840064908602B
:1016B00006480068FFF7BEFE0020C4E7003C024079
:1016C00008380240F87800082C0000202400002090
:1016D0000F2202600C4A136803F00303436013688F
:1016E00003F0F0038360136803F4E053C3601268EF
:1016F0004FF4E05303EAD20202610448006800F0AC
:10170000070008607047000008380240003C0240B3
:101710000448054900680968044AC1F38221515C04
:10172000C84070472C0000200838024008790008A3
:101730000448054900680968044AC1F34231515C14
:10174000C84070472C000020083802400879000883
:10175000154810B5006810F00C02144813D0144955
:10176000042A0FD0082A0ED10F4C241F22682368A8
:1017700002F03F025B0207D52068C0F38810A0FB8F
:10178000010106E0084610BD2168C1F38811A1FBE4
:1017900000010023FEF77CFD2168C1F30141491CD3
:1017A0004900B0FBF1F010BD083802400024F400FD
:1017B00040787D012DE9F84F04006ED02078DFF8E5
:1017C0004C93C007A9F104054AD009F1040001684F
:1017D000C1F38101012908D00068C0F3810002280B
:1017E0000AD1D9F80000400206D52868800337D511
:1017F00060680028E1D033E06068B0F5803F10D029
:10180000B0F5A02F286810D020F480302860286818
:1018100020F4802028606068A8B1FFF7D3FB06465B
:101820000DE0286840F48030F4E740F48020286020
:10183000F7E700BFFFF7C6FB801B642873D8286852
:101840008003F7D50CE0FFF7BDFB064605E000BFBF
:10185000FFF7B8FB801B6428F0D828688003F7D412
:101860002078DFF8AC8280074FF0000A3ED5A74809
:10187000001D016811F00C0F08D00068C0F3810052
:1018800002280BD1D9F80000400207D4286880074D
:1018900016D5E068012800D112E033E1E068B8B164
:1018A0000120C8F80000FFF78DFB064605E000BFE9
:1018B000FFF788FB801B0228C0D828688007F7D56F
:1018C0002868216920F0F80040EAC10028600DE096
:1018D000C8F800A0FFF776FB064604E0FFF772FBAE
:1018E000801B02281FD828688007F7D420780007BB
:1018F00022D5864F87486169703771B10121016037
:10190000FFF760FB064604E0FFF75CFB801B022844
:1019100009D838688007F7D50EE0C0F800A0FFF7B7
:1019200051FB064605E082E0FFF74CFB801B0228D6
:101930007DD838688007F7D42078400768D5DFF86D
:10194000CCB100270BF13C0BDBF80000C0000BD43E
:10195000DBF8001041F08051CBF80010DBF80000FC
:10196000012700F0805000906B4E3068C00510D405
:10197000306840F480703060FFF724FB009005E091
:10198000FFF720FB0099401A022850D83068C005A4
:10199000F6D55E4EA0686C3601280FD00528306859
:1019A00010D020F001003060306820F0040030607A
:1019B000A068B8B1FFF706FB00900FE0306840F078
:1019C0000100F4E740F004003060F7E7FFF7FAFAAF
:1019D0000099411A41F28830814266D83068800708
:1019E000F4D50EE0FFF7EEFA009007E0FFF7EAFA11
:1019F0000099411A41F28830814256D830688007F8
:101A0000F4D42FB1DBF8001021F08051CBF8001096
:101A1000A069C8B33D49091D0968C1F381010229C4
:101A20004AD00228504607D0C8F8600000E03CE0E9
:101A3000FFF7C8FA04463BE04746C8F86000FFF7E6
:101A4000C1FA064605E000BFFFF7BCFA801B02287A
:101A50002BD828688001F7D4D4E907010843A16A8C
:101A60002E4A490802EB0141626A41EA82110843A9
:101A700094F82C1040EA0161C9F800100120386682
:101A8000FFF7A0FA044606E03EE000BFFFF79AFA2F
:101A9000001B022809D828688001F7D534E000BF70
:101AA000FFF790FA001B022802D90320BDE8F88F47
:101AB00028688001F4D427E00128F7D0D9F8000085
:101AC000E26900F4800191421CD1226A00F03F01DA
:101AD000914217D147F6C071626A0140B1EB821F93
:101AE00010D1A26A4FF0FF3300F4403103EB5202F1
:101AF000B1EB024F06D194F82C1000F07060B0EBFF
:101B0000016F01D00120D1E70020CFE70438024067
:101B100000004742800E4742007000400000FFFF77
:101B20007047704770B590F83C20012A2CD00124F2
:101B300080F83C40022280F83D2003685A689D6886
:101B400022F070060A6832435A60104B02689A42CB
:101B50000ED0B2F1804F0BD00D4B9A4208D00D4BF6
:101B60009A4205D00C4B9A4202D00C4B9A4204D1B7
:101B7000496825F080031943916080F83D400021B9
:101B800080F83C10084670BD022070BD0000014086
:101B90000004004000080040000C004000400140EC
:101BA00010B5040003D094F83D0010B107E0012007
:101BB00010BD002084F83C00204600F01FF80220F1
:101BC00084F83D00211D206801F078FA012084F896
:101BD000460084F83E0084F83F0084F8400084F812
:101BE000410084F8420084F8430084F8440084F8FB
:101BF000450084F83D00002010BD000008B50068D5
:101C00000649884208D10648016841F00201016096
:101C1000006800F00200009008BD000000040040D1
:101C20004038024090F83D10012901D00120704752
:101C3000022180F83D100168CA6842F00102CA60C2
:101C400000680E4988420ED0B0F1804F0BD00C498D
:101C5000884208D00B49884205D00B49884202D0FF
:101C60000A49884204D1816801F00701062903D09E
:101C7000016841F00101016000207047000001404F
:101C80000004004000080040000C004000400140FB
:101C900070B5044690F83C000025012817D00126B5
:101CA00084F83C60022084F83D002068826822F0BD
:101CB000770222F47F4282600868502838D00DDC19
:101CC00020284FD005DC90B3102811D14AE0022023
:101CD00070BD302846D040280AD13BE060282FD084
:101CE00070280DD0B0F5805F03D0B0F5005F12D042
:101CF000012584F83D60002084F83C00284670BD32
:101D0000CB68D1E90121206801F037FA20688168A9
:101D100041F0770109E0CB68D1E90121206801F0A9
:101D20002CFA2068816841F480418160E1E719E084
:101D3000CA684968206801F0D5FA5021206806E099
:101D4000CA684968206801F0DEFA6021206801F065
:101D50001EFACEE7CA684968206801F0C3FA40213C
:101D60002068F4E7226801461046F0E770472DE945
:101D7000F04104460068C66805694FF00007A907EE
:101D800013D5B10711D5F91E016101202077206814
:101D900080698007204602D0FFF7E8FF04E000F0EA
:101DA000BBF8204600F04DF92777680716D5700775
:101DB00014D521686FF004000861022020772068A4
:101DC000806910F4407F204602D0FFF7CFFF04E087
:101DD00000F0A2F8204600F034F92777280715D53F
:101DE000300713D521686FF00800086104202077C0
:101DF0002068C0698007204602D0FFF7B7FF04E0E3
:101E000000F08AF8204600F01CF92777E80616D57E
:101E1000F00614D521686FF01000086108202077C3
:101E20002068C06910F4407F204602D0FFF79EFF73
:101E300004E000F071F8204600F003F92777E80786
:101E400008D0F00706D021686FF001000861204635
:101E500000F050F9280608D5300606D521686FF045
:101E6000800008612046FFF75BFE680608D5700613
:101E700006D521686FF040000861204600F044F963
:101E8000A8060AD5B00608D521686FF020000861C1
:101E90002046BDE8F041FFF744BEBDE8F0810000F8
:101EA00030B587B0044614216846FEF73BFA164960
:101EB0002068884226D115480024016841F00101BC
:101EC0000160016801F001010591016841F0020122
:101ED00001600068022500F002000590C02000901B
:101EE000CDE9015469460A48CDE90345FEF774FF80
:101EF00003200090CDE9015469460648CDE9034529
:101F0000FEF76AFF07B030BD0004004030380240E1
:101F10000000024000040240704770B5044690F88B
:101F20003C0000260D4601280FD0012084F83C001B
:101F30006AB1042A1DD0082A2FD00C2A3FD00126CE
:101F4000002084F83C00304670BD022070BD20683F
:101F500001F026F92068816941F00801816120685B
:101F6000816921F004018161206881692A69114336
:101F700011E0206801F03CF92068816941F40061BA
:101F800081612068816921F48061816120688169B3
:101F90002A6941EA02218161D2E7206801F054F9FF
:101FA0002068C16941F00801C1612068C16921F060
:101FB0000401C1612068C1692A69114311E02068E8
:101FC00001F06EF92068C16941F40061C1612068C7
:101FD000C16921F48061C1612068C1692A6941EA4F
:101FE0000221C161ACE710B5040003D094F83D00B4
:101FF00010B107E0012010BD002084F83C0020460D
:1020000000F01EF8022084F83D00211D206801F038
:1020100055F8012084F8460084F83E0084F83F001B
:1020200084F8400084F8410084F8420084F84300BA
:1020300084F8440084F8450084F83D00002010BD79
:102040007047704710B50446022249B104290ED0EA
:10205000082913D094F84100012816D0012010BDA2
:1020600094F83E000128F9D184F83E200FE094F85E
:102070003F000128F2D184F83F2008E094F84000A6
:102080000128EBD184F8402001E084F841200122AE
:10209000206801F065F812492068884203D1426C3B
:1020A00042F400424264206888420ED0B0F1804F72
:1020B0000BD00C49884208D00B49884205D00B4907
:1020C000884202D00A49884204D1816801F00701A0
:1020D000062903D0016841F001010160002010BD14
:1020E000000001400004004000080040000C0040D7
:1020F0000040014000680349884201D1FFF778B9E8
:1021000070470000000001407047704770470000B2
:10211000F8B5016804460868CA684B6910F00F0FEB
:102120004FF0000559D003F0010602F490773743D1
:1021300065D0C10705D0D10503D5616C41F001011F
:102140006164410705D5D90703D0616C41F00201F4
:102150006164810705D5D90703D0616C41F00401A2
:102160006164010707D502F02001314303D0616C9F
:1021700041F008016164616C00293AD0800604D501
:10218000900602D5204601F0FFF820684069616C96
:10219000C0F38010090700D460B3204601F0CDF8E9
:1021A00020684069400621D52068143050E8001F9F
:1021B00021F0400140E80012002AF5D1E06BA8B1FF
:1021C0006E490165E06BFEF7F5FD002811D0E06B6C
:1021D000016D01B0BDE8F040084783060FD59306B6
:1021E0000DD52046BDE8F84001F0CEB82046FFF7F7
:1021F0008DFFF8BD2046FFF789FF6564F8BD266BAB
:102200002023012E7DD1C6067BD5D60679D5086858
:102210004868009048694FF00206400641D5E16BDE
:10222000086840680004000CE8D0A28D8242E5D91D
:10223000E085C869B0F5807F2DD020680C3050E86B
:10224000001F21F4807140E80012002AF5D12068B7
:10225000143050E8001F21F0010140E80012002A6C
:10226000F5D12068143050E8001F21F0400140E80B
:102270000012002AF5D184F84230256320680C3022
:1022800050E8001F21F0100140E80012002AF5D1AB
:10229000E06BFEF746FD6663A08DE18D401A81B2CA
:1022A0002AE0A08DE18D401A81B2E08D0028A5D0F2
:1022B0000029A3D022680C3252E8000F20F490705D
:1022C00042E80007002FF5D12068143050E8002FB5
:1022D00022F0010240E80027002FF5D184F84230B7
:1022E000256320680C3050E8002F22F0100240E8EF
:1022F0000023002BF5D166632046FFF706FFF8BDEB
:10230000FFE705062BD5150629D594F841002128AD
:10231000F5D1A068B0F5805F01D12069B0B1206A25
:10232000411C2162216800784860E08C401E000456
:10233000000CE084E3D12068C16821F08001C16015
:102340002068C16841F04001C160D8E7206A008878
:10235000C0F308004860206A801C2062E5E7400660
:10236000CDD55006CBD5CA68204622F04002CA60BF
:1023700084F8413000F0F2F8C1E700002B33000888
:1023800070B5040004D094F84100002510B106E0B7
:10239000012070BD84F84050204600F023F824202E
:1023A00084F841002068C16821F40051C1602046D2
:1023B00001F04CF82068016921F490410161206826
:1023C000416921F02A0141612068C16841F400514E
:1023D000C1606564202084F8410084F84200656390
:1023E000002070BD10B586B0044614216846FDF784
:1023F00099FF18492068884229D1174800210268AE
:1024000042F010020260006800F0100005901248CF
:102410001438026842F001020260006800F0010016
:1024200005904FF4C06000900220CDE90101032027
:1024300003900720049069460848FEF7CDFC00226F
:1024400005212520FFF766F82520FFF755F806B08F
:1024500010BD00000010014044380240000002405E
:1024600090F84230202B01D00220704721B11AB1E0
:102470000023036301F070B80120704710B50068B5
:102480000B49884213D15020EFF3118480F3118857
:10249000BFF34F8FBFF36F8F0121064803F080FA1F
:1024A000012204490448FFF7DBFF84F3118810BDC3
:1024B000001001401C000020840800202DE9F84392
:1024C000044690F84100984616460D46202802D052
:1024D0000220BDE8F88385B17EB100206064212030
:1024E00084F84100FEF76EFDA6848146E684A0686C
:1024F0002027B0F5805F02D003E00120E9E72069E2
:1025000010B12E4600250EE000260CE0802120466A
:1025100001F03DF8A8B9C6B116F8010B2168486072
:10252000E08C401EE084E08C4B464FF00002CDF87A
:1025300000800028EAD14FF04001204601F027F842
:1025400040B184F841700320C3E735F8020BC0F3B3
:102550000800E3E784F841700020BAE77047FEE71F
:1025600001684A69D24352050FD46FF480624A6110
:10257000002140F8301F202242738173026942F02B
:1025800004020261017301207047002070470000BF
:102590002DE9F84F0446006889460B9D016898466E
:1025A000174641F4806101602068016841F4807140
:1025B000016000954FF0011B0022594620460A9BFE
:1025C00000F064F84FF4007A40B120680068C0055C
:1025D00001D5C4F840A00320BDE8F88F216809F0B8
:1025E000FE0008612B46284920460A9A00F096F81A
:1025F000F0BB20684169806900902A4620460A990C
:1026000000F022F940B1206C04283AD1206801681A
:1026100041F40071016034E0FEB2B8F1010F09D05D
:102620002168380A08612A4620460A9900F00CF908
:102630000028E8D1206806612A4620460A9900F061
:1026400003F90028DFD12068016841F4807101603E
:1026500000950022594620460A9B00F017F80028F2
:10266000B3D1216809F0FF0040F00100086100E0EB
:1026700007E02B46044920460A9A00F04FF800284C
:10268000AAD00120A8E70000020001002DE9F047D0
:10269000984617460D460446C1F30746DDF82090DC
:1026A0002AE000BFB8F1FF3F26D0FEF78BFCA0EB7D
:1026B0000901414502D8B8F1000F1DD12068012E53
:1026C00016D0806925EA00000004000C12D000201A
:1026D000B84211D1002044F8300F20216173A0735B
:1026E000216941F02001216120730120BDE8F087BC
:1026F0004069E7E70120EBE72068012E0AD08069F6
:1027000025EA00000004000C06D00020B842C9D021
:102710000020EBE74069F3E70120F7E72DE9F047F8
:10272000984616460D4604464FF000094FF0200A21
:10273000C1F3074723E020684069C043400515D432
:102740002068016841F40071016021686FF48060C5
:102750004861C4F8309084F83DA084F83E90216C24
:1027600041F00401216484F83C9021E0701C06D003
:10277000FEF728FCA0EB0800B04203D816B1012FE9
:102780001FD021E02068012F15D0806925EA0000C4
:102790000004000C18D000BF44F8309F84F80DA04E
:1027A00084F80E90216941F02001216184F80C9099
:1027B0000120BDE8F087406925EA00000004000C14
:1027C000EAD12068406901E02068806925EA0000BC
:1027D0000004000CAFD1ECE72DE9F0410025904654
:1027E0000E460446202728E04069C043C0060CD4AA
:1027F00054F8301B6FF01000486144F810596777A7
:10280000A577206A2062257714E0FEF7DBFBA0EBBA
:102810000800B04200D886B920684069C04340062D
:102820000BD544F8305F6773A573206940F0200032
:10283000206125730120BDE8F08120684169C9430A
:102840004906D1D40020F6E770B516460D46044679
:102850001EE02046FFF784FE08B1012070BD681C11
:1028600016D0FEF7AFFB801BA84200D885B92068C0
:102870004069C04300060BD5002044F8300F2021EA
:102880006173A073216941F0200121612073E4E7A5
:1028900020684069C0430006DBD4002070BD000002
:1028A0001FB5002103913223042203A98DE80E00F5
:1028B00001230C226C21FEF74FFC9FED071B9FEDBF
:1028C000080B00F08DFF9DF80C109DF80D00090716
:1028D00004B000EB115010BD0000000000002840C3
:1028E00000000000000000402DED028B0B4C0C4D51
:1028F0009FED0C8A206880F40050206095ED040A5A
:10290000B0EEC00A20EE080ABCEEC00A10EE100AB3
:10291000C0B2643004F026F9ECE70000140802406D
:10292000000000200000C84210B510EE100A2DED86
:10293000028BFDF7BAFE9FED0F1B53EC112BFDF739
:10294000A3FD0E4C41EC180B2068FDF7AEFE9FED89
:102950000C1B53EC112BFDF797FD53EC182BFDF7D7
:10296000ECFCFDF7CDFE00EE100A84ED000ABDEC94
:10297000028B10BD9A9999999999B93FF40000205A
:10298000CDCCCCCCCCCCEC3F2DE9F04186B01421A1
:102990006846FDF7C7FC32480025016841F0040194
:1029A0000160016801F004010591016841F08001B6
:1029B0000160016801F080010591016841F00101A9
:1029C0000160016801F001010591016841F0020117
:1029D00001600068234F00F002004FF4005405909E
:1029E000002221463846FEF7E7FADFF87C80002215
:1029F00004214046FEF7E0FA4FF478760122314692
:102A00004046FEF7D9FA00940124CDE90145694614
:102A100038460395FEF7E0F9CDE9004569461348CD
:102A20000294FEF7D9F904208DE83100694640464A
:102A30000394FEF7D1F94FF4E040CDE90005694673
:102A400002944046FEF7C8F90220CDE90250CDE9D4
:102A5000006469464046FEF7BFF906B0BDE8F08164
:102A600030380240000802400004024000000240EA
:102A70000D4810B50B4901600C49416000214FF42D
:102A800080428160C0E9031241618161C1610162DC
:102A9000FEF79EFA002803D0BDE81040FEF73FB9CC
:102AA00010BD0000005C0040E8070020A086010087
:102AB00010B58EB000240794089409940A940B94DE
:102AC0001C2168460C94FDF72DFC33483149016008
:102AD00003214160202181604FF4C871C0E90314D3
:102AE0008461FFF75DF808B1FEF719F94FF48050E3
:102AF000079007A92848FFF7CBF808B1FEF70FF9B0
:102B00002548FFF770FA08B1FEF709F90B940BA9F5
:102B100021480C94FFF706F808B1FEF700F9602091
:102B2000CDE90004042004900022694602941A486A
:102B3000FFF7F3F908B1FEF7F2F8042269461648E8
:102B4000FFF7EBF908B1FEF7EAF8082269461248E8
:102B5000FFF7E3F908B1FEF7E2F80C2269460E48E8
:102B6000FFF7DBF908B1FEF7DAF800210A48FFF7B2
:102B700069FA04210848FFF765FA08210648FFF7BB
:102B800061FA0C210448FFF75DFA0348FFF788F962
:102B90000EB010BD000400403C0800200C4810B5E9
:102BA0000A4901604FF4E1314160002181600C224B
:102BB000C160C0E904128161C161FFF7E1FB002837
:102BC00003D0BDE81040FEF7AAB810BD00100140C8
:102BD0008408002010B5074C4FF480502060064850
:102BE000FFF75EFE9FED050AA06084ED010A00205C
:102BF000E06010BDF8000020E807002000000000A1
:102C0000FEE7000010B50DA000F026FD0E48D0ED47
:102C1000030A90ED020AF4EEC00AF1EE10FA01DDAB
:102C200080ED030A00210160012204210748FEF71C
:102C3000C3F9BDE8104006A000F00EBD4D4F543A58
:102C400020496E69740D0A00AC00002000040240A7
:102C50004D4F543A20456E61626C6520647269760E
:102C600065722E0D0A00000010B502F09FFA02F006
:102C700009FD0F4880ED000A052003F073FF03F003
:102C8000E3FD0C4880ED000A052003F06BFF03F024
:102C9000C7FD094880ED000A08480078022802D1E3
:102CA000074880ED000ABDE81040C82003F05ABF75
:102CB00008010020D8000020CC000020F1000020F6
:102CC00018000020FEE7000070B52DED048BB0EE7B
:102CD000408AFEF777F9294D9FED299B0446A96AA2
:102CE000884201D3601A03E06FF07F40401A20440D
:102CF00000EE100AB8EE400A10EE100AFDF7D5FCFF
:102D000053EC192BFDF732FCFDF7FAFC00EE100A2C
:102D1000AC62B5EEC00AF1EE10FA04D010EE100A63
:102D2000B0F17C5F01DD9FED180A95ED061AD5ED37
:102D3000031AD5ED010A38EE411A144860EE880AEC
:102D400061EE211A81EE801A30EE810AD0ED000A80
:102D5000B1EE601AB4EEC10AF1EE10FA02D2B0EE92
:102D6000410A06E0B4EEE00AF1EE10FA01DDB0EE41
:102D7000600A85ED068ABDEC048B70BD0C01002055
:102D8000FCA9F1D24D62503F6F12833AC40000207B
:102D900010B5164C9FED140A2DED028B84ED000A40
:102DA0009FED130A9FED148A84ED020A9FED110A2C
:102DB00084ED070A84ED048A84ED058A84ED088A8F
:102DC000FEF700F9B2EE040A606284ED010AB6EE85
:102DD000000A84ED030A84ED068AFEF7F3F8A06288
:102DE000BDEC028B10BD000096438B3D0C01002012
:102DF000508D173D0000C8420000000070B52DED59
:102E0000068BF0EE408AFEF7DDF8524C05469FED4A
:102E1000529B606A854201D3281A03E06FF07F411C
:102E2000081A284400EE100AB8EE400A10EE100A04
:102E3000FDF73BFC53EC192BFDF798FBFDF760FC0D
:102E400008EE100A6562B5EEC08AF1EE10FA04D001
:102E500018EE100AB0F17C5F01DD9FED418A94ED20
:102E6000000A20EE28AA94ED050A38EE800A10EE3A
:102E7000100AFDF71AFC94ED020A41EC190B20EE42
:102E8000080A10EE100AFDF710FC9FED361B53ECFC
:102E9000112BFDF7F9FA53EC192BFDF7F5FA41EC7C
:102EA000190B2069FDF701FC53EC192BFDF745FACE
:102EB000FDF726FC00EE900A2C4890ED001AB1EECA
:102EC000410AF4EEC00AF1EE10FA02D2F0EE400A26
:102ED00006E0F4EEC10AF1EE10FA01DDF0EE410A6F
:102EE000F0EE601A7AEE210AF4EEC00AF1EE10FA62
:102EF00009D3F4EEC10AF1EE10FA02DDB0EE410A98
:102F000001E0B0EE600AD4ED080A30EE601A81EEFE
:102F1000082A94ED071AB4EEC12AF1EE10FA04DD86
:102F2000B0EE600A01EE080A0AE0F1EE412AB4EEC2
:102F3000E22AF1EE10FA03D2B0EE600A01EE480A7E
:102F4000C4ED041A84ED080AC4ED058ABDEC068BB5
:102F500070BD00000C010020FCA9F1D24D62503F71
:102F60006F12833A000000000000E03FB400002030
:102F7000B5EEC00AF1EE10FA02D89FED160A06E08F
:102F800010EE101AB1F17E5F01DBB7EE000A1349B3
:102F9000DFED110A096858B1042811D020EE200A8B
:102FA0000828BCEEC00A10EE100A11D00864704761
:102FB00020EE200ABCEEC00A10EE100A48637047EB
:102FC00020EE200ABCEEC00A10EE100A886370479B
:102FD000C8637047000000000000C8433C080020A0
:102FE00010B5502080F31188BFF34F8FBFF36F8F60
:102FF00004F0D2FA18B104494FF080500860002064
:1030000080F3118810BD000004ED00E030B593B0EE
:1030100030216846FDF786F914210CA8FDF782F9E6
:103020001D480025016841F080510160006800F0F2
:10303000805011901948016821F4404141F4004149
:1030400001600068022400F44040119001200090CB
:10305000000401908001CDE9064019200890A020CD
:10306000CDE9090404200B906846FEF7A3FB08B1E4
:1030700072B6FEE70CA90F2081E831004FF48050B2
:10308000CDE90F0502210CA8FEF788FA002801D02F
:1030900072B6FEE713B030BD403802400070004009
:1030A0000248016841F470010160704788ED00E05A
:1030B0000148FEF75CBE0000CC080020F0B50268B5
:1030C000204B214C9F03214D214E984207D0B842FE
:1030D00005D0A04203D0A84201D0B04204D122F0D2
:1030E000700C4A6842EA0C02984210D0B8420ED0E6
:1030F000A0420CD0A8420AD0B04208D0154CA04241
:1031000005D0154CA04202D0144CA04203D122F4A9
:103110004074CA6822434C6922F080022243026054
:103120008A68C2620A688262984201D109690163B1
:10313000012141610169C90703D0016921F0010141
:103140000161F0BD000001400004004000080040A3
:10315000000C004000400140004401400048014094
:1031600010B501F01F030121046A99408C430462E9
:10317000016A9A401143016210BD10B5846842EAA9
:10318000032224F47F440A432243826010BD8268F4
:1031900022F070020A4342F007018160704700008C
:1031A00030B5036A026A22F0010202624268846951
:1031B00024F073050C682C4323F002058B682B4325
:1031C0000A4DA8420BD123F00805CB6822F44072C7
:1031D0002B434D6923F0040315438A692A43426057
:1031E000846149684163036230BD00000000014012
:1031F00030B5026A036A23F01003036243688469EE
:103200000D6824F4E64444EA05248D6822F0200287
:1032100042EA05120B4DA8420ED1CD6822F0800281
:1032200042EA05124D6923F4406343EA85038D6940
:1032300022F0400243EA8503436084614968816368
:10324000026230BD0000014030B5036A026A22F418
:10325000807202624268C46923F4007324F073052B
:103260000C682C438D6843EA05230C4DA8420ED10F
:10327000CD6823F4006343EA05234D6922F44052EC
:1032800042EA05128D6923F4806342EA0512426026
:10329000C4614968C163036230BD000000000140A1
:1032A00030B5046A026A22F4805202624268C3693D
:1032B0000D6823F4E64343EA05238D6824F40054A3
:1032C00044EA0534064DA84204D14D6922F48042F7
:1032D00042EA85124260C36149680164046230BDFC
:1032E0000000014010B5036A046A24F0010404627E
:1032F000846924F0F00444EA021423F00A020A4329
:103300008461026210BD10B5036A046A24F01004DF
:103310000462846923F0A00324F4704444EA023276
:1033200043EA01118261016210BD10B5806B00217A
:10333000C185C184FEF7EAFE10BD01680C3151E879
:10334000002F22F4907241E80023002BF5D1016890
:10335000143151E8002F22F0010241E80023002B34
:10336000F5D1016B012909D101680C3151E8002F19
:1033700022F0100241E80023002BF5D1202180F833
:10338000421000210163704708B590F842102229CD
:1033900001D0022008BD82684FF480539A4201D1C7
:1033A000016921B1816A9A421BD04AB10AE00268E0
:1033B000816A5268C2F308020A80816A891C08E0A7
:1033C000026972B10268526802F07F020A70816A73
:1033D000491C8162C18D491E0904090CC18503D0B5
:1033E0001BE002685268F1E70168CA6822F0200217
:1033F000CA600168CA6822F48072CA6001684A69BA
:1034000022F001024A61202180F84210002141632C
:10341000026B012A03D0FFF731F8002008BD0163D9
:1034200001680C3151E8002F22F0100241E800231E
:10343000002BF5D101680A68D20602D50A684968EE
:103440000091818DFEF761FEE7E7000070B504464C
:1034500000680169E26821F440511143016121696A
:10346000A068E26908436169114308432168CA689A
:1034700049F20C639A430243CA6020684169A26919
:1034800021F440711143416131492068884202D0E2
:103490003049884202D1FEF74BF901E0FEF738F9D6
:1034A000E2690023192164253226B2F5004F6268D3
:1034B00028D0A0FB0101930F9200FCF7E9FE014622
:1034C000B0FBF5F06FF01802504301EB800006EB03
:1034D0000010B0FBF5F000F0F002B1FBF5F002EBEC
:1034E0000012B1FBF5F06FF01803584301EB8000B8
:1034F00006EB0010B0FBF5F000F00F00216810445F
:10350000886070BDA0FB010192185B41FCF7C0FE12
:103510000146B0FBF5F00201B1FBF5F06FF01803C6
:10352000584301EB800006EBC000B0FBF5F000F063
:10353000F80002EB4002B1FBF5F0584301EB8000CC
:1035400006EBC000B0FBF5F000F00700D6E7000086
:10355000001001400014014081628285C285002173
:103560004164222180F84210016921B10168CA68D2
:1035700042F48072CA6001684A6942F001024A61FD
:103580000068C16841F02001C160002070472DE94A
:10359000F843984617460D460446089E24E0701CE2
:1035A00022D0FDF70FFDA0EB0800B0421AD8CEB133
:1035B0002068C168490717D5802D15D0402D13D03C
:1035C0000168C94309070FD40168002540680090CD
:1035D0002046FFF7B2FE0820606484F840500120C6
:1035E000BDE8F8830320FBE72068006835EA0000A7
:1035F00004D00020B842D2D00020F1E70120F9E742
:103600000148FEF785BD00008408002008B502F0DF
:10361000CFFA0D4801236A4690ED040A1946184670
:10362000BDEEC00A8DED000A03F0B4F8012207498F
:103630000748FEF715FF00BF02F006FF03F04CF944
:10364000322003F08FFAF7E7000000201C00002072
:1036500084080020FEE700000FB4054B10B503A955
:10366000044A029801F034F910BC5DF814FB000024
:103670006D5600083801002003B4019841000098FD
:1036800050EAC12018BF04204A0D18BF40F00100C5
:1036900040F2FF72B2EB515F08BF40F00200012818
:1036A00008BF052002B070470907090E002804DB97
:1036B00000F1E02080F80014704700F00F0000F1E6
:1036C000E02080F8141D70472DED020B019820F0CA
:1036D000004001909DED000B02B0704710B52DED3C
:1036E000040B86B09DED060B10EE100A10EE901A3A
:1036F0008DED000B002818BF0120084320F000408A
:10370000C0F17F6000F1E040C00F21D19DED080BBA
:1037100010EE101A10EE900A8DED000B002918BF64
:103720000121084320F00040C0F17F6000F1E0403B
:10373000C00F0DD129490798B1EB400F04BF06987F
:10374000002842D00998400004BF089800283CD0C7
:103750009DED080B53EC102B9DED060B51EC100B5F
:10376000FDF72DF9CDE902019DED020B40F2FF714D
:1037700010EE900A8DED000B31EA105021D0079821
:10378000039900F0004001F00041884219D09DEDFE
:10379000080B8DED040B9DED020B8DED000B10EE73
:1037A000900A059961F31E0005909DED041B9DEDA7
:1037B000020B51EC110B53EC102BFCF762FECDE920
:1037C00002019DED020B0AB010BD012000F050FF78
:1037D0000AB0BDE8104000F00BBF00000000E0FFA1
:1037E0002DE9F04D2DED040B2DED0E8B96B0DDE99E
:1037F0002550279CDDF890A025F0004624F00048D5
:10380000BAF1000F14BF0121002101EB4502FC4970
:1038100053184A1093422AD3002814BF01230023CF
:1038200003EB44030B44F7498B4220D358EA0001D1
:103830009FEDF59B76D0DFF8D8B35D4503D1BAF1A3
:10384000000F05D188E0BAF1000F08BF002100D0B9
:10385000012101EB450111F5001F08D8002814BF14
:103860000121002101EB440111F5001F0BD99DED51
:10387000261B9DED240B16B0BDEC0E8B04B0BDE8ED
:10388000F04D00F0A9BE0027002DBCBFE1498845DE
:1038900021DAE1498845A8BF02271CDAC3451ADCB2
:1038A000DE4901EB2851142908DDC1F1340220FA68
:1038B00002F101FA02F282420DD108E058B9C1F1D9
:1038C000140228FA02F101FA02F2424503D101F092
:1038D0000101C1F1020756EA0A0124D1002C22DAC3
:1038E000002D18BF022F01D0012F0AD0022000F0B6
:1038F000BFFE16B0BDEC0E8B04B0BDE8F04D00F07D
:1039000053BE022000F0B4FE00F04EFE51EC100B4E
:1039100081F0004141EC100B16B0BDEC0E8B04B0F1
:10392000BDE8F08D18E09FEDBEAB9FEDBF8B00288A
:1039300071D1B848804522D105F1804010F5801042
:1039400008BFBAF1000F07D0B3450ADC002CA8BFAE
:103950009DED260BE0DA0DE0B0EE490AF0EE690AC3
:10396000DAE7002C06DA9DED260B51EC100B81F006
:1039700000416FE0AE48784490ED000BCCE7D845AD
:103980004DD1002C48DA2EB186423AD1BAF1000F5F
:1039900042D126E0BAF1000F13D0022000F068FEF9
:1039A00000F036FE8DED020B9DED240B8DED000B2E
:1039B00010EE900A039961F31E0003909DED020B37
:1039C000AAE78DED02AB9DED240B1AEE901A10EED6
:1039D000900A8DED000B61F31E0003909DED020B2C
:1039E0009AE78DED028B9DED240B18EE901A10EEE8
:1039F000900A8DED000B61F31E0003909DED020B0C
:103A00008AE709DA9DED240B51EC190B53EC102BCE
:103A1000FCF7ACFD1EE020E09DED240B7CE7864228
:103A20001BDAB4F1804F0DD0A4F10050B0F1FF507B
:103A300013D1002D11DB9DED240B51EC100B02F086
:103A400013FF07E09DED240B53EC102B51EC100BF2
:103A500000F0C2BC41EC100B5EE79DED240B51EC75
:103A6000100B01F0F7FDBAF1000FCDE90E0142D1C4
:103A70009FED710B46B3A6F1E040B0F17F600CD032
:103A80005E4538D1002D00DAA7B3022F0CBF01200C
:103A90004FF0FF30FCF7D9FDDCE7002D01DD002CF5
:103AA0000DDA002D01DD002C1FDB002D16DA002CB5
:103AB00014DB012F08BF9FED620B3FF42DAFB0EE7A
:103AC0004A0AF0EE6A0A27E7022F18BF002D0CD031
:103AD000012F0AD1002DFFF61FAF06E0002DB8BF61
:103AE000002C08DA012F3FF417AFB0EE480AF0EED1
:103AF000680A11E71BE0012000EBE57050EA0701BE
:103B000015D0791EB0EE498AF0EE698A084308BFE5
:103B10009FED4D8B4E480025804570DD4D494E4848
:103B2000884514DDB0420DDB002C19DB2FE00120AD
:103B300000F09EFD16B0BDEC0E8B04B0BDE8F04D5C
:103B400000F056BDB34502DC002C09DC1FE08642C4
:103B500002DA002C1BDA03E05E452BDD002C16DDBB
:103B6000022000F085FD00F053FD8DED020B53ECBB
:103B70001A2B51EC180BFCF787FCCDE900010399D7
:103B8000019861F31E0003909DED020BC4E6022034
:103B900000F06EFD00F04CFD10EE901A18EE900A49
:103BA0008DED020B8DED008B61F31E0003909DEDFA
:103BB000020BB1E69DED0E0B53EC192B51EC100BE3
:103BC000FCF75CFC9FED260BCDE9080153EC102BB4
:103BD0009DED080B51EC100BFCF756FC9FED221BE2
:103BE00053EC112BFCF74DFC9DED081B53EC112BF6
:103BF000FCF74AFC9FED1E1B53EC112B3CE08CE0C4
:103C0000FFFF1F00FFFF0F00000000000000F03F5B
:103C10000000F03F0000F07F0000404301FCFFFF88
:103C2000000000000000F07F000000000000000025
:103C30003E43000000000000000000000000008083
:103C4000000000000000F0FF000000000000F0BFD6
:103C50000000E0410000F043FFFFEF3F00000000E4
:103C6000000000000000D03F555555555555D53F33
:103C7000000000000000E03FFCF703FC9DED080B96
:103C800041EC1A0B53EC102B51EC100BFCF7FCFB26
:103C900053EC1A2BFCF7F8FB41EC1A0B9FEDFE0BD3
:103CA00053EC102B9DED080B51EC100BFCF7ECFBCB
:103CB00041EC1B0B9FEDFA0B51EC1A0B53EC102B44
:103CC000FCF7E2FB41EC1A0B9FEDF70B53EC102BCA
:103CD0009DED080B51EC100BFCF7D6FB53EC1A2BA7
:103CE000FCF7CCFB41EC1A0B51EC1B0B53EC1A2BE1
:103CF000FCF723FB0690CDE906519DED060B53EC36
:103D00001B2B51EC100BFCF7B9FB53EC1A2BFCF7F7
:103D1000B8FB41EC100B00F0A1B90020B6F5801FF4
:103D20000EDA9FEDE30B53EC102B9DED0E0B51ECD7
:103D3000100BFCF7A9FBCDE90E016FF034000E4625
:103D400000EB2650A0F2FF37C6F31300DA4940F02B
:103D50007F6646F040568842D8BF002408DDD74928
:103D60008142C8BF012403DC0024A6F580167F1C15
:103D7000D348784400EBC4000F9690ED00CB9DED46
:103D80000E0B53EC1C2B51EC100BFCF777FB9DED4D
:103D90000E0B41EC1B0B53EC1C2B51EC100BFCF7E6
:103DA000CCFA41EC100B51EC190B53EC102BFCF737
:103DB000DDFB41EC1D0B51EC1B0B53EC1D2BFCF7F9
:103DC00063FB41EC1A0BBF488DED10AB78441095A6
:103DD00090ED000B4FF0005040EA660000EB84408D
:103DE0008DED080B00F5002009909DED080B53ECBC
:103DF0001C2B51EC100BFCF741FB9DED0E1B53EC03
:103E0000112BFCF73EFB41EC100B53EC102B9DEDFE
:103E1000100B51EC100BFCF737FB9DED080B41EC40
:103E20001C0B53EC102B9DED100B51EC100BFCF701
:103E30002BFB53EC1B2BFCF724FB53EC1C2BFCF74C
:103E40001DFB53EC1D2BFCF71FFB41EC1C0B53EC33
:103E50001A2B51EC1A0BFCF717FB41EC1B0B9A4881
:103E60000621B0EE4B0AF0EE6B0A784400F01DFB21
:103E7000B0EE401AF0EE601AB0EE41DAF0EE61DA20
:103E800053EC1B2B51EC1B0BFCF7FEFA53EC1D2BD8
:103E9000FCF7FAFA9DED100B41EC1B0B53EC1A2BBF
:103EA00051EC100BFCF749FA53EC1C2BFCF7ECFA25
:103EB00053EC1B2BFCF741FA9DED100B41EC1B0B57
:103EC00053EC102B51EC100BFCF7DEFA41EC1D0B00
:103ED0009FED7FEB53EC1E2BFCF72FFA53EC1B2BC3
:103EE000FCF72BFA0890CDE908519DED080B53EC37
:103EF0001E2B51EC100BFCF7C1FA53EC1D2BFCF7F9
:103F0000BDFA53EC1B2BFCF7BCFA9DED080B41EC02
:103F10001D0B53EC102B9DED100B51EC100BFCF70F
:103F2000B3FA41EC1B0B53EC1A2B51EC1D0BFCF7B5
:103F3000ABFA9DED080B41EC1A0B53EC102B51EC36
:103F40001C0BFCF7A1FA53EC1A2BFCF7F6F941EC29
:103F50001A0B51EC1B0B53EC1A2BFCF7EEF90C90DF
:103F6000CDE90C519DED0C0B53EC1B2B51EC100BC0
:103F7000FCF784FA53EC1A2BFCF783FA41EC1B0B89
:103F80009FED550B53EC102B9DED0C0B51EC100BD2
:103F9000FCF77AFA41EC1A0B9FED510B51EC1B0B1D
:103FA00053EC102BFCF770FA41EC1B0B9FED4E0B02
:103FB00053EC102B9DED0C0B51EC100BFCF764FA3D
:103FC00053EC1B2BFCF7B9F941EC100B4848784433
:103FD00000EBC40090ED001B51EC100B53EC112BC7
:103FE000FCF7ABF941EC1B0B3846FCF72EFBCDE997
:103FF000080153EC1B2B51EC1A0BFCF79EF941EC1A
:10400000100B3C48784400EBC40090ED00CB51EC21
:10401000100B53EC1C2BFCF790F99DED081B53EC97
:10402000112BFCF78AF90690CDE906519DED080B9E
:1040300053EC102B9DED060B51EC100BFCF71EFA08
:1040400053EC1C2BFCF71AFA53EC1A2BFCF716FA5C
:1040500053EC1B2BFCF715FA41EC100B9DED261BC6
:1040600053EC102B8DED001B00959DED260B51ECB4
:10407000100BFCF709FA9DED000B41EC1A0B53EC09
:10408000102B9DED260B51EC100BFCF7F7F99DED75
:10409000061B53EC112B2FE0000000604715F73F83
:1040A000FE822B654715F73F44DF5DF80BAE543EAB
:1040B00000000000000040438E9803007AB60B0019
:1040C000BA3E0000E83E0000F23D000000000000A3
:1040D0000000000000000840000000E009C7EE3FBB
:1040E000FD033ADC09C7EE3FF5015B14E02F3EBE4D
:1040F0007E3C0000383C0000FCF7C6F953EC1A2B5C
:10410000FCF71BF99DED060B41EC1A0B53EC102B41
:104110009DED000B51EC100BFCF7B6F9CDE90C014D
:104120009DED0C0B51EC1A0B53EC102BFCF705F921
:10413000CDE902010C46AA498C422FDB611A0843E3
:1041400018D19DED0C0B53EC102B9DED020B51EC97
:10415000100BFCF793F941EC1B0B9FEDA30B51ECFB
:104160001A0B53EC102BFCF7E8F853EC1B2BFCF765
:10417000AFFA2DD2022000F07BFA00F049FA10EEDF
:10418000901A18EE900A8DED020B8DED008B61F305
:104190001E0003909DED020BFFF7BEBB944A24F076
:1041A0000041914214D39349214408437FF4EFAC7A
:1041B0009DED0C0B53EC102B9DED020B51EC100BF5
:1041C000FCF75CF953EC1A2BFCF782FA7FF6DFACB4
:1041D00024F000408849894A002601EB20518242A0
:1041E0002BDA481C4FF4801121FA00F02044844A55
:1041F000C0F30A517A44A1F2FF3192ED000B814ADB
:104200008DED080BCA4020EA0202C0F3130040F40F
:104210008010C1F1140120FA01F60992002CB8BFF8
:1042200076429DED080B53EC102B9DED0C0B51ECE1
:10423000100BFCF723F9CDE90C019DED0C0B51ECB3
:104240001A0B53EC102BFCF778F89FED6F0B0890CE
:10425000CDE9085153EC102B9DED080B51EC100BE0
:10426000FCF712F941EC1B0B9FED690B53EC102B83
:104270009DED080B51EC100BFCF706F99DED0C0BB6
:1042800041EC1C0B53EC102B9DED080B51EC100B6B
:10429000FCF7F4F853EC1A2BFCF7F3F89FED5E1BD8
:1042A00053EC112BFCF7F0F853EC1C2BFCF745F802
:1042B00041EC1A0B51EC1B0B53EC1A2BFCF73DF89D
:1042C000CDE902019DED020B53EC1B2B51EC100BC1
:1042D000FCF7D4F853EC1A2BFCF7D3F89DED020B46
:1042E00041EC1A0B53EC102B51EC100BFCF7CCF8F3
:1042F000CDE908014A489DED080B0521784400F0FE
:10430000D4F89DED081B51EC100B53EC112BFCF76E
:10431000BBF89DED021B53EC112BFCF7B2F8CDE975
:1043200006019DED020B53EC1A2B51EC100BFCF720
:10433000ABF853EC1A2BFCF700F89FED3B0B41EC6C
:104340001A0B53EC102B9DED060B51EC100BFCF7E8
:1043500095F89DED060B41EC1B0B53EC102B9DEDDE
:10436000020B51EC100BFCF78FF853EC1B2BFCF7F6
:10437000FDF853EC1A2BFCF781F89DED021B53EC72
:10438000112BFCF77BF853EC192BFCF77AF8CDE9ED
:10439000020101EB065001150029C8BF039015DC8E
:1043A0009DED020B324651EC100BFCF7A0FAFFF723
:1043B00063F9042808BF00F03BF932469DED020B7B
:1043C00051EC100BFCF793FACDE902019DED020BC5
:1043D00051EC180B53EC102BFCF756F8FFF73ABBD7
:1043E0000000904000000000FE822B654715973CBE
:1043F00000CC904000346F3F01FCFFFF0000E03F25
:10440000C03A0000FFFF0F0000000000432EE63F0F
:10441000396CA80C615C20BEEF39FAFE422EE63FF3
:104420009039000000000000000000000000004083
:1044300000B52DED048BB0EE409AF0EE609A83B09B
:1044400051EC190BFCF76AFA41EC180B18EE100A44
:1044500018EE901A8DED008B002818BF012008433C
:1044600020F00040C0F17F6000F1E040C00F14D0A8
:1044700019EE101A19EE900A8DED009B002918BF55
:104480000121084320F00040C0F17F6000F1E040CE
:10449000C00F04BF012000F0EBF8B0EE480A03B0F3
:1044A000F0EE680ABDEC048B00BD70B504462DED3E
:1044B000028B4D1E00EBC500B0EE408AF0EE608A24
:1044C00090ED000B35F0060017D053EC182B51EC93
:1044D000100BFBF7D9FF41EC100B6D1E04EBC50070
:1044E00090ED001B51EC100B53EC112BFBF725FF4B
:1044F00041EC100B35F00600E7D1022D36D0042D2B
:104500001CD0062D1CBFBDEC028B70BD53EC182BCC
:1045100051EC100BFBF7B8FF94ED0A1B53EC112B79
:10452000FBF70BFF53EC182BFBF7AEFF94ED081BCA
:1045300053EC112BFBF701FF41EC100B53EC182B44
:1045400051EC100BFBF7A0FF94ED061B53EC112B65
:10455000FBF7F3FE53EC182BFBF796FF94ED040BDF
:1045600053EC102BFBF7E9FE41EC100B53EC182B2E
:1045700051EC100BFBF788FF94ED021B53EC112B51
:10458000FBF7DBFE53EC182BFBF77EFF94ED001BD3
:1045900053EC112BFBF7D1FEBDEC028B41EC100B61
:1045A00070BD0000000000009FED070B10B553EC3C
:1045B000102B9FED070B51EC100BFBF7D7FF41ECD5
:1045C000100B10BD00000000000000000000000003
:1045D000000000000000F03F10B553EC112B51EC2F
:1045E000100BFBF7AAFE41EC100B10BD0000000001
:1045F0009FED050B10B553EC102B51EC100BFBF796
:10460000B5FF41EC100B10BD0000000000000000E1
:104610009FED050B10B553EC102B51EC100BFBF775
:1046200033FF41EC100B10BD0000000000000070D3
:104630009FED050B10B553EC102B51EC100BFBF755
:1046400023FF41EC100B10BD000000000000001023
:1046500002E008C8121F08C1002AFAD1704770474B
:10466000002001E001C1121F002AFBD170470000A9
:1046700001490860704700003C01002010B510EEB1
:10468000100AFCF712F89FED0F1B53EC112BFBF7F0
:1046900054FEFCF735F80D49884208DBFCF705F8B5
:1046A0009FED0B1B53EC112BFBF7E8FE01E0FBF732
:1046B000FCFFFCF725F8BDE8104000EE100A00F002
:1046C0008BBC0000F4D64354FB21F93FDB0FC940FB
:1046D000EA2E4454FB21194000EE900AF8EEE00A5D
:1046E00020EE200A704700002DE9FF5F82B0002114
:1046F000DDE90430020DDDF840B0034318D044F684
:104700001050A2F2FF3242431514119801281FD015
:10471000A5EB0B00401C5FEA000A4FF000064E4F6D
:10472000DFF83891B046504615D5CAF1000413E0C1
:10473000119801244AA3012801D16FEA0B010298C4
:10474000119AC0E90031C0E9024206B0BDE8F09F0D
:10475000CBF10000DFE704460021404A491842EB54
:104760000450CDE9001012E0E00707D032463B4686
:1047700040464946FBF788FE8046894632463B461E
:1047800010461946FBF780FE06460F466410002CC3
:10479000EAD1DDE90401DDE90023BAF1000F06DA10
:1047A000FBF772FE42464B46FBF76EFE05E0FBF759
:1047B000DDFE42464B46FBF7D9FE04460E4600227C
:1047C000284BFBF785FF03D84FF0FF30014607E089
:1047D0000022254B20463146FBF7AFFDFCF732F9AE
:1047E000102409E0002C0ADB0A220023FBF750FD0D
:1047F000039B30321A55641E50EA0102F2D1641C48
:10480000039AC4F111031444119A012A03D001221E
:1048100008430DD10AE0084304D000204FF0110BEB
:10482000119072E7A3EB0B056D1E0DE05B4504DDF7
:104830004FF0000205F1010504E003DA4FF0000239
:10484000A5F10105002AECD002981199C0E90231C6
:10485000C0E9004579E70000000014400000F03F87
:10486000300000000000F0430000E03F10B510EE03
:10487000100A2DED028BFBF718FF9FED138B41EC17
:10488000100BB0EE481AF0EE681AFEF727FF51EC55
:10489000100BFBF735FF00EE100A10EE100AB5EE14
:1048A000C00AF1EE10FA02DBFBF7FFFE05E0FBF7B2
:1048B000FCFE53EC182BFBF740FDFBF721FFBDEC92
:1048C000028B00EE100A10BDEA2E4454FB21194061
:1048D0002DE9FF4F95B09A46884606460025EEE141
:1048E000252877D100242746F94A0121039400E0C6
:1048F000044316F8013F203B01FA03F01042F7D1C0
:1049000030782A2811D06FF02F033078A0F13002D0
:10491000092A16D8039A44F0020402EB820203EB40
:1049200042021044761C0390EFE758F8042B0392E0
:10493000002A03DA504244F40054039044F0020485
:10494000761C30782E2816D116F8010F44F0040496
:104950002A280DD06FF02F023078A0F13003092BF8
:1049600009D807EB870302EB4303C718761CF3E76C
:1049700058F8047B761C30786C280FD006DC4C2865
:1049800017D068280DD06A2814D104E0742810D0FC
:104990007A280FD10DE044F400140AE044F48014A6
:1049A00001E044F440147278824202D104F580148C
:1049B000761C761C307866280BD013DC582877D00C
:1049C00009DC002875D04528F6D04628F4D04728C1
:1049D0001AD193E118E0632835D0642879D065288E
:1049E00012D18BE1702873D008DC6728F1D06928D8
:1049F0006FD06E280DD06F2806D1ACE073282CD074
:104A0000752874D0782853D05246179990476D1C5A
:104A100054E1C4F30250022809D003280DD0D8F87D
:104A2000001004280DD00D6008F1040846E1D8F804
:104A30000010EA17C1E90052F6E7D8F800100D801F
:104A4000F2E70D70F0E718F8041B8DF80010002055
:104A50008DF80100EB46012003E058F804BB4FF04D
:104A6000FF3061074FF0000102D40DE009F10101B0
:104A70008946B9420FDA8145F8DB1BF80910002995
:104A8000F4D108E009F1010189468142FADB1BF803
:104A900009100029F6D103985346A0EB09072146D7
:104AA0003846179A00F080FA284400EB090507E021
:104AB00044E008E10DE01BF8010B524617999047BE
:104AC000B9F10109F7D2534621463846179AF2E068
:104AD00039E00A21C4F302524FF0000B0091022A80
:104AE00006D058F8040BC117032A09D00AE023E0C6
:104AF00008F1070020F00702F2E80201904605E005
:104B000000B2C117042A01D140B2C117002906DA48
:104B10000A460021404261EB02012D2202E02205FB
:104B200004D52B228DF80420012203E0E20701D0F6
:104B30002022F7E7914657E00A2100E010214FF0CC
:104B4000000B00910BE010214FF0000B44F0040427
:104B50000827009103E008204FF0000B0090C4F3F9
:104B60000252022A05D058F8040B0021032A08D06B
:104B700008E008F1070020F00702F2E80201904681
:104B800003E080B2042A00D1C0B24FF0000922072E
:104B90002AD53278702A07D0DDF800C08CF0100CCE
:104BA0005CEA0B0C05D00EE040228DF804200122B7
:104BB00008E050EA010306D030238DF804308DF868
:104BC000052002229146009B83F0080353EA0B0361
:104BD0000AD150EA010201D1620705D530228DF8D1
:104BE00004204FF001097F1E3278582A04D039A2E0
:104BF0000C920CAA02920BE03BA2F9E75B46009AEA
:104C0000FBF746FB0C9B9B5C029A521E02921370B0
:104C100050EA0102F2D1029804A9081A00F1200B0F
:104C2000600702D524F4803400E001275F4502DDEF
:104C3000A7EB0B0000E0002000EB0B0100900398B5
:104C40004944401A0390E00306D453462146179A7C
:104C5000039800F0A9F90544002706E001A8524690
:104C6000C05D179990476D1C7F1C4F45F6DBE00334
:104C70000CD553462146179A039800F095F9054440
:104C800004E030205246179990476D1C0099481E49
:104C900000900029F5DC08E002980299524600785D
:104CA000491C0291179990476D1CBBF10001ABF1B3
:104CB000010BF1DC5BE100F065F90544761C30780E
:104CC00000287FF40DAE19B02846BDE8F08F000033
:104CD00009280100303132333435363738396162D2
:104CE0006364656600000000303132333435363796
:104CF000383941424344454600000000600700D473
:104D0000062708F1070020F00700F0E8022380469C
:104D100003F0004C5FEA0C0001D097A009E02005E9
:104D200001D596A005E0E00701D095A001E0AFF223
:104D30004C001390307823F0004365280CD006DC3B
:104D4000452809D046281DD047287FD13BE066285A
:104D500018D067287AD136E00021112F01DB11200D
:104D600000E0781CCDE9000104A90CA8FFF7BCFC09
:104D7000DDE90D010C9A4FF0000B07F101091092CB
:104D800000914EE04FF000400097CDE9011004A9DA
:104D90000CA8FFF7A9FCDDE90D020C9B0F994FF061
:104DA000000B91461093009211B9791C00EB010998
:104DB000B7EB090003D4C0F1FF3B07F10109A9EBF0
:104DC0000700019042E0012F00DA01270021112F96
:104DD00001DD112000E03846CDE9000104A90CA84E
:104DE000FFF782FCDDE90D010C9A00914FF0000BFA
:104DF000B946109221070FD4009A4A4503DA91462A
:104E000001E0A9F10109B9F1010F05DD109AA9F13D
:104E10000101515C3029F4D0B84202DA10F1040FDC
:104E200003DA0121CDE9011010E0002803DC8344FE
:104E3000A9EB000102E0411C494500DD8946A0EBD9
:104E40000B00401C01904FF000400290200705D459
:104E50000198484502DB4FF0FF30019000208DF8AB
:104E60004B0002980DF14B07B0F1004F25D0022006
:104E70000C902B200D90029800280CDA40420290F2
:104E80002D200D9007E00A210298FBF755FC3031E8
:104E9000029007F8011D0C99481E0C900029F2DCC5
:104EA00002980028EFD1791E0D980870307800F034
:104EB000200040F0450007F8020D11A8C01BC01DDE
:104EC00002901398007800B1012000EB09010198CD
:104ED00001EBE071029801440398401A401E0390D0
:104EE000E00306D453462146179A039800F05CF875
:104EF00005441398007818B15246179990476D1CD5
:104F0000E00323D553462146179A039800F04CF846
:104F100005441BE0BBF1000F07DB0098584504DD9A
:104F20001098179910F80B0001E01799302052469D
:104F3000904701980BF1010B401E05F1010501900E
:104F400004D12E205246179990476D1CB9F10001EB
:104F5000A9F10109DEDC05E017F8010B52461799AB
:104F600090476D1C0299481E02900029F4DC5346BC
:104F70002146179A03989EE62D0000002B000000A2
:104F8000200000002DE9F041044600251E4617468A
:104F9000880404D405E039462020B0476D1C641E07
:104FA000F9D52846BDE8F0812DE9F04104460025F9
:104FB0001E469046C80301D5302700E0202788040C
:104FC00004D505E041463846B0476D1C641EF9D54E
:104FD0002846BDE8F081000010B566492DED0A8B2A
:104FE000B0EE408A18EE100A9FED63CB9FED64BBD4
:104FF0009FED65AB664C9FED679B884218EE100AEB
:1050000027DAFBF752FB53EC192BFBF73DFA53EC75
:105010001B2BFBF75DFB18EE100A0AD8FBF745FBCC
:1050200053EC192BFBF730FA53EC1A2BFBF785F9ED
:1050300009E0FBF73AFB53EC192BFBF725FA53EC8D
:105040001A2BFBF71BFAFBF711FB00BF54F82000EB
:105050005CE05249884218EE100A26DAFBF725FB7D
:1050600053EC192BFBF710FA53EC1B2BFBF730FB1F
:1050700018EE100A0AD8FBF718FB53EC192BFBF7B4
:1050800003FA53EC1A2BFBF758F909E0FBF70DFB79
:1050900053EC192BFBF7F8F953EC1A2BFBF7EEF94D
:1050A000FBF7E4FAC0F5C770D0E73D499FED3DCB73
:1050B000884218EE100A36DAFBF7F7FA53EC192B90
:1050C000FBF7E2F953EC1B2BFBF702FB18EE100A7F
:1050D0000AD8FBF7EAFA53EC192BFBF7D5F953EC96
:1050E0001A2BFBF72AF909E0FBF7DFFA53EC192B2F
:1050F000FBF7CAF953EC1A2BFBF7C0F9FBF7B6FA2A
:1051000004EB8000A0F58050D0F8C809FBF79DFAA9
:1051100053EC1C2BFBF7B8F9FBF7F2FABDEC0A8B4A
:1051200000EE100A10BDFBF7C0FA53EC192BFBF789
:10513000ABF953EC1B2BFBF7CBFA18EE100A0AD88D
:10514000FBF7B3FA53EC192BFBF79EF953EC1A2B30
:10515000FBF7F3F809E0FBF7A8FA53EC192BFBF780
:1051600093F953EC1A2BFBF789F9FBF77FFAC0F59B
:1051700047706BE7DB0FC93F2D431CEBE2361A3F4C
:105180000000000000000000000000000000E03F00
:10519000107900089CA223B9FCAB5F40DB0F4940AB
:1051A000E4CB96402D431CEBE2361ABF70B52DEDD3
:1051B000088B8BA0FEF750FA00254FF4FA769FED8E
:1051C0008EAB9FED8FBB9FED908A9FED909B914C96
:1051D0002846FBF73AFA53EC192BFBF755F953EC39
:1051E0001A2BFBF7C3F953EC1B2BFBF7A6F8FBF7C5
:1051F00087FA01EE100AF0EE480A94ED030A01F076
:105200009BF9022001F0AEFC6D1CB542E0DD00F020
:1052100039FAF0EE408A35462846FBF716FA53EC89
:10522000192BFBF731F953EC1A2BFBF79FF953ECD1
:105230001B2BFBF782F8FBF763FA01EE100AF0EE86
:10524000480A94ED030A01F077F9022001F08AFC84
:105250006D1EE1D500F016FAF0EE48AAB0EE40AAB5
:10526000B0EE6A0AB0EE401AF0EE400A01F064F9BE
:10527000C82001F077FC18EE900AFBF716FA41EC13
:10528000100B65A053EC102BFEF7E6F91AEE100A8E
:10529000FBF70BFA41EC100B64A053EC102BFEF75C
:1052A000DBF938EECA0AF4EE4A8AB0EEC08AF1EEB3
:1052B00010FA04D018EE100A614988420BDC61A094
:1052C000FEF7CAF9002204216948FBF775FE0020A9
:1052D000BDEC088B70BD9FED67BBF4EECA8AF1EEA2
:1052E00010FA05D265A0FEF7B7F94FF0FF3003E0E2
:1052F0006AA0FEF7B1F9012020606FA0FEF7ACF9BB
:1053000094ED040AB8EEC00A28EE000A10EE100A66
:10531000FBF7CBF953EC192BFBF7B0F841EC100B72
:10532000FEF7D2F953EC1B2B51EC100BFBF7D0F925
:105330001AD265A0FEF790F918EE100AFBF7B5F93E
:1053400041EC100B51EC190B53EC102BFBF70EF941
:1053500053EC1B2BFAF7F1FFFBF788F901462061AC
:105360005FA0FEF779F902E05FA0FEF775F99FED07
:10537000601AF0EE6A0A94ED030A01F0DDF84FF4CA
:105380002F7001F0EFFB00F07DF9D4ED000A2069E9
:10539000F8EEE00A20EE200AFFF79EF9FFF766FA22
:1053A000544C142084ED000A01F0DCFB52A0FEF7FF
:1053B00053F92068FBF779F941EC100B54A053EC3A
:1053C000102BFEF749F9B0EE6A1AF0EE6A0AB0EE59
:1053D0006A0A01F0B1F8C82001F0C4FB012077E7A8
:1053E0004D4F543A20416C69676E2073656E736F40
:1053F000722E0D0A000000000000000000407F40F7
:10540000320D337F7CD9124000000000EA2E445454
:10541000FB211940AC0000206D69645F616E676C10
:10542000653D252E34660D0A00000000656E645F40
:10543000616E676C653D252E34660D0A0000000024
:105440000AD7A33C4D4F543A204661696C656420ED
:10545000746F206E6F74696365206D6F76656D651E
:105460006E74206C6F6F703232322E0D0A000000A5
:1054700000040240000000000000E03F4D4F543A9D
:105480002073656E736F725F646972656374696FB0
:105490006E3D3D4343570D0A000000004D4F543A06
:1054A0002073656E736F725F646972656374696F90
:1054B0006E3D3D43570D0A004D4F543A2050502049
:1054C000636865636B3A20006661696C202D206516
:1054D0007374696D617465642070703A0000000037
:1054E00025640D0A000000004F4B210D0A0000004A
:1054F000E4CB9640D00000204D4F543A205A6572BC
:105500006F20656C65632E20616E676C653A0000E4
:10551000252E34660D0A000070B52DED048BB0EE1B
:10552000408AFBF74FFD354D9FED359B0446696979
:10553000884201D3601A03E06FF07F40401A204494
:1055400000EE100AB8EE400A10EE100AFBF7ADF8B4
:1055500053EC192BFBF70AF8FBF7D2F800EE100A10
:105560006C61B5EEC00AF1EE10FA04D010EE100A2C
:10557000B0F17C5F01DD9FED240A2449D5ED061AC8
:10558000D1ED000A61EE802A38EE601AB0EEC12A31
:10559000B4EEE22AF1EE10FA1ADDB5EEC01AF1EE21
:1055A00010FA02D24FF0FF3007E0B5EEC01AF1EE6C
:1055B00010FA01DD012000E0002001EE100AB8EE33
:1055C000C11A21EE211A41EE000AC1ED000A01E0E4
:1055D00081ED008A95ED028A286991ED000AFFF7B6
:1055E0007BF8B0EE401ADFED0A0AB0EE480A00F090
:1055F000A3FFB0EE480ABDEC048B70BDAC000020E8
:10560000FCA9F1D24D62503F6F12833ACC000020CA
:105610000000000004E000BF11F8013B1844C0B2D4
:10562000521ED2B2F8D270470848094990ED010ADB
:10563000D0ED000A70EE200A91ED000AB8EEC01A13
:1056400090ED020A10EE810AFFF710B9C8000020A1
:10565000BC00002082B0CDE9000121F000400190A3
:105660009DED000B02B051EC100B704713B54FF4D9
:105670007A73012269460248FCF720FF00981CBD9E
:105680008408002010B5344C34482DED068B9FED76
:1056900030ABFDF705F900EE100A2068B8EE408A3D
:1056A00094ED020AB8EEC00A78EE408AFAF7CDFF10
:1056B0009FED2B1B53EC112BFAF7E6FE41EC190B77
:1056C000B0EEE80A10EE100AFAF7EFFF53EC192BD0
:1056D000FAF7FEFF19D26068FAF7E7FF41EC100B0A
:1056E000F5EEC08AF1EE10FA02DD9FED1F1B03E01C
:1056F000B0EE4A1AF0EE6A1A53EC112B51EC100B73
:10570000FAF71BFEFAF7FCFF6060BDEEC80A84EDF5
:10571000020A94ED000AF8EEC00A88EE200A10EEA4
:10572000100AFAF7C2FF53EC1A2BFAF7ADFE41EC60
:10573000180B6068FAF7B9FF53EC182BFAF7FDFD68
:10574000FAF7DEFFBDEC068B00EE100A10BD00007C
:10575000EA2E4454FB211940F8000020E8070020FD
:105760009A9999999999E93FEA2E4454FB2119C0D5
:1057700070B52DED028BFBF725FC1D4D9FED1D8BAC
:105780000446E968884201D3601A03E06FF07F4065
:10579000401A204400EE100AB8EE400A10EE100A3B
:1057A000FAF783FF53EC182BFAF7E0FEFAF7A8FF9D
:1057B00008EE100AEC60B5EEC08AF1EE10FA04D0E3
:1057C00018EE100AB0F17C5F01DD9FED0C8AFFF747
:1057D00059FFD5ED040A85ED040AEC6030EE601A3D
:1057E000C1EE080ABDEC028BB0EE600A70BD00008D
:1057F000F8000020FCA9F1D24D62503F6F12833AAD
:10580000134810B50078042820D003281ED001F0DA
:1058100007F8104880ED000AFFF706FF0E4C0F480E
:1058200084ED000A007830B1012804D0022802D0AB
:105830000BA0FDF711FF134894ED001AD0ED000AFC
:1058400090ED010ABDE8104000F076BE10BD0000EA
:10585000F1000020CC000020D4000020F000002047
:105860004D4F543A206E6F20746F727175652063CE
:105870006F6E74726F6C2073656C65637465642100
:1058800000000000E80000201CB5FBF7B9FDFDF7A3
:10589000BDFBFDF779F8FDF70BF9FDF77FF9074937
:1058A0000120CDE900014202002305A1084801F0D2
:1058B00007FE08B101F05AFAFEE7000014000020CC
:1058C0004170705461736B437265617465000000D0
:1058D000E50A00082DE9F0412DED028BB0EE408A7B
:1058E00000F0B2FFDFF894802548264F88ED000ACB
:1058F0000178254C2548264DDFED268A264E0529C0
:1059000008D2DFE801F0031E0E293000387828B1F4
:1059100086ED008ABDEC028BBDE8F08184ED018A42
:10592000F8E780ED008A1D4890ED000A38EE400A45
:10593000FDF7CAF985ED000AD8ED000A30EE600ADD
:1059400003E085ED008A38EE400AFDF757FA86ED50
:10595000000A387868B1DDE7B0EE480A85ED000A44
:1059600001F07EFA05E0B0EE480A80ED000AFFF78C
:10597000D3FD84ED010AC4ED008ACBE7D8000020F6
:10598000F1000020F0000020E8000020E4000020EA
:10599000E000002000000000DC000020CC0000201F
:1059A0002DE9F041DFF84C80054640460C46B8F83A
:1059B0000610C38800680A19D8F800701844802AB5
:1059C0000AD9C1F180018EB232462946FAF791FC1C
:1059D000A21BA919384601E022462946FAF789FC9C
:1059E00098F80610214401F07F01A8F80610BDE8E0
:1059F000F08100002C4900202DE9F34F81B06A4D61
:105A0000002000904FF0FF0AEB88AA8828898021A7
:105A100000F084FD84B2092C6ED36889A94698BB36
:105A200080230020B9F80470DFF880B1E51ED9F8B2
:105A300000602CE03A18B2FBF3FC114603FB1C1289
:105A400016F802C04A1CB2FBF3F803FB1822B25C42
:105A50004CEA022C8A1CB2FBF3F803FB1822B25C5E
:105A60004FEA0248CA1CB2FBF3F103FB1121715C3F
:105A700048EA01614CEA010CDC4506D13844B0FB30
:105A8000F3F103FB110006E017E0401C80B2A842CE
:105A9000D0DB4FF0FF3001B2002913DB0122A9F85F
:105AA0000A208AB2A9F80420B9F80630B9F808002B
:105AB000802100F033FD09281EDBB9F808004D46AF
:105AC00058B11CE0E41E3819C21700EB526222F0F4
:105AD0007F02801AA9F804000EE028792968421D87
