:020000040800F2
:10000000804F00206D0200085B310008F72A0008CD
:1000100059310008350C0008453A0008000000007E
:10002000000000000000000000000000AD0100081A
:100030008D1100080000000009020008D1330008FB
:10004000870200088702000887020008870200086C
:10005000870200088702000887020008870200085C
:10006000870200088702000887020008870200084C
:10007000870200088702000887020008870200083C
:1000800087020008870200088702000800000000BD
:1000900000000000000000000000000087020008CF
:1000A00087020008A13400088702000887020008C0
:1000B00087020008870200088702000887020008FC
:1000C00087020008870200088702000887020008EC
:1000D00087020008F13900088702000800000000CC
:1000E000870200088702000887020008000000005D
:1000F000000000000000000000000000870200086F
:10010000000000008702000887020008870200083C
:1001100000000000000000000000000000000000DF
:10012000870200088702000887020008870200088B
:10013000870200080000000000000000000000002E
:10014000000000000000000000000000870200081E
:10015000870200088702000887020008870200085B
:10016000870200088702000800000000000000006D
:10017000000000000000000000000000000000007F
:1001800000000000870200080000000000000000DE
:1001900087020008DFF810D000F06CFC0048004730
:1001A000255D0008AFF30080804F00202C4B1968BC
:1001B0000868B0E8F04F80F30988BFF36F8F4FF005
:1001C000000080F3118870470000000008480068B4
:1001D000006880F308884FF0000080F3148862B64E
:1001E00061B6BFF34F8FBFF36F8F00DF00BF00BF5B
:1001F00008ED00E0DFF80C00016841F470010160D7
:10020000704700BF88ED00E0EFF30980BFF36F8F08
:10021000134B1A681EF0100F08BF20ED108A20E95A
:10022000F04F106009B44FF0500080F31188BFF315
:100230004F8FBFF36F8F06F0D1FF4FF0000080F3B8
:10024000118809BC19680868B0E8F04F1EF0100F5B
:1002500008BFB0EC108A80F30988BFF36F8F704736
:100260002C000020EFF3058070470000064880470F
:1002700006480047FEE7FEE7FEE7FEE7FEE7FEE78B
:10028000FEE7FEE7FEE7FEE791340008950100086F
:100290002DE9F05F0546002092469B4688460646BB
:1002A000814640241BE0284641464746224600F04E
:1002B0003FFA53465A46C01A914110D31146184688
:1002C000224600F026FA2D1A67EB01084F46224617
:1002D0000120002100F01DFA17EB00094E41201EFD
:1002E000A4F10104DFDC484631462A464346BDE816
:1002F000F09F40EA01039B0703D009E008C9121FE1
:1003000008C0042AFAD203E011F8013B00F8013BCF
:10031000521EF9D27047D2B201E000F8012B491EFB
:10032000FBD270470022F6E710B513460A46044692
:100330001946FFF7F0FF204610BD2DE9FE4F80461D
:1003400081EA0300C00F0C46009021F0004123F029
:100350000045B8EB0200A94105D24046214690462F
:100360001C460B46024623F00040104347D0270DA1
:10037000C7F30A00C3F30A510290401A01904028C3
:100380006BDAC3F3130040F4801B0098924620B14F
:100390000023D2EB030A63EB0B0B01985946C0F123
:1003A0004002504600F0B5F906460D465046594603
:1003B000019A00F0CDF910EB08006141002487EAB2
:1003C000115284EAE7731A4340D0009A62B3019A4B
:1003D000012A4FEA075215DC001B61EB02014FF0C6
:1003E000004202EA0752CDE90042001C41F58011AB
:1003F00032462B4600F004FA03B0BDE8F08F4046C9
:100400002146F9E7001B61EB0201001C41F5801356
:1004100000185B412018A2F5001747EB030140EAE2
:10042000D570B6196D4111E06D084FEA360645EA00
:10043000C0754FEA0752001B61EB0201001C41F539
:10044000801149084FEA30000019514132462B46CD
:1004500003B0BDE8F04F00F0C4B90098012240009D
:100460000023D0EB020263EBE073009821464FEAD1
:10047000E074B8EB000061EB0401E9E783F00043AE
:100480005BE781F0004158E72DE9FE4F81EA030464
:1004900004F0004421F0004100944FF0000B23F0E1
:1004A000004350EA01045ED052EA03045BD0C3F378
:1004B0000A54C1F30A552C44A4F2F3340194A0FB6E
:1004C0000254C1F3130141F48011C3F3130343F445
:1004D000801301FB024400FB034E840A970A44EA9E
:1004E000815447EA8357A4FB076802958D0A05FBF0
:1004F00007854FEA932C04FB0C542705029D4FEA15
:10050000065847EA1637B5EB08056EEB070C870E61
:10051000920E47EA811742EA8312A7FB0201B6EB6B
:100520000B0164EB00042B0D43EA0C335E1844EB23
:100530001C50DA465146E7FB0201C5F313044FEAAB
:100540000B3343EA14534FEA0432019C43EA060397
:10055000A4F10C040294009CCDE900B400F050F921
:1005600003B0BDE8F08F00200146F9E72DE9F04D1A
:1005700081EA030404F0004B21F0004514464FF0DB
:10058000000A23F0004150EA050220D054EA01029B
:100590001DD0C5F30A570246C5F31303C1F3130078
:1005A000C1F30A5640F4801543F48013A7EB060804
:1005B000101BD64608F2FD3873EB050002D308F194
:1005C000010801E092185B41B8F1000F03DA002046
:1005D0000146BDE8F08D00204FF4801106468446A8
:1005E0000EE0171B73EB050705D3121B63EB050326
:1005F00006434CEA010C49084FEA300092185B416F
:1006000050EA0107EDD152EA030012D082EA040059
:1006100083EA0501084305D0101BAB4106D2012235
:10062000002306E000224FF0004302E06FF00102D9
:1006300053101AEB06004CEB085110EB0A0041EB8B
:100640000B01BDE8F04D00F0CCB870B5C1F30A5213
:1006500001F000450024C1F3130140F2FF3341F4DF
:1006600080119A4201DA002070BD40F233439A4271
:10067000A2F2334203DC524200F05AF800E090400C
:100680002C43F1D0404270BD00F0004230F00040F9
:100690000AD0C10D01F56071C0F3160042EA0151A4
:1006A000C20840071143704700200146704701F01F
:1006B000004330B421F0004150EA010206D00A0D97
:1006C000A2F56072C1F31301002A02DC30BC0020E5
:1006D0007047440F44EAC104C100E01830BC00EB8D
:1006E000C25000F047B830B50B460146002020222A
:1006F000012409E021FA02F59D4205D303FA02F52F
:10070000491B04FA02F52844151EA2F10102F1DC8E
:1007100030BD202A04DB203A00FA02F100207047A5
:100720009140C2F1200320FA03F31943904070472F
:10073000202A04DB203A21FA02F00021704721FA36
:1007400002F3D040C2F1200291400843194670479D
:10075000202A06DBCB17203A41FA02F043EAE07385
:1007600006E041FA02F3D040C2F120029140084372
:10077000194670470029A8BF7047401C490008BFB0
:1007800020F00100704710B4B0FA80FC00FA0CF0C1
:1007900050EA010404BF10BC704749B1CCF12004F9
:1007A00021FA04F411FA0CF118BF01212143084386
:1007B000A3EB0C01CB1D4FEA00614FEA102042BFB2
:1007C000002010BC704700EBC35010440029A4BFA8
:1007D00010BC7047401C490008BF20F0010010BC4D
:1007E000704710B5141E73F1000408DA401C41F183
:1007F000000192185B411A4301D120F0010010BDA5
:100800002DE9F04D92469B4611B1B1FA81F202E01A
:10081000B0FA80F220329046FFF77BFF04460F4685
:1008200040EA0A0041EA0B0153465A46084313D0F6
:10083000114653EA010019D0C8F140025046FFF7B3
:1008400077FF05460E46504659464246FFF761FF80
:10085000084305D0012004E020463946BDE8F08D6C
:100860000020054346EAE0762C4337430A986305A7
:10087000E40AA0EB08000022FD0A44EA47540A30CB
:1008800002D500200146E9E7010510196941DDE9BB
:10089000084500196941BDE8F04DA2E770B521F0A7
:1008A000004303430CD0C1F30A550024D5EB0405E3
:1008B00064EB0403D617AD1AB34102DB00200146F6
:1008C00070BD201841EB025170BD2DE9F04D0023A1
:1008D0001A461B1A8A4103DB00200146BDE8F08D51
:1008E000C1F30A52C1F3130141F480154FF0000B1C
:1008F000D10702D100186D41521E0027044640F274
:10090000FF11384601EB620A3E468046024600204F
:100910004FF48011FFF70CFFC2197141BB1846EB71
:100920000100B4EB030C75EB000C04D3E41A65EB87
:10093000000517460E46241908F101006D41804656
:100940003428E3DDF91946EB0600091BA84103D260
:100950004FF0FF32134601E0002213461BEB070065
:1009600046EB0A51BDE8F04DFFF73BBF2DE9FE4FC6
:10097000C3F30A5701F000450024C1F30A56C3F33C
:100980001303C1F3130143F4801312EB020AA646CA
:1009900041F48011009543EB030CA7F1010B16E025
:1009A000B0EB0A0061EB0C01071E71F1000707DADA
:1009B0004FF00008D0EB080085F0004568EB01011E
:1009C000171A73EB0107EBD3761E001849415E45F9
:1009D000F6DA50EA010209D0CDE900E5002213461B
:1009E0000296FFF70DFF03B0BDE8F08F2046009997
:1009F000F9E70EB5C10F80EAE0700844CA0700218C
:100A000040F233438DE80E000A460B46FFF7F8FE2E
:100A100003B000BDC1F30A52C1F3130140F2FF332A
:100A200041F480119A4202DA00200146704740F2F8
:100A300033439A42A2F2334202DC5242FFF778BEBD
:100A4000FFF767BE30B5041E71F1000404DB4FF000
:100A50000044404264EB0101141E73F1000405DB05
:100A60001C464FF00043524263EB0403994208BF17
:100A7000904230BD064C074D06E0E06840F00103AF
:100A800094E8070098471034AC42F6D3FFF786FB92
:100A9000E87D0008087E00080EB540F2334102915F
:100AA0000021CDE900110A460B46FFF7A9FE03B06D
:100AB00000BD000008B506F0FDFE054C0090206961
:100AC00002F01AFC0221684606F05EFAF7E7000021
:100AD0008C4900207CB506F059F902202249040215
:100AE000CDE900010023224620A1234806F07CFE28
:100AF000012802D121A002F0A7FF1B480525001DF7
:100B0000CDE900500023224623A1284806F06CFEC0
:100B1000012802D126A002F097FF134903200C31CF
:100B2000CDE90001002322462BA12E4806F05CFEF1
:100B3000012802D12CA002F087FF0B4800230830C7
:100B4000CDE9005022462FA1314806F04DFE012884
:100B500002D130A002F078FF0348406906F05AFA4B
:100B6000BDE87C4006F032B9000000204C45445FEF
:100B70005461736B00000000392E0008B4B4BDA8A6
:100B8000204C45445F5461736B20C8CECEF1B3C98D
:100B9000B9A6210A0A000000436C6F7365646C6F8C
:100BA0006F705F464F435F5461736B00390C0008F0
:100BB000B4B4BDA820436C6F7365646C6F6F705FD5
:100BC000464F435F5461736B20C8CECEF1B3C9B9B1
:100BD000A6210A0A0000000055534152545F546197
:100BE000736B0000FD390008B4B4BDA82055534113
:100BF00052545F5461736B20C8CECEF1B3C9B9A60D
:100C0000210A0A004153353630305F5461736B005E
:100C1000B50A0008B4B4BDA8204153353630305F62
:100C20005461736B20C8CECEF1B3C9B9A6210A0AAC
:100C300000000000FEE700002DED028B84B00122D1
:100C400004213C4800F084FC3B4E9FED3C8A3C4C28
:100C5000307868B13B4800F01CFB94ED040A05466F
:100C600010EE100A384988422FD99FED380A33E038
:100C70003948374A37498DE807003248DFED370AEF
:100C80004FF0FF3307229FED360A0021243800F091
:100C900081FA06F00FFE03902A48F0EE481AB0EEF3
:100CA000481ADFED300A9FED300A243800F081F851
:100CB0002448F0EE481AB0EE481ADFED2C0A9FEDFA
:100CC0002C0A243800F068F8C2E710EE100A29490F
:100CD000884201DD9FED280A284984ED040AB0EE20
:100CE000C00A10EE100A88420BDA26489FED240A4B
:100CF00080ED000A9FED240A80ED010A80ED028A52
:100D00000BE0B0EE481A0F48F0EE411ADFED1F0A73
:100D10009FED1F0A243800F04CF80A4894ED040AAD
:100D2000243800F06FF81B480321456003A806F043
:100D30002BF98DE700040240B00000200000000005
:100D400000000020B04900200000C8C20000C8C256
:100D5000F8000020D0000020D00700200AD7233C54
:100D600066664641A69B443B0E4F2F3B6F12033AEB
:100D7000EC51B83D0000C8420000C842000070417C
:100D80000E4FAF3A344A0020A69BC43A52491D3B4D
:100D9000BDBEE93A08490020016A81ED000A016AF6
:100DA000C1ED010A016A81ED021A006AC0ED031A61
:100DB0007047C16981ED000AC169C1ED010AC169CD
:100DC00081ED021AC069C0ED031A7047024981ED36
:100DD000060AC06902F0D4B90849002010B50446DB
:100DE000006904F06FFFD4ED030A6069F8EEE00AD1
:100DF00020EE800A02F04CF8014880ED050A10BD93
:100E00000849002010B504462DED028BF0EE408A13
:100E100004F060FAB0EE408A2046FFF7DFFF38EEBC
:100E2000C00ADFED0A0A9FED0A1A204660EE200A8A
:100E300080EE810AFFF7CAFFF0EE480ABDEC028B94
:100E40002046BDE8104005F0DDBD00000000344341
:100E5000DB0F494070B52DED0A8B0446B0EE00CA99
:100E60007EA002F0F1FD00264FF4FA759FED81ABF4
:100E70009FED82BB9FED838A00EE106AB8EEC00A38
:100E800020EE080A10EE100AFFF7FEFB53EC1A2BB7
:100E9000FFF76CFB53EC1B2BFFF74FFAFFF707FC38
:100EA00000EE900AB0EE4C0A204605F0ABFD0220A1
:100EB00006F044F8761CAE42DEDD206904F0AEFE9A
:100EC000B0EE409A00EE105AB8EEC00A20EE080AC2
:100ED00010EE100AFFF7D8FB53EC1A2BFFF746FB76
:100EE00053EC1B2BFFF729FAFFF7E1FB00EE900A0A
:100EF000B0EE4C0A204605F085FD022006F01EF8F3
:100F00006D1EDFD5206904F089FEF0EE408A9FED6A
:100F10005EAA2046B0EE4A0AF0EE400A05F072FDE5
:100F2000C82006F00BF819EE100AFFF7ADFB41ECF4
:100F3000100B56A053EC102B02F086FD18EE900A11
:100F4000FFF7A2FB41EC100B55A053EC102B02F065
:100F50007BFD39EE680AB4EE689AF0EEC09AF1EEC5
:100F600010FA04D019EE900A5249884208DC52A0C7
:100F700002F06AFD002204215A4800F0E9FA0FE06D
:100F8000B4EEE89AF1EE10FA05D257A002F05CFD3B
:100F90004FF0FF3003E05CA002F056FD0120E0605E
:100FA00060A002F051FD94ED020AF8EEC00AB0EE26
:100FB000480A19EEA00AB0EEC00A10EE100AB0F10D
:100FC0007C5F16DD5BA002F03FFD88EE290A10EE83
:100FD000100AFFF759FB9FED5D1B53EC112BFFF738
:100FE000ACF9FFF732FB0146A0605AA002F02CFDDD
:100FF00002E05AA002F028FDDFED5A0AB0EE4C0ADA
:10100000204605F0FFFC4FF42F7005F097FF2046B7
:1010100004F060F904F03AFA534D142085ED060A05
:1010200005F08CFF51A002F00FFDA869FFF72CFB23
:1010300041EC100B53A053EC102B02F005FDB0EE69
:101040004A0A2046F0EE400A05F0DCFCBDEC0A8BB3
:10105000C820BDE8704005F071BF00004D4F543A04
:1010600020416C69676E2073656E736F722E0D0A76
:10107000000000000000000000407F4000000080F1
:101080007CD91240DB0FC940000000006D69645F2D
:10109000616E676C653D252E34660D0A0000000008
:1010A000656E645F616E676C653D252E34660D0A62
:1010B000000000000AD7A33C4D4F543A2046616916
:1010C0006C656420746F206E6F74696365206D6F4A
:1010D00076656D656E74206C6F6F703232322E0DD6
:1010E0000A000000000402404D4F543A2073656E20
:1010F000736F725F646972656374696F6E3D3D43BF
:1011000043570D0A000000004D4F543A2073656E9E
:10111000736F725F646972656374696F6E3D3D439E
:10112000570D0A004D4F543A2050502063686563B4
:101130006B3A20006661696C202D20657374696DBF
:10114000617465642070703A0000000000000000C7
:101150000000E03F25640D0A000000004F4B210D08
:101160000A000000E4CB9640B00000204D4F543AF6
:10117000205A65726F20656C65632E20616E676C06
:10118000653A0000252E34660D0A0000704772B6DD
:10119000FEE700002DE9F041344FF0EEC01A2DEDCE
:1011A000028BB0EE608ADDE90965DDF820C00170D0
:1011B00097ED011A0446F4EEC11AF1EE10FA01DBC4
:1011C000B0EE410A84ED010AC4E9022301EB810279
:1011D00002EBC100264A274B02EB800001EB8102A3
:1011E00003EB8203A361244B03EB8202C4E90402F4
:1011F00001EB410303EBC102204B03EB8203E361EC
:101200001F4B03EB82022262624602F049F8B0EE05
:10121000480AA06901F030FEB0EE480A606901F0AA
:101220002BFE94ED010AB6EE008A20EE082A86ED28
:10123000042AE06996EC040A01F090FF94ED010A9B
:1012400020EE082A85ED042A206A95EC040A01F0B4
:1012500085FF04F1240000F015F82046FFF7FAFDA1
:1012600001203870BDEC028BBDE8F081B000002099
:10127000244900200C4A0020E4490020344A002080
:101280008C4A002010B5044606F014FB2060606014
:1012900010BD10B5044600F00AF82168814202D959
:1012A000C943014400E0411A2060084610BD10B552
:1012B000044606F0FFFA606010BD2DE9F0410446D7
:1012C000876D00F04BF9064694F83500002502289A
:1012D00006D08020606584F834500120BDE8F0819C
:1012E0002068016821F0160101602068416921F041
:1012F00080014161206C08B9A06C20B120680168B0
:1013000021F0080101602068016821F001010160FD
:101310000CE000F023F9801B052807D92020606528
:10132000032084F8350084F83450D7E7206800683B
:10133000C007EED194F85C103F208840B8600120CF
:1013400084F8350084F834500020C7E790F8351051
:10135000022903D08021416501207047052180F8D2
:1013600035100068016821F001010160002070471C
:101370002DE9F84FDFF8B8A10022012403254FF032
:101380000F090AF1040BAAF1040E00BF0B6804FA5E
:1013900002F63340B34273D10F7907F00307012FF0
:1013A00001D0022F16D187684FEA420805FA08FCDF
:1013B00027EA0C07D1F80CC00CFA08FC4CEA070C21
:1013C000C0F808C04768B7430E79C6F300169640C8
:1013D0003E4346600E79F643B6070DD0C768560007
:1013E00005FA06FC27EA0C07D1F808C00CFA06FC3F
:1013F0004CEA070CC0F80CC00E7906F00306022E6A
:1014000010D1D60800EB8608D8F8206057074FEABD
:10141000D76C09FA0CF7BE430F6907FA0CF737438C
:10142000C8F8207006684FEA420C05FA0CF7BE4374
:101430000F7907F0030707FA0CF7374307604E6888
:1014400016F4403F6DD03B4E376847F48047376015
:10145000366822F0030706F480460096364E07EB06
:10146000060CDCF8086897073F0F09FA07F826EA28
:101470000806DFF8C880404503D14FF000081EE0A1
:101480004FE0DFF8BC80404502D14FF0010816E084
:10149000DFF8B080404502D14FF002080FE0DFF8DE
:1014A000A880404502D14FF0030808E0DFF89C8097
:1014B000404502D14FF0040801E04FF0070808FA58
:1014C00007F848EA0608CCF80888DAF800605746BA
:1014D000D1F804C09E435FEACC2C00D51E433E6089
:1014E000DBF800605F46D1F804C09E435FEA8C2CB5
:1014F00000D51E433E60DEF800607746D1F804C098
:101500009E435FEA8C3C00D51E433E60084F083F77
:101510003E68D1F804C09E435FEACC3C00D51E4330
:101520003E60521C102AFFF431AFBDE8F88F000076
:10153000083C0140443802400030014000000240B5
:101540000004024000080240000C0240001002406B
:101550000AB1816170470904FBE700000148806817
:10156000704700001C00002070B5040025D094F8DE
:101570003D00002520B984F83C50204600F0BAF91F
:10158000242084F83D002068016821F001010160F9
:101590002068016841F4004101602068016821F47D
:1015A0000041016000F080FB4D4A6168914201D822
:1015B0004C4900E04C49884201D2012070BD4B49A2
:1015C0002368B0FBF1F15E6826F03F060E435E60D3
:1015D0006368934206D94FF4967359434FF47A7374
:1015E000B1FBF3F12368491C1E6A26F03F06314324
:1015F00019626168914210D84900401EB0FBF1F2B7
:10160000521CC2F30B02042A01D2042022E0B0FBD8
:10161000F1F0401CC0F30B001CE0A268F2B301EB38
:10162000C10303EB0116431EB3FBF6F35B1C43F44B
:1016300080431B0549D092B301EBC10202EB0111BB
:10164000401EB0FBF1F0401CC0F30B0040F48040A2
:1016500040F400402168CA694CF6FF739A43104376
:10166000C861D4E9071001432068026822F0C00273
:1016700011430160D4E9030101432068826848F204
:10168000FF339A4311438160D4E90501084321687F
:10169000CA6822F0FF021043C86001E00EE016E0C5
:1016A0002068016841F0010101602564202084F870
:1016B0003D00256384F83E50002070BD01EB4106DB
:1016C000431EB3FBF6F35B1CB3E70120C2E701EB5B
:1016D0004101401EB0FBF1F0401CC0F30B00B7E726
:1016E000A086010080841E0000093D0040420F00DA
:1016F0002DE9FF4F83B09A46DDE9118793460446F2
:10170000DDF84090FFF72AFF054694F83D002028B9
:1017100070D11923012274492046009501F082FA04
:101720000028F5D194F83C00012863D0012084F80A
:101730003C0020680168C90703D1016841F001013C
:1017400001602068016821F400610160222084F8B2
:101750003D00402084F83E0000262664C4F8249012
:10176000A4F82A80608D20856048E062CDE900758C
:1017700053465A462046049901F0D6F9002879D1FB
:10178000208DD0B1012821D00228206824D04169C1
:1017900080690090208D032866D801282BD05449F9
:1017A00002283B464FF00002009557D0884620465D
:1017B00001F038FA00285DD13AE02068416981697A
:1017C0000091016841F4007101607DE020680168CA
:1017D00021F480610160F0E7016821F4806101601B
:1017E0002068016841F400610160206841698069F6
:1017F000009069E075E02A463946204601F0B8FAC3
:1018000088BB54E02068016841F4007101602068E1
:101810000069616A0870606A401C6062218D491E1F
:101820002185618D491E618521680969017042E049
:101830002068016821F48061016020680069616AA4
:101840000870606A401C6062208D401E2085608D9B
:10185000401E60853B46002241460095204601F02F
:10186000E1F900B9CEE705E02A463946204601F005
:101870007FFA18B1012007B0BDE8F08F2068006939
:10188000616A0870606A401C6062208D401E81B2EF
:101890002185608D401E608520684269D2435207D1
:1018A00012D4032903D1016821F48061016020680A
:1018B0000069616A0870606A401C6062208D401E89
:1018C0002085608D401E6085208D00287FF462AFEA
:1018D000202084F83D0084F83E6084F83C600020BD
:1018E000C9E70220C7E70000020010000000FFFF68
:1018F0000400010070B586B0044614216846FEF766
:1019000011FD1D492068884234D11C48002401681B
:1019100041F001010160016801F0010105910168D8
:1019200041F0020101600068122500F002000590FC
:101930004FF48070CDE90005032602940420CDE920
:10194000036069460E48FFF713FD1020CDE900053E
:1019500002940920CDE9036069460A48FFF708FDB3
:1019600006481030016841F400010160006800F48D
:101970000000059006B070BD005C004030380240A9
:1019800000000240000402400248816802781144CD
:10199000816070471C0000200B4810B5016841F4BD
:1019A00000710160016841F480610160016841F4E7
:1019B00080710160032000F099F80F2000F006F814
:1019C00000F04AF8002010BD003C024030B505464A
:1019D0001C4887B00024016841F0010101600068E3
:1019E00006A900F00100009001A800F03DF900F008
:1019F0006BF91549154AB0FBF1F11548491E026013
:101A000040F2E732C0E90324C0E90114846100F028
:101A100093FB040012D10E4800F0D0FB04000DD15E
:101A2000192000F035F8102D07D200222946192080
:101A300000F03CF80748056000E0012407B02046AC
:101A400030BD00004438024040420F000000014019
:101A5000B4080020200000200C4882B0016841F446
:101A600080410160006800F4804000900748001F3A
:101A7000016841F0805101600068002200F0805050
:101A800000900F21901E02B000F010B844380240C0
:101A9000002809DB00F01F0201219140400980006D
:101AA00000F1E020C0F8001170470000F0B40E4BC8
:101AB0001B680C46C3F30223C3F10705042D00D9AC
:101AC0000425191D072901D2002300E0DB1E012691
:101AD00006FA05F1491E214099409E40761E1640A7
:101AE0003143F0BC01F0D8BF0CED00E0064900F036
:101AF000070208684FF6FF03184040EA0220034A35
:101B000010430860704700000CED00E00000FA058B
:101B1000BFF34F8F05480168054A01F4E0611143A6
:101B20000160BFF34F8F00BFFDE700000CED00E048
:101B30000400FA052DE9F0470E46050065D0DFF8F0
:101B40001481D8F80000F7B200F00700B04207D2C5
:101B500088F80070D8F8000000F00700B04254D1B7
:101B600028683D4C810712D5400703D5206840F412
:101B7000E05020602878000703D5206840F46040DA
:101B800020602068A96820F0F000084320602878D1
:101B9000C0072DD0304968680839012812D00228C2
:101BA00013D0032811D00968890700292DDA21688C
:101BB00021F0030101432160FFF7D0FC814641F28F
:101BC000883A0EE009688903EFE709688901ECE7C4
:101BD000FFF7C4FCA0EB0901514502D90320BDE881
:101BE000F0872068696800F00C00B0EB810FEFD13E
:101BF000D8F80010404601F00701B14207D907703C
:101C0000006800F00700B04201D00120E7E7287823
:101C1000400705D52068E96820F4E05008432060BB
:101C20002878000706D52068296920F4604040EA3A
:101C3000C100206000F058F82168084AC1F3031180
:101C4000515CC8400649086006480068FFF7BEFEC0
:101C50000020C4E7003C024008380240207C000815
:101C600028000020200000200F2202600C4A136888
:101C700003F003034360136803F0F0038360136809
:101C800003F4E053C36012684FF4E05303EAD20256
:101C900002610448006800F0070008607047000017
:101CA00008380240003C02400448054900680968C1
:101CB000044AC1F38221515CC840704728000020CB
:101CC00008380240307C000804480549006809686B
:101CD000044AC1F34231515CC840704728000020DB
:101CE00008380240307C0008154810B5006810F034
:101CF0000C02144813D01449042A0FD0082A0ED11C
:101D00000F4C241F2268236802F03F025B0207D5B4
:101D10002068C0F38810A0FB010106E0084610BD52
:101D20002168C1F38811A1FB00010023FEF7B0FA7E
:101D30002168C1F30141491C4900B0FBF1F010BD1D
:101D4000083802400024F40040787D012DE9F84F66
:101D500004006ED02078DFF84C93C007A9F1040589
:101D60004AD009F104000168C1F38101012908D0BA
:101D70000068C0F3810002280AD1D9F800004002AF
:101D800006D52868800337D560680028E1D033E0A5
:101D90006068B0F5803F10D0B0F5A02F286810D053
:101DA00020F480302860286820F480202860606853
:101DB000A8B1FFF7D3FB06460DE0286840F4803059
:101DC000F4E740F480202860F7E700BFFFF7C6FB88
:101DD000801B642873D828688003F7D50CE0FFF7D0
:101DE000BDFB064605E000BFFFF7B8FB801B64287B
:101DF000F0D828688003F7D42078DFF8AC82800719
:101E00004FF0000A3ED5A748001D016811F00C0FE5
:101E100008D00068C0F3810002280BD1D9F8000077
:101E2000400207D42868800716D5E068012800D151
:101E300012E033E1E068B8B10120C8F80000FFF714
:101E40008DFB064605E000BFFFF788FB801B0228DC
:101E5000C0D828688007F7D52868216920F0F800E5
:101E600040EAC10028600DE0C8F800A0FFF776FB4B
:101E7000064604E0FFF772FB801B02281FD8286883
:101E80008007F7D42078000722D5864F87486169FC
:101E9000703771B101210160FFF760FB064604E075
:101EA000FFF75CFB801B022809D838688007F7D54C
:101EB0000EE0C0F800A0FFF751FB064605E082E007
:101EC000FFF74CFB801B02287DD838688007F7D4C9
:101ED0002078400768D5DFF8CCB100270BF13C0B28
:101EE000DBF80000C0000BD4DBF8001041F080519B
:101EF000CBF80010DBF80000012700F080500090C4
:101F00006B4E3068C00510D4306840F4807030608B
:101F1000FFF724FB009005E0FFF720FB0099401A33
:101F2000022850D83068C005F6D55E4EA0686C36E1
:101F300001280FD00528306810D020F00100306053
:101F4000306820F004003060A068B8B1FFF706FBED
:101F500000900FE0306840F00100F4E740F004002A
:101F60003060F7E7FFF7FAFA0099411A41F288303A
:101F7000814266D830688007F4D50EE0FFF7EEFAAC
:101F8000009007E0FFF7EAFA0099411A41F2883021
:101F9000814256D830688007F4D42FB1DBF80010A6
:101FA00021F08051CBF80010A069C8B33D49091D4C
:101FB0000968C1F3810102294AD00228504607D09E
:101FC000C8F8600000E03CE0FFF7C8FA04463BE0D8
:101FD0004746C8F86000FFF7C1FA064605E000BFB3
:101FE000FFF7BCFA801B02282BD828688001F7D4A1
:101FF000D4E907010843A16A2E4A490802EB0141CE
:10200000626A41EA8211084394F82C1040EA0161A7
:10201000C9F8001001203866FFF7A0FA044606E070
:102020003EE000BFFFF79AFA001B022809D8286893
:102030008001F7D534E000BFFFF790FA001B0228BB
:1020400002D90320BDE8F88F28688001F4D427E086
:102050000128F7D0D9F80000E26900F4800191422C
:102060001CD1226A00F03F01914217D147F6C0719E
:10207000626A0140B1EB821F10D1A26A4FF0FF33B8
:1020800000F4403103EB5202B1EB024F06D194F859
:102090002C1000F07060B0EB016F01D00120D1E78F
:1020A0000020CFE70438024000004742800E47423C
:1020B000007000400000FFFF7047704770B590F857
:1020C0003C20012A2CD0012480F83C40022280F8D8
:1020D0003D2003685A689D6822F070060A68324302
:1020E0005A60104B02689A420ED0B2F1804F0BD06A
:1020F0000D4B9A4208D00D4B9A4205D00C4B9A4298
:1021000002D00C4B9A4204D1496825F08003194350
:10211000916080F83D40002180F83C10084670BD79
:10212000022070BD00000140000400400008004093
:10213000000C00400040014010B5040003D094F8AA
:102140003D0010B107E0012010BD002084F83C00E4
:10215000204600F01FF8022084F83D00211D206871
:1021600001F0A4F9012084F8460084F83E0084F8C8
:102170003F0084F8400084F8410084F8420084F86D
:10218000430084F8440084F8450084F83D000020B2
:1021900010BD000008B500680649884208D106480D
:1021A000016841F002010160006800F00200009047
:1021B00008BD0000000400404038024090F83D1087
:1021C000012901D001207047022180F83D100168EB
:1021D000CA6842F00102CA6000680E4988420ED007
:1021E000B0F1804F0BD00C49884208D00B4988428F
:1021F00005D00B49884202D00A49884204D181683F
:1022000001F00701062903D0016841F001010160D6
:10221000002070470000014000040040000800401A
:10222000000C00400040014070B5044690F83C00AE
:102230000025012817D0012684F83C60022084F88C
:102240003D002068826822F0770222F47F4282609B
:102250000868502838D00DDC20284FD005DC90B31A
:10226000102811D14AE0022070BD302846D0402805
:102270000AD13BE060282FD070280DD0B0F5805FE8
:1022800003D0B0F5005F12D0012584F83D60002036
:1022900084F83C00284670BDCB68D1E90121206854
:1022A00001F063F92068816841F0770109E0CB68AB
:1022B000D1E90121206801F058F92068816841F4D2
:1022C00080418160E1E719E0CA684968206801F04F
:1022D00001FA5021206806E0CA684968206801F0C8
:1022E0000AFA6021206801F04AF9CEE7CA68496815
:1022F000206801F0EFF940212068F4E722680146E8
:102300001046F0E770472DE9F04104460068C668C2
:1023100005694FF00007A90713D5B10711D5F91EBC
:10232000016101202077206880698007204602D063
:10233000FFF7E8FF04E000F0BBF8204600F04DF99D
:102340002777680716D5700714D521686FF0040049
:102350000861022020772068806910F4407F2046C1
:1023600002D0FFF7CFFF04E000F0A2F8204600F013
:1023700034F92777280715D5300713D521686FF072
:1023800008000861042020772068C0698007204683
:1023900002D0FFF7B7FF04E000F08AF8204600F013
:1023A0001CF92777E80616D5F00614D521686FF0DA
:1023B00010000861082020772068C06910F4407F71
:1023C000204602D0FFF79EFF04E000F071F820469F
:1023D00000F003F92777E80708D0F00706D0216856
:1023E0006FF001000861204600F050F9280608D57A
:1023F000300606D521686FF0800008612046FFF79F
:102400005BFE680608D5700606D521686FF04000AF
:102410000861204600F044F9A8060AD5B00608D5A0
:1024200021686FF0200008612046BDE8F041FFF709
:1024300044BEBDE8F081000030B587B004461421E9
:102440006846FDF76FFF16492068884226D1154877
:102450000024016841F001010160016801F00101FF
:102460000591016841F0020101600068022500F059
:1024700002000590C0200090CDE9015469460A4849
:10248000CDE90345FEF774FF03200090CDE9015428
:1024900069460648CDE90345FEF76AFF07B030BD3F
:1024A00000040040303802400000024000040240B6
:1024B000704770B5044690F83C0000260D46012890
:1024C0000FD0012084F83C006AB1042A1DD0082AEC
:1024D0002FD00C2A3FD00126002084F83C00304643
:1024E00070BD022070BD206801F052F8206881693B
:1024F00041F0080181612068816921F00401816156
:10250000206881692A69114311E0206801F068F8A8
:102510002068816941F4006181612068816921F44A
:1025200080618161206881692A6941EA02218161B3
:10253000D2E7206801F080F82068C16941F0080105
:10254000C1612068C16921F00401C1612068C169CD
:102550002A69114311E0206801F09AF82068C169E6
:1025600041F40061C1612068C16921F48061C161E9
:102570002068C1692A6941EA0221C161ACE710B54E
:10258000040003D094F83D0010B107E0012010BD15
:10259000002084F83C00204600F01EF8022084F859
:1025A0003D00211D206800F081FF012084F84600D5
:1025B00084F83E0084F83F0084F8400084F841002D
:1025C00084F8420084F8430084F8440084F845000D
:1025D00084F83D00002010BD7047704710B50446D8
:1025E000022249B104290ED0082913D094F84100E1
:1025F000012816D0012010BD94F83E000128F9D121
:1026000084F83E200FE094F83F000128F2D184F8CE
:102610003F2008E094F840000128EBD184F84020E6
:1026200001E084F841200122206800F091FF124966
:102630002068884203D1426C42F400424264206820
:1026400088420ED0B0F1804F0BD00C49884208D0A0
:102650000B49884205D00B49884202D00A4988427A
:1026600004D1816801F00701062903D0016841F017
:1026700001010160002010BD000001400004004085
:1026800000080040000C0040004001400068034981
:10269000884201D1FFF778B970470000000001407F
:1026A0007047704770470000F8B501680446086835
:1026B000CA684B6910F00F0F4FF0000559D003F0B6
:1026C000010602F49077374365D0C10705D0D105E4
:1026D00003D5616C41F001016164410705D5D9075B
:1026E00003D0616C41F002016164810705D5D9070F
:1026F00003D0616C41F004016164010707D502F069
:102700002001314303D0616C41F008016164616CC8
:1027100000293AD0800604D5900602D5204601F063
:102720002BF820684069616CC0F38010090700D461
:1027300060B3204600F0F9FF20684069400621D5CB
:102740002068143050E8001F21F0400140E80012DA
:10275000002AF5D1E06BA8B16E490165E06BFEF788
:10276000F5FD002811D0E06B016D01B0BDE8F0402F
:10277000084783060FD593060DD52046BDE8F840DF
:1027800000F0FABF2046FFF78DFFF8BD2046FFF7A7
:1027900089FF6564F8BD266B2023012E7DD1C60616
:1027A0007BD5D60679D508684868009048694FF00F
:1027B0000206400641D5E16B086840680004000C41
:1027C000E8D0A28D8242E5D9E085C869B0F5807F66
:1027D0002DD020680C3050E8001F21F4807140E8B3
:1027E0000012002AF5D12068143050E8001F21F0B3
:1027F000010140E80012002AF5D12068143050E8A9
:10280000001F21F0400140E80012002AF5D184F8B1
:102810004230256320680C3050E8001F21F0100181
:1028200040E80012002AF5D1E06BFEF746FD666332
:10283000A08DE18D401A81B22AE0A08DE18D401A71
:1028400081B2E08D0028A5D00029A3D022680C32E7
:1028500052E8000F20F4907042E80007002FF5D1F5
:102860002068143050E8002F22F0010240E80027D1
:10287000002FF5D184F84230256320680C3050E8F1
:10288000002F22F0100240E80023002BF5D16663F0
:102890002046FFF706FFF8BDFFE705062BD5150616
:1028A00029D594F841002128F5D1A068B0F5805FC2
:1028B00001D12069B0B1206A411C216221680078F1
:1028C0004860E08C401E0004000CE084E3D12068E6
:1028D000C16821F08001C1602068C16841F04001F9
:1028E000C160D8E7206A0088C0F308004860206A09
:1028F000801C2062E5E74006CDD55006CBD5CA68DE
:10290000204622F04002CA6084F8413000F0F2F81C
:10291000C1E700001B37000870B5040004D094F82C
:102920004100002510B106E0012070BD84F8405040
:10293000204600F023F8242084F841002068C16874
:1029400021F40051C160204600F078FF2068016941
:1029500021F4904101612068416921F02A0141611F
:102960002068C16841F40051C1606564202084F88A
:10297000410084F842006563002070BD10B586B048
:10298000044614216846FDF7CDFC184920688842AA
:1029900029D117480021026842F010020260006845
:1029A00000F01000059012481438026842F001024D
:1029B0000260006800F0010005904FF4C0600090D4
:1029C0000220CDE90101032003900720049069460D
:1029D0000848FEF7CDFC002205212520FFF766F808
:1029E0002520FFF755F806B010BD0000001001408B
:1029F000443802400000024090F84230202B01D0C1
:102A00000220704721B11AB10023036300F09CBF7C
:102A10000120704710B500680B49884213D150203F
:102A2000EFF3118480F31188BFF34F8FBFF36F8FE3
:102A30000121064803F09EF9012204490448FFF7EA
:102A4000DBFF84F3118810BD001001401800002046
:102A50006C0800202DE9F843044690F841009846A0
:102A600016460D46202802D00220BDE8F88385B125
:102A70007EB100206064212084F84100FEF76EFDE5
:102A8000A6848146E684A0682027B0F5805F02D046
:102A900003E00120E9E7206910B12E4600250EE091
:102AA00000260CE08021204600F069FFA8B9C6B1DD
:102AB00016F8010B21684860E08C401EE084E08C31
:102AC0004B464FF00002CDF800800028EAD14FF0CD
:102AD0004001204600F053FF40B184F841700320CC
:102AE000C3E735F8020BC0F30800E3E784F8417050
:102AF0000020BAE77047FEE701684A69D2435205F1
:102B00000FD46FF480624A61002140F8301F202208
:102B100042738173026942F0040202610173012071
:102B200070470020704700002DE9F84F0446006808
:102B300089460B9D01689846174641F48061016003
:102B40002068016841F48071016000954FF0011B1D
:102B50000022594620460A9B00F064F84FF4007AA0
:102B600040B120680068C00501D5C4F840A003202A
:102B7000BDE8F88F216809F0FE0008612B4628495E
:102B800020460A9A00F096F8F0BB206841698069F7
:102B900000902A4620460A9900F022F940B1206CA4
:102BA00004283AD12068016841F40071016034E0E2
:102BB000FEB2B8F1010F09D02168380A08612A462F
:102BC00020460A9900F00CF90028E8D12068066137
:102BD0002A4620460A9900F003F90028DFD1206830
:102BE000016841F480710160009500225946204639
:102BF0000A9B00F017F80028B3D1216809F0FF0004
:102C000040F00100086100E007E02B46044920463F
:102C10000A9A00F04FF80028AAD00120A8E7000087
:102C2000020001002DE9F047984617460D4604467C
:102C3000C1F30746DDF820902AE000BFB8F1FF3F5E
:102C400026D0FEF78BFCA0EB0901414502D8B8F174
:102C5000000F1DD12068012E16D0806925EA0000E2
:102C60000004000C12D00020B84211D1002044F81A
:102C7000300F20216173A073216941F0200121618F
:102C800020730120BDE8F0874069E7E70120EBE70A
:102C90002068012E0AD0806925EA00000004000C9B
:102CA00006D00020B842C9D00020EBE74069F3E726
:102CB0000120F7E72DE9F047984616460D460446F1
:102CC0004FF000094FF0200AC1F3074723E02068C6
:102CD0004069C043400515D42068016841F4007183
:102CE000016021686FF480604861C4F8309084F816
:102CF0003DA084F83E90216C41F00401216484F8E9
:102D00003C9021E0701C06D0FEF728FCA0EB0800E8
:102D1000B04203D816B1012F1FD021E02068012F47
:102D200015D0806925EA00000004000C18D000BF0F
:102D300044F8309F84F80DA084F80E90216941F08A
:102D40002001216184F80C900120BDE8F0874069E2
:102D500025EA00000004000CEAD12068406901E087
:102D60002068806925EA00000004000CAFD1ECE780
:102D70002DE9F041002590460E460446202728E024
:102D80004069C043C0060CD454F8301B6FF01000EB
:102D9000486144F810596777A577206A2062257743
:102DA00014E0FEF7DBFBA0EB0800B04200D886B9C8
:102DB00020684069C04340060BD544F8305F677314
:102DC000A573206940F02000206125730120BDE833
:102DD000F08120684169C9434906D1D40020F6E753
:102DE00070B516460D4604461EE02046FFF784FEE9
:102DF00008B1012070BD681C16D0FEF7AFFB801B28
:102E0000A84200D885B920684069C04300060BD5A8
:102E1000002044F8300F20216173A073216941F034
:102E2000200121612073E4E720684069C043000667
:102E3000DBD4002070BD00002DED028B0B4C0C4D3F
:102E40009FED0C8A206880F40050206095ED040A04
:102E5000B0EEC00A20EE080ABCEEC00A10EE100A5E
:102E6000C0B2643004F06AF8ECE7000014080240D5
:102E7000000000200000C84280ED000A9FED030A18
:102E800080ED010A0830FEF7FDB9000000000000E7
:102E900010B504462DED028BB0EE408A0830FEF7E7
:102EA000F8F900EE100ADFED170A2061B8EE400ACB
:102EB00020EE200AB5EEC00AF1EE10FA02D2B0EE12
:102EC000600A0BE010EE100A0F49884206DD84ED1F
:102ED000018AB0EE480ABDEC028B10BD94ED001AD9
:102EE00031EE000AC1EE000A94ED010AB7EE001AB5
:102EF00020EE200A71EE600A00EE880A84ED010AD5
:102F0000E9E700006F12833A9A99993E2DE9F04162
:102F100086B014216846FDF705FA3248002501689D
:102F200041F004010160016801F0040105910168AC
:102F300041F080010160016801F0800105910168A4
:102F400041F001010160016801F001010591016892
:102F500041F0020101600068234F00F002004FF4CD
:102F600000540590002221463846FEF7F1FADFF8BA
:102F70007C80002204214046FEF7EAFA4FF478767E
:102F8000012231464046FEF7E3FA00940124CDE9E0
:102F90000145694638460395FEF7EAF9CDE9004553
:102FA000694613480294FEF7E3F904208DE83100E6
:102FB000694640460394FEF7DBF94FF4E040CDE963
:102FC0000005694602944046FEF7D2F90220CDE999
:102FD0000250CDE9006469464046FEF7C9F906B0E3
:102FE000BDE8F08130380240000802400004024091
:102FF000000002400D4810B50B4901600C494160CA
:1030000000214FF480428160C0E903124161816177
:10301000C1610162FEF7A8FA002803D0BDE81040A4
:10302000FEF7B5B810BD0000005C0040D0070020DE
:10303000A086010010B58EB000240794089409946E
:103040000A940B941C2168460C94FDF76BF93348E5
:103050003149016003214160202181604FF4C87132
:10306000C0E903148461FFF767F808B1FEF78FF831
:103070004FF48050079007A92848FFF7D5F808B10A
:10308000FEF785F82548FFF77AFA08B1FEF77FF8D2
:103090000B940BA921480C94FFF710F808B1FEF728
:1030A00076F86020CDE900040420049000226946EF
:1030B00002941A48FFF7FDF908B1FEF768F80422F8
:1030C00069461648FFF7F5F908B1FEF760F80822DF
:1030D00069461248FFF7EDF908B1FEF758F80C22DF
:1030E00069460E48FFF7E5F908B1FEF750F80021F0
:1030F0000A48FFF773FA04210848FFF76FFA08211E
:103100000648FFF76BFA0C210448FFF767FA0348FB
:10311000FFF792F90EB010BD000400402408002013
:103120000C4810B50A4901604FF4E13141600021BB
:1031300081600C22C160C0E904128161C161FFF7A6
:10314000EBFB002803D0BDE81040FEF720B810BD0F
:10315000001001406C080020FEE7FEE780EC050A45
:1031600000219FED060A80ED050A80ED060A80ED3C
:10317000070A81622030FEF785B8000000000000D9
:1031800010B504462DED028BB0EE408A2030FEF7DC
:1031900080F800EE100AA062F8EE400A9FED3F0AA8
:1031A00020EE801AB5EEC01AF1EE10FA04D911EE35
:1031B000100AB0F17C5F01DDB0EE401AD4ED010AD7
:1031C00094ED000AF6EE001A60EE810A94ED053ADD
:1031D00060EE082A94ED070A60EEA10A73EE081A61
:1031E00000EEA10AD4ED040AF1EE601AF4EEC01A62
:1031F000F1EE10FA02DDB0EE610A06E0F4EEC00A6C
:10320000F1EE10FA01D2B0EE600A38EE433AB0EEB9
:10321000402A94ED020A72EE822A20EE033A83EEEF
:10322000010A32EE800AF4EEC01AF1EE10FA02DD65
:10323000B0EE610A06E0F4EEC00AF1EE10FA01D237
:10324000B0EE600AD4ED031AF5EEC01AF1EE10FAF2
:103250001ADDD4ED060A30EE603AC3EE012AF4EE30
:10326000E21AF1EE10FA04D2B0EE600A01EE810A21
:103270000AE0B1EE613AB4EEE23AF1EE10FA03DDA3
:10328000B0EE600A01EEC10A84ED072A84ED060A59
:1032900084ED058ABDEC028B10BD00006F12833AED
:1032A00010B50446C4E9001202F0CAFC012003F084
:1032B00045FE204602F0C4FC51EC100BFDF7F7F977
:1032C000A06104F11C00FDF7DDFF012003F036FED4
:1032D000204602F0B5FC012003F030FE204602F04B
:1032E000AFFC51EC100BFDF7E2F9A06004F10C000B
:1032F000BDE81040FDF7C6BF10B504462DED028BAA
:1033000002F09EFC51EC100BFDF7D1F908EE100A0B
:1033100004F10C00FDF7BDFF606194ED020A0F4956
:1033200038EE400AF0EEC00A10EE900A88420BDD3B
:10333000B5EEC00AA16AF1EE10FA02DD4FF0FF30DF
:1033400000E001200844A06284ED028A204602F0D9
:10335000BDFC84ED0C0ABDEC028B10BD7CD9A040F5
:10336000B5EEC00AF1EE10FA02D89FED160A06E09B
:1033700010EE101AB1F17E5F01DBB7EE000A1349BF
:10338000DFED110A096858B1042811D020EE200A97
:103390000828BCEEC00A10EE100A11D0086470476D
:1033A00020EE200ABCEEC00A10EE100A48637047F7
:1033B00020EE200ABCEEC00A10EE100A88637047A7
:1033C000C8637047000000000000C84324080020C4
:1033D00010B5502080F31188BFF34F8FBFF36F8F6C
:1033E00004F06EFA18B104494FF0805008600020D4
:1033F00080F3118810BD000004ED00E030B593B0FB
:1034000030216846FCF78EFF14210CA8FCF78AFFD8
:103410001D480025016841F080510160006800F0FE
:10342000805011901948016821F4404141F4004155
:1034300001600068022400F44040119001200090D7
:10344000000401908001CDE9064019200890A020D9
:10345000CDE9090404200B906846FEF777FC08B11B
:1034600072B6FEE70CA90F2081E831004FF48050BE
:10347000CDE90F0502210CA8FEF75CFB002801D066
:1034800072B6FEE713B030BD403802400070004015
:103490000248016841F470010160704788ED00E066
:1034A0000148FEF730BF0000B4080020F0B5026804
:1034B000204B214C9F03214D214E984207D0B8420A
:1034C00005D0A04203D0A84201D0B04204D122F0DE
:1034D000700C4A6842EA0C02984210D0B8420ED0F2
:1034E000A0420CD0A8420AD0B04208D0154CA0424D
:1034F00005D0154CA04202D0144CA04203D122F4B6
:103500004074CA6822434C6922F080022243026060
:103510008A68C2620A688262984201D109690163BD
:10352000012141610169C90703D0016921F001014D
:103530000161F0BD000001400004004000080040AF
:10354000000C0040004001400044014000480140A0
:1035500010B501F01F030121046A99408C430462F5
:10356000016A9A401143016210BD10B5846842EAB5
:10357000032224F47F440A432243826010BD826800
:1035800022F070020A4342F0070181607047000098
:1035900030B5036A026A22F001020262426884695D
:1035A00024F073050C682C4323F002058B682B4331
:1035B0000A4DA8420BD123F00805CB6822F44072D3
:1035C0002B434D6923F0040315438A692A43426063
:1035D000846149684163036230BD0000000001401E
:1035E00030B5026A036A23F01003036243688469FA
:1035F0000D6824F4E64444EA05248D6822F0200294
:1036000042EA05120B4DA8420ED1CD6822F080028D
:1036100042EA05124D6923F4406343EA85038D694C
:1036200022F0400243EA8503436084614968816374
:10363000026230BD0000014030B5036A026A22F424
:10364000807202624268C46923F4007324F0730537
:103650000C682C438D6843EA05230C4DA8420ED11B
:10366000CD6823F4006343EA05234D6922F44052F8
:1036700042EA05128D6923F4806342EA0512426032
:10368000C4614968C163036230BD000000000140AD
:1036900030B5046A026A22F4805202624268C36949
:1036A0000D6823F4E64343EA05238D6824F40054AF
:1036B00044EA0534064DA84204D14D6922F4804203
:1036C00042EA85124260C36149680164046230BD08
:1036D0000000014010B5036A046A24F0010404628A
:1036E000846924F0F00444EA021423F00A020A4335
:1036F0008461026210BD10B5036A046A24F01004EC
:103700000462846923F0A00324F4704444EA023282
:1037100043EA01118261016210BD10B5806B002186
:10372000C185C184FEF7BEFF10BD01680C3151E8B0
:10373000002F22F4907241E80023002BF5D101689C
:10374000143151E8002F22F0010241E80023002B40
:10375000F5D1016B012909D101680C3151E8002F25
:1037600022F0100241E80023002BF5D1202180F83F
:10377000421000210163704708B590F842102229D9
:1037800001D0022008BD82684FF480539A4201D1D3
:10379000016921B1816A9A421BD04AB10AE00268EC
:1037A000816A5268C2F308020A80816A891C08E0B3
:1037B000026972B10268526802F07F020A70816A7F
:1037C000491C8162C18D491E0904090CC18503D0C1
:1037D0001BE002685268F1E70168CA6822F0200223
:1037E000CA600168CA6822F48072CA6001684A69C6
:1037F00022F001024A61202180F842100021416339
:10380000026B012A03D0FFF705F9002008BD016310
:1038100001680C3151E8002F22F0100241E800232A
:10382000002BF5D101680A68D20602D50A684968FA
:103830000091818DFEF735FFE7E7000070B5044683
:1038400000680169E26821F4405111430161216976
:10385000A068E26908436169114308432168CA68A6
:1038600049F20C639A430243CA6020684169A26925
:1038700021F440711143416131492068884202D0EE
:103880003049884202D1FEF71FFA01E0FEF70CFA38
:10389000E2690023192164253226B2F5004F6268DF
:1038A00028D0A0FB0101930F9200FCF7F1FC014628
:1038B000B0FBF5F06FF01802504301EB800006EB0F
:1038C0000010B0FBF5F000F0F002B1FBF5F002EBF8
:1038D0000012B1FBF5F06FF01803584301EB8000C4
:1038E00006EB0010B0FBF5F000F00F00216810446B
:1038F000886070BDA0FB010192185B41FCF7C8FC19
:103900000146B0FBF5F00201B1FBF5F06FF01803D2
:10391000584301EB800006EBC000B0FBF5F000F06F
:10392000F80002EB4002B1FBF5F0584301EB8000D8
:1039300006EBC000B0FBF5F000F00700D6E7000092
:10394000001001400014014081628285C28500217F
:103950004164222180F84210016921B10168CA68DE
:1039600042F48072CA6001684A6942F001024A6109
:103970000068C16841F02001C160002070472DE956
:10398000F843984617460D460446089E24E0701CEE
:1039900022D0FDF7E3FDA0EB0800B0421AD8CEB16B
:1039A0002068C168490717D5802D15D0402D13D048
:1039B0000168C94309070FD40168002540680090D9
:1039C0002046FFF7B2FE0820606484F840500120D2
:1039D000BDE8F8830320FBE72068006835EA0000B3
:1039E00004D00020B842D2D00020F1E70120F9E74E
:1039F0000148FEF759BE00006C08002008B502F02F
:103A0000C1FA0D4801236A4690ED040A194618468A
:103A1000BDEEC00A8DED000A03F0CEF80122074981
:103A20000748FEF7E9FF00BF02F0F8FE03F040F997
:103A3000142003F083FAF7E70000002018000020AC
:103A40006C080020FEE700000FB4054B10B503A979
:103A5000044A029801F03CFD10BC5DF814FB000024
:103A6000055C00082001002003B401984100009883
:103A700050EAC12018BF04204A0D18BF40F00100D1
:103A800040F2FF72B2EB515F08BF40F00200012824
:103A900008BF052002B070470907090E002804DBA3
:103AA00000F1E02080F80014704700F00F0000F1F2
:103AB000E02080F8141D704710B52F499FED2C1B96
:103AC0002DED020B84B0059820F000408842D8BF4D
:103AD0009DED040B2DDD2949884209D1049840B998
:103AE0004FF0010001F0F0FB01F0AEFB06B010BD9D
:103AF00005DB9DED040B01F093FB06B010BD68469D
:103B00009DED040B00F08CFF10F0030004BF9DED51
:103B1000021B9DED000B0CD001280ED09DED021B69
:103B20009DED000B022817D0012001F0C9FA06B064
:103B300010BD01F091F906B010BD9DED021B9DED89
:103B4000000B012001F0BCFA51EC100B81F0004198
:103B500006B041EC100B10BD01F07EF951EC100BDA
:103B600081F0004106B041EC100B10BD00000000D8
:103B70000000000000000000FB21E93F0000F07F92
:103B800010B52DED040B86B09DED060B10EE100A5E
:103B900010EE901A8DED000B002818BF012008438D
:103BA00020F00040C0F17F6000F1E040C00F21D163
:103BB0009DED080B10EE101A10EE900A8DED000B23
:103BC000002918BF0121084320F00040C0F17F60A8
:103BD00000F1E040C00F0DD129490798B1EB400F2B
:103BE00004BF0698002842D00998400004BF0898F6
:103BF00000283CD09DED080B53EC102B9DED060BDF
:103C000051EC100BFCF7B2FECDE902019DED020B69
:103C100040F2FF7110EE900A8DED000B31EA10506A
:103C200021D00798039900F0004001F0004188423C
:103C300019D09DED080B8DED040B9DED020B8DED64
:103C4000000B10EE900A059961F31E0005909DEDA2
:103C5000041B9DED020B51EC110B53EC102BFCF7E8
:103C600010FCCDE902019DED020B0AB010BD012050
:103C700001F02AFB0AB0BDE8104001F0E5BA0000EF
:103C80000000E0FF000000002DE9F04D2DED040BD9
:103C90002DED0E8B96B0DDE92550279CDDF890A028
:103CA00025F0004624F00048BAF1000F14BF0121AE
:103CB000002101EB4502FC4953184A1093422AD3D4
:103CC000002814BF0123002303EB44030B44F749EE
:103CD0008B4220D358EA00019FEDF59B76D0DFF8A8
:103CE000D8B35D4503D1BAF1000F05D188E0BAF130
:103CF000000F08BF002100D0012101EB450111F5A3
:103D0000001F08D8002814BF0121002101EB440145
:103D100011F5001F0BD99DED261B9DED240B16B050
:103D2000BDEC0E8B04B0BDE8F04D01F083BA002766
:103D3000002DBCBFE149884521DAE1498845A8BF8B
:103D400002271CDAC3451ADCDE4901EB285114298D
:103D500008DDC1F1340220FA02F101FA02F28242D6
:103D60000DD108E058B9C1F1140228FA02F101FAA4
:103D700002F2424503D101F00101C1F1020756EA06
:103D80000A0124D1002C22DA002D18BF022F01D005
:103D9000012F0AD0022001F097FA16B0BDEC0E8B6D
:103DA00004B0BDE8F04D01F023BA022001F08CFA16
:103DB00001F01EFA51EC100B81F0004141EC100BA8
:103DC00016B0BDEC0E8B04B0BDE8F08D18E09FED91
:103DD000BEAB9FEDBF8B002871D1B848804522D182
:103DE00005F1804010F5801008BFBAF1000F07D030
:103DF000B3450ADC002CA8BF9DED260BE0DA0DE0F0
:103E0000B0EE490AF0EE690ADAE7002C06DA9DED19
:103E1000260B51EC100B81F000416FE0AE48784466
:103E200090ED000BCCE7D8454DD1002C48DA2EB1EF
:103E300086423AD1BAF1000F42D126E0BAF1000F22
:103E400013D0022001F040FA01F00EFA8DED020BC2
:103E50009DED240B8DED000B10EE900A039961F39C
:103E60001E0003909DED020BAAE78DED02AB9DEDC8
:103E7000240B1AEE901A10EE900A8DED000B61F3F0
:103E80001E0003909DED020B9AE78DED028B9DEDD8
:103E9000240B18EE901A10EE900A8DED000B61F3D2
:103EA0001E0003909DED020B8AE709DA9DED240BBD
:103EB00051EC190B53EC102BFCF758FB1EE020E0E3
:103EC0009DED240B7CE786421BDAB4F1804F0DD0C8
:103ED000A4F10050B0F1FF5013D1002D11DB9DED86
:103EE000240B51EC100B02F0ABFE07E09DED240B10
:103EF00053EC102B51EC100B00F0C2BC41EC100B3A
:103F00005EE79DED240B51EC100B01F06FFEBAF152
:103F1000000FCDE90E0142D19FED710B46B3A6F122
:103F2000E040B0F17F600CD05E4538D1002D00DA62
:103F3000A7B3022F0CBF01204FF0FF30FCF759FD53
:103F4000DCE7002D01DD002C0DDA002D01DD002C59
:103F50001FDB002D16DA002C14DB012F08BF9FEDAC
:103F6000620B3FF42DAFB0EE4A0AF0EE6A0A27E783
:103F7000022F18BF002D0CD0012F0AD1002DFFF603
:103F80001FAF06E0002DB8BF002C08DA012F3FF468
:103F900017AFB0EE480AF0EE680A11E71BE0012007
:103FA00000EBE57050EA070115D0791EB0EE498AA2
:103FB000F0EE698A084308BF9FED4D8B4E480025FF
:103FC000804570DD4D494E48884514DDB0420DDB1B
:103FD000002C19DB2FE0012001F076F916B0BDECC2
:103FE0000E8B04B0BDE8F04D01F02EB9B34502DCF4
:103FF000002C09DC1FE0864202DA002C1BDA03E009
:104000005E452BDD002C16DD022001F05DF901F08C
:104010002BF98DED020B53EC1A2B51EC180BFCF71E
:1040200033FACDE900010399019861F31E00039072
:104030009DED020BC4E6022001F046F901F024F9DF
:1040400010EE901A18EE900A8DED020B8DED008B9C
:1040500061F31E0003909DED020BB1E69DED0E0B8A
:1040600053EC192B51EC100BFCF708FA9FED260BC3
:10407000CDE9080153EC102B9DED080B51EC100B12
:10408000FCF702FA9FED221B53EC112BFCF7F9F918
:104090009DED081B53EC112BFCF7F6F99FED1E1B51
:1040A00053EC112B3CE08CE0FFFF1F00FFFF0F00E3
:1040B000000000000000F03F0000F03F0000F07F33
:1040C0000000404301FCFFFF000000000000F07F03
:1040D0000000000000000000CE3E000000000000D4
:1040E0000000000000000080000000000000F0FF61
:1040F000000000000000F0BF0000E0410000F043BD
:10410000FFFFEF3F00000000000000000000D03F74
:10411000555555555555D53F000000000000E03F6E
:10412000FCF7AFF99DED080B41EC1A0B53EC102B8B
:1041300051EC100BFCF7A8F953EC1A2BFCF7A4F97F
:1041400041EC1A0B9FEDFE0B53EC102B9DED080B71
:1041500051EC100BFCF798F941EC1B0B9FEDFA0B9F
:1041600051EC1A0B53EC102BFCF78EF941EC1A0BA7
:104170009FEDF70B53EC102B9DED080B51EC100B42
:10418000FCF782F953EC1A2BFCF778F941EC1A0B87
:1041900051EC1B0B53EC1A2BFCF7CFF80690CDE932
:1041A00006519DED060B53EC1B2B51EC100BFCF74D
:1041B00065F953EC1A2BFCF764F941EC100B00F095
:1041C000A1B90020B6F5801F0EDA9FEDE30B53EC8A
:1041D000102B9DED0E0B51EC100BFCF755F9CDE9B2
:1041E0000E016FF034000E4600EB2650A0F2FF37B0
:1041F000C6F31300DA4940F07F6646F04056884225
:10420000D8BF002408DDD7498142C8BF012403DCA0
:104210000024A6F580167F1CD348784400EBC40028
:104220000F9690ED00CB9DED0E0B53EC1C2B51EC3B
:10423000100BFCF723F99DED0E0B41EC1B0B53EC1F
:104240001C2B51EC100BFCF778F841EC100B51ECE7
:10425000190B53EC102BFCF789F941EC1D0B51ECB9
:104260001B0B53EC1D2BFCF70FF941EC1A0BBF484D
:104270008DED10AB7844109590ED000B4FF0005091
:1042800040EA660000EB84408DED080B00F500204D
:1042900009909DED080B53EC1C2B51EC100BFCF717
:1042A000EDF89DED0E1B53EC112BFCF7EAF841ECF9
:1042B000100B53EC102B9DED100B51EC100BFCF779
:1042C000E3F89DED080B41EC1C0B53EC102B9DED1E
:1042D000100B51EC100BFCF7D7F853EC1B2BFCF731
:1042E000D0F853EC1C2BFCF7C9F853EC1D2BFCF752
:1042F000CBF841EC1C0B53EC1A2B51EC1A0BFCF7CE
:10430000C3F841EC1B0B9A480621B0EE4B0AF0EEC5
:104310006B0A784400F058FEB0EE401AF0EE601AD6
:10432000B0EE41DAF0EE61DA53EC1B2B51EC1B0BD3
:10433000FCF7AAF853EC1D2BFCF7A6F89DED100B2B
:1043400041EC1B0B53EC1A2B51EC100BFBF7F5FF58
:1043500053EC1C2BFCF798F853EC1B2BFBF7EDFFF1
:104360009DED100B41EC1B0B53EC102B51EC100B83
:10437000FCF78AF841EC1D0B9FED7FEB53EC1E2BF5
:10438000FBF7DBFF53EC1B2BFBF7D7FF0890CDE9C6
:1043900008519DED080B53EC1E2B51EC100BFCF754
:1043A0006DF853EC1D2BFCF769F853EC1B2BFCF755
:1043B00068F89DED080B41EC1D0B53EC102B9DEDA7
:1043C000100B51EC100BFCF75FF841EC1B0B53EC9E
:1043D0001A2B51EC1D0BFCF757F89DED080B41EC27
:1043E0001A0B53EC102B51EC1C0BFCF74DF853EC53
:1043F0001A2BFBF7A2FF41EC1A0B51EC1B0B53ECF1
:104400001A2BFBF79AFF0C90CDE90C519DED0C0B8C
:1044100053EC1B2B51EC100BFCF730F853EC1A2B20
:10442000FCF72FF841EC1B0B9FED550B53EC102BB9
:104430009DED0C0B51EC100BFCF726F841EC1A0B20
:104440009FED510B51EC1B0B53EC102BFCF71CF8A0
:1044500041EC1B0B9FED4E0B53EC102B9DED0C0B09
:1044600051EC100BFCF710F853EC1B2BFBF765FF1E
:1044700041EC100B4848784400EBC40090ED001B61
:1044800051EC100B53EC112BFBF757FF41EC1B0BBE
:104490003846FCF7AEFACDE9080153EC1B2B51EC82
:1044A0001A0BFBF74AFF41EC100B3C48784400EB39
:1044B000C40090ED00CB51EC100B53EC1C2BFBF720
:1044C0003CFF9DED081B53EC112BFBF736FF0690CC
:1044D000CDE906519DED080B53EC102B9DED060B1D
:1044E00051EC100BFBF7CAFF53EC1C2BFBF7C6FF7C
:1044F00053EC1A2BFBF7C2FF53EC1B2BFBF7C1FF4E
:1045000041EC100B9DED261B53EC102B8DED001B89
:1045100000959DED260B51EC100BFBF7B5FF9DEDC3
:10452000000B41EC1A0B53EC102B9DED260B51ECBC
:10453000100BFBF7A3FF9DED061B53EC112B2FE097
:10454000000000604715F73FFE822B654715F73FD7
:1045500044DF5DF80BAE543E000000000000404315
:104560008E9803007AB60B001A3A0000783A0000E1
:104570005239000000000000000000000000084068
:10458000000000E009C7EE3FFD033ADC09C7EE3F3B
:10459000F5015B14E02F3EBEDE37000098370000C7
:1045A000FBF772FF53EC1A2BFBF7C7FE9DED060BD2
:1045B00041EC1A0B53EC102B9DED000B51EC100B42
:1045C000FBF762FFCDE90C019DED0C0B51EC1A0BD2
:1045D00053EC102BFBF7B1FECDE902010C46AA49C2
:1045E0008C422FDB611A084318D19DED0C0B53EC64
:1045F000102B9DED020B51EC100BFBF73FFF41EC34
:104600001B0B9FEDA30B51EC1A0B53EC102BFBF77C
:1046100094FE53EC1B2BFCF715FA2DD2022000F070
:1046200053FE00F021FE10EE901A18EE900A8DED68
:10463000020B8DED008B61F31E0003909DED020BCC
:10464000FFF7BEBB944A24F00041914214D3934932
:10465000214408437FF4EFAC9DED0C0B53EC102B81
:104660009DED020B51EC100BFBF708FF53EC1A2BDE
:10467000FCF7E8F97FF6DFAC24F000408849894A6E
:10468000002601EB205182422BDA481C4FF48011A6
:1046900021FA00F02044844AC0F30A517A44A1F27E
:1046A000FF3192ED000B814A8DED080BCA4020EAE4
:1046B0000202C0F3130040F48010C1F1140120FA8B
:1046C00001F60992002CB8BF76429DED080B53EC21
:1046D000102B9DED0C0B51EC100BFBF7CFFECDE931
:1046E0000C019DED0C0B51EC1A0B53EC102BFBF74E
:1046F00024FE9FED6F0B0890CDE9085153EC102B71
:104700009DED080B51EC100BFBF7BEFE41EC1B0BB3
:104710009FED690B53EC102B9DED080B51EC100B2A
:10472000FBF7B2FE9DED0C0B41EC1C0B53EC102B78
:104730009DED080B51EC100BFBF7A0FE53EC1A2B70
:10474000FBF79FFE9FED5E1B53EC112BFBF79CFECE
:1047500053EC1C2BFBF7F1FD41EC1A0B51EC1B0B3E
:1047600053EC1A2BFBF7E9FDCDE902019DED020B9D
:1047700053EC1B2B51EC100BFBF780FE53EC1A2B68
:10478000FBF77FFE9DED020B41EC1A0B53EC102B57
:1047900051EC100BFBF778FECDE908014A489DED7E
:1047A000080B0521784400F00FFC9DED081B51EC2F
:1047B000100B53EC112BFBF767FE9DED021B53EC26
:1047C000112BFBF75EFECDE906019DED020B53ECCC
:1047D0001A2B51EC100BFBF757FE53EC1A2BFBF77F
:1047E000ACFD9FED3B0B41EC1A0B53EC102B9DEDF8
:1047F000060B51EC100BFBF741FE9DED060B41EC57
:104800001B0B53EC102B9DED020B51EC100BFBF727
:104810003BFE53EC1B2BFBF7A9FE53EC1A2BFBF7CB
:104820002DFE9DED021B53EC112BFBF727FE53ECE5
:10483000192BFBF726FECDE9020101EB065001150D
:104840000029C8BF039015DC9DED020B324651ECE8
:10485000100BFCF723F8FFF707F9042808BF00F056
:1048600013FD32469DED020B51EC100BFCF716F8D0
:10487000CDE902019DED020B51EC180B53EC102B0E
:10488000FBF702FEFFF73ABB00009040000000007B
:10489000FE822B654715973C00CC904000346F3F5B
:1048A00001FCFFFF0000E03F50360000FFFF0F005B
:1048B00000000000432EE63F396CA80C615C20BE6E
:1048C000EF39FAFE422EE63FF0340000000000000F
:1048D000000000000000004010B52F499FED2C1B88
:1048E0002DED020B84B0059820F000408842DCBF1B
:1048F00000209DED040B32DD2849884209D104983F
:1049000040B94FF0010000F0DFFC00F09DFC06B064
:1049100010BD05DB9DED040B00F082FC06B010BD60
:1049200068469DED040B00F07BF810F0030011D0F9
:10493000012818D09DED021B9DED000B02281AD016
:1049400000F08AFA51EC100B81F0004106B041EC06
:10495000100B10BD9DED021B9DED000B012000F022
:10496000AFFB06B010BD9DED021B9DED000B00F0EE
:1049700073FA06B010BD012000F0A2FB51EC100B41
:1049800081F0004106B041EC100B10BD00000000AA
:104990000000000000000000FB21E93F0000F07F64
:1049A00000B52DED048BB0EE409AF0EE609A83B026
:1049B00051EC190BFBF789FF41EC180B18EE100AAC
:1049C00018EE901A8DED008B002818BF01200843C7
:1049D00020F00040C0F17F6000F1E040C00F14D033
:1049E00019EE101A19EE900A8DED009B002918BFE0
:1049F0000121084320F00040C0F17F6000F1E04059
:104A0000C00F04BF012000F05FFCB0EE480A03B005
:104A1000F0EE680ABDEC048B00BD00000000000051
:104A20002DE9F14F04462DED020B2DED088B8AB0D8
:104A30009FEDE70B80ED020B139EE74826F0004543
:104A400085420ADC9DED120B002084ED000B0AB0BC
:104A5000BDEC088B03B0BDE8F08FE0489FEDE0AB04
:104A60009FEDE1BBA84247DDE14F9FEDE39B9FED4A
:104A7000E48B9DED120B53EC1A2B51EC100B002E16
:104A80001CDDFBF7FBFC41EC100BBD4208D053ECE6
:104A90001B2B51EC100BFBF7F1FCC4E900010BE000
:104AA00053EC192B51EC100BFBF7E8FC53EC182BD3
:104AB000FBF7E4FCC4E900010120C8E7FBF73DFC7B
:104AC00041EC100BBD4208D053EC1B2B51EC100BEA
:104AD000FBF733FCC4E900010BE053EC192B51EC5C
:104AE000100BFBF72AFC53EC182BFBF726FCC4E950
:104AF00000014FF0FF30AAE7C348A84279DB9DEDE3
:104B0000120B51EC100B01F071F841EC180B9FEDFA
:104B1000C00B53EC102BFBF7B7FC9FEDBF1B53EC06
:104B2000112BFBF70AFCFBF790FD0746FBF761FF33
:104B300041EC190B53EC1A2BFBF7A6FC53EC182B8A
:104B4000FBF79FFC41EC180B53EC1B2B51EC190BA2
:104B5000FBF79AFCDFF8C8A241EC100B4FEA15589E
:104B60000125FA4453EC102B51EC180BFBF786FC93
:104B7000032DC4E900013DD0C1F30A5005EB4511F6
:104B8000A8EB00001139814234DA0AEB051BB0EEC4
:104B900048AA9BED000BF0EE68AA53EC102B51ECE9
:104BA000190BFBF771FC41EC1B0B51EC1A0B53EC8E
:104BB0001B2BFBF763FC41EC180B51EC1A0B53EC6D
:104BC000182BFBF75BFC53EC1B2BFBF757FC9BED07
:104BD000020B41EC1A0B53EC102B51EC190BFBF7A9
:104BE00053FC53EC1A2BFBF749FC41EC100B6D1CEA
:104BF000B8E70EE0002EA8BF3846BFF628AF94ED08
:104C0000000B51EC100B81F00041C4E90001784227
:104C10001DE7C6F3130040F4801EC6F30A50A0F24D
:104C2000F530471100F01F05C5F12000DDF848B050
:104C300008900020069007900520EC467949002D49
:104C400007EB0002794408BF51F8221009D051F84F
:104C5000223001EB8201AB404A68089922FA01F147
:104C60001943A1FB0E26A1FB0B131A449A4234BF31
:104C70000123002303EB06080CEB8003D3E901A614
:104C80000E448E4234BF0121002192448A4411B166
:104C9000924502D903E0924501D2012100E00021B2
:104CA000C3E901A641444CF82010011EA0F1010007
:104CB000C4DC029800F10050850F0298DDE903671B
:104CC0008000DDF81480FBF794FE41EC1A0B3046AF
:104CD000FBF7E2FE9FED541B53EC112BFBF7D4FBCB
:104CE00041EC1B0B3846FBF7D7FE9FED511B53ECF5
:104CF000112BFBF7C9FB41EC180B4046FBF7CCFE30
:104D00009FED4D1B53EC112BFBF7BEFB41EC190B38
:104D100051EC180B53EC192BFBF70FFB53EC1B2B2F
:104D2000FBF70BFB53EC1A2BFBF707FBCDE9080154
:104D3000002008909DED080B53EC1A2B51EC100B42
:104D4000FBF79CFB53EC1B2BFBF798FB53EC182B4E
:104D5000FBF794FB53EC192BFBF793FB9FED381BF0
:104D600053EC112BFBF790FB9FED370B41EC180B2D
:104D700053EC102B9DED080B51EC100BFBF784FB53
:104D800053EC182BFBF7D9FA9FED310B41EC180BC4
:104D900053EC102B9DED080B51EC100BFBF774FB43
:104DA00053EC182BFBF7C9FA41EC100B139810F0D9
:104DB000004F06D06D4251EC100B81F0004141ECE8
:104DC000100B284684ED000B41E6000000000000B7
:104DD0000000000000000000FB21E93F7CD90240F8
:104DE00000004054FB21F93F3163621A61B4D03DA9
:104DF000FB21F93F000000000000601A61B4D03DC3
:104E00007370032E8A19A33BFB2139410000000077
:104E100083C8C96D305FE43F000000000000E03F40
:104E200092310000E0300000000000000000103E61
:104E3000000000000000103C000000000000103ADC
:104E4000182D4454FB21F93D3326A611460B113C85
:104E500000000054FB21F93D10B52DED040B2DEDA4
:104E6000088B82B0B0EE419AF0EE619A0B9820F078
:104E700000449FED4BABB4F1795F11DA9DED0A0B65
:104E800051EC100BFBF7E1FB002801BFB0EE4A0A22
:104E9000F0EE6A0A02B0BDEC088B04BF04B010BD8E
:104EA0009DED0A0B53EC102B51EC100BFBF7ECFAB9
:104EB00041EC180B3C480621B0EE480AF0EE680AB7
:104EC000784400F081F853EC182B51EC100BFBF7F1
:104ED000DBFA9DED0A0B41EC1B0B53EC192B51EC4B
:104EE000100BFBF7D1FA41EC190B53EC1B2B51ECD7
:104EF000180BFBF7C9FA53EC192BFBF7BFFA9FED20
:104F00002C0B41EC190B53EC102B51EC180BFBF74D
:104F1000BBFA41EC100B2848844210DA53EC192BF1
:104F200051EC100BFBF7AAFA53EC1A2BFBF7A9FA7A
:104F300041EC100B02B0BDEC088B04B010BD1F4853
:104F4000A042BCBF9FED1E1B8DED001B06DBA4F530
:104F500000100190002000909DED001B51EC100B03
:104F600053EC112BFBF78AFA9DED000B41EC180B6B
:104F700053EC102B51EC1A0BFBF780FA41EC1A0B97
:104F800053EC192B51EC180BFBF778FA53EC1A2B56
:104F9000FBF777FA41EC100BCCE7000000000000B3
:104FA000000000000000F03FFC2D000000000000A9
:104FB000000000000000E03F3333D33F0000E93F32
:104FC000000000000000D23F70B504462DED028BBA
:104FD0004D1E00EBC500B0EE408AF0EE608A90ED09
:104FE000000B35F0060017D053EC182B51EC100BCA
:104FF000FBF74AFA41EC100B6D1E04EBC50090ED77
:10500000001B51EC100B53EC112BFBF796F941EC04
:10501000100B35F00600E7D1022D36D0042D1CD040
:10502000062D1CBFBDEC028B70BD53EC182B51EC50
:10503000100BFBF729FA94ED0A1B53EC112BFBF72D
:105040007CF953EC182BFBF71FFA94ED081B53EC7B
:10505000112BFBF772F941EC100B53EC182B51ECB0
:10506000100BFBF711FA94ED061B53EC112BFBF719
:1050700064F953EC182BFBF707FA94ED040B53EC8F
:10508000102BFBF75AF941EC100B53EC182B51EC99
:10509000100BFBF7F9F994ED021B53EC112BFBF706
:1050A0004CF953EC182BFBF7EFF994ED001B53EC84
:1050B000112BFBF742F9BDEC028B41EC100B70BDDC
:1050C00031B504462DED040B2DED0A8BB0EE41BA3F
:1050D000F0EE61BA0B989DED0A0B20F00040B0F1A4
:1050E000795F0DDA51EC100BFEF7BEFC042808BF07
:1050F00000F0CAF89DED0A0BBDEC0A8B05B030BD7F
:1051000053EC102B51EC100BFBF7BEF941EC180BD4
:105110009DED0A0B53EC182B51EC100BFBF7B4F977
:1051200041EC190B2C48B0EE480AF0EE680A052154
:105130007844FFF749FF9FED2ACBB0EE40AAF0EE8E
:1051400060AA9CB353EC1C2B51EC190BFBF79CF998
:1051500041EC1C0B53EC1A2B51EC190BFBF794F997
:105160009FED210B41EC190B53EC102B51EC1B0B59
:10517000FBF78AF953EC192BFBF780F953EC182B4A
:10518000FBF782F953EC1B2BFBF778F953EC1C2B44
:10519000FBF774F99DED0A1B53EC112BFBF771F92A
:1051A000BDEC0A8B05B041EC100B30BDFFE753ECB2
:1051B0001A2B51EC180BFBF767F953EC1C2BFBF780
:1051C000BCF853EC192BFBF75FF99DED0A1B53EC70
:1051D000112BFBF7B2F8E3E78C2C00000000000075
:1051E000495555555555C5BF000000000000E03F2A
:1051F0009FED070B10B553EC102B9FED070B51ECF7
:10520000100BFBF7B3F941EC100B10BD00000000D0
:105210000000000000000000000000000000F03F5F
:1052200010B553EC102B51EC100BFBF786F841EC4A
:10523000100B10BD10B553EC112B51EC100BFBF7FC
:105240007CF841EC100B10BD9FED050B10B553EC35
:10525000102B51EC100BFBF789F941EC100B10BD32
:1052600000000000000000009FED050B10B553EC9E
:10527000102B51EC100BFBF707F941EC100B10BD94
:1052800000000000000000709FED050B10B553EC0E
:10529000102B51EC100BFBF7F7F841EC100B10BD85
:1052A000000000000000001002E008C8121F08C142
:1052B000002AFAD170477047002001E001C1121F97
:1052C000002AFBD1704700000149086070470000C8
:1052D0002401002010B50446006900F0ADFCD4E9BB
:1052E0000210484300EE900A0648B8EEE01AD0EDEE
:1052F000060ABDE8104051EE000AB0EE600A00F068
:10530000C5B80000B00000202DE9FF5F82B0002189
:10531000DDE90430020DDDF840B0034318D044F657
:105320001050A2F2FF3242431514119801281FD0E9
:10533000A5EB0B00401C5FEA000A4FF000064E4F41
:10534000DFF83891B046504615D5CAF1000413E095
:10535000119801244AA3012801D16FEA0B01029898
:10536000119AC0E90031C0E9024206B0BDE8F09FE1
:10537000CBF10000DFE704460021404A491842EB28
:105380000450CDE9001012E0E00707D032463B465A
:1053900040464946FBF778F88046894632463B4608
:1053A00010461946FBF770F806460F466410002CAD
:1053B000EAD1DDE90401DDE90023BAF1000F06DAE4
:1053C000FBF762F842464B46FBF75EF805E0FBF759
:1053D000CDF842464B46FBF7C9F804460E4600227C
:1053E000284BFBF72FFB03D84FF0FF30014607E0B7
:1053F0000022254B20463146FAF79FFFFBF70AFBB8
:10540000102409E0002C0ADB0A220023FAF740FFEF
:10541000039B30321A55641E50EA0102F2D1641C1B
:10542000039AC4F111031444119A012A03D00122F2
:1054300008430DD10AE0084304D000204FF0110BBF
:10544000119072E7A3EB0B056D1E0DE05B4504DDCB
:105450004FF0000205F1010504E003DA4FF000020D
:10546000A5F10105002AECD002981199C0E902319A
:10547000C0E9004579E70000000014400000F03F5B
:10548000300000000000F0430000E03F10B510EED7
:10549000100AFBF7F9F841EC100B9FED0A1BFEF721
:1054A0006FFB51EC100BFBF702F900EE100AB5EEA2
:1054B000C00AF1EE10FA03DADFED040A30EE200A3A
:1054C00010BD000000000060FB211940DB0FC94047
:1054D0002DE9FF4F95B09A46884606460025EEE135
:1054E000252877D100242746F94A0121039400E0BA
:1054F000044316F8013F203B01FA03F01042F7D1B4
:1055000030782A2811D06FF02F033078A0F13002C4
:10551000092A16D8039A44F0020402EB820203EB34
:1055200042021044761C0390EFE758F8042B0392D4
:10553000002A03DA504244F40054039044F0020479
:10554000761C30782E2816D116F8010F44F004048A
:105550002A280DD06FF02F023078A0F13003092BEC
:1055600009D807EB870302EB4303C718761CF3E760
:1055700058F8047B761C30786C280FD006DC4C2859
:1055800017D068280DD06A2814D104E0742810D0F0
:105590007A280FD10DE044F400140AE044F480149A
:1055A00001E044F440147278824202D104F5801480
:1055B000761C761C307866280BD013DC582877D000
:1055C00009DC002875D04528F6D04628F4D04728B5
:1055D0001AD193E118E0632835D0642879D0652882
:1055E00012D18BE1702873D008DC6728F1D06928CC
:1055F0006FD06E280DD06F2806D1ACE073282CD068
:10560000752874D0782853D05246179990476D1C4E
:1056100054E1C4F30250022809D003280DD0D8F871
:10562000001004280DD00D6008F1040846E1D8F8F8
:105630000010EA17C1E90052F6E7D8F800100D8013
:10564000F2E70D70F0E718F8041B8DF80010002049
:105650008DF80100EB46012003E058F804BB4FF041
:10566000FF3061074FF0000102D40DE009F10101A4
:105670008946B9420FDA8145F8DB1BF80910002989
:10568000F4D108E009F1010189468142FADB1BF8F7
:1056900009100029F6D103985346A0EB09072146CB
:1056A0003846179A00F080FA284400EB090507E015
:1056B00044E008E10DE01BF8010B524617999047B2
:1056C000B9F10109F7D2534621463846179AF2E05C
:1056D00039E00A21C4F302524FF0000B0091022A74
:1056E00006D058F8040BC117032A09D00AE023E0BA
:1056F00008F1070020F00702F2E80201904605E0F9
:1057000000B2C117042A01D140B2C117002906DA3C
:105710000A460021404261EB02012D2202E02205EF
:1057200004D52B228DF80420012203E0E20701D0EA
:105730002022F7E7914657E00A2100E010214FF0C0
:10574000000B00910BE010214FF0000B44F004041B
:105750000827009103E008204FF0000B0090C4F3ED
:105760000252022A05D058F8040B0021032A08D05F
:1057700008E008F1070020F00702F2E80201904675
:1057800003E080B2042A00D1C0B24FF00009220722
:105790002AD53278702A07D0DDF800C08CF0100CC2
:1057A0005CEA0B0C05D00EE040228DF804200122AB
:1057B00008E050EA010306D030238DF804308DF85C
:1057C000052002229146009B83F0080353EA0B0355
:1057D0000AD150EA010201D1620705D530228DF8C5
:1057E00004204FF001097F1E3278582A04D039A2D4
:1057F0000C920CAA02920BE03BA2F9E75B46009ADE
:10580000FAF746FD0C9B9B5C029A521E02921370A3
:1058100050EA0102F2D1029804A9081A00F1200B03
:10582000600702D524F4803400E001275F4502DDE3
:10583000A7EB0B0000E0002000EB0B0100900398A9
:105840004944401A0390E00306D453462146179A70
:10585000039800F0A9F90544002706E001A8524684
:10586000C05D179990476D1C7F1C4F45F6DBE00328
:105870000CD553462146179A039800F095F9054434
:1058800004E030205246179990476D1C0099481E3D
:1058900000900029F5DC08E0029802995246007851
:1058A000491C0291179990476D1CBBF10001ABF1A7
:1058B000010BF1DC5BE100F065F90544761C307802
:1058C00000287FF40DAE19B02846BDE8F08F000027
:1058D00009280100303132333435363738396162C6
:1058E000636465660000000030313233343536378A
:1058F000383941424344454600000000600700D467
:10590000062708F1070020F00700F0E80223804690
:1059100003F0004C5FEA0C0001D097A009E02005DD
:1059200001D596A005E0E00701D095A001E0AFF217
:105930004C001390307823F0004365280CD006DC2F
:10594000452809D046281DD047287FD13BE066284E
:1059500018D067287AD136E00021112F01DB112001
:1059600000E0781CCDE9000104A90CA8FFF7CCFCED
:10597000DDE90D010C9A4FF0000B07F101091092BF
:1059800000914EE04FF000400097CDE9011004A9CE
:105990000CA8FFF7B9FCDDE90D020C9B0F994FF045
:1059A000000B91461093009211B9791C00EB01098C
:1059B000B7EB090003D4C0F1FF3B07F10109A9EBE4
:1059C0000700019042E0012F00DA01270021112F8A
:1059D00001DD112000E03846CDE9000104A90CA842
:1059E000FFF792FCDDE90D010C9A00914FF0000BDE
:1059F000B946109221070FD4009A4A4503DA91461E
:105A000001E0A9F10109B9F1010F05DD109AA9F131
:105A10000101515C3029F4D0B84202DA10F1040FD0
:105A200003DA0121CDE9011010E0002803DC8344F2
:105A3000A9EB000102E0411C494500DD8946A0EBCD
:105A40000B00401C01904FF000400290200705D44D
:105A50000198484502DB4FF0FF30019000208DF89F
:105A60004B0002980DF14B07B0F1004F25D00220FA
:105A70000C902B200D90029800280CDA40420290E6
:105A80002D200D9007E00A210298FAF72CFE303104
:105A9000029007F8011D0C99481E0C900029F2DCB9
:105AA00002980028EFD1791E0D980870307800F028
:105AB000200040F0450007F8020D11A8C01BC01DD2
:105AC00002901398007800B1012000EB09010198C1
:105AD00001EBE071029801440398401A401E0390C4
