:020000040800F2
:10000000C04F00206D020008313600085D2B00084B
:10001000E9330008F10B000861440008000000000B
:10002000000000000000000000000000AD0100081A
:100030008D0C000800000000090200080D3B0008BC
:10004000870200088702000887020008870200086C
:10005000870200088702000887020008870200085C
:10006000870200088702000887020008870200084C
:10007000870200088702000887020008870200083C
:1000800087020008870200088702000800000000BD
:1000900000000000000000000000000087020008CF
:1000A00087020008093C0008870200088702000850
:1000B00087020008870200088702000887020008FC
:1000C00087020008870200088702000887020008EC
:1000D00087020008D54300088702000800000000DE
:1000E000870200088702000887020008000000005D
:1000F000000000000000000000000000870200086F
:10010000000000008702000887020008870200083C
:1001100000000000000000000000000000000000DF
:10012000870200088702000887020008870200088B
:10013000870200080000000000000000000000002E
:10014000000000000000000000000000870200081E
:10015000870200088702000887020008870200085B
:10016000870200088702000800000000000000006D
:10017000000000000000000000000000000000007F
:1001800000000000870200080000000000000000DE
:1001900087020008DFF810D000F04EFC004800474E
:1001A000516F0008AFF30080C04F00202C4B19683E
:1001B0000868B0E8F04F80F30988BFF36F8F4FF005
:1001C000000080F3118870470000000008480068B4
:1001D000006880F308884FF0000080F3148862B64E
:1001E00061B6BFF34F8FBFF36F8F00DF00BF00BF5B
:1001F00008ED00E0DFF80C00016841F470010160D7
:10020000704700BF88ED00E0EFF30980BFF36F8F08
:10021000134B1A681EF0100F08BF20ED108A20E95A
:10022000F04F106009B44FF0500080F31188BFF315
:100230004F8FBFF36F8F08F03BFE4FF0000080F34D
:10024000118809BC19680868B0E8F04F1EF0100F5B
:1002500008BFB0EC108A80F30988BFF36F8F704736
:1002600038000020EFF30580704700000648804703
:1002700006480047FEE7FEE7FEE7FEE7FEE7FEE78B
:10028000FEE7FEE7FEE7FEE7F53B00089501000804
:100290002DE9F05F0546002092469B4688460646BB
:1002A000814640241BE0284641464746224600F04E
:1002B0004AFA53465A46C01A914110D3114618467D
:1002C000224600F031FA2D1A67EB01084F4622460C
:1002D0000120002100F028FA17EB00094E41201EF2
:1002E000A4F10104DFDC484631462A464346BDE816
:1002F000F09F40EA01039B0703D009E008C9121FE1
:1003000008C0042AFAD203E011F8013B00F8013BCF
:10031000521EF9D27047D2B201E000F8012B491EFB
:10032000FBD270470022F6E710B513460A46044692
:100330001946FFF7F0FF204610BD2DE9FE4F80461D
:1003400081EA0300C00F0C46009021F0004123F029
:100350000045B8EB0200A94105D24046214690462F
:100360001C460B46024623F00040104347D0270DA1
:10037000C7F30A00C3F30A510290401A01904028C3
:100380006BDAC3F3130040F4801B0098924620B14F
:100390000023D2EB030A63EB0B0B01985946C0F123
:1003A0004002504600F0C0F906460D4650465946F8
:1003B000019A00F0D8F910EB08006141002487EAA7
:1003C000115284EAE7731A4340D0009A62B3019A4B
:1003D000012A4FEA075215DC001B61EB02014FF0C6
:1003E000004202EA0752CDE90042001C41F58011AB
:1003F00032462B4600F00FFA03B0BDE8F08F4046BE
:100400002146F9E7001B61EB0201001C41F5801356
:1004100000185B412018A2F5001747EB030140EAE2
:10042000D570B6196D4111E06D084FEA360645EA00
:10043000C0754FEA0752001B61EB0201001C41F539
:10044000801149084FEA30000019514132462B46CD
:1004500003B0BDE8F04F00F0CFB900980122400092
:100460000023D0EB020263EBE073009821464FEAD1
:10047000E074B8EB000061EB0401E9E783F00043AE
:100480005BE781F0004158E72DE9FE4F81EA030464
:1004900004F0004421F0004100944FF0000B23F0E1
:1004A000004350EA01045ED052EA03045BD0C3F378
:1004B0000A54C1F30A552C44A4F2F3340194A0FB6E
:1004C0000254C1F3130141F48011C3F3130343F445
:1004D000801301FB024400FB034E840A970A44EA9E
:1004E000815447EA8357A4FB076802958D0A05FBF0
:1004F00007854FEA932C04FB0C542705029D4FEA15
:10050000065847EA1637B5EB08056EEB070C870E61
:10051000920E47EA811742EA8312A7FB0201B6EB6B
:100520000B0164EB00042B0D43EA0C335E1844EB23
:100530001C50DA465146E7FB0201C5F313044FEAAB
:100540000B3343EA14534FEA0432019C43EA060397
:10055000A4F10C040294009CCDE900B400F05BF916
:1005600003B0BDE8F08F00200146F9E72DE9F04D1A
:1005700081EA030404F0004B21F0004514464FF0DB
:10058000000A23F0004150EA050220D054EA01029B
:100590001DD0C5F30A570246C5F31303C1F3130078
:1005A000C1F30A5640F4801543F48013A7EB060804
:1005B000101BD64608F2FD3873EB050002D308F194
:1005C000010801E092185B41B8F1000F03DA002046
:1005D0000146BDE8F08D00204FF4801106468446A8
:1005E0000EE0171B73EB050705D3121B63EB050326
:1005F00006434CEA010C49084FEA300092185B416F
:1006000050EA0107EDD152EA030012D082EA040059
:1006100083EA0501084305D0101BAB4106D2012235
:10062000002306E000224FF0004302E06FF00102D9
:1006300053101AEB06004CEB085110EB0A0041EB8B
:100640000B01BDE8F04D00F0D7B80EB5C10F80EA40
:10065000E0700844CA07002140F233438DE80E00E1
:100660000A460B4600F0D7F803B000BD00F0004288
:1006700030F000400AD0C10D01F56071C0F31600E2
:1006800042EA0151C2084007114370470020014669
:100690007047000030B5041E71F1000404DB4FF018
:1006A0000044404264EB0101141E73F1000405DBB9
:1006B0001C464FF00043524263EB0403994208BFCB
:1006C000904230BD01F0004330B421F0004150EAC7
:1006D000010206D00A0DA2F56072C1F31301002ACF
:1006E00002DC30BC00207047440F44EAC104C10062
:1006F000E01830BC00EBC25000F047B830B50B46F4
:10070000014600202022012409E021FA02F59D4241
:1007100005D303FA02F5491B04FA02F52844151E15
:10072000A2F10102F1DC30BD202A04DB203A00FAFC
:1007300002F1002070479140C2F1200320FA03F338
:10074000194390407047202A04DB203A21FA02F036
:100750000021704721FA02F3D040C2F120029140FB
:10076000084319467047202A06DBCB17203A41FA86
:1007700002F043EAE07306E041FA02F3D040C2F12E
:10078000200291400843194670470029A8BF7047CE
:10079000401C490008BF20F00100704710B4B0FAB7
:1007A00080FC00FA0CF050EA010404BF10BC704752
:1007B00049B1CCF1200421FA04F411FA0CF118BF6C
:1007C000012121430843A3EB0C01CB1D4FEA00613B
:1007D0004FEA102042BF002010BC704700EBC3500E
:1007E00010440029A4BF10BC7047401C490008BF3A
:1007F00020F0010010BC704710B5141E73F1000406
:1008000008DA401C41F1000192185B411A4301D102
:1008100020F0010010BD2DE9F04D92469B4611B12C
:10082000B1FA81F202E0B0FA80F220329046FFF78E
:100830007BFF04460F4640EA0A0041EA0B0153469B
:100840005A46084313D0114653EA010019D0C8F1A3
:1008500040025046FFF777FF05460E465046594680
:100860004246FFF761FF084305D0012004E020461F
:100870003946BDE8F08D0020054346EAE0762C437A
:1008800037430A986305E40AA0EB08000022FD0A3A
:1008900044EA47540A3002D500200146E9E7010541
:1008A00010196941DDE9084500196941BDE8F04DBD
:1008B000A2E770B521F0004303430CD0C1F30A5501
:1008C0000024D5EB040564EB0403D617AD1AB3413D
:1008D00002DB0020014670BD201841EB025170BDC3
:1008E0002DE9F04D00231A461B1A8A4103DB002034
:1008F0000146BDE8F08DC1F30A52C1F3130141F482
:1009000080154FF0000BD10702D100186D41521E27
:100910000027044640F2FF11384601EB620A3E46CA
:100920008046024600204FF48011FFF70CFFC219E9
:100930007141BB1846EB0100B4EB030C75EB000CE6
:1009400004D3E41A65EB000517460E46241908F196
:1009500001006D4180463428E3DDF91946EB0600BD
:10096000091BA84103D24FF0FF32134601E00022D9
:1009700013461BEB070046EB0A51BDE8F04DFFF7AD
:100980003BBF2DE9FE4FC3F30A5701F00045002499
:10099000C1F30A56C3F31303C1F3130143F48013E5
:1009A00012EB020AA64641F48011009543EB030CBA
:1009B000A7F1010B16E0B0EB0A0061EB0C01071E7A
:1009C00071F1000707DA4FF00008D0EB080085F05E
:1009D000004568EB0101171A73EB0107EBD3761E94
:1009E000001849415E45F6DA50EA010209D0CDE926
:1009F00000E5002213460296FFF70DFF03B0BDE8A5
:100A0000F08F20460099F9E7C1F30A52C1F31301B0
:100A100040F2FF3341F480119A4202DA002001468D
:100A2000704740F233439A42A2F2334202DC524210
:100A3000FFF789BEFFF778BE064C074D06E0E06879
:100A400040F0010394E8070098471034AC42F6D315
:100A5000FFF7A4FB489F0008689F00080EB540F20E
:100A6000334102910021CDE900110A460B46FFF700
:100A7000D2FE03B000BD70B5C1F30A5201F00045CB
:100A80000024C1F3130140F2FF3341F480119A4274
:100A900001DA002070BD40F233439A42A2F23342A1
:100AA00003DC5242FFF74FFE00E090402C43F1D0B0
:100AB000404270BD1CB5012407F010FF1C48022104
:100AC00000230A02CDE900101AA11D4808F05EFEBD
:100AD0000446012C02D11BA003F0C4FC20480521D0
:100AE00000234FF40072CDE900101EA1224808F047
:100AF0004DFE0446012C02D120A003F0B3FC29488E
:100B0000032100234FF40072CDE9001026A12948EB
:100B100008F03CFE0446012C02D127A003F0A2FC01
:100B20002C48006808F098F807F002FF1CBD000090
:100B3000040000204C45445F5461736B00000000CA
:100B400059300008B4B4BDA8204C45445F546173CB
:100B50006B20C8CECEF1B3C9B9A6210A0A000000A5
:100B600008000020436C6F7365646C6F6F705F46A4
:100B70004F435F5461736B00F50B0008B4B4BDA81C
:100B800020436C6F7365646C6F6F705F464F435F9B
:100B90005461736B20C8CECEF1B3C9B9A6210A0A3D
:100BA000000000000C00002055534152545F546176
:100BB000736B0000E5430008B4B4BDA82055534151
:100BC00052545F5461736B20C8CECEF1B3C9B9A63D
:100BD000210A0A000000002010B500F0B1FC02F06C
:100BE000AFFF02F073FA02F027FB02F09FFB10BD8B
:100BF00000BFFEE708B500BF00BF02F0FFFA18A073
:100C000003F030FC4FF47A7007F08EFF9FED170A67
:100C1000174880ED000A1749002002F0A3FB0020CE
:100C200002F0E4FB002002F0C1FC002002F088FD8D
:100C300011A003F017FC01220421134800F09AF9D7
:100C40000CE00B4890ED000A002006F0A1F900200E
:100C500006F010F90321684607F094FFF1E7000061
:100C60004153353630300D0A00000000000000000E
:100C7000200000206C0700204D6F746F7220726599
:100C80006164792E0D0A000000040240704772B6BC
:100C900000BFFEE713B508F019FE04460094009863
:100CA00001901CBD73B5DDE9000100F00EF80446AB
:100CB0000098A04204D90098C0F1FF35254401E016
:100CC0000098251A009428467CBD13B508F0FEFD57
:100CD000019001981CBD70B50446A56D00F050F957
:100CE000064694F83500022808D08020606500BFD1
:100CF000002084F8340000BF012070BD2068006827
:100D000020F01600216808602068406920F080000B
:100D100021684861206C08B9A06C28B1206800687F
:100D200020F00800216808602068006820F00100B9
:100D30002168086010E000F023F9801B05280BD91A
:100D400020206065032084F8350000BF002084F86F
:100D5000340000BF0320D0E72068006800F00100E5
:100D60000028E8D194F85C103F208840A86001205A
:100D700084F8350000BF002084F8340000BF00BFB5
:100D8000BBE7014691F83500022803D08020486572
:100D900001207047052081F835000868006820F0C0
:100DA00001000A6810600020F3E70000F8B5024671
:100DB0000B460025002400200021C7E0012606FA8A
:100DC00001F51E6806EA0504AC4274D11E7906F0EE
:100DD0000306012E04D01E7906F00306022E13D15D
:100DE00090684F000326BE40B0434F00DE68BE400F
:100DF00030439060506801268E40B0431E79C6F3A0
:100E000000168E40304350601E7906F00306032E14
:100E100009D0D0684F000326BE40B0434F009E6803
:100E2000BE403043D0601E7906F00306022E13D177
:100E3000CF0802F1200656F827004E07F70E0F26BE
:100E4000BE40B0434F07FF0E1E69BE403043CF087F
:100E500002F1200646F8270010684F000326BE4026
:100E6000B0431E7906F003064F00BE4030431060C9
:100E70005E6806F44036002E67D000BF002600965C
:100E8000344E366846F48046324F3E603E46366801
:100E900006F48046009600BF00BF2F4E8F0856F81C
:100EA00027008E07370F0F26BE40B0432B4EB242AD
:100EB00002D1002615E048E0294EB24201D10126B8
:100EC0000FE0284EB24201D102260AE0264EB2427D
:100ED00001D1032605E0254EB24201D1042600E0EF
:100EE00007268F073F0FBE4030431B4E8F0846F842
:100EF00027001F4E3068A0435E6806F4801606B1D6
:100F000020431B4E3060361D3068A0435E6806F4F7
:100F1000001606B12043164E361D3060144E361FA3
:100F20003068A0435E6806F4003606B12043104ED8
:100F3000361F3060361F3068A0435E6806F4803686
:100F400006B120430A4E083E3060491C1029FFF4C8
:100F500035AFF8BD44380240083801400000024077
:100F60000004024000080240000C02400010024051
:100F7000083C01400AB1816101E00B0483617047C4
:100F800001480068704700002800002070B5044642
:100F90000CB9012070BD94F83D0028B9002084F8F8
:100FA0003C00204600F05EFA242084F83D002068D2
:100FB000006820F00100216808602068006840F4A3
:100FC0000040216808602068006820F40040216823
:100FD000086000F0B3FC05465C496068884206D8AA
:100FE0005B48854201D2012007E0002005E0594816
:100FF000854201D2012000E00020012800D1C9E78C
:101000005548B5FBF0F62068406820F03F003043BB
:10101000216848604D496068884201D8701C07E02B
:101020004FF4967070434FF47A71B0FBF1F0401CAE
:101030002168096A21F03F01084321680862434999
:101040006068884214D8681E61684900B0FBF1F0FE
:10105000401CC0F30B00042801D204203DE0681EB0
:1010600061684900B0FBF1F0401CC0F30B0034E0B4
:10107000A06838B9681E616801EB4101B0FBF1F06E
:10108000401C0AE0681E616801EBC10202EB01111D
:10109000B0FBF1F0401C40F48040C0F30B0008B9F5
:1010A00001201AE0A06848B9681E616801EB41019F
:1010B000B0FBF1F0401CC0F30B000CE0681E61684F
:1010C00001EBC10202EB0111B0FBF1F0401CC0F3D7
:1010D0000B0040F4804040F400402168C9694CF6A0
:1010E000FF72914308432168C861D4E907010843AE
:1010F0002168096821F0C001084321680860D4E92B
:10110000031008432168896848F2FF32914308437D
:1011100021688860D4E9050108432168C96821F085
:10112000FF0108432168C8602068006840F00100A2
:101130002168086000202064202084F83D00002001
:10114000206384F83E0000BF24E70000A086010071
:1011500080841E0000093D0040420F002DE9FC5F25
:1011600004460F4690469946DDE90CAB0E9EFFF70C
:1011700007FF054694F83D00202870D1192301226D
:10118000B5492046009501F0BBFD10B10220BDE835
:10119000FC9F00BF94F83C00012801D10220F6E733
:1011A000012084F83C0000BF2068006800F00100C6
:1011B00028B92068006840F00100216808602068B4
:1011C000006820F4006021680860222084F83D0057
:1011D000402084F83E0000202064C4F824A0A4F835
:1011E0002AB0608D20859D48E0624B4642463946D4
:1011F0002046CDE9006501F0D3FC08B10120C6E727
:10120000208D88B900BF00200190206840690190BE
:1012100020688069019000BF00BF2068006840F42A
:1012200000702168086040E0208D012818D12068F6
:10123000006820F480602168086000BF00200190F1
:1012400020684069019020688069019000BF00BF5C
:101250002068006840F400702168086025E0F8E02C
:10126000208D022816D12068006820F48060216853
:1012700008602068006840F400602168086000BFD2
:1012800000200190206840690190206880690190E9
:1012900000BF0AE000BF0020019020684069019073
:1012A00020688069019000BF00BFC3E0208D032843
:1012B0007ED8208D012815D12A463146204601F0DE
:1012C000FBFD08B1012062E720680069616A0870CF
:1012D000606A401C6062208D401E2085608D401E2B
:1012E0006085A7E0208D02282AD1334600225C4980
:1012F0002046009501F004FD08B1012047E7206871
:10130000006840F400702168086020680069616A24
:101310000870606A401C6062208D401E2085608DD0
:10132000401E608520680069616A0870606A401C20
:101330006062208D401E2085608D401E608579E0B2
:101340003346002246492046009501F0D9FC08B1F9
:1013500001201CE72068006820F480602168086094
:1013600020680069616A0870606A401C6062208DB4
:10137000401E2085608D401E60853346002238491E
:101380002046009501F0BCFC08B10120FFE6206872
:10139000006840F400702168086020680069616A94
:1013A0000870606A401C6062208D401E208500E04D
:1013B00010E0608D401E608520680069616A0870D9
:1013C000606A401C6062208D401E2085608D401E3A
:1013D00060852FE02A463146204601F06DFD08B1B8
:1013E0000120D4E620680069616A0870606A401CC8
:1013F0006062208D401E2085608D401E60852068C3
:101400004069C0F38000A8B1208D032805D1206871
:10141000006820F480602168086020680069616AC3
:101420000870606A401C6062208D401E2085608DBF
:10143000401E6085208D00287FF438AF202084F87E
:101440003D00002084F83E0000BF84F83C0000BF4F
:101450009DE602209BE60000020010000000FFFF56
:101460000400010010B586B00446142101A8FEF75F
:1014700059FF2949206888424CD100BF00200090C4
:101480002648006840F001002449086008460068CA
:1014900000F00100009000BF00BF00BF00200090DE
:1014A0000846006840F0020008600846006800F046
:1014B0000200009000BF00BF88150190122002902A
:1014C00000200390032004900420059001A91448F3
:1014D000FFF76CFC10200190122002900020039076
:1014E000032004900920059001A90E48FFF75EFC37
:1014F00000BF0020009009481030006840F4000050
:101500000649103108600846006800F400000090A9
:1015100000BF00BF06B010BD005C00403038024084
:1015200000000240000402400348006803490978B3
:10153000084401490860704728000020300000205E
:1015400010B50D48006840F400700B49086008466B
:10155000006840F4806008600846006840F48070CD
:101560000860032000F0D6F80F2000F007F800F024
:1015700055F8002010BD0000003C0240F0B587B0D7
:1015800004460026002700BF002000901E48006887
:1015900040F001001C4908600846006800F00100A6
:1015A000009000BF00BF01A902A800F09FF900F061
:1015B000D5F906461548B6FBF0F0471E1448154904
:1015C000086040F2E7311348C160476000210161C3
:1015D0008160816100F0C8FC054695B90D4800F0B6
:1015E00011FD05466DB9192000F042F8102C07D204
:1015F00000222146192000F04FF80748046000E05F
:101600000125284607B0F0BD4438024040420F0093
:1016100000000140500900202C00002008B500BF48
:10162000002000901148006840F480400F49086095
:101630000846006800F48040009000BF00BF00BF73
:1016400000200090081F006840F08050091F0860CB
:101650000846006800F08050009000BF00BF0022E4
:101660000F21901E00F018F808BD00004438024019
:101670000146084600280DDB00BF00BF00F01F0335
:1016800001229A4043099B0003F1E023C3F80021A3
:1016900000BF00BF00BF70472DE9F05F80460D46D8
:1016A0001646002702F006FF074639462A4633460B
:1016B00001F00700C0F1070ABAF1040F02D94FF098
:1016C000040A01E0C0F1070AD14600F1040ABAF1A8
:1016D000070F02D24FF0000A01E0A0F1030AD4463E
:1016E0004FF0010A0AFA09FAAAF1010A0AEA020A03
:1016F0000AFA0CFA4FF0010B0BFA0CFBABF1010BE1
:101700000BEA030B4AEA0B042146404602F0DAFEDC
:10171000BDE8F09F00BF00F00702064B19684FF6C6
:10172000FF031940044B0B4343EA0221014B1960AC
:1017300000BF70470CED00E00000FA0500BFBFF3EA
:101740004F8F0748006800F4E06006490843001D19
:1017500003490860BFF34F8F00BF00BF00BFFDE724
:101760000CED00E00000FA0570B504460D460CB91A
:10177000012070BD5848006800F00700A84209D257
:1017800055490D700846006800F00700A84201D0D6
:101790000120EEE7207800F0020002281DD1207819
:1017A00000F00400042805D14C48006840F4E050E3
:1017B0004A490860207800F00800082805D1474809
:1017C000006840F46040454908604448006820F0E3
:1017D000F000A168084341490860207800F001004A
:1017E000A8B36068012807D13C4808380068C0F3F6
:1017F0004040B8B90120BCE76068022802D06068A8
:10180000032807D1354808380068C0F3406048B95C
:101810000120AEE7314808380068C0F3400008B93D
:101820000120A6E72D48006820F003006168084306
:101830002A490860FFF7A4FB064609E0FFF7A0FB72
:10184000801B41F28831884202D9032091E707E0EA
:101850002248006800F00C006168B0EB810FEDD108
:101860001D48006800F00700A84209D91A490D7008
:101870000846006800F00700A84201D0012078E780
:10188000207800F00400042807D11448006820F4F0
:10189000E050E168084311490860207800F0080032
:1018A000082808D10D48006820F46040216940EA0A
:1018B000C1000A49086000F061F808490968C1F3ED
:1018C0000311074A515CC840064908600648006891
:1018D000FFF754FE00204CE7003C0240083802406D
:1018E000809D0008340000202C0000200F220260A0
:1018F0000D4A126802F0030242600B4A126802F0BD
:10190000F0028260084A126802F4E052C260064A9D
:10191000126802F46042D2080261044A126802F0BE
:1019200007020A607047000008380240003C02408D
:1019300001480068704700003400002000B5FFF740
:10194000F7FF04490968C1F38221034A515CC8408A
:1019500000BD000008380240909D000800B5FFF768
:10196000E7FF04490968C1F34231034A515CC840AA
:1019700000BD000008380240909D00082DE9F047A6
:10198000002400250026A1462548006800F00C0030
:1019900020B1042805D008283AD105E0DFF884906A
:1019A00039E0DFF8849036E01D48001F006800F041
:1019B0003F041B48001F006800F4800078B11A48FB
:1019C0001749091F0968C1F38811A0FB017001467E
:1019D000224600233846FEF75BFC05460EE0114820
:1019E0000F49091F0968C1F38811A0FB0170014666
:1019F000224600233846FEF74BFC05460848001FE8
:101A00000068C0F30140401C4600B5FBF6F902E057
:101A1000DFF8109000BF00BF4846BDE8F087000027
:101A2000083802400024F40040787D01F8B50446EF
:101A30000CB90120F8BD207800F00100002874D016
:101A4000F948006800F00C0004280DD0F648006842
:101A500000F00C00082813D1F348001F006800F4C0
:101A60008000B0F5800F0BD1EF4808380068C0F354
:101A70004040002859D06068002856D10120D9E79D
:101A800000BF6068B0F5803F08D1E74808380068BB
:101A900040F48030E449083908601EE06068B0F521
:101AA000A02F0DD1E0480838006840F48020DE49BE
:101AB000083908600846006840F4803008600CE08F
:101AC000D9480838006820F48030D74908390860C0
:101AD0000846006820F48020086000BF606890B16C
:101AE000FFF74EFA054606E0FFF74AFA401B642866
:101AF00001D903209EE7CC4808380068C0F3404075
:101B00000028F1D011E0FFF73BFA054606E0FFF7A9
:101B100037FA401B642801D903208BE7C2480838F4
:101B20000068C0F340400028F1D1207800F00200A6
:101B300002285FD1BC48006800F00C0058B1BA48D8
:101B4000006800F00C0008281CD1B748001F00688E
:101B500000F48000B0B9B44808380068C0F3400011
:101B600020B1E068012801D0012063E7AE480838C1
:101B7000006820F0F800216940EAC100AA4908394C
:101B8000086037E0E06800B30120A8490860FFF76B
:101B9000F7F9054606E0FFF7F3F9401B022801D9E3
:101BA000032047E7A04808380068C0F34000002839
:101BB000F1D09D480838006820F0F800216940EA1B
:101BC000C10099490839086014E00020974908606D
:101BD000FFF7D6F9054606E0FFF7D2F9401B0228C9
:101BE00001D9032026E7904808380068C0F3400078
:101BF0000028F1D1207800F0080008282CD1606975
:101C0000A8B101208A490860FFF7BAF9054606E045
:101C1000FFF7B6F9401B022801D903200AE78248E2
:101C20006C300068C0F340000028F1D014E00020C0
:101C30007F490860FFF7A4F9054606E0FFF7A0F921
:101C4000401B022801D90320F4E677486C30006875
:101C5000C0F340000028F1D1207800F004000428EF
:101C600070D1002770483830006800F0805090B97B
:101C700000BF002000906C483830006840F0805071
:101C80006949383108600846006800F080500090CB
:101C900000BF00BF01276748006800F48070B0B93A
:101CA0006448006840F4807062490860FFF768F992
:101CB000054606E0FFF764F9401B022801D903201E
:101CC000B8E65C48006800F480700028F2D000BFDD
:101CD000A068012808D154486830006840F001002D
:101CE0005149683108601DE0A06805280DD14E48B3
:101CF0006830006840F004004B49683108600846CD
:101D0000006840F0010008600CE047486830006857
:101D100020F001004449683108600846006820F05E
:101D20000400086000BFA068A8B1FFF729F90546C4
:101D300009E0FFF725F9401B41F28831884202D9BA
:101D4000032077E626E0384868300068C0F340009A
:101D50000028EED013E0FFF713F9054608E0FFF77F
:101D60000FF9401B41F28831884201D9032061E616
:101D70002D4868300068C0F340000028EFD1012FE3
:101D800007D129483830006820F080502649383182
:101D9000086000BFA069002845D02348006800F013
:101DA0000C0008285DD0A069022845D100201F49F9
:101DB0000866FFF7E5F8054606E0FFF7E1F8401B87
:101DC000022801D9032035E6174808380068C0F317
:101DD00040600028F1D1D4E907010843616A40EA74
:101DE00081110122A06AC2EB500041EA00412C207F
:101DF000005D41EA00600C49091F086001200B49A1
:101E00000866FFF7BDF8054606E0FFF7B9F8401B86
:101E1000022801D903200DE6034808380068C0F302
:101E200040600028F1D049E00838024000004742F5
:101E3000800E474200700040002021490866FFF7ED
:101E40009FF8054606E0FFF79BF8401B022801D9E2
:101E50000320EFE51B480068C0F340600028F2D182
:101E60002CE0A069012800D1E4E51648001D0668B1
:101E7000A069012820D006F48001E06981421BD1CD
:101E800006F03F01206A814216D147F6C07030400B
:101E9000616AB0EB811F0FD106F440310122A06AC4
:101EA000C2EB5000B1EB004F06D106F070612C2060
:101EB000005DB1EB006F01D00120BBE50020B9E56A
:101EC00000004742003802407047704730B5024674
:101ED0000B4600BF92F83C00012801D1022030BD22
:101EE000012082F83C0000BF022082F83D0010680B
:101EF00044681068816824F070041868044310680E
:101F00004460144D1068A84213D01068B0F1804F9F
:101F10000FD0114D1068A8420BD0104D1068A84288
:101F200007D00F4D1068A84203D00E4D1068A8428C
:101F300005D121F0800158680143106881600120BB
:101F400082F83D0000BF002082F83C0000BF00BFC7
:101F5000C5E7000000000140000400400008004008
:101F6000000C00400040014010B504460CB90120AF
:101F700010BD94F83D0028B9002084F83C002046AC
:101F800000F026F8022084F83D00211D206801F0B1
:101F900043FE012084F8460000BF84F83E00012182
:101FA0003F200155402001554120015500BF00BF91
:101FB000012084F84200432001554420015545206A
:101FC000015500BF012084F83D000020D0E700004B
:101FD00008B50A4A016891420FD100BF0021009163
:101FE0000749096841F00201054A11601146096874
:101FF00001F00201009100BF00BF08BD00040040D5
:1020000040380240014691F83D00012801D00120EE
:102010007047022081F83D000868C06840F0010068
:102020000B68D860164B0868984213D00868B0F166
:10203000804F0FD0134B086898420BD0124B0868A2
:10204000984207D0114B0868984203D0104B08689B
:1020500098420CD10868806800F00702062A0CD06C
:102060000868006840F001000B68186005E0086827
:10207000006840F001000B6818600020C8E700000D
:10208000000001400004004000080040000C004037
:10209000004001402DE9F04104460D46002700BFF5
:1020A00094F83C00012802D10220BDE8F081012013
:1020B00084F83C0000BF022084F83D002068866858
:1020C00026F0770626F47F46206886602868502828
:1020D00033D00CDC202850D004DC00284BD0102852
:1020E00051D149E0302849D040284CD139E060280E
:1020F0002DD0702807D0B0F5805F03D0B0F5005F19
:1021000041D10DE041E0D5E902136A68206801F091
:10211000EEFD2068866846F077062068866034E029
:10212000D5E902136A68206801F0E1FD2068806843
:1021300040F480402168886027E0EA686968206888
:1021400001F0A6FE5021206801F0DCFD1DE0EA68E8
:102150006968206801F0AFFE6021206801F0D2FDBF
:1021600013E0EA686968206801F092FE4021206867
:1021700001F0C8FD09E000BF00BF00BF296820686A
:1021800001F0C0FD01E0012700BF00BF012084F87D
:102190003D0000BF002084F83C0000BF384684E7C3
:1021A000704770B504462068C5682068066906F067
:1021B0000200022819D105F00200022815D1401FA3
:1021C00021680861012020772068806900F0030001
:1021D00018B12046FFF7E4FF05E0204600F0E6F8DE
:1021E000204600F09AF90020207706F00400042829
:1021F00019D105F00400042815D1C04321680861F5
:10220000022020772068806900F4407018B12046D1
:10221000FFF7C6FF05E0204600F0C8F8204600F0B2
:102220007CF90020207706F00800082819D105F075
:102230000800082815D1C0432168086104202077D0
:102240002068C06900F0030018B12046FFF7A8FF1E
:1022500005E0204600F0AAF8204600F05EF90020D4
:10226000207706F01000102819D105F01000102872
:1022700015D1C04321680861082020772068C06913
:1022800000F4407018B12046FFF78AFF05E02046B1
:1022900000F08CF8204600F040F90020207706F08E
:1022A000010048B105F0010030B16FF00100216874
:1022B0000861204600F0A8F906F08000802809D1C6
:1022C00005F08000802805D1C043216808612046C0
:1022D000FFF7FAFD06F04000402809D105F0400064
:1022E000402805D1C04321680861204600F098F9D4
:1022F00006F02000202809D105F02000202805D173
:10230000C043216808612046FFF7DFFD70BD000073
:1023100010B586B00446142101A8FEF703F81F4942
:102320002068884238D100BF002000901C48006817
:1023300040F001001A4908600846006800F00100FA
:10234000009000BF00BF00BF00200090084600685A
:1023500040F0020008600846006800F002000090AB
:1023600000BF00BFC0200190022002900020039017
:1023700004900220059001A90A48FEF717FD0320EA
:10238000019002200290002003900490022005900A
:1023900001A90548FEF70AFD06B010BD0004004083
:1023A00030380240000002400004024070472DE92E
:1023B000F04104460D461646002700BF94F83C0045
:1023C000012802D10220BDE8F081012084F83C0000
:1023D00000BF36B1042E1BD0082E31D00C2E5ED19A
:1023E00045E02946206801F097FC2068806940F0AC
:1023F0000800216888612068806920F00400216855
:10240000886120688069296908432168886148E0FB
:102410002946206801F0B0FC2068806940F4006023
:10242000216888612068806920F480602168886163
:1024300020688069296940EA01202168886130E0CC
:102440002946206801F0CCFC2068C06940F00800F3
:102450002168C8612068C06920F004002168C86153
:102460002068C069296908432168C86119E02946C4
:10247000206801F0E9FC2068C06940F40060216830
:10248000C8612068C06920F480602168C861206844
:10249000C069296940EA01202168C86101E001277B
:1024A00000BF00BF00BF002084F83C0000BF3846DA
:1024B00089E710B504460CB9012010BD94F83D0021
:1024C00028B9002084F83C00204600F025F80220BE
:1024D00084F83D00211D206801F09EFB012084F856
:1024E000460000BF84F83E0001213F2001554020F6
:1024F00001554120015500BF00BF012084F8420072
:1025000043200155442001554520015500BF0120BD
:1025100084F83D000020D0E77047704770B504464E
:102520000D4615B994F83E000BE0042D02D13F2072
:10253000005D06E0082D02D14020005D01E0412051
:10254000005D012801D0012070BD1DB9022084F872
:102550003E000EE0042D03D102213F20015508E08A
:10256000082D03D102214020015502E00221412023
:10257000015501222946206801F0A8FB1D49206869
:10258000884201D1012000E0002028B12068406C81
:1025900040F400402168486416492068884213D0FE
:1025A0002068B0F1804F0FD01349206888420BD0CB
:1025B00012492068884207D011492068884203D018
:1025C0001049206888420CD12068806800F0070616
:1025D000062E0CD02068006840F0010021680860D9
:1025E00005E02068006840F00100216808600020D4
:1025F000AAE700000000014000040040000800407D
:10260000000C00400040014010B50446034920681A
:10261000884201D1FEF788FF10BD00000000014094
:1026200070477047704700002DE9F84F0446206856
:1026300005682068C668206847694FF00009CA46E7
:1026400005F00F09B9F1000F0AD105F0200038B1EB
:1026500006F0200020B1204601F091FCBDE8F88F83
:10266000B9F1000F7CD007F0010018B906F49070A2
:10267000002875D005F0010030B106F4807018B163
:10268000606C40F00100606405F0040030B107F0B8
:10269000010018B1606C40F00200606405F00200B7
:1026A00030B107F0010018B1606C40F004006064C4
:1026B00005F0080048B106F0200010B907F001004D
:1026C00018B1606C40F008006064606C002846D06F
:1026D00005F0200028B106F0200010B1204601F0DE
:1026E0004EFC20684069C0F3801A606C00F008005E
:1026F00010B9BAF1000F2DD0204601F0FAFB206886
:10270000406900F04000402820D100BF00BF216890
:10271000143151E8001F21F040002168143141E8D4
:102720000002002AF3D100BFE06B50B17748E16BA3
:102730000865E06BFEF725FB88B1E06B016D88470B
:102740000DE02046FFF76EFF09E009E02046FFF7A5
:1027500069FF04E02046FFF765FF002060647DE725
:10276000206B012878D105F01000002874D006F005
:1027700010000028FAD000BF0020009020680068F8
:10278000009020684068009000BF00BF206840694A
:1027900000F04000402860D1E06B006840681FFAFC
:1027A00080F8B8F1000F56D0A08D404553DDA4F855
:1027B0002E80E06BC069B0F5807F43D000BF00BFC2
:1027C00021680C3151E8001F21F4807021680C3120
:1027D00041E80002002AF3D100BF00BF00BF21681A
:1027E000143151E8001F21F001002168143141E843
:1027F0000002002AF3D100BF00BF00BF21681431DE
:1028000051E8001F21F040002168143141E8000226
:10281000002AF3D100BF202084F84200002020636A
:1028200000BF00BF21680C3151E8001F21F01000EB
:1028300021680C3141E80002002AF3D100BFE06BAF
:10284000FEF749FA02206063A08DE28D801A81B202
:102850002046FFF7E6FE01E742E0A08DE18D401A39
:102860001FFA80F8E08DD0B3B8F1000F37D000BF69
:1028700000BF21680C3151E8001F21F490702168DD
:102880000C3141E80002002AF3D100BF00BF00BFB5
:102890002168143151E8001F21F001002168143132
:1028A00041E80002002AF3D100BF202084F8420052
:1028B0000020206300BF00BF21680C3151E8001FD9
:1028C00021F0100021680C3141E80002002AF3D108
:1028D00000BF0220606341462046FFF7A2FEBDE62E
:1028E00005F0800030B106F0800018B1204601F0FC
:1028F000FBFCB3E605F0400030B106F0400018B133
:10290000204601F02CFBA9E600BFA7E6DF3E000849
:1029100010B504460CB9012010BDA06900B100E05B
:1029200000BF94F8410028B9002084F840002046F8
:1029300000F02AF8242084F841002068C06820F4C0
:1029400000502168C860204601F098FB20680069AB
:1029500020F49040216808612068406920F02A0036
:10296000216848612068C06840F400502168C86050
:1029700000206064202084F8410084F84200002098
:10298000606300BFC8E7000010B586B0044614219C
:1029900001A8FDF7C7FC1F492068884238D100BF55
:1029A000002000901C48006840F010001A490860A0
:1029B0000846006800F01000009000BF00BF00BF94
:1029C0000020009014481438006840F001001249BB
:1029D000143908600846006800F00100009000BF4C
:1029E00000BF4FF4C06001900220029000200390CD
:1029F000032004900720059001A90848FEF7D6F9A6
:102A0000002205212520FEF747FE2520FEF730FE97
:102A100006B010BD001001404438024000000240E2
:102A200070B504460D46164694F8420020280BD196
:102A300005B10EB9012070BD002020633246294641
:102A4000204601F031FCF6E70220F4E770B50446B9
:102A50000F492068884219D100BF5021EFF311803F
:102A600081F31188BFF34F8FBFF36F8F00BF05460F
:102A70000121084804F0A0FB012206490648FFF79F
:102A8000CFFF284680F3118800BF00BF70BD000053
:102A90000010014026000020080900202DE9F84F11
:102AA00004460E46174699464FF0000A94F8410036
:102AB000202850D106B117B90120BDE8F88F0020B9
:102AC0006064212084F84100FEF75AFA8246A78408
:102AD000E784A068B0F5805F04D1206910B90025B3
:102AE000B04602E035464FF000081EE05346002293
:102AF00080212046CDF8009001F026FC20B1202056
:102B000084F841000320D8E745B9B8F80000C0F3C5
:102B100008002168486008F1020803E0287821686D
:102B200048606D1CE08C401EE084E08C0028DDD104
:102B30005346002240212046CDF8009001F004FCCD
:102B400020B1202084F841000320B6E7202084F83B
:102B500041000020B1E70220AFE7704700BFFEE769
:102B6000014608684069C0F38020B0B16FF480600E
:102B70000A68506100200863202081F83D00002091
:102B800081F83E00086C40F00400086400BF00209B
:102B900081F83C0000BF012070470020FCE70000E6
:102BA0002DE9F84304460F4615469946DDE90886A7
:102BB0002068006840F48060216808602068006830
:102BC00040F4807021680860434600224FF00111F4
:102BD0002046009600F094F860B12068006800F488
:102BE0008070B0F5807F02D14FF400702064032024
:102BF000BDE8F88307F0FE002168086133464246CD
:102C00003E49204600F0DBF808B10120F0E700BFA4
:102C10000020009020684069009020688069009042
:102C200000BF00BF32464146204600F08AF950B14D
:102C3000206C042805D12068006840F400702168E9
:102C400008600120D4E7B9F1010F03D1E8B221688F
:102C5000086117E0C5F30720216808613246414644
:102C6000204600F06EF950B1206C042805D1206890
:102C7000006840F40070216808600120B8E7E8B2FD
:102C80002168086132464146204600F05AF950B1A9
:102C9000206C042805D12068006840F40070216889
:102CA00008600120A4E72068006840F48070216873
:102CB0000860434600224FF001112046009600F0C4
:102CC0001FF858B12068006800F48070B0F5807F6C
:102CD00002D14FF400702064032089E7F8B240F07D
:102CE000010021680861334642460449204600F04D
:102CF00066F808B101207BE7002079E702000100B7
:102D00002DE9F04104460D4617461E46DDF81880B1
:102D100038E0701CA8B3FEF733F9A0EB0800B0420E
:102D200000D876BBC5F3074001280AD12068406966
:102D3000A9B20840A9B2884201D101200BE00020CD
:102D400009E020688069A9B20840A9B2884201D18F
:102D5000012000E00020B84214D100202063202090
:102D600084F83D00002084F83E00206C40F02000F4
:102D7000206400BF002084F83C0000BF0120BDE8B3
:102D8000F081FFE7C5F3074001280AD120684069B8
:102D9000A9B20840A9B2884201D101200BE000206D
:102DA00009E020688069A9B20840A9B2884201D12F
:102DB000012000E00020B842ABD00020DFE72DE981
:102DC000F04104460D4616461F4658E0206840690B
:102DD000C0F38020E8B12068006840F400702168EA
:102DE00008606FF480602168486100202063202023
:102DF00084F83D00002084F83E00206C40F0040080
:102E0000206400BF002084F83C0000BF0120BDE822
:102E1000F081701C90B3FEF7B3F8C01BB04200D82D
:102E200066BBC5F3074001280AD120684069A9B2F2
:102E30000840A9B2884201D101200BE0002009E03E
:102E400020688069A9B20840A9B2884201D1012056
:102E500000E0002090B900202063202084F83D008D
:102E6000002084F83E00206C40F02000206400BF69
:102E7000002084F83C0000BF0120C8E7FFE7C5F34D
:102E8000074001280AD120684069A9B20840A9B2C8
:102E9000884201D101200BE0002009E02068806910
:102EA000A9B20840A9B2884201D1012000E0002067
:102EB00000288BD00020AAE770B504460D461646C0
:102EC00037E020684069C0F30010A0B16FF0100037
:102ED0002168486100202063202084F83D00002004
:102EE00084F83E00206C206400BF002084F83C0081
:102EF00000BF012070BDFEF743F8801BA84200D838
:102F0000BDB920684069C0F3801090B900202063EB
:102F1000202084F83D00002084F83E00206C40F022
:102F20002000206400BF002084F83C0000BF012086
:102F3000E0E720684069C0F380100028C1D000207D
:102F4000D8E770B504460D46164625E02046FFF743
:102F500007FE08B1012070BD681CE8B1FEF710F84B
:102F6000801BA84200D8BDB920684069C0F3C010DA
:102F700090B900202063202084F83D00002084F8D0
:102F80003E00206C40F02000206400BF002084F848
:102F90003C0000BF0120DEE720684069C0F3C0109C
:102FA0000028D3D00020D6E72DE9F0472DED068B81
:102FB00084B004460020039000253220042103AA97
:102FC000CDE90021029004EB4401204A02EB81117B
:102FD00001230C22086D6C21FEF7C0F80C26042793
:102FE0003046FDF732FB41EC190BB0EE491AF0EE1A
:102FF000691A9FED170B01F06BFBB0EE408AF0EE03
:10300000608A51EC180BFDF75DFB0AEE100AA6EB87
:103010000708012000FA08F0401E00F0FF09012017
:10302000B840401E00F0FF0A9DF80D0000EA0905B7
:103030009DF80C0000EA0A0000FA08F0284485B266
:10304000284604B0BDEC068BBDE8F0873C4A002062
:10305000000000000000004018E00D48006880F407
:1030600000500B4908600B4890ED000AB0EEC00A12
:10307000DFED090A20EE200ABCEEC00A10EE100AAD
:10308000C0B200F16404204605F04EFDE5E7000003
:1030900014080240180000200000C842F0EE400A68
:1030A000074890ED001ADFED071A21EE211ADFED37
:1030B000061A01EEA01AB0EE410A80ED000A704730
:1030C000B80000206666663FCDCCCC3D00B587B029
:1030D000142102A8FDF726F900BF00200190434803
:1030E000006840F00400414908600846006800F0AC
:1030F0000400019000BF00BF00BF002001900846FF
:10310000006840F0800008600846006800F0800019
:10311000019000BF00BF00BF00200190084600687A
:1031200040F0010008600846006800F001000190CE
:1031300000BF00BF00BF002001900846006840F0BB
:10314000020008600846006800F00200019000BF1D
:1031500000BF00224FF400512548FDF70BFF00226D
:1031600004212448FDF706FF01224FF4787121481D
:10317000FDF700FF4FF40050029001200390002063
:103180000490059002A91A48FDF710FE0120029054
:10319000002003900120049002A91748FDF706FEC5
:1031A000042002900120039000200490012005904B
:1031B00002A91048FDF7FAFD4FF4E040029000200C
:1031C00003900120049002A90A48FDF7EFFD4FF497
:1031D0007870029001200390002004900220059056
:1031E00002A90448FDF7E2FD07B000BD30380240F7
:1031F00000080240000402400000024010B50B48E5
:103200000B4908600B484860002109488160C16093
:103210004FF480410161002141618161C16101621E
:10322000FDF7B4FE08B1FDF732FD10BD005C0040B3
:103230006C070020A086010000B58DB00020099029
:103240000A900B900C90079008901C216846FDF79F
:1032500069F8344834490860032048602021324826
:1032600081604FF4C871C160002101618161FEF786
:103270007BFE08B1FDF70BFD4FF48050099009A9C2
:103280002948FEF707FF08B1FDF701FD2648FFF7C3
:1032900010F908B1FDF7FBFC00200790089007A982
:1032A0002148FEF713FE08B1FDF7F1FC6020009005
:1032B00000200190029004200490002269461A48E0
:1032C000FFF775F808B1FDF7E2FC042269461648DD
:1032D000FFF76DF808B1FDF7DAFC082269461248DD
:1032E000FFF765F808B1FDF7D2FC0C2269460E48DD
:1032F000FFF75DF808B1FDF7CAFC00210A48FFF7A7
:103300000DF904210848FFF709F908210648FFF7DD
:1033100005F90C210448FFF701F90348FEF7F8FF0F
:103320000DB000BD00040040C007002010B50B48E0
:103330000B4908604FF4E130486000210848816083
:10334000C16001610C21416100218161C161FFF710
:10335000DFFA08B1FDF79BFC10BD00000010014032
:103360000809002070B504460D4604EB44001C49D2
:1033700001EB801005654FF4805104EB4400184ABE
:1033800002EB801041652046FFF70EFE04EB44017E
:10339000134A02EB8111C8659FED120A04EB440049
:1033A000114601EB801080ED160A9FED0E0A04EB2A
:1033B000440001EB801080ED180A002104EB44006A
:1033C00002EB8010C16504EB4400114601EB801054
:1033D00000F16402816E406EFDF75CFC70BD000080
:1033E0003C4A00200000000000BFFEE710B5044684
:1033F00061A001F037F804EB4400624901EB801052
:1034000090ED040A04EB440001EB8010D0ED030AB8
:10341000B4EEE00AF1EE10FA0BDD04EB440001EB30
:10342000801090ED030A04EB440001EB801080ED66
:10343000040A04EB4400534901EB80100470524825
:1034400004EB44014F4A02EB81114860B2EE080AD6
:1034500004EB4400114601EB801080ED020AB1EE4E
:10346000080A04EB440001EB801080ED030AB0EE83
:10347000000A04EB440001EB801080ED040A0720F1
:1034800004EB440102EB81114861002004EB44018C
:1034900002EB81118861002104EB440002EB8010F3
:1034A00080F84C10012104EB440002EB801080F8FE
:1034B0004D109FED360A04EB4400114601EB8010DD
:1034C00080ED070A9FED310A04EB440001EB801008
:1034D00080ED080A9FED2D0A04EB440001EB8010FB
:1034E00080ED090A9FED290A04EB440001EB8010EE
:1034F00080ED0A0A9FED250A04EB440001EB8010E1
:1035000080ED0C0A9FED210A04EB440001EB8010D2
:1035100080ED0D0A9FED1D0A04EB440001EB8010C5
:1035200080ED0E0A9FED190A04EB440001EB8010B8
:1035300080ED0F0A9FED150A04EB440001EB8010AB
:1035400080ED100A9FED110A04EB440001EB80109E
:1035500080ED110A9FED0D0A04EB440001EB801091
:1035600080ED120A012204210948FDF703FD09A09C
:1035700000F078FF10BD00004D4F543A20496E69AD
:10358000740D0A003C4A0020C00700200000000023
:10359000000402404D4F543A20456E61626C652034
:1035A0006472697665722E0D0A00000010B504463B
:1035B000204603F035F8204603F05EFB04EB4400A0
:1035C000194901EB801080ED180A052005F0ACFACE
:1035D000204605F0B3F804EB4400134901EB8010DA
:1035E00080ED090A052005F09FFA204605F08AF8CB
:1035F00004EB44000C4901EB801080ED070A04EB5A
:10360000440001EB801090F84D00022808D104EB33
:10361000440001EB801090ED070A044880ED000A99
:10362000C82005F081FA10BD3C4A0020200000208F
:1036300000BFFEE710B52DED068B0446B0EE408AC4
:1036400004EB44003C4901EB801000F1B802D2E9E0
:103650000001FDF727FB00EE100AB8EE400ADFED8F
:10366000370A80EE201AB0EE419AB5EEC09AF1EE1C
:1036700010FA06D0B6EE000AB4EEC09AF1EE10FAD7
:1036800003DD9FED2E0AB0EE409A04EB44002A4978
:1036900001EB801090ED280A60EE089A04EB4400DC
:1036A00001EB801090ED2A0A04EB440001EB80103E
:1036B000D0ED2B0A78EE600A20EE200A80EE09AAEF
:1036C00079EE8A8A04EB440001EB801090ED030A46
:1036D000B1EE400AB4EEE80AF1EE10FA08DD04EBB0
:1036E000440001EB801090ED030AB1EE400A14E0B3
:1036F00004EB4400104901EB801090ED030AB4EE96
:10370000E80AF1EE10FA06D204EB440001EB801057
:1037100090ED030A01E0B0EE680AF0EE408A04EB97
:103720004400054901EB801080ED2B8AB0EE680A59
:10373000BDEC068B10BD00003C4A00206F12833A9E
:1037400010B504469FED3F0A04EB44003E4901EBEF
:10375000801080ED1E0A9FED3D0A04EB440001EB52
:10376000801080ED1F0A9FED3A0A04EB440001EB44
:10377000801080ED200A9FED370A04EB440001EB36
:10378000801080ED210A9FED320A04EB440001EB2A
:10379000801080ED250A9FED2E0A04EB440001EB1A
:1037A000801080ED230A9FED2A0A04EB440001EB10
:1037B000801080ED240A04EB440001EB801000F13E
:1037C0009802D2E90001FDF765FAB2EE040A04EBB3
:1037D00044001D4901EB801080ED280A9FED1C0A72
:1037E00004EB440001EB801080ED290AB6EE000ADC
:1037F00004EB440001EB801080ED2A0A9FED140ACF
:1038000004EB440001EB801080ED2B0A9FED100AC1
:1038100004EB440001EB801080ED2C0A9FED0C0AB4
:1038200004EB440001EB801080ED2D0A04EB440012
:1038300001EB801000F1B802D2E90001FDF72AFA8D
:1038400010BD000096438B3D3C4A0020508D173D33
:10385000000000000000C84210B52DED068B0446A4
:10386000F0EE409A04EB4400814901EB801000F136
:103870009802D2E90001FDF715FA00EE100AB8EE41
:10388000400ADFED7C0A80EE201AB0EE418AB5EEE8
:10389000C08AF1EE10FA06D0B6EE000AB4EEC08A85
:1038A000F1EE10FA03DD9FED730AB0EE408A04EBEF
:1038B00044006F4901EB801090ED1E0A60EE29AACA
:1038C00004EB440001EB801090ED250A04EB44006A
:1038D00001EB8010D0ED1F0A60EE880AB6EE001AE8
:1038E00060EE810A04EB440001EB801090ED231A96
:1038F00031EE291AB0EE409A00EE819A04EB4400B2
:1039000001EB801090ED030AB1EE400AB4EEC90A53
:10391000F1EE10FA08DD04EB440001EB801090EDAD
:10392000030AB1EE400A14E004EB4400504901EBF5
:10393000801090ED030AB4EEC90AF1EE10FA06D237
:1039400004EB440001EB801090ED030A01E0B0EEBF
:10395000490AB0EE409A7AEE898A04EB4400444961
:1039600001EB801090ED030AB1EE400AB4EEE80AD4
:10397000F1EE10FA08DD04EB440001EB801090ED4D
:10398000030AB1EE400A14E004EB4400384901EBAD
:10399000801090ED030AB4EEE80AF1EE10FA06D2B8
:1039A00004EB440001EB801090ED030A01E0B0EE5F
:1039B000680AF0EE408A04EB44002D4901EB8010C8
:1039C00090ED240A38EEC00A80EE08AA04EB440009
:1039D00001EB801090ED210AB4EECA0AF1EE10FA64
:1039E00010D204EB440001EB801090ED240A04EBAC
:1039F000440001EB8010D0ED210A00EE880AF0EEC1
:103A0000408A1DE004EB4400194901EB801090ED61
:103A1000210AB1EE400AB4EECA0AF1EE10FA0FDD47
:103A200004EB440001EB801090ED240A04EB440009
:103A300001EB8010D0ED210A00EEC80AF0EE408ABA
:103A400004EB44000A4901EB801080ED259A04EB59
:103A5000440001EB8010C0ED248A04EB440001EB2C
:103A60008010C0ED239AB0EE680ABDEC068B10BD45
:103A70003C4A00206F12833AB5EEC00AF1EE10FA0C
:103A800003D8DFED200AB0EE600AF7EE000AB4EECC
:103A9000E00AF1EE10FA03DBF7EE000AB0EE600A7E
:103AA00051B9DFED190A60EE200AFCEEE00A10EED3
:103AB000902A03685A6323E004290AD1DFED120A31
:103AC00060EE200AFCEEE00A10EE902A03689A638A
:103AD00016E008290AD1DFED0C0A60EE200AFCEEA0
:103AE000E00A10EE902A0368DA6309E0DFED060AC7
:103AF00060EE200AFCEEE00A10EE902A03681A64D9
:103B000070470000000000000000C84310B500BF6F
:103B1000502080F31188BFF34F8FBFF36F8F00BF2A
:103B200005F0DAFE18B14FF080500449086000BF7C
:103B3000002080F3118800BF10BD000004ED00E0FC
:103B400000B593B0302107A8FCF7ECFB142102A8C4
:103B5000FCF7E8FB00BF002001902448006840F01B
:103B60008050224908600846006800F080500190AB
:103B700000BF00BF00BF002001901D48006820F476
:103B8000404040F400401A4908600846006800F4CC
:103B90004040019000BF00BF012007900004089042
:103BA00002200D9041050E9119210F91A021109135
:103BB000022111910421129107A8FDF737FF08B1E6
:103BC000FDF765F80F20029002200390002004907A
:103BD0004FF48050059000200690022102A8FDF7C6
:103BE000C3FD08B1FDF753F813B000BD40380240E3
:103BF000007000400348006840F47000014908600C
:103C00007047000088ED00E010B50248FEF7C9FAE1
:103C100010BD00005009002010B50268244B9842E6
:103C20000BD0B0F1804F08D0224B984205D0224BE8
:103C3000984202D0214B984203D122F070024B6887
:103C40001A431B4B984214D0B0F1804F11D0194B3E
:103C500098420ED0184B98420BD0184B984208D07F
:103C6000174B984205D0174B984202D0164B9842FA
:103C700003D122F44072CB681A4322F080034C69CE
:103C800043EA040202608B68C3620B688362084BDC
:103C9000984201D10B69036301234361036903F077
:103CA00001031BB1036923F00103036110BD000090
:103CB000000001400004004000080040000C0040EB
:103CC00000400140004401400048014030B501F08F
:103CD0001F05012404FA05F3046A9C430462046A84
:103CE00001F01F0502FA05F52C43046230BD30B522
:103CF0000C46816821F47F4142EA0325254329438C
:103D0000816030BD0A46816821F0700142F00703EE
:103D1000194381607047000030B5026A056A25F0DA
:103D2000010505624368846924F0700424F00304EB
:103D30000D682C4322F002028D682A430D4DA842E3
:103D400006D100BF22F00802CD682A4322F0040207
:103D5000084DA84207D123F4807323F400734D6902
:103D60002B438D692B43436084614D684563026238
:103D700030BD00000000014030B5026A056A25F040
:103D8000100505624368846924F4E04424F4407417
:103D90000D6844EA052422F020028D6842EA0512EB
:103DA0000E4DA84207D100BF22F08002CD6842EA42
:103DB000051222F04002094DA84209D123F4806384
:103DC00023F400634D6943EA85038D6943EA850363
:103DD000436084614D688563026230BD000001402C
:103DE00030B5026A056A25F4807505624368C469C6
:103DF00024F0700424F003040D682C4322F40072B4
:103E00008D6842EA05220F4DA84207D100BF22F477
:103E10000062CD6842EA052222F48062094DA84280
:103E200009D123F4805323F400534D6943EA051369
:103E30008D6943EA05134360C4614D68C56302623E
:103E400030BD00000000014030B5036A056A25F46A
:103E5000805505624468C26922F4E04222F440724F
:103E60000D6842EA052223F400538D6843EA0533C6
:103E7000064DA84204D124F480444D6944EA8514D7
:103E80004460C2614D680564036230BD00000140BA
:103E900030B50B461446026A056A25F00105056235
:103EA000816921F0F00141EA041122F00A021A436B
:103EB0008161026230BD30B50B461446026A056A64
:103EC00025F010050562816921F4704141EA043151
:103ED00022F0A00242EA03128161026230BD70B595
:103EE0000546AC6B0020E085E0842046FEF79AFB97
:103EF00070BD00BF00BF02680C3252E8002F22F4F0
:103F0000907102680C3242E80013002BF3D100BF1D
:103F100000BF00BF0268143252E8002F22F00101F6
:103F20000268143242E80013002BF3D100BF016B8A
:103F300001290ED100BF00BF02680C3252E8002FE9
:103F400022F0100102680C3242E80013002BF3D17A
:103F500000BF202180F8421000210163704710B596
:103F600004462068C06820F040002168C860202016
:103F700084F841002046FEF7F0FD002010BDF8B5A2
:103F8000044694F84200222875D1A068B0F5805FFD
:103F90000CD1206950B90025A66A20684068C0F39A
:103FA00008003080A06A801CA06215E0A56A002687
:103FB000A068B0F5805F03D0A06828B9206918B95F
:103FC00020684068287004E02068406800F07F00A6
:103FD0002870A06A401CA062E08D401E80B2E0857F
:103FE000002846D12068C06820F020002168C86001
:103FF0002068C06820F480702168C860206840692B
:1040000020F0010021684861202084F8420000204F
:104010006063206B012826D10020206300BF00BF11
:1040200021680C3151E8001F21F0100021680C318B
:1040300041E80002002AF3D100BF2068006800F0C8
:10404000100010280AD100BF0020009020680068EE
:10405000009020684068009000BF00BFA18D2046FE
:10406000FEF7DFFA02E02046FEF7F0FC0020F8BD84
:1040700001E00020FBE70220F9E700002DE9F84FFE
:1040800004462068006920F44050E1680843216834
:1040900008612169A068084361690843E169084330
:1040A00000902068C06849F20C6188430099084379
:1040B0002168C8602068406920F44070A169084305
:1040C0002168486176492068884203D07549206894
:1040D000884203D1FDF742FC814602E0FDF72EFC49
:1040E0008146E069B0F5004F6CD102206168A0FB09
:1040F000015003461920A9FB007001462A463846A4
:10410000FCF7C6F86421B0FBF1F04FEA001A022078
:104110006168A0FB01510B461920A9FB00712A46DA
:104120003846FCF7B5F8834602206168A0FB0150D1
:1041300003461920A9FB00712A463846FCF7A8F867
:104140006421B0FBF1F000EBC00101EB0010ABEB20
:104150008000322101EBC0006421B0FBF1F000F0DF
:10416000F8000AEB400A02206168A0FB01500346F8
:104170001920A9FB007001462A463846FCF788F84A
:10418000834602206168A0FB015003461920A9FB69
:1041900000712A463846FCF77BF86421B0FBF1F049
:1041A00000EBC00101EB0010ABEB8000322101EB12
:1041B000C0006421B0FBF1F000F00700504421681A
:1041C00088606AE004206168A0FB01500346192062
:1041D000A9FB007001462A463846FCF759F882468A
:1041E00004206168A0FB015003461920A9FB007060
:1041F00001462A463846FCF74BF86421B0FBF1F043
:1042000000EBC00101EB0010AAEB8000322101EBB2
:1042100000106421B0FBF1F000F0F00A04206168A6
:10422000A0FB017003461920A9FB00513A4628461D
:10423000FCF72EF86421B0FBF1F00AEB001A042021
:104240006168A0FB01510B461920A9FB00712A46A9
:104250003846FCF71DF8834604206168A0FB015036
:1042600003461920A9FB007001462A463846FCF790
:104270000FF86421B0FBF1F000EBC00101EB00107E
:10428000ABEB8000322101EB00106421B0FBF1F0B8
:1042900000F00F00504421688860BDE8F88F0000EE
:1042A000001001400014014010B5034699629A8540
:1042B000DA8500205864222083F84200186928B16A
:1042C0001868C06840F480701C68E0601868406935
:1042D00040F001001C6860611868C06840F0200070
:1042E0001C68E060002010BD014691F841002128C3
:1042F00028D18868B0F5805F0BD1086948B90A6A8F
:104300001088C0F308000B685860086A801C0862B7
:1043100005E00B6A581C086218780B685860C88C56
:10432000401E80B2C88458B90868C06820F0800078
:104330000B68D8600868C06840F040000B68D8601F
:10434000002070470220FCE72DE9F84304460D46A3
:1043500017469846089E31E0701C70B3FCF710FEBB
:10436000A0EB0800B04200D816B90320BDE8F883DE
:104370002068C06800F00400F8B1802D1ED0402DE8
:104380001CD020680068C0F3C000B0B100BF00209E
:10439000009020680068009020684068009000BF8E
:1043A00000BF2046FFF7A5FD0820606400BF002085
:1043B00084F8400000BF0120D8E7FFE720680068CC
:1043C0002840A84201D1012000E00020B842C3D01B
:1043D0000020CBE710B50248FEF726F910BD00001B
:1043E000080900202DED028B82B000BF02F0DEFF35
:1043F000184890ED000ABDEEC00A8DED010A0123B8
:1044000001AA1946184604F03BF901221249134843
:10441000FEF706FB1DE00F4890ED000AB4EE408A5F
:10442000F1EE10FA0ED090ED000ABDEEC00A8DED4F
:10443000010A012301AA1946184604F021F905488A
:1044400090ED008A03F07EFD04F0CCF9C82004F062
:104450006BFBE0E718000020260000200809002080
:1044600000BFFEE70FB4054B10B503A9044A02983C
:1044700001F052FD10BC5DF814FB00005D6C0008FB
:10448000BC00002003B401984100009850EAC1200C
:1044900018BF04204A0D18BF40F0010040F2FF721F
:1044A000B2EB515F08BF40F00200012808BF0520B1
:1044B00002B0704702480068C0F302207047000055
:1044C0000CED00E010B5002804DB0A07130E054AC6
:1044D000135406E00A07140E034A00F00F031B1FD3
:1044E000D45410BD00E400E018ED00E0000000002E
:1044F00010B52F499FED2C1B2DED020B84B00598B4
:1045000020F000408842D8BF9DED040B2DDD2949E5
:10451000884209D1049840B94FF0010001F0F8FB3E
:1045200001F0B6FB06B010BD05DB9DED040B01F0FC
:104530009BFB06B010BD68469DED040B00F094FF98
:1045400010F0030004BF9DED021B9DED000B0CD08D
:1045500001280ED09DED021B9DED000B022817D007
:10456000012001F0D1FA06B010BD01F099F906B0B2
:1045700010BD9DED021B9DED000B012001F0C4FA62
:1045800051EC100B81F0004106B041EC100B10BD56
:1045900001F086F951EC100B81F0004106B041ECBE
:1045A000100B10BD00000000000000000000000023
:1045B000FB21E93F0000F07F2DED020B019820F078
:1045C000004001909DED000B02B0704710B52DED3D
:1045D000040B86B09DED060B10EE100A10EE901A3B
:1045E0008DED000B002818BF0120084320F000408B
:1045F000C0F17F6000F1E040C00F21D19DED080BBC
:1046000010EE101A10EE900A8DED000B002918BF65
:104610000121084320F00040C0F17F6000F1E0403C
:10462000C00F0DD129490798B1EB400F04BF069880
:10463000002842D00998400004BF089800283CD0C8
:104640009DED080B53EC102B9DED060B51EC100B60
:10465000FCF797F9CDE902019DED020B40F2FF71E5
:1046600010EE900A8DED000B31EA105021D0079822
:10467000039900F0004001F00041884219D09DEDFF
:10468000080B8DED040B9DED020B8DED000B10EE74
:10469000900A059961F31E0005909DED041B9DEDA8
:1046A000020B51EC110B53EC102BFBF7EAFECDE99A
:1046B00002019DED020B0AB010BD012001F028FBA4
:1046C0000AB0BDE8104001F0E3BA00000000E0FFCE
:1046D0002DE9F04D2DED040B2DED0E8B96B0DDE99F
:1046E0002550279CDDF890A025F0004624F00048D6
:1046F000BAF1000F14BF0121002101EB4502FC4972
:1047000053184A1093422AD3002814BF01230023D0
:1047100003EB44030B44F7498B4220D358EA0001D2
:104720009FEDF59B76D0DFF8D8B35D4503D1BAF1A4
:10473000000F05D188E0BAF1000F08BF002100D0BA
:10474000012101EB450111F5001F08D8002814BF15
:104750000121002101EB440111F5001F0BD99DED52
:10476000261B9DED240B16B0BDEC0E8B04B0BDE8EE
:10477000F04D01F083BA0027002DBCBFE149884508
:1047800021DAE1498845A8BF02271CDAC3451ADCB3
:10479000DE4901EB2851142908DDC1F1340220FA69
:1047A00002F101FA02F282420DD108E058B9C1F1DA
:1047B000140228FA02F101FA02F2424503D101F093
:1047C0000101C1F1020756EA0A0124D1002C22DAC4
:1047D000002D18BF022F01D0012F0AD0022001F0B6
:1047E00097FA16B0BDEC0E8B04B0BDE8F04D01F0A9
:1047F00023BA022001F08CFA01F01EFA51EC100BE2
:1048000081F0004141EC100B16B0BDEC0E8B04B0F2
:10481000BDE8F08D18E09FEDBEAB9FEDBF8B00288B
:1048200071D1B848804522D105F1804010F5801043
:1048300008BFBAF1000F07D0B3450ADC002CA8BFAF
:104840009DED260BE0DA0DE0B0EE490AF0EE690AC4
:10485000DAE7002C06DA9DED260B51EC100B81F007
:1048600000416FE0AE48784490ED000BCCE7D845AE
:104870004DD1002C48DA2EB186423AD1BAF1000F60
:1048800042D126E0BAF1000F13D0022001F040FA25
:1048900001F00EFA8DED020B9DED240B8DED000B5A
:1048A00010EE900A039961F31E0003909DED020B38
:1048B000AAE78DED02AB9DED240B1AEE901A10EED7
:1048C000900A8DED000B61F31E0003909DED020B2D
:1048D0009AE78DED028B9DED240B18EE901A10EEE9
:1048E000900A8DED000B61F31E0003909DED020B0D
:1048F0008AE709DA9DED240B51EC190B53EC102BD0
:10490000FBF734FE1EE020E09DED240B7CE78642A1
:104910001BDAB4F1804F0DD0A4F10050B0F1FF507C
:1049200013D1002D11DB9DED240B51EC100B03F086
:1049300021FF07E09DED240B53EC102B51EC100BE5
:1049400000F0C2BC41EC100B5EE79DED240B51EC76
:10495000100B02F077F9BAF1000FCDE90E0142D148
:104960009FED710B46B3A6F1E040B0F17F600CD033
:104970005E4538D1002D00DAA7B3022F0CBF01200D
:104980004FF0FF30FBF761FEDCE7002D01DD002C6E
:104990000DDA002D01DD002C1FDB002D16DA002CB6
:1049A00014DB012F08BF9FED620B3FF42DAFB0EE7B
:1049B0004A0AF0EE6A0A27E7022F18BF002D0CD032
:1049C000012F0AD1002DFFF61FAF06E0002DB8BF62
:1049D000002C08DA012F3FF417AFB0EE480AF0EED2
:1049E000680A11E71BE0012000EBE57050EA0701BF
:1049F00015D0791EB0EE498AF0EE698A084308BFE7
:104A00009FED4D8B4E480025804570DD4D494E4849
:104A1000884514DDB0420DDB002C19DB2FE00120AE
:104A200001F076F916B0BDEC0E8B04B0BDE8F04D88
:104A300001F02EB9B34502DC002C09DC1FE08642F0
:104A400002DA002C1BDA03E05E452BDD002C16DDBC
:104A5000022001F05DF901F02BF98DED020B53EC12
:104A60001A2B51EC180BFBF70FFDCDE90001039950
:104A7000019861F31E0003909DED020BC4E6022035
:104A800001F046F901F024F910EE901A18EE900AA0
:104A90008DED020B8DED008B61F31E0003909DEDFB
:104AA000020BB1E69DED0E0B53EC192B51EC100BE4
:104AB000FBF7E4FC9FED260BCDE9080153EC102B2E
:104AC0009DED080B51EC100BFBF7DEFC9FED221B5C
:104AD00053EC112BFBF7D5FC9DED081B53EC112B70
:104AE000FBF7D2FC9FED1E1B53EC112B3CE08CE03E
:104AF000FFFF1F00FFFF0F00000000000000F03F5D
:104B00000000F03F0000F07F0000404301FCFFFF89
:104B1000000000000000F07F000000000000000026
:104B2000E6550000000000000000000000000080CA
:104B3000000000000000F0FF000000000000F0BFD7
:104B40000000E0410000F043FFFFEF3F00000000E5
:104B5000000000000000D03F555555555555D53F34
:104B6000000000000000E03FFBF78BFC9DED080B10
:104B700041EC1A0B53EC102B51EC100BFBF784FC9F
:104B800053EC1A2BFBF780FC41EC1A0B9FEDFE0B4C
:104B900053EC102B9DED080B51EC100BFBF774FC44
:104BA00041EC1B0B9FEDFA0B51EC1A0B53EC102B45
:104BB000FBF76AFC41EC1A0B9FEDF70B53EC102B43
:104BC0009DED080B51EC100BFBF75EFC53EC1A2B20
:104BD000FBF754FC41EC1A0B51EC1B0B53EC1A2B5A
:104BE000FBF7ABFB0690CDE906519DED060B53ECB0
:104BF0001B2B51EC100BFBF741FC53EC1A2BFBF772
:104C000040FC41EC100B00F0A1B90020B6F5801F6C
:104C10000EDA9FEDE30B53EC102B9DED0E0B51ECD8
:104C2000100BFBF731FCCDE90E016FF034000E469E
:104C300000EB2650A0F2FF37C6F31300DA4940F02C
:104C40007F6646F040568842D8BF002408DDD74929
:104C50008142C8BF012403DC0024A6F580167F1C16
:104C6000D348784400EBC4000F9690ED00CB9DED47
:104C70000E0B53EC1C2B51EC100BFBF7FFFB9DEDC7
:104C80000E0B41EC1B0B53EC1C2B51EC100BFBF7E8
:104C900054FB41EC100B51EC190B53EC102BFBF7B0
:104CA00065FC41EC1D0B51EC1B0B53EC1D2BFBF772
:104CB000EBFB41EC1A0BBF488DED10AB784410951F
:104CC00090ED000B4FF0005040EA660000EB84408E
:104CD0008DED080B00F5002009909DED080B53ECBD
:104CE0001C2B51EC100BFBF7C9FB9DED0E1B53EC7D
:104CF000112BFBF7C6FB41EC100B53EC102B9DED79
:104D0000100B51EC100BFBF7BFFB9DED080B41ECBA
:104D10001C0B53EC102B9DED100B51EC100BFBF703
:104D2000B3FB53EC1B2BFBF7ACFB53EC1C2BFBF73F
:104D3000A5FB53EC1D2BFBF7A7FB41EC1C0B53EC25
:104D40001A2B51EC1A0BFBF79FFB41EC1B0B9A48FB
:104D50000621B0EE4B0AF0EE6B0A784400F058FEE4
:104D6000B0EE401AF0EE601AB0EE41DAF0EE61DA21
:104D700053EC1B2B51EC1B0BFBF786FB53EC1D2B51
:104D8000FBF782FB9DED100B41EC1B0B53EC1A2B38
:104D900051EC100BFBF7D1FA53EC1C2BFBF774FB17
:104DA00053EC1B2BFBF7C9FA9DED100B41EC1B0BD1
:104DB00053EC102B51EC100BFBF766FB41EC1D0B79
:104DC0009FED7FEB53EC1E2BFBF7B7FA53EC1B2B3D
:104DD000FBF7B3FA0890CDE908519DED080B53ECB1
:104DE0001E2B51EC100BFBF749FB53EC1D2BFBF773
:104DF00045FB53EC1B2BFBF744FB9DED080B41ECF3
:104E00001D0B53EC102B9DED100B51EC100BFBF711
:104E10003BFB41EC1B0B53EC1A2B51EC1D0BFBF72E
:104E200033FB9DED080B41EC1A0B53EC102B51ECAE
:104E30001C0BFBF729FB53EC1A2BFBF77EFA41EC1A
:104E40001A0B51EC1B0B53EC1A2BFBF776FA0C9058
:104E5000CDE90C519DED0C0B53EC1B2B51EC100BC1
:104E6000FBF70CFB53EC1A2BFBF70BFB41EC1B0B7A
:104E70009FED550B53EC102B9DED0C0B51EC100BD3
:104E8000FBF702FB41EC1A0B9FED510B51EC1B0B96
:104E900053EC102BFBF7F8FA41EC1B0B9FED4E0B7C
:104EA00053EC102B9DED0C0B51EC100BFBF7ECFAB7
:104EB00053EC1B2BFBF741FA41EC100B48487844AC
:104EC00000EBC40090ED001B51EC100B53EC112BC8
:104ED000FBF733FA41EC1B0B3846FBF7B6FBCDE989
:104EE000080153EC1B2B51EC1A0BFBF726FA41EC93
:104EF000100B3C48784400EBC40090ED00CB51EC23
:104F0000100B53EC1C2BFBF718FA9DED081B53EC10
:104F1000112BFBF712FA0690CDE906519DED080B17
:104F200053EC102B9DED060B51EC100BFBF7A6FA82
:104F300053EC1C2BFBF7A2FA53EC1A2BFBF79EFA4F
:104F400053EC1B2BFBF79DFA41EC100B9DED261B40
:104F500053EC102B8DED001B00959DED260B51ECB5
:104F6000100BFBF791FA9DED000B41EC1A0B53EC83
:104F7000102B9DED260B51EC100BFBF77FFA9DEDEE
:104F8000061B53EC112B2FE0000000604715F73F84
:104F9000FE822B654715F73F44DF5DF80BAE543EAC
:104FA00000000000000040438E9803007AB60B001A
:104FB00032510000905100006A50000000000000D3
:104FC0000000000000000840000000E009C7EE3FBC
:104FD000FD033ADC09C7EE3FF5015B14E02F3EBE4E
:104FE000F64E0000B04E0000FBF74EFA53EC1A2BC1
:104FF000FBF7A3F99DED060B41EC1A0B53EC102BBC
:105000009DED000B51EC100BFBF73EFACDE90C01C6
:105010009DED0C0B51EC1A0B53EC102BFBF78DF99B
:10502000CDE902010C46AA498C422FDB611A0843E4
:1050300018D19DED0C0B53EC102B9DED020B51EC98
:10504000100BFBF71BFA41EC1B0B9FEDA30B51EC74
:105050001A0B53EC102BFBF770F953EC1B2BFBF7DF
:1050600019FB2DD2022000F053FE00F021FE10EEBD
:10507000901A18EE900A8DED020B8DED008B61F306
:105080001E0003909DED020BFFF7BEBB944A24F077
:105090000041914214D39349214408437FF4EFAC7B
:1050A0009DED0C0B53EC102B9DED020B51EC100BF6
:1050B000FBF7E4F953EC1A2BFBF7ECFA7FF6DFACC5
:1050C00024F000408849894A002601EB20518242A1
:1050D0002BDA481C4FF4801121FA00F02044844A56
:1050E000C0F30A517A44A1F2FF3192ED000B814ADC
:1050F0008DED080BCA4020EA0202C0F3130040F411
:105100008010C1F1140120FA01F60992002CB8BFF9
:1051100076429DED080B53EC102B9DED0C0B51ECE2
:10512000100BFBF7ABF9CDE90C019DED0C0B51EC2D
:105130001A0B53EC102BFBF700F99FED6F0B089047
:10514000CDE9085153EC102B9DED080B51EC100BE1
:10515000FBF79AF941EC1B0B9FED690B53EC102BFD
:105160009DED080B51EC100BFBF78EF99DED0C0B30
:1051700041EC1C0B53EC102B9DED080B51EC100B6C
:10518000FBF77CF953EC1A2BFBF77BF99FED5E1BC9
:1051900053EC112BFBF778F953EC1C2BFBF7CDF8F4
:1051A00041EC1A0B51EC1B0B53EC1A2BFBF7C5F817
:1051B000CDE902019DED020B53EC1B2B51EC100BC2
:1051C000FBF75CF953EC1A2BFBF75BF99DED020B37
:1051D00041EC1A0B53EC102B51EC100BFBF754F96C
:1051E000CDE908014A489DED080B0521784400F0FF
:1051F0000FFC9DED081B51EC100B53EC112BFBF732
:1052000043F99DED021B53EC112BFBF73AF9CDE965
:1052100006019DED020B53EC1A2B51EC100BFBF722
:1052200033F953EC1A2BFBF788F89FED3B0B41EC5D
:105230001A0B53EC102B9DED060B51EC100BFBF7EA
:105240001DF99DED060B41EC1B0B53EC102B9DED56
:10525000020B51EC100BFBF717F953EC1B2BFBF770
:1052600085F953EC1A2BFBF709F99DED021B53EC62
:10527000112BFBF703F953EC192BFBF702F9CDE9DE
:10528000020101EB065001150029C8BF039015DC8F
:105290009DED020B324651EC100BFBF70AFBFFF7BA
:1052A000F1F8042808BF00F013FD32469DED020B13
:1052B00051EC100BFBF7FDFACDE902019DED020B5D
:1052C00051EC180B53EC102BFBF7DEF8FFF73ABB51
:1052D0000000904000000000FE822B654715973CBF
:1052E00000CC904000346F3F01FCFFFF0000E03F26
:1052F000684D0000FFFF0F0000000000432EE63F56
:10530000396CA80C615C20BEEF39FAFE422EE63FF4
:10531000084C0000000000000000000000000040F9
:1053200010B52F499FED2C1B2DED020B84B0059875
:1053300020F000408842DCBF00209DED040B32DDF0
:105340002849884209D1049840B94FF0010000F083
:10535000DFFC00F09DFC06B010BD05DB9DED040BED
:1053600000F082FC06B010BD68469DED040B00F015
:105370007BF810F0030011D0012818D09DED021B1E
:105380009DED000B02281AD000F08AFA51EC100BA8
:1053900081F0004106B041EC100B10BD9DED021BE9
:1053A0009DED000B012000F0AFFB06B010BD9DEDA0
:1053B000021B9DED000B00F073FA06B010BD01203A
:1053C00000F0A2FB51EC100B81F0004106B041EC63
:1053D000100B10BD000000000000000000000000E5
:1053E000FB21E93F0000F07F00B52DED048BB0EE0E
:1053F000409AF0EE609A83B051EC190BFBF770FA0B
:1054000041EC180B18EE100A18EE901A8DED008B77
:10541000002818BF0120084320F00040C0F17F6041
:1054200000F1E040C00F14D019EE101A19EE900AE6
:105430008DED009B002918BF0121084320F000409A
:10544000C0F17F6000F1E040C00F04BF012000F018
:105450005FFCB0EE480A03B0F0EE680ABDEC048BC6
:1054600000BD0000000000002DE9F14F04462DEDC5
:10547000020B2DED088B8AB09FEDE70B80ED020B40
:10548000139EE74826F0004585420ADC9DED120B8D
:10549000002084ED000B0AB0BDEC088B03B0BDE822
:1054A000F08FE0489FEDE0AB9FEDE1BBA84247DD08
:1054B000E14F9FEDE39B9FEDE48B9DED120B53ECD1
:1054C0001A2B51EC100B002E1CDDFAF7D7FF41EC24
:1054D000100BBD4208D053EC1B2B51EC100BFAF70C
:1054E000CDFFC4E900010BE053EC192B51EC100B7C
:1054F000FAF7C4FF53EC182BFAF7C0FFC4E9000118
:105500000120C8E7FAF719FF41EC100BBD4208D0A3
:1055100053EC1B2B51EC100BFAF70FFFC4E9000101
:105520000BE053EC192B51EC100BFAF706FF53EC80
:10553000182BFAF702FFC4E900014FF0FF30AAE789
:10554000C348A84279DB9DED120B51EC100B01F022
:1055500079FB41EC180B9FEDC00B53EC102BFAF7C5
:1055600093FF9FEDBF1B53EC112BFAF7E6FEFBF701
:1055700082FA0746FBF769F841EC190B53EC1A2B3A
:10558000FAF782FF53EC182BFAF77BFF41EC180B6C
:1055900053EC1B2B51EC190BFAF776FFDFF8C8A27E
:1055A00041EC100B4FEA15580125FA4453EC102B2F
:1055B00051EC180BFAF762FF032DC4E900013DD04E
:1055C000C1F30A5005EB4511A8EB000011398142E7
:1055D00034DA0AEB051BB0EE48AA9BED000BF0EEA7
:1055E00068AA53EC102B51EC190BFAF74DFF41EC64
:1055F0001B0B51EC1A0B53EC1B2BFAF73FFF41EC42
:10560000180B51EC1A0B53EC182BFAF737FF53EC2D
:105610001B2BFAF733FF9BED020B41EC1A0B53ECFB
:10562000102B51EC190BFAF72FFF53EC1A2BFAF74A
:1056300025FF41EC100B6D1CB8E70EE0002EA8BF53
:105640003846BFF628AF94ED000B51EC100B81F0FB
:105650000041C4E9000178421DE7C6F3130040F49D
:10566000801EC6F30A50A0F2F530471100F01F0566
:10567000C5F12000DDF848B00890002006900790A2
:105680000520EC467949002D07EB0002794408BF5C
:1056900051F8221009D051F8223001EB8201AB40C1
:1056A0004A68089922FA01F11943A1FB0E26A1FBD1
:1056B0000B131A449A4234BF0123002303EB06085C
:1056C0000CEB8003D3E901A60E448E4234BF0121C6
:1056D000002192448A4411B1924502D903E09245D7
:1056E00001D2012100E00021C3E901A641444CF8A8
:1056F0002010011EA0F10100C4DC029800F100504E
:10570000850F0298DDE903678000DDF81480FAF761
:105710009CFF41EC1A0B3046FBF7A0F99FED541BA0
:1057200053EC112BFAF7B0FE41EC1B0B3846FBF79C
:1057300095F99FED511B53EC112BFAF7A5FE41ECA7
:10574000180B4046FBF78AF99FED4D1B53EC112BCC
:10575000FAF79AFE41EC190B51EC180B53EC192B8C
:10576000FAF7EBFD53EC1B2BFAF7E7FD53EC1A2B82
:10577000FAF7E3FDCDE90801002008909DED080B44
:1057800053EC1A2B51EC100BFAF778FE53EC1B2B51
:10579000FAF774FE53EC182BFAF770FE53EC192B42
:1057A000FAF76FFE9FED381B53EC112BFAF76CFEE6
:1057B0009FED370B41EC180B53EC102B9DED080BB4
:1057C00051EC100BFAF760FE53EC182BFAF7B5FD0D
:1057D0009FED310B41EC180B53EC102B9DED080B9A
:1057E00051EC100BFAF750FE53EC182BFAF7A5FD0D
:1057F00041EC100B139810F0004F06D06D4251ECA5
:10580000100B81F0004141EC100B284684ED000B99
:1058100041E6000000000000000000000000000061
:10582000FB21E93F7CD9024000004054FB21F93FB5
:105830003163621A61B4D03DFB21F93F00000000E2
:105840000000601A61B4D03D7370032E8A19A33B27
:10585000FB2139410000000083C8C96D305FE43F7F
:10586000000000000000E03FAA480000F8470000E8
:10587000000000000000103E000000000000103C8E
:10588000000000000000103A182D4454FB21F93D9F
:105890003326A611460B113C00000054FB21F93DB4
:1058A00010B52DED040B2DED088B82B0B0EE419AB2
:1058B000F0EE619A0B9820F000449FED4BABB4F1F1
:1058C000795F11DA9DED0A0B51EC100BFBF7D3F861
:1058D000002801BFB0EE4A0AF0EE6A0A02B0BDEC41
:1058E000088B04BF04B010BD9DED0A0B53EC102BC8
:1058F00051EC100BFAF7C8FD41EC180B3C4806219F
:10590000B0EE480AF0EE680A784400F081F853ECF3
:10591000182B51EC100BFAF7B7FD9DED0A0B41EC7B
:105920001B0B53EC192B51EC100BFAF7ADFD41ECAE
:10593000190B53EC1B2B51EC180BFAF7A5FD53EC8C
:10594000192BFAF79BFD9FED2C0B41EC190B53EC37
:10595000102B51EC180BFAF797FD41EC100B28486F
:10596000844210DA53EC192B51EC100BFAF786FD38
:1059700053EC1A2BFAF785FD41EC100B02B0BDEC8D
:10598000088B04B010BD1F48A042BCBF9FED1E1B7A
:105990008DED001B06DBA4F50010019000200090A7
:1059A0009DED001B51EC100B53EC112BFAF766FD2B
:1059B0009DED000B41EC180B53EC102B51EC1A0B26
:1059C000FAF75CFD41EC1A0B53EC192B51EC180B58
:1059D000FAF754FD53EC1A2BFAF753FD41EC100B78
:1059E000CCE7000000000000000000000000F03FD5
:1059F0001445000000000000000000000000E03F2F
:105A00003333D33F0000E93F000000000000D23FE5
:105A100070B504462DED028B4D1E00EBC500B0EEB7
:105A2000408AF0EE608A90ED000B35F0060017D04A
:105A300053EC182B51EC100BFAF726FD41EC100B30
:105A40006D1E04EBC50090ED001B51EC100B53ECE8
:105A5000112BFAF772FC41EC100B35F00600E7D180
:105A6000022D36D0042D1CD0062D1CBFBDEC028BA0
:105A700070BD53EC182B51EC100BFAF705FD94EDAB
:105A80000A1B53EC112BFAF758FC53EC182BFAF7BE
:105A9000FBFC94ED081B53EC112BFAF74EFC41EC88
:105AA000100B53EC182B51EC100BFAF7EDFC94EDA6
:105AB000061B53EC112BFAF740FC53EC182BFAF7AA
:105AC000E3FC94ED040B53EC102BFAF736FC41EC9D
:105AD000100B53EC182B51EC100BFAF7D5FC94ED8E
