:020000040800F2
:10000000A04E00206D020008B72F00084321000811
:10001000B52F0008DD0B00085F3600080000000067
:10002000000000000000000000000000AD0100081A
:10003000010D000800000000090200081533000847
:10004000870200088702000887020008870200086C
:10005000870200088702000887020008870200085C
:10006000870200088702000887020008870200084C
:10007000870200088702000887020008870200083C
:1000800087020008870200088702000800000000BD
:1000900000000000000000000000000087020008CF
:1000A00087020008E533000887020008870200087D
:1000B00087020008870200088702000887020008FC
:1000C00087020008870200088702000887020008EC
:1000D000870200088702000887020008000000006D
:1000E000870200088702000887020008000000005D
:1000F000000000000000000000000000870200086F
:10010000000000008702000887020008870200083C
:1001100000000000000000000000000000000000DF
:10012000870200088702000887020008870200088B
:10013000870200080000000000000000000000002E
:10014000000000000000000000000000870200081E
:10015000870200088702000887020008870200085B
:10016000870200088702000800000000000000006D
:10017000000000000000000000000000000000007F
:1001800000000000870200080000000000000000DE
:1001900087020008DFF810D000F020FC004800477C
:1001A0005D500008AFF30080A04E00202C4B196872
:1001B0000868B0E8F04F80F30988BFF36F8F4FF005
:1001C000000080F3118870470000000008480068B4
:1001D000006880F308884FF0000080F3148862B64E
:1001E00061B6BFF34F8FBFF36F8F00DF00BF00BF5B
:1001F00008ED00E0DFF80C00016841F470010160D7
:10020000704700BF88ED00E0EFF30980BFF36F8F08
:10021000134B1A681EF0100F08BF20ED108A20E95A
:10022000F04F106009B44FF0500080F31188BFF315
:100230004F8FBFF36F8F05F095FF4FF0000080F3F5
:10024000118809BC19680868B0E8F04F1EF0100F5B
:1002500008BFB0EC108A80F30988BFF36F8F704736
:1002600034000020EFF30580704700000648804707
:1002700006480047FEE7FEE7FEE7FEE7FEE7FEE78B
:10028000FEE7FEE7FEE7FEE7D5330008950100082C
:100290002DE9F05F0546002092469B4688460646BB
:1002A000814640241BE0284641464746224600F04E
:1002B0009BF953465A46C01A914110D3114618462D
:1002C000224600F082F92D1A67EB01084F462246BC
:1002D0000120002100F079F917EB00094E41201EA2
:1002E000A4F10104DFDC484631462A464346BDE816
:1002F000F09F40EA01039B0703D009E008C9121FE1
:1003000008C0042AFAD203E011F8013B00F8013BCF
:10031000521EF9D27047D2B201E000F8012B491EFB
:10032000FBD270470022F6E710B513460A46044692
:100330001946FFF7F0FF204610BD2DE9FE4F80461D
:1003400081EA0300C00F0C46009021F0004123F029
:100350000045B8EB0200A94105D24046214690462F
:100360001C460B46024623F00040104347D0270DA1
:10037000C7F30A00C3F30A510290401A01904028C3
:100380006BDAC3F3130040F4801B0098924620B14F
:100390000023D2EB030A63EB0B0B01985946C0F123
:1003A0004002504600F011F906460D4650465946A7
:1003B000019A00F029F910EB08006141002487EA56
:1003C000115284EAE7731A4340D0009A62B3019A4B
:1003D000012A4FEA075215DC001B61EB02014FF0C6
:1003E000004202EA0752CDE90042001C41F58011AB
:1003F00032462B4600F060F903B0BDE8F08F40466E
:100400002146F9E7001B61EB0201001C41F5801356
:1004100000185B412018A2F5001747EB030140EAE2
:10042000D570B6196D4111E06D084FEA360645EA00
:10043000C0754FEA0752001B61EB0201001C41F539
:10044000801149084FEA30000019514132462B46CD
:1004500003B0BDE8F04F00F020B900980122400041
:100460000023D0EB020263EBE073009821464FEAD1
:10047000E074B8EB000061EB0401E9E783F00043AE
:100480005BE781F0004158E72DE9FE4F81EA030464
:1004900004F0004421F0004100944FF0000B23F0E1
:1004A000004350EA01045ED052EA03045BD0C3F378
:1004B0000A54C1F30A552C44A4F2F3340194A0FB6E
:1004C0000254C1F3130141F48011C3F3130343F445
:1004D000801301FB024400FB034E840A970A44EA9E
:1004E000815447EA8357A4FB076802958D0A05FBF0
:1004F00007854FEA932C04FB0C542705029D4FEA15
:10050000065847EA1637B5EB08056EEB070C870E61
:10051000920E47EA811742EA8312A7FB0201B6EB6B
:100520000B0164EB00042B0D43EA0C335E1844EB23
:100530001C50DA465146E7FB0201C5F313044FEAAB
:100540000B3343EA14534FEA0432019C43EA060397
:10055000A4F10C040294009CCDE900B400F0ACF8C6
:1005600003B0BDE8F08F00200146F9E700F000423B
:1005700030F000400AD0C10D01F56071C0F31600E3
:1005800042EA0151C208400711437047002001466A
:10059000704701F0004330B421F0004150EA0102FD
:1005A00006D00A0DA2F56072C1F31301002A02DC25
:1005B00030BC00207047440F44EAC104C100E01879
:1005C00030BC00EBC25000F031B8202A04DB203AE6
:1005D00000FA02F1002070479140C2F1200320FA96
:1005E00003F3194390407047202A04DB203A21FA94
:1005F00002F00021704721FA02F3D040C2F120023C
:100600009140084319467047202A06DBCB17203A51
:1006100041FA02F043EAE07306E041FA02F3D04007
:10062000C2F1200291400843194670470029A8BF33
:100630007047401C490008BF20F00100704710B40B
:10064000B0FA80FC00FA0CF050EA010404BF10BCC0
:10065000704749B1CCF1200421FA04F411FA0CF1ED
:1006600018BF012121430843A3EB0C01CB1D4FEA26
:1006700000614FEA102042BF002010BC704700EB21
:10068000C35010440029A4BF10BC7047401C49004F
:1006900008BF20F0010010BC704710B5141E73F1A4
:1006A000000408DA401C41F1000192185B411A4332
:1006B00001D120F0010010BD2DE9F04D92469B467E
:1006C00011B1B1FA81F202E0B0FA80F22032904624
:1006D000FFF77BFF04460F4640EA0A0041EA0B01A0
:1006E00053465A46084313D0114653EA010019D025
:1006F000C8F140025046FFF777FF05460E465046C8
:1007000059464246FFF761FF084305D0012004E047
:1007100020463946BDE8F08D0020054346EAE076E4
:100720002C4337430A986305E40AA0EB0800002233
:10073000FD0A44EA47540A3002D500200146E9E7A1
:10074000010510196941DDE9084500196941BDE855
:10075000F04DA2E72DE9F04D81EA030404F0004BCF
:1007600021F0004514464FF0000A23F0004150EA02
:10077000050220D054EA01021DD0C5F30A570246F3
:10078000C5F31303C1F31300C1F30A5640F48015F7
:1007900043F48013A7EB0608101BD64608F2FD3879
:1007A00073EB050002D308F1010801E092185B41E8
:1007B000B8F1000F03DA00200146BDE8F08D0020FB
:1007C0004FF48011064684460EE0171B73EB0507B5
:1007D00005D3121B63EB050306434CEA010C4908E1
:1007E0004FEA300092185B4150EA0107EDD152EA1E
:1007F000030012D082EA040083EA0501084305D011
:10080000101BAB4106D20122002306E000224FF06C
:10081000004302E06FF0010253101AEB06004CEBAC
:10082000085110EB0A0041EB0B01BDE8F04DFFF75A
:1008300034BF70B521F0004303430CD0C1F30A5517
:100840000024D5EB040564EB0403D617AD1AB341BD
:1008500002DB0020014670BD201841EB025170BD43
:100860002DE9F04D00231A461B1A8A4103DB0020B4
:100870000146BDE8F08DC1F30A52C1F3130141F402
:1008800080154FF0000BD10702D100186D41521EA8
:100890000027044640F2FF11384601EB620A3E464B
:1008A0008046024600204FF48011FFF79DFEC219DA
:1008B0007141BB1846EB0100B4EB030C75EB000C67
:1008C00004D3E41A65EB000517460E46241908F117
:1008D00001006D4180463428E3DDF91946EB06003E
:1008E000091BA84103D24FF0FF32134601E000225A
:1008F00013461BEB070046EB0A51BDE8F04DFFF72E
:10090000CCBE2DE9FE4FC3F30A5701F00045002489
:10091000C1F30A56C3F31303C1F3130143F4801365
:1009200012EB020AA64641F48011009543EB030C3A
:10093000A7F1010B16E0B0EB0A0061EB0C01071EFA
:1009400071F1000707DA4FF00008D0EB080085F0DE
:10095000004568EB0101171A73EB0107EBD3761E14
:10096000001849415E45F6DA50EA010209D0CDE9A6
:1009700000E5002213460296FFF79EFE03B0BDE895
:10098000F08F20460099F9E70EB5C10F80EAE070BC
:100990000844CA07002140F233438DE80E000A469E
:1009A0000B46FFF789FE03B000BD000030B5041E02
:1009B00071F1000404DB4FF00044404264EB01019C
:1009C000141E73F1000405DB1C464FF00043524235
:1009D00063EB0403994208BF904230BD064C074DBB
:1009E00006E0E06840F0010394E8070098471034FF
:1009F000AC42F6D3FFF7D2FB68A1000888A100083B
:100A00000EB540F2334102910021CDE900110A46B2
:100A10000B46FFF751FE03B000BD70B5C1F30A529B
:100A200001F000450024C1F3130140F2FF3341F40B
:100A300080119A4201DA002070BD40F233439A429D
:100A4000A2F2334203DC5242FFF7CEFD00E09040B9
:100A50002C43F1D0404270BD70B58C1810F8015B8A
:100A600015F0070301D110F8013B2A1106D110F847
:100A7000012B03E010F8016B01F8016B5B1EF9D14B
:100A80002B0705D40023521E0DD401F8013BFAE7D1
:100A900010F8013BCB1A921C03E013F8015B01F83C
:100AA000015B521EF9D5A142D8D3002070BD08B514
:100AB00005F0C4FE00900221684605F029FAFAE725
:100AC0007CB505F027F928480324CDE900404FF410
:100AD000007500232A4625A1274805F049FE012874
:100AE00022D121480023001DCDE900402A4623A140
:100AF000254805F03DFE012816D11B49022008318A
:100B0000CDE9000100232A4620A1244805F030FE4B
:100B1000012809D11448224B0C30CDE900402A4667
:100B200020A1234805F024FE0F4905201031CDE90E
:100B3000000100232A461FA1234805F019FE0A4997
:100B400004201431CDE9000100232A461FA12248C8
:100B500005F00EFE0448001F006A05F01FFABDE80C
:100B60007C4005F0F7B80000040000204C45445FCD
:100B70005461736B00000000D52C00084B45595F91
:100B80005461736B000000008524000850574D5FCE
:100B90004445544543545F5461736B00E131000890
:100BA000C84800204C43445F5461736B0000000050
:100BB000FD2B00084F70656E6C6F6F705F464F4382
:100BC0005F5461736B000000B92F00084153353644
:100BD00030305F5461736B00AF0A0008FEE7016AB2
:100BE00081ED000A016AC1ED010A016A81ED021A74
:100BF000006AC0ED031A7047C16981ED000AC1693E
:100C0000C1ED010AC16981ED021AC069C0ED031A84
:100C100070470000024981ED060AC06902F050BA2F
:100C2000C848002010B50446006904F0EBF9D4ED83
:100C3000030A6069F8EEE00A20EE800A02F078F814
:100C4000014880ED050A10BDC848002010B50446D3
:100C50002DED028BD0ED030AF8EEE00A60EE808AFB
:100C600004F034F9B0EE408A2046FFF7DBFF38EE9F
:100C7000C00ADFED0A0A9FED0A1A204660EE200A3C
:100C800080EE810AFFF7C6FFF0EE480ABDEC028B4A
:100C90002046BDE8104004F0CBBE00000000344305
:100CA000DB0F494070B505462DED028BB0EE080A0A
:100CB0009FED0F8AF0EE480A04F0BAFE40F2DC50D5
:100CC00005F000F9284604F001F90A4CF0EE480A54
:100CD000284684ED060A9FED080A04F0A9FE07489D
:100CE00094ED060A80ED030ABDEC028B70BD000096
:100CF000E4CB9640B400002000000000C84800206B
:100D0000704772B6FEE700002DE9F041334FF0EE78
:100D1000C01A2DED028BB0EE608ADDE90965DDF8C1
:100D200020C0017097ED011A0446F4EEC11AF1EEED
:100D300010FA01DBB0EE410A84ED010AC4E9022396
:100D4000274A01EB410002EB0010264B01EB810228
:100D500003EB8203A361244B03EB8202C4E9040288
:100D600001EB410303EBC102204B03EB8203E36180
:100D70001F4B03EB82022262624602F037FAB0EEAA
:100D8000480AA06901F0C8FFB0EE480A606901F0A6
:100D9000C3FF94ED010AB6EE008A20EE082A86ED24
:100DA000042AE06996EC040A02F078F994ED010A4D
:100DB00020EE082A85ED042A206A95EC040A02F048
:100DC0006DF904F1240000F015F82046FFF76AFFE2
:100DD00001203870BDEC028BBDE8F081B40000202A
:100DE0003C490020C44900209C490020EC490020D7
:100DF000444A002010B5044605F020FD20606060E4
:100E000010BD10B5044600F00AF82168814202D9ED
:100E1000C943014400E0411A2060084610BD10B5E6
:100E2000044605F00BFD606010BD00002DE9F84F91
:100E3000DFF8B8A10022012403254FF00F090AF1C1
:100E4000040BAAF1040E00BF0B6804FA02F633404B
:100E5000B34273D10F7907F00307012F01D0022F9E
:100E600016D187684FEA420805FA08FC27EA0C0702
:100E7000D1F80CC00CFA08FC4CEA070CC0F808C00A
:100E80004768B7430E79C6F3001696403E43466066
:100E90000E79F643B6070DD0C768560005FA06FC72
:100EA00027EA0C07D1F808C00CFA06FC4CEA070C3C
:100EB000C0F80CC00E7906F00306022E10D1D60839
:100EC00000EB8608D8F8206057074FEAD76C09FA7C
:100ED0000CF7BE430F6907FA0CF73743C8F82070C8
:100EE00006684FEA420C05FA0CF7BE430F7907F08B
:100EF000030707FA0CF7374307604E6816F4403FC4
:100F00006DD03B4E376847F480473760366822F033
:100F1000030706F480460096364E07EB060CDCF815
:100F2000086897073F0F09FA07F826EA0806DFF86E
:100F3000C880404503D14FF000081EE04FE0DFF8C5
:100F4000BC80404502D14FF0010816E0DFF8B080C8
:100F5000404502D14FF002080FE0DFF8A88040457D
:100F600002D14FF0030808E0DFF89C80404502D131
:100F70004FF0040801E04FF0070808FA07F848EAC4
:100F80000608CCF80888DAF800605746D1F804C0A3
:100F90009E435FEACC2C00D51E433E60DBF8006028
:100FA0005F46D1F804C09E435FEA8C2C00D51E43F7
:100FB0003E60DEF800607746D1F804C09E435FEAE9
:100FC0008C3C00D51E433E60084F083F3E68D1F878
:100FD00004C09E435FEACC3C00D51E433E60521CD9
:100FE000102AFFF431AFBDE8F88F0000083C014043
:100FF000443802400030014000000240000402403A
:1010000000080240000C0240001002400069084045
:1010100000D0012070470AB1816170470904FBE7E5
:1010200001488068704700002400002070B504006B
:1010300025D094F83D00002520B984F83C50204686
:1010400000F0BAF9242084F83D002068016821F0FE
:10105000010101602068016841F4004101602068DD
:10106000016821F40041016000F06EFB4D4A6168A7
:10107000914201D84C4900E04C49884201D20120FC
:1010800070BD4B492368B0FBF1F15E6826F03F0666
:101090000E435E606368934206D94FF496735943DA
:1010A0004FF47A73B1FBF3F12368491C1E6A26F0F2
:1010B0003F06314319626168914210D84900401ED1
:1010C000B0FBF1F2521CC2F30B02042A01D204203D
:1010D00022E0B0FBF1F0401CC0F30B001CE0A26862
:1010E000F2B301EBC10303EB0116431EB3FBF6F3AE
:1010F0005B1C43F480431B0549D092B301EBC10252
:1011000002EB0111401EB0FBF1F0401CC0F30B00DC
:1011100040F4804040F400402168CA694CF6FF73F7
:101120009A431043C861D4E907100143206802685C
:1011300022F0C00211430160D4E903010143206899
:10114000826848F2FF339A4311438160D4E9050174
:1011500008432168CA6822F0FF021043C86001E01A
:101160000EE016E02068016841F00101016025648D
:10117000202084F83D00256384F83E50002070BD97
:1011800001EB4106431EB3FBF6F35B1CB3E7012002
:10119000C2E701EB4101401EB0FBF1F0401CC0F37F
:1011A0000B00B7E7A086010080841E0000093D0007
:1011B00040420F002DE9FF4F83B09A46DDE91187C9
:1011C00093460446DDF84090FFF72AFF054694F861
:1011D0003D00202870D11923012274492046009532
:1011E00001F046F80028F5D194F83C00012863D0BE
:1011F000012084F83C0020680168C90703D1016818
:1012000041F0010101602068016821F40061016082
:10121000222084F83D00402084F83E000026266409
:10122000C4F82490A4F82A80608D20856048E0628C
:10123000CDE9007553465A462046049900F09AFFBE
:10124000002879D1208DD0B1012821D00228206832
:1012500024D0416980690090208D032866D8012838
:101260002BD0544902283B464FF00002009557D03E
:101270008846204600F0FCFF00285DD13AE0206857
:10128000416981690091016841F4007101607DE06C
:101290002068016821F480610160F0E7016821F4B1
:1012A000806101602068016841F40061016020688C
:1012B00041698069009069E075E02A463946204618
:1012C00001F07CF888BB54E02068016841F40071AB
:1012D000016020680069616A0870606A401C606291
:1012E000218D491E2185618D491E6185216809690D
:1012F000017042E02068016821F48061016020688B
:101300000069616A0870606A401C6062208D401E3E
:101310002085608D401E60853B4600224146009539
:10132000204600F0A5FF00B9CEE705E02A46394681
:10133000204601F043F818B1012007B0BDE8F08F56
:1013400020680069616A0870606A401C6062208DD4
:10135000401E81B22185608D401E608520684269F3
:10136000D243520712D4032903D1016821F48061CA
:10137000016020680069616A0870606A401C6062F0
:10138000208D401E2085608D401E6085208D0028A8
:101390007FF462AF202084F83D0084F83E6084F83A
:1013A0003C600020C9E70220C7E7000002001000EF
:1013B0000000FFFF0400010070B586B00446142150
:1013C0006846FEF7AFFF1D492068884234D11C48AB
:1013D0000024016841F001010160016801F0010190
:1013E0000591016841F0020101600068122500F0DA
:1013F000020005904FF48070CDE9000503260294A9
:101400000420CDE9036069460E48FFF70FFD102068
:10141000CDE9000502940920CDE9036069460A4838
:10142000FFF704FD06481030016841F40001016037
:10143000006800F40000059006B070BD005C00403C
:101440003038024000000240000402400248816837
:101450000278114481607047240000200B4810B5C9
:10146000016841F400710160016841F4806101602C
:10147000016841F480710160032000F099F80F20A9
:1014800000F006F800F04AF8002010BD003C0240D1
:1014900030B505461C4887B00024016841F00101C1
:1014A0000160006806A900F00100009001A800F0AA
:1014B0002BF900F059F91549154AB0FBF1F115481F
:1014C000491E026040F2E732C0E90324C0E901147A
:1014D000846100F081FB040012D10E4800F0BEFBD5
:1014E00004000DD1192000F035F8102D07D200228C
:1014F0002946192000F03CF80748056000E0012467
:1015000007B0204630BD00004438024040420F0082
:1015100000000140CC010020280000200C4882B0CF
:10152000016841F480410160006800F4804000904F
:101530000748001F016841F08051016000680022E7
:1015400000F0805000900F21901E02B000F010B803
:1015500044380240002809DB00F01F0201219140BD
:101560004009800000F1E020C0F800117047000041
:10157000F0B40E4B1B680C46C3F30223C3F10705FE
:10158000042D00D90425191D072901D2002300E0EC
:10159000DB1E012606FA05F1491E214099409E40B6
:1015A000761E16403143F0BC02F072B80CED00E03C
:1015B000064900F0070208684FF6FF03184040EAAA
:1015C0000220034A10430860704700000CED00E061
:1015D0000000FA052DE9F0470E46050065D0DFF85A
:1015E0001481D8F80000F7B200F00700B04207D22B
:1015F00088F80070D8F8000000F00700B04254D11D
:1016000028683D4C810712D5400703D5206840F477
:10161000E05020602878000703D5206840F460403F
:1016200020602068A96820F0F00008432060287836
:10163000C0072DD0304968680839012812D0022827
:1016400013D0032811D00968890700292DDA2168F1
:1016500021F0030101432160FFF7E2FC814641F2E2
:10166000883A0EE009688903EFE709688901ECE729
:10167000FFF7D6FCA0EB0901514502D90320BDE8D4
:10168000F0872068696800F00C00B0EB810FEFD1A3
:10169000D8F80010404601F00701B14207D90770A1
:1016A000006800F00700B04201D00120E7E7287889
:1016B000400705D52068E96820F4E0500843206021
:1016C0002878000706D52068296920F4604040EAA0
:1016D000C100206000F058F82168084AC1F30311E6
:1016E000515CC8400649086006480068FFF7D0FE14
:1016F0000020C4E7003C024008380240A86B000804
:1017000030000020280000200F2202600C4A1368DD
:1017100003F003034360136803F0F003836013686E
:1017200003F4E053C36012684FF4E05303EAD202BB
:1017300002610448006800F007000860704700007C
:1017400008380240003C0240044805490068096826
:10175000044AC1F38221515CC84070473000002028
:1017600008380240B86B0008044805490068096859
:10177000044AC1F34231515CC84070473000002038
:1017800008380240B86B0008154810B5006810F022
:101790000C02144813D01449042A0FD0082A0ED181
:1017A0000F4C241F2268236802F03F025B0207D51A
:1017B0002068C0F38810A0FB010106E0084610BDB8
:1017C0002168C1F38811A1FB00010023FEF760FD31
:1017D0002168C1F30141491C4900B0FBF1F010BD83
:1017E000083802400024F40040787D012DE9F84FCC
:1017F00004006ED02078DFF84C93C007A9F10405EF
:101800004AD009F104000168C1F38101012908D01F
:101810000068C0F3810002280AD1D9F80000400214
:1018200006D52868800337D560680028E1D033E00A
:101830006068B0F5803F10D0B0F5A02F286810D0B8
:1018400020F480302860286820F4802028606068B8
:10185000A8B1FFF7E5FB06460DE0286840F48030AC
:10186000F4E740F480202860F7E700BFFFF7D8FBDB
:10187000801B642873D828688003F7D50CE0FFF735
:10188000CFFB064605E000BFFFF7CAFB801B6428BC
:10189000F0D828688003F7D42078DFF8AC8280077E
:1018A0004FF0000A3ED5A748001D016811F00C0F4B
:1018B00008D00068C0F3810002280BD1D9F80000DD
:1018C000400207D42868800716D5E068012800D1B7
:1018D00012E033E1E068B8B10120C8F80000FFF77A
:1018E0009FFB064605E000BFFFF79AFB801B02281E
:1018F000C0D828688007F7D52868216920F0F8004B
:1019000040EAC10028600DE0C8F800A0FFF788FB9E
:10191000064604E0FFF784FB801B02281FD82868D6
:101920008007F7D42078000722D5864F8748616961
:10193000703771B101210160FFF772FB064604E0C8
:10194000FFF76EFB801B022809D838688007F7D59F
:101950000EE0C0F800A0FFF763FB064605E082E05A
:10196000FFF75EFB801B02287DD838688007F7D41C
:101970002078400768D5DFF8CCB100270BF13C0B8D
:10198000DBF80000C0000BD4DBF8001041F0805100
:10199000CBF80010DBF80000012700F08050009029
:1019A0006B4E3068C00510D4306840F480703060F1
:1019B000FFF736FB009005E0FFF732FB0099401A75
:1019C000022850D83068C005F6D55E4EA0686C3647
:1019D00001280FD00528306810D020F001003060B9
:1019E000306820F004003060A068B8B1FFF718FB41
:1019F00000900FE0306840F00100F4E740F0040090
:101A00003060F7E7FFF70CFB0099411A41F288308C
:101A1000814266D830688007F4D50EE0FFF700FBFE
:101A2000009007E0FFF7FCFA0099411A41F2883074
:101A3000814256D830688007F4D42FB1DBF800100B
:101A400021F08051CBF80010A069C8B33D49091DB1
:101A50000968C1F3810102294AD00228504607D003
:101A6000C8F8600000E03CE0FFF7DAFA04463BE02B
:101A70004746C8F86000FFF7D3FA064605E000BF06
:101A8000FFF7CEFA801B02282BD828688001F7D4F4
:101A9000D4E907010843A16A2E4A490802EB014133
:101AA000626A41EA8211084394F82C1040EA01610D
:101AB000C9F8001001203866FFF7B2FA044606E0C4
:101AC0003EE000BFFFF7ACFA001B022809D82868E7
:101AD0008001F7D534E000BFFFF7A2FA001B02280F
:101AE00002D90320BDE8F88F28688001F4D427E0EC
:101AF0000128F7D0D9F80000E26900F48001914292
:101B00001CD1226A00F03F01914217D147F6C07103
:101B1000626A0140B1EB821F10D1A26A4FF0FF331D
:101B200000F4403103EB5202B1EB024F06D194F8BE
:101B30002C1000F07060B0EB016F01D00120D1E7F4
:101B40000020CFE70438024000004742800E4742A1
:101B5000007000400000FFFF7047704770B590F8BC
:101B60003C20012A2CD0012480F83C40022280F83D
:101B70003D2003685A689D6822F070060A68324367
:101B80005A60104B02689A420ED0B2F1804F0BD0CF
:101B90000D4B9A4208D00D4B9A4205D00C4B9A42FD
:101BA00002D00C4B9A4204D1496825F080031943B6
:101BB000916080F83D40002180F83C10084670BDDF
:101BC000022070BD000001400004004000080040F9
:101BD000000C00400040014010B5040003D094F810
:101BE0003D0010B107E0012010BD002084F83C004A
:101BF000204600F01FF8022084F83D00211D2068D7
:101C000001F0F6FB012084F8460084F83E0084F8D9
:101C10003F0084F8400084F8410084F8420084F8D2
:101C2000430084F8440084F8450084F83D00002017
:101C300010BD000008B500680649884208D1064872
:101C4000016841F002010160006800F002000090AC
:101C500008BD0000000400404038024090F83D10EC
:101C6000012901D001207047022180F83D10016850
:101C7000CA6842F00102CA6000680E4988420ED06C
:101C8000B0F1804F0BD00C49884208D00B498842F4
:101C900005D00B49884202D00A49884204D18168A4
:101CA00001F00701062903D0016841F0010101603C
:101CB0000020704700000140000400400008004080
:101CC000000C00400040014070B5044690F83C0014
:101CD0000025012817D0012684F83C60022084F8F2
:101CE0003D002068826822F0770222F47F42826001
:101CF0000868502838D00DDC20284FD005DC90B380
:101D0000102811D14AE0022070BD302846D040286A
:101D10000AD13BE060282FD070280DD0B0F5805F4D
:101D200003D0B0F5005F12D0012584F83D6000209B
:101D300084F83C00284670BDCB68D1E901212068B9
:101D400001F0B5FB2068816841F0770109E0CB68BC
:101D5000D1E90121206801F0AAFB2068816841F4E3
:101D600080418160E1E719E0CA684968206801F0B4
:101D700053FC5021206806E0CA684968206801F0D9
:101D80005CFC6021206801F09CFBCEE7CA684968D2
:101D9000206801F041FC40212068F4E722680146F8
:101DA0001046F0E770472DE9F04104460068C66828
:101DB00005694FF00007A90713D5B10711D5F91E22
:101DC000016101202077206880698007204602D0C9
:101DD000FFF7E8FF04E000F0BBF8204600F04DF903
:101DE0002777680716D5700714D521686FF00400AF
:101DF0000861022020772068806910F4407F204627
:101E000002D0FFF7CFFF04E000F0A2F8204600F078
:101E100034F92777280715D5300713D521686FF0D7
:101E200008000861042020772068C06980072046E8
:101E300002D0FFF7B7FF04E000F08AF8204600F078
:101E40001CF92777E80616D5F00614D521686FF03F
:101E500010000861082020772068C06910F4407FD6
:101E6000204602D0FFF79EFF04E000F071F8204604
:101E700000F003F92777E80708D0F00706D02168BB
:101E80006FF001000861204600F050F9280608D5DF
:101E9000300606D521686FF0800008612046FFF704
:101EA0005BFE680608D5700606D521686FF0400015
:101EB0000861204600F044F9A8060AD5B00608D506
:101EC00021686FF0200008612046BDE8F041FFF76F
:101ED00044BEBDE8F081000030B587B0044614214F
:101EE0006846FEF71FFA16492068884226D1154831
:101EF0000024016841F001010160016801F0010165
:101F00000591016841F0020101600068022500F0BE
:101F100002000590C0200090CDE9015469460A48AE
:101F2000CDE90345FEF782FF03200090CDE901547F
:101F300069460648CDE90345FEF778FF07B030BD96
:101F4000000400403038024000000240000402401B
:101F5000704770B5044690F83C0000260D460128F5
:101F60000FD0012084F83C006AB1042A1DD0082A51
:101F70002FD00C2A3FD00126002084F83C003046A8
:101F800070BD022070BD206801F0A4FA206881694C
:101F900041F0080181612068816921F004018161BB
:101FA000206881692A69114311E0206801F0BAFABA
:101FB0002068816941F4006181612068816921F4B0
:101FC00080618161206881692A6941EA0221816119
:101FD000D2E7206801F0D2FA2068C16941F0080117
:101FE000C1612068C16921F00401C1612068C16933
:101FF0002A69114311E0206801F0ECFA2068C169F8
:1020000041F40061C1612068C16921F48061C1614E
:102010002068C1692A6941EA0221C161ACE710B5B3
:10202000040003D094F83D0010B107E0012010BD7A
:10203000002084F83C00204600F01EF8022084F8BE
:102040003D00211D206801F0D3F9012084F84600ED
:1020500084F83E0084F83F0084F8400084F8410092
:1020600084F8420084F8430084F8440084F8450072
:1020700084F83D00002010BD7047704710B504463D
:10208000022249B104290ED0082913D094F8410046
:10209000012816D0012010BD94F83E000128F9D186
:1020A00084F83E200FE094F83F000128F2D184F834
:1020B0003F2008E094F840000128EBD184F840204C
:1020C00001E084F841200122206801F0E3F912497F
:1020D0002068884203D1426C42F400424264206886
:1020E00088420ED0B0F1804F0BD00C49884208D006
:1020F0000B49884205D00B49884202D00A498842E0
:1021000004D1816801F00701062903D0016841F07C
:1021100001010160002010BD0000014000040040EA
:1021200000080040000C00400040014000680349E6
:10213000884201D1FFF78AB97047000000000140D2
:102140007047FEE701684A69D24352050FD46FF425
:1021500080624A61002140F8301F2022427381735F
:10216000026942F0040202610173012070470020FD
:10217000704700002DE9F84F0446006889460B9D22
:1021800001689846174641F4806101602068016843
:1021900041F48071016000954FF0011B0022594607
:1021A00020460A9B00F064F84FF4007A40B12068A2
:1021B0000068C00501D5C4F840A00320BDE8F88F31
:1021C000216809F0FE0008612B46284920460A9A3A
:1021D00000F096F8F0BB20684169806900902A46BB
:1021E00020460A9900F022F940B1206C04283AD127
:1021F0002068016841F40071016034E0FEB2B8F17A
:10220000010F09D02168380A08612A4620460A9938
:1022100000F00CF90028E8D1206806612A46204623
:102220000A9900F003F90028DFD12068016841F421
:102230008071016000950022594620460A9B00F0FB
:1022400017F80028B3D1216809F0FF0040F0010021
:10225000086100E007E02B46044920460A9A00F096
:102260004FF80028AAD00120A8E7000002000100D2
:102270002DE9F047984617460D460446C1F3074638
:10228000DDF820902AE000BFB8F1FF3F26D0FEF72E
:10229000C7FEA0EB0901414502D8B8F1000F1DD1DE
:1022A0002068012E16D0806925EA00000004000C89
:1022B00012D00020B84211D1002044F8300F202164
:1022C0006173A073216941F0200121612073012015
:1022D000BDE8F0874069E7E70120EBE72068012EC1
:1022E0000AD0806925EA00000004000C06D0002016
:1022F000B842C9D00020EBE74069F3E70120F7E7D7
:102300002DE9F047984616460D4604464FF0000961
:102310004FF0200AC1F3074723E020684069C0431B
:10232000400515D42068016841F4007101602168FE
:102330006FF480604861C4F8309084F83DA084F860
:102340003E90216C41F00401216484F83C9021E02E
:10235000701C06D0FEF764FEA0EB0800B04203D864
:1023600016B1012F1FD021E02068012F15D0806900
:1023700025EA00000004000C18D000BF44F8309F8C
:1023800084F80DA084F80E90216941F020012161AC
:1023900084F80C900120BDE8F087406925EA000030
:1023A0000004000CEAD12068406901E020688069DF
:1023B00025EA00000004000CAFD1ECE72DE9F04164
:1023C000002590460E460446202728E04069C04379
:1023D000C0060CD454F8301B6FF01000486144F86C
:1023E00010596777A577206A2062257714E0FEF7F9
:1023F00017FEA0EB0800B04200D886B920684069FB
:10240000C04340060BD544F8305F6773A57320695D
:1024100040F02000206125730120BDE8F081206894
:102420004169C9434906D1D40020F6E770B5164684
:102430000D4604461EE02046FFF784FE08B1012049
:1024400070BD681C16D0FEF7EBFD801BA84200D8BB
:1024500085B920684069C04300060BD5002044F8C8
:10246000300F20216173A073216941F020012161A7
:102470002073E4E720684069C0430006DBD40020F5
:1024800070BD00001A4D1B4C6FF004060121284658
:10249000FEF7BCFD0028F9D10A2003F013FD01214D
:1024A0002846FEF7B3FD50B96078012807D0012017
:1024B000607020780028E06908D0401EE0610121AA
:1024C0002846FEF7A3FD012802D003E0401CF5E7F3
:1024D00000206070E069052802DB0520E06102E071
:1024E000B042D3DCE6612078C0432070CEE7000024
:1024F00000000240000000202DE9F04104461D4686
:1025000016460F462A2000F0ABFB204600F09EFB4B
:10251000304600F09BFB2B2000F0A2FB384600F079
:1025200095FB284600F092FBBDE8F0412C2000F01E
:1025300097BB10B514460B460246FFF7DDFF204659
:10254000BDE8104000F082BB2DE9F04780461F46F1
:10255000581E83B21646501E82B20C464046DDF825
:102560002090FFF7C9FF0AE0454604E0484600F026
:102570006DFB6D1CADB2B542F8D3641CA4B2BC4275
:10258000F2D3BDE8F087000038B56C4C0022802102
:102590002046FEF740FD142003F094FC0122802128
:1025A0002046FEF738FD142003F08CFC0122202188
:1025B0002046FEF730FD142003F084FC112000F0CB
:1025C0004FFB642003F07EFC362000F049FB002026
:1025D00000F05AFB3A2000F043FB052000F054FBCA
:1025E000B22000F03DFB0C2000F04EFB0C2000F070
:1025F0004BFB002000F048FB332000F045FB33206C
:1026000000F042FBB72000F02BFB352000F03CFB34
:10261000BB2000F025FB322000F036FBC22000F08A
:102620001FFB012000F030FBC32000F019FB152038
:1026300000F02AFBC42000F013FB202000F024FB54
:10264000C62000F00DFB0F2000F01EFBD02000F094
:1026500007FBA42000F018FBA12000F015FBE020F0
:1026600000F0FEFAD02000F00FFB082000F00CFB79
:102670000E2000F009FB092000F006FB092000F005
:1026800003FB052000F000FB312000F0FDFA3320B1
:1026900000F0FAFA482000F0F7FA172000F0F4FAF8
:1026A000142000F0F1FA152000F0EEFA312000F0CD
:1026B000EBFA342000F0E8FAE12000F0D1FAD02063
:1026C00000F0E2FA082000F0DFFA0E2000F0DCFA59
:1026D000092000F0D9FA092000F0D6FA152000F000
:1026E000D3FA312000F0D0FA332000F0CDFA4820A0
:1026F00000F0CAFA172000F0C7FA142000F0C4FA5C
:10270000152000F0C1FA312000F0BEFA342000F0AC
:10271000BBFA212000F0A4FA292000F0A1FA4FF61C
:10272000FF70F023002100901A460846FFF70CFFC7
:102730000349012008700349087038BD00040240B5
:10274000B1000020B00000202DE9FF4F81B0044609
:10275000DDF83C9000904FEA59074FF000087807E9
:1027600000D0012000EBD70000FB09FB203AD0B2DB
:102770000390029802994844401E83B2E019401E1B
:1027800082B22046FFF7B8FE002553E0B9F10C0FE6
:102790002AD0B9F1100F2ED0B9F1180F2ED0B9F1FF
:1027A000200F49D12749039801EB8010002610F82B
:1027B00005A0109800284FF0010000FA06F000EA8A
:1027C0000A0022D020B12046049A0299FFF7B1FEF8
:1027D000641C0098A4B2201AB84225D10298009C2B
:1027E000401C80B2029023E00398174900EB4000A0
:1027F00001EB8000DAE71549039803E003981449D8
:1028000000EB400001EB0010D0E708B1049800E0B5
:102810000E9800F01BFA08F10100C0B2B0FBF7F10E
:10282000804607FB118050B1761CF6B2082EC0D34B
:102830006D1CADB25D45A9D305B0BDE8F08F4FF07A
:102840000008F5E7F4870008C06B00083470000842
:10285000247600082DE9FF4F15462DED020B0446A6
:102860004FF0000A2DED028B85B0B0EE408ADDE915
:102870001686B5EEC08A7708F1EE10FA05DB414600
:102880008DE8420420220C9B06E041468DE842047C
:102890000C9BB1EE488A2D2220460A99FFF754FF7F
:1028A0009FED230AE0191FFA80F928EE000A0024A0
:1028B000BCEEC00A10EE100A80B2039030E0281B74
:1028C000401EC1B20A2002F0EFFB0399B1FBF0F009
:1028D0000A21B0FBF1F201FB120BA81E84420FD1BA
:1028E000CDE9008600FB0790CDF808A080B22E222B
:1028F0000C9B0A99FFF728FF641C6D1CE4B2EDB233
:102900000BF13000C2B2CDE9008604FB0790CDF890
:1029100008A080B20C9B0A99FFF716FF641CE4B272
:10292000AC42CCD305B0BDEC028B06B0BDE8F08F55
:102930000000C8422DE9FF4F85B04FF0000ADDE9E5
:1029400013851E46140083464FEA5507D14605D429
:1029500041468DE822022022129B05E041468DE887
:1029600022025442129B2D2258460699FFF7ECFE94
:102970000BEB07001FFA80FBA0B2002403902FE0AE
:10298000301B401EC1B20A2002F08EFB0399B1FB3E
:10299000F0F00A21B0FBF1F201FB1200BAF1000FD6
:1029A00005D1711E8C4202DA60B14FF0010A30305D
:1029B000C2B204FB07B0CDE9008580B2CDF8089023
:1029C000129B08E004FB07B0CDE90085129B80B2A2
:1029D000CDF8089020220699FFF7B6FE641CE4B2F9
:1029E000B442CDD309B0BDE8F08F2DE9FE4F994632
:1029F000DDE90D6714468A460546DDF830800CE0B7
:102A0000CDF800804B4651462846CDE90167FFF7D7
:102A10009BFE05EB560085B2641C2278002AEFD19C
:102A2000BDE8FE8F2DE9FE4306464FF6FF750020F8
:102A300018240095CDE901404FF47848434642A25E
:102A40003C21FFF7D2FFCDE9005496ED020A434640
:102A500005223C217820FFF7FDFECDE9005496EDDC
:102A6000040A434605225A217820FFF7F3FECDE9F8
:102A70000054782196ED050A434605220846FFF7E3
:102A8000E9FE334FCDE9005497ED010A4346042295
:102A900096210020FFF7DEFECDF80080CDE901543D
:102AA000022396215020BA68FFF744FFCDF800803A
:102AB000CDE9015402239621A020FA68FFF73AFFDE
:102AC000CDE90054F8694346032290ED000AB42191
:102AD0000020FFF7BFFECDE90054F869434603220A
:102AE00090ED010AB4215020FFF7B4FECDE9005467
:102AF000F8694346032290ED020AB421A020FFF7B3
:102B0000A9FECDE9005496ED060A43460422D221DF
:102B10000020FFF79FFEF86932680423876ACDF82A
:102B20000080CDE90154D2215020FFF703FFCDF8FA
:102B30000080CDE9015404233A46D221A020FFF7BA
:102B4000F9FEBDE8FE83000053756363657373008F
:102B5000E4480020FEB54FF6FF74F02300211A462A
:102B600008460094FFF7F0FC00251826CDE9004642
:102B70004FF478473B4615A2294628460295FFF7B1
:102B800034FFCDE900463B4613A21E2100200295EA
:102B9000FFF72BFFCDE900463B4612A23C21002067
:102BA0000295FFF722FFCDE900463B460FA25A21CE
:102BB00000200295FFF719FFCDE900463B460DA224
:102BC000782100200295FFF710FFFEBD4C45445FC1
:102BD000487A5F53455400004375725F416E673A0F
:102BE000000000004661696C75726500456C5F41CC
:102BF0006E673A0056656C3A000000000F4E104FA9
:102C0000104C114D8046307890B1F86920602869E9
:102C100002F0A4F984ED020A286902F0ADF984ED0E
:102C2000040A4046FFF7FEFE322003F04BF9EAE7C4
:102C3000FFF7AAFC4046FFF78DFFF5E7B100002043
:102C400000000020C8480020E448002010B50446D9
:102C5000000A00F019F8E0B2BDE8104000F014B826
:102C600070B5084C0546002240212046FEF7D3F9F6
:102C7000284600F009F82046BDE8704001224021B6
:102C8000FEF7C9B9000402402DE9F041104F054696
:102C900000244FF480784FF4007600223146384605
:102CA000FEF7B9F9280601D5012200E000224146CD
:102CB0003846FEF7B0F9012231463846FEF7ABF947
:102CC0006806641C050EE4B2082CE6D3BDE8F0816A
:102CD000000402402DED028B0C4C0D4D9FED0D8A32
:102CE000206880F40050206095ED070AB8EEC00A15
:102CF000B0EEC00A20EE080ABCEEC00A10EE100AC0
:102D0000C0B2643003F0DEF8EAE7000014080240C5
:102D1000000000200000C84280ED000A9FED030A79
:102D200080ED010A0830FEF765B8000000000000E1
:102D300010B504462DED028BB0EE408A0830FEF748
:102D400060F800EE100ADFED170A2061B8EE400AC5
:102D500020EE200AB5EEC00AF1EE10FA02D2B0EE73
:102D6000600A0BE010EE100A0F49884206DD84ED80
:102D7000018AB0EE480ABDEC028B10BD94ED001A3A
:102D800031EE000AC1EE000A94ED010AB7EE001A16
:102D900020EE200A71EE600A00EE880A84ED010A36
:102DA000E9E700006F12833A9A99993E2DE9F041C4
:102DB00086B014216846FDF7B5FA2F480024016853
:102DC00041F004010160016801F00401059101680E
:102DD00041F001010160016801F001010591016804
:102DE00041F0020101600068244F00F002004FF43E
:102DF00000550590002229463846FEF70CF9DFF809
:102E00008080002204214046FEF705F94FF47876D1
:102E1000012231464046FEF7FEF800950125CDE936
:102E20000154694638460394FEF700F8CDE9005492
:102E3000144F694638460295FDF7F8FF0820CDE9A2
:102E40000004694638460294FDF7F0FF0420CDE9FE
:102E5000000569464046CDE90245FDF7E7FF02203F
:102E6000CDE90240CDE9006569464046FDF7DEFF49
:102E700006B0BDE8F0810000303802400008024092
:102E800000040240000002400D4810B50B490160EB
:102E90000C49416000214FF480428160C0E9031277
:102EA00041618161C1610162FEF7C0F8002803D071
:102EB000BDE81040FDF725BF10BD0000005C0040DC
:102EC00030010020A086010010B58EB000240794C8
:102ED000089409940A940B941C2168460C94FDF7FD
:102EE00021FA3348314901600321C0E901144FF44C
:102EF0008071C0E9031480218161FEF76DFE08B185
:102F0000FDF7FFFE4FF48050079007A92848FEF711
:102F1000DBFE08B1FDF7F5FE2548FFF780F808B1A4
:102F2000FDF7EFFE0B940BA921480C94FEF716FE5B
:102F300008B1FDF7E6FE6020CDE90004029400220E
:102F400069461B480494FFF704F808B1FDF7D9FE61
:102F5000042269461648FEF7FCFF08B1FDF7D1FED2
:102F6000082269461248FEF7F4FF08B1FDF7C9FED2
:102F70000C2269460E48FEF7ECFF08B1FDF7C1FED2
:102F800000210B48FFF77AF804210948FFF776F88B
:102F900008210748FFF772F80C210548FFF76EF883
:102FA0000348FEF799FF0EB010BD0000000400407A
:102FB00084010020FEE7FEE72DED028B84B00122A4
:102FC00004212748FEF727F8264D287888B326489D
:102FD000FDF717FF9FED258A04462348F0EE481AB7
:102FE000B0EE481ADFED220A9FED220A2438FDF7E1
:102FF00003FE1D48F0EE481AB0EE481ADFED1E0A37
:103000009FED1E0A2438FDF7EAFD1D48C06900EB5C
:103010004000400000EE100A1348B8EEC00A243801
:10302000FDF714FE17480321446003A802F070FF67
:10303000CBE7FFE71648144A14498DE807000A4811
:10304000DFED140A4FF0FF3307229FED130A002132
:103050002438FDF759FE03F0F1FB0390B5E70000BB
:1030600000040240B40000200849002000000000D5
:10307000A69B443B0E4F2F3B6F12033AEC51B83DD9
:1030800000000020C848002004010020DC000020CF
:10309000300100200AD7233C6666464180EC050AD1
:1030A00000219FED060A80ED050A80ED060A80EDFD
:1030B000070A81622030FDF79DBE0000000000007D
:1030C00010B504462DED028BB0EE408A2030FDF79E
:1030D00098FE00EE100AA062F8EE400A9FED3F0A4B
:1030E00020EE801AB5EEC01AF1EE10FA04D911EEF6
:1030F000100AB0F17C5F01DDB0EE401AD4ED010A98
:1031000094ED000AF6EE001A60EE810A94ED053A9D
:1031100060EE082A94ED070A60EEA10A73EE081A21
:1031200000EEA10AD4ED040AF1EE601AF4EEC01A22
:10313000F1EE10FA02DDB0EE610A06E0F4EEC00A2C
:10314000F1EE10FA01D2B0EE600A38EE433AB0EE7A
:10315000402A94ED020A72EE822A20EE033A83EEB0
:10316000010A32EE800AF4EEC01AF1EE10FA02DD26
:10317000B0EE610A06E0F4EEC00AF1EE10FA01D2F8
:10318000B0EE600AD4ED031AF5EEC01AF1EE10FAB3
:103190001ADDD4ED060A30EE603AC3EE012AF4EEF1
:1031A000E21AF1EE10FA04D2B0EE600A01EE810AE2
:1031B0000AE0B1EE613AB4EEE23AF1EE10FA03DD64
:1031C000B0EE600A01EEC10A84ED072A84ED060A1A
:1031D00084ED058ABDEC028B10BD00006F12833AAE
:1031E0004FF47A74204602F06DFEFBE710B50446FA
:1031F000C4E9001201F0C4FE012002F063FE204683
:1032000001F0BEFE51EC100BFDF7C3F9A06104F113
:103210001C00FDF7EFFD012002F054FE204601F0F6
:10322000AFFE012002F04EFE204601F0A9FE51EC57
:10323000100BFDF7AEF9A06004F10C00BDE81040E2
:10324000FDF7D8BD10B504462DED028B01F098FEB8
:1032500051EC100BFDF79DF908EE100A04F10C007B
:10326000FDF7CFFD606194ED020A0D4938EE400A8A
:10327000F0EEC00A10EE900A88420BDDB5EEC00AEF
:10328000A16AF1EE10FA02DD4FF0FF3000E00120FC
:103290000844A06284ED028ABDEC028B10BD0000E0
:1032A0007CD9A040B5EEC00AF1EE10FA02D89FED2D
:1032B000160A06E010EE101AB1F17E5F01DBB7EEE0
:1032C000000A1349DFED110A096858B1042811D02A
:1032D00020EE200A0828BCEEC00A10EE100A11D019
:1032E0000864704720EE200ABCEEC00A10EE100AF7
:1032F0004863704720EE200ABCEEC00A10EE100AA8
:1033000088637047C8637047000000000000804376
:103310008401002010B5502080F31188BFF34F8F37
:10332000BFF36F8F03F090FA18B104494FF080504B
:103330000860002080F3118810BD000004ED00E05B
:1033400030B593B030216846FCF7ECFF14210CA88F
:10335000FCF7E8FF1D480024016841F0805101603E
:10336000006800F0805011901948016821F4404134
:1033700041F4004101600068022500F440401190D2
:10338000012003901020009506950490CDE9074098
:10339000A020CDE9090504200B906846FEF726FA27
:1033A00008B172B6FEE70F20CDE90C054FF480504E
:1033B000CDE90E4002210CA81094FEF70BF900286D
:1033C00001D072B6FEE713B030BD000040380240B5
:1033D000007000400248016841F4700101607047CC
:1033E00088ED00E00148FEF7DEBC0000CC010020C3
:1033F000F0B50268204B214C9F03214D214E98428D
:1034000007D0B84205D0A04203D0A84201D0B042B4
:1034100004D122F0700C4A6842EA0C02984210D0A3
:10342000B8420ED0A0420CD0A8420AD0B04208D078
:10343000154CA04205D0154CA04202D0144CA0421D
:1034400003D122F44074CA6822434C6922F08002FE
:10345000224302608A68C2620A688262984201D18D
:1034600009690163012141610169C90703D001694B
:1034700021F001010161F0BD0000014000040040A5
:1034800000080040000C00400040014000440140A2
:103490000048014010B501F01F030121046A994062
:1034A0008C430462016A9A401143016210BD10B559
:1034B000846842EA032224F47F440A432243826060
:1034C00010BD826822F070020A4342F00701816059
:1034D0007047000030B5036A026A22F001020262FE
:1034E0004268846924F073050C682C4323F00205BC
:1034F0008B682B430A4DA8420BD123F00805CB68FB
:1035000022F440722B434D6923F0040315438A696A
:103510002A434260846149684163036230BD000010
:103520000000014030B5026A036A23F01003036211
:10353000436884690D6824F4E64444EA05248D68F0
:1035400022F0200242EA05120B4DA8420ED1CD68AE
:1035500022F0800242EA05124D6923F4406343EAF7
:1035600085038D6922F0400243EA8503436084614C
:1035700049688163026230BD0000014030B5036AD2
:10358000026A22F4807202624268C46923F4007302
:1035900024F073050C682C438D6843EA05230C4D19
:1035A000A8420ED1CD6823F4006343EA05234D6998
:1035B00022F4405242EA05128D6923F4806342EA04
:1035C00005124260C4614968C163036230BD0000F6
:1035D0000000014030B5046A026A22F4805202629F
:1035E0004268C3690D6823F4E64343EA05238D6806
:1035F00024F4005444EA0534064DA84204D14D6930
:1036000022F4804242EA85124260C3614968016443
:10361000046230BD0000014010B5036A046A24F062
:1036200001040462846924F0F00444EA021423F0E3
:103630000A020A438461026210BD10B5036A046A7B
:1036400024F010040462846923F0A00324F470447D
:1036500044EA023243EA01118261016210BDFEE7D1
:1036600003B401984100009850EAC12018BF04201B
:103670004A0D18BF40F0010040F2FF72B2EB515FFB
:1036800008BF40F00200012808BF052002B07047C3
:103690000907090E002804DB00F1E02080F800147F
:1036A000704700F00F0000F1E02080F8141D704713
:1036B00010B52F499FED2C1B2DED020B84B0059802
:1036C00020F000408842D8BF9DED040B2DDD294934
:1036D000884209D1049840B94FF0010001F0F0FB95
:1036E00001F0AEFB06B010BD05DB9DED040B01F053
:1036F00093FB06B010BD68469DED040B00F08CFFF7
:1037000010F0030004BF9DED021B9DED000B0CD0DB
:1037100001280ED09DED021B9DED000B022817D055
:10372000012001F0C9FA06B010BD01F091F906B010
:1037300010BD9DED021B9DED000B012001F0BCFAB8
:1037400051EC100B81F0004106B041EC100B10BDA4
:1037500001F07EF951EC100B81F0004106B041EC14
:10376000100B10BD00000000000000000000000071
:10377000FB21E93F0000F07F10B52DED040B86B072
:103780009DED060B10EE100A10EE901A8DED000B59
:10379000002818BF0120084320F00040C0F17F60DE
:1037A00000F1E040C00F21D19DED080B10EE101A82
:1037B00010EE900A8DED000B002918BF012108437F
:1037C00020F00040C0F17F6000F1E040C00F0DD15B
:1037D00029490798B1EB400F04BF0698002842D052
:1037E0000998400004BF089800283CD09DED080BC4
:1037F00053EC102B9DED060B51EC100BFDF781F8EF
:10380000CDE902019DED020B40F2FF7110EE900A2E
:103810008DED000B31EA105021D00798039900F08C
:10382000004001F00041884219D09DED080B8DED5C
:10383000040B9DED020B8DED000B10EE900A059927
:1038400061F31E0005909DED041B9DED020B51ECF4
:10385000110B53EC102BFCF714FECDE902019DED8A
:10386000020B0AB010BD012001F02AFB0AB0BDE82E
:10387000104001F0E5BA00000000E0FF0000000089
:103880002DE9F04D2DED040B2DED0E8B96B0DDE9FD
:103890002550279CDDF890A025F0004624F0004834
:1038A000BAF1000F14BF0121002101EB4502FC49D0
:1038B00053184A1093422AD3002814BF012300232F
:1038C00003EB44030B44F7498B4220D358EA000131
:1038D0009FEDF59B76D0DFF8D8B35D4503D1BAF103
:1038E000000F05D188E0BAF1000F08BF002100D019
:1038F000012101EB450111F5001F08D8002814BF74
:103900000121002101EB440111F5001F0BD99DEDB0
:10391000261B9DED240B16B0BDEC0E8B04B0BDE84C
:10392000F04D01F083BA0027002DBCBFE149884566
:1039300021DAE1498845A8BF02271CDAC3451ADC11
:10394000DE4901EB2851142908DDC1F1340220FAC7
:1039500002F101FA02F282420DD108E058B9C1F138
:10396000140228FA02F101FA02F2424503D101F0F1
:103970000101C1F1020756EA0A0124D1002C22DA22
:10398000002D18BF022F01D0012F0AD0022001F014
:1039900097FA16B0BDEC0E8B04B0BDE8F04D01F007
:1039A00023BA022001F08CFA01F01EFA51EC100B40
:1039B00081F0004141EC100B16B0BDEC0E8B04B051
:1039C000BDE8F08D18E09FEDBEAB9FEDBF8B0028EA
:1039D00071D1B848804522D105F1804010F58010A2
:1039E00008BFBAF1000F07D0B3450ADC002CA8BF0E
:1039F0009DED260BE0DA0DE0B0EE490AF0EE690A23
:103A0000DAE7002C06DA9DED260B51EC100B81F065
:103A100000416FE0AE48784490ED000BCCE7D8450C
:103A20004DD1002C48DA2EB186423AD1BAF1000FBE
:103A300042D126E0BAF1000F13D0022001F040FA83
:103A400001F00EFA8DED020B9DED240B8DED000BB8
:103A500010EE900A039961F31E0003909DED020B96
:103A6000AAE78DED02AB9DED240B1AEE901A10EE35
:103A7000900A8DED000B61F31E0003909DED020B8B
:103A80009AE78DED028B9DED240B18EE901A10EE47
:103A9000900A8DED000B61F31E0003909DED020B6B
:103AA0008AE709DA9DED240B51EC190B53EC102B2E
:103AB000FCF750FE1EE020E09DED240B7CE78642E3
:103AC0001BDAB4F1804F0DD0A4F10050B0F1FF50DB
:103AD00013D1002D11DB9DED240B51EC100B02F0E6
:103AE00087F807E09DED240B53EC102B51EC100BE5
:103AF00000F0C2BC41EC100B5EE79DED240B51ECD5
:103B0000100B01F01FFABAF1000FCDE90E0142D1FE
:103B10009FED710B46B3A6F1E040B0F17F600CD091
:103B20005E4538D1002D00DAA7B3022F0CBF01206B
:103B30004FF0FF30FCF728FFDCE7002D01DD002C03
:103B40000DDA002D01DD002C1FDB002D16DA002C14
:103B500014DB012F08BF9FED620B3FF42DAFB0EED9
:103B60004A0AF0EE6A0A27E7022F18BF002D0CD090
:103B7000012F0AD1002DFFF61FAF06E0002DB8BFC0
:103B8000002C08DA012F3FF417AFB0EE480AF0EE30
:103B9000680A11E71BE0012000EBE57050EA07011D
:103BA00015D0791EB0EE498AF0EE698A084308BF45
:103BB0009FED4D8B4E480025804570DD4D494E48A8
:103BC000884514DDB0420DDB002C19DB2FE001200D
:103BD00001F076F916B0BDEC0E8B04B0BDE8F04DE7
:103BE00001F02EB9B34502DC002C09DC1FE086424F
:103BF00002DA002C1BDA03E05E452BDD002C16DD1B
:103C0000022001F05DF901F02BF98DED020B53EC70
:103C10001A2B51EC180BFCF737FCCDE90001039986
:103C2000019861F31E0003909DED020BC4E6022093
:103C300001F046F901F024F910EE901A18EE900AFE
:103C40008DED020B8DED008B61F31E0003909DED59
:103C5000020BB1E69DED0E0B53EC192B51EC100B42
:103C6000FCF70CFC9FED260BCDE9080153EC102B63
:103C70009DED080B51EC100BFCF706FC9FED221B91
:103C800053EC112BFCF7FDFB9DED081B53EC112BA6
:103C9000FCF7FAFB9FED1E1B53EC112B3CE08CE074
:103CA000FFFF1F00FFFF0F00000000000000F03FBB
:103CB0000000F03F0000F07F0000404301FCFFFFE8
:103CC000000000000000F07F000000000000000085
:103CD00056660000000000000000000000000080A8
:103CE000000000000000F0FF000000000000F0BF36
:103CF0000000E0410000F043FFFFEF3F0000000044
:103D0000000000000000D03F555555555555D53F92
:103D1000000000000000E03FFCF7B3FB9DED080B46
:103D200041EC1A0B53EC102B51EC100BFCF7ACFBD5
:103D300053EC1A2BFCF7A8FB41EC1A0B9FEDFE0B82
:103D400053EC102B9DED080B51EC100BFCF79CFB7A
:103D500041EC1B0B9FEDFA0B51EC1A0B53EC102BA3
:103D6000FCF792FB41EC1A0B9FEDF70B53EC102B79
:103D70009DED080B51EC100BFCF786FB53EC1A2B56
:103D8000FCF77CFB41EC1A0B51EC1B0B53EC1A2B90
:103D9000FCF7D3FA0690CDE906519DED060B53ECE6
:103DA0001B2B51EC100BFCF769FB53EC1A2BFCF7A7
:103DB00068FB41EC100B00F0A1B90020B6F5801FA4
:103DC0000EDA9FEDE30B53EC102B9DED0E0B51EC37
:103DD000100BFCF759FBCDE90E016FF034000E46D5
:103DE00000EB2650A0F2FF37C6F31300DA4940F08B
:103DF0007F6646F040568842D8BF002408DDD74988
:103E00008142C8BF012403DC0024A6F580167F1C74
:103E1000D348784400EBC4000F9690ED00CB9DEDA5
:103E20000E0B53EC1C2B51EC100BFCF727FB9DEDFC
:103E30000E0B41EC1B0B53EC1C2B51EC100BFCF745
:103E40007CFA41EC100B51EC190B53EC102BFCF7E6
:103E500081FC41EC1D0B51EC1B0B53EC1D2BFCF7B3
:103E600013FB41EC1A0BBF488DED10AB7844109555
:103E700090ED000B4FF0005040EA660000EB8440EC
:103E80008DED080B00F5002009909DED080B53EC1B
:103E90001C2B51EC100BFCF7F1FA9DED0E1B53ECB3
:103EA000112BFCF7EEFA41EC100B53EC102B9DEDAF
:103EB000100B51EC100BFCF7E7FA9DED080B41ECF1
:103EC0001C0B53EC102B9DED100B51EC100BFCF761
:103ED000DBFA53EC1B2BFCF7D4FA53EC1C2BFCF74E
:103EE000CDFA53EC1D2BFCF7CFFA41EC1C0B53EC35
:103EF0001A2B51EC1A0BFCF7C7FA41EC1B0B9A4832
:103F00000621B0EE4B0AF0EE6B0A784400F058FE42
:103F1000B0EE401AF0EE601AB0EE41DAF0EE61DA7F
:103F200053EC1B2B51EC1B0BFCF7AEFA53EC1D2B87
:103F3000FCF7AAFA9DED100B41EC1B0B53EC1A2B6E
:103F400051EC100BFCF7F9F953EC1C2BFCF79CFA25
:103F500053EC1B2BFCF7F1F99DED100B41EC1B0B07
:103F600053EC102B51EC100BFCF78EFA41EC1D0BAF
:103F70009FED7FEB53EC1E2BFCF7DFF953EC1B2B73
:103F8000FCF7DBF90890CDE908519DED080B53ECE7
:103F90001E2B51EC100BFCF771FA53EC1D2BFCF7A8
:103FA0006DFA53EC1B2BFCF76CFA9DED080B41EC02
:103FB0001D0B53EC102B9DED100B51EC100BFCF76F
:103FC00063FA41EC1B0B53EC1A2B51EC1D0BFCF765
:103FD0005BFA9DED080B41EC1A0B53EC102B51ECE6
:103FE0001C0BFCF751FA53EC1A2BFCF7A6F941EC29
:103FF0001A0B51EC1B0B53EC1A2BFCF79EF90C908F
:10400000CDE90C519DED0C0B53EC1B2B51EC100B1F
:10401000FCF734FA53EC1A2BFCF733FA41EC1B0B88
:104020009FED550B53EC102B9DED0C0B51EC100B31
:10403000FCF72AFA41EC1A0B9FED510B51EC1B0BCC
:1040400053EC102BFCF720FA41EC1B0B9FED4E0BB1
:1040500053EC102B9DED0C0B51EC100BFCF714FAEC
:1040600053EC1B2BFCF769F941EC100B48487844E2
:1040700000EBC40090ED001B51EC100B53EC112B26
:10408000FCF75BF941EC1B0B3846FCF77DFCCDE9F6
:10409000080153EC1B2B51EC1A0BFCF74EF941ECC9
:1040A000100B3C48784400EBC40090ED00CB51EC81
:1040B000100B53EC1C2BFCF740F99DED081B53EC47
:1040C000112BFCF73AF90690CDE906519DED080B4E
:1040D00053EC102B9DED060B51EC100BFCF7CEF9B9
:1040E00053EC1C2BFCF7CAF953EC1A2BFCF7C6F95E
:1040F00053EC1B2BFCF7C5F941EC100B9DED261B77
:1041000053EC102B8DED001B00959DED260B51EC13
:10411000100BFCF7B9F99DED000B41EC1A0B53ECB9
:10412000102B9DED260B51EC100BFCF7A7F99DED24
:10413000061B53EC112B2FE0000000604715F73FE2
:10414000FE822B654715F73F44DF5DF80BAE543E0A
:1041500000000000000040438E9803007AB60B0078
:10416000A261000000620000DA60000000000000B0
:104170000000000000000840000000E009C7EE3F1A
:10418000FD033ADC09C7EE3FF5015B14E02F3EBEAC
:10419000665F0000205F0000FCF776F953EC1A2BF5
:1041A000FCF7CBF89DED060B41EC1A0B53EC102BF2
:1041B0009DED000B51EC100BFCF766F9CDE90C01FD
:1041C0009DED0C0B51EC1A0B53EC102BFCF7B5F8D2
:1041D000CDE902010C46AA498C422FDB611A084343
:1041E00018D19DED0C0B53EC102B9DED020B51ECF7
:1041F000100BFCF743F941EC1B0B9FEDA30B51ECAB
:104200001A0B53EC102BFCF798F853EC1B2BFCF714
:10421000CDFB2DD2022000F053FE00F021FE10EE67
:10422000901A18EE900A8DED020B8DED008B61F364
:104230001E0003909DED020BFFF7BEBB944A24F0D5
:104240000041914214D39349214408437FF4EFACD9
:104250009DED0C0B53EC102B9DED020B51EC100B54
:10426000FCF70CF953EC1A2BFCF7A0FB7FF6DFAC44
:1042700024F000408849894A002601EB20518242FF
:104280002BDA481C4FF4801121FA00F02044844AB4
:10429000C0F30A517A44A1F2FF3192ED000B814A3A
:1042A0008DED080BCA4020EA0202C0F3130040F46F
:1042B0008010C1F1140120FA01F60992002CB8BF58
:1042C00076429DED080B53EC102B9DED0C0B51EC41
:1042D000100BFCF7D3F8CDE90C019DED0C0B51EC64
:1042E0001A0B53EC102BFCF728F89FED6F0B08907E
:1042F000CDE9085153EC102B9DED080B51EC100B40
:10430000FCF7C2F841EC1B0B9FED690B53EC102B33
:104310009DED080B51EC100BFCF7B6F89DED0C0B66
:1043200041EC1C0B53EC102B9DED080B51EC100BCA
:10433000FCF7A4F853EC1A2BFCF7A3F89FED5E1BD7
:1043400053EC112BFCF7A0F853EC1C2BFBF7F5FFFB
:1043500041EC1A0B51EC1B0B53EC1A2BFBF7EDFF46
:10436000CDE902019DED020B53EC1B2B51EC100B20
:10437000FCF784F853EC1A2BFCF783F89DED020B45
:1043800041EC1A0B53EC102B51EC100BFCF77CF8A2
:10439000CDE908014A489DED080B0521784400F05D
:1043A0000FFC9DED081B51EC100B53EC112BFCF78F
:1043B0006BF89DED021B53EC112BFCF762F8CDE975
:1043C00006019DED020B53EC1A2B51EC100BFCF780
:1043D0005BF853EC1A2BFBF7B0FF9FED3B0B41EC66
:1043E0001A0B53EC102B9DED060B51EC100BFCF748
:1043F00045F89DED060B41EC1B0B53EC102B9DED8E
:10440000020B51EC100BFCF73FF853EC1B2BFCF7A5
:10441000A1F953EC1A2BFCF731F89DED021B53EC7C
:10442000112BFCF72BF853EC192BFCF72AF8CDE9EC
:10443000020101EB065001150029C8BF039015DCED
:104440009DED020B324651EC100BFCF7F2F9FFF731
:1044500007F9042808BF00F013FD32469DED020B5A
:1044600051EC100BFCF7E5F9CDE902019DED020BD3
:1044700051EC180B53EC102BFCF706F8FFF73ABB86
:104480000000904000000000FE822B654715973C1D
:1044900000CC904000346F3F01FCFFFF0000E03F84
:1044A000D85D0000FFFF0F0000000000432EE63F34
:1044B000396CA80C615C20BEEF39FAFE422EE63F53
:1044C000785C0000000000000000000000000040D8
:1044D00010B52F499FED2C1B2DED020B84B00598D4
:1044E00020F000408842DCBF00209DED040B32DD4F
:1044F0002849884209D1049840B94FF0010000F0E2
:10450000DFFC00F09DFC06B010BD05DB9DED040B4B
:1045100000F082FC06B010BD68469DED040B00F073
:104520007BF810F0030011D0012818D09DED021B7C
:104530009DED000B02281AD000F08AFA51EC100B06
:1045400081F0004106B041EC100B10BD9DED021B47
:104550009DED000B012000F0AFFB06B010BD9DEDFE
:10456000021B9DED000B00F073FA06B010BD012098
:1045700000F0A2FB51EC100B81F0004106B041ECC1
:10458000100B10BD00000000000000000000000043
:10459000FB21E93F0000F07F00B52DED048BB0EE6C
:1045A000409AF0EE609A83B051EC190BFCF758F981
:1045B00041EC180B18EE100A18EE901A8DED008BD6
:1045C000002818BF0120084320F00040C0F17F60A0
:1045D00000F1E040C00F14D019EE101A19EE900A45
:1045E0008DED009B002918BF0121084320F00040F9
:1045F000C0F17F6000F1E040C00F04BF012000F077
:104600005FFCB0EE480A03B0F0EE680ABDEC048B24
:1046100000BD0000000000002DE9F14F04462DED23
:10462000020B2DED088B8AB09FEDE70B80ED020B9E
:10463000139EE74826F0004585420ADC9DED120BEB
:10464000002084ED000B0AB0BDEC088B03B0BDE880
:10465000F08FE0489FEDE0AB9FEDE1BBA84247DD66
:10466000E14F9FEDE39B9FEDE48B9DED120B53EC2F
:104670001A2B51EC100B002E1CDDFBF7FFFE41EC5A
:10468000100BBD4208D053EC1B2B51EC100BFBF769
:10469000F5FEC4E900010BE053EC192B51EC100BB3
:1046A000FBF7ECFE53EC182BFBF7E8FEC4E9000126
:1046B0000120C8E7FBF741FE41EC100BBD4208D0DA
:1046C00053EC1B2B51EC100BFBF737FEC4E9000138
:1046D0000BE053EC192B51EC100BFBF72EFE53ECB7
:1046E000182BFBF72AFEC4E900014FF0FF30AAE7C0
:1046F000C348A84279DB9DED120B51EC100B00F082
:1047000021FC41EC180B9FEDC00B53EC102BFBF779
:10471000BBFE9FEDBF1B53EC112BFBF70EFEFCF70E
:104720007CF90746FCF730F941EC190B53EC1A2BD6
:10473000FBF7AAFE53EC182BFBF7A3FE41EC180B7A
:1047400053EC1B2B51EC190BFBF79EFEDFF8C8A2B4
:1047500041EC100B4FEA15580125FA4453EC102B8D
:1047600051EC180BFBF78AFE032DC4E900013DD084
:10477000C1F30A5005EB4511A8EB00001139814245
:1047800034DA0AEB051BB0EE48AA9BED000BF0EE05
:1047900068AA53EC102B51EC190BFBF775FE41EC9A
:1047A0001B0B51EC1A0B53EC1B2BFBF767FE41EC78
:1047B000180B51EC1A0B53EC182BFBF75FFE53EC64
:1047C0001B2BFBF75BFE9BED020B41EC1A0B53EC32
:1047D000102B51EC190BFBF757FE53EC1A2BFBF780
:1047E0004DFE41EC100B6D1CB8E70EE0002EA8BF8B
:1047F0003846BFF628AF94ED000B51EC100B81F05A
:104800000041C4E9000178421DE7C6F3130040F4FB
:10481000801EC6F30A50A0F2F530471100F01F05C4
:10482000C5F12000DDF848B0089000200690079000
:104830000520EC467949002D07EB0002794408BFBA
:1048400051F8221009D051F8223001EB8201AB401F
:104850004A68089922FA01F11943A1FB0E26A1FB2F
:104860000B131A449A4234BF0123002303EB0608BA
:104870000CEB8003D3E901A60E448E4234BF012124
:10488000002192448A4411B1924502D903E0924535
:1048900001D2012100E00021C3E901A641444CF806
:1048A0002010011EA0F10100C4DC029800F10050AC
:1048B000850F0298DDE903678000DDF81480FCF7BE
:1048C00063F841EC1A0B3046FCF79AF89FED541B45
:1048D00053EC112BFBF7D8FD41EC1B0B3846FCF7D2
:1048E0008FF89FED511B53EC112BFBF7CDFD41ECE5
:1048F000180B4046FCF784F89FED4D1B53EC112B31
:10490000FBF7C2FD41EC190B51EC180B53EC192BC2
:10491000FBF713FD53EC1B2BFBF70FFD53EC1A2B8E
:10492000FBF70BFDCDE90801002008909DED080B79
:1049300053EC1A2B51EC100BFBF7A0FD53EC1B2B87
:10494000FBF79CFD53EC182BFBF798FD53EC192B50
:10495000FBF797FD9FED381B53EC112BFBF794FDF4
:104960009FED370B41EC180B53EC102B9DED080B12
:1049700051EC100BFBF788FD53EC182BFBF7DDFC1B
:104980009FED310B41EC180B53EC102B9DED080BF8
:1049900051EC100BFBF778FD53EC182BFBF7CDFC1B
:1049A00041EC100B139810F0004F06D06D4251EC03
:1049B000100B81F0004141EC100B284684ED000BF8
:1049C00041E60000000000000000000000000000C0
:1049D000FB21E93F7CD9024000004054FB21F93F14
:1049E0003163621A61B4D03DFB21F93F0000000041
:1049F0000000601A61B4D03D7370032E8A19A33B86
:104A0000FB2139410000000083C8C96D305FE43FDD
:104A1000000000000000E03F1A5900006858000044
:104A2000000000000000103E000000000000103CEC
:104A3000000000000000103A182D4454FB21F93DFD
:104A40003326A611460B113C00000054FB21F93D12
:104A500010B52DED040B2DED088B82B0B0EE419A10
:104A6000F0EE619A0B9820F000449FED4BABB4F14F
:104A7000795F11DA9DED0A0B51EC100BFBF7CDFFBE
:104A8000002801BFB0EE4A0AF0EE6A0A02B0BDEC9F
:104A9000088B04BF04B010BD9DED0A0B53EC102B26
:104AA00051EC100BFBF7F0FC41EC180B3C480621D5
:104AB000B0EE480AF0EE680A784400F081F853EC52
:104AC000182B51EC100BFBF7DFFC9DED0A0B41ECB2
:104AD0001B0B53EC192B51EC100BFBF7D5FC41ECE5
:104AE000190B53EC1B2B51EC180BFBF7CDFC53ECC3
:104AF000192BFBF7C3FC9FED2C0B41EC190B53EC6E
:104B0000102B51EC180BFBF7BFFC41EC100B2848A5
:104B1000844210DA53EC192B51EC100BFBF7AEFC6E
:104B200053EC1A2BFBF7ADFC41EC100B02B0BDECC3
:104B3000088B04B010BD1F48A042BCBF9FED1E1BD8
:104B40008DED001B06DBA4F5001001900020009005
:104B50009DED001B51EC100B53EC112BFBF78EFC61
:104B60009DED000B41EC180B53EC102B51EC1A0B84
:104B7000FBF784FC41EC1A0B53EC192B51EC180B8E
:104B8000FBF77CFC53EC1A2BFBF77BFC41EC100B86
:104B9000CCE7000000000000000000000000F03F33
:104BA0008455000000000000000000000000E03F0D
:104BB0003333D33F0000E93F000000000000D23F44
:104BC00070B504462DED028B4D1E00EBC500B0EE16
:104BD000408AF0EE608A90ED000B35F0060017D0A9
:104BE00053EC182B51EC100BFBF74EFC41EC100B67
:104BF0006D1E04EBC50090ED001B51EC100B53EC47
:104C0000112BFBF79AFB41EC100B35F00600E7D1B6
:104C1000022D36D0042D1CD0062D1CBFBDEC028BFE
:104C200070BD53EC182B51EC100BFBF72DFC94EDE1
:104C30000A1B53EC112BFBF780FB53EC182BFBF7F3
:104C400023FC94ED081B53EC112BFBF776FB41EC96
:104C5000100B53EC182B51EC100BFBF715FC94EDDB
:104C6000061B53EC112BFBF768FB53EC182BFBF7DF
:104C70000BFC94ED040B53EC102BFBF75EFB41ECAB
:104C8000100B53EC182B51EC100BFBF7FDFB94EDC4
:104C9000021B53EC112BFBF750FB53EC182BFBF7CB
:104CA000F3FB94ED001B53EC112BFBF746FBBDEC23
:104CB000028B41EC100B70BD31B504462DED040B99
:104CC0002DED0A8BB0EE41BAF0EE61BA0B989DED76
:104CD0000A0B20F00040B0F1795F0DDA51EC100BB7
:104CE000FEF7BEFC042808BF00F0CAF89DED0A0BD1
:104CF000BDEC0A8B05B030BD53EC102B51EC100B02
:104D0000FBF7C2FB41EC180B9DED0A0B53EC182B83
:104D100051EC100BFBF7B8FB41EC190B2C48B0EE33
:104D2000480AF0EE680A05217844FFF749FF9FED35
:104D30002ACBB0EE40AAF0EE60AA9CB353EC1C2B39
:104D400051EC190BFBF7A0FB41EC1C0B53EC1A2B9D
:104D500051EC190BFBF798FB9FED210B41EC190B64
:104D600053EC102B51EC1B0BFBF78EFB53EC192B68
:104D7000FBF784FB53EC182BFBF786FB53EC1B2B48
:104D8000FBF77CFB53EC1C2BFBF778FB9DED0A1B20
:104D900053EC112BFBF775FBBDEC0A8B05B041EC16
:104DA000100B30BDFFE753EC1A2B51EC180BFBF73F
:104DB0006BFB53EC1C2BFBF7C0FA53EC192BFBF7E6
:104DC00063FB9DED0A1B53EC112BFBF7B6FAE3E7EF
:104DD0001454000000000000495555555555C5BFF5
:104DE000000000000000E03F9FED070B10B553EC02
:104DF000102B9FED070B51EC100BFBF7ABFC41ECBC
:104E0000100B10BD000000000000000000000000BA
:104E1000000000000000F03F10B553EC102B51ECE7
:104E2000100BFBF78AFA41EC100B10BD10B553ECD8
:104E3000112B51EC100BFBF780FA41EC100B10BD5D
:104E40009FED050B10B553EC102B51EC100BFBF73D
:104E500081FC41EC100B10BD0000000000000000C0
:104E60009FED050B10B553EC102B51EC100BFBF71D
:104E70000BFB41EC100B10BD0000000000000070A7
:104E80009FED050B10B553EC102B51EC100BFBF7FD
:104E9000FBFA41EC100B10BD0000000000000010F8
:104EA00002E008C8121F08C1002AFAD170477047F3
:104EB000002001E001C1121F002AFBD17047000051
:104EC00001490860704700002C01002010B504461D
:104ED000006900F051F8D4E90210484300EE900A4E
:104EE0000648B8EEE01AD0ED060ABDE8104051EED3
:104EF000000AB0EE600A00F003B80000B400002021
:104F000010B510EE100AFBF731FB41EC100B9FEDD2
:104F10000A1BFEF731FC51EC100BFBF73AFB00EEDD
:104F2000100AB5EEC00AF1EE10FA03DADFED040A5A
:104F300030EE200A10BD000000000060FB21194087
:104F4000DB0FC94082B0CDE9000121F000400190A3
:104F50009DED000B02B051EC100B7047D0ED0A0A2A
:104F600090ED020A9FED031AF8EEE00A00EE810AC6
:104F700070470000DB0FC94090ED020A7047000047
:104F80001FB5002103913223042203A98DE80E00EE
:104F90001649406801230A88898892B289B2FCF7D1
:104FA00009F99FED131B9FED140BFEF769FC51EC03
:104FB000100BFBF7EEFA00EE900A9DF80C109DF82E
:104FC0000D00090700EB115000EE100AB8EE400A80
:104FD00080EE201A9FED0A0A21EE000A10EE100A58
:104FE000FBF7C4FA41EC100B1FBD0000D4000020F9
:104FF0000000000000002840000000000000004009
:10500000DB0FC94090ED050A80ED090AF8EE400A71
:105010009FED100A60EE800AF5EEC00AF1EE10FA7C
:1050200001D8F0EE400A90ED021A90ED060AD0E9A0
:105030000A1271EE401A8A1A00EE102A9FED062A13
:1050400080ED061AB8EEC00AC16240EE021A81EE87
:10505000A00A70476F12833ADB0FC9401CB5FCF7FA
:10506000FDF9FEF76DF9FDF7A1FEFDF72DFFFDF748
:105070000BFF07490120CDE900014202002305A1F1
:10508000084801F075FB08B101F020F8FEE70000C8
:10509000200000204170705461736B43726561742D
:1050A00065000000C10A00080246012000E05043EC
:1050B000491EC9B2FBD270472DE9F041184C0F468A
:1050C0000546E6682068001D00F0C9FD38B9206873
:1050D00090F82C1001208840216981432161681CCF
:1050E00007D137B12168BDE8F0410E48091D00F035
:1050F00005BE20683544B5424560216805D2A06BE5
:10510000BDE8F041091D00F0E1BD606B091D00F034
:10511000DDFDA06A854200D2A562BDE8F0810000F5
:1051200034000020CC0B00202DE9F041054600F0B2
:10513000F1FD2D4CA068401CA06020682B4F10B1E1
:10514000606930B32BE02560A068012827D10026D4
:1051500006EB860007EB800000F0AAFD761C202EEF
:10516000F6D3234800F0A4FD2148143000F0A0FD40
:105170001F48283000F09CFD1D483C3000F098FD91
:105180001B48503000F094FD194860631430A06350
:1051900005E02068E96AC06A884200D82560606A34
:1051A000401C6062E96A0120226988401043206146
:1051B00001EB810007EB8000291D00F09FFD00F04E
:1051C000C9FD606900280CD02068E96AC06A88427D
:1051D00007D208494FF080500860BFF34F8FBFF3EC
:1051E0006F8FBDE8F081000034000020FC08002033
:1051F0007C0B002004ED00E038B500F08BFD104C76
:105200002068C8B90F4800F053FD0E48143000F074
:105210004FFD0C48E060143020610A4B0020C03B79
:10522000009003F148020C210A2001F043F82060AD
:1052300010B105A100F010FEBDE8384000F08ABDB5
:1052400070000020A00C0020546D7251000000007E
:1052500030B4026C0B46002A0BD0C1681144C16007
:105260008468A14201D30168C16030BC1846FBF7D5
:1052700040B830BC70472DE9F041856B17460446B5
:105280000026026C82B1C7B1E068FBF732F8E16832
:10529000206C091AE1602268914202D2A168081AC2
:1052A000E060022F16D017E02068A8B9A06801F0CE
:1052B00031FB06460020A0600EE06068FBF719F89D
:1052C000216C606808446060A168884204D320684B
:1052D000606001E005B16D1E6D1CA5633046BDE840
:1052E000F08110B5044690F8510058B101280CD057
:1052F00002280FD0502080F31188BFF34F8FBFF3E7
:105300006F8FFEE7206B00F039FD2046BDE81040AE
:1053100000F034BD10BD000010484FF4705142073A
:1053200006D0C01D0D4920F00700411AC1F570518B
:105330000B4A00230144C2E900030839183A21F05E
:10534000070111604B600B600B1AC0E900139360FA
:105350004FF000405360506170470000C80C0020BF
:105360009C000020144E154CA6F52F774FF0805866
:10537000DFF84C9012E000BF00F0CCFCF068C5688C
:10538000281D00F06CFCA068401EA0606068401EF4
:10539000606000F0DFFC2846FFF7A3FF606800288C
:1053A000EAD138680128F9D9C9F80080BFF34F8FD6
:1053B000BFF36F8FF2E70000B80B0020340000202D
:1053C00004ED00E00346009829B10260C0E90F3106
:1053D000012100F0A3BF0060F8E72DE9F0479A46ED
:1053E000DDE9098481466FF00303206B03EB820241
:1053F0001044089E20F00707780707D0502080F35C
:105400001188BFF34F8FBFF36F8FFEE7002561B1A7
:10541000002023180A5C83F834200A5C12B1401C77
:105420001028F6D384F8435001E084F83450202E3D
:1054300000D31F26E662C4E91165201D00F043FC7D
:1054400004F1180000F03FFC2461C6F12000646202
:10545000A061E56484F8505052464946384600F051
:1054600055FA2060B8F1000F01D0C8F80040BDE83F
:10547000F087000030B5114900E011460A68824209
:10548000FBD34B685C18844203D1406818444860E1
:10549000084643681C18944209D1084C183C2468FB
:1054A000A24209D052681A4442600A681268026037
:1054B000814200D0086030BD0460F9E79C00002004
:1054C00070B5002441600B4D0061914206D8D11A9D
:1054D0008269914206D2011D286907E09A4203D2EF
:1054E000994201D3012403E0011DE86800F0EEFBBE
:1054F000204670BD7000002010B5044600F00AFC84
:10550000A06B28B15FF0000400F024FC204610BD21
:105510000124F9E730B587B0394D67E004980028D9
:1055200064DB069C606910B1201D00F098FB03A8A5
:1055300000F0D8F8024604980A2857D2DFE800F0B5
:105540000505052D334A05052D3394F8240040F058
:10555000010084F824000599A069059B01442046B8
:10556000FFF7AEFF68B3216A2046884794F824000D
:1055700040073BD5002000900598A1690023421800
:105580001946204601F0E0FAD8B9502080F311887E
:10559000BFF34F8FBFF36F8FFEE714F8240F20F097
:1055A0000100207022E094F8240040F0010084F80B
:1055B00024000598A06128B1811813462046FFF702
:1055C0007FFF13E0502080F31188BFF34F8FBFF3AC
:1055D0006F8FFEE794F82400810703D4204600F083
:1055E000CDFB03E020F0010084F82400002204A990
:1055F000286800F0E7FF002890D107B030BD000018
:10560000700000202DE9FC410F46054600F0A2FD88
:1056100001A800F067F80446019818B101F002FAF9
:10562000BDE8FC81254EAFB130690068D0B30027DA
:10563000291B3A46306800F023FC01F0F3F90028FA
:10564000EED11F494FF080500860BFF34F8FBFF37A
:105650006F8FE5E7A542EBD801F0E4F9F068274643
:10566000C068C468201D00F0FAFA94F824004107CD
:1056700019D5A0692B4641193A462046FFF720FF6D
:10568000A8B100200346014600902A46204601F0BA
:105690005BFA60B9502080F31188BFF34F8FBFF3DE
:1056A0006F8FFEE707E020F0010084F82400216AF4
:1056B00020468847B4E70127BAE7000070000020C1
:1056C00004ED00E00648416B096829B1416BC968E7
:1056D000C9684968816270474FF0FF31FAE70000FE
:1056E0003400002070B5054601F0A8F8064E0446C7
:1056F000B068844203D200F009F8012000E00020E5
:1057000028602046B46070BD70000020F8B5194DC7
:1057100020E0C068C4680668201D00F0A0FA216A75
:105720002046884794F82400400713D5A0693044E8
:10573000B04206D924616060211DE86800F0C6FA15
:1057400008E000200346014600903246204601F062
:10575000FBF938B1E86801680029DAD12969C5E99F
:105760000310F8BD502080F31188BFF34F8FBFF3B3
:105770006F8FFEE77000002008484068401C4FF023
:10578000500080F3118804D0BFF34F8FBFF36F8FA9
:10579000FEE7BFF34F8FBFF36F8FFEE7A40000203B
:1057A000074CE068016841B1C0680021D0F80000F2
:1057B000FFF728FFFFF7AEFEF3E701210020F7E730
:1057C000700000202DE9F041044600F0A3FA94F99E
:1057D000455004F1240609E0606A48B1304601F002
:1057E000E5F808B100F038FC6D1E6DB2002DF3DC59
:1057F0004FF0FF3684F8456000F0ACFA00F08AFA0A
:1058000094F9445004F1100709E0206948B1384682
:1058100001F0CCF808B100F01FFC6D1E6DB2002D38
:10582000F3DC84F84460BDE8F04100F093BA000076
:105830002DE9F0410546002700F08CFC324E30681F
:1058400008B9FFF769FD706905424ED1C5B3083547
:1058500068070ED005F00700C0F10800054468078E
:1058600007D0502080F31188BFF34F8FBFF36F8FA5
:10587000FEE72DB37068854237D8234818300146BB
:105880000C6801E020460C466168A94202D22168FA
:105890000029F7D131688C4227D007682168016060
:1058A00060680837411B10290FD96019420708D0DA
:1058B000502080F31188BFF34F8FBFF36F8FFEE747
:1058C00013E041606560FFF7D5FD61687068401ABC
:1058D0007060B268904200D2B060706901430020ED
:1058E000C4E90001F068401CF06001F09BF8780703
:1058F00007D0502080F31188BFF34F8FBFF36F8F15
:10590000FEE73846BDE8F0818400002010B5031F93
:105910004FF080741C601B1F21F001011960191FDA
:10592000044B0B6014390A60091F6FF002024438FF
:105930000A6010BD7957000810B5DFED3C2AB5EEBE
:10594000C00A2DED028BD0ED011AF1EE10FA02D251
:10595000B0EE620A06E0F4EEC01AF1EE10FA01D2DF
:10596000B0EE610AF5EEC00AB0EE402AF1EE10FA90
:1059700002D2F0EE620A06E0F4EEE01AF1EE10FA5E
:1059800001D2F0EE610AB5EEC01AF1EE10FA02D2C1
:10599000B0EE621A06E0F4EEC11AF1EE10FA01D28E
:1059A000B0EE611A82EE210A4FF07E51B5EEC00AC8
:1059B000F1EE10FA02D2B0EE620A05E010EE100A23
:1059C000884201DDB7EE000A80EEA18AB5EEC08AFA
:1059D000F1EE10FA02D2B0EE628A05E018EE100A7B
:1059E000884201DDB7EE008AC1EE218AF5EEC08A59
:1059F000F1EE10FA02D2F0EE628A05E018EE900A9B
:105A0000884201DDF7EE008A0020FDF74BFCB0EE86
:105A1000480A0420FDF746FCB0EE680ABDEC028B94
:105A20000820BDE81040FDF73DBC0000000000006C
:105A300070B505462DED0A8BB0EE609AB0EE408A47
:105A40000069FDF7FFFB95ED011ABEEE000AF6EEC8
:105A5000008A21EE000AB4EEC80AF1EE10FA06DC64
:105A600021EE280AB4EEC80AF1EE10FA01D2B0EE27
:105A7000408AB0EE490AFFF743FA10EE106A30464A
:105A8000FAF774FD41EC100BFEF722FDB0EE409AE0
:105A9000B1EE480AF0EE609A10EE100AFAF766FDD1
:105AA00053EC192BFAF7F0FCFAF773FD4B4CE0615D
:105AB0003046FAF75BFD41EC100BFDF7F9FDB0EE57
:105AC000409AF0EE609A18EE100AFAF74FFD53EC88
:105AD000192BFAF7D9FCFAF75CFDA06094ED078A60
