:020000040800F2
:10000000008E00206D02000841540008C13F000826
:1000100085510008D5110008A96300080000000000
:10002000000000000000000000000000AD0100081A
:10003000691200080000000009020008CD590008FC
:10004000870200088702000887020008870200086C
:10005000870200088702000887020008870200085C
:10006000870200088702000887020008870200084C
:10007000870200088702000887020008870200083C
:1000800087020008870200088702000800000000BD
:1000900000000000000000000000000087020008CF
:1000A00087020008C95A0008870200088702000872
:1000B00087020008870200088702000887020008FC
:1000C00087020008870200088702000887020008EC
:1000D00087020008956200088702000800000000FF
:1000E000870200088702000887020008000000005D
:1000F000000000000000000000000000870200086F
:10010000000000008702000887020008870200083C
:1001100000000000000000000000000000000000DF
:10012000870200088702000887020008870200088B
:10013000870200080000000000000000000000002E
:10014000000000000000000000000000870200081E
:10015000870200088702000887020008870200085B
:10016000870200088702000800000000000000006D
:10017000000000000000000000000000000000007F
:1001800000000000870200080000000000000000DE
:1001900087020008DFF810D000F0A4FC00480047F8
:1001A0006D8F0008AFF30080008E00202C4B196883
:1001B0000868B0E8F04F80F30988BFF36F8F4FF005
:1001C000000080F3118870470000000008480068B4
:1001D000006880F308884FF0000080F3148862B64E
:1001E00061B6BFF34F8FBFF36F8F00DF00BF00BF5B
:1001F00008ED00E0DFF80C00016841F470010160D7
:10020000704700BF88ED00E0EFF30980BFF36F8F08
:10021000134B1A681EF0100F08BF20ED108A20E95A
:10022000F04F106009B44FF0500080F31188BFF315
:100230004F8FBFF36F8F0AF053FC4FF0000080F335
:10024000118809BC19680868B0E8F04F1EF0100F5B
:1002500008BFB0EC108A80F30988BFF36F8F704736
:100260006C000020EFF305807047000006488047CF
:1002700006480047FEE7FEE7FEE7FEE7FEE7FEE78B
:10028000FEE7FEE7FEE7FEE7B55A00089501000825
:100290002DE9F05F0546002092469B4688460646BB
:1002A000814640241BE0284641464746224600F04E
:1002B00050FA53465A46C01A914110D31146184677
:1002C000224600F037FA2D1A67EB01084F46224606
:1002D0000120002100F02EFA17EB00094E41201EEC
:1002E000A4F10104DFDC484631462A464346BDE816
:1002F000F09F40EA01039B0703D009E008C9121FE1
:1003000008C0042AFAD203E011F8013B00F8013BCF
:10031000521EF9D27047D2B201E000F8012B491EFB
:10032000FBD270470022F6E710B513460A46044692
:100330001946FFF7F0FF204610BD421C10F8011BC4
:100340000029FBD1801A70472DE9FE4F804681EAD3
:100350000300C00F0C46009021F0004123F000453F
:10036000B8EB0200A94105D24046214690461C4602
:100370000B46024623F00040104347D0270DC7F339
:100380000A00C3F30A510290401A019040286BDA28
:10039000C3F3130040F4801B0098924620B1002361
:1003A000D2EB030A63EB0B0B01985946C0F14002F4
:1003B000504600F0BFF906460D4650465946019A90
:1003C00000F0D7F910EB08006141002487EA1152D0
:1003D00084EAE7731A4340D0009A62B3019A012A73
:1003E0004FEA075215DC001B61EB02014FF000429F
:1003F00002EA0752CDE90042001C41F58011324665
:100400002B4600F05DFA03B0BDE8F08F4046214670
:10041000F9E7001B61EB0201001C41F58013001895
:100420005B412018A2F5001747EB030140EAD570A5
:10043000B6196D4111E06D084FEA360645EAC07500
:100440004FEA0752001B61EB0201001C41F58011CD
:1004500049084FEA30000019514132462B4603B09B
:10046000BDE8F04F00F01DBA0098012240000023C3
:10047000D0EB020263EBE073009821464FEAE07490
:10048000B8EB000061EB0401E9E783F000435BE7B0
:1004900081F0004158E72DE9FE4F81EA030404F0A2
:1004A000004421F0004100944FF0000B23F0004382
:1004B00050EA01045ED052EA03045BD0C3F30A544D
:1004C000C1F30A552C44A4F2F3340194A0FB025466
:1004D000C1F3130141F48011C3F3130343F48013F8
:1004E00001FB024400FB034E840A970A44EA81544C
:1004F00047EA8357A4FB076802958D0A05FB078529
:100500004FEA932C04FB0C542705029D4FEA065832
:1005100047EA1637B5EB08056EEB070C870E920E0F
:1005200047EA811742EA8312A7FB0201B6EB0B01EF
:1005300064EB00042B0D43EA0C335E1844EB1C50B3
:10054000DA465146E7FB0201C5F313044FEA0B33C9
:1005500043EA14534FEA0432019C43EA0603A4F130
:100560000C040294009CCDE900B400F0A9F903B09A
:10057000BDE8F08F00200146F9E72DE9F04D81EA52
:10058000030404F0004B21F0004514464FF0000A2C
:1005900023F0004150EA050220D054EA01021DD0A8
:1005A000C5F30A570246C5F31303C1F31300C1F3A1
:1005B0000A5640F4801543F48013A7EB0608101B7D
:1005C000D64608F2FD3873EB050002D308F10108A6
:1005D00001E092185B41B8F1000F03DA00200146F8
:1005E000BDE8F08D00204FF48011064684460EE0F1
:1005F000171B73EB050705D3121B63EB05030643BB
:100600004CEA010C49084FEA300092185B4150EA6D
:100610000107EDD152EA030012D082EA040083EA16
:100620000501084305D0101BAB4106D2012200236F
:1006300006E000224FF0004302E06FF00102531089
:100640001AEB06004CEB085110EB0A0041EB0B01D2
:10065000BDE8F04D00F025B90EB5C10F80EAE0709D
:100660000844CA07002140F233438DE80E000A46D1
:100670000B4600F025F903B000BD00F0004230F059
:1006800000400AD0C10D01F56071C0F3160042EAC6
:100690000151C208400711437047002001467047CE
:1006A00030B5041E71F1000404DB4FF000444042F9
:1006B00064EB0101141E73F1000405DB1C464FF0CE
:1006C0000043524263EB0403994208BF904230BD9D
:1006D00001F0004330B421F0004150EA010206D09D
:1006E0000A0DA2F56072C1F31301002A02DC30BCCE
:1006F00000207047440F44EAC104C100E01830BC38
:1007000000EBC25000F096B830B50B460146002011
:100710002022012409E021FA02F59D4205D303FAC3
:1007200002F5491B04FA02F52844151EA2F1010244
:10073000F1DC30BD202A04DB203A00FA02F100206F
:1007400070479140C2F1200320FA03F3194390400F
:100750007047202A04DB203A21FA02F0002170477A
:1007600021FA02F3D040C2F1200291400843194619
:100770007047202A06DBCB17203A41FA02F043EA01
:10078000E07306E041FA02F3D040C2F1200291404A
:1007900008431946704700000FB4002300B589B024
:1007A0000CA900910B996FF00042CB601E4B069391
:1007B0001E4B07930423CDE901321D4A08920246DD
:1007C0006B46002000F03AFA09B05DF814FB70B5F2
:1007D00086B006464FF0FF300091CDE901010020C0
:1007E00015460C4604903246694604A8FFF7D4FF2C
:1007F00002460498211825B108B1084600E02046B9
:100800002860049800280DD0002A02DD0098884254
:1008100008D0081B0094CDE901043246694604A8BB
:10082000FFF7BAFF06B070BD750E0008930E000802
:10083000090B00080029A8BF7047401C490008BFE9
:1008400020F00100704710B4B0FA80FC00FA0CF000
:1008500050EA010404BF10BC704749B1CCF1200438
:1008600021FA04F411FA0CF118BF012121430843C5
:10087000A3EB0C01CB1D4FEA00614FEA102042BFF1
:10088000002010BC704700EBC35010440029A4BFE7
:1008900010BC7047401C490008BF20F0010010BC8C
:1008A000704710B5141E73F1000408DA401C41F1C2
:1008B000000192185B411A4301D120F0010010BDE4
:1008C0002DE9F04D92469B4611B1B1FA81F202E05A
:1008D000B0FA80F220329046FFF72CFF04460F4614
:1008E00040EA0A0041EA0B0153465A46084313D036
:1008F000114653EA010019D0C8F140025046FFF7F3
:1009000028FF05460E46504659464246FFF712FF5D
:10091000084305D0012004E020463946BDE8F08DAB
:100920000020054346EAE0762C4337430A986305E6
:10093000E40AA0EB08000022FD0A44EA47540A300A
:1009400002D500200146E9E7010510196941DDE9FA
:10095000084500196941BDE8F04DA2E770B521F0E6
:10096000004303430CD0C1F30A550024D5EB040522
:1009700064EB0403D617AD1AB34102DB0020014635
:1009800070BD201841EB025170BD2DE9F04D0023E0
:100990001A461B1A8A4103DB00200146BDE8F08D90
:1009A000C1F30A52C1F3130141F480154FF0000B5B
:1009B000D10702D100186D41521E0027044640F2B3
:1009C000FF11384601EB620A3E468046024600208F
:1009D0004FF48011FFF7BDFEC2197141BB1846EB01
:1009E0000100B4EB030C75EB000C04D3E41A65EBC7
:1009F000000517460E46241908F101006D41804696
:100A00003428E3DDF91946EB0600091BA84103D29F
:100A10004FF0FF32134601E0002213461BEB0700A4
:100A200046EB0A51BDE8F04DFFF73BBF2DE9FE4F05
:100A3000C3F30A5701F000450024C1F30A56C3F37B
:100A40001303C1F3130143F4801312EB020AA64609
:100A500041F48011009543EB030CA7F1010B16E064
:100A6000B0EB0A0061EB0C01071E71F1000707DA19
:100A70004FF00008D0EB080085F0004568EB01015D
:100A8000171A73EB0107EBD3761E001849415E4538
:100A9000F6DA50EA010209D0CDE900E5002213465A
:100AA0000296FFF70DFF03B0BDE8F08F20460099D6
:100AB000F9E7C1F30A52C1F3130140F2FF3341F4E5
:100AC00080119A4202DA00200146704740F2334317
:100AD0009A42A2F2334202DC5242FFF73ABEFFF7DB
:100AE00029BE0000064C074D06E0E06840F0010317
:100AF00094E8070098471034AC42F6D3FFF74EFB5A
:100B00000026020820260208C0B24FF4F05100F07F
:100B1000FDB900002DE9FF4F087883B09946FF2802
:100B200005D0491C2D2804D00024002008E0002016
:100B30000BE00124F9E700EB800003EB4000491CC7
:100B40000B78FF2BF7D104B14042002302931478B5
:100B500019461D462D2C01D02B2C04D1521C2D2CB6
:100B600013D000240294AA461478FF2C0FD00A2533
:100B7000A3FB057801FB05814FF0000C03FB0C1172
:100B8000521CE3194AEB0101EEE70124EAE7814434
:100B900053EA010002D019F5C87F06DA0398002154
:100BA000C0E9001107B0BDE8F08F0025AE4E2F461A
:100BB000DFF8B882184600F0BDF9CDE90001B9F1BF
:100BC000000002DAC9F1000400E004460023A74A4D
:100BD0001AEB030B42EB045A12E0E00707D02A4657
:100BE000334638464146FFF756FC074688462A46B4
:100BF000334610461946FFF74EFC05460E46641074
:100C0000002CEAD1DDE90001B9F1000F5A46534644
:100C100006DAFFF7B2FC3A464346FFF7AEFC05E0C2
:100C2000FFF739FC3A464346FFF735FC029A0AB112
:100C300081F00041039AC2E90001B3E72DE9FF4FBB
:100C40001F468DB0D7E901464FF0FF382E204546AC
:100C50004FF000090B90B9696D1C0E988847396AEE
:100C6000824688470028F6D1BAF1FF3F0AD024F423
:100C7000D064002E11DDBAF12B0F08D0BAF12D0F80
:100C80000BD102E0404611B08DE744F48064B969AD
:100C90006D1C0E9888478246761E6946600501D510
:100CA0002D2000E02B208DF8000001F1010B0DF14B
:100CB000200809E0B9696D1C0E98884782460F9894
:100CC00044F40074761E0560002E02DDBAF1300F88
:100CD000F0D00B998A453ED144F0800406E00F998C
:100CE000681CA9F1010944F400740860B9696D1C1D
:100CF000761E0E98884782463028F0D02BE00B995C
:100D00008A4505D1200603D444F08004761E18E0FD
:100D1000504607F095F808B30DF11301761E44F420
:100D200000748B4508D2AAF130000BF8010B2006A5
:100D300007D5A9F1010003E0200602D409F1010062
:100D40008146A00502D50F99681C0860B9696D1C21
:100D50000E9888478246002ED1DC53E0002E51DDEC
:100D6000BAF1650F02D0BAF1450F4BD1A00549D5B4
:100D7000B9696D1C24F44074761E0E98884782462B
:100D8000002E0CDD2B2804D0BAF12D0F07D144F42E
:100D90008074B9696D1C0E9888478246761EE005FE
:100DA00001D52D2100E02B2108F8011BCDF82C8066
:100DB00021E00DF12901761E44F4007488450CD21F
:100DC000AAF1300010F0FF0088F8000002D10B9962
:100DD000884509D908F1010806E0E00501D5244855
:100DE00001E042F20F708146B9696D1C0E98884788
:100DF00082460F980560002E04DD504607F020F86B
:100E00000028D6D1F9690E988847FF208BF800009A
:100E100088F800000020069007904B466A4608A913
:100E200006A8FFF777FEA00502D46FF001002AE7BD
:100E300014F0240F0AD0E00714D1DDE90612386857
:100E4000031D3B600068C0E900120BE0DDE906010C
:100E5000FFF73EFC0146E00704D13868021D3A6006
:100E60000068016028460EE7000014400000F03FD3
:100E7000F1D8FFFF426842B1016811F8013B23B18C
:100E8000521EC0E90012184670470121C160881E39
:100E9000704742685AB1C368016843B983688B429E
:100EA00005D0491E521CC0E90012002070474FF0C7
:100EB000FF3070470EB540F2334102910021CDE979
:100EC00000110A460B46FFF7FBFC03B000BD70B5EE
:100ED000C1F30A5201F000450024C1F3130140F2AE
:100EE000FF3341F480119A4201DA002070BD40F2D4
:100EF00033439A42A2F2334203DC5242FFF729FC09
:100F000000E090402C43F1D0404270BD7F2801D9D1
:100F1000002208E0064A02EB5002C007127800D116
:100F2000120902F00F0201209040084070470000B3
:100F3000E02402080EB540F2334202920022CDE9CD
:100F400000221346FFF7BCFC03B000BD70B58C183F
:100F500010F8015B15F0070301D110F8013B2A11CD
:100F600006D110F8012B03E010F8016B01F8016BBA
:100F70005B1EF9D12B0705D40023521E0DD401F8B6
:100F8000013BFAE710F8013BCB1A921C03E013F87F
:100F9000015B01F8015B521EF9D5A142D8D30020B4
:100FA00070BD00001CB5012409F0B0FA34480321DB
:100FB00000236202CDE9001032A135480AF008FA98
:100FC0000446012C02D133A005F0F0F93848032182
:100FD00000234FF40072CDE9001036A138480AF022
:100FE000F7F90446012C02D136A005F0DFF93C48A0
:100FF00004210023CA01CDE900103AA13C480AF0BF
:10100000E7F90446012C02D13AA005F0CFF9404897
:10101000032100234FF40072CDE900103DA14048A8
:101020000AF0D6F90446012C02D13EA005F0BEF923
:101030004348052100234FF40072CDE9001041A17F
:1010400045480AF0C5F90446012C02D143A005F039
:10105000ADF94C4804210023CA01CDE900104AA192
:101060004C480AF0B5F90446012C02D14AA005F01B
:101070009DF95048006809F007FC09F071FA1CBDA1
:10108000180000204C45445F5461736B0000000061
:10109000DD4D0008B4B4BDA8204C45445F546173D5
:1010A0006B20C8CECEF1B3C9B9A6210A0A00000050
:1010B000240000204B45595F5461736B0000000011
:1010C000AD440008B4B4BDA8204B45595F546173CA
:1010D0006B20C8CECEF1B3C9B9A6210A0A00000020
:1010E00020000020454331315F5461736B000000E4
:1010F000AD170008B4B4BDA820454331315F546139
:10110000736B20C8CECEF1B3C9B9A6210A0A00007C
:101110001C0000204C43445F5461736B00000000CE
:10112000B94C0008B4B4BDA8204C43445F5461736B
:101130006B20C8CECEF1B3C9B9A6210A0A000000BF
:1011400028000020436C6F7365646C6F6F705F469E
:101150004F435F5461736B00D9110008B4B4BDA84C
:1011600020436C6F7365646C6F6F705F464F435FB5
:101170005461736B20C8CECEF1B3C9B9A6210A0A57
:10118000000000002C00002055534152545F546170
:10119000736B0000A5620008B4B4BDA8205553418C
:1011A00052545F5461736B20C8CECEF1B3C9B9A657
:1011B000210A0A001400002010B501F0D1FB04F050
:1011C0001FFC03F047FE03F0FBFE03F0DBFE03F021
:1011D00071FF10BD00BFFEE708B500BF17A005F006
:1011E000E5F8642009F0B8FA9FED170A174880ED7A
:1011F000000A1749002003F079FF002003F0C4FF24
:10120000002004F0D1F8002004F0B2F911A005F09C
:10121000CDF801220421134801F0BCF80CE00B4882
:1012200090ED000A002007F0C1FE002007F020FE2C
:101230000321684609F0BEFAF1E700004153353654
:1012400030300D0A00000000000000003C000020CB
:10125000740900204D6F746F722072656164792E7D
:101260000D0A0000000402407047000010B5FD4860
:101270004078052814D1FC48007990B9FA484078A4
:10128000401EF949487008464078FF28F2D10846C8
:101290000078F64901EB0010007B401EF2494870CF
:1012A00006E1F1480078F14901EB00108068EE4951
:1012B000497801EB410100EB8100007AA0B90020E0
:1012C000E949087108464078401E48700846407851
:1012D000FF28E5D108460078E44901EB0010007BC7
:1012E000401EE1494870E3E0DF490978DF4A02EB3C
:1012F00001118968DC4A527802EB420201EB82005C
:1013000007F0B5FF0446012C04D0022C20D0032C9A
:101310007DD16AE0D4480078D44901EB00108068A0
:10132000D149497801EB410100EB81004068006838
:10133000401ECD490978CD4A02EB01118968CA4A9D
:10134000527802EB420201EB820149680860AEE08C
:10135000C548007830B3C4484078042822DAC2482F
:101360000078C24901EB00108068BF49497801EB61
:10137000410100EB8100406890ED000ADFEDBC0AFE
:1013800030EE600AB8480078B84901EB0010806878
:10139000B549497801EB410100EB8100406880EDDF
:1013A000000A21E0B0480078B04901EB00108068E5
:1013B000AD49497801EB410100EB8100406890EDB7
:1013C000000AF7EE000A30EE600AA7480078A74945
:1013D00001EB00108068A449497801EB410100EB62
:1013E0008100406880ED000A61E09F48007878BB8A
:1013F0009D48407804282CDA9B4800789B4901EBF3
:10140000001080689849497801EB410100E04AE00A
:1014100000EB8100406890ED001BB0EE410AF0EE59
:10142000610A9FED941B53EC112B51EC100BFFF74D
:101430002CF88D4A12788D4B03EB021292688A4B7E
:101440005B7803EB430302EB8302526803C229E09B
:10145000FFE785480078854901EB001080688249E4
:10146000497801EB410100EB8100406890ED001BE1
:10147000B0EE410AF0EE610A9FED801B53EC112B98
:1014800051EC100BFFF701F8774A1278774B03EB1A
:1014900002129268744B5B7803EB430302EB830206
:1014A000526803C203E077A004F080FF00BF00BFD2
:1014B0006C484078062813D16B48007988B96A488F
:1014C0004078401C68494870084640780978674A67
:1014D00002EB0111097B8842EDD10020624948707E
:1014E00021E161480078614901EB001080685E49A4
:1014F000497801EB410100EB8100007A98B90020A6
:101500005949087108464078401C487008464078A0
:101510000978564A02EB0111097B8842E0D100208C
:1015200051494870FFE050490978504A02EB0111D7
:1015300089684D4A527802EB420201EB820007F0C3
:1015400096FE0446012C04D0022C20D0032C7DD121
:101550006AE045480078454901EB0010806842493F
:10156000497801EB410100EB810040680068401CB4
:101570003D4909783D4A02EB011189683A4A52789F
:1015800002EB420201EB820149680860CAE036487A
:10159000007830B334484078042822DA32480078A2
:1015A000324901EB001080682F49497801EB410175
:1015B00000EB8100406890ED000ADFED2D0A30EE6F
:1015C000200A29480078294901EB00108068264943
:1015D000497801EB410100EB8100406880ED000A91
:1015E00021E021480078214901EB001080681E4964
:1015F000497801EB410100EB8100406890ED000A61
:10160000F7EE000A30EE200A17480078174901EB80
:10161000001080681449497801EB410100EB81001A
:10162000406880ED000A7DE00F480078C8B90E4898
:101630004078042847DA0C4800780C4901EB001088
:1016400080680949497801EB410100E065E000EB61
:101650008100406890ED001BB0EE410AF0EE610A97
:101660001AE030E09C0200205802002018020020FE
:10167000ACC5273700000080B5F8E43E000000004C
:101680000000F03F4543313120556E6B6E6F776E31
:1016900020747970650A00001FED0A1B53EC112BB2
:1016A00051EC100BFEF750FE3D4A12783D4B03EB18
:1016B000021292683A4B5B7803EB430302EB83021E
:1016C000526803C228E036480078364901EB001022
:1016D00080683349497801EB410100EB81004068A3
:1016E00090ED001BB0EE410AF0EE610A1FED1D1BEC
:1016F00053EC112B51EC100BFEF726FE284A127802
:10170000284B03EB02129268254B5B7803EB4303F3
:1017100002EB8302526803C204E0AFF2980004F0C7
:1017200045FE00BF00BF20484078012818D11C4862
:101730000079012803D100201949087110E01848E8
:101740000078184901EB001080681549497801EBD1
:10175000410100EB8100007A10B1012010490871AD
:101760001148407808280AD10D480078401C0C49DF
:10177000087008460078042801D1002008700A4843
:10178000407807280AD106480078401E04490870AE
:1017900008460078FF2801D10320087010BD000022
:1017A00058020020180200209C02002000BF1FE009
:1017B0001048007820B90521002000F057F917E003
:1017C00000F096F9044600F019F80B4948700846F5
:1017D000407840B1084640788978884203D006486E
:1017E000407805498870FFF741FD052008F0B4FFF7
:1017F000DEE700009B0200209C02002010B501469D
:101800000020012900D105204A1C02B90620032925
:1018100000D10720CA1C02B90820022936D1894A02
:101820001268894B9A4204DA864A1268521C854B28
:101830001A60864A1278142393FBF2F2814B1B68DC
:101840009A4202D10122824B1A70824A1268002AFF
:101850000BDD7E4A1278962393FBF2F27D4B1B68D8
:101860009A4202DB01227C4B1A70784A12784FF4BC
:10187000167393FBF2F2734B1B689A4251D101220B
:10188000764B1A700022724B1A704AE06F4A127837
:10189000142393FBF2F26B4B1B689A420BDD002280
:1018A000684B1A606A4B1A706C4B1A706A4B1A704C
:1018B000684B1A6035E0664A1278012A2AD1664AD6
:1018C000127842B9634A1268002A04DB614A12683E
:1018D000521C604B1A60604A1278012A0BD15B4A95
:1018E0001278962393FBF2F25A4B1B689A4202DB62
:1018F0000222594B1A70584A12785AB9534A127830
:10190000962393FBF2F2534B1B689A4202DA0022B1
:101910004F4B1A70514A1278012A02D100224F4BC4
:101920001A704A4A1278142393FBF2F2454B1B6853
:101930009A4279DA464A12783ABB444A1278962398
:1019400093FBF2F2434B1B689A421EDA3F4A12782D
:101950004FF4167393FBF2F23A4B1B689A4214DD74
:101960003F4A12788AB93F4A1278072A03D03D4A83
:101970001278082A01D1FF2000E001200022314B1B
:101980001A60344B1A60344B1A70334A1278022AA8
:1019900016D1304A1268002A12DD2C4A127896239A
:1019A00093FBF2F22B4B1B689A4209DB02200022C8
:1019B000244B1A60274B1A60254B1A70264B1A705D
:1019C000264A1278012A1ED1204A12784FF4167343
:1019D00093FBF2F21B4B1B689A4214DC224A1268FA
:1019E000521C214B1A60194A1278C82393FBF2F259
:1019F0001D4B1B68B3FBF2F402FB14321AB9002230
:101A0000194B1A600420154A12786AB90F4A1278E5
:101A10004FF4167393FBF2F20A4B1B689A4203DCF5
:101A200003200022074B1A6028B10E4A1278904218
:101A300001D00C4A1070FF2803D100200022094B6E
:101A40001A7010BD90020020A08601009C020020A8
:101A500098020020940200209A020020990200209F
:101A6000890200209F020020A002002070B50546D8
:101A70000C461DB900201349087002E001201149ED
:101A8000087004B90124104804704FF480510F48C5
:101A900000F078FC0E4908704FF480410B4800F0CC
:101AA00071FC0C49087000200B4908600B49086064
:101AB0000B4908700B4908700B49087001200B494D
:101AC000087070BD8C0200209C02002000040240BF
:101AD0008A0200208B020020900200209402002045
:101AE00098020020990200209A0200209B02002008
:101AF00010B500246D48007840BB4FF480516C480D
:101B000000F040FC6B49097888421ED04FF48051A8
:101B1000674800F037FC50B94FF48041644800F04A
:101B200031FC012801D1012401E04FF0FF344FF4D2
:101B300080515F4800F026FC5E4908704FF48041F8
:101B40005B4800F01FFC5C4908708CE04FF480514A
:101B5000574800F017FC574909788842F5D04FF4F0
:101B60008051534800F00EFC012836D152480078CD
:101B7000012805D181034E4800F004FC00B901247E
:101B80004D48007838B94FF48041494800F0FAFBDD
:101B9000012800D1841E4FF48041454800F0F2FB3B
:101BA00045490978884206D14FF48041404800F009
:101BB000E9FB00B901244FF480413D4800F0E2FB0D
:101BC0003D490978884240D14FF48041384800F0BF
:101BD000D9FB012839D1841E37E037480078012825
:101BE00006D18103324800F0CDFB08B94FF0FF3435
:101BF0003148007838B94FF480412D4800F0C2FBDD
:101C0000012800D101244FF48041294800F0BAFB9B
:101C100029490978884207D14FF48041244800F0CF
:101C2000B1FB08B94FF0FF344FF48041204800F079
:101C3000A9FB21490978884207D14FF480411C480B
:101C400000F0A0FB012800D101244FF48051184876
:101C500000F098FB174908704FF48041144800F0D9
:101C600091FB154908704FF40051114800F08AFBB0
:101C700078B924B91148007808B9022409E0012094
:101C80000E490870012C00D10324601C08B96FF0C4
:101C900002044FF40051064800F074FB012802D101
:101CA000002006490870204610BD00008C0200206C
:101CB000000402408A0200208B02002089020020DA
:101CC00072B600BFFEE770B5044609F021FC054678
:101CD00065606068206070BD00F108010A4A1170FB
:101CE0000A49087011460978091D094A1170074907
:101CF0000978091D074A11700021074A1170917077
:101D00005170D170117170471A0100201901002023
:101D10001701002018010020580200203EB5994804
:101D20000078994901EB0010007B00287DD0002449
:101D30001EE194484078A04215D0002093490978CC
:101D40004FF6FF72CDE90021029091480078914A48
:101D5000127804FB020081B24FF478438EA2DC209B
:101D600002F089FF2DE087480079A8B90020874953
:101D700009784FF6FF72CDE900210290844800787F
:101D8000844A127804FB020081B24FF4784383A2A4
:101D9000DC2002F070FF14E000207C4909784FF647
:101DA000FF72CDE90021029079480078794A1278D3
:101DB00004FB020081B24FF4784379A2DC2002F0E8
:101DC0005AFF70490978704A02EB0111896804EBE7
:101DD000440201EB820007F04AFA05462846012D2D
:101DE00004D0022825D003287DD16DE06748007813
:101DF0004FF6FF714FF47842CDE90021029061481F
:101E00000078614B03EB0010806804EB440300EBA7
:101E10008300406802685E4800785E4B1B7804FBD4
:101E2000030081B20423782000E0AAE002F0B8FEAB
:101E30009BE05448007808B1032C22DB534800781B
:101E40004FF6FF71CDE900104E4800784E4A02EB84
:101E50000010806804EB440200EB82004068D0ED83
:101E6000000AB0EE600A4A4800784A4A127804FB39
:101E7000020081B24FF478430622782002F09CFDE4
:101E800021E0424800784FF6FF71CDE900103D484F
:101E900000783D4A02EB0010806804EB440200EB3E
:101EA00082004068D0ED000AB0EE600A3848007841
:101EB000384A127804FB020081B24FF478430622BC
:101EC000782002F0F3FD50E02E48007808B1032C92
:101ED00024DB2E4800784FF6FF71CDE90010294829
:101EE0000078294A00E03CE002EB0010806804EB37
:101EF000440200EB82004068D0ED000AB0EE600AB8
:101F000023480078234A127804FB020081B24FF480
:101F100078430622782002F04FFD21E01B4800782C
:101F20004FF6FF71CDE9001016480078164A02EB13
:101F30000010806804EB440200EB82004068D0EDA2
:101F4000000AB0EE600A12480078124A127804FBC8
:101F5000020081B24FF478430622782002F0A6FDF9
:101F600003E010A004F022FA00BF00BF601CC4B25E
:101F700004480078044901EB0010007BA0423FF7C1
:101F8000D8AE3EBD580200201802002019010020E2
:101F90001701002018010020200000003C00000074
:101FA0002A000000556E6B6E6F776E207479706535
:101FB0000A0000003EB538490978384A02EB0111A1
:101FC0000868FEF7BAF9C5B247F67C50009034486D
:101FD0000378F0220021084602F03DFB4FF6FF7027
:101FE000F0231A4600902E480178002002F033FBBF
:101FF00047F67C50F0236E22009029480178104665
:1020000002F0C5FA00202749097847F67C52CDE94D
:102010000021029020490978204B03EB01110A6846
:102020007821A1EBC50188B24FF47843002102F07A
:1020300022FE19480078194901EB0010007B48B3D3
:1020400000241FE00020184909784FF6FF72CDE9FF
:102050000021029010480078104B03EB00108068BC
:1020600004EB440350F823200D4800780F4B1B78F5
:1020700004FB030081B24FF47843002002F0FBFD23
:10208000601CC4B204480078044901EB0010007BD6
:10209000A042D7DC3EBD00005802002018020020FC
:1020A000170100201A01002019010020180100204A
:1020B00070B50446204600F00FF805462068A84297
:1020C00004D92068C0F1FF362E4401E020682E1AA2
:1020D000A6602560304670BD10B5044609F018FAB8
:1020E0006060606810BD70B50446A56D00F058F9D9
:1020F000064694F83500022808D08020606500BFAD
:10210000002084F8340000BF012070BD2068006802
:1021100020F01600216808602068406920F08000E7
:1021200021684861206C08B9A06C28B1206800685B
:1021300020F00800216808602068006820F0010095
:102140002168086010E000F02BF9801B05280BD9EE
:1021500020206065032084F8350000BF002084F84B
:10216000340000BF0320D0E72068006800F00100C1
:102170000028E8D194F85C103F208840A860012036
:1021800084F8350000BF002084F8340000BF00BF91
:10219000BBE7014691F83500022803D0802048654E
:1021A00001207047052081F835000868006820F09C
:1021B00001000A6810600020F3E70000F8B502464D
:1021C0000B460025002400200021C7E0012606FA66
:1021D00001F51E6806EA0504AC4274D11E7906F0CA
:1021E0000306012E04D01E7906F00306022E13D139
:1021F00090684F000326BE40B0434F00DE68BE40EB
:1022000030439060506801268E40B0431E79C6F37B
:1022100000168E40304350601E7906F00306032EF0
:1022200009D0D0684F000326BE40B0434F009E68DF
:10223000BE403043D0601E7906F00306022E13D153
:10224000CF0802F1200656F827004E07F70E0F269A
:10225000BE40B0434F07FF0E1E69BE403043CF085B
:1022600002F1200646F8270010684F000326BE4002
:10227000B0431E7906F003064F00BE4030431060A5
:102280005E6806F44036002E67D000BF0026009638
:10229000344E366846F48046324F3E603E463668DD
:1022A00006F48046009600BF00BF2F4E8F0856F8F8
:1022B00027008E07370F0F26BE40B0432B4EB24289
:1022C00002D1002615E048E0294EB24201D1012694
:1022D0000FE0284EB24201D102260AE0264EB24259
:1022E00001D1032605E0254EB24201D1042600E0CB
:1022F00007268F073F0FBE4030431B4E8F0846F81E
:1023000027001F4E3068A0435E6806F4801606B1B1
:1023100020431B4E3060361D3068A0435E6806F4D3
:10232000001606B12043164E361D3060144E361F7F
:102330003068A0435E6806F4003606B12043104EB4
:10234000361F3060361F3068A0435E6806F4803662
:1023500006B120430A4E083E3060491C1029FFF4A4
:1023600035AFF8BD44380240083801400000024053
:102370000004024000080240000C0240001002402D
:10238000083C0140024613690B400BB1012000E0FC
:10239000002070470AB1816101E00B04836170473E
:1023A00001480068704700005C00002070B50446DA
:1023B0000CB9012070BD94F83D0028B9002084F8C4
:1023C0003C00204600F05EFA242084F83D0020689E
:1023D000006820F00100216808602068006840F46F
:1023E0000040216808602068006820F400402168EF
:1023F000086000F09DFC05465C496068884206D88C
:102400005B48854201D2012007E0002005E05948E1
:10241000854201D2012000E00020012800D1C9E757
:102420005548B5FBF0F62068406820F03F00304387
:10243000216848604D496068884201D8701C07E0F7
:102440004FF4967070434FF47A71B0FBF1F0401C7A
:102450002168096A21F03F01084321680862434965
:102460006068884214D8681E61684900B0FBF1F0CA
:10247000401CC0F30B00042801D204203DE0681E7C
:1024800061684900B0FBF1F0401CC0F30B0034E080
:10249000A06838B9681E616801EB4101B0FBF1F03A
:1024A000401C0AE0681E616801EBC10202EB0111E9
:1024B000B0FBF1F0401C40F48040C0F30B0008B9C1
:1024C00001201AE0A06848B9681E616801EB41016B
:1024D000B0FBF1F0401CC0F30B000CE0681E61681B
:1024E00001EBC10202EB0111B0FBF1F0401CC0F3A3
:1024F0000B0040F4804040F400402168C9694CF66C
:10250000FF72914308432168C861D4E90701084379
:102510002168096821F0C001084321680860D4E9F6
:10252000031008432168896848F2FF329143084349
:1025300021688860D4E9050108432168C96821F051
:10254000FF0108432168C8602068006840F001006E
:102550002168086000202064202084F83D000020CD
:10256000206384F83E0000BF24E70000A08601003D
:1025700080841E0000093D0040420F002DE9FC5FF1
:1025800004460F4690469946DDE90CAB0E9EFFF7D8
:1025900007FF054694F83D00202870D11923012239
:1025A000B5492046009501F0DDFD10B10220BDE8DF
:1025B000FC9F00BF94F83C00012801D10220F6E7FF
:1025C000012084F83C0000BF2068006800F0010092
:1025D00028B92068006840F0010021680860206880
:1025E000006820F4006021680860222084F83D0023
:1025F000402084F83E0000202064C4F824A0A4F801
:102600002AB0608D20859D48E0624B46424639469F
:102610002046CDE9006501F0F5FC08B10120C6E7D0
:10262000208D88B900BF002001902068406901908A
:1026300020688069019000BF00BF2068006840F4F6
:1026400000702168086040E0208D012818D12068C2
:10265000006820F480602168086000BF00200190BD
:1026600020684069019020688069019000BF00BF28
:102670002068006840F400702168086025E0F8E0F8
:10268000208D022816D12068006820F4806021681F
:1026900008602068006840F400602168086000BF9E
:1026A00000200190206840690190206880690190B5
:1026B00000BF0AE000BF002001902068406901903F
:1026C00020688069019000BF00BFC3E0208D03280F
:1026D0007ED8208D012815D12A463146204601F0AA
:1026E0001DFE08B1012062E720680069616A087078
:1026F000606A401C6062208D401E2085608D401EF7
:102700006085A7E0208D02282AD1334600225C494B
:102710002046009501F026FD08B1012047E720681A
:10272000006840F400702168086020680069616AF0
:102730000870606A401C6062208D401E2085608D9C
:10274000401E608520680069616A0870606A401CEC
:102750006062208D401E2085608D401E608579E07E
:102760003346002246492046009501F0FBFC08B1A3
:1027700001201CE72068006820F480602168086060
:1027800020680069616A0870606A401C6062208D80
:10279000401E2085608D401E6085334600223849EA
:1027A0002046009501F0DEFC08B10120FFE620681C
:1027B000006840F400702168086020680069616A60
:1027C0000870606A401C6062208D401E208500E019
:1027D00010E0608D401E608520680069616A0870A5
:1027E000606A401C6062208D401E2085608D401E06
:1027F00060852FE02A463146204601F08FFD08B162
:102800000120D4E620680069616A0870606A401C93
:102810006062208D401E2085608D401E608520688E
:102820004069C0F38000A8B1208D032805D120683D
:10283000006820F480602168086020680069616A8F
:102840000870606A401C6062208D401E2085608D8B
:10285000401E6085208D00287FF438AF202084F84A
:102860003D00002084F83E0000BF84F83C0000BF1B
:102870009DE602209BE60000020010000000FFFF22
:102880000400010010B586B00446142101A8FDF72C
:1028900049FD2949206888424CD100BF00200090A2
:1028A0002648006840F00100244908600846006896
:1028B00000F00100009000BF00BF00BF00200090AA
:1028C0000846006840F0020008600846006800F012
:1028D0000200009000BF00BF8815019012200290F6
:1028E00000200390032004900420059001A91448BF
:1028F000FFF764FC1020019012200290002003904A
:10290000032004900920059001A90E48FFF756FC0A
:1029100000BF0020009009481030006840F400001B
:102920000649103108600846006800F40000009075
:1029300000BF00BF06B010BD005C00403038024050
:10294000000002400004024003480068034909787F
:1029500008440149086070475C00002064000020C2
:1029600010B50D48006840F400700B490860084637
:10297000006840F4806008600846006840F4807099
:102980000860032000F0D6F80F2000F007F800F0F0
:1029900055F8002010BD0000003C0240F0B587B0A3
:1029A00004460026002700BF002000901E48006853
:1029B00040F001001C4908600846006800F0010072
:1029C000009000BF00BF01A902A800F089F900F043
:1029D000BFF906461548B6FBF0F0471E14481549E6
:1029E000086040F2E7311348C1604760002101618F
:1029F0008160816100F0B2FC054695B90D4800F098
:102A0000FBFC05466DB9192000F042F8102C07D2E6
:102A100000222146192000F04FF80748046000E02A
:102A20000125284607B0F0BD4438024040420F005F
:102A300000000140580B00206000002008B500BFD6
:102A4000002000901148006840F480400F49086061
:102A50000846006800F48040009000BF00BF00BF3F
:102A600000200090081F006840F08050091F086097
:102A70000846006800F08050009000BF00BF0022B0
:102A80000F21901E00F018F808BD000044380240E5
:102A90000146084600280DDB00BF00BF00F01F0301
:102AA00001229A4043099B0003F1E023C3F800216F
:102AB00000BF00BF00BF70472DE9F05F80460D46A4
:102AC0001646002703F09AFC074639462A46334645
:102AD00001F00700C0F1070ABAF1040F02D94FF064
:102AE000040A01E0C0F1070AD14600F1040ABAF174
:102AF000070F02D24FF0000A01E0A0F1030AD4460A
:102B00004FF0010A0AFA09FAAAF1010A0AEA020ACE
:102B10000AFA0CFA4FF0010B0BFA0CFBABF1010BAC
:102B20000BEA030B4AEA0B042146404603F06EFC15
:102B3000BDE8F09F00BF00F00702064B19684FF692
:102B4000FF031940044B0B4343EA0221014B196078
:102B500000BF70470CED00E00000FA0570B50446B8
:102B60000D460CB9012070BD5848006800F0070000
:102B7000A84209D255490D700846006800F00700C8
:102B8000A84201D00120EEE7207800F002000228E0
:102B90001DD1207800F00400042805D14C480068BD
:102BA00040F4E0504A490860207800F00800082806
:102BB00005D14748006840F46040454908604448F2
:102BC000006820F0F000A1680843414908602078BF
:102BD00000F00100A8B36068012807D13C4808381C
:102BE0000068C0F34040B8B90120BCE76068022823
:102BF00002D06068032807D1354808380068C0F360
:102C0000406048B90120AEE7314808380068C0F399
:102C1000400008B90120A6E72D48006820F0030015
:102C2000616808432A490860FFF7BAFB064609E0D5
:102C3000FFF7B6FB801B41F28831884202D903209E
:102C400091E707E02248006800F00C006168B0EBF3
:102C5000810FEDD11D48006800F00700A84209D996
:102C60001A490D700846006800F00700A84201D01C
:102C7000012078E7207800F00400042807D11448E8
:102C8000006820F4E050E1680843114908602078AA
:102C900000F00800082808D10D48006820F46040C2
:102CA000216940EAC1000A49086000F061F808495A
:102CB0000968C1F30311074A515CC840064908601E
:102CC00006480068FFF76AFE00204CE7003C02401F
:102CD00008380240C4B900086800002060000020E5
:102CE0000F2202600D4A126802F0030242600B4A92
:102CF000126802F0F0028260084A126802F4E052A0
:102D0000C260064A126802F46042D2080261044AB4
:102D1000126802F007020A6070470000083802409B
:102D2000003C024001480068704700006800002035
:102D300000B5FFF7F7FF04490968C1F38221034A90
:102D4000515CC84000BD000008380240D4B90008FA
:102D500000B5FFF7E7FF04490968C1F34231034AB0
:102D6000515CC84000BD000008380240D4B90008DA
:102D70002DE9F047002400250026A14625480068DB
:102D800000F00C0020B1042805D008283AD105E055
:102D9000DFF8849039E0DFF8849036E01D48001FAA
:102DA000006800F03F041B48001F006800F480002A
:102DB00078B11A481749091F0968C1F38811A0FBA7
:102DC00001700146224600233846FDF761FA0546A8
:102DD0000EE011480F49091F0968C1F38811A0FBD3
:102DE00001700146224600233846FDF751FA054698
:102DF0000848001F0068C0F30140401C4600B5FBB6
:102E0000F6F902E0DFF8109000BF00BF4846BDE8C9
:102E1000F0870000083802400024F40040787D016B
:102E2000F8B504460CB90120F8BD207800F0010087
:102E3000002874D0F948006800F00C0004280DD078
:102E4000F648006800F00C00082813D1F348001F72
:102E5000006800F48000B0F5800F0BD1EF4808380F
:102E60000068C0F34040002859D06068002856D15F
:102E70000120D9E700BF6068B0F5803F08D1E7487E
:102E80000838006840F48030E449083908601EE0E2
:102E90006068B0F5A02F0DD1E0480838006840F414
:102EA0008020DE49083908600846006840F4803018
:102EB00008600CE0D9480838006820F48030D74911
:102EC000083908600846006820F48020086000BFC8
:102ED000606890B1FFF764FA054606E0FFF760FA14
:102EE000401B642801D903209EE7CC4808380068BD
:102EF000C0F340400028F1D011E0FFF751FA054639
:102F000006E0FFF74DFA401B642801D903208BE748
:102F1000C24808380068C0F340400028F1D120784A
:102F200000F0020002285FD1BC48006800F00C00ED
:102F300058B1BA48006800F00C0008281CD1B74806
:102F4000001F006800F48000B0B9B4480838006879
:102F5000C0F3400020B1E068012801D0012063E700
:102F6000AE480838006820F0F800216940EAC10046
:102F7000AA490839086037E0E06800B30120A84991
:102F80000860FFF70DFA054606E0FFF709FA401B57
:102F9000022801D9032047E7A04808380068C0F399
:102FA00040000028F1D09D480838006820F0F80063
:102FB000216940EAC10099490839086014E00020FD
:102FC00097490860FFF7ECF9054606E0FFF7E8F9D6
:102FD000401B022801D9032026E7904808380068E2
:102FE000C0F340000028F1D1207800F00800082844
:102FF0002CD16069A8B101208A490860FFF7D0F997
:10300000054606E0FFF7CCF9401B022801D9032052
:103010000AE782486C300068C0F340000028F1D015
:1030200014E000207F490860FFF7BAF9054606E082
:10303000FFF7B6F9401B022801D90320F4E67748D0
:103040006C300068C0F340000028F1D1207800F017
:103050000400042870D1002770483830006800F060
:10306000805090B900BF002000906C483830006854
:1030700040F080506949383108600846006800F027
:103080008050009000BF00BF01276748006800F42F
:103090008070B0B96448006840F48070624908608C
:1030A000FFF77EF9054606E0FFF77AF9401B022894
:1030B00001D90320B8E65C48006800F4807000285D
:1030C000F2D000BFA068012808D1544868300068D9
:1030D00040F001005149683108601DE0A0680528F2
:1030E0000DD14E486830006840F004004B4968310B
:1030F00008600846006840F0010008600CE047489E
:103100006830006820F001004449683108600846D2
:10311000006820F00400086000BFA068A8B1FFF7B5
:103120003FF9054609E0FFF73BF9401B41F28831C2
:10313000884202D9032077E626E0384868300068E4
:10314000C0F340000028EED013E0FFF729F9054650
:1031500008E0FFF725F9401B41F28831884201D988
:10316000032061E62D4868300068C0F34000002865
:10317000EFD1012F07D129483830006820F0805066
:1031800026493831086000BFA069002845D023488F
:10319000006800F00C0008285DD0A069022845D125
:1031A00000201F490866FFF7FBF8054606E0FFF719
:1031B000F7F8401B022801D9032035E617480838E4
:1031C0000068C0F340600028F1D1D4E9070108434A
:1031D000616A40EA81110122A06AC2EB500041EA13
:1031E00000412C20005D41EA00600C49091F086085
:1031F00001200B490866FFF7D3F8054606E0FFF704
:10320000CFF8401B022801D903200DE603480838F7
:103210000068C0F340600028F1D049E0083802405F
:1032200000004742800E47420070004000202149C4
:103230000866FFF7B5F8054606E0FFF7B1F8401B52
:10324000022801D90320EFE51B480068C0F3406065
:103250000028F2D12CE0A069012800D1E4E516484D
:10326000001D0668A069012820D006F48001E069ED
:1032700081421BD106F03F01206A814216D147F6F8
:10328000C0703040616AB0EB811F0FD106F440314D
:103290000122A06AC2EB5000B1EB004F06D106F04C
:1032A00070612C20005DB1EB006F01D00120BBE507
:1032B0000020B9E5000047420038024070477047DF
:1032C00030B502460B4600BF92F83C00012801D100
:1032D000022030BD012082F83C0000BF022082F8AD
:1032E0003D00106844681068816824F07004186814
:1032F000044310684460144D1068A84213D010684D
:10330000B0F1804F0FD0114D1068A8420BD0104D76
:103310001068A84207D00F4D1068A84203D00E4D88
:103320001068A84205D121F0800158680143106857
:103330008160012082F83D0000BF002082F83C003F
:1033400000BF00BFC5E700000000014000040040CE
:1033500000080040000C00400040014010B5044649
:103360000CB9012010BD94F83D0028B9002084F864
:103370003C00204600F026F8022084F83D00211D84
:10338000206802F0A9FB012084F8460000BF84F801
:103390003E0001213F2001554020015541200155AB
:1033A00000BF00BF012084F84200432001554420A3
:1033B00001554520015500BF012084F83D00002043
:1033C000D0E7000008B50A4A016891420FD100BF5A
:1033D000002100910749096841F00201054A116086
:1033E0001146096801F00201009100BF00BF08BD4D
:1033F0000004004040380240014691F83D00012899
:1034000001D001207047022081F83D000868C068A3
:1034100040F001000B68D860164B0868984213D042
:103420000868B0F1804F0FD0134B086898420BD05A
:10343000124B0868984207D0114B0868984203D095
:10344000104B086898420CD10868806800F00702A9
:10345000062A0CD00868006840F001000B6818606C
:1034600005E00868006840F001000B681860002063
:10347000C8E70000000001400004004000080040D0
:10348000000C0040004001402DE9F04104460D468B
:10349000002700BF94F83C00012802D10220BDE8BB
:1034A000F081012084F83C0000BF022084F83D0038
:1034B0002068866826F0770626F47F4620688660B6
:1034C0002868502833D00CDC202850D004DC002899
:1034D0004BD0102851D149E0302849D040284CD158
:1034E00039E060282DD0702807D0B0F5805F03D078
:1034F000B0F5005F41D10DE041E0D5E902136A6803
:10350000206802F054FB2068866846F07706206841
:10351000866034E0D5E902136A68206802F047FB50
:103520002068806840F480402168886027E0EA686D
:103530006968206802F00CFC5021206802F042FB10
:103540001DE0EA686968206802F015FC60212068C7
:1035500002F038FB13E0EA686968206802F0F8FBC3
:103560004021206802F02EFB09E000BF00BF00BF31
:103570002968206802F026FB01E0012700BF00BF98
:10358000012084F83D0000BF002084F83C0000BF0B
:10359000384684E7704770B504462068C5682068DF
:1035A000066906F00200022819D105F0020002287F
:1035B00015D1401F216808610120207720688069AB
:1035C00000F0030018B12046FFF7E4FF05E02046B5
:1035D00000F0E6F8204600F09AF90020207706F087
:1035E0000400042819D105F00400042815D1C043B3
:1035F00021680861022020772068806900F440700B
:1036000018B12046FFF7C6FF05E0204600F0C8F8D5
:10361000204600F07CF90020207706F008000828FA
:1036200019D105F00800082815D1C04321680861A8
:10363000042020772068C06900F0030018B12046FC
:10364000FFF7A8FF05E0204600F0AAF8204600F0AA
:103650005EF90020207706F01000102819D105F03F
:103660001000102815D1C043216808610820207778
:103670002068C06900F4407018B12046FFF78AFF47
:1036800005E0204600F08CF8204600F040F90020CC
:10369000207706F0010048B105F0010030B16FF06D
:1036A000010021680861204600F0A8F906F08000BA
:1036B000802809D105F08000802805D1C043216809
:1036C00008612046FFF7FAFD06F04000402809D1C6
:1036D00005F04000402805D1C0432168086120461C
:1036E00000F098F906F02000202809D105F020000C
:1036F000202805D1C043216808612046FFF7DFFD7F
:1037000070BD000010B586B00446142101A8FCF776
:1037100009FE1F492068884238D100BF0020009070
:103720001C48006840F001001A490860084600681B
:1037300000F00100009000BF00BF00BF002000901B
:103740000846006840F0020008600846006800F083
:103750000200009000BF00BFC02001900220029034
:103760000020039004900220059001A90A48FEF76A
:1037700025FD032001900220029000200390049078
:103780000220059001A90548FEF718FD06B010BDFE
:1037900000040040303802400000024000040240B3
:1037A00070472DE9F04104460D461646002700BF3C
:1037B00094F83C00012802D10220BDE8F0810120EC
:1037C00084F83C0000BF36B1042E1BD0082E31D047
:1037D0000C2E5ED145E02946206802F0FDF92068F4
:1037E000806940F00800216888612068806920F0C5
:1037F000040021688861206880692969084321687C
:10380000886148E02946206802F016FA206880693D
:1038100040F40060216888612068806920F480603D
:103820002168886120688069296940EA012021684F
:10383000886130E02946206802F032FA2068C069C9
:1038400040F008002168C8612068C06920F00400C9
:103850002168C8612068C069296908432168C86176
:1038600019E02946206802F04FFA2068C06940F448
:1038700000602168C8612068C06920F48060216808
:10388000C8612068C069296940EA01202168C861CF
:1038900001E0012700BF00BF00BF002084F83C000A
:1038A00000BF384689E710B504460CB9012010BDA9
:1038B00094F83D0028B9002084F83C00204600F030
:1038C00025F8022084F83D00211D206802F004F94B
:1038D000012084F8460000BF84F83E0001213F200B
:1038E0000155402001554120015500BF00BF012076
:1038F00084F84200432001554420015545200155DC
:1039000000BF012084F83D000020D0E770477047D9
:1039100070B504460D4615B994F83E000BE0042D31
:1039200002D13F20005D06E0082D02D14020005D5D
:1039300001E04120005D012801D0012070BD1DB9CA
:10394000022084F83E000EE0042D03D102213F2026
:10395000015508E0082D03D102214020015502E065
:1039600002214120015501222946206802F00EF96A
:103970001D492068884201D1012000E0002028B1C3
:103980002068406C40F40040216848641649206873
:10399000884213D02068B0F1804F0FD013492068BF
:1039A00088420BD012492068884207D0114920680C
:1039B000884203D01049206888420CD12068806872
:1039C00000F00706062E0CD02068006840F00100C9
:1039D0002168086005E02068006840F00100216867
:1039E00008600020AAE70000000001400004004039
:1039F00000080040000C00400040014010B50446A3
:103A000003492068884201D1FEF79EFF10BD0000E7
:103A10000000014070477047704700002DE9F84FE3
:103A20000446206805682068C668206847694FF02A
:103A30000009CA4605F00F09B9F1000F0AD105F0D7
:103A4000200038B106F0200020B1204602F0F7F93E
:103A5000BDE8F88FB9F1000F7CD007F0010018B96C
:103A600006F49070002875D005F0010030B106F41E
:103A7000807018B1606C40F00100606405F00400D3
:103A800030B107F0010018B1606C40F002006064D2
:103A900005F0020030B107F0010018B1606C40F091
:103AA0000400606405F0080048B106F0200010B979
:103AB00007F0010018B1606C40F008006064606CB1
:103AC000002846D005F0200028B106F0200010B1F3
:103AD000204602F0B4F920684069C0F3801A606C97
:103AE00000F0080010B9BAF1000F2DD0204602F006
:103AF00060F92068406900F04000402820D100BFF4
:103B000000BF2168143151E8001F21F040002168F6
:103B1000143141E80002002AF3D100BFE06B50B13C
:103B20007748E16B0865E06BFEF733FB88B1E06B2B
:103B3000016D88470DE02046FFF76EFF09E009E0C0
:103B40002046FFF769FF04E02046FFF765FF0020ED
:103B500060647DE7206B012878D105F01000002813
:103B600074D006F010000028FAD000BF00200090AA
:103B700020680068009020684068009000BF00BF87
:103B80002068406900F04000402860D1E06B006888
:103B900040681FFA80F8B8F1000F56D0A08D40455C
:103BA00053DDA4F82E80E06BC069B0F5807F43D070
:103BB00000BF00BF21680C3151E8001F21F4807064
:103BC00021680C3141E80002002AF3D100BF00BF98
:103BD00000BF2168143151E8001F21F00100216865
:103BE000143141E80002002AF3D100BF00BF00BF3A
:103BF0002168143151E8001F21F040002168143180
:103C000041E80002002AF3D100BF202084F84200DE
:103C10000020206300BF00BF21680C3151E8001F65
:103C200021F0100021680C3141E80002002AF3D194
:103C300000BFE06BFEF757FA02206063A08DE28DB3
:103C4000801A81B22046FFF7E6FE01E742E0A08D30
:103C5000E18D401A1FFA80F8E08DD0B3B8F1000F63
:103C600037D000BF00BF21680C3151E8001F21F49C
:103C7000907021680C3141E80002002AF3D100BFA6
:103C800000BF00BF2168143151E8001F21F001007E
:103C90002168143141E80002002AF3D100BF20203E
:103CA00084F842000020206300BF00BF21680C316F
:103CB00051E8001F21F0100021680C3141E800029A
:103CC000002AF3D100BF0220606341462046FFF77F
:103CD000A2FEBDE605F0800030B106F0800018B10C
:103CE000204602F061FAB3E605F0400030B106F07C
:103CF000400018B1204602F092F8A9E600BFA7E6FE
:103D00009F5D000810B504460CB9012010BDA069E4
:103D100000B100E000BF94F8410028B9002084F809
:103D20004000204600F02AF8242084F84100206852
:103D3000C06820F400502168C860204602F0FEF8F8
:103D40002068006920F4904021680861206840697B
:103D500020F02A00216848612068C06840F40050C3
:103D60002168C86000206064202084F8410084F845
:103D700042000020606300BFC8E7000010B586B0B5
:103D80000446142101A8FCF7CDFA1F492068884297
:103D900038D100BF002000901C48006840F010009F
:103DA0001A4908600846006800F01000009000BF43
:103DB00000BF00BF0020009014481438006840F095
:103DC00001001249143908600846006800F001003B
:103DD000009000BF00BF4FF4C0600190022002902D
:103DE00000200390032004900720059001A90848B3
:103DF000FEF7E4F9002205212520FEF75DFE2520CF
:103E0000FEF746FE06B010BD0010014044380240E7
:103E10000000024070B504460D46164694F8420074
:103E200020280BD105B10EB9012070BD0020206300
:103E300032462946204602F097F9F6E70220F4E7D9
:103E400070B506462949306888424ED100BF5021DE
:103E5000EFF3118081F31188BFF34F8FBFF36F8FA2
:103E600000BF0546224804782248008800F400403C
:103E7000F8B92048008800F4804090B10A2C03D0A3
:103E800000201C49088026E01A48008840F40040C1
:103E90001849088000200988C1F30D01164A5054C2
:103EA00019E00D2C06D11348008840F480401149D8
:103EB000088010E00F480088C0F30D000E490C5434
:103EC0000C480088401C0B49088008460088FF28E1
:103ED00001DD00200880012205490848FFF79AFF0C
:103EE00000BF85F3118800BF00BF70BD0010014006
:103EF0005A00002058000020100A0020100B00205B
:103F00002DE9F84F04460E46174699464FF0000A31
:103F100094F84100202850D106B117B90120BDE81E
:103F2000F88F00206064212084F84100FEF738FA01
:103F30008246A784E784A068B0F5805F04D1206939
:103F400010B90025B04602E035464FF000081EE0EB
:103F50005346002280212046CDF8009002F054F90B
:103F600020B1202084F841000320D8E745B9B8F8F3
:103F70000000C0F308002168486008F1020803E06F
:103F80002878216848606D1CE08C401EE084E08C3D
:103F90000028DDD15346002240212046CDF8009074
:103FA00002F032F920B1202084F841000320B6E766
:103FB000202084F841000020B1E70220AFE77047DD
:103FC00000BFFEE7014608684069C0F38020B0B139
:103FD0006FF480600A68506100200863202081F837
:103FE0003D00002081F83E00086C40F004000864A9
:103FF00000BF002081F83C0000BF01207047002076
:10400000FCE700002DE9F84304460F4615469946A3
:10401000DDE908862068006840F480602168086057
:104020002068006840F480702168086043460022E0
:104030004FF001112046009600F094F860B120681E
:10404000006800F48070B0F5807F02D14FF40070FA
:1040500020640320BDE8F88307F0FE0021680861B2
:10406000334642463E49204600F0DBF808B10120C5
:10407000F0E700BF002000902068406900902068B1
:104080008069009000BF00BF32464146204600F0E4
:104090008AF950B1206C042805D12068006840F4EA
:1040A0000070216808600120D4E7B9F1010F03D145
:1040B000E8B22168086117E0C5F3072021680861AC
:1040C00032464146204600F06EF950B1206C04287B
:1040D00005D12068006840F4007021680860012064
:1040E000B8E7E8B22168086132464146204600F050
:1040F0005AF950B1206C042805D12068006840F4BA
:104100000070216808600120A4E72068006840F47E
:10411000807021680860434600224FF0011120465C
:10412000009600F01FF858B12068006800F4807015
:10413000B0F5807F02D14FF400702064032089E73E
:10414000F8B240F001002168086133464246044954
:10415000204600F066F808B101207BE7002079E7EF
:10416000020001002DE9F04104460D4617461E46A7
:10417000DDF8188038E0701CA8B3FEF711F9A0EB49
:104180000800B04200D876BBC5F3074001280AD129
:1041900020684069A9B20840A9B2884201D1012033
:1041A0000BE0002009E020688069A9B20840A9B2AC
:1041B000884201D1012000E00020B84214D1002043
:1041C0002063202084F83D00002084F83E00206C0D
:1041D00040F02000206400BF002084F83C0000BFB5
:1041E0000120BDE8F081FFE7C5F3074001280AD1AF
:1041F00020684069A9B20840A9B2884201D10120D3
:104200000BE0002009E020688069A9B20840A9B24B
:10421000884201D1012000E00020B842ABD000204C
:10422000DFE72DE9F04104460D4616461F4658E0EB
:1042300020684069C0F38020E8B12068006840F43D
:104240000070216808606FF4806021684861002078
:104250002063202084F83D00002084F83E00206C7C
:1042600040F00400206400BF002084F83C0000BF40
:104270000120BDE8F081701C90B3FEF791F8C01BDF
:10428000B04200D866BBC5F3074001280AD12068B8
:104290004069A9B20840A9B2884201D101200BE0CF
:1042A000002009E020688069A9B20840A9B28842CC
:1042B00001D1012000E0002090B9002020632020DF
:1042C00084F83D00002084F83E00206C40F020007F
:1042D000206400BF002084F83C0000BF0120C8E734
:1042E000FFE7C5F3074001280AD120684069A9B259
:1042F0000840A9B2884201D101200BE0002009E06A
:1043000020688069A9B20840A9B2884201D1012081
:1043100000E0002000288BD00020AAE770B50446FA
:104320000D46164637E020684069C0F30010A0B182
:104330006FF010002168486100202063202084F87D
:104340003D00002084F83E00206C206400BF002067
:1043500084F83C0000BF012070BDFEF721F8801BEF
:10436000A84200D8BDB920684069C0F3801090B958
:1043700000202063202084F83D00002084F83E00C7
:10438000206C40F02000206400BF002084F83C0036
:1043900000BF0120E0E720684069C0F380100028DA
:1043A000C1D00020D8E770B504460D46164625E07A
:1043B0002046FFF707FE08B1012070BD681CE8B178
:1043C000FDF7EEFF801BA84200D8BDB92068406908
:1043D000C0F3C01090B900202063202084F83D0075
:1043E000002084F83E00206C40F02000206400BFD4
:1043F000002084F83C0000BF0120DEE7206840690F
:10440000C0F3C0100028D3D00020D6E72DE9F04734
:104410002DED028B84B004460020039000BF3220B3
:10442000042103AACDE90021029004EB840101EBF1
:10443000C4011B4A02EB011101230C22086D6C21FF
:10444000FEF79CF80C2604273046FCF705F941ECF2
:10445000180BB0EE481AF0EE681A9FED120B02F03E
:10446000F7F8A6EB0708012000FA08F0401E00F05C
:10447000FF090120B840401E00F0FF0A9DF80D0022
:1044800000EA09059DF80C0000EA0A0000FA08F0AD
:10449000284485B2284604B0BDEC028BBDE8F08705
:1044A00044880020000000000000004049E0012195
:1044B0002448FDF767FF002840D10F2006F04CF993
:1044C00001212048FDF75EFFA0B91F4800780128B0
:1044D00010D001201C4908701C48007828B91C48DD
:1044E0000068401C1A49086004E019480068401E32
:1044F0001749086001211348FDF744FF012802D144
:1045000000201149087012480068052807DB0520C3
:104510000F4908600D480078C0430C4908700C48EA
:10452000006810F1050F0CDC6FF00400084908600A
:1045300006480078C0430549087002E0142006F0E0
:104540000BF9B4E7000002404000002034000020D6
:10455000300000202DE9F04107460C4615461E4666
:104560002A2000F001FC384600F0EEFB284600F05F
:10457000EBFB2B2000F0F8FB204600F0E5FB30467B
:1045800000F0E2FB2C2000F0EFFBBDE8F0812DE90C
:10459000FF4F85B081468A460020039083460798E6
:1045A000A0EB09050898A0EB0A06CDF80890CDF815
:1045B00004A0002D01DD012705E00DB9002702E070
:1045C0004FF0FF376D42002E02DD4FF0010806E08C
:1045D00016B94FF0000802E04FF0FF387642B542BE
:1045E00001DD2C4600E03446002004901EE0019AD4
:1045F00091B2029A90B2129A00F01FF803982844E0
:104600000390B3440398A04205DD0398001B039078
:10461000029838440290A34504DDABEB040B0198EB
:10462000404401900498401C80B20490611C04989E
:104630008842DCDB09B0BDE8F08F70B504460D465A
:1046400016462B46224629462046FFF783FF304672
:1046500000F07AFB70BD2DE9F04706460F46144680
:104660001D46DDF820A0681E83B2601E82B2394666
:104670003046FFF76FFFB8460EE0B14606E0504601
:1046800000F062FB09F101001FFA80F9A145F6DB99
:1046900008F101001FFA80F8A845EEDBBDE8F087BD
:1046A00008B5002280216B48FDF774FE142006F047
:1046B00053F8012280216748FDF76CFE142006F0B4
:1046C0004BF8012220216348FDF764FE142006F018
:1046D00043F8112000F048FB782006F03DF8362022
:1046E00000F042FB002000F038FB3A2000F03CFBD9
:1046F000052000F032FBB22000F036FB0C2000F069
:104700002CFB0C2000F029FB002000F026FB3320BE
:1047100000F023FB332000F020FBB72000F024FB47
:10472000352000F01AFBBB2000F01EFB322000F009
:1047300014FBC22000F018FB012000F00EFBC32088
:1047400000F012FB152000F008FBC42000F00CFB69
:10475000202000F002FBC62000F006FB0F2000F036
:10476000FCFAD02000F000FBA42000F0F6FAA12013
:1047700000F0F3FAE02000F0F7FAD02000F0EDFAB4
:10478000082000F0EAFA0E2000F0E7FA092000F015
:10479000E4FA092000F0E1FA052000F0DEFA312009
:1047A00000F0DBFA332000F0D8FA482000F0D5FA08
:1047B000172000F0D2FA142000F0CFFA152000F0F4
:1047C000CCFA312000F0C9FA342000F0C6FAE1201A
:1047D00000F0CAFAD02000F0C0FA082000F0BDFABC
:1047E0000E2000F0BAFA092000F0B7FA092000F014
:1047F000B4FA152000F0B1FA312000F0AEFA3320FF
:1048000000F0ABFA482000F0A8FA172000F0A5FA53
:10481000142000F0A2FA152000F09FFA312000F0D9
:104820009CFA342000F099FA212000F09DFA29200A
:1048300000F09AFA4FF6FF70F0231A46002100901C
:104840000846FFF708FF0120034908700349087074
:1048500008BD00000004024087020020730200200F
:104860002DE9FF5F80468A4617469B460F9D002034
:104870000290CDF80080284605EBD071C1F34704C3
:104880002046E21704EB5272D2102146E31704EBE4
:104890005373DB10A4EBC3030BB1012300E000232F
:1048A0001A446A4392B20192A7F12000C7B20AEB00
:1048B0000500401E83B208EB0400401E82B2514640
:1048C0004046FFF747FE002669E00C2D07D107EBB5
:1048D0004700354901EB8000805D03901BE0102DFF
:1048E00005D1324800EB0710805D039013E0182DCE
:1048F00007D107EB47002E4901EB0010805D0390C4
:1049000009E0202D05D12B4800EB8710805D039036
:1049100001E0BDE8FF9F4FF000093AE01098C8B9E8
:10492000012000FA09F00399084018B1584600F038
:104930000BFA02E00E9800F007FA0298401CC0B291
:104940000290029890FBF4F104FB1100E8B90020FA
:10495000029021E0012000FA09F00399084020B1FB
:104960005A4651464046FFF768FE08F101001FFA1B
:1049700080F80098A8EB0000A04206D1DDF8008086
:104980000AF101001FFA80FA06E009F1010000F0C7
:10499000FF09B9F1080FC1DB00BF701C86B2019896
:1049A000864292DB00BFB4E7DCB9000850BE0008C5
:1049B00040C4000810D600082DE9FF4F2DED020B72
:1049C0002DED028B83B00746B0EE408A1546DDE937
:1049D0001486304606EBD071C1F34709B5EEC08AA4
:1049E000F1EE10FA0ADB0020CDE9008602902022C9
:1049F00038460A9B0899FFF733FF0DE0B1EE480AED
:104A0000B0EE408A0020CDE9008602902D22384683
:104A10000A9B0899FFF724FF07EB090087B29FED77
:104A2000220A28EE000ABCEEC00A10EE100A1FFA95
:104A300080FB002430E0281B401EC1B20A2004F095
:104A40000BFCBBFBF0F00A21B0FBF1F201FB120AF8
:104A5000A81EA04210D10020A91E01FB0971CDE9BA
:104A60000086029088B22E220A9B0899FFF7F8FE72
:104A7000601CC4B2681CC5B200200AF13001CAB281
:104A800004FB0971CDE90086029088B20A9B08995F
:104A9000FFF7E6FE601CC4B2AC42CCDB03B0BDEC59
:104AA000028B06B0BDE8F08F0000C8422DE9FF4F31
:104AB0002DED020B2DED028B83B00746B0EE408A40
:104AC0001546DDE91486304606EBD071C1F347097F
:104AD000B5EEC08AF1EE10FA0ADB0020CDE90086BF
:104AE0000290202238460A9B0899FFF7B9FE0DE094
:104AF000B1EE480AB0EE408A0020CDE9008602906F
:104B00002D2238460A9B0899FFF7AAFE07EB0900F9
:104B100087B29FED220A28EE000ABCEEC00A10EE12
:104B2000100A1FFA80FB002430E0281B401EC1B28F
:104B30000A2004F091FBBBFBF0F00A21B0FBF1F27C
:104B400001FB120A681FA04210D10020691F01FB5F
:104B50000971CDE90086029088B22E220A9B08993D
:104B6000FFF77EFE601CC4B2681CC5B200200AF1CB
:104B70003001CAB204FB0971CDE90086029088B207
:104B80000A9B0899FFF76CFE601CC4B2AC42CCDBF8
:104B900003B0BDEC028B06B0BDE8F08F0050C347F8
:104BA0002DE9FF4F85B0064617469846DDE9139577
:104BB00000200490284605EBD071C1F3470B002F6D
:104BC0000ADB0020CDE90095029020223046129B9E
:104BD0000699FFF745FE0AE07F420020CDE90095E7
:104BE00002902D223046129B0699FFF739FE06EB04
:104BF0000B0086B2B8B20390002437E0A8EB0400A3
:104C0000401EC1B20A2004F027FB0399B1FBF0F06B
:104C10000A21B0FBF1F201FB120A0498A8B9A8F12D
:104C20000100A04211DDBAF1000F0CD1002004FBFD
:104C30000B61CDE90095029088B22022129B069963
:104C4000FFF70EFE10E00120049000200AF1300171
:104C5000CAB204FB0B61CDE90095029088B2129BA9
:104C60000699FFF7FDFD00BF601CC4B24445C5DBDB
:104C700009B0BDE8F08F2DE9FE4F06460F461446F9
:104C80009846DDE90D5ADDF8309010E0CDE9015A83
:104C9000CDF800902278434639463046FFF7E0FDD4
:104CA000284605EBD07106EB61018EB2641C2078BA
:104CB0000028EBD1BDE8FE8F3AE01E48007850B9DD
:104CC000FFF7EEFC1820FDF707F8FDF773F9322027
:104CD00005F042FD2CE018480068184908601848A3
:104CE00090ED070A084680ED020A154890ED080A83
:104CF000084680ED040A124890ED090A084680ED46
:104D0000050A0F48C06E48600E4800780D49897842
:104D1000884208D0FDF74EF90A48007809498870A2
:104D20000020487001E0FCF7F9FF322005F014FD87
:104D3000C3E700008702002030000020E489002043
:104D4000448800205802002010B50446201200F0CC
:104D50001DF8E0B200F01AF810BD10B50446204668
:104D600000F014F810BD000010B5044600224021E8
:104D70000548FDF70FFB204600F008F8012240210E
:104D80000148FDF707FB10BD0004024070B5044662
:104D900000251DE000224FF400710F48FDF7FAFADC
:104DA00004F0800028B1012211020B48FDF7F2FA4D
:104DB00005E000224FF480710748FDF7EBFA01226D
:104DC00051020548FDF7E6FA6006040E681CC5B2FC
:104DD000082DDFDB70BD0000000402401AE00E4821
:104DE000006880F400500C4908600C4890ED000AFF
:104DF000B8EEC00AB0EEC00ADFED090A20EE200AC4
:104E0000BCEEC00A10EE100AC0B200F164042046E5
:104E100005F0A2FCE3E70000140802403000002087
:104E20000000C842F0EE400A074890ED001ADFED9E
:104E3000071A21EE211ADFED061A01EEA01AB0EED4
:104E4000410A80ED000A7047000100206666663F57
:104E5000CDCCCC3D00B587B0142102A8FBF762FA97
:104E600000BF002001904348006840F00400414921
:104E700008600846006800F00400019000BF00BF11
:104E800000BF002001900846006840F080000860E4
:104E90000846006800F08000019000BF00BF00BF1E
:104EA000002001900846006840F0010008600846B4
:104EB000006800F00100019000BF00BF00BF0020AB
:104EC00001900846006840F002000860084600684B
:104ED00000F00200019000BF00BF00224FF400511B
:104EE0002548FDF757FA002204212448FDF752FA1D
:104EF00001224FF478712148FDF74CFA4FF400502D
:104F000002900120039000200490059002A91A4805
:104F1000FDF754F901200290002003900120049035
:104F200002A91748FDF74AF90420029001200390D6
:104F3000002004900120059002A91048FDF73EF9D9
:104F40004FF4E0400290002003900120049002A959
:104F50000A48FDF733F94FF478700290012003906E
:104F6000002004900220059002A90448FDF726F9CC
:104F700007B000BD30380240000802400004024083
:104F80000000024010B50B480B4908600B48486010
:104F9000002109488160C1604FF480410161002116
:104FA00041618161C1610162FDF700FA08B1FCF75E
:104FB00087FE10BD005C004074090020A08601003F
:104FC00000B58DB0002009900A900B900C900790CE
:104FD00008901C216846FBF7A5F93448344908605D
:104FE000032048602021324881604FF4C871C160BD
:104FF000002101618161FEF7B1F908B1FCF760FEA3
:105000004FF48050099009A92948FEF73DFA08B1EC
:10501000FCF756FE2648FEF746FC08B1FCF750FEAA
:1050200000200790089007A92148FEF749F908B128
:10503000FCF746FE602000900020019002900420C2
:105040000490002269461A48FEF7ABFB08B1FCF752
:1050500037FE042269461648FEF7A3FB08B1FCF7A9
:105060002FFE082269461248FEF79BFB08B1FCF7A9
:1050700027FE0C2269460E48FEF793FB08B1FCF7A9
:105080001FFE00210A48FEF743FC04210848FEF7F2
:105090003FFC08210648FEF73BFC0C210448FEF7C4
:1050A00037FC0348FEF72EFB0DB000BD00040040A6
:1050B000C809002010B50B480B4908604FF4E130D7
:1050C0004860002108488160C16001610C21416194
:1050D00000218161C161FEF715FE08B1FCF7F0FD0A
:1050E00010BD000000100140100B002070B50446F8
:1050F0000D4604EB840000EBC400204901EB0010D6
:1051000005654FF4805104EB840000EBC4001B4A9A
:1051100002EB001041652046FFF778F904EB8401AB
:1051200001EBC401154A02EB0111C8659FED140A99
:1051300004EB840000EBC400114601EB001080ED8D
:10514000160A9FED0F0A04EB840000EBC40001EB8C
:10515000001080ED180A002104EB840000EBC4006D
:1051600002EB0010C16504EB840101EBC40102EB0A
:10517000011101F16400FCF7A6FD70BD4488002018
:105180000000000000BFFEE710B5044679A001F062
:105190000DF904EB840000EBC400794901EB001029
:1051A00090ED040A04EB840000EBC40001EB001056
:1051B000D0ED030AB4EEE00AF1EE10FA0FDD04EBD5
:1051C000840000EBC40001EB001090ED030A04EB37
:1051D000840000EBC40001EB001080ED040A04EB36
:1051E000840000EBC400664901EB001004706548C0
:1051F00004EB840101EBC401614A02EB0111486038
:10520000B2EE080A04EB840000EBC400114601EB87
:10521000001080ED020AB1EE080A04EB840000EBF6
:10522000C40001EB001080ED030AB0EE000A04EBAD
:10523000840000EBC40001EB001080ED040A07209D
:1052400004EB840101EBC40102EB01114861002071
:1052500004EB840101EBC40102EB01118861002120
:1052600004EB840000EBC40002EB001080F84C104B
:10527000012104EB840000EBC40002EB001080F875
:105280004D109FED410A04EB840000EBC400114671
:1052900001EB001080ED070A9FED3B0A04EB840050
:1052A00000EBC40001EB001080ED080A9FED360A08
:1052B00004EB840000EBC40001EB001080ED090A50
:1052C0009FED310A04EB840000EBC40001EB0010F9
:1052D00080ED0A0A9FED2C0A04EB840000EBC40069
:1052E00001EB001080ED0C0A9FED270A04EB84000F
:1052F00000EBC40001EB001080ED0D0A9FED220AC7
:1053000004EB840000EBC40001EB001080ED0E0AFA
:105310009FED1D0A04EB840000EBC40001EB0010BC
:1053200080ED0F0A9FED180A04EB840000EBC40027
:1053300001EB001080ED100A9FED130A04EB8400CE
:1053400000EBC40001EB001080ED110A9FED0E0A86
:1053500004EB840000EBC40001EB001080ED120AA6
:10536000012204210948FDF715F809A001F01EF8F3
:1053700010BD00004D4F543A20496E69740D0A006B
:1053800044880020C80900200000000000040240FA
:105390004D4F543A20456E61626C652064726976A7
:1053A00065722E0D0A00000010B50446204603F079
:1053B00005F9204603F07CFC04EB840000EBC400FC
:1053C0001D4901EB001080ED180A052005F0C4F915
:1053D000204604F0E3FF04EB840000EBC400164910
:1053E00001EB001080ED090A052005F0B5F9204613
:1053F00004F0B4FF04EB840000EBC4000E4901EBA1
:10540000001080ED070A04EB840000EBC40001EB00
:10541000001090F84D0002280AD104EB840000EB44
:10542000C40001EB001090ED070A044880ED000A6B
:10543000C82005F091F910BD448800203C000020F0
:1054400000BFFEE710B52DED068B0446B0EE408A96
:1054500004EB840101EBC401434A02EB011101F1A9
:10546000C400FCF725FE00EE100AB8EE400ADFED9E
:105470003F0A80EE201AB0EE419AB5EEC09AF1EEE6
:1054800010FA06D0B6EE000AB4EEC09AF1EE10FAA9
:1054900003DD9FED360AB0EE409A04EB840000EB8A
:1054A000C400314901EB001090ED2B0A20EE08AA50
:1054B00004EB840000EBC40001EB001090ED2D0A1A
:1054C00004EB840000EBC40001EB0010D0ED2E0AC9
:1054D00078EE600A20EE200AC0EE099A7AEE298A58
:1054E00004EB840000EBC40001EB001090ED030A14
:1054F000B1EE400AB4EEE80AF1EE10FA0ADD04EB70
:10550000840000EBC40001EB001090ED030AB1EE43
:10551000400A18E004EB840000EBC400124901EBE0
:10552000001090ED030AB4EEE80AF1EE10FA08D28A
:1055300004EB840000EBC40001EB001090ED030AC3
:1055400001E0B0EE680AF0EE408A04EB840000EB64
:10555000C400054901EB001080ED2E8AB0EE680A08
:10556000BDEC068B10BD0000448800206F12833A0A
:1055700010B504469FED4D0A04EB840000EBC40017
:105580004B4901EB001080ED200A9FED4A0A04EB25
:10559000840000EBC40001EB001080ED210A9FEDB8
:1055A000460A04EB840000EBC40001EB001080ED20
:1055B000220A9FED420A04EB840000EBC40001EBD9
:1055C000001080ED230A9FED3C0A04EB840000EB01
:1055D000C40001EB001080ED270A9FED370A04EBB1
:1055E000840000EBC40001EB001080ED250A9FED64
:1055F000320A04EB840000EBC40001EB001080EDE4
:10560000260A04EB840101EBC401294A02EB0111D3
:1056100001F1A000FCF757FBB2EE040A04EB840092
:1056200000EBC400224901EB001080ED2B0A9FED36
:10563000220A04EB840000EBC40001EB001080EDB3
:105640002C0AB6EE000A04EB840000EBC40001EB68
:10565000001080ED2D0A9FED180A04EB840000EB8A
:10566000C40001EB001080ED2E0A9FED130A04EB3D
:10567000840000EBC40001EB001080ED2F0A9FEDC9
:105680000E0A04EB840000EBC40001EB001080ED77
:10569000300A04EB840101EBC401054A02EB01115D
:1056A00001F1C400FCF70FFB10BD000096438B3DD9
:1056B00044880020508D173D000000000000C842C3
:1056C00010B52DED068B0446F0EE409A04EB8401F4
:1056D00001EBC401964A02EB011101F1A000FCF7B5
:1056E000E7FC00EE100AB8EE400ADFED920A80EE09
:1056F000201AF0EE418AF5EEC08AF1EE10FA06D0DB
:10570000B6EE000AF4EEC08AF1EE10FA03DD9FED6A
:10571000890AF0EE408A04EB840000EBC40084495F
:1057200001EB001090ED200A60EE29AA04EB840042
:1057300000EBC40001EB001090ED270A04EB84009D
:1057400000EBC40001EB0010D0ED210A60EEA80AC6
:10575000B6EE001A60EE810A04EB840000EBC40090
:1057600001EB001090ED251A31EE291AB0EE409AA7
:1057700000EE819A04EB840000EBC40001EB001002
:1057800090ED030AB1EE400AB4EEC90AF1EE10FA48
:105790000ADD04EB840000EBC40001EB001090ED87
:1057A000030AB1EE400A18E004EB840000EBC400E9
:1057B0005F4901EB001090ED030AB4EEC90AF1EE67
:1057C00010FA08D204EB840000EBC40001EB0010D7
:1057D00090ED030A01E0B0EE490AB0EE409A3AEECD
:1057E000898A04EB840000EBC400514901EB0010EE
:1057F00090ED030AB1EE400AB4EEC80AF1EE10FAD9
:105800000ADD04EB840000EBC40001EB001090ED16
:10581000030AB1EE400A18E004EB840000EBC40078
:10582000434901EB001090ED030AB4EEC80AF1EE13
:1058300010FA08D204EB840000EBC40001EB001066
:1058400090ED030A01E0B0EE480AB0EE408A04EBA6
:10585000840000EBC400364901EB001090ED260AED
:1058600038EE400A80EE28AA04EB840000EBC40066
:1058700001EB001090ED230AB4EECA0AF1EE10FA23
:1058800014D204EB840000EBC40001EB001090ED97
:10589000260A04EB840000EBC40001EB0010D0EDFD
:1058A000230AB0EE408A00EEA88A23E004EB8400CD
:1058B00000EBC4001E4901EB001090ED230AB1EE8D
:1058C000400AB4EECA0AF1EE10FA13DD04EB8400CC
:1058D00000EBC40001EB001090ED260A04EB8400FD
:1058E00000EBC40001EB0010D0ED230AB0EE408ABB
:1058F00000EEE88A04EB840000EBC4000C4901EBE5
:10590000001080ED279A04EB840000EBC40001EB4B
:10591000001080ED268A04EB840000EBC40001EB4C
:105920000010C0ED259AB0EE480ABDEC068B10BD04
:10593000448800206F12833AB5EEC00AF1EE10FAE7
:1059400003D8DFED200AB0EE600AF7EE000AB4EEED
:10595000E00AF1EE10FA03DBF7EE000AB0EE600A9F
:1059600051B9DFED190A60EE200AFCEEE00A10EEF4
:10597000902A03685A6323E004290AD1DFED120A52
:1059800060EE200AFCEEE00A10EE902A03689A63AB
:1059900016E008290AD1DFED0C0A60EE200AFCEEC1
:1059A000E00A10EE902A0368DA6309E0DFED060AE8
:1059B00060EE200AFCEEE00A10EE902A03681A64FA
:1059C00070470000000000000000C84310B500BF91
:1059D000502080F31188BFF34F8FBFF36F8F00BF4C
:1059E00005F09CFD18B14FF080500449086000BFDD
:1059F000002080F3118800BF10BD000004ED00E01E
:105A000000B593B0302107A8FAF78CFC142102A846
:105A1000FAF788FC00BF002001902448006840F09D
:105A20008050224908600846006800F080500190CC
:105A300000BF00BF00BF002001901D48006820F497
:105A4000404040F400401A4908600846006800F4ED
:105A50004040019000BF00BF012007900004089063
:105A600002200D9041050E9119210F91A021109156
:105A7000022111910421129107A8FDF7D1F908B173
:105A8000FCF71EF90F2002900220039000200490E2
:105A90004FF48050059000200690022102A8FDF7E7
:105AA0005DF808B1FCF70CF913B000BD40380240B6
:105AB000007000400348006840F47000014908602D
:105AC0007047000088ED00E010B50248FDF763FD67
:105AD00010BD0000580B002010B50268244B9842FE
