:020000040800F2
:10000000F04F002061020008214200089B370008E1
:100010006D400008C9120008F54B00080000000000
:10002000000000000000000000000000A101000826
:10003000D115000800000000FD010008A9440008D7
:100040007B0200087B0200087B0200087B0200089C
:100050007B0200087B0200087B0200087B0200088C
:100060007B0200087B0200087B0200087B0200087C
:100070007B0200087B0200087B0200087B0200086C
:100080007B0200087B0200087B0200087B0200085C
:100090007B0200087B0200087B0200087B0200084C
:1000A0007B0200087B0200087B0200087B0200083C
:1000B0007B0200087B0200087B0200087B0200082C
:1000C0007B0200087B0200087B0200087B0200081C
:1000D0007B020008614B00087B0200087B020008DD
:1000E0007B0200087B0200087B0200087B020008FC
:1000F0007B0200087B0200087B0200087B020008EC
:100100007B0200087B0200087B0200087B020008DB
:100110007B0200087B020008754500088D45000839
:100120007B0200087B0200087B0200087B020008BB
:100130007B02000800000000000000007B020008B5
:100140007B0200087B0200087B0200087B0200089B
:100150007B0200087B0200087B0200087B0200088B
:100160007B0200087B0200087B0200087B0200087B
:100170007B0200087B020008000000000000000075
:100180007B0200087B020008DFF810D000F09AFC28
:100190000048004765780008AFF30080F04F00206A
:1001A0002C4B19680868B0E8F04F80F30988BFF35A
:1001B0006F8F4FF0000080F311887047000000003F
:1001C00008480068006880F308884FF0000080F35A
:1001D000148862B661B6BFF34F8FBFF36F8F00DF35
:1001E00000BF00BF08ED00E0DFF80C00016841F43B
:1001F00070010160704700BF88ED00E0EFF30980F7
:10020000BFF36F8F134B1A681EF0100F08BF20ED5D
:10021000108A20E9F04F106009B44FF0500080F3CD
:100220001188BFF34F8FBFF36F8F08F0EBF94FF0DA
:10023000000080F3118809BC19680868B0E8F04F25
:100240001EF0100F08BFB0EC108A80F30988BFF3CE
:100250006F8F704740000020EFF30580704700006B
:100260000648804706480047FEE7FEE7FEE7FEE750
:10027000FEE7FEE7FEE7FEE7FEE7FEE7654500086E
:10028000890100082DE9F05F0546002092469B4653
:1002900088460646814640241BE02846414647469C
:1002A000224600F046FA53465A46C01A914110D3EE
:1002B00011461846224600F02DFA2D1A67EB010868
:1002C0004F4622460120002100F024FA17EB0009D6
:1002D0004E41201EA4F10104DFDC484631462A4687
:1002E0004346BDE8F09FD2B201E000F8012B491E61
:1002F000FBD270470022F6E710B513460A460446C3
:100300001946FFF7F0FF204610BD30B50546002026
:10031000034600E05B1C934205D2EC5CC85C201AEB
:1003200001D1002CF6D130BD2DE9FE4F804681EA87
:100330000300C00F0C46009021F0004123F000455F
:10034000B8EB0200A94105D24046214690461C4622
:100350000B46024623F00040104347D0270DC7F359
:100360000A00C3F30A510290401A019040286BDA48
:10037000C3F3130040F4801B0098924620B1002381
:10038000D2EB030A63EB0B0B01985946C0F1400214
:10039000504600F0BFF906460D4650465946019AB0
:1003A00000F0D7F910EB08006141002487EA1152F0
:1003B00084EAE7731A4340D0009A62B3019A012A93
:1003C0004FEA075215DC001B61EB02014FF00042BF
:1003D00002EA0752CDE90042001C41F58011324685
:1003E0002B4600F05DFA03B0BDE8F08F4046214691
:1003F000F9E7001B61EB0201001C41F580130018B6
:100400005B412018A2F5001747EB030140EAD570C5
:10041000B6196D4111E06D084FEA360645EAC07520
:100420004FEA0752001B61EB0201001C41F58011ED
:1004300049084FEA30000019514132462B4603B0BB
:10044000BDE8F04F00F01DBA0098012240000023E3
:10045000D0EB020263EBE073009821464FEAE074B0
:10046000B8EB000061EB0401E9E783F000435BE7D0
:1004700081F0004158E72DE9FE4F81EA030404F0C2
:10048000004421F0004100944FF0000B23F00043A2
:1004900050EA01045ED052EA03045BD0C3F30A546D
:1004A000C1F30A552C44A4F2F3340194A0FB025486
:1004B000C1F3130141F48011C3F3130343F4801318
:1004C00001FB024400FB034E840A970A44EA81546C
:1004D00047EA8357A4FB076802958D0A05FB078549
:1004E0004FEA932C04FB0C542705029D4FEA065853
:1004F00047EA1637B5EB08056EEB070C870E920E30
:1005000047EA811742EA8312A7FB0201B6EB0B010F
:1005100064EB00042B0D43EA0C335E1844EB1C50D3
:10052000DA465146E7FB0201C5F313044FEA0B33E9
:1005300043EA14534FEA0432019C43EA0603A4F150
:100540000C040294009CCDE900B400F0A9F903B0BA
:10055000BDE8F08F00200146F9E72DE9F04D81EA72
:10056000030404F0004B21F0004514464FF0000A4C
:1005700023F0004150EA050220D054EA01021DD0C8
:10058000C5F30A570246C5F31303C1F31300C1F3C1
:100590000A5640F4801543F48013A7EB0608101B9D
:1005A000D64608F2FD3873EB050002D308F10108C6
:1005B00001E092185B41B8F1000F03DA0020014618
:1005C000BDE8F08D00204FF48011064684460EE011
:1005D000171B73EB050705D3121B63EB05030643DB
:1005E0004CEA010C49084FEA300092185B4150EA8E
:1005F0000107EDD152EA030012D082EA040083EA37
:100600000501084305D0101BAB4106D2012200238F
:1006100006E000224FF0004302E06FF001025310A9
:100620001AEB06004CEB085110EB0A0041EB0B01F2
:10063000BDE8F04D00F025B90EB5C10F80EAE070BD
:100640000844CA07002140F233438DE80E000A46F1
:100650000B4600F025F903B000BD00F0004230F079
:1006600000400AD0C10D01F56071C0F3160042EAE6
:100670000151C208400711437047002001467047EE
:1006800030B5041E71F1000404DB4FF00044404219
:1006900064EB0101141E73F1000405DB1C464FF0EE
:1006A0000043524263EB0403994208BF904230BDBD
:1006B00001F0004330B421F0004150EA010206D0BD
:1006C0000A0DA2F56072C1F31301002A02DC30BCEE
:1006D00000207047440F44EAC104C100E01830BC58
:1006E00000EBC25000F096B830B50B460146002032
:1006F0002022012409E021FA02F59D4205D303FAE4
:1007000002F5491B04FA02F52844151EA2F1010264
:10071000F1DC30BD202A04DB203A00FA02F100208F
:1007200070479140C2F1200320FA03F3194390402F
:100730007047202A04DB203A21FA02F0002170479A
:1007400021FA02F3D040C2F1200291400843194639
:100750007047202A06DBCB17203A41FA02F043EA21
:10076000E07306E041FA02F3D040C2F1200291406A
:1007700008431946704700000FB4002300B589B044
:100780000CA900910B996FF00042CB601E4B0693B1
:100790001E4B07930423CDE901321D4A08920246FD
:1007A0006B46002000F03AFA09B05DF814FB70B512
:1007B00086B006464FF0FF300091CDE901010020E0
:1007C00015460C4604903246694604A8FFF7D4FF4C
:1007D00002460498211825B108B1084600E02046D9
:1007E0002860049800280DD0002A02DD0098884275
:1007F00008D0081B0094CDE901043246694604A8DC
:10080000FFF7BAFF06B070BD550E0008730E000862
:10081000E90A00080029A8BF7047401C490008BF2A
:1008200020F00100704710B4B0FA80FC00FA0CF020
:1008300050EA010404BF10BC704749B1CCF1200458
:1008400021FA04F411FA0CF118BF012121430843E5
:10085000A3EB0C01CB1D4FEA00614FEA102042BF11
:10086000002010BC704700EBC35010440029A4BF07
:1008700010BC7047401C490008BF20F0010010BCAC
:10088000704710B5141E73F1000408DA401C41F1E2
:10089000000192185B411A4301D120F0010010BD04
:1008A0002DE9F04D92469B4611B1B1FA81F202E07A
:1008B000B0FA80F220329046FFF72CFF04460F4634
:1008C00040EA0A0041EA0B0153465A46084313D056
:1008D000114653EA010019D0C8F140025046FFF713
:1008E00028FF05460E46504659464246FFF712FF7E
:1008F000084305D0012004E020463946BDE8F08DCC
:100900000020054346EAE0762C4337430A98630506
:10091000E40AA0EB08000022FD0A44EA47540A302A
:1009200002D500200146E9E7010510196941DDE91A
:10093000084500196941BDE8F04DA2E770B521F006
:10094000004303430CD0C1F30A550024D5EB040542
:1009500064EB0403D617AD1AB34102DB0020014655
:1009600070BD201841EB025170BD2DE9F04D002300
:100970001A461B1A8A4103DB00200146BDE8F08DB0
:10098000C1F30A52C1F3130141F480154FF0000B7B
:10099000D10702D100186D41521E0027044640F2D3
:1009A000FF11384601EB620A3E46804602460020AF
:1009B0004FF48011FFF7BDFEC2197141BB1846EB21
:1009C0000100B4EB030C75EB000C04D3E41A65EBE7
:1009D000000517460E46241908F101006D418046B6
:1009E0003428E3DDF91946EB0600091BA84103D2C0
:1009F0004FF0FF32134601E0002213461BEB0700C5
:100A000046EB0A51BDE8F04DFFF73BBF2DE9FE4F25
:100A1000C3F30A5701F000450024C1F30A56C3F39B
:100A20001303C1F3130143F4801312EB020AA64629
:100A300041F48011009543EB030CA7F1010B16E084
:100A4000B0EB0A0061EB0C01071E71F1000707DA39
:100A50004FF00008D0EB080085F0004568EB01017D
:100A6000171A73EB0107EBD3761E001849415E4558
:100A7000F6DA50EA010209D0CDE900E5002213467A
:100A80000296FFF70DFF03B0BDE8F08F20460099F6
:100A9000F9E7C1F30A52C1F3130140F2FF3341F405
:100AA00080119A4202DA00200146704740F2334337
:100AB0009A42A2F2334202DC5242FFF73ABEFFF7FB
:100AC00029BE0000064C074D06E0E06840F0010337
:100AD00094E8070098471034AC42F6D3FFF758FB70
:100AE000388C0008588C0008C0B24FF4F05100F068
:100AF000FDB900002DE9FF4F087883B09946FF2823
:100B000005D0491C2D2804D00024002008E0002036
:100B10000BE00124F9E700EB800003EB4000491CE7
:100B20000B78FF2BF7D104B14042002302931478D5
:100B300019461D462D2C01D02B2C04D1521C2D2CD6
:100B400013D000240294AA461478FF2C0FD00A2553
:100B5000A3FB057801FB05814FF0000C03FB0C1192
:100B6000521CE3194AEB0101EEE70124EAE7814454
:100B700053EA010002D019F5C87F06DA0398002174
:100B8000C0E9001107B0BDE8F08F0025AE4E2F463A
:100B9000DFF8B882184600F0BDF9CDE90001B9F1DF
:100BA000000002DAC9F1000400E004460023A74A6D
:100BB0001AEB030B42EB045A12E0E00707D02A4677
:100BC000334638464146FFF756FC074688462A46D4
:100BD000334610461946FFF74EFC05460E46641094
:100BE000002CEAD1DDE90001B9F1000F5A46534665
:100BF00006DAFFF7B2FC3A464346FFF7AEFC05E0E3
:100C0000FFF739FC3A464346FFF735FC029A0AB132
:100C100081F00041039AC2E90001B3E72DE9FF4FDB
:100C20001F468DB0D7E901464FF0FF382E204546CC
:100C30004FF000090B90B9696D1C0E988847396A0E
:100C4000824688470028F6D1BAF1FF3F0AD024F443
:100C5000D064002E11DDBAF12B0F08D0BAF12D0FA0
:100C60000BD102E0404611B08DE744F48064B969CD
:100C70006D1C0E9888478246761E6946600501D530
:100C80002D2000E02B208DF8000001F1010B0DF16B
:100C9000200809E0B9696D1C0E98884782460F98B4
:100CA00044F40074761E0560002E02DDBAF1300FA8
:100CB000F0D00B998A453ED144F0800406E00F99AC
:100CC000681CA9F1010944F400740860B9696D1C3D
:100CD000761E0E98884782463028F0D02BE00B997C
:100CE0008A4505D1200603D444F08004761E18E01E
:100CF000504605F0B3FC08B30DF11301761E44F421
:100D000000748B4508D2AAF130000BF8010B2006C5
:100D100007D5A9F1010003E0200602D409F1010082
:100D20008146A00502D50F99681C0860B9696D1C41
:100D30000E9888478246002ED1DC53E0002E51DD0C
:100D4000BAF1650F02D0BAF1450F4BD1A00549D5D4
:100D5000B9696D1C24F44074761E0E98884782464B
:100D6000002E0CDD2B2804D0BAF12D0F07D144F44E
:100D70008074B9696D1C0E9888478246761EE0051E
:100D800001D52D2100E02B2108F8011BCDF82C8086
:100D900021E00DF12901761E44F4007488450CD23F
:100DA000AAF1300010F0FF0088F8000002D10B9982
:100DB000884509D908F1010806E0E00501D5244875
:100DC00001E042F20F708146B9696D1C0E988847A8
:100DD00082460F980560002E04DD504605F03EFC6B
:100DE0000028D6D1F9690E988847FF208BF80000BB
:100DF00088F800000020069007904B466A4608A934
:100E000006A8FFF777FEA00502D46FF001002AE7DD
:100E100014F0240F0AD0E00714D1DDE90612386877
:100E2000031D3B600068C0E900120BE0DDE906012C
:100E3000FFF73EFC0146E00704D13868021D3A6026
:100E40000068016028460EE7000014400000F03FF3
:100E5000F1D8FFFF426842B1016811F8013B23B1AC
:100E6000521EC0E90012184670470121C160881E59
:100E7000704742685AB1C368016843B983688B42BE
:100E800005D0491E521CC0E90012002070474FF0E7
:100E9000FF3070470EB540F2334102910021CDE999
:100EA00000110A460B46FFF7FBFC03B000BD70B50E
:100EB000C1F30A5201F000450024C1F3130140F2CE
:100EC000FF3341F480119A4201DA002070BD40F2F4
:100ED00033439A42A2F2334203DC5242FFF729FC29
:100EE00000E090402C43F1D0404270BD7F2801D9F2
:100EF000002208E0064A02EB5002C007127800D137
:100F0000120902F00F0201209040084070470000D3
:100F1000F88B00080EB540F2334202920022CDE970
:100F200000221346FFF7BCFC03B000BD2DE9FF41D2
:100F30000746052002900120CDE9001000256946F2
:100F4000384600F065FB0024144E0FE0384600F0F0
:100F5000B9FC1E21384600F05FFC384600F0FEFB6D
:100F60000544384600F02CFD641CE4B2307884421D
:100F7000ECD300EE105ADFED0A0AC0B2B8EE400A18
:100F800060EE200A00EE100AB8EE400A80EE801AE9
:100F9000DFED040A81EE200ABDE8FF812400002075
:100FA0003333534000F07F45464910B54A6822F478
:100FB00040324A604A6843681A434A6001684A6896
:100FC00022F480724A6001684A68036942EA032297
:100FD0004A6001684A6822F040724A6001684A68C3
:100FE00083681A434A6001688A6822F400628A6052
:100FF00001688A68C3681A438A60816A6FF0706208
:10100000D14201688A6822F070628A6001688A6849
:101010000CD0836A1A438A6001688A6822F04052C1
:101020008A6001688A68C36A1A4301E022F040526C
:101030008A6001688A6822F002028A6001688A6810
:10104000037E42EA43028A6090F82010002901687A
:101050004A680FD042F400624A6001684A6822F48C
:1010600060424A6001684A68174C436A04EB4333A4
:101070001A4301E022F400624A600168CA6A22F45D
:101080007002CA620168CA6A838B104C04EB035376
:101090001A43CA6201688A6822F400728A60016891
:1010A0008A6890F8303042EA43228A6001688A6890
:1010B00022F480628A6001688A68406942EA80207E
:1010C000886010BD0023014000E0FFFF0000F0FF3A
:1010D0007CB507F01FF92C480624CDE900404FF4F9
:1010E000807500232A4629A12F4807F079FB0128A3
:1010F00002D12EA003F080FD23480023001DCDE97E
:1011000000402C462A4634A13A4807F069FB0128E2
:1011100002D139A003F070FD1B4905200831CDE94B
:101120000001002322463FA1444807F059FB012853
:1011300002D143A003F060FD134804250838CDE92F
:1011400000500023224648A14A4807F049FB0128E5
:1011500002D149A003F050FD0B480023001FCDE948
:10116000005022464CA14F4807F03AFB012802D11B
:101170004DA003F041FD04480C38006A07F0AEF9B9
:10118000BDE87C4007F0E6B80C000020436C6F73AC
:1011900065646C6F6F705F464F435F305F496E6987
:1011A000745F5461736B0000CD120008B4B4BDA825
:1011B00020436C6F7365646C6F6F705F464F435F65
:1011C000305F496E69745F5461736B20C8CECEF195
:1011D000B3C9B9A6210A0A00436C6F7365646C6FCA
:1011E0006F705F464F435F315F496E69745F546152
:1011F000736B000089130008B4B4BDA820436C6F62
:101200007365646C6F6F705F464F435F315F496E0B
:1012100069745F5461736B20C8CECEF1B3C9B9A6AF
:10122000210A0A00436C6F7365646C6F6F705F46D0
:101230004F435F305F5461736B0000003D14000842
:10124000B4B4BDA820436C6F7365646C6F6F705F3E
:10125000464F435F305F5461736B20C8CECEF1B30D
:10126000C9B9A6210A0A00005553415254315F54AE
:1012700061736B006D4B0008B4B4BDA82055534199
:101280005254315F5461736B20C8CECEF1B3C9B9EB
:10129000A6210A0A000000005553415254335F54FE
:1012A00061736B00894B0008B4B4BDA8205553414D
:1012B0005254335F5461736B20C8CECEF1B3C9B9B9
:1012C000A6210A0A00000000FEE7000038B51BA0B6
:1012D00003F092FC1D4C9FED1C0A1D4984ED090A88
:1012E00000203C3402F0A2FE1A4800901A4B07225C
:1012F0000621DFED1A0A9FED1A0A002002F01CFCFD
:101300001849002002F0B4FE00219FED170A08469C
:1013100002F038FF9FED150A022084ED320A207793
:10132000134901206077087012A003F065FC104893
:10133000401EC068BDE8384007F0D0B8415335368C
:1013400030300D0A00000000C3F5C840844600207C
:10135000A80500200C050020C7CFFFFF0000484271
:101360000AD7233C44060020000000009A99193E49
:10137000010000204D6F746F725B305D20726561FB
:1013800064792E0D0A00000038B51AA003F034FC71
:101390001C4C9FED1B0A1C4984ED760A012002F0CB
:1013A00045FE1A4800901A4B05220421DFED190A68
:1013B0009FED190A012002F0BFFB1849012002F03D
:1013C00057FE00219FED160A012002F0DBFE0220ED
:1013D00084F80C021349012084F80D02487012A011
:1013E00003F00AFC0F48401E0069BDE8384007F0D2
:1013F00075B800004153353630300D0A000000004A
:10140000C3F5C84084460020540500200C05002088
:10141000C7CFFFFF000048420AD7233CFC0500204D
:1014200000000000010000204D6F746F725B315DA1
:101430002072656164792E0D0A000000134C08B516
:10144000134E651EA86988B10020A861217841B1BA
:1014500038B196ED090A002006F06EFA002006F079
:101460006FF9607860B1A86910B109E00120ECE77C
:1014700096ED760A012006F05FFA012006F060F989
:101480000221684606F0E4FFDCE7000001000020CE
:10149000844600202DE9F0432DED028B85B09FEDB1
:1014A0003C0A6D2110FB01F13A48DFF8EC8000EBBB
:1014B0008104002684ED260A84ED2A0A84ED2E0A92
:1014C00004F18C0704F19C054FF47A7997E80F003A
:1014D00005F071FCD4ED260A30EE200A84ED260AD0
:1014E00095E80F0005F067FCD4ED2A0A30EE200ADB
:1014F00084ED2A0AD4F8B01041450CD004F1AC00B8
:10150000D0E90223006805F056FCD4ED2E0A30EE37
:10151000200A84ED2E0A012006F074FF761C4E4549
:10152000D4DBD4ED260A9FED1D0A80EE808A84ED7F
:10153000268AD4ED2A0AC0EE808AC4ED2A8AD4F81D
:10154000B010414505D0D4ED2E0A80EE801A84ED0E
:101550002E1AD4F8B800FFF780F806460F4618EEAA
:10156000900AFFF77AF804460D4618EE100AFFF7C6
:1015700074F88DE8F00041EC100B09A053EC102B2F
:1015800003F03AFB05B0BDEC028BBDE8F083000030
:101590000000000084460020C7CFFFFF00007A440F
:1015A0006F66667365745F69613A252E34662C6FC9
:1015B00066667365745F69623A252E34662C6F66C1
:1015C000667365745F69633A252E34662E0D0A00D2
:1015D000704772B6FEE710B5044607F059F960602F
:1015E000206010BD10B5044600F00BF82168814260
:1015F00002D9C943014400E0411AA16020600846B5
:1016000010BD10B5044607F043F9606010BD00003E
:1016100078B50024009490F83C20012A19D00122CA
:1016200080F83C200A6807230568092A13D9EE6868
:101630000A3A02EB420293409E43EE600B788A68BE
:101640000A3B03EB43039A400368DD682A43DA60F0
:1016500010E0022078BD2E6902EB420293409E43C7
:101660002E610B788A6803EB43039A4003681D6977
:101670002A431A614A681F23072A13D205686E6B32
:10168000521E02EB820293409E436E630B790A88DE
:101690005B1E92B203EB83039A4003685D6B2A439F
:1016A0005A6327E005680D2A12D22E6BD21F02EB77
:1016B000820293409E432E630B790A88DB1F92B20D
:1016C00003EB83039A4003681D6B2A431A6311E0FE
:1016D000EE6A0D3A02EB820293409E43EE620B7972
:1016E0000A880D3B92B203EB83039A400368DD6ADC
:1016F0002A43DA62164B0568144A9D4206D10D68EA
:10170000122D03D1556845F48005556005689D424A
:1017100018D10B68102B01D0112B13D1536843F44F
:1017200000035360096810290CD10A490A4A096864
:10173000B1FBF2F101EB8101490000E0491E00918B
:101740000029FBD180F83C40002078BD00230140F7
:10175000002001403C00002040420F000068C06CA7
:10176000704770B504004FF0000503D0206C0026D0
:1017700010B107E0012070BD204600F01DF866643E
:1017800084F83C60206CC00610D4206C20F4885093
:1017900040F0020020642046FFF706FC6664206CDF
:1017A00020F0020040F00100206400E0012584F8F0
:1017B0003C60284670BD000010B586B00446142178
:1017C0006846FEF797FD1149206888421CD11048F1
:1017D0000021026842F480720260006800F48070A8
:1017E00005900B481438026842F00102026000685C
:1017F00000F001000590F02000900320CDE90101E8
:101800006946044800F056F906B010BD00200140BA
:1018100044380240000002402DE9F04104460068CF
:101820000D4681684FF0000749050BD58068C0055B
:1018300008D5206C40F02000206484F83C70012022
:10184000BDE8F08100F034FA064613E0681C11D0C0
:1018500025B100F02DFA801BA8420BD92068006842
:10186000800707D4206C40F00400206484F83C70AA
:101870000320E5E7206800688007E7D521686FF05E
:1018800012000860206C40F40070206420688168B9
:1018900011F0405F13D1217E89B9C16A11F4700F34
:1018A00002D0806840050AD4206C20F48070206447
:1018B000206CC00403D4206C40F0010020640020A0
:1018C000BEE7000018B50021009190F83C20012AE5
:1018D00007D0012280F83C2002689368DB0702D021
:1018E00011E0022018BD936843F0010393602E4A73
:1018F0002E4B1268B2FBF3F202EB420200E0521EE2
:101900000092002AFBD102689368DB0742D0036C87
:1019100040F20164A34343F48073036453685B059E
:1019200005D5036C23F4005343F480530364036C24
:10193000DB0404D5436C23F00603436400E04164F8
:1019400080F83C101A496FF0220313604968006860
:10195000CA06184906D0884224D1816811F0405F38
:1019600013D01FE08842F8D0134A904203D1D1F837
:101970000423D206F1D0114A904213D1D1F80413B6
:1019800001F01F011029E8D30CE0816841F080418B
:10199000816007E0016C41F010010164416C41F08D
:1019A00001014164002018BD3C00002040420F00AE
:1019B000002301400020014000210140002201409D
:1019C00090F83C1001290CD0012180F83C100168EE
:1019D0008A6822F001028A6001688968C90702D01A
:1019E00007E002207047016C21F4885141F00101A9
:1019F0000164002180F83C10084670472DE9F04151
:101A00000446876D00F054F9064694F83500002529
:101A1000022806D08020606584F834500120BDE89B
:101A2000F0812068016821F0160101602068416999
:101A300021F080014161206C08B9A06C20B12068C0
:101A4000016821F0080101602068016821F00101AE
:101A500001600CE000F02CF9801B052807D920203C
:101A60006065032084F8350084F83450D7E7206897
:101A70000068C007EED194F85C103F208840B86041
:101A8000012084F8350084F834500020C7E790F82E
:101A90003510022903D080214165012070470521BE
:101AA00080F835100068016821F001010160002014
:101AB000704700002DE9F84FDFF8BCA10022012596
:101AC00003264FF00F090AF1040BAAF1040E00BF20
:101AD0000B6805FA02F42340A34270D10F7907F096
:101AE0000307012F01D0022F16D187684FEA420861
:101AF00006FA08FC27EA0C07D1F80CC00CFA08FC1F
:101B00004CEA070CC0F808C04768A7430C79C4F337
:101B1000001494403C4344600C79E443A4070AD089
:101B2000C4684FEA420C06FA0CF7BC438F6807FA08
:101B30000CF72743C7600C7904F00304022C12D180
:101B4000D40800EB840CDCF820405707FF0E09FA9C
:101B500007F824EA0804D1F8108008FA07F848EAE0
:101B60000408CCF8208004684FEA420C06FA0CF70F
:101B7000BC430F7907F0030707FA0CF72743076008
:101B80004C6814F4403F70D03C4C276847F48047C1
:101B90002760246822F0030704F480440094384C42
:101BA00007EB040CDCF8084897074FEA177809FAA6
:101BB00008F7BC43334FB84202D1002724E054E079
:101BC000314FB84201D101271EE0304FB84201D158
:101BD000022719E02E4FB84201D1032714E02D4F00
:101BE000B84201D104270FE02B4FB84201D105279D
:101BF0000AE02A4FB84201D1062705E0284FB84233
:101C000001D1072700E0082707FA08F72743CCF897
:101C10000878DAF800405746D1F804C09C435FEAE0
:101C2000CC2C00D51C433C60DBF800405F46D1F86B
:101C300004C09C435FEA8C2C00D51C433C60DEF85A
:101C400000407746D1F804C09C435FEA8C3C00D545
:101C50001C433C60084F083F3C68D1F804C09C43DB
:101C60005FEACC3C00D51C433C60521C102AFFF4B8
:101C70002FAFBDE8F88F0000083C01404438024017
:101C80000030014000000240000402400008024011
:101C9000000C0240001002400014024000180240F4
:101CA000001C02400AB1816170470904FBE7000093
:101CB00001488068704700003000002070B50400C3
:101CC00025D094F83D00002520B984F83C502046EA
:101CD00000F0BAF9242084F83D002068016821F062
:101CE000010101602068016841F400410160206841
:101CF000016821F40041016000F09EFB4D4A6168DB
:101D0000914201D84C4900E04C49884201D201205F
:101D100070BD4B492368B0FBF1F15E6826F03F06C9
:101D20000E435E606368934206D94FF4967359433D
:101D30004FF47A73B1FBF3F12368491C1E6A26F055
:101D40003F06314319626168914210D84900401E34
:101D5000B0FBF1F2521CC2F30B02042A01D20420A0
:101D600022E0B0FBF1F0401CC0F30B001CE0A268C5
:101D7000F2B301EBC10303EB0116431EB3FBF6F311
:101D80005B1C43F480431B0549D092B301EBC102B5
:101D900002EB0111401EB0FBF1F0401CC0F30B0040
:101DA00040F4804040F400402168CA694CF6FF735B
:101DB0009A431043C861D4E90710014320680268C0
:101DC00022F0C00211430160D4E9030101432068FD
:101DD000826848F2FF339A4311438160D4E90501D8
:101DE00008432168CA6822F0FF021043C86001E07E
:101DF0000EE016E02068016841F0010101602564F1
:101E0000202084F83D00256384F83E50002070BDFA
:101E100001EB4106431EB3FBF6F35B1CB3E7012065
:101E2000C2E701EB4101401EB0FBF1F0401CC0F3E2
:101E30000B00B7E7A086010080841E0000093D006A
:101E400040420F002DE9FF4F83B09A46DDE911872C
:101E500093460446DDF84090FFF72AFF054694F8C4
:101E60003D00202870D11923012274492046009595
:101E700001F02AFD0028F5D194F83C00012863D038
:101E8000012084F83C0020680168C90703D101687B
:101E900041F0010101602068016821F400610160E6
:101EA000222084F83D00402084F83E00002626646D
:101EB000C4F82490A4F82A80608D20856048E062F0
:101EC000CDE9007553465A462046049901F07EFC40
:101ED000002879D1208DD0B1012821D00228206896
:101EE00024D0416980690090208D032866D801289C
:101EF0002BD0544902283B464FF00002009557D0A2
:101F00008846204601F0E0FC00285DD13AE02068D8
:101F1000416981690091016841F4007101607DE0CF
:101F20002068016821F480610160F0E7016821F414
:101F3000806101602068016841F4006101602068EF
:101F400041698069009069E075E02A46394620467B
:101F500001F060FD88BB54E02068016841F4007125
:101F6000016020680069616A0870606A401C6062F4
:101F7000218D491E2185618D491E61852168096970
:101F8000017042E02068016821F4806101602068EE
:101F90000069616A0870606A401C6062208D401EA2
:101FA0002085608D401E60853B460022414600959D
:101FB000204601F089FC00B9CEE705E02A46394603
:101FC000204601F027FD18B1012007B0BDE8F08FD1
:101FD00020680069616A0870606A401C6062208D38
:101FE000401E81B22185608D401E60852068426957
:101FF000D243520712D4032903D1016821F480612E
:10200000016020680069616A0870606A401C606253
:10201000208D401E2085608D401E6085208D00280B
:102020007FF462AF202084F83D0084F83E6084F89D
:102030003C600020C9E70220C7E700000200100052
:102040000000FFFF040001002DE9F04186B00446C6
:1020500014216846FEF74EF92F4A2168DFF8BC804C
:1020600000242E4812250326042708F11008914267
:102070001CD1016841F002010160006802AA00F071
:1020800002000590B002CDE9000582E8D000694663
:102090002348FFF70FFDD8F8001041F48001C8F87D
:1020A0000010D8F8000000F4800031E01D4A914291
:1020B0002FD1016841F004010160016801F00401C1
:1020C0000591016841F0010101600068694600F076
:1020D000010005905015CDE9000502AA124882E8DA
:1020E000D000FFF7E7FC4FF48070CDE9000502AAAD
:1020F000694682E8D0000D48FFF7DCFCD8F80010F4
:1021000041F40001C8F80010D8F8000000F4000005
:10211000059006B0BDE8F08100580040303802401C
:1021200000040240005C0040000802400000024041
:1021300002488168027811448160704730000020B5
:102140000B4810B5016841F400710160016841F469
:1021500080610160016841F480710160032000F03A
:102160009FF80F2000F006F800F050F8002010BD96
:10217000003C024030B505461F4887B00024016886
:1021800041F010010160006806A900F01000009005
:1021900001A800F031F90498A8B100F04DF9400011
:1021A0001649174AB0FBF1F11648491E026040F289
:1021B000E732C0E90324C0E90114846100F08CFB1C
:1021C000040003D015E000F037F9E9E70D4800F00E
:1021D000E9FB04000DD1362000F034F8102D07D2B1
:1021E00000222946362000F03BF80748056000E051
:1021F000012407B0204630BD4038024040420F0065
:1022000000100040AC080020340000200C4882B0D0
:10221000016841F480410160006800F48040009052
:102220000748001F016841F08051016000680022EA
:1022300000F0805000900F21901E02B000F010B806
:1022400044380240002809DB00F01F0201219140C0
:102250004009800000F1E020C0F800117047000044
:10226000F0B40E4B1B680C46C3F30223C3F1070501
:10227000042D00D90425191D072901D2002300E0EF
:10228000DB1E012606FA05F1491E214099409E40B9
:10229000761E16403143F0BC02F0D6BC0CED00E0D7
:1022A000064900F0070208684FF6FF03184040EAAD
:1022B0000220034A10430860704700000CED00E064
:1022C0000000FA052DE9F0470E46050065D0DFF85D
:1022D0001481D8F80000F7B200F00700B04207D22E
:1022E00088F80070D8F8000000F00700B04254D120
:1022F00028683D4C810712D5400703D5206840F47B
:10230000E05020602878000703D5206840F4604042
:1023100020602068A96820F0F00008432060287839
:10232000C0072DD0304968680839012812D002282A
:1023300013D0032811D00968890700292DDA2168F4
:1023400021F0030101432160FFF7B2FC814641F215
:10235000883A0EE009688903EFE709688901ECE72C
:10236000FFF7A6FCA0EB0901514502D90320BDE807
:10237000F0872068696800F00C00B0EB810FEFD1A6
:10238000D8F80010404601F00701B14207D90770A4
:10239000006800F00700B04201D00120E7E728788C
:1023A000400705D52068E96820F4E0500843206024
:1023B0002878000706D52068296920F4604040EAA3
:1023C000C100206000F058F82168084AC1F30311E9
:1023D000515CC8400649086006480068FFF7CAFE1D
:1023E0000020C4E7003C0240083802402C8A000864
:1023F0003C000020340000200F2202600C4A1368C9
:1024000003F003034360136803F0F0038360136871
:1024100003F4E053C36012684FF4E05303EAD202BE
:1024200002610448006800F007000860704700007F
:1024300008380240003C0240044805490068096829
:10244000044AC1F38221515CC84070473C0000201F
:10245000083802403C8A00080448054900680968B9
:10246000044AC1F34231515CC84070473C0000202F
:10247000083802403C8A0008154810B5006810F082
:102480000C02144813D04110042A0FD0082A0ED190
:102490000F4C241F2268236802F03F025B0207D51D
:1024A0002068C0F38810A0FB010106E0084610BDBB
:1024B0002168C1F38811A1FB00010023FDF7E2FEB2
:1024C0002168C1F30141491C4900B0FBF1F010BD86
:1024D000083802400024F4002DE9F84F04006ED0C3
:1024E0002078DFF84C93C007A9F104054AD009F120
:1024F00004000168C1F38101012908D00068C0F31C
:10250000810002280AD1D9F80000400206D52868C7
:10251000800337D560680028E1D033E06068B0F50B
:10252000803F10D0B0F5A02F286810D020F4803064
:102530002860286820F4802028606068A8B1FFF730
:10254000B7FB06460DE0286840F48030F4E740F41D
:1025500080202860F7E700BFFFF7AAFB801B6428F4
:1025600073D828688003F7D50CE0FFF7A1FB064677
:1025700005E000BFFFF79CFB801B6428F0D82868AB
:102580008003F7D42078DFF8AC8280074FF0000A90
:102590003ED5A748001D016811F00C0F08D0006857
:1025A000C0F3810002280BD1D9F80000400207D403
:1025B0002868800716D5E068012800D112E033E1D1
:1025C000E068B8B10120C8F80000FFF771FB0646CB
:1025D00005E000BFFFF76CFB801B0228C0D828680D
:1025E0008007F7D52868216920F0F80040EAC1008B
:1025F00028600DE0C8F800A0FFF75AFB064604E08B
:10260000FFF756FB801B02281FD828688007F7D4E5
:102610002078000722D5864F87486169703771B1ED
:1026200001210160FFF744FB064604E0FFF740FB91
:10263000801B022809D838688007F7D50EE0C0F85B
:1026400000A0FFF735FB064605E082E0FFF730FB10
:10265000801B02287DD838688007F7D4207840078F
:1026600068D5DFF8CCB100270BF13C0BDBF800009C
:10267000C0000BD4DBF8001041F08051CBF8001003
:10268000DBF80000012700F0805000906B4E3068AE
:10269000C00510D4306840F480703060FFF708FB4C
:1026A000009005E0FFF704FB0099401A022850D87B
:1026B0003068C005F6D55E4EA0686C3601280FD094
:1026C0000528306810D020F001003060306820F01C
:1026D00004003060A068B8B1FFF7EAFA00900FE09C
:1026E000306840F00100F4E740F004003060F7E7A4
:1026F000FFF7DEFA0099411A41F28830814266D82C
:1027000030688007F4D50EE0FFF7D2FA009007E0BA
:10271000FFF7CEFA0099411A41F28830814256D82B
:1027200030688007F4D42FB1DBF8001021F080511D
:10273000CBF80010A069C8B33D49091D0968C1F371
:10274000810102294AD00228504607D0C8F860000B
:1027500000E03CE0FFF7ACFA04463BE04746C8F82F
:102760006000FFF7A5FA064605E000BFFFF7A0FAF4
:10277000801B02282BD828688001F7D4D4E90701F0
:102780000843A16A2E4A490802EB0141626A41EA04
:102790008211084394F82C1040EA0161C9F8001036
:1027A00001203866FFF784FA044606E03EE000BFE9
:1027B000FFF77EFA001B022809D828688001F7D5A8
:1027C00034E000BFFFF774FA001B022802D903208F
:1027D000BDE8F88F28688001F4D427E00128F7D0FD
:1027E000D9F80000E26900F4800191421CD1226A0C
:1027F00000F03F01914217D147F6C071626A014073
:10280000B1EB821F10D1A26A4FF0FF3300F44031C8
:1028100003EB5202B1EB024F06D194F82C1000F0FA
:102820007060B0EB016F01D00120D1E70020CFE74D
:102830000438024000004742800E474200700040CA
:102840000000FFFF7047704770B590F83C20012AE8
:1028500032D0012480F83C40022280F83D200368F9
:102860005A689D6822F070060A6832435A60134B1A
:1028700002689A4214D0B2F1804F11D0104B9A42A4
:102880000ED0104B9A420BD00F4B9A4208D00F4BF0
:102890009A4205D00E4B9A4202D00E4B9A4204D176
:1028A000496825F080031943916080F83D4000217C
:1028B00080F83C10084670BD022070BD0000014049
:1028C0000004004000080040000C004000040140EB
:1028D000004001400018004010B5040003D094F8F7
:1028E0003D0010B107E0012010BD002084F83C003D
:1028F000204600F01FF8022084F83D00211D2068CA
:1029000001F052FE012084F8460084F83E0084F86D
:102910003F0084F8400084F8410084F8420084F8C5
:10292000430084F8440084F8450084F83D0000200A
:1029300010BD000008B5174A01681748914207D139
:10294000016841F002010160006800F0020009E046
:10295000124A914208D1016841F004010160006807
:1029600000F00400009008BD0D4A9142FBD10168BF
:1029700041F0200101600068002200F0200000907A
:1029800005213720FFF76CFCBDE808403720FFF732
:1029900059BC0000000400404038024000080040DC
:1029A0000014004090F83D10012901D0012070472B
:1029B000022180F83D100168CA6842F00102CA6035
:1029C00000681149884214D0B0F1804F11D00F49EE
:1029D00088420ED00E4988420BD00E49884208D05A
:1029E0000D49884205D00D49884202D00C498842E1
:1029F00004D1816801F00701062903D0016841F084
:102A00000101016000207047000001400004004007
:102A100000080040000C004000040140004001405C
:102A20000018004070B5044690F83C0000250128CD
:102A300017D0012684F83C60022084F83D0020680D
:102A4000826822F0770222F47F4282600868502870
:102A500038D00DDC20284FD005DC90B3102811D1E0
:102A60004AE0022070BD302846D040280AD13BE021
:102A700060282FD070280DD0B0F5805F03D0B0F55E
:102A8000005F12D0012584F83D60002084F83C00EE
:102A9000284670BDCB68D1E90121206801F0FDFD19
:102AA0002068816841F0770109E0CB68D1E9012114
:102AB000206801F0F2FD2068816841F48041816066
:102AC000E1E719E0CA684968206801F0BBFE5021BF
:102AD000206806E0CA684968206801F0C4FE6021E9
:102AE000206801F0E4FDCEE7CA684968206801F07B
:102AF000A9FE40212068F4E7226801461046F0E76D
:102B000070472DE9F04104460068C66805694FF03A
:102B10000007A90713D5B10711D5F91E01610120DE
:102B20002077206880698007204602D0FFF7E8FF01
:102B300004E000F0BFF8204600F051F9277768075D
:102B400016D5700714D521686FF0040008610220C3
:102B500020772068806910F4407F204602D0FFF77C
:102B6000CFFF04E000F0A6F8204600F038F9277700
:102B7000280715D5300713D521686FF008000861C4
:102B8000042020772068C0698007204602D0FFF724
:102B9000B7FF04E000F08EF8204600F020F9277718
:102BA000E80616D5F00614D521686FF0100008610C
:102BB000082020772068C06910F4407F204602D0AA
:102BC000FFF79EFF04E000F075F8204600F007F9DB
:102BD0002777E80708D0F00706D021686FF00100DA
:102BE0000861204600F060F9280608D5300606D5B1
:102BF00021686FF0800008612046FFF723FE680619
:102C000008D5700606D521686FF04000086120469F
:102C100000F070F9A8060AD5B00608D521686FF053
:102C2000200008612046BDE8F041FFF70CBEBDE87A
:102C3000F081000030B587B0044614216846FDF7E6
:102C400059FB2468164D0021164802224FF4E07308
:102C5000AC420FD1046844F004040460006800939F
:102C600000F004000590CDE90121CDE90312694689
:102C70000D4811E00D4DAC4210D1046844F002043F
:102C800004600068009300F002000590CDE9012186
:102C9000CDE9031269460648FEF70CFF07B030BDC8
:102CA00000040040303802400008024000080040A4
:102CB00000040240704770B5044690F83C000026BE
:102CC0000D4601280FD0012084F83C006AB1042A87
:102CD0001DD0082A2FD00C2A3FD00126002084F8CE
:102CE0003C00304670BD022070BD206801F0E8FC59
:102CF0002068816941F0080181612068816921F0C3
:102D000004018161206881692A69114311E020680A
:102D100001F006FD2068816941F40061816120684D
:102D2000816921F480618161206881692A6941EAB1
:102D300002218161D2E7206801F028FD2068C16985
:102D400041F00801C1612068C16921F00401C1613D
:102D50002068C1692A69114311E0206801F04AFD29
:102D60002068C16941F40061C1612068C16921F432
:102D70008061C1612068C1692A6941EA0221C1619B
:102D8000ACE710B5040003D094F83D0010B107E0A3
:102D9000012010BD002084F83C00204600F01EF801
:102DA000022084F83D00211D206801F0FDFB012078
:102DB00084F8460084F83E0084F83F0084F8400020
:102DC00084F8410084F8420084F8430084F8440009
:102DD00084F8450084F83D00002010BD704770471E
:102DE00010B50446022249B104290ED0082913D097
:102DF00094F84100012816D0012010BD94F83E003F
:102E00000128F9D184F83E200FE094F83F00012812
:102E1000F2D184F83F2008E094F840000128EBD17B
:102E200084F8402001E084F841200122206801F06C
:102E300027FC16492068164A884201D0904203D1E7
:102E4000436C43F4004343642068884213D0B0F1DC
:102E5000804F10D00F4988420DD00F4988420AD0C8
:102E60000E49884207D0904205D00D49884202D0D1
:102E70000C49884204D1816801F00701062903D07A
:102E8000016841F001010160002010BD0000014017
:102E9000000401400004004000080040000C004015
:102EA000004001400018004010B5044600680E497B
:102EB000884201D1FFF73CF90C49206888420FD1C4
:102EC00001F06AFB01F05CFB3221B0FBF1F201FB87
:102ED0001200002804D10648C16911B10021C16166
:102EE00010BD0121FBE7000000100040001400406D
:102EF000000000207047704770470000F8B5016877
:102F000004460868CA684B6910F00F0F4FF00005BF
:102F100059D003F0010602F49077374365D0C1071A
:102F200005D0D10503D5616C41F001016164410711
:102F300005D5D90703D0616C41F0020161648107B6
:102F400005D5D90703D0616C41F004016164010724
:102F500007D502F02001314303D0616C41F0080134
:102F60006164616C00293AD0800604D5900602D5D0
:102F7000204601F0B9FC20684069616CC0F3801004
:102F8000090700D460B3204601F087FC206840693F
:102F9000400621D52068143050E8001F21F0400180
:102FA00040E80012002AF5D1E06BA8B16E49016536
:102FB000E06BFEF76CFD002811D0E06B016D01B0F5
:102FC000BDE8F040084783060FD593060DD520468F
:102FD000BDE8F84001F088BC2046FFF78DFFF8BD42
:102FE0002046FFF789FF6564F8BD266B2023012E7C
:102FF0007DD1C6067BD5D60679D50868486800908D
:1030000048694FF00206400641D5E16B0868406808
:103010000004000CE8D0A28D8242E5D9E085C869A1
:10302000B0F5807F2DD020680C3050E8001F21F4CF
:10303000807140E80012002AF5D12068143050E871
:10304000001F21F0010140E80012002AF5D120689C
:10305000143050E8001F21F0400140E80012002A1F
:10306000F5D184F84230256320680C3050E8001F09
:1030700021F0100140E80012002AF5D1E06BFEF7C4
:10308000BDFC6663A08DE18D401A81B22AE0A08D5F
:10309000E18D401A81B2E08D0028A5D00029A3D08F
:1030A00022680C3252E8000F20F4907042E80007CA
:1030B000002FF5D12068143050E8002F22F00102D3
:1030C00040E80027002FF5D184F8423025632068BE
:1030D0000C3050E8002F22F0100240E80023002BB3
:1030E000F5D166632046FFF706FFF8BDFFE705064A
:1030F0002BD5150629D594F841002128F5D1A068D3
:10310000B0F5805F01D12069B0B1206A411C216215
:10311000216800784860E08C401E0004000CE084C8
:10312000E3D12068C16821F08001C1602068C168D6
:1031300041F04001C160D8E7206A0088C0F3080070
:103140004860206A801C2062E5E74006CDD5500625
:10315000CBD5CA68204622F04002CA6084F84130CC
:1031600000F01AFBC1E700008B48000870B50400AE
:1031700004D094F84100002510B106E0012070BD94
:1031800084F84050204600F023F8242084F84100C1
:103190002068C16821F40051C160204601F006FC9E
:1031A0002068016921F4904101612068416921F0A2
:1031B0002A0141612068C16841F40051C160656421
:1031C000202084F8410084F842006563002070BD2F
:1031D000F0B587B0044614216846FDF78BF8344BF0
:1031E00027680022334902240325072632489F42DC
:1031F00024D1304B14331F6847F010071F601B6841
:1032000003F0100305930B6843F001030B6009689A
:1032100002AB01F0010105916902CDE9001483E8D8
:1032200064006946FEF746FC002204212520FFF7D2
:1032300017F82520FFF706F807B0F0BD1D4BDFF8A3
:103240007CC01033674514D11F6847F400371F60F6
:103250001B6803F4003305930B6843F001030B6014
:10326000096801F0010105910C21CDE900146946BE
:1032700018E013488742DFD1186840F480201860B6
:10328000186800F480200590086840F00400086089
:103290000868694600F0040005904FF44060CDE9ED
:1032A0000004084802AF87E86400FEF703FCC3E7A8
:1032B000001001403038024000000240004400404D
:1032C000004800400008024090F84230202B01D016
:1032D0000220704721B11AB10023036301F0ECBB57
:1032E000012070472DE9F0470068C849884266D13F
:1032F0005021EFF3118081F31188BFF34F8FBFF39B
:103300006F8FC34D8046C34E6888297802044FF002
:10331000000718D4420408D50A2910D140F400400F
:103320006880C0F30D0037540AE00D2941D0C0F386
:103330000D02401C80B2B1546880FF2800D96F8014
:10334000688800046FD50222B3A1B248FCF7DDFF04
:10335000B24CDFF8CCA280B30222B2A1AD48FCF798
:10336000D4FF002860D00222AFA1AA48FCF7CDFF0D
:10337000002862D00222ADA1A648FCF7C6FF0028B3
:1033800065D00222AAA1A348FCF7BFFF002868D09D
:103390000222A8A19F48FCF7B8FF4FF4007900284B
:1033A00074D00222A4A19B48FCF7AFFF002874D080
:1033B0007BE040F480406880C2E7FFE700E022E164
:1033C0009EA001F019FCAAA001F016FC606AFDF7AE
:1033D00044F941EC100BAAA053EC102B01F00CFCAB
:1033E000D4F80401FDF739F941EC100BA8A053EC17
:1033F000102B01F001FCD4F80801FDF72EF941EC87
:10340000100BA6A053EC102B01F0F6FBD4F80C0126
:10341000FDF723F941EC100BA3A053EC102B01F0A6
:10342000EBFB86A03FE0E7E0B01C01F01DFC51EC97
:10343000100BFDF73DF960621CE0B01C01F014FCBC
:1034400051EC100BFDF734F9C4F8040112E0B01C84
:1034500001F00AFC51EC100BFDF72AF9C4F8080141
:1034600008E0B01C01F000FC51EC100BFDF720F956
:10347000C4F80C01FDF7F1F841EC100B8DA053ECF2
:10348000102B01F0B9FB10E000E006E001224946F4
:103490005046FEF707FC8AA005E000224946504648
:1034A000FEF700FC89A001F0A7FB02228AA159487F
:1034B000FCF72BFF60B3022288A15648FCF725FFDA
:1034C000002858D0022286A15248FCF71EFF00288F
:1034D0005BD0022283A14F48FCF717FF00285ED083
:1034E000022281A14B48FCF710FF002861D0022284
:1034F0007EA14848FCF709FF4FF4004400286BD038
:1035000002227BA14348FCF700FF00286BD072E049
:103510004AA001F071FB56A001F06EFBD4F8D8016F
:1035200004F51174FDF799F841EC100B54A053EC1D
:10353000102B01F061FB606FFDF78FF841EC100B71
:1035400053A053EC102B01F057FBA06FFDF785F84B
:1035500041EC100B51A053EC102B01F04DFBE06F30
:10356000FDF77BF841EC100B4FA053EC102B01F052
:1035700043FB32A03DE0B01C01F076FB51EC100B98
:10358000FDF796F8C4F8D8011CE0B01C01F06CFB04
:1035900051EC100BFDF78CF8C4F8B80212E0B01C27
:1035A00001F062FB51EC100BFDF782F8C4F8BC028D
:1035B00008E0B01C01F058FB51EC100BFDF778F857
:1035C000C4F8C002FDF749F841EC100B39A053ECE8
:1035D000102B01F011FB0EE0012221465046FEF7B0
:1035E00061FB37A005E0002221465046FEF75AFB5A
:1035F00036A001F001FB6F80012205493D48FFF72D
:1036000063FE88F31188BDE8F087000000100140D8
:103610002C000020D4060020304800008446002002
:1036200000040240305400003050000030490000D7
:1036300030440000304F0000304600002D2D2D2D6D
:103640002D2D2D2D2D2D2D2D2D2D2D2D2D2D2D2DAA
:103650002D2D2D2D2D2D2D2D2D2D2D2D2D2D2D2D9A
:103660002D2D2D2D2D2D2D2D2D2D2D2D2D0D0A00FA
:1036700048656C6C6F20576F726C64210D0A0000F6
:10368000746172676574203D20252E34660D0A0032
:1036900050203D20252E34660D0A000049203D2093
:1036A000252E34660D0A000044203D20252E346668
:1036B0000D0A000052583D252E34660D0A00000008
:1036C0004F4E204F4B210D0A000000004F46462070
:1036D0004F4B210D0A00000031480000315400001A
:1036E000315000003149000031440000314F0000EA
:1036F00031460000D40700202DE9F843044690F835
:103700004100984616460D46202802D00220BDE80A
:10371000F88385B17EB100206064212084F84100E7
:10372000FEF7C6FAA6848146E684A0682027B0F595
:10373000805F02D003E00120E9E7206910B12E4646
:1037400000250EE000260CE08021204601F0CFF994
:10375000A8B9C6B116F8010B21684860E08C401E7C
:10376000E084E08C4B464FF00002CDF8008000284A
:10377000EAD14FF04001204601F0B9F940B184F898
:1037800041700320C3E735F8020BC0F30800E3E7FC
:1037900084F841700020BAE77047FEE701684A6983
:1037A000D24352050FD46FF480624A61002140F881
:1037B000301F202242738173026942F004020261C9
:1037C0000173012070470020704700002DE9F84F79
:1037D0000446006889460B9D01689846174641F4E7
:1037E000806101602068016841F48071016000958A
:1037F0004FF0011B0022594620460A9B00F064F856
:103800004FF4007A40B120680068C00501D5C4F8C3
:1038100040A00320BDE8F88F216809F0FE00086190
:103820002B46284920460A9A00F096F8F0BB2068FB
:103830004169806900902A4620460A9900F022F9E1
:1038400040B1206C04283AD12068016841F400712D
:10385000016034E0FEB2B8F1010F09D02168380AE6
:1038600008612A4620460A9900F00CF90028E8D1A0
:10387000206806612A4620460A9900F003F90028CC
:10388000DFD12068016841F4807101600095002259
:10389000594620460A9B00F017F80028B3D121684A
:1038A00009F0FF0040F00100086100E007E02B464E
:1038B000044920460A9A00F04FF80028AAD00120B7
:1038C000A8E70000020001002DE9F04798461746DE
:1038D0000D460446C1F30746DDF820902AE000BFFC
:1038E000B8F1FF3F26D0FEF7E3F9A0EB090141450F
:1038F00002D8B8F1000F1DD12068012E16D08069C2
:1039000025EA00000004000C12D00020B84211D1BA
:10391000002044F8300F20216173A073216941F029
:103920002001216120730120BDE8F0874069E7E7AD
:103930000120EBE72068012E0AD0806925EA00000B
:103940000004000C06D00020B842C9D00020EBE7EC
:103950004069F3E70120F7E72DE9F047984616465E
:103960000D4604464FF000094FF0200AC1F3074707
:1039700023E020684069C043400515D420680168F1
:1039800041F40071016021686FF480604861C4F8FF
:10399000309084F83DA084F83E90216C41F0040101
:1039A000216484F83C9021E0701C06D0FEF780F979
:1039B000A0EB0800B04203D816B1012F1FD021E0C0
:1039C0002068012F15D0806925EA00000004000C52
:1039D00018D000BF44F8309F84F80DA084F80E90F2
:1039E000216941F02001216184F80C900120BDE89B
:1039F000F087406925EA00000004000CEAD1206845
:103A0000406901E02068806925EA00000004000C9C
:103A1000AFD1ECE72DE9F041002590460E46044673
:103A2000202728E04069C043C0060CD454F8301B5E
:103A30006FF01000486144F810596777A577206A45
:103A40002062257714E0FEF733F9A0EB0800B042BE
:103A500000D886B920684069C04340060BD544F8B9
:103A6000305F6773A573206940F0200020612573E3
:103A70000120BDE8F08120684169C9434906D1D4DD
:103A80000020F6E770B516460D4604461EE02046B7
:103A9000FFF784FE08B1012070BD681C16D0FEF748
:103AA00007F9801BA84200D885B920684069C04347
:103AB00000060BD5002044F8300F20216173A0735D
:103AC000216941F0200121612073E4E72068406909
:103AD000C0430006DBD4002070BD00001FB50021EC
:103AE00003913223042203A98DE80E006D2110FBFF
:103AF00001F00C49012301EB80000C22C06D6C2108
:103B0000FEF7A0F99FED081B9FED090B01F0B0F93E
:103B10009DF80C109DF80D00090704B000EB115042
:103B200010BD000084460020000000000000284076
:103B3000000000000000004038B5044604980090E2
:103B4000204603F095FB2046BDE83840FDF7A2BCB7
:103B500010B56D212DED028BDFED138A10FB01F105
:103B600012489FED138A00EB810404F1D000C4EDEC
:103B7000328A84ED338AFDF72EFDC4ED378A84ED59
:103B8000388A04F1E400FDF726FD9FED0A0A04F1EE
:103B9000F80084ED3C0A84ED3D8ABDEC028BBDE863
:103BA0001040FDF718BD0000CDCC4C3D84460020F0
:103BB0000000000017B7D13810B504462DED028B78
:103BC000B0EE408A0830FDF70DFD00EE100ADFED83
:103BD000120A1249B8EE400A20EE200A10EE100A2E
:103BE000884206DD84ED018AB0EE480ABDEC028B06
:103BF00010BD94ED001A31EE000AC1EE000A94EDFA
:103C0000010AB7EE001A20EE200A71EE600A00EEFB
:103C1000880A84ED010AE9E76F12833A9A99993E7E
:103C20007FB5002414480094019402941149039430
:103C3000C0E9001484600461047680F820400F49D4
:103C4000C0E90A140125C561C46080F830404561AF
:103C5000FDF787FD08B1FDF7BCFC0520CDE90005A7
:103C6000694602940448FDF7D3FC002801D0FDF713
:103C7000B0FC7FBD002001400C0500200100000FBA
:103C800070B586B014216846FCF734FB1F48002449
:103C9000016841F004010160016801F0040105912F
:103CA000016841F080010160016801F08001059127
:103CB000016841F001010160016801F00101059115
:103CC000016841F0020101600068114E00F002003D
:103CD00048F202250590002229463046FDF7E2FF12
:103CE00001200095CDE90104694630460394FDF7B3
:103CF000E1FEB01400904FF48810CDE9010469464C
:103D00003046FDF7D7FE06B070BD000030380240E7
:103D1000000402400D4810B50B4901600C49416098
:103D200000214FF480428160C0E90312416181614A
:103D3000C1610162FDF7C2FF002803D0BDE8104059
:103D4000FDF747BC10BD000000580040540500209E
:103D5000801A06000D4810B50B4901600C494160FE
:103D600000214FF480428160C0E90312416181610A
:103D7000C1610162FDF7A2FF002803D0BDE8104039
:103D8000FDF727BC10BD0000005C0040A805002026
:103D9000801A060010B58EB0002407940894099488
:103DA0000A940B941C2168460C94FCF7A3FA2D4846
:103DB0002B49016003214160202181604FF4C871CB
:103DC000C0E903148461FEF787FD08B1FDF701FC2B
:103DD0004FF48050079007A92248FEF723FE08B150
:103DE000FDF7F7FB1F48FEF7CCFF08B1FDF7F1FB2D
:103DF0000B940BA91B480C94FEF726FD08B1FDF7A8
:103E0000E8FB6020CDE9000404200490002269460C
:103E100002941448FEF74FFF08B1FDF7DAFB0422C5
:103E200069461048FEF747FF08B1FDF7D2FB0822AC
:103E300069460C48FEF73FFF08B1FDF7CAFB0021B9
:103E40000848FEF7CDFF04210648FEF7C9FF082108
:103E50000448FEF7C5FF0348FEF7ECFE0EB010BDA8
:103E600000040040FC05002010B58EB0002407942B
:103E7000089409940A940B941C2168460C94FCF74E
:103E800039FA2D482B4901600321416020218160CE
:103E90004FF4C871C0E903148461FEF71DFD08B139
:103EA000FDF797FB4FF48050079007A92248FEF7D3
:103EB000B9FD08B1FDF78DFB1F48FEF762FF08B1A1
:103EC000FDF787FB0B940BA91B480C94FEF7BCFC79
:103ED00008B1FDF77EFB6020CDE9000404200490CA
:103EE0000022694602941448FEF7E5FE08B1FDF78A
:103EF00070FB042269461048FEF7DDFE08B1FDF7AD
:103F000068FB082269460C48FEF7D5FE08B1FDF7AC
:103F100060FB00210848FEF763FF04210648FEF716
:103F20005FFF08210448FEF75BFF0348FEF782FEAF
:103F30000EB010BD00080040440600201CB500244F
:103F40000F4800940D49019401602921C0E9011432
:103F5000C721C16080218161FEF7BEFC08B1FDF779
:103F600038FB0094694606480194FEF76DFC08B1E1
:103F7000FDF72FFB0248FEF715FD1CBD00140040A5
:103F80008C0600200C4810B50A4901604FF4E1315D
:103F90004160002181600C22C160C0E9041281618E
:103FA000C161FFF7E3F8002803D0BDE81040FDF73A
:103FB00010BB10BD00100140D40700200C4810B504
:103FC0000A4901604FF4E1314160002181600C2217
:103FD000C160C0E904128161C161FFF7C7F8002820
:103FE00003D0BDE81040FDF7F4BA10BD0044004016
:103FF0001C0800200C4810B50A4901604FF4E1315B
:104000004160002181600C22C160C0E9041281611D
:10401000C161FFF7ABF8002803D0BDE81040FDF701
:10402000D8BA10BD004800406408002010B56D22C9
:1040300010FB02F30B4A02EB8304E1654FF480515D
:104040002166FFF74BFD9FED080A002084ED190A59
:1040500084ED1B0AA06604F17000BDE81040FDF776
:10406000BABA00008446002000000000FEE700000D
:1040700070B50E460546FFF76BFD36A000F0BCFD9F
:104080006D2015FB00F0364A02EB8004D4ED060AE1
:1040900094ED030AF4EEC00AF1EE10FA01DD84EDAE
:1040A000060A02F820506660B2EE080A84ED020AA1
:1040B000B0EE000A84ED060A0720E061B1EE080ABE
:1040C00084ED030AB3EE040A84ED050AB2EE040A95
:1040D00084ED040A00262846266200F0A3F884F83E
:1040E000586001209FED1F0A84F8590084ED0A0AE8
:1040F00084ED0B0A84ED0C0A84ED0D0A84ED0F0AA1
:1041000084ED100A84ED110A84ED120A84ED130A7D
:1041100084ED140A84ED150A94ED030A124884ED27
:104120005B0A84ED660A84ED450A94ED050A84ED88
:10413000500A15B1012D07D102E00122510201E020
:104140000122D103FDF7AEFDBDE8704007A000F0ED
:1041500053BD00004D4F543A20496E69740D0A005A
:104160008446002000000000000402404D4F543AF5
:1041700020456E61626C65206472697665722E0DF1
:104180000A00000070B505461D486D2215FB02F2BD
:10419000B5EEC00A00EB8204F1EE10FA02D084ED15
:1041A000110A2162284602F009FE284603F0E2F8CF
:1041B00084ED1B0A10EE100AFCF74FFA41EC100BCD
:1041C00010A053EC102B00F017FD322004F01AF968
:1041D000284603F0FFFF84ED0C0A052004F012F9D5
:1041E000284603F0DFFF84ED0A0A94F859000228FC
:1041F00001D184ED090ABDE87040C82004F002B97D
:104200008446002046697273742067657420616E6D
:10421000676C65203A2025302E33660D0A000000B9
:10422000FEE7000070B56D212DED048BF5EE008AE0
:1042300010FB01F0354D9FED360A05EB80049FED34
:10424000358AC4ED418A84ED420A9FED330A84ED3C
:10425000438A84ED440A95ED030A04F5927084EDD7
:10426000450A84ED468A84ED488A84ED478AFDF745
:10427000B2F9B2EE080A84ED4C0AC4ED4D8AF6EEAE
:10428000008AC4ED4E8A84ED4F8A95ED050A04F547
:10429000A87084ED500A84ED518A84ED528A84ED31
:1042A000538AFDF798F99FED1D9A04F5BE7084EDD1
:1042B000579AC4ED588A84ED598A84ED5A8A95ED4F
:1042C000040A84ED5B0A84ED5C8A84ED5D8A84EDEA
:1042D0005E8AFDF780F984ED629AC4ED638A84ED0D
:1042E000648A84ED658A95ED040A04F5D47084ED42
:1042F000660A84ED678A84ED688A84ED698ABDEC7C
:10430000048BBDE87040FDF766B9000084460020CC
:10431000CDCC4C3E000000000000C842CDCC4C3F4C
:1043200010B504462DED028BB0EE408A2030FDF72B
:1043300059F900EE100AF8EE400A9FED3F0A60EED0
:10434000800AF5EEC00AF1EE10FA04D010EE900AE1
:10435000B0F17C5F01DDF0EE400A94ED011A94EDBE
:10436000000AF6EE001A21EE201A94ED053A60EEEE
:10437000082A94ED070A21EE211A73EE081A01EEBD
:10438000210A94ED041AF1EE411AF4EEC01AF1EE8E
:1043900010FA02DDB0EE610A06E0B4EEC01AF1EEEA
:1043A00010FA01D2B0EE410A38EE433AB0EE402A9C
:1043B00094ED020A72EE822A20EE033A83EE200A7E
:1043C00032EE800AF4EEC01AF1EE10FA02DDB0EE21
:1043D000610A06E0B4EEC01AF1EE10FA01D2B0EEB6
:1043E000410AD4ED031AF5EEC01AF1EE10FA1ADD07
:1043F00094ED061A30EE413AC3EE202AF4EEE21AAA
:10440000F1EE10FA04D2B0EE410A01EEA00A0AE081
:10441000B1EE613AB4EEE23AF1EE10FA03DDB0EE3D
:10442000410A01EEE00A84ED072A84ED060A84EDD4
:10443000058ABDEC028B10BD6F12833AB5EEC00A3F
:10444000F1EE10FA02D89FED160A06E010EE102ADF
:10445000B2F17E5F01DBB7EE000ADFED120A006801
:1044600059B1042911D020EE200A0829BCEEC00A57
:1044700010EE101A11D00164704720EE200ABCEE35
:10448000C00A10EE101A4163704720EE200ABCEEFD
:10449000C00A10EE101A81637047C16370470000B4
:1044A000000000000000C84310B5502080F31188C0
:1044B000BFF34F8FBFF36F8F04F0F0F918B10449C9
:1044C0004FF080500860002080F3118810BD00007C
:1044D00004ED00E030B593B030216846FBF70AFFE9
:1044E00014210CA8FBF706FF1C480025016841F0C9
:1044F00080510160006800F08050119018480168F8
:1045000041F4804101600068022400F48040119071
:1045100001200090000401908001CDE906400820B0
:104520000890A820CDE9090404200B906846FDF707
:10453000D3FF08B172B6FEE70CA90F2081E8310065
:104540004FF48050CDE90F0502210CA8FDF7BAFE0B
:10455000002801D072B6FEE713B030BD40380240EB
:10456000007000400248016841F47001016070472A
:1045700088ED00E00148FEF7C4BA0000AC08002056
:104580000148006870470000280000200148FEF73D
:10459000B8BA00008C06002002480168491C01607E
:1045A0007047000028000020F0B50268294C2A4D11
:1045B0002A4E2B4F2B4B4FF0804CA04209D0604528
:1045C00007D0A84205D0B04203D0B84201D09842EB
:1045D00004D122F0700E4A6842EA0E02A0421BD0BB
:1045E000604519D0A84217D0B04215D0B84213D0B8
:1045F000984211D01C4DA8420ED01C4DA8420BD0A1
:104600001B4DA84208D01B4DA84205D01A4DA84208
:1046100002D01A4DA84203D122F44075CA682A4339
:104620004D6922F080022A4302608A68C2620A68E9
:104630008262A04201D0984201D10969016301213F
:1046400041610169C90703D0016921F001010161DC
:10465000F0BD0000000001400004004000080040E0
:10466000000C0040000401400040014000440140B3
:104670000048014000180040001C0040002000409D
:1046800010B501F01F030121046A99408C430462B4
:10469000016A9A401143016210BD10B5846842EA74
:1046A000032224F47F440A432243826010BD8268BF
:1046B00022F070020A4342F0070181607047000057
:1046C000F0B5036A026A22F001020262426884695C
:1046D000124E24F073050C682C4323F002058B68FE
:1046E0002B430D4DA84201D0B04205D123F008075D
:1046F000CB683B4323F00403A84201D0B04205D16C
:104700004D6922F4407215438A692A4342608461EC
:10471000496841630362F0BD0000014000040140AC
:10472000F0B5026A036A23F01003036243688469E8
:104730000D6824F4E64444EA05248D6822F0200242
:1047400042EA05120F4D104EA84201D0B04206D1E8
:10475000CF6822F0800242EA071222F04002A8420B
:1047600001D0B04207D14D6923F4406343EA850389
:104770008D6943EA8503436084614968816302620D
:10478000F0BD00000000014000040140F0B5026AE5
:10479000036A23F4807303624368C46922F40072DD
:1047A00024F073050C68124E2C438D6842EA0522F2
:1047B0000E4DA84201D0B04206D1CF6822F400626B
:1047C00042EA072222F48062A84201D0B04207D117
:1047D0004D6923F4405343EA05138D6943EA0513F9
:1047E0004360C4614968C1630262F0BD00000140DA
:1047F0000004014030B5046A026A22F48052026269
:104800004268C3690D6823F4E64343EA05238D68D3
:1048100024F4005444EA0534084DA84202D0084D5F
:10482000A84204D14D6922F4804242EA85124260D6
:10483000C36149680164046230BD000000000140AA
:104840000004014010B5036A046A24F00104046204
:10485000846924F0F00444EA021423F00A020A43B3
:104860008461026210BD10B5036A046A24F010046A
:104870000462846923F0A00324F4704444EA023201
:1048800043EA01118261016210BD10B5806B002105
:10489000C185C184FEF730FB10BD01680C3151E8C1
:1048A000002F22F4907241E80023002BF5D101681B
:1048B000143151E8002F22F0010241E80023002BBF
:1048C000F5D1016B012909D101680C3151E8002FA4
:1048D00022F0100241E80023002BF5D1202180F8BE
:1048E000421000210163704708B590F84210222958
:1048F00001D0022008BD82684FF480539A4201D152
:10490000016921B1816A9A421BD04AB10AE002686A
:10491000816A5268C2F308020A80816A891C08E031
:10492000026972B10268526802F07F020A70816AFD
:10493000491C8162C18D491E0904090CC18503D03F
:104940001BE002685268F1E70168CA6822F02002A1
:10495000CA600168CA6822F48072CA6001684A6944
:1049600022F001024A61202180F8421000214163B7
:10497000026B012A03D0FEF7B5FC002008BD0163DD
:1049800001680C3151E8002F22F0100241E80023A9
:10499000002BF5D101680A68D20602D50A68496879
:1049A0000091818DFEF7A7FAE7E7000070B5044695
:1049B00000680169E26821F44051114301612169F5
:1049C000A068E26908436169114308432168CA6825
:1049D00049F20C639A430243CA6020684169A269A4
:1049E00021F440711143416131492068884202D06D
:1049F0003049884202D1FDF72FFD01E0FDF71CFD93
:104A0000E2690023192164253226B2F5004F62685D
:104A100028D0A0FB0101930F9200FBF733FC014665
:104A2000B0FBF5F06FF01802504301EB800006EB8D
:104A30000010B0FBF5F000F0F002B1FBF5F002EB76
:104A40000012B1FBF5F06FF01803584301EB800042
:104A500006EB0010B0FBF5F000F00F0021681044E9
:104A6000886070BDA0FB010192185B41FBF70AFC56
:104A70000146B0FBF5F00201B1FBF5F06FF0180351
:104A8000584301EB800006EBC000B0FBF5F000F0EE
:104A9000F80002EB4002B1FBF5F0584301EB800057
:104AA00006EBC000B0FBF5F000F00700D6E7000011
:104AB000001001400014014081628285C2850021FE
:104AC0004164222180F84210016921B10168CA685D
:104AD00042F48072CA6001684A6942F001024A6188
:104AE0000068C16841F02001C160002070472DE9D5
:104AF000F843984617460D460446089E24E0701C6D
:104B000022D0FDF7D5F8A0EB0800B0421AD8CEB1FC
:104B10002068C168490717D5802D15D0402D13D0C6
:104B20000168C94309070FD4016800254068009057
:104B30002046FFF7B2FE0820606484F84050012050
:104B4000BDE8F8830320FBE72068006835EA000031
:104B500004D00020B842D2D00020F1E70120F9E7CC
:104B60000148FEF7CBB90000D40700200122044918
:104B70000448FEF7A9FBC82003F044FCFBE7000053
:104B80002C000020D4070020164E08B53078800095
:104B900002F09CFE044614A0144D0068CDF80000FD
:104BA00095ED090A642384ED000A95ED0C0A21466F
:104BB00084ED010A95ED760A84ED020A95ED790AF5
:104BC00084ED030A307882000948FEF795FD6423DE
:104BD000042269460648FEF78FFD3C2003F012FCD4
:104BE000DEE70000000000200000807F84460020F7
:104BF00064080020FEE700000FB4054B10B503A9C0
:104C0000044A029801F054FD10BC5DF814FB00004A
:104C10005D730008A800002003B4019841000098CB
:104C200050EAC12018BF04204A0D18BF40F001000F
:104C300040F2FF72B2EB515F08BF40F00200012862
:104C400008BF052002B070470907090E002804DBE1
:104C500000F1E02080F80014704700F00F0000F130
:104C6000E02080F8141D704730B583B0044601F091
:104C70000FFC9FED090B05468DED000B0022214630
:104C80006846FBF794FD284601F018FC9DED000BEB
:104C900003B030BD00000000000000000000000074
:104CA00010B52F499FED2C1B2DED020B84B00598FC
:104CB00020F000408842D8BF9DED040B2DDD29492E
:104CC000884209D1049840B94FF0010001F0F6FB89
:104CD00001F0AEFB06B010BD05DB9DED040B01F04D
:104CE00093FB06B010BD68469DED040B00F08CFFF1
:104CF00010F0030004BF9DED021B9DED000B0CD0D6
:104D000001280ED09DED021B9DED000B022817D04F
:104D1000012001F0C9FA06B010BD01F091F906B00A
:104D200010BD9DED021B9DED000B012001F0BCFAB2
:104D300051EC100B81F0004106B041EC100B10BD9E
:104D400001F07EF951EC100B81F0004106B041EC0E
:104D5000100B10BD0000000000000000000000006B
:104D6000FB21E93F0000F07F10B52DED040B86B06C
:104D70009DED060B10EE100A10EE901A8DED000B53
:104D8000002818BF0120084320F00040C0F17F60D8
:104D900000F1E040C00F21D19DED080B10EE101A7C
:104DA00010EE900A8DED000B002918BF0121084379
:104DB00020F00040C0F17F6000F1E040C00F0DD155
:104DC00029490798B1EB400F04BF0698002842D04C
:104DD0000998400004BF089800283CD09DED080BBE
:104DE00053EC102B9DED060B51EC100BFBF70EFE58
:104DF000CDE902019DED020B40F2FF7110EE900A29
:104E00008DED000B31EA105021D00798039900F086
:104E1000004001F00041884219D09DED080B8DED56
:104E2000040B9DED020B8DED000B10EE900A059921
:104E300061F31E0005909DED041B9DED020B51ECEE
:104E4000110B53EC102BFBF713FBCDE902019DED89
:104E5000020B0AB010BD012001F030FB0AB0BDE822
:104E6000104001F0E5BA00000000E0FF0000000083
:104E70002DE9F04D2DED040B2DED0E8B96B0DDE9F7
:104E80002550279CDDF890A025F0004624F000482E
:104E9000BAF1000F14BF0121002101EB4502FC49CA
:104EA00053184A1093422AD3002814BF0123002329
:104EB00003EB44030B44F7498B4220D358EA00012B
:104EC0009FEDF59B76D0DFF8D8B35D4503D1BAF1FD
:104ED000000F05D188E0BAF1000F08BF002100D013
:104EE000012101EB450111F5001F08D8002814BF6E
:104EF0000121002101EB440111F5001F0BD99DEDAB
:104F0000261B9DED240B16B0BDEC0E8B04B0BDE846
:104F1000F04D01F083BA0027002DBCBFE149884560
:104F200021DAE1498845A8BF02271CDAC3451ADC0B
:104F3000DE4901EB2851142908DDC1F1340220FAC1
:104F400002F101FA02F282420DD108E058B9C1F132
:104F5000140228FA02F101FA02F2424503D101F0EB
:104F60000101C1F1020756EA0A0124D1002C22DA1C
:104F7000002D18BF022F01D0012F0AD0022001F00E
:104F80009DFA16B0BDEC0E8B04B0BDE8F04D01F0FB
:104F900023BA022001F092FA01F01EFA51EC100B34
:104FA00081F0004141EC100B16B0BDEC0E8B04B04B
:104FB000BDE8F08D18E09FEDBEAB9FEDBF8B0028E4
:104FC00071D1B848804522D105F1804010F580109C
:104FD00008BFBAF1000F07D0B3450ADC002CA8BF08
:104FE0009DED260BE0DA0DE0B0EE490AF0EE690A1D
:104FF000DAE7002C06DA9DED260B51EC100B81F060
:1050000000416FE0AE48784490ED000BCCE7D84506
:105010004DD1002C48DA2EB186423AD1BAF1000FB8
:1050200042D126E0BAF1000F13D0022001F046FA77
:1050300001F00EFA8DED020B9DED240B8DED000BB2
:1050400010EE900A039961F31E0003909DED020B90
:10505000AAE78DED02AB9DED240B1AEE901A10EE2F
:10506000900A8DED000B61F31E0003909DED020B85
:105070009AE78DED028B9DED240B18EE901A10EE41
:10508000900A8DED000B61F31E0003909DED020B65
:105090008AE709DA9DED240B51EC190B53EC102B28
:1050A000FBF75BFA1EE020E09DED240B7CE78642D7
:1050B0001BDAB4F1804F0DD0A4F10050B0F1FF50D5
:1050C00013D1002D11DB9DED240B51EC100B03F0DF
:1050D00099F807E09DED240B53EC102B51EC100BCD
:1050E00000F0C2BC41EC100B5EE79DED240B51ECCF
:1050F000100B02F027F9BAF1000FCDE90E0142D1F1
:105100009FED710B46B3A6F1E040B0F17F600CD08B
:105110005E4538D1002D00DAA7B3022F0CBF012065
:105120004FF0FF30FBF788FADCE7002D01DD002CA3
:105130000DDA002D01DD002C1FDB002D16DA002C0E
:1051400014DB012F08BF9FED620B3FF42DAFB0EED3
:105150004A0AF0EE6A0A27E7022F18BF002D0CD08A
:10516000012F0AD1002DFFF61FAF06E0002DB8BFBA
:10517000002C08DA012F3FF417AFB0EE480AF0EE2A
:10518000680A11E71BE0012000EBE57050EA070117
:1051900015D0791EB0EE498AF0EE698A084308BF3F
:1051A0009FED4D8B4E480025804570DD4D494E48A2
:1051B000884514DDB0420DDB002C19DB2FE0012007
:1051C00001F07CF916B0BDEC0E8B04B0BDE8F04DDB
:1051D00001F02EB9B34502DC002C09DC1FE0864249
:1051E00002DA002C1BDA03E05E452BDD002C16DD15
:1051F000022001F063F901F02BF98DED020B53EC65
:105200001A2B51EC180BFBF736F9CDE90001039985
:10521000019861F31E0003909DED020BC4E602208D
:1052200001F04CF901F024F910EE901A18EE900AF2
:105230008DED020B8DED008B61F31E0003909DED53
:10524000020BB1E69DED0E0B53EC192B51EC100B3C
:10525000FBF70BF99FED260BCDE9080153EC102B62
:105260009DED080B51EC100BFBF705F99FED221B90
:1052700053EC112BFBF7FCF89DED081B53EC112BA5
:10528000FBF7F9F89FED1E1B53EC112B3CE08CE073
:10529000FFFF1F00FFFF0F00000000000000F03FB5
:1052A0000000F03F0000F07F0000404301FCFFFFE2
:1052B000000000000000F07F00000000000000007F
:1052C000F63A00000000000000000000000000802E
:1052D000000000000000F0FF000000000000F0BF30
:1052E0000000E0410000F043FFFFEF3F000000003E
:1052F000000000000000D03F555555555555D53F8D
:10530000000000000000E03FFBF7B2F89DED080B45
:1053100041EC1A0B53EC102B51EC100BFBF7ABF8D4
:1053200053EC1A2BFBF7A7F841EC1A0B9FEDFE0B81
:1053300053EC102B9DED080B51EC100BFBF79BF879
:1053400041EC1B0B9FEDFA0B51EC1A0B53EC102B9D
:10535000FBF791F841EC1A0B9FEDF70B53EC102B78
:105360009DED080B51EC100BFBF785F853EC1A2B55
:10537000FBF77BF841EC1A0B51EC1B0B53EC1A2B8F
:10538000FAF7D2FF0690CDE906519DED060B53ECDE
:105390001B2B51EC100BFBF768F853EC1A2BFBF7A7
:1053A00067F841EC100B00F0A1B90020B6F5801FA2
:1053B0000EDA9FEDE30B53EC102B9DED0E0B51EC31
:1053C000100BFBF758F8CDE90E016FF034000E46D4
:1053D00000EB2650A0F2FF37C6F31300DA4940F085
:1053E0007F6646F040568842D8BF002408DDD74982
:1053F0008142C8BF012403DC0024A6F580167F1C6F
:10540000D348784400EBC4000F9690ED00CB9DED9F
:105410000E0B53EC1C2B51EC100BFBF726F89DEDFB
:105420000E0B41EC1B0B53EC1C2B51EC100BFAF741
:105430007BFF41EC100B51EC190B53EC102BFBF7DD
:105440008CF841EC1D0B51EC1B0B53EC1D2BFBF7A7
:1054500012F841EC1A0BBF488DED10AB7844109553
:1054600090ED000B4FF0005040EA660000EB8440E6
:105470008DED080B00F5002009909DED080B53EC15
:105480001C2B51EC100BFAF7F0FF9DED0E1B53ECAB
:10549000112BFAF7EDFF41EC100B53EC102B9DEDA7
:1054A000100B51EC100BFAF7E6FF9DED080B41ECE9
:1054B0001C0B53EC102B9DED100B51EC100BFAF75D
:1054C000DAFF53EC1B2BFAF7D3FF53EC1C2BFAF744
:1054D000CCFF53EC1D2BFAF7CEFF41EC1C0B53EC29
:1054E0001A2B51EC1A0BFAF7C6FF41EC1B0B9A482A
:1054F0000621B0EE4B0AF0EE6B0A784400F058FE3D
:10550000B0EE401AF0EE601AB0EE41DAF0EE61DA79
:1055100053EC1B2B51EC1B0BFAF7ADFF53EC1D2B7F
:10552000FAF7A9FF9DED100B41EC1B0B53EC1A2B66
:1055300051EC100BFAF7F8FE53EC1C2BFAF79BFF1B
:1055400053EC1B2BFAF7F0FE9DED100B41EC1B0BFF
:1055500053EC102B51EC100BFAF78DFF41EC1D0BA7
:105560009FED7FEB53EC1E2BFAF7DEFE53EC1B2B6B
:10557000FAF7DAFE0890CDE908519DED080B53ECDF
:105580001E2B51EC100BFAF770FF53EC1D2BFAF7A2
:105590006CFF53EC1B2BFAF76BFF9DED080B41ECF6
:1055A0001D0B53EC102B9DED100B51EC100BFAF76B
:1055B00062FF41EC1B0B53EC1A2B51EC1D0BFAF75D
:1055C0005AFF9DED080B41EC1A0B53EC102B51ECDC
:1055D0001C0BFAF750FF53EC1A2BFAF7A5FE41EC1F
:1055E0001A0B51EC1B0B53EC1A2BFAF79DFE0C9087
:1055F000CDE90C519DED0C0B53EC1B2B51EC100B1A
:10560000FAF733FF53EC1A2BFAF732FF41EC1B0B7E
:105610009FED550B53EC102B9DED0C0B51EC100B2B
:10562000FAF729FF41EC1A0B9FED510B51EC1B0BC4
:1056300053EC102BFAF71FFF41EC1B0B9FED4E0BA9
:1056400053EC102B9DED0C0B51EC100BFAF713FFE4
:1056500053EC1B2BFAF768FE41EC100B48487844DA
:1056600000EBC40090ED001B51EC100B53EC112B20
:10567000FAF75AFE41EC1B0B3846FAF7DDFFCDE98D
:10568000080153EC1B2B51EC1A0BFAF74DFE41ECC1
:10569000100B3C48784400EBC40090ED00CB51EC7B
:1056A000100B53EC1C2BFAF73FFE9DED081B53EC3F
:1056B000112BFAF739FE0690CDE906519DED080B46
:1056C00053EC102B9DED060B51EC100BFAF7CDFEB1
:1056D00053EC1C2BFAF7C9FE53EC1A2BFAF7C5FE54
:1056E00053EC1B2BFAF7C4FE41EC100B9DED261B6F
:1056F00053EC102B8DED001B00959DED260B51EC0E
:10570000100BFAF7B8FE9DED000B41EC1A0B53ECB1
:10571000102B9DED260B51EC100BFAF7A6FE9DED1C
:10572000061B53EC112B2FE0000000604715F73FDC
:10573000FE822B654715F73F44DF5DF80BAE543E04
:1057400000000000000040438E9803007AB60B0072
:1057500042360000A03600007A350000000000004C
:105760000000000000000840000000E009C7EE3F14
:10577000FD033ADC09C7EE3FF5015B14E02F3EBEA6
:1057800006340000C0330000FAF775FE53EC1A2B04
:10579000FAF7CAFD9DED060B41EC1A0B53EC102BEA
:1057A0009DED000B51EC100BFAF765FECDE90C01F5
:1057B0009DED0C0B51EC1A0B53EC102BFAF7B4FDCA
:1057C000CDE902010C46AA498C422FDB611A08433D
:1057D00018D19DED0C0B53EC102B9DED020B51ECF1
:1057E000100BFAF742FE41EC1B0B9FEDA30B51ECA3
:1057F0001A0B53EC102BFAF797FD53EC1B2BFAF70F
:105800003FFF2DD2022000F059FE00F021FE10EEE5
:10581000901A18EE900A8DED020B8DED008B61F35E
:105820001E0003909DED020BFFF7BEBB944A24F0CF
:105830000041914214D39349214408437FF4EFACD3
:105840009DED0C0B53EC102B9DED020B51EC100B4E
:10585000FAF70BFE53EC1A2BFAF712FF7FF6DFACC8
:1058600024F000408849894A002601EB20518242F9
:105870002BDA481C4FF4801121FA00F02044844AAE
:10588000C0F30A517A44A1F2FF3192ED000B814A34
:105890008DED080BCA4020EA0202C0F3130040F469
:1058A0008010C1F1140120FA01F60992002CB8BF52
:1058B00076429DED080B53EC102B9DED0C0B51EC3B
:1058C000100BFAF7D2FDCDE90C019DED0C0B51EC5C
:1058D0001A0B53EC102BFAF727FD9FED6F0B089076
:1058E000CDE9085153EC102B9DED080B51EC100B3A
:1058F000FAF7C1FD41EC1B0B9FED690B53EC102B2C
:105900009DED080B51EC100BFAF7B5FD9DED0C0B5E
:1059100041EC1C0B53EC102B9DED080B51EC100BC4
:10592000FAF7A3FD53EC1A2BFAF7A2FD9FED5E1BCD
:1059300053EC112BFAF79FFD53EC1C2BFAF7F4FCF8
:1059400041EC1A0B51EC1B0B53EC1A2BFAF7ECFC45
:10595000CDE902019DED020B53EC1B2B51EC100B1A
:10596000FAF783FD53EC1A2BFAF782FD9DED020B3B
:1059700041EC1A0B53EC102B51EC100BFAF77BFD9A
:10598000CDE908014A489DED080B0521784400F057
:105990000FFC9DED081B51EC100B53EC112BFAF78B
:1059A0006AFD9DED021B53EC112BFAF761FDCDE969
:1059B00006019DED020B53EC1A2B51EC100BFAF77C
:1059C0005AFD53EC1A2BFAF7AFFC9FED3B0B41EC61
:1059D0001A0B53EC102B9DED060B51EC100BFAF744
:1059E00044FD9DED060B41EC1B0B53EC102B9DED84
:1059F000020B51EC100BFAF73EFD53EC1B2BFAF7A0
:105A0000ACFD53EC1A2BFAF730FD9DED021B53EC65
:105A1000112BFAF72AFD53EC192BFAF729FDCDE9E2
:105A2000020101EB065001150029C8BF039015DCE7
:105A30009DED020B324651EC100BFAF77FFFFFF79A
:105A4000EBF8042808BF00F013FD32469DED020B71
:105A500051EC100BFAF772FFCDE902019DED020B3C
:105A600051EC180B53EC102BFAF705FDFFF73ABB7E
:105A70000000904000000000FE822B654715973C17
:105A800000CC904000346F3F01FCFFFF0000E03F7E
:105A900078320000FFFF0F0000000000432EE63FB9
:105AA000396CA80C615C20BEEF39FAFE422EE63F4D
:105AB000183100000000000000000000000000405D
:105AC00010B52F499FED2C1B2DED020B84B00598CE
:105AD00020F000408842DCBF00209DED040B32DD49
