:020000040800F2
:10000000F04B00206D020008DB150008BF1300084C
:10001000D9150008E1040008C31900080000000019
:10002000000000000000000000000000AD0100081A
:10003000E304000800000000090200087916000827
:10004000870200088702000887020008870200086C
:10005000870200088702000887020008870200085C
:10006000870200088702000887020008870200084C
:10007000870200088702000887020008870200083C
:1000800087020008870200088702000800000000BD
:1000900000000000000000000000000087020008CF
:1000A0008702000849170008870200088702000835
:1000B00087020008870200088702000887020008FC
:1000C00087020008870200088702000887020008EC
:1000D000870200088702000887020008000000006D
:1000E000870200088702000887020008000000005D
:1000F000000000000000000000000000870200086F
:10010000000000008702000887020008870200083C
:1001100000000000000000000000000000000000DF
:10012000870200088702000887020008870200088B
:10013000870200080000000000000000000000002E
:10014000000000000000000000000000870200081E
:10015000870200088702000887020008870200085B
:10016000870200088702000800000000000000006D
:10017000000000000000000000000000000000007F
:1001800000000000870200080000000000000000DE
:1001900087020008DFF810D000F042F9004800475D
:1001A000051A0008AFF30080F04B00202C4B1968B3
:1001B0000868B0E8F04F80F30988BFF36F8F4FF005
:1001C000000080F3118870470000000008480068B4
:1001D000006880F308884FF0000080F3148862B64E
:1001E00061B6BFF34F8FBFF36F8F00DF00BF00BF5B
:1001F00008ED00E0DFF80C00016841F470010160D7
:10020000704700BF88ED00E0EFF30980BFF36F8F08
:10021000134B1A681EF0100F08BF20ED108A20E95A
:10022000F04F106009B44FF0500080F31188BFF315
:100230004F8FBFF36F8F02F087FA4FF0000080F30B
:10024000118809BC19680868B0E8F04F1EF0100F5B
:1002500008BFB0EC108A80F30988BFF36F8F704736
:1002600030000020EFF3058070470000064880470B
:1002700006480047FEE7FEE7FEE7FEE7FEE7FEE78B
:10028000FEE7FEE7FEE7FEE73917000895010008E4
:100290002DE9F05F0546002092469B4688460646BB
:1002A000814640241BE0284641464746224600F04E
:1002B0006FF853465A46C01A914110D3114618465A
:1002C000224600F056F82D1A67EB01084F462246E9
:1002D0000120002100F04DF817EB00094E41201ECF
:1002E000A4F10104DFDC484631462A464346BDE816
:1002F000F09F40EA01039B0703D009E008C9121FE1
:1003000008C0042AFAD203E011F8013B00F8013BCF
:10031000521EF9D27047D2B201E000F8012B491EFB
:10032000FBD270470022F6E710B513460A46044692
:100330001946FFF7F0FF204610BD01F0004330B42E
:1003400021F0004150EA010206D00A0DA2F56072C8
:10035000C1F31301002A02DC30BC00207047440FB7
:1003600044EAC104C100E01830BC00EBC25000F008
:100370001FB8202A04DB203A00FA02F1002070475F
:100380009140C2F1200320FA03F3194390407047D3
:10039000202A04DB203A21FA02F00021704721FADA
:1003A00002F3D040C2F12002914008431946704741
:1003B0000029A8BF7047401C490008BF20F0010079
:1003C000704710B4B0FA80FC00FA0CF050EA010457
:1003D00004BF10BC704749B1CCF1200421FA04F4E9
:1003E00011FA0CF118BF012121430843A3EB0C01C2
:1003F000CB1D4FEA00614FEA102042BF002010BC25
:10040000704700EBC35010440029A4BF10BC7047D4
:10041000401C490008BF20F0010010BC70470000DC
:10042000064C074D06E0E06840F0010394E8070041
:1004300098471034AC42F6D3FFF7B0FEA431000861
:10044000C43100087CB501F09DFF17480324CDE9B5
:1004500000404FF4007500232A4614A1164802F00C
:1004600079FC01281CD110480023001DCDE9004073
:100470002A4612A1144802F06DFC012810D10A4846
:1004800000230830CDE900402A4610A1134802F0AD
:1004900061FC012804D10448001F406902F070F893
:1004A000BDE87C4001F08EBF040000204C45445F55
:1004B0005461736B00000000151400084B45595F30
:1004C0005461736B00000000C113000850574D5F6A
:1004D0004445544543545F5461736B00DD15000877
:1004E000FEE7704772B6FEE72DE9F84FDFF8B8A1D6
:1004F0000022012403254FF00F090AF1040BAAF191
:10050000040E00BF0B6804FA02F63340B34273D105
:100510000F7907F00307012F01D0022F16D187684A
:100520004FEA420805FA08FC27EA0C07D1F80CC08C
:100530000CFA08FC4CEA070CC0F808C04768B7433F
:100540000E79C6F3001696403E4346600E79F64398
:10055000B6070DD0C768560005FA06FC27EA0C0757
:10056000D1F808C00CFA06FC4CEA070CC0F80CC025
:100570000E7906F00306022E10D1D60800EB86088D
:10058000D8F8206057074FEAD76C09FA0CF7BE433A
:100590000F6907FA0CF73743C8F8207006684FEA6E
:1005A000420C05FA0CF7BE430F7907F0030707FA70
:1005B0000CF7374307604E6816F4403F6DD03B4E52
:1005C000376847F480473760366822F0030706F43F
:1005D00080460096364E07EB060CDCF80868970755
:1005E0003F0F09FA07F826EA0806DFF8C8804045F9
:1005F00003D14FF000081EE04FE0DFF8BC8040451B
:1006000002D14FF0010816E0DFF8B080404502D17A
:100610004FF002080FE0DFF8A880404502D14FF00C
:10062000030808E0DFF89C80404502D14FF0040841
:1006300001E04FF0070808FA07F848EA0608CCF886
:100640000888DAF800605746D1F804C09E435FEA94
:10065000CC2C00D51E433E60DBF800605F46D1F82D
:1006600004C09E435FEA8C2C00D51E433E60DEF83A
:1006700000607746D1F804C09E435FEA8C3C00D509
:100680001E433E60084F083F3E68D1F804C09E43B9
:100690005FEACC3C00D51E433E60521C102AFFF49A
:1006A00031AFBDE8F88F0000083C014044380240FB
:1006B00000300140000002400004024000080240F7
:1006C000000C0240001002400069084000D00120E8
:1006D00070470AB1816170470904FBE701488068EF
:1006E0007047000020000020024881680278114411
:1006F00081607047200000200B4810B5016841F46C
:1007000000710160016841F480610160016841F499
:1007100080710160032000F099F80F2000F006F8C6
:1007200000F04AF8002010BD003C024030B50546FC
:100730001C4887B00024016841F001010160006895
:1007400006A900F00100009001A800F02BF900F0CC
:1007500049F91549154AB0FBF1F11548491E0260E7
:1007600040F2E732C0E90324C0E90114846100F0DB
:1007700071FB040012D10E4800F0AEFB04000DD155
:10078000192000F035F8102D07D200222946192033
:1007900000F03CF80748056000E0012407B020465F
:1007A00030BD00004438024040420F0000000140CC
:1007B0009C070020240000200C4882B0016841F40E
:1007C00080410160006800F4804000900748001FED
:1007D000016841F0805101600068002200F0805003
:1007E00000900F21901E02B000F010B84438024073
:1007F000002809DB00F01F02012191404009800020
:1008000000F1E020C0F8001170470000F0B40E4B7A
:100810001B680C46C3F30223C3F10705042D00D95E
:100820000425191D072901D2002300E0DB1E012643
:1008300006FA05F1491E214099409E40761E164059
:100840003143F0BC01F0BEB80CED00E0064900F009
:10085000070208684FF6FF03184040EA0220034AE7
:1008600010430860704700000CED00E00000FA053E
:100870002DE9F0470E46050065D0DFF81481D8F861
:100880000000F7B200F00700B04207D288F800700D
:10089000D8F8000000F00700B04254D128683D4C61
:1008A000810712D5400703D5206840F4E05020604E
:1008B0002878000703D5206840F460402060206855
:1008C000A96820F0F000084320602878C0072DD0E8
:1008D000304968680839012812D0022813D003284B
:1008E00011D00968890700292DDA216821F0030158
:1008F00001432160FFF7F2FE814641F2883A0EE0A3
:1009000009688903EFE709688901ECE7FFF7E6FE6C
:10091000A0EB0901514502D90320BDE8F08720680A
:10092000696800F00C00B0EB810FEFD1D8F800102F
:10093000404601F00701B14207D90770006800F096
:100940000700B04201D00120E7E72878400705D52D
:100950002068E96820F4E050084320602878000708
:1009600006D52068296920F4604040EAC100206073
:1009700000F048F82168084AC1F30311515CC840EF
:100980000649086006480068FFF7D0FE0020C4E76B
:10099000003C0240083802408C3100082C00002046
:1009A000240000200F2202600C4A136803F00303A6
:1009B0004360136803F0F0038360136803F4E053AB
:1009C000C36012684FF4E05303EAD20202610448A4
:1009D000006800F007000860704700000838024017
:1009E000003C02400448054900680968044AC1F314
:1009F0004231515CC84070472C000020083802404A
:100A00009C310008154810B5006810F00C0214481D
:100A100013D01449042A0FD0082A0ED10F4C241FDA
:100A20002268236802F03F025B0207D52068C0F30A
:100A30008810A0FB010106E0084610BD2168C1F343
:100A40008811A1FB00010023FFF722FC2168C1F3FC
:100A50000141491C4900B0FBF1F010BD08380240CB
:100A60000024F40040787D012DE9F84F04006ED099
:100A70002078DFF84C93C007A9F104054AD009F1AA
:100A800004000168C1F38101012908D00068C0F3A6
:100A9000810002280AD1D9F80000400206D5286852
:100AA000800337D560680028E1D033E06068B0F596
:100AB000803F10D0B0F5A02F286810D020F48030EF
:100AC0002860286820F4802028606068A8B1FFF7BB
:100AD00005FE06460DE0286840F48030F4E740F457
:100AE00080202860F7E700BFFFF7F8FD801B64282F
:100AF00073D828688003F7D50CE0FFF7EFFD0646B2
:100B000005E000BFFFF7EAFD801B6428F0D82868E5
:100B10008003F7D42078DFF8AC8280074FF0000A1A
:100B20003ED5A748001D016811F00C0F08D00068E1
:100B3000C0F3810002280BD1D9F80000400207D48D
:100B40002868800716D5E068012800D112E033E15B
:100B5000E068B8B10120C8F80000FFF7BFFD064605
:100B600005E000BFFFF7BAFD801B0228C0D8286847
:100B70008007F7D52868216920F0F80040EAC10015
:100B800028600DE0C8F800A0FFF7A8FD064604E0C5
:100B9000FFF7A4FD801B02281FD828688007F7D420
:100BA0002078000722D5864F87486169703771B178
:100BB00001210160FFF792FD064604E0FFF78EFD7C
:100BC000801B022809D838688007F7D50EE0C0F8E6
:100BD00000A0FFF783FD064605E082E0FFF77EFDFB
:100BE000801B02287DD838688007F7D4207840071A
:100BF00068D5DFF8CCB100270BF13C0BDBF8000027
:100C0000C0000BD4DBF8001041F08051CBF800108D
:100C1000DBF80000012700F0805000906B4E306838
:100C2000C00510D4306840F480703060FFF756FD86
:100C3000009005E0FFF752FD0099401A022850D8B5
:100C40003068C005F6D55E4EA0686C3601280FD01E
:100C50000528306810D020F001003060306820F0A6
:100C600004003060A068B8B1FFF738FD00900FE0D5
:100C7000306840F00100F4E740F004003060F7E72E
:100C8000FFF72CFD0099411A41F28830814266D865
:100C900030688007F4D50EE0FFF720FD009007E0F4
:100CA000FFF71CFD0099411A41F28830814256D865
:100CB00030688007F4D42FB1DBF8001021F08051A8
:100CC000CBF80010A069C8B33D49091D0968C1F3FC
:100CD000810102294AD00228504607D0C8F8600096
:100CE00000E03CE0FFF7FAFC04463BE04746C8F86A
:100CF0006000FFF7F3FC064605E000BFFFF7EEFCDF
:100D0000801B02282BD828688001F7D4D4E907017A
:100D10000843A16A2E4A490802EB0141626A41EA8E
:100D20008211084394F82C1040EA0161C9F80010C0
:100D300001203866FFF7D2FC044606E03EE000BF23
:100D4000FFF7CCFC001B022809D828688001F7D5E2
:100D500034E000BFFFF7C2FC001B022802D90320C9
:100D6000BDE8F88F28688001F4D427E00128F7D087
:100D7000D9F80000E26900F4800191421CD1226A96
:100D800000F03F01914217D147F6C071626A0140FD
:100D9000B1EB821F10D1A26A4FF0FF3300F4403153
:100DA00003EB5202B1EB024F06D194F82C1000F085
:100DB0007060B0EB016F01D00120D1E70020CFE7D8
:100DC0000438024000004742800E47420070004055
:100DD0000000FFFF7047704770B590F83C20012A73
:100DE0002CD0012480F83C40022280F83D2003688A
:100DF0005A689D6822F070060A6832435A60104BA8
:100E000002689A420ED0B2F1804F0BD00D4B9A423D
:100E100008D00D4B9A4205D00C4B9A4202D00C4B95
:100E20009A4204D1496825F080031943916080F803
:100E30003D40002180F83C10084670BD022070BD86
:100E4000000001400004004000080040000C004089
:100E50000040014010B5040003D094F83D0010B1EB
:100E600007E0012010BD002084F83C00204600F07F
:100E70001FF8022084F83D00211D206800F06AFC64
:100E8000012084F8460084F83E0084F83F0084F88E
:100E9000400084F8410084F8420084F8430084F85C
:100EA000440084F8450084F83D00002010BD000097
:100EB00008B500680649884208D10648016841F033
:100EC00002010160006800F00200009008BD00000F
:100ED000000400404038024090F83D10012901D044
:100EE00001207047022180F83D100168CA6842F075
:100EF0000102CA6000680E4988420ED0B0F1804FEE
:100F00000BD00C49884208D00B49884205D00B49C8
:100F1000884202D00A49884204D1816801F0070161
:100F2000062903D0016841F00101016000207047EB
:100F3000000001400004004000080040000C004098
:100F40000040014070B5044690F83C00002501289F
:100F500017D0012684F83C60022084F83D00206808
:100F6000826822F0770222F47F428260086850286B
:100F700038D00DDC20284FD005DC90B3102811D1DB
:100F80004AE0022070BD302846D040280AD13BE01C
:100F900060282FD070280DD0B0F5805F03D0B0F559
:100FA000005F12D0012584F83D60002084F83C00E9
:100FB000284670BDCB68D1E90121206800F029FCEA
:100FC0002068816841F0770109E0CB68D1E901210F
:100FD000206800F01EFC2068816841F48041816037
:100FE000E1E719E0CA684968206800F0C7FC5021B1
:100FF000206806E0CA684968206800F0D0FC6021DB
:10100000206800F010FCCEE7CA684968206800F04C
:10101000B5FC40212068F4E7226801461046F0E75D
:1010200070472DE9F04104460068C66805694FF035
:101030000007A90713D5B10711D5F91E01610120D9
:101040002077206880698007204602D0FFF7E8FFFC
:1010500004E000F0BBF8204600F04DF92777680760
:1010600016D5700714D521686FF0040008610220BE
:1010700020772068806910F4407F204602D0FFF777
:10108000CFFF04E000F0A2F8204600F034F9277703
:10109000280715D5300713D521686FF008000861BF
:1010A000042020772068C0698007204602D0FFF71F
:1010B000B7FF04E000F08AF8204600F01CF927771B
:1010C000E80616D5F00614D521686FF01000086107
:1010D000082020772068C06910F4407F204602D0A5
:1010E000FFF79EFF04E000F071F8204600F003F9DE
:1010F0002777E80708D0F00706D021686FF00100D5
:101100000861204600F050F9280608D5300606D5BB
:1011100021686FF0800008612046FFF75BFE6806DB
:1011200008D5700606D521686FF04000086120469A
:1011300000F044F9A8060AD5B00608D521686FF07A
:10114000200008612046BDE8F041FFF744BEBDE83D
:10115000F081000030B587B0044614216846FFF7DF
:10116000E1F816492068884226D115480024016814
:1011700041F001010160016801F001010591016880
:1011800041F0020101600068022500F002000590B4
:10119000C0200090CDE9015469460A48CDE90345D5
:1011A000FFF7A2F903200090CDE9015469460648F3
:1011B000CDE90345FFF798F907B030BD00040040C2
:1011C000303802400000024000040240704770B511
:1011D000044690F83C0000260D4601280FD001205F
:1011E00084F83C006AB1042A1DD0082A2FD00C2AAA
:1011F0003FD00126002084F83C00304670BD02201C
:1012000070BD206800F018FB2068816941F008017A
:1012100081612068816921F0040181612068816910
:101220002A69114311E0206800F02EFB20688169D3
:1012300041F4006181612068816921F480618161EC
:10124000206881692A6941EA02218161D2E7206828
:1012500000F046FB2068C16941F00801C1612068C7
:10126000C16921F00401C1612068C1692A69114383
:1012700011E0206800F060FB2068C16941F4006162
:10128000C1612068C16921F48061C1612068C169C0
:101290002A6941EA0221C161ACE710B5040003D01C
:1012A00094F83D0010B107E0012010BD002084F843
:1012B0003C00204600F01EF8022084F83D00211D6D
:1012C000206800F047FA012084F8460084F83E00C8
:1012D00084F83F0084F8400084F8410084F842001C
:1012E00084F8430084F8440084F8450084F83D0005
:1012F000002010BD7047704710B50446022249B166
:1013000004290ED0082913D094F84100012816D0E2
:10131000012010BD94F83E000128F9D184F83E2048
:101320000FE094F83F000128F2D184F83F2008E054
:1013300094F840000128EBD184F8402001E084F8C3
:1013400041200122206800F057FA124920688842A3
:1013500003D1426C42F400424264206888420ED0BD
:10136000B0F1804F0BD00C49884208D00B4988421D
:1013700005D00B49884202D00A49884204D18168CD
:1013800001F00701062903D0016841F00101016065
:10139000002010BD00000140000400400008004093
:1013A000000C00400040014000680349884201D120
:1013B000FFF79AB970470000000001407047FEE750
:1013C0000127124D124C002601212846FFF77CF917
:1013D0000028F9D10A2001F0ADF801212846FFF7D5
:1013E00073F930B92078012803D027702069401C98
:1013F000206101212846FFF767F9012800D12670F6
:1014000020690928E0DD2661DEE7000000000240D7
:1014100000000020084C094D6426206880F400502C
:101420002060286900EBC00101EB001006EB800092
:1014300001F080F8F1E700001408024000000020ED
:101440002DE9F04186B014216846FEF76BFF234872
:101450000024016841F004010160016801F0040109
:101460000591016841F001010160016801F001018D
:101470000591016841F0020101600068184F00F019
:1014800002004FF400550590002229463846FFF728
:1014900020F9DFF850804FF478760022314640463C
:1014A000FFF717F900950125CDE901546946384643
:1014B0000394FFF719F8CDE9005469460A480295EC
:1014C000FFF712F80220CDE90240CDE90065694638
:1014D0004046FFF709F806B0BDE8F0813038024019
:1014E00000080240000402400000024010B58EB027
:1014F00000240794089409940A940B941C216846CC
:101500000C94FEF70FFF3348314901600721C0E911
:10151000011441F28831C0E9031480218161FFF791
:1015200099FC08B1FEF7DEFF4FF48050079007A941
:101530002848FFF707FD08B1FEF7D4FF2548FFF75D
:10154000ACFE08B1FEF7CEFF0B940BA921480C941A
:10155000FFF742FC08B1FEF7C5FF6020CDE90004AB
:101560000294002269461B480494FFF730FE08B13C
:10157000FEF7B8FF042269461648FFF728FE08B1B7
:10158000FEF7B0FF082269461248FFF720FE08B1B7
:10159000FEF7A8FF0C2269460E48FFF718FE08B1B7
:1015A000FEF7A0FF00210B48FFF7A6FE0421094823
:1015B000FFF7A2FE08210748FFF79EFE0C21054811
:1015C000FFF79AFE0348FFF7C5FD0EB010BD0000FF
:1015D00000040040AC000020FEE7FEE7094D4FF498
:1015E000FA7400BF95ED060B51EC100BFEF7A5FE4B
:1015F00000EE100A002000F007F8204600F09AFFE5
:10160000F0E7000000000020B5EEC00AF1EE10FA8D
:1016100002D89FED160A06E010EE101AB1F17E5FB7
:1016200001DBB7EE000A1349DFED110A096858B172
:10163000042811D020EE200A0828BCEEC00A10EEC3
:10164000100A11D00864704720EE200ABCEEC00AD0
:1016500010EE100A4863704720EE200ABCEEC00A64
:1016600010EE100A88637047C863704700000000DE
:1016700000409C45AC00002010B5502080F311883C
:10168000BFF34F8FBFF36F8F01F0D0FB18B1044948
:101690004FF080500860002080F3118810BD0000DA
:1016A00004ED00E030B593B030216846FEF73AFE15
:1016B00014210CA8FEF736FE1D480024016841F0F5
:1016C00080510160006800F0805011901948016855
:1016D00021F4404141F4004101600068022500F41A
:1016E0004040119001200390102000950695049031
:1016F000CDE90740A020CDE9090504200B906846FC
:10170000FFF7B2F908B172B6FEE70F20CDE90C057C
:101710004FF48050CDE90E4002210CA81094FFF741
:10172000A7F8002801D072B6FEE713B030BD000064
:1017300040380240007000400248016841F47001E6
:101740000160704788ED00E00148FFF76ABC0000C7
:101750009C070020F0B50268204B214C9F03214DCF
:10176000214E984207D0B84205D0A04203D0A842EB
:1017700001D0B04204D122F0700C4A6842EA0C0257
:10178000984210D0B8420ED0A0420CD0A8420AD045
:10179000B04208D0154CA04205D0154CA04202D052
:1017A000144CA04203D122F44074CA6822434C690D
:1017B00022F08002224302608A68C2620A68826262
:1017C000984201D109690163012141610169C90799
:1017D00003D0016921F001010161F0BD0000014069
:1017E0000004004000080040000C004000400140A0
:1017F000004401400048014010B501F01F030121E1
:10180000046A99408C430462016A9A401143016260
:1018100010BD10B5846842EA032224F47F440A43D1
:101820002243826010BD826822F070020A4342F0B7
:10183000070181607047000030B5036A026A22F038
:10184000010202624268846924F073050C682C432B
:1018500023F002058B682B430A4DA8420BD123F0DD
:101860000805CB6822F440722B434D6923F0040332
:1018700015438A692A43426084614968416303626F
:1018800030BD00000000014030B5026A036A23F059
:1018900010030362436884690D6824F4E64444EA53
:1018A00005248D6822F0200242EA05120B4DA84261
:1018B0000ED1CD6822F0800242EA05124D6923F470
:1018C000406343EA85038D6922F0400243EA8503C1
:1018D0004360846149688163026230BD0000014059
:1018E00030B5036A026A22F4807202624268C469F7
:1018F00023F4007324F073050C682C438D6843EACD
:1019000005230C4DA8420ED1CD6823F4006343EAB1
:1019100005234D6922F4405242EA05128D6923F4F1
:10192000806342EA05124260C4614968C163036290
:1019300030BD00000000014030B5046A026A22F4A4
:10194000805202624268C3690D6823F4E64343EAA9
:1019500005238D6824F4005444EA0534064DA8425A
:1019600004D14D6922F4804242EA85124260C3618B
:1019700049680164046230BD0000014010B5036A8B
:10198000046A24F001040462846924F0F00444EA47
:10199000021423F00A020A438461026210BD10B5EA
:1019A000036A046A24F010040462846923F0A0032B
:1019B00024F4704444EA023243EA01118261016274
:1019C00010BDFEE70907090E002804DB00F1E02046
:1019D00080F80014704700F00F0000F1E02080F85C
:1019E000141D704702E008C8121F08C1002AFAD16E
:1019F00070477047002001E001C1121F002AFBD18F
:101A0000704700001CB5FEF777FEFFF74BFEFFF7AF
:101A100017FDFFF76BFD07490120CDE900014202E8
:101A2000002305A1084801F095F908B100F040FE37
:101A3000FEE70000140000204170705461736B4396
:101A40007265617465000000450400082DE9F041ED
:101A5000184C0F460546E6682068001D00F036FC6D
:101A600038B9206890F82C10012088402169814302
:101A70002161681C07D137B12168BDE8F0410E48EB
:101A8000091D00F073BC20683544B54245602168EB
:101A900005D2A06BBDE8F041091D00F04FBC606BA2
:101AA000091D00F04BFCA06A854200D2A562BDE88A
:101AB000F081000030000020F40A00202DE9F04100
:101AC000054600F05FFC2D4CA068401CA06020681B
:101AD0002B4F10B1606930B32BE02560A06801285E
:101AE00027D1002606EB860007EB800000F018FCEB
:101AF000761C202EF6D3234800F012FC2148143027
:101B000000F00EFC1F48283000F00AFC1D483C3055
:101B100000F006FC1B48503000F002FC19486063DE
:101B20001430A06305E02068E96AC06A884200D8E2
:101B30002560606A401C6062E96A01202269884071
:101B40001043206101EB810007EB8000291D00F0AC
:101B50000DFC00F037FC606900280CD02068E96AB1
:101B6000C06A884207D208494FF080500860BFF32E
:101B70004F8FBFF36F8FBDE8F08100003000002071
:101B800024080020A40A002004ED00E038B500F08D
:101B9000F9FB104C2068C8B90F4800F0C1FB0E4893
:101BA000143000F0BDFB0C48E060143020610A4B9B
:101BB0000020C03B009003F148020C210A2000F0F5
:101BC0006BFE206010B105A100F07EFCBDE838403E
:101BD00000F0F8BB6C000020C80B0020546D72515F
:101BE0000000000030B4026C0B46002A0BD0C16824
:101BF0001144C1608468A14201D30168C16030BC56
:101C00001846FEF776BB30BC70472DE9F041856B76
:101C1000174604460026026C82B1C7B1E068FEF7A1
:101C200068FBE168206C091AE1602268914202D2E7
:101C3000A168081AE060022F16D017E02068A8B942
:101C4000A06801F059F906460020A0600EE0606827
:101C5000FEF74FFB216C606808446060A168884211
:101C600004D32068606001E005B16D1E6D1CA563A2
:101C70003046BDE8F08110B5044690F8510058B1E7
:101C800001280CD002280FD0502080F31188BFF318
:101C90004F8FBFF36F8FFEE7206B00F0A7FB20464E
:101CA000BDE8104000F0A2BB10BD000010484FF48A
:101CB0007051420706D0C01D0D4920F00700411A9F
:101CC000C1F570510B4A00230144C2E900030839F1
:101CD000183A21F0070111604B600B600B1AC0E944
:101CE000001393604FF00040536050617047000054
:101CF000F00B002098000020144E154CA6F52F770D
:101D00004FF08058DFF84C9012E000BF00F03AFB33
:101D1000F068C568281D00F0D9FAA068401EA060D0
:101D20006068401E606000F04DFB2846FFF7A3FF8F
:101D300060680028EAD138680128F9D9C9F800801C
:101D4000BFF34F8FBFF36F8FF2E70000E00A002070
:101D50003000002004ED00E00346009829B1026045
:101D6000C0E90F31012100F0CBBD0060F8E72DE99B
:101D7000F0479A46DDE9098481466FF00303206B42
:101D800003EB82021044089E20F00707780707D073
:101D9000502080F31188BFF34F8FBFF36F8FFEE7A2
:101DA000002561B1002023180A5C83F834200A5C06
:101DB00012B1401C1028F6D384F8435001E084F897
:101DC0003450202E00D31F26E662C4E91165201D81
:101DD00000F0B1FA04F1180000F0ADFA2461C6F188
:101DE00020006462A061E56484F850505246494680
:101DF000384600F055FA2060B8F1000F01D0C8F85D
:101E00000040BDE8F087000030B5114900E0114600
:101E10000A688242FBD34B685C18844203D1406855
:101E200018444860084643681C18944209D1084C7D
:101E3000183C2468A24209D052681A4442600A68D9
:101E400012680260814200D0086030BD0460F9E78A
:101E50009800002070B5002441600B4D0061914254
:101E600006D8D11A8269914206D2011D286907E07D
:101E70009A4203D2994201D3012403E0011DE8688C
:101E800000F05CFA204670BD6C00002010B50446DE
:101E900000F078FAA06B28B15FF0000400F092FA2D
:101EA000204610BD0124F9E730B587B0394D67E011
:101EB0000498002864DB069C606910B1201D00F0C6
:101EC00005FA03A800F0D8F8024604980A2857D269
:101ED000DFE800F00505052D334A05052D3394F89C
:101EE000240040F0010084F824000599A069059BB6
:101EF00001442046FFF7AEFF68B3216A20468847B9
:101F000094F8240040073BD5002000900598A16973
:101F1000002342181946204601F008F9D8B950208C
:101F200080F31188BFF34F8FBFF36F8FFEE714F874
:101F3000240F20F00100207022E094F8240040F0EB
:101F4000010084F824000598A06128B18118134687
:101F50002046FFF77FFF13E0502080F31188BFF386
:101F60004F8FBFF36F8FFEE794F82400810703D4EF
:101F7000204600F03BFA03E020F0010084F8240042
:101F8000002204A9286800F00FFE002890D107B0B5
:101F900030BD00006C0000202DE9FC410F460546D5
:101FA00000F0CAFB01A800F067F80446019818B1D8
:101FB00001F02AF8BDE8FC81254EAFB13069006818
:101FC000D0B30027291B3A46306800F091FA01F09F
:101FD0001BF80028EED11F494FF080500860BFF376
:101FE0004F8FBFF36F8FE5E7A542EBD801F00CF8F8
:101FF000F0682746C068C468201D00F067F994F8AF
:102000002400410719D5A0692B4641193A462046BC
:10201000FFF720FFA8B100200346014600902A46A2
:10202000204601F083F860B9502080F31188BFF397
:102030004F8FBFF36F8FFEE707E020F0010084F8B9
:102040002400216A20468847B4E70127BAE7000048
:102050006C00002004ED00E00648416B096829B1DE
:10206000416BC968C9684968816270474FF0FF31A8
:10207000FAE700003000002070B5054600F0D0FE01
:10208000064E0446B068844203D200F009F80120ED
:1020900000E0002028602046B46070BD6C00002085
:1020A000F8B5194D20E0C068C4680668201D00F02E
:1020B0000DF9216A2046884794F82400400713D57B
:1020C000A0693044B04206D924616060211DE868EF
:1020D00000F034F908E00020034601460090324643
:1020E000204601F023F838B1E86801680029DAD108
:1020F0002969C5E90310F8BD502080F31188BFF3AA
:102100004F8FBFF36F8FFEE76C00002008484068D8
:10211000401C4FF0500080F3118804D0BFF34F8F64
:10212000BFF36F8FFEE7BFF34F8FBFF36F8FFEE7F5
:10213000A0000020074CE068016841B1C0680021A0
:10214000D0F80000FFF728FFFFF7AEFEF3E701210C
:102150000020F7E76C0000202DE9F041044600F074
:1021600011F994F9455004F1240609E0606A48B178
:10217000304600F00DFF08B100F060FA6D1E6DB240
:10218000002DF3DC4FF0FF3684F8456000F01AF9BB
:1021900000F0F8F894F9445004F1100709E02069C0
:1021A00048B1384600F0F4FE08B100F047FA6D1E61
:1021B0006DB2002DF3DC84F84460BDE8F04100F01E
:1021C00001B900002DE9F0410546002700F0B4FAFE
:1021D000324E306808B9FFF769FD706905424ED18B
:1021E000C5B3083568070ED005F00700C0F1080038
:1021F0000544680707D0502080F31188BFF34F8F44
:10220000BFF36F8FFEE72DB37068854237D8234840
:10221000183001460C6801E020460C466168A9426E
:1022200002D221680029F7D131688C4227D0076893
:102230002168016060680837411B10290FD96019B7
:10224000420708D0502080F31188BFF34F8FBFF3AF
:102250006F8FFEE713E041606560FFF7D5FD6168B1
:102260007068401A7060B268904200D2B0607069C5
:1022700001430020C4E90001F068401CF06000F058
:10228000C3FE780707D0502080F31188BFF34F8F2B
:10229000BFF36F8FFEE73846BDE8F0818000002075
:1022A00010B5031F4FF080741C601B1F21F001014B
:1022B0001960191F044B0B6014390A60091F6FF075
:1022C000020244380A6010BD0D210008D0E9013235
:1022D00001699A60D0E901235A604A68824201D1BB
:1022E00082684A60002202610868401E086008682F
:1022F00070470000034B036003F154000860802026
:1023000010607047F4000020044B036003F1540098
:1023100008604FF480701060704700004803002090
:1023200000F108014FF0FF32C0E90112C160016104
:1023300000210160704700210161704730B50B68D2
:102340005A1C02D000F1080202E0026904E02246B1
:10235000546825689D42FAD953684B6099608A6039
:10236000516008610168491C016030BD42684A60E3
:1023700093688B6093685960916008610168491C9B
:1023800001607047502080F31188BFF34F8FBFF377
:102390006F8F0A494868401C486001280CD10848E2
:1023A000006810F0FF0F07D0502080F31188BFF3B2
:1023B0004F8FBFF36F8FFEE770470000A000002033
:1023C00004ED00E00849486828B1401E486001D18A
:1023D00080F311887047502080F31188BFF34F8F2E
:1023E000BFF36F8FFEE70000A000002070B500284B
:1023F0002AD0164DA0F1080460686969084207D127
:10240000502080F31188BFF34F8FBFF36F8FFEE72B
:1024100022683AB1502080F31188BFF34F8FBFF389
:102420006F8FFEE78843606000F086F96068696836
:10243000084468602046FFF7E7FC2869401C2861D3
:10244000BDE8704000F0E0BD70BD000080000020DD
:102450004FF0E02000210161816105494FF47A725B
:102460000968B1FBF2F1491E416107210161704722
:102470002C00002010B5FDF7F5FE114910280ED3F1
:1024800000F1E02090F8F0030A78904207D2502043
:1024900080F31188BFF34F8FBFF36F8FFEE70948BA
:1024A0000068896800F4E060884207D9502080F312
:1024B0001188BFF34F8FBFF36F8FFEE710BD000091
:1024C000A00000200CED00E010B5084B002200BF7A
:1024D00053F832401CB1521C082AF9D310BD43F8FE
:1024E000321003EBC201486010BD0000E407002079
:1024F00070B515460E460446FFF744FF94F94410A4
:102500000020491C01D184F8440094F94510491C6D
:1025100001D184F84500FFF755FFA06B28B92A4682
:10252000314604F1240000F0A7F82046BDE87040D1
:10253000FFF712BE10B5020014D00F48006B38B17F
:10254000502080F31188BFF34F8FBFF36F8FFEE7EA
:1025500000F0F2F800211046FFF778FA00F054FD81
:10256000002807D105494FF080500860BFF34F8F16
:10257000BFF36F8F10BD00003000002004ED00E0BD
:1025800070B50546FFF7FEFE244C05B92568281DE9
:10259000FFF79CFE58B9E86A214A00EB800152F827
:1025A000211021B901218140206988432061A86A56
:1025B00018B105F11800FFF789FE606A401C6062DF
:1025C0002068854207D1291D1648FFF7CFFE6068B5
:1025D000401C606007E0A068401EA0602846FFF72E
:1025E0004AFBFFF739FDFFF7EDFE6069002814D0C4
:1025F0002068854211D1206B38B1502080F31188BA
:10260000BFF34F8FBFF36F8FFEE707494FF0805046
:102610000860BFF34F8FBFF36F8F70BD3000002095
:1026200024080020E00A002004ED00E002490A6AC4
:102630000260C968416070473000002001490120F4
:10264000C86170473000002010B50C4650B10949F0
:1026500009681831FFF772FE2046BDE810400121DD
:10266000FFF7F4B9502080F31188BFF34F8FBFF309
:102670006F8FFEE73000002070B514460D4668B13C
:102680000A4909681831FFF771FE0CB14FF0FF35A8
:1026900021462846BDE87040FFF7D8B9502080F3A6
:1026A0001188BFF34F8FBFF36F8FFEE7300000201C
:1026B00030B587B00024039405AA04A903A80494A4
:1026C000FFF718FEDDE903010094CDE901100023B6
:1026D00015A11748059A00F06AFB164D0028E8621C
:1026E0001FD000F0F3FC012809D0401C19D1502064
:1026F00080F31188BFF34F8FBFF36F8FFEE7502039
:1027000080F31188BFF34F8FBFF36F8F4FF0FF300F
:10271000A86201206861EC6007B0BDE8304000F0BD
:1027200041B807B030BD000049444C4500000000EE
:10273000F91C0008300000200248016B491C0163AD
:1027400070470000300000201448016B11B10121D6
:10275000C16170470021C1610169B1FA81F1C1F124
:102760001F0101EB81020E4951F822306BB101EBE0
:10277000820101F108034A6852684A609A4201D115
:1027800052684A60D16801607047502080F3118818
:10279000BFF34F8FBFF36F8FFEE7000030000020C4
:1027A000240800201CB537480168374A914207D1F8
:1027B000502080F31188BFF34F8FBFF36F8FFEE778
:1027C00000683149491E884207D1502080F31188A2
:1027D000BFF34F8FBFF36F8FFEE72C49087801904E
:1027E000FF20087008788DF800009DF800009DF823
:1027F000002000F0F000904207D0502080F31188B4
:10280000BFF34F8FBFF36F8FFEE79DF80000204CA2
:1028100000F0500020700720A06005E09DF8002027
:1028200052008DF80020401E9DF800201206F5D4BD
:10283000A060032807D0502080F31188BFF34F8F8A
:10284000BFF36F8FFEE74FF44070A06001980870EF
:102850000C482030016841F470010160016841F0CA
:1028600070410160FFF7F4FD00206060FDF7C2FCDD
:102870000848016841F040410160FDF7A7FC0020D5
:102880001CBD000000ED00E071C20F4100E400E05B
:10289000A000002034EF00E038B5049D18B153B11A
:1028A000CAB181B120E0502080F31188BFF34F8F6F
:1028B000BFF36F8FFEE7502080F31188BFF34F8F77
:1028C000BFF36F8FFEE7502080F31188BFF34F8F67
:1028D000BFF36F8FFEE739B1502080F31188BFF34B
:1028E0004F8FBFF36F8FFEE748241C46012384F807
:1028F00046302B460094FFF72FFA204638BD0000E3
:1029000070B50D46040025D0FFF73CFDD4E90F203B
:10291000216802FB0011A1600021A16321686160B0
:102920000A46D4E90F01401E00FB0121E160214667
:102930004FF0FF3001F8440F487004F110008DB1E2
:10294000FFF7EEFC04F12400FFF7EAFCFFF73AFD85
:10295000012070BD502080F31188BFF34F8FBFF36B
:102960006F8FFEE721690029F0D000F011FB0028ED
:10297000ECD004494FF080500860BFF34F8FBFF395
:102980006F8FE3E704ED00E02DE9FF4782B01D46BD
:102990008A464FF00008040003D0BAF1000F08D0B7
:1029A00011E0502080F31188BFF34F8FBFF36F8F7A
:1029B000FEE7206C38B1502080F31188BFF34F8FB1
:1029C000BFF36F8FFEE7022D0AD1E06B012807D01D
:1029D000502080F31188BFF34F8FBFF36F8FFEE756
:1029E00000F010FA3F4F4FF000094FF0805648B901
:1029F000049838B1502080F31188BFF34F8FBFF394
:102A00006F8FFEE7FFF7BEFCA06BE16B884207D338
:102A1000022D05D00498D0B1B8F1000F1AD01EE0F5
:102A20002A4651462046FFF7F0F8616A19B104F1D1
:102A3000240000F0ADFA20B13E60BFF34F8FBFF32A
:102A40006F8FFFF7BFFC012006B0BDE8F087FFF7EE
:102A5000B9FC22E06846FFF7E9FD4FF00108FFF7F7
:102A6000B1FCFFF769FEFFF78DFC94F94400401CB0
:102A700001D184F8449094F94500401C01D184F8B8
:102A80004590FFF79FFC04A9684600F029F930B192
:102A90002046FFF761FB00F0B7FA0020D4E7FFF70C
:102AA00071FCA06BE16B884213D1FFF78BFC04F142
:102AB00010000499FFF7C8FD2046FFF74DFB00F01A
:102AC000A3FA00289ED13E60BFF34F8FBFF36F8FF4
:102AD00098E7FFF777FC2046FFF73EFB00F094FAFB
:102AE00090E7000004ED00E02DE9F0471F46904616
:102AF0008946040003D0B9F1000F08D011E050203E
:102B000080F31188BFF34F8FBFF36F8FFEE7206C08
:102B100038B1502080F31188BFF34F8FBFF36F8F10
:102B2000FEE7022F0AD1E06B012807D0502080F386
:102B30001188BFF34F8FBFF36F8FFEE7FFF79AFC4B
:102B40005020EFF3118680F31188BFF34F8FBFF34E
:102B50006F8FA06BE16B884206D3022F04D0002058
:102B600086F31188BDE8F08794F94550A06B3A468A
:102B700049462046FFF749F8681C04D06D1C84F8CC
:102B800045500120ECE7606A0028FAD004F12400E7
:102B900000F0FEF90028F4D0B8F1000FF1D00121C7
:102BA000C8F80010EDE700002DE9F747002683B0D4
:102BB0008A46040003D0BAF1000F08D011E050207B
:102BC00080F31188BFF34F8FBFF36F8FFEE7206C48
:102BD00038B1502080F31188BFF34F8FBFF36F8F50
:102BE000FEE700F00FF9DFF8F4804FF000094FF036
:102BF000805748B9059838B1502080F31188BFF349
:102C00004F8FBFF36F8FFEE7FFF7BCFBA56BC5B11E
:102C100051462046FEF7E6FF6D1EA563206950B1C0
:102C200004F1100000F0B4F928B1C8F80070BFF347
:102C30004F8FBFF36F8FFFF7C5FB012006B0BDE8D4
:102C4000F087059808B11EB106E0FFF7BBFB27E04F
:102C50006846FFF7EBFC0126FFF7B4FBFFF76CFDBE
:102C6000FFF790FB94F94400401C01D184F8449094
:102C700094F94500401C01D184F84590FFF7A2FB70
:102C800005A9684600F02CF8002820460AD0FFF776
:102C900063FA00F0B9F92046FFF7F8F80028B3D03E
:102CA0000020CBE7FFF7F2F890B104F1240005997A
:102CB000FFF7CAFC2046FFF74FFA00F0A5F90028FD
:102CC000A2D1C8F80070BFF34F8FBFF36F8F9BE79F
:102CD0002046FFF741FA00F097F995E704ED00E090
:102CE0002DE9F0410C46050011D0C4B1FFF74AFBB5
:102CF000174BDA686E682068911B471C17D02F6845
:102D00001B6A9F4219D0964217D8012410E0502028
:102D100080F31188BFF34F8FBFF36F8FFEE7502012
:102D200080F31188BFF34F8FBFF36F8FFEE700244E
:102D3000FFF748FB2046BDE8F081884205D9401ADC
:102D400020602846FFF772FCF1E700202060DCE7F6
:102D5000300000202DE9FF5F8346DDE90E879946AC
:102D600016468A469000FFF72DFA05001CD0542025
:102D7000FFF728FA040014D00020256384F85100DE
:102D8000CDE90240CDE900874B46324651465846D0
:102D9000FEF7EDFF2046FEF791FE012004B0BDE8EE
:102DA000F09F2846FFF722FB4FF0FF30F6E7F0B523
:102DB00085B0DDE90B640A9DA6B1DCB1542700970C
:102DC0002663022684F85160002604AFCDE902464E
:102DD000CDE90057FEF7CBFF2046FEF76FFE0498C3
:102DE00005B0F0BD502080F31188BFF34F8FBFF3C3
:102DF0006F8FFEE7502080F31188BFF34F8FBFF332
:102E00006F8FFEE70548416919B1006B18B10020CA
:102E100070470120704702207047000030000020FA
:102E20000148C06870470000300000202DE9F041E3
:102E30002F4C0026206B28B1A069401CA0613046B1
:102E4000BDE8F081E5686D1CE56013D1606B00683A
:102E500038B1502080F31188BFF34F8FBFF36F8FCD
:102E6000FEE7606BA16B6163A063206A401C206277
:102E7000FFF7F2F8A06ADFF87C80854209D3606B27
:102E80000068A0B1606BC068C7687868854211D2DD
:102E9000A0622068C06A00EB800158F82100012878
:102EA00000D90126E0690028C9D00126C7E74FF004
:102EB000FF30EDE7381DFFF709FAB86A18B107F1DE
:102EC0001800FFF703FAF96A0120226988401043CD
:102ED000206101EB810108EB8100391DFFF746FA03
:102EE000F86A2168C96A8842C9D30126C7E7000089
:102EF000300000202408002070B504004FF00001CD
:102F000040D0214D2868844207D0502080F311889A
:102F1000BFF34F8FBFF36F8FFEE7A06C38B1401E39
:102F2000A064636CE26A9A422CD040B12AE050203F
:102F300080F31188BFF34F8FBFF36F8FFEE7201D23
:102F4000FFF7C4F9114A012150B9E06A00EB800390
:102F500052F8233023B92B6901FA00F083432B6127
:102F6000606CE062C0F12000A061E06A2B698140E2
:102F70001943296100EB800002EB8000211DFFF75F
:102F8000F5F90121084670BD30000020240800201A
:102F90002DE9F041C068C468ACB104F118000746DF
:102FA000FFF794F9154D286B0126A0B13946144856
:102FB000FFF7DCF9E06A2968C96A88421BD9012059
:102FC000EE61BDE8F081502080F31188BFF34F8F90
:102FD000BFF36F8FFEE7201DFFF778F9E16A2A69DA
:102FE00006FA01F01043286101EB8100054901EB6D
:102FF0008000211DDCE70020E3E700003000002016
:10300000CC0A0020240800202DE9F0472C4D002494
:103010002746286B38B1FFF7B5F9286B401E2863A7
:10302000286B40B146E0502080F31188BFF34F8FEA
:10303000BFF36F8FFEE7A968224E0120D1B3A6F53A
:103040002A7980463068E8B1F068C46804F1180055
:10305000FFF73CF9201DFFF739F9E06A2A6908FA01
:1030600000F11143296100EB800109EB8100211D72
:10307000FFF77CF9E06A2968C96A8842E2D3C5F89B
:103080001C80DFE70CB1FEF7E7FFAC6944B14646B0
:10309000FFF7CCFE00B1EE61641EF9D10020A861FB
:1030A000E86938B10849012738070860BFF34F8F36
:1030B000BFF36F8FFFF786F93846BDE8F087000051
:1030C00030000020CC0A002004ED00E010B586B0EE
:1030D000FEF75CFD114C2068B8B10020039004900D
:1030E00005AA04A903A8FFF70FF9DDE903210220CF
:1030F0008DE8070000230AA10B48059AFFF757FE49
:10310000606010B106B0012010BD502080F311881E
:10311000BFF34F8FBFF36F8FFEE700006C000020FE
:10312000546D72205376630035210008FEB51E46AB
:1031300013460200089D4FF0000014D0124C27687F
:10314000002F0FD0CDE900130292062915DAFFF700
:1031500059FE02284FF000030DD000226946206876
:10316000FFF712FCFEBD502080F31188BFF34F8F94
:10317000BFF36F8FFEE72A46F0E700233246694629
:103180003846FFF7B1FCFEBD6C00002000000000D7
:103190000000000001020304060708090000000007
:1031A00001020304C431000800000020AC0000004C
:1031B000E419000870320008AC000020444B000005
:1031C000F4190008000000000000000000000000EA
:1031D00000000000000000000000000000000000EF
:1031E0000000F03F0100000010000000000000009F
:1031F0000024F400000000000000000000000000B7
:1032000000000000000000000000000000000000BE
:1032100000000000000000000000000000000000AE
:10322000000000000000000000000000000000009E
:10323000000000000000000000000000000000008E
:10324000000000000000000000000000000000007E
:10325000000000000000000000000000000000006E
:103260000000000000000000AAAAAAAA00000000B6
:040000050800019559
:00000001FF
