:020000040800F2
:10000000384C00206D020008C7210008CB190008F9
:10001000C5210008ED0A0008EF25000800000000D7
:10002000000000000000000000000000AD0100081A
:10003000EF0A00080000000009020008A5220008DD
:10004000870200088702000887020008870200086C
:10005000870200088702000887020008870200085C
:10006000870200088702000887020008870200084C
:10007000870200088702000887020008870200083C
:1000800087020008870200088702000800000000BD
:1000900000000000000000000000000087020008CF
:1000A00087020008752300088702000887020008FD
:1000B00087020008870200088702000887020008FC
:1000C00087020008870200088702000887020008EC
:1000D000870200088702000887020008000000006D
:1000E000870200088702000887020008000000005D
:1000F000000000000000000000000000870200086F
:10010000000000008702000887020008870200083C
:1001100000000000000000000000000000000000DF
:10012000870200088702000887020008870200088B
:10013000870200080000000000000000000000002E
:10014000000000000000000000000000870200081E
:10015000870200088702000887020008870200085B
:10016000870200088702000800000000000000006D
:10017000000000000000000000000000000000007F
:1001800000000000870200080000000000000000DE
:1001900087020008DFF810D000F070FB004800472D
:1001A00039320008AFF30080384C00202C4B19681E
:1001B0000868B0E8F04F80F30988BFF36F8F4FF005
:1001C000000080F3118870470000000008480068B4
:1001D000006880F308884FF0000080F3148862B64E
:1001E00061B6BFF34F8FBFF36F8F00DF00BF00BF5B
:1001F00008ED00E0DFF80C00016841F470010160D7
:10020000704700BF88ED00E0EFF30980BFF36F8F08
:10021000134B1A681EF0100F08BF20ED108A20E95A
:10022000F04F106009B44FF0500080F31188BFF315
:100230004F8FBFF36F8F04F00DF84FF0000080F385
:10024000118809BC19680868B0E8F04F1EF0100F5B
:1002500008BFB0EC108A80F30988BFF36F8F704736
:1002600030000020EFF3058070470000064880470B
:1002700006480047FEE7FEE7FEE7FEE7FEE7FEE78B
:10028000FEE7FEE7FEE7FEE76523000895010008AC
:100290002DE9F05F0546002092469B4688460646BB
:1002A000814640241BE0284641464746224600F04E
:1002B0009BF953465A46C01A914110D3114618462D
:1002C000224600F082F92D1A67EB01084F462246BC
:1002D0000120002100F079F917EB00094E41201EA2
:1002E000A4F10104DFDC484631462A464346BDE816
:1002F000F09F40EA01039B0703D009E008C9121FE1
:1003000008C0042AFAD203E011F8013B00F8013BCF
:10031000521EF9D27047D2B201E000F8012B491EFB
:10032000FBD270470022F6E710B513460A46044692
:100330001946FFF7F0FF204610BD2DE9FE4F80461D
:1003400081EA0300C00F0C46009021F0004123F029
:100350000045B8EB0200A94105D24046214690462F
:100360001C460B46024623F00040104347D0270DA1
:10037000C7F30A00C3F30A510290401A01904028C3
:100380006BDAC3F3130040F4801B0098924620B14F
:100390000023D2EB030A63EB0B0B01985946C0F123
:1003A0004002504600F011F906460D4650465946A7
:1003B000019A00F029F910EB08006141002487EA56
:1003C000115284EAE7731A4340D0009A62B3019A4B
:1003D000012A4FEA075215DC001B61EB02014FF0C6
:1003E000004202EA0752CDE90042001C41F58011AB
:1003F00032462B4600F060F903B0BDE8F08F40466E
:100400002146F9E7001B61EB0201001C41F5801356
:1004100000185B412018A2F5001747EB030140EAE2
:10042000D570B6196D4111E06D084FEA360645EA00
:10043000C0754FEA0752001B61EB0201001C41F539
:10044000801149084FEA30000019514132462B46CD
:1004500003B0BDE8F04F00F020B900980122400041
:100460000023D0EB020263EBE073009821464FEAD1
:10047000E074B8EB000061EB0401E9E783F00043AE
:100480005BE781F0004158E72DE9FE4F81EA030464
:1004900004F0004421F0004100944FF0000B23F0E1
:1004A000004350EA01045ED052EA03045BD0C3F378
:1004B0000A54C1F30A552C44A4F2F3340194A0FB6E
:1004C0000254C1F3130141F48011C3F3130343F445
:1004D000801301FB024400FB034E840A970A44EA9E
:1004E000815447EA8357A4FB076802958D0A05FBF0
:1004F00007854FEA932C04FB0C542705029D4FEA15
:10050000065847EA1637B5EB08056EEB070C870E61
:10051000920E47EA811742EA8312A7FB0201B6EB6B
:100520000B0164EB00042B0D43EA0C335E1844EB23
:100530001C50DA465146E7FB0201C5F313044FEAAB
:100540000B3343EA14534FEA0432019C43EA060397
:10055000A4F10C040294009CCDE900B400F0ACF8C6
:1005600003B0BDE8F08F00200146F9E700F000423B
:1005700030F000400AD0C10D01F56071C0F31600E3
:1005800042EA0151C208400711437047002001466A
:10059000704701F0004330B421F0004150EA0102FD
:1005A00006D00A0DA2F56072C1F31301002A02DC25
:1005B00030BC00207047440F44EAC104C100E01879
:1005C00030BC00EBC25000F031B8202A04DB203AE6
:1005D00000FA02F1002070479140C2F1200320FA96
:1005E00003F3194390407047202A04DB203A21FA94
:1005F00002F00021704721FA02F3D040C2F120023C
:100600009140084319467047202A06DBCB17203A51
:1006100041FA02F043EAE07306E041FA02F3D04007
:10062000C2F1200291400843194670470029A8BF33
:100630007047401C490008BF20F00100704710B40B
:10064000B0FA80FC00FA0CF050EA010404BF10BCC0
:10065000704749B1CCF1200421FA04F411FA0CF1ED
:1006600018BF012121430843A3EB0C01CB1D4FEA26
:1006700000614FEA102042BF002010BC704700EB21
:10068000C35010440029A4BF10BC7047401C49004F
:1006900008BF20F0010010BC704710B5141E73F1A4
:1006A000000408DA401C41F1000192185B411A4332
:1006B00001D120F0010010BD2DE9F04D92469B467E
:1006C00011B1B1FA81F202E0B0FA80F22032904624
:1006D000FFF77BFF04460F4640EA0A0041EA0B01A0
:1006E00053465A46084313D0114653EA010019D025
:1006F000C8F140025046FFF777FF05460E465046C8
:1007000059464246FFF761FF084305D0012004E047
:1007100020463946BDE8F08D0020054346EAE076E4
:100720002C4337430A986305E40AA0EB0800002233
:10073000FD0A44EA47540A3002D500200146E9E7A1
:10074000010510196941DDE9084500196941BDE855
:10075000F04DA2E72DE9F04D00231A461B1A8A41FD
:1007600003DB00200146BDE8F08DC1F30A52C1F35E
:10077000130141F480154FF0000BD10702D100188E
:100780006D41521E0027044640F2FF11384601EB2E
:10079000620A3E468046024600204FF48011FFF771
:1007A00023FFC2197141BB1846EB0100B4EB030CE7
:1007B00075EB000C04D3E41A65EB000517460E46F2
:1007C000241908F101006D4180463428E3DDF91950
:1007D00046EB0600091BA84103D24FF0FF32134637
:1007E00001E0002213461BEB070046EB0A51BDE86F
:1007F000F04DFFF752BF2DE9FE4FC3F30A5701F04A
:1008000000450024C1F30A56C3F31303C1F31301D7
:1008100043F4801312EB020AA64641F480110095BE
:1008200043EB030CA7F1010B16E0B0EB0A0061EB00
:100830000C01071E71F1000707DA4FF00008D0EB3A
:10084000080085F0004568EB0101171A73EB0107FA
:10085000EBD3761E001849415E45F6DA50EA0102F4
:1008600009D0CDE900E5002213460296FFF724FFE8
:1008700003B0BDE8F08F20460099F9E7064C074D1C
:1008800006E0E06840F0010394E807009847103460
:10089000AC42F6D3FFF782FC408200086082000879
:1008A0002DE9F04D81EA030404F0004B21F00045EE
:1008B00014464FF0000A23F0004150EA050220D010
:1008C00054EA01021DD0C5F30A570246C5F31303CB
:1008D000C1F31300C1F30A5640F4801543F48013AA
:1008E000A7EB0608101BD64608F2FD3873EB05008F
:1008F00002D308F1010801E092185B41B8F1000F42
:1009000003DA00200146BDE8F08D00204FF480118D
:10091000064684460EE0171B73EB050705D3121B32
:1009200063EB050306434CEA010C49084FEA30002B
:1009300092185B4150EA0107EDD152EA030012D050
:1009400082EA040083EA0501084305D0101BAB418D
:1009500006D20122002306E000224FF0004302E00D
:100960006FF0010253101AEB06004CEB085110EB2C
:100970000A0041EB0B01BDE8F04DFFF78EBE0EB54E
:10098000C10F80EAE0700844CA07002140F23343F7
:100990008DE80E000A460B46FFF78EFE03B000BD41
:1009A0000EB540F2334102910021CDE900110A4613
:1009B0000B46FFF781FE03B000BD70B5C1F30A52CC
:1009C00001F000450024C1F3130140F2FF3341F46C
:1009D00080119A4201DA002070BD40F233439A42FE
:1009E000A2F2334203DC5242FFF7FEFD00E09040EA
:1009F0002C43F1D0404270BD7CB503F003FA22488D
:100A00000324CDE900404FF4007500232A461FA1BE
:100A1000214803F063FF012822D11B480023001D59
:100A2000CDE900402A461DA11F4803F057FF0128C9
:100A300016D1154902200831CDE9000100232A46CC
:100A40001AA11E4803F04AFF012809D10E481C4B89
:100A50000C30CDE900402A461AA11D4803F03EFFA4
:100A6000094904201031CDE9000100232A4619A1CB
:100A70001D4803F033FF0448001FC06903F006FB64
:100A8000BDE87C4003F0DEB9040000204C45445F23
:100A90005461736B00000000D11F00084B45595F83
:100AA0005461736B00000000CD19000850574D5F72
:100AB0004445544543545F5461736B001922000848
:100AC000B00000204C43445F5461736B0000000091
:100AD000191F00084F70656E6C6F6F705F464F4353
:100AE0005F5461736B000000C9210008FEE7704786
:100AF00072B6FEE72DE9F84FDFF8B8A10022012415
:100B000003254FF00F090AF1040BAAF1040E00BFF0
:100B10000B6804FA02F63340B34273D10F7907F041
:100B20000307012F01D0022F16D187684FEA420830
:100B300005FA08FC27EA0C07D1F80CC00CFA08FCEF
:100B40004CEA070CC0F808C04768B7430E79C6F3F3
:100B5000001696403E4346600E79F643B6070DD028
:100B6000C768560005FA06FC27EA0C07D1F808C04A
:100B70000CFA06FC4CEA070CC0F80CC00E7906F023
:100B80000306022E10D1D60800EB8608D8F82060A4
:100B900057074FEAD76C09FA0CF7BE430F6907FAFB
:100BA0000CF73743C8F8207006684FEA420C05FA84
:100BB0000CF7BE430F7907F0030707FA0CF737432A
:100BC00007604E6816F4403F6DD03B4E376847F4DF
:100BD00080473760366822F0030706F480460096A7
:100BE000364E07EB060CDCF8086897073F0F09FA4A
:100BF00007F826EA0806DFF8C880404503D14FF021
:100C000000081EE04FE0DFF8BC80404502D14FF005
:100C1000010816E0DFF8B080404502D14FF002082D
:100C20000FE0DFF8A880404502D14FF0030808E04C
:100C3000DFF89C80404502D14FF0040801E04FF0FE
:100C4000070808FA07F848EA0608CCF80888DAF82E
:100C500000605746D1F804C09E435FEACC2C00D513
:100C60001E433E60DBF800605F46D1F804C09E433F
:100C70005FEA8C2C00D51E433E60DEF800607746AC
:100C8000D1F804C09E435FEA8C3C00D51E433E6011
:100C9000084F083F3E68D1F804C09E435FEACC3C51
:100CA00000D51E433E60521C102AFFF431AFBDE850
:100CB000F88F0000083C01404438024000300140F9
:100CC000000002400004024000080240000C024004
:100CD000001002400069084000D0012070470AB1AE
:100CE000816170470904FBE7014880687047000094
:100CF000200000200248816802781144816070471A
:100D0000200000200B4810B5016841F4007101601B
:100D1000016841F480610160016841F48071016003
:100D2000032000F099F80F2000F006F800F04AF8D0
:100D3000002010BD003C024030B505461C4887B07D
:100D40000024016841F001010160006806A900F07B
:100D50000100009001A800F02BF900F049F91549B5
:100D6000154AB0FBF1F11548491E026040F2E73226
:100D7000C0E90324C0E90114846100F071FB0400A0
:100D800012D10E4800F0AEFB04000DD1192000F086
:100D900035F8102D07D200222946192000F03CF822
:100DA0000748056000E0012407B0204630BD000080
:100DB0004438024040420F0000000140E00700209C
:100DC000240000200C4882B0016841F48041016099
:100DD000006800F4804000900748001F016841F05F
:100DE000805101600068002200F0805000900F21C7
:100DF000901E02B000F010B844380240002809DB11
:100E000000F01F02012191404009800000F1E02024
:100E1000C0F8001170470000F0B40E4B1B680C4680
:100E2000C3F30223C3F10705042D00D90425191DBE
:100E3000072901D2002300E0DB1E012606FA05F196
:100E4000491E214099409E40761E16403143F0BC19
:100E500001F0E6BB0CED00E0064900F0070208686F
:100E60004FF6FF03184040EA0220034A104308608F
:100E7000704700000CED00E00000FA052DE9F04796
:100E80000E46050065D0DFF81481D8F80000F7B2EF
:100E900000F00700B04207D288F80070D8F80000D0
:100EA00000F00700B04254D128683D4C810712D5AC
:100EB000400703D5206840F4E05020602878000700
:100EC00003D5206840F4604020602068A96820F0C5
:100ED000F000084320602878C0072DD030496868AA
:100EE0000839012812D0022813D0032811D009682C
:100EF000890700292DDA216821F0030101432160CF
:100F0000FFF7F2FE814641F2883A0EE00968890354
:100F1000EFE709688901ECE7FFF7E6FEA0EB0901BE
:100F2000514502D90320BDE8F0872068696800F0C8
:100F30000C00B0EB810FEFD1D8F80010404601F063
:100F40000701B14207D90770006800F00700B042FE
:100F500001D00120E7E72878400705D52068E96837
:100F600020F4E050084320602878000706D5206868
:100F7000296920F4604040EAC100206000F048F890
:100F80002168084AC1F30311515CC8400649086052
:100F900006480068FFF7D0FE0020C4E7003C02408E
:100FA00008380240144D00082C00002024000020C6
:100FB0000F2202600C4A136803F0030343601368B6
:100FC00003F0F0038360136803F4E053C360126816
:100FD0004FF4E05303EAD20202610448006800F0D3
:100FE000070008607047000008380240003C0240DB
:100FF0000448054900680968044AC1F34231515C5C
:10100000C84070472C00002008380240244D0008DA
:10101000154810B5006810F00C02144813D014499C
:10102000042A0FD0082A0ED10F4C241F22682368EF
:1010300002F03F025B0207D52068C0F38810A0FBD6
:10104000010106E0084610BD2168C1F38811A1FB2B
:1010500000010023FFF71CF92168C1F30141491C7D
:101060004900B0FBF1F010BD083802400024F40044
:1010700040787D012DE9F84F04006ED02078DFF82C
:101080004C93C007A9F104054AD009F10400016896
:10109000C1F38101012908D00068C0F38100022852
:1010A0000AD1D9F80000400206D52868800337D558
:1010B00060680028E1D033E06068B0F5803F10D070
:1010C000B0F5A02F286810D020F480302860286860
:1010D00020F4802028606068A8B1FFF705FE06466E
:1010E0000DE0286840F48030F4E740F48020286068
:1010F000F7E700BFFFF7F8FD801B642873D8286866
:101100008003F7D50CE0FFF7EFFD064605E000BFD2
:10111000FFF7EAFD801B6428F0D828688003F7D425
:101120002078DFF8AC8280074FF0000A3ED5A74850
:10113000001D016811F00C0F08D00068C0F3810099
:1011400002280BD1D9F80000400207D42868800794
:1011500016D5E068012800D112E033E1E068B8B1AB
:101160000120C8F80000FFF7BFFD064605E000BFFC
:10117000FFF7BAFD801B0228C0D828688007F7D582
:101180002868216920F0F80040EAC10028600DE0DD
:10119000C8F800A0FFF7A8FD064604E0FFF7A4FD8D
:1011A000801B02281FD828688007F7D42078000702
:1011B00022D5864F87486169703771B1012101607E
:1011C000FFF792FD064604E0FFF78EFD801B022824
:1011D00009D838688007F7D50EE0C0F800A0FFF7FF
:1011E00083FD064605E082E0FFF77EFD801B0228B6
:1011F0007DD838688007F7D42078400768D5DFF8B5
:10120000CCB100270BF13C0BDBF80000C0000BD485
:10121000DBF8001041F08051CBF80010DBF8000043
:10122000012700F0805000906B4E3068C00510D44C
:10123000306840F480703060FFF756FD009005E0A4
:10124000FFF752FD0099401A022850D83068C005B7
:10125000F6D55E4EA0686C3601280FD005283068A0
:1012600010D020F001003060306820F004003060C1
:10127000A068B8B1FFF738FD00900FE0306840F08B
:101280000100F4E740F004003060F7E7FFF72CFDC1
:101290000099411A41F28830814266D8306880074F
:1012A000F4D50EE0FFF720FD009007E0FFF71CFDEE
:1012B0000099411A41F28830814256D8306880073F
:1012C000F4D42FB1DBF8001021F08051CBF80010DE
:1012D000A069C8B33D49091D0968C1F3810102290C
:1012E0004AD00228504607D0C8F8600000E03CE031
:1012F000FFF7FAFC04463BE04746C8F86000FFF7FA
:10130000F3FC064605E000BFFFF7EEFC801B022859
:101310002BD828688001F7D4D4E907010843A16AD3
:101320002E4A490802EB0141626A41EA82110843F0
:1013300094F82C1040EA0161C9F8001001203866C9
:10134000FFF7D2FC044606E03EE000BFFFF7CCFC0E
:10135000001B022809D828688001F7D534E000BFB7
:10136000FFF7C2FC001B022802D90320BDE8F88F5A
:1013700028688001F4D427E00128F7D0D9F80000CC
:10138000E26900F4800191421CD1226A00F03F0121
:10139000914217D147F6C071626A0140B1EB821FDA
:1013A00010D1A26A4FF0FF3300F4403103EB520238
:1013B000B1EB024F06D194F82C1000F07060B0EB46
:1013C000016F01D00120D1E70020CFE704380240AF
:1013D00000004742800E4742007000400000FFFFBF
:1013E0007047704770B590F83C20012A2CD001243A
:1013F00080F83C40022280F83D2003685A689D68CE
:1014000022F070060A6832435A60104B02689A4212
:101410000ED0B2F1804F0BD00D4B9A4208D00D4B3D
:101420009A4205D00C4B9A4202D00C4B9A4204D1FE
:10143000496825F080031943916080F83D40002100
:1014400080F83C10084670BD022070BD00000140CD
:101450000004004000080040000C00400040014033
:1014600010B5040003D094F83D0010B107E001204E
:1014700010BD002084F83C00204600F01FF8022038
:1014800084F83D00211D206800F07AFF012084F8D7
:10149000460084F83E0084F83F0084F8400084F859
:1014A000410084F8420084F8430084F8440084F842
:1014B000450084F83D00002010BD000008B500681C
:1014C0000649884208D10648016841F002010160DE
:1014D000006800F00200009008BD00000004004019
:1014E0004038024090F83D10012901D0012070479A
:1014F000022180F83D100168CA6842F00102CA600A
:1015000000680E4988420ED0B0F1804F0BD00C49D4
:10151000884208D00B49884205D00B49884202D046
:101520000A49884204D1816801F00701062903D0E5
:10153000016841F001010160002070470000014096
:101540000004004000080040000C00400040014042
:1015500070B5044690F83C000025012817D00126FC
:1015600084F83C60022084F83D002068826822F004
:10157000770222F47F4282600868502838D00DDC60
:1015800020284FD005DC90B3102811D14AE002206A
:1015900070BD302846D040280AD13BE060282FD0CB
:1015A00070280DD0B0F5805F03D0B0F5005F12D089
:1015B000012584F83D60002084F83C00284670BD79
:1015C000CB68D1E90121206800F039FF20688168EB
:1015D00041F0770109E0CB68D1E90121206800F0F2
:1015E0002EFF2068816841F480418160E1E719E0C5
:1015F000CA684968206800F0D7FF5021206806E0DB
:10160000CA684968206800F0E0FF6021206800F0A7
:1016100020FFCEE7CA684968206800F0C5FF402176
:101620002068F4E7226801461046F0E770472DE98C
:10163000F04104460068C66805694FF00007A90735
:1016400013D5B10711D5F91E01610120207720685B
:1016500080698007204602D0FFF7E8FF04E000F031
:10166000BBF8204600F04DF92777680716D57007BC
:1016700014D521686FF004000861022020772068EB
:10168000806910F4407F204602D0FFF7CFFF04E0CE
:1016900000F0A2F8204600F034F92777280715D586
:1016A000300713D521686FF0080008610420207707
:1016B0002068C0698007204602D0FFF7B7FF04E02A
:1016C00000F08AF8204600F01CF92777E80616D5C6
:1016D000F00614D521686FF010000861082020770B
:1016E0002068C06910F4407F204602D0FFF79EFFBB
:1016F00004E000F071F8204600F003F92777E807CE
:1017000008D0F00706D021686FF00100086120467C
:1017100000F050F9280608D5300606D521686FF08C
:10172000800008612046FFF75BFE680608D570065A
:1017300006D521686FF040000861204600F044F9AA
:10174000A8060AD5B00608D521686FF02000086108
:101750002046BDE8F041FFF744BEBDE8F08100003F
:1017600030B587B0044614216846FEF7DBFD164904
:101770002068884226D115480024016841F0010103
:101780000160016801F001010591016841F0020169
:1017900001600068022500F002000590C020009062
:1017A000CDE9015469460A48CDE90345FFF7A2F99E
:1017B00003200090CDE9015469460648CDE9034570
:1017C000FFF798F907B030BD000400403038024000
:1017D0000000024000040240704770B5044690F8D3
:1017E0003C0000260D4601280FD0012084F83C0063
:1017F0006AB1042A1DD0082A2FD00C2A3FD0012616
:10180000002084F83C00304670BD022070BD206886
:1018100000F028FE2068816941F00801816120689C
:10182000816921F004018161206881692A6911437D
:1018300011E0206800F03EFE2068816941F40061FB
:1018400081612068816921F48061816120688169FA
:101850002A6941EA02218161D2E7206800F056FE40
:101860002068C16941F00801C1612068C16921F0A7
:101870000401C1612068C1692A69114311E020682F
:1018800000F070FE2068C16941F40061C161206808
:10189000C16921F48061C1612068C1692A6941EA96
:1018A0000221C161ACE710B5040003D094F83D00FB
:1018B00010B107E0012010BD002084F83C00204654
:1018C00000F01EF8022084F83D00211D206800F081
:1018D00057FD012084F8460084F83E0084F83F005C
:1018E00084F8400084F8410084F8420084F8430002
:1018F00084F8440084F8450084F83D00002010BDC1
:101900007047704710B50446022249B104290ED031
:10191000082913D094F84100012816D0012010BDE9
:1019200094F83E000128F9D184F83E200FE094F8A5
:101930003F000128F2D184F83F2008E094F84000ED
:101940000128EBD184F8402001E084F841200122F5
:10195000206800F067FD12492068884203D1426C7C
:1019600042F400424264206888420ED0B0F1804FB9
:101970000BD00C49884208D00B49884205D00B494E
:10198000884202D00A49884204D1816801F00701E7
:10199000062903D0016841F001010160002010BD5B
:1019A000000001400004004000080040000C00401E
:1019B0000040014000680349884201D1FFF79AB90D
:1019C00070470000000001407047FEE7194D1A4CB7
:1019D000002601212846FFF77DF90028F9D10A20C9
:1019E00002F0E8FA01212846FFF774F950B960784F
:1019F000012807D00120607020780028A06908D055
:101A0000401EA06101212846FFF764F9012802D099
:101A100002E0401CF5E76670A069052802DB05209E
:101A2000A06102E00028D4DCA6612078C0432070C9
:101A3000CFE7000000000240000000202DE9F04147
:101A400004461D4616460F462A2000F087FA204617
:101A500000F07AFA304600F077FA2B2000F07EFA98
:101A6000384600F071FA284600F06EFABDE8F04101
:101A70002C2000F073BA10B514460B460246FFF74F
:101A8000DDFF2046BDE8104000F05EBA2DE9F047CA
:101A900080461F46581E83B21646501E82B20C4620
:101AA0004046DDF82090FFF7C9FF0AE0454604E014
:101AB000484600F049FA6D1CADB2B542F8D3641C3B
:101AC000A4B2BC42F2D3BDE8F087000038B56C4C3C
:101AD000002280212046FFF702F9142002F06AFA62
:101AE000012280212046FFF7FAF8142002F062FA62
:101AF000012220212046FFF7F2F8142002F05AFAC2
:101B0000112000F02BFA782002F054FA362000F071
:101B100025FA002000F036FA3A2000F01FFA0520DE
:101B200000F030FAB22000F019FA0C2000F02AFA86
:101B30000C2000F027FA002000F024FA332000F0F7
:101B400021FA332000F01EFAB72000F007FA352002
:101B500000F018FABB2000F001FA322000F012FA6F
:101B6000C22000F0FBF9012000F00CFAC32000F0C5
:101B7000F5F9152000F006FAC42000F0EFF9202056
:101B800000F000FAC62000F0E9F90F2000F0FAF9A1
:101B9000D02000F0E3F9A42000F0F4F9A12000F037
:101BA000F1F9E02000F0DAF9D02000F0EBF908209C
:101BB00000F0E8F90E2000F0E5F9092000F0E2F964
:101BC000092000F0DFF9052000F0DCF9312000F0F9
:101BD000D9F9332000F0D6F9482000F0D3F91720C6
:101BE00000F0D0F9142000F0CDF9152000F0CAF96A
:101BF000312000F0C7F9342000F0C4F9E12000F0F2
:101C0000ADF9D02000F0BEF9082000F0BBF90E209D
:101C100000F0B8F9092000F0B5F9092000F0B2F998
:101C2000152000F0AFF9312000F0ACF9332000F0BE
:101C3000A9F9482000F0A6F9172000F0A3F9142014
:101C400000F0A0F9152000F09DF9312000F09AF97C
:101C5000342000F097F9212000F080F9292000F0CD
:101C60007DF94FF6FF70F023002100901A460846D8
:101C7000FFF70CFF0349012008700349087038BDC5
:101C800000040240B8000020AC0000202DE9FF4F06
:101C900081B00446DDF83C9000904FEA59074FF0C0
:101CA0000008780700D0012000EBD70000FB09FBFB
:101CB000203AD0B20390029802994844401E83B261
:101CC000E019401E82B22046FFF7B8FE002553E01F
:101CD000B9F10C0F2AD0B9F1100F2ED0B9F1180FAD
:101CE0002ED0B9F1200F49D12749039801EB80107C
:101CF000002610F805A0109800284FF0010000FA07
:101D000006F000EA0A0022D020B12046049A029987
:101D1000FFF7B1FE641C0098A4B2201AB84225D186
:101D20000298009C401C80B2029023E0039817495F
:101D300000EB400001EB8000DAE71549039803E06F
:101D40000398144900EB400001EB0010D0E708B104
:101D5000049800E00E9800F0F7F808F10100C0B216
:101D6000B0FBF7F1804607FB118050B1761CF6B24C
:101D7000082EC0D36D1CADB25D45A9D305B0BDE83A
:101D8000F08F4FF00008F5E7606900082C4D00085F
:101D9000A0510008905700082DE9FF4F83B000269E
:101DA000DDE911B81D4682464FEA58073446B14670
:101DB0002CE0281B401EC1B20A2001F061FA0599EF
:101DC000B1FBF0F00A21B0FBF1F201FB120026B9E1
:101DD000691E8C4201DA58B101263030C2B204FBD0
:101DE00007A0CDF800B0CDE9018980B2109B08E0D2
:101DF000CDF800B004FB07A0CDE90189109B80B2AB
:101E000020220499FFF742FF641CE4B2AC42D0D315
:101E100007B0BDE8F08F2DE9FE4F9946DDE90D676B
:101E200014468A460546DDF830800CE0CDF8008087
:101E30004B4651462846CDE90167FFF727FF05EBE2
:101E4000560085B2641C2278002AEFD1BDE8FE8FCF
:101E5000FEB502784FF4784618244FF6FF750096C9
:101E6000CDE901540746782104230846FFF794FF83
:101E7000B8880096CDE9015482B2042396218C20C3
:101E8000FFF78AFFBDE8FE404FF4AF7002F092B852
:101E9000FEB54FF6FF74F02300211A460846009461
:101EA000FFF7F4FD00251826CDE900464FF47847EA
:101EB0003B4611A2294628460295FFF7ACFFCDE923
:101EC00000463B460FA23C2100200295FFF7A3FFEE
:101ED000CDE900463B460DA25A2100200295FFF7AE
:101EE0009AFFCDE900463B460AA2782100200295E0
:101EF000FFF791FFFEBD00004C45445F487A5F53F9
:101F000045540000565F4D494E3A0000565F4D4122
:101F1000583A0000443A0000084C094D094E074663
:101F2000207828B1A86930603846FFF791FFF7E7BD
:101F3000FFF7CCFD3846FFF7ABFFF1E7B800002014
:101F400000000020B000002010B50446000A00F098
:101F500019F8E0B2BDE8104000F014B870B5084CB4
:101F60000546002240212046FEF7B9FE284600F033
:101F700009F82046BDE8704001224021FEF7AFBEBF
:101F8000000402402DE9F041104F054600244FF4B3
:101F900080784FF40076002231463846FEF79FFEE7
:101FA000280601D5012200E0002241463846FEF70E
:101FB00096FE012231463846FEF791FE6806641C03
:101FC000050EE4B2082CE6D3BDE8F081000402401F
:101FD000084C094D6426206880F400502060A869F0
:101FE00000EBC00101EB001006EB800001F0E2FF06
:101FF000F1E7000014080240000000202DE9F04144
:1020000086B014216846FEF78DF92F480024016838
:1020100041F004010160016801F0040105910168CB
:1020200041F001010160016801F0010105910168C1
:1020300041F0020101600068244F00F002004FF4FB
:1020400000550590002229463846FEF748FEDFF885
:102050008080002204214046FEF741FE4FF478764E
:10206000012231464046FEF73AFE00950125CDE9B2
:102070000154694638460394FEF73CFDCDE900540F
:10208000144F694638460295FEF734FD0820CDE925
:102090000004694638460294FEF72CFD0420CDE981
:1020A000000569464046CDE90245FEF723FD0220C2
:1020B000CDE90240CDE9006569464046FEF71AFDCC
:1020C00006B0BDE8F0810000303802400008024050
:1020D000000402400000024010B58EB000240794B6
:1020E000089409940A940B941C2168460C94FEF7FA
:1020F00019F93348314901600321C0E901144FF453
:102100000071C0E9031480218161FFF7A9F908B1CA
:10211000FEF7EEFC4FF48050079007A92848FFF720
:1021200017FA08B1FEF7E4FC2548FFF7BCFB08B13D
:10213000FEF7DEFC0B940BA921480C94FFF752F933
:1021400008B1FEF7D5FC6020CDE90004029400221E
:1021500069461B480494FFF740FB08B1FEF7C8FC32
:10216000042269461648FFF738FB08B1FEF7C0FCA9
:10217000082269461248FFF730FB08B1FEF7B8FCA9
:102180000C2269460E48FFF728FB08B1FEF7B0FCA9
:1021900000210B48FFF7B6FB04210948FFF7B2FB0B
:1021A00008210748FFF7AEFB0C210548FFF7AAFB03
:1021B0000348FFF7D5FA0EB010BD00000004004040
:1021C000F0000020FEE7FEE708B502F0EDFB044654
:1021D0000090012204210D48FEF781FD0C4D0D4EAB
:1021E00002F0E2FB0746041BA869C0EB001000EEFA
:1021F000100A2046B8EEC00A02F05AF874603C4655
:102200000321684601F0FCFEEAE7000000040240FA
:1022100000000020B00000204FF47A74204601F046
:10222000C9FEFBE7B5EEC00AF1EE10FA02D89FED49
:102230001A0A06E010EE101AB1F17E5F01DBB7EE6C
:10224000000A1749DFED150AB0EE001A096868B1F7
:10225000042815D020EE200A082820EE010ABCEE42
:10226000C00A10EE100A15D00864704720EE200A4C
:1022700020EE010ABCEEC00A10EE100A4863704757
:1022800020EE200A20EE010ABCEEC00A10EE100A71
:1022900088637047C86370470000000000008043F7
:1022A000F000002010B5502080F31188BFF34F8F4D
:1022B000BFF36F8F02F07EFB18B104494FF08050DE
:1022C0000860002080F3118810BD000004ED00E0DC
:1022D00030B593B030216846FEF724F814210CA8DD
:1022E000FEF720F81D480024016841F0805101608C
:1022F000006800F0805011901948016821F44041B5
:1023000041F4004101600068022500F44040119052
:10231000012003901020009506950490CDE9074018
:10232000A020CDE9090504200B906846FEF7A2FE27
:1023300008B172B6FEE70F20CDE90C054FF48050CE
:10234000CDE90E4002210CA81094FEF797FD00285D
:1023500001D072B6FEE713B030BD00004038024035
:10236000007000400248016841F47001016070474C
:1023700088ED00E00148FFF75AB90000E0070020AF
:10238000F0B50268204B214C9F03214D214E98420D
:1023900007D0B84205D0A04203D0A84201D0B04235
:1023A00004D122F0700C4A6842EA0C02984210D024
:1023B000B8420ED0A0420CD0A8420AD0B04208D0F9
:1023C000154CA04205D0154CA04202D0144CA0429E
:1023D00003D122F44074CA6822434C6922F080027F
:1023E000224302608A68C2620A688262984201D10E
:1023F00009690163012141610169C90703D00169CC
:1024000021F001010161F0BD000001400004004025
:1024100000080040000C0040004001400044014022
:102420000048014010B501F01F030121046A9940E2
:102430008C430462016A9A401143016210BD10B5D9
:10244000846842EA032224F47F440A4322438260E0
:1024500010BD826822F070020A4342F007018160D9
:102460007047000030B5036A026A22F0010202627E
:102470004268846924F073050C682C4323F002053C
:102480008B682B430A4DA8420BD123F00805CB687B
:1024900022F440722B434D6923F0040315438A69EB
:1024A0002A434260846149684163036230BD000091
:1024B0000000014030B5026A036A23F01003036292
:1024C000436884690D6824F4E64444EA05248D6871
:1024D00022F0200242EA05120B4DA8420ED1CD682F
:1024E00022F0800242EA05124D6923F4406343EA78
:1024F00085038D6922F0400243EA850343608461CD
:1025000049688163026230BD0000014030B5036A52
:10251000026A22F4807202624268C46923F4007382
:1025200024F073050C682C438D6843EA05230C4D99
:10253000A8420ED1CD6823F4006343EA05234D6918
:1025400022F4405242EA05128D6923F4806342EA84
:1025500005124260C4614968C163036230BD000076
:102560000000014030B5046A026A22F4805202621F
:102570004268C3690D6823F4E64343EA05238D6886
:1025800024F4005444EA0534064DA84204D14D69B0
:1025900022F4804242EA85124260C36149680164C4
:1025A000046230BD0000014010B5036A046A24F0E3
:1025B00001040462846924F0F00444EA021423F064
:1025C0000A020A438461026210BD10B5036A046AFC
:1025D00024F010040462846923F0A00324F47044FE
:1025E00044EA023243EA01118261016210BDFEE752
:1025F00003B401984100009850EAC12018BF04209C
:102600004A0D18BF40F0010040F2FF72B2EB515F7B
:1026100008BF40F00200012808BF052002B0704743
:102620000907090E002804DB00F1E02080F80014FF
:10263000704700F00F0000F1E02080F8141D704793
:1026400010B52F499FED2C1B2DED020B84B0059882
:1026500020F000408842D8BF9DED040B2DDD2949B4
:10266000884209D1049840B94FF0010000F098FD6C
:1026700000F066FD06B010BD05DB9DED040B00F01B
:1026800053FD06B010BD68469DED040B00F064F9E3
:1026900010F0030004BF9DED021B9DED000B0CD05C
:1026A00001280ED09DED021B9DED000B022817D0D6
:1026B000012000F0A1FC06B010BD00F069FB06B0DF
:1026C00010BD9DED021B9DED000B012000F094FC60
:1026D00051EC100B81F0004106B041EC100B10BD25
:1026E00000F056FB51EC100B81F0004106B041ECBC
:1026F000100B10BD000000000000000000000000F2
:10270000FB21E93F0000F07F10B52DED040B86B0F2
:102710009DED060B10EE100A10EE901A8DED000BD9
:10272000002818BF0120084320F00040C0F17F605E
:1027300000F1E040C00F21D19DED080B10EE101A02
:1027400010EE900A8DED000B002918BF01210843FF
:1027500020F00040C0F17F6000F1E040C00F0DD1DB
:1027600029490798B1EB400F04BF0698002842D0D2
:102770000998400004BF089800283CD09DED080B44
:1027800053EC102B9DED060B51EC100BFEF733F8BC
:10279000CDE902019DED020B40F2FF7110EE900AAF
:1027A0008DED000B31EA105021D00798039900F00D
:1027B000004001F00041884219D09DED080B8DEDDD
:1027C000040B9DED020B8DED000B10EE900A0599A8
:1027D00061F31E0005909DED041B9DED020B51EC75
:1027E000110B53EC102BFDF74CFECDE902019DEDD2
:1027F000020B0AB010BD012000F0D2FC0AB0BDE807
:10280000104000F09DBC00000000E0FF0000000050
:1028100010B52F499FED2C1B2DED020B84B00598B0
:1028200020F000408842DCBF00209DED040B32DD2B
:102830002849884209D1049840B94FF0010000F0BE
:10284000AFFC00F07DFC06B010BD05DB9DED040B78
:1028500000F06AFC06B010BD68469DED040B00F068
:102860007BF810F0030011D0012818D09DED021B59
:102870009DED000B02281AD000F08AFA51EC100BE3
:1028800081F0004106B041EC100B10BD9DED021B24
:102890009DED000B012000F0AFFB06B010BD9DEDDB
:1028A000021B9DED000B00F073FA06B010BD012075
:1028B00000F0A2FB51EC100B81F0004106B041EC9E
:1028C000100B10BD00000000000000000000000020
:1028D000FB21E93F0000F07F00B52DED048BB0EE49
:1028E000409AF0EE609A83B051EC190BFDF732FF7D
:1028F00041EC180B18EE100A18EE901A8DED008BB3
:10290000002818BF0120084320F00040C0F17F607C
:1029100000F1E040C00F14D019EE101A19EE900A21
:102920008DED009B002918BF0121084320F00040D5
:10293000C0F17F6000F1E040C00F04BF012000F053
:102940002FFCB0EE480A03B0F0EE680ABDEC048B31
:1029500000BD0000000000002DE9F14F04462DED00
:10296000020B2DED088B8AB09FEDE70B80ED020B7B
:10297000139EE74826F0004585420ADC9DED120BC8
:10298000002084ED000B0AB0BDEC088B03B0BDE85D
:10299000F08FE0489FEDE0AB9FEDE1BBA84247DD43
:1029A000E14F9FEDE39B9FEDE48B9DED120B53EC0C
:1029B0001A2B51EC100B002E1CDDFDF75FFD41ECD6
:1029C000100BBD4208D053EC1B2B51EC100BFDF744
:1029D00055FDC4E900010BE053EC192B51EC100B31
:1029E000FDF74CFD53EC182BFDF748FDC4E9000141
:1029F0000120C8E7FDF7A1FC41EC100BBD4208D057
:102A000053EC1B2B51EC100BFDF797FCC4E90001B4
:102A10000BE053EC192B51EC100BFDF78EFC53EC33
:102A2000182BFDF78AFCC4E900014FF0FF30AAE73C
:102A3000C348A84279DB9DED120B51EC100B00F05E
:102A4000EFFB41EC180B9FEDC00B53EC102BFDF787
:102A50001BFD9FEDBF1B53EC112BFDF76EFCFDF72B
:102A6000ACFF0746FDF78BFF41EC190B53EC1A2B1B
:102A7000FDF70AFD53EC182BFDF703FD41EC180B95
:102A800053EC1B2B51EC190BFDF7FEFCDFF8C8A231
:102A900041EC100B4FEA15580125FA4453EC102B6A
:102AA00051EC180BFDF7EAFC032DC4E900013DD001
:102AB000C1F30A5005EB4511A8EB00001139814222
:102AC00034DA0AEB051BB0EE48AA9BED000BF0EEE2
:102AD00068AA53EC102B51EC190BFDF7D5FC41EC17
:102AE0001B0B51EC1A0B53EC1B2BFDF7C7FC41ECF5
:102AF000180B51EC1A0B53EC182BFDF7BFFC53ECE1
:102B00001B2BFDF7BBFC9BED020B41EC1A0B53ECAE
:102B1000102B51EC190BFDF7B7FC53EC1A2BFDF7FA
:102B2000ADFC41EC100B6D1CB8E70EE0002EA8BF09
:102B30003846BFF628AF94ED000B51EC100B81F036
:102B40000041C4E9000178421DE7C6F3130040F4D8
:102B5000801EC6F30A50A0F2F530471100F01F05A1
:102B6000C5F12000DDF848B00890002006900790DD
:102B70000520EC467949002D07EB0002794408BF97
:102B800051F8221009D051F8223001EB8201AB40FC
:102B90004A68089922FA01F11943A1FB0E26A1FB0C
:102BA0000B131A449A4234BF0123002303EB060897
:102BB0000CEB8003D3E901A60E448E4234BF012101
:102BC000002192448A4411B1924502D903E0924512
:102BD00001D2012100E00021C3E901A641444CF8E3
:102BE0002010011EA0F10100C4DC029800F1005089
:102BF000850F0298DDE903678000DDF81480FDF79A
:102C0000BEFE41EC1A0B3046FDF7CAFE9FED541B89
:102C100053EC112BFDF738FC41EC1B0B3846FDF74C
:102C2000BFFE9FED511B53EC112BFDF72DFC41EC2A
:102C3000180B4046FDF7B4FE9FED4D1B53EC112BD6
:102C4000FDF722FC41EC190B51EC180B53EC192B3E
:102C5000FDF773FB53EC1B2BFDF76FFB53EC1A2BAB
:102C6000FDF76BFBCDE90801002008909DED080BF6
:102C700053EC1A2B51EC100BFDF700FC53EC1B2B03
:102C8000FDF7FCFB53EC182BFDF7F8FB53EC192B6D
:102C9000FDF7F7FB9FED381B53EC112BFDF7F4FB11
:102CA0009FED370B41EC180B53EC102B9DED080BEF
:102CB00051EC100BFDF7E8FB53EC182BFDF73DFB37
:102CC0009FED310B41EC180B53EC102B9DED080BD5
:102CD00051EC100BFDF7D8FB53EC182BFDF72DFB37
:102CE00041EC100B139810F0004F06D06D4251ECE0
:102CF000100B81F0004141EC100B284684ED000BD5
:102D000041E600000000000000000000000000009C
:102D1000FB21E93F7CD9024000004054FB21F93FF0
:102D20003163621A61B4D03DFB21F93F000000001D
:102D30000000601A61B4D03D7370032E8A19A33B62
:102D4000FB2139410000000083C8C96D305FE43FBA
:102D5000000000000000E03FB256000000560000F6
:102D6000000000000000103E000000000000103CC9
:102D7000000000000000103A182D4454FB21F93DDA
:102D80003326A611460B113C00000054FB21F93DEF
:102D900010B52DED040B2DED088B82B0B0EE419AED
:102DA000F0EE619A0B9820F000449FED4BABB4F12C
:102DB000795F11DA9DED0A0B51EC100BFDF7FDFD6B
:102DC000002801BFB0EE4A0AF0EE6A0A02B0BDEC7C
:102DD000088B04BF04B010BD9DED0A0B53EC102B03
:102DE00051EC100BFDF750FB41EC180B3C48062151
:102DF000B0EE480AF0EE680A784400F081F853EC2F
:102E0000182B51EC100BFDF73FFB9DED0A0B41EC2D
:102E10001B0B53EC192B51EC100BFDF735FB41EC60
:102E2000190B53EC1B2B51EC180BFDF72DFB53EC3E
:102E3000192BFDF723FB9FED2C0B41EC190B53ECE9
:102E4000102B51EC180BFDF71FFB41EC100B284821
:102E5000844210DA53EC192B51EC100BFDF70EFBEA
:102E600053EC1A2BFDF70DFB41EC100B02B0BDEC3F
:102E7000088B04B010BD1F48A042BCBF9FED1E1BB5
:102E80008DED001B06DBA4F50010019000200090E2
:102E90009DED001B51EC100B53EC112BFDF7EEFADE
:102EA0009DED000B41EC180B53EC102B51EC1A0B61
:102EB000FDF7E4FA41EC1A0B53EC192B51EC180B0B
:102EC000FDF7DCFA53EC1A2BFDF7DBFA41EC100BA3
:102ED000CCE7000000000000000000000000F03F10
:102EE0002453000000000000000000000000E03F4C
:102EF0003333D33F0000E93F000000000000D23F21
:102F000070B504462DED028B4D1E00EBC500B0EEF2
:102F1000408AF0EE608A90ED000B35F0060017D085
:102F200053EC182B51EC100BFDF7AEFA41EC100BE3
:102F30006D1E04EBC50090ED001B51EC100B53EC23
:102F4000112BFDF7FAF941EC100B35F00600E7D133
:102F5000022D36D0042D1CD0062D1CBFBDEC028BDB
:102F600070BD53EC182B51EC100BFDF78DFA94ED5E
:102F70000A1B53EC112BFDF7E0F953EC182BFDF76E
:102F800083FA94ED081B53EC112BFDF7D6F941ECB5
:102F9000100B53EC182B51EC100BFDF775FA94ED58
:102FA000061B53EC112BFDF7C8F953EC182BFDF75A
:102FB0006BFA94ED040B53EC102BFDF7BEF941ECCA
:102FC000100B53EC182B51EC100BFDF75DFA94ED40
:102FD000021B53EC112BFDF7B0F953EC182BFDF746
:102FE00053FA94ED001B53EC112BFDF7A6F9BDEC41
:102FF000028B41EC100B70BD31B504462DED040B76
:103000002DED0A8BB0EE41BAF0EE61BA0B989DED52
:103010000A0B20F00040B0F1795F0DDA51EC100B93
:10302000FFF7E6FA042808BF00F09AF89DED0A0BB6
:10303000BDEC0A8B05B030BD53EC102B51EC100BDE
:10304000FDF722FA41EC180B9DED0A0B53EC182BFF
:1030500051EC100BFDF718FA41EC190B2C48B0EEAF
:10306000480AF0EE680A05217844FFF749FF9FED12
:103070002ACBB0EE40AAF0EE60AA9CB353EC1C2B16
:1030800051EC190BFDF700FA41EC1C0B53EC1A2B19
:1030900051EC190BFDF7F8F99FED210B41EC190BE1
:1030A00053EC102B51EC1B0BFDF7EEF953EC192BE5
:1030B000FDF7E4F953EC182BFDF7E6F953EC1B2B65
:1030C000FDF7DCF953EC1C2BFDF7D8F99DED0A1B3D
:1030D00053EC112BFDF7D5F9BDEC0A8B05B041EC93
:1030E000100B30BDFFE753EC1A2B51EC180BFDF71A
:1030F000CBF953EC1C2BFDF720F953EC192BFDF702
:10310000C3F99DED0A1B53EC112BFDF716F9E3E70C
:10311000AC51000000000000495555555555C5BF3C
:10312000000000000000E03F10B553EC102B51EC04
:10313000100BFDF702F941EC100B10BD0000000070
:103140009FED050B10B553EC102B51EC100BFDF758
:10315000A7FB41EC100B10BD0000000000000000B8
:103160009FED050B10B553EC102B51EC100BFDF738
:103170008BF941EC100B10BD0000000000000010A6
:1031800002E008C8121F08C1002AFAD17047704730
:10319000002001E001C1121F002AFBD1704700008E
:1031A0000149086070470000EC00002000EE900A22
:1031B000F8EEE00A20EE200A7047000010B510EE8D
:1031C000100A2DED028BFDF7D1F99FED138B41EC29
:1031D000100BB0EE481AF0EE681AFFF795FA51ECB2
:1031E000100BFDF7D6F900EE100A10EE100AB5EE3E
:1031F000C00AF1EE10FA02DBFDF7B8F905E0FDF7C1
:10320000B5F953EC182BFDF798F8FDF7C2F9BDECB2
:10321000028B00EE100A10BD182D4454FB211940FA
:1032200082B0CDE9000121F0004001909DED000B3E
:1032300002B051EC100B70471CB5FDF763FDFFF7B2
:1032400047F8FEF7DBFEFEF747FF07490120CDE90F
:1032500000014202002305A1084801F03FFB08B12C
:1032600000F0ACFFFEE700001C000020417070542D
:1032700061736B437265617465000000F9090008B1
:103280000246012000E05043491EC9B2FBD27047FC
:103290002DE9F041184C0F460546E6682068001DF0
:1032A00000F054FD38B9206890F82C1001208840B7
:1032B000216981432161681C07D137B12168BDE8CC
:1032C000F0410E48091D00F091BD20683544B5421B
:1032D0004560216805D2A06BBDE8F041091D00F0F2
:1032E0006DBD606B091D00F069FDA06A854200D2CA
:1032F000A562BDE8F081000030000020380B0020FE
:103300002DE9F041054600F07DFD2D4CA068401CE4
:10331000A06020682B4F10B1606930B32BE02560AE
:10332000A068012827D1002606EB860007EB800065
:1033300000F036FD761C202EF6D3234800F030FD39
:103340002148143000F02CFD1F48283000F028FDE3
:103350001D483C3000F024FD1B48503000F020FD9B
:10336000194860631430A06305E02068E96AC06A08
:10337000884200D82560606A401C6062E96A0120CA
:10338000226988401043206101EB810007EB800037
:10339000291D00F02BFD00F055FD606900280CD0C0
:1033A0002068E96AC06A884207D208494FF0805015
:1033B0000860BFF34F8FBFF36F8FBDE8F08100004F
:1033C0003000002068080020E80A002004ED00E03A
:1033D00038B500F017FD104C2068C8B90F4800F050
:1033E000DFFC0E48143000F0DBFC0C48E0601430C9
:1033F00020610A4B0020C03B009003F148020C21E1
:103400000A2001F00DF8206010B105A100F09CFD2C
:10341000BDE8384000F016BD6C0000200C0C002008
:10342000546D72510000000030B4026C0B46002A4B
:103430000BD0C1681144C1608468A14201D3016806
:10344000C16030BC1846FCF754BF30BC70472DE952
:10345000F041856B174604460026026C82B1C7B165
:10346000E068FCF746FFE168206C091AE160226819
:10347000914202D2A168081AE060022F16D017E02C
:103480002068A8B9A06801F0FBFA06460020A060F9
:103490000EE06068FCF72DFF216C606808446060F6
:1034A000A168884204D32068606001E005B16D1E08
:1034B0006D1CA5633046BDE8F08110B5044690F858
:1034C000510058B101280CD002280FD0502080F3B1
:1034D0001188BFF34F8FBFF36F8FFEE7206B00F0B3
:1034E000C5FC2046BDE8104000F0C0BC10BD000087
:1034F00010484FF47051420706D0C01D0D4920F00E
:103500000700411AC1F570510B4A00230144C2E97A
:1035100000030839183A21F0070111604B600B6075
:103520000B1AC0E9001393604FF0004053605061E4
:1035300070470000340C002098000020144E154CF9
:10354000A6F52F774FF08058DFF84C9012E000BFBF
:1035500000F058FCF068C568281D00F0F7FBA06873
:10356000401EA0606068401E606000F06BFC284652
:10357000FFF7A3FF60680028EAD138680128F9D96D
:10358000C9F80080BFF34F8FBFF36F8FF2E70000E1
:10359000240B00203000002004ED00E003460098DA
:1035A00029B10260C0E90F31012100F06DBF006058
:1035B000F8E72DE9F0479A46DDE9098481466FF086
:1035C0000303206B03EB82021044089E20F00707E0
:1035D000780707D0502080F31188BFF34F8FBFF3D7
:1035E0006F8FFEE7002561B1002023180A5C83F885
:1035F00034200A5C12B1401C1028F6D384F84350E2
:1036000001E084F83450202E00D31F26E662C4E97E
:103610001165201D00F0CFFB04F1180000F0CBFB7A
:103620002461C6F120006462A061E56484F8505012
:1036300052464946384600F055FA2060B8F1000F6E
:1036400001D0C8F80040BDE8F087000030B511494E
:1036500000E011460A688242FBD34B685C18844242
:1036600003D1406818444860084643681C189442D7
:1036700009D1084C183C2468A24209D052681A4467
:1036800042600A6812680260814200D0086030BD62
:103690000460F9E79800002070B5002441600B4DEC
:1036A0000061914206D8D11A8269914206D2011D69
:1036B000286907E09A4203D2994201D3012403E02A
:1036C000011DE86800F07AFB204670BD6C00002008
:1036D00010B5044600F096FBA06B28B15FF0000423
:1036E00000F0B0FB204610BD0124F9E730B587B0EB
:1036F000394D67E00498002864DB069C606910B1CE
:10370000201D00F023FB03A800F0D8F8024604981F
:103710000A2857D2DFE800F00505052D334A0505D4
:103720002D3394F8240040F0010084F8240005991A
:10373000A069059B01442046FFF7AEFF68B3216AEC
:103740002046884794F8240040073BD5002000908D
:103750000598A169002342181946204601F0AAFAEB
:10376000D8B9502080F31188BFF34F8FBFF36F8F0C
:10377000FEE714F8240F20F00100207022E094F8F6
:10378000240040F0010084F824000598A06128B1CD
:10379000811813462046FFF77FFF13E0502080F387
:1037A0001188BFF34F8FBFF36F8FFEE794F82400AB
:1037B000810703D4204600F059FB03E020F001000C
:1037C00084F82400002204A9286800F0B1FF002832
:1037D00090D107B030BD00006C0000202DE9FC4105
:1037E0000F46054600F02EFD01A800F067F80446DC
:1037F000019818B101F0CCF9BDE8FC81254EAFB1BC
:1038000030690068D0B30027291B3A46306800F0C1
:10381000AFFB01F0BDF90028EED11F494FF08050F9
:103820000860BFF34F8FBFF36F8FE5E7A542EBD87A
:1038300001F0AEF9F0682746C068C468201D00F0AA
:1038400085FA94F82400410719D5A0692B4641193F
:103850003A462046FFF720FFA8B100200346014664
:1038600000902A46204601F025FA60B9502080F3E6
:103870001188BFF34F8FBFF36F8FFEE707E020F093
:10388000010084F82400216A20468847B4E7012714
:10389000BAE700006C00002004ED00E00648416B30
:1038A000096829B1416BC968C96849688162704774
:1038B0004FF0FF31FAE700003000002070B50546F8
:1038C00001F072F8064E0446B068844203D200F05C
:1038D00009F8012000E0002028602046B46070BD97
:1038E0006C000020F8B5194D20E0C068C468066877
:1038F000201D00F02BFA216A2046884794F8240006
:10390000400713D5A0693044B04206D924616060F5
:10391000211DE86800F052FA08E000200346014645
:1039200000903246204601F0C5F938B1E8680168D8
:103930000029DAD12969C5E90310F8BD502080F3C8
:103940001188BFF34F8FBFF36F8FFEE76C0000202D
:1039500008484068401C4FF0500080F3118804D0A4
:10396000BFF34F8FBFF36F8FFEE7BFF34F8FBFF3F0
:103970006F8FFEE7A0000020074CE068016841B1AE
:10398000C0680021D0F80000FFF728FFFFF7AEFE67
:10399000F3E701210020F7E76C0000202DE9F0415A
:1039A000044600F02FFA94F9455004F1240609E08A
:1039B000606A48B1304601F0AFF808B100F0C4FBCE
:1039C0006D1E6DB2002DF3DC4FF0FF3684F84560BC
:1039D00000F038FA00F016FA94F9445004F1100798
:1039E00009E0206948B1384601F096F808B100F0C6
:1039F000ABFB6D1E6DB2002DF3DC84F84460BDE8B6
:103A0000F04100F01FBA00002DE9F0410546002703
:103A100000F018FC324E306808B9FFF769FD706994
:103A200005424ED1C5B3083568070ED005F0070032
:103A3000C0F108000544680707D0502080F31188C2
:103A4000BFF34F8FBFF36F8FFEE72DB370688542D2
:103A500037D82348183001460C6801E020460C4650
:103A60006168A94202D221680029F7D131688C42ED
:103A700027D007682168016060680837411B10295A
:103A80000FD96019420708D0502080F31188BFF386
:103A90004F8FBFF36F8FFEE713E041606560FFF764
:103AA000D5FD61687068401A7060B268904200D2BB
:103AB000B060706901430020C4E90001F068401C57
:103AC000F06001F065F8780707D0502080F3118886
:103AD000BFF34F8FBFF36F8FFEE73846BDE8F0812D
:103AE0008000002010B5031F4FF080741C601B1F66
:103AF00021F001011960191F044B0B6014390A6091
:103B0000091F6FF0020244380A6010BD51390008E5
:103B100070B55F4C2DED0A8BB0EE408A94ED030A30
:103B200031EE000AFFF74AFB10EE105A2846FCF768
:103B30001DFD41EC100BFEF76BFEB0EE401AF0EEEF
:103B4000601AB1EE480AB0EE419AF0EE619A10EEBA
:103B5000100AFCF70BFD53EC192BFCF795FCFCF756
:103B600018FDE0622846FCF701FD41EC100BFEF762
:103B700067FDB0EE409AF0EE609A18EE100AFCF77E
:103B8000F5FC53EC192BFCF77FFCFCF702FD2061E0
:103B9000D4ED0B8A94ED010AB6EE008AF0EE680AC5
:103BA000054640EE080A20EE080A10EE100AC4EDA1
:103BB000050AFCF7DBFC41EC190B18EE900AFCF748
:103BC000D5FC41EC1A0B2846FCF7D0FC9FED31CB1D
:103BD00041EC1B0BB0EE4C0AF0EE6C0AFEF77CFEDB
:103BE00053EC1B2B51EC100BFCF74EFC53EC1A2B37
:103BF000FCF744FC9FED29AB53EC1A2BFCF744FC7B
:103C000053EC192BFCF799FBFCF7C3FCA06194ED76
:103C1000010A20EE080A10EE100AFCF7A7FC41EC9E
:103C2000180B2069FCF7A2FC41EC190BB0EE4C0A12
:103C3000F0EE6C0AFEF750FE53EC192B51EC100B12
:103C4000FCF722FC94ED0B0A41EC190BB1EE400A93
:103C500010EE100AFCF78AFC53EC192BFCF70EFC53
:103C600053EC1A2BFCF710FC53EC182BFCF765FBFC
:103C7000FCF78FFC01EE100A84ED071AD4ED060A5A
:103C800094ED050ABDEC0A8BBDE8704000F00AB85F
:103C9000BC00002000000000000008400000000000
:103CA0000000E03F10B5274C9FED273A4FF07E51C2
:103CB000D4ED012AC0EE221AF5EEC01AF1EE10FA88
:103CC00002D2B0EE430A08E011EE900A884202DD0B
:103CD000B7EE000A01E0B0EE610A80EEA22A84EDA0
:103CE000080AB5EEC02AF1EE10FA02D2B0EE432A6D
:103CF00005E012EE100A884201DDB7EE002AC1EE9F
:103D0000220A84ED092AF5EEC00AF1EE10FA02D279
:103D1000F0EE430A05E010EE900A884201DDF7EE6E
:103D2000000AC4ED0A0A0020FEF77CFA94ED090AA5
:103D30000420FEF777FA94ED0A0ABDE81040082047
:103D4000FEF770BABC00002000000000D0E901328C
:103D500001699A60D0E901235A604A68824201D120
:103D600082684A60002202610868401E0860086894
:103D700070470000034B036003F15400086080208B
:103D80001060704738010020044B036003F15400B9
:103D900008604FF480701060704700008C030020B2
:103DA00000F108014FF0FF32C0E90112C16001616A
:103DB00000210160704700210161704730B50B6838
:103DC0005A1C02D000F1080202E0026904E0224617
:103DD000546825689D42FAD953684B6099608A609F
:103DE000516008610168491C016030BD42684A6049
:103DF00093688B6093685960916008610168491C01
:103E000001607047502080F31188BFF34F8FBFF3DC
:103E10006F8F0A494868401C486001280CD1084847
:103E2000006810F0FF0F07D0502080F31188BFF317
:103E30004F8FBFF36F8FFEE770470000A000002098
:103E400004ED00E00849486828B1401E486001D1EF
:103E500080F311887047502080F31188BFF34F8F93
:103E6000BFF36F8FFEE70000A000002070B50028B0
:103E70002AD0164DA0F1080460686969084207D18C
:103E8000502080F31188BFF34F8FBFF36F8FFEE791
:103E900022683AB1502080F31188BFF34F8FBFF3EF
:103EA0006F8FFEE78843606000F0CCF96068696856
:103EB000084468602046FFF7C9FB2869401C286158
:103EC000BDE8704000F064BE70BD000080000020BE
:103ED0004FF0E02000210161816105494FF47A72C1
:103EE0000968B1FBF2F1491E416107210161704788
:103EF0002C00002010B5FCF7B5F9114910280ED39D
:103F000000F1E02090F8F0030A78904207D25020A8
:103F100080F31188BFF34F8FBFF36F8FFEE709481F
:103F20000068896800F4E060884207D9502080F377
:103F30001188BFF34F8FBFF36F8FFEE710BD0000F6
:103F4000A00000200CED00E010B5084B002200BFDF
:103F500053F832401CB1521C082AF9D310BD43F863
:103F6000321003EBC201486010BD00002808002099
:103F700070B515460E460446FFF744FF94F9441009
:103F80000020491C01D184F8440094F94510491CD3
:103F900001D184F84500FFF755FFA06B28B92A46E8
:103FA000314604F1240000F0EDF82046BDE87040F1
:103FB000FFF7F4BC10B5020014D00F48006B38B105
:103FC000502080F31188BFF34F8FBFF36F8FFEE750
:103FD00000F038F900211046FFF75AF900F0D8FD3B
:103FE000002807D105494FF080500860BFF34F8F7C
:103FF000BFF36F8F10BD00003000002004ED00E023
:1040000070B50D4604000BD095B11E4A106BB8B1C7
:10401000502080F31188BFF34F8FBFF36F8FFEE7FF
:10402000502080F31188BFF34F8FBFF36F8FFEE7EF
:10403000502080F31188BFF34F8FBFF36F8FFEE7DF
:1040400000F000F9D26823685919934204D98B42D1
:104050000AD9914202D807E08B42FAD9881A216026
:104060000021FFF715F900E0216000F091FD002824
:1040700007D105494FF080500860BFF34F8FBFF361
:104080006F8F70BD3000002004ED00E070B5054674
:10409000FFF7B8FE244C05B92568281DFFF756FE2A
:1040A00058B9E86A214A00EB800152F8211021B981
:1040B00001218140206988432061A86A18B105F177
:1040C0001800FFF743FE606A401C6062206885426A
:1040D00007D1291D1648FFF789FE6068401C606003
:1040E00007E0A068401EA0602846FFF7E6F9FFF74A
:1040F000D5FBFFF7A7FE6069002814D02068854231
:1041000011D1206B38B1502080F31188BFF34F8F4D
:10411000BFF36F8FFEE707494FF080500860BFF391
:104120004F8FBFF36F8F70BD3000002068080020F4
:10413000240B002004ED00E002490A6A0260C9680D
:10414000416070473000002001490120C86170477C
:104150003000002010B50C4650B1094909681831EB
:10416000FFF72CFE2046BDE810400121FFF790B874
:10417000502080F31188BFF34F8FBFF36F8FFEE79E
:104180003000002070B514460D4668B10A49096830
:104190001831FFF72BFE0CB14FF0FF3521462846B2
:1041A000BDE87040FFF774B8502080F31188BFF36A
:1041B0004F8FBFF36F8FFEE73000002030B587B020
:1041C0000024039405AA04A903A80494FFF7D2FDD0
:1041D000DDE903010094CDE90110002315A1174882
:1041E000059A00F0A8FB164D0028E8621FD000F0E9
:1041F00031FD012809D0401C19D1502080F31188CD
:10420000BFF34F8FBFF36F8FFEE7502080F311880D
:10421000BFF34F8FBFF36F8F4FF0FF30A8620120C5
:104220006861EC6007B0BDE8304000F07FB807B0CF
:1042300030BD000049444C45000000003D350008F9
:10424000300000200248016B491C016370470000E8
:10425000300000201448016B11B10121C161704789
:104260000021C1610169B1FA81F1C1F11F0101EBC6
:1042700081020E4951F822306BB101EB820101F14C
:1042800008034A6852684A609A4201D152684A60FB
:10429000D16801607047502080F31188BFF34F8FC1
:1042A000BFF36F8FFEE70000300000206808002099
:1042B000B0EE401A00EE100A10B5F8EE400A9FED7D
:1042C000180A2DED028B60EE800AF5EEC00AF1EEC1
:1042D00010FA04D910EE900AB0F17C5F01DDF0EE27
:1042E000400A104C94ED020A01EE200AFEF766FF28
:1042F00084ED020AD4ED010AB0EE081A207880EEAF
:10430000818AFEF753FFB0EE401ADFED070AB0EEE8
:10431000480AFFF7FDFBB0EE480ABDEC028B10BD6A
:104320006F12833ABC000020000000001CB5374823
:104330000168374A914207D1502080F31188BFF3BA
:104340004F8FBFF36F8FFEE700683149491E8842E7
:1043500007D1502080F31188BFF34F8FBFF36F8FC9
:10436000FEE72C4908780190FF20087008788DF846
:1043700000009DF800009DF8002000F0F000904241
:1043800007D0502080F31188BFF34F8FBFF36F8F9A
:10439000FEE79DF80000204C00F050002070072040
:1043A000A06005E09DF8002052008DF80020401E1E
:1043B0009DF800201206F5D4A060032807D05020F5
:1043C00080F31188BFF34F8FBFF36F8FFEE74FF479
:1043D0004070A060019808700C482030016841F4DA
:1043E00070010160016841F070410160FFF770FDEC
:1043F00000206060FBF7FEFE0848016841F0404184
:104400000160FBF7E3FE00201CBD000000ED00E0B2
:1044100071C20F4100E400E0A000002034EF00E092
:1044200038B5049D18B153B1CAB181B120E0502014
:1044300080F31188BFF34F8FBFF36F8FFEE75020DB
:1044400080F31188BFF34F8FBFF36F8FFEE75020CB
:1044500080F31188BFF34F8FBFF36F8FFEE739B141
:10446000502080F31188BFF34F8FBFF36F8FFEE7AB
:1044700048241C46012384F846302B460094FFF75D
:104480008DF8204638BD000070B50D46040025D0DB
:10449000FFF7B8FCD4E90F20216802FB0011A160EE
:1044A0000021A163216861600A46D4E90F01401E22
:1044B00000FB0121E16021464FF0FF3001F8440F7D
:1044C000487004F110008DB1FFF76AFC04F124007C
:1044D000FFF766FCFFF7B6FC012070BD502080F3AB
:1044E0001188BFF34F8FBFF36F8FFEE7216900295B
:1044F000F0D000F011FB0028ECD004494FF08050C0
:104500000860BFF34F8FBFF36F8FE3E704ED00E068
:104510002DE9FF4782B01D468A464FF0000804008F
:1045200003D0BAF1000F08D011E0502080F31188B9
:10453000BFF34F8FBFF36F8FFEE7206C38B1502071
:1045400080F31188BFF34F8FBFF36F8FFEE7022D0B
:104550000AD1E06B012807D0502080F31188BFF307
:104560004F8FBFF36F8FFEE700F010FA3F4F4FF011
:1045700000094FF0805648B9049838B1502080F3B4
:104580001188BFF34F8FBFF36F8FFEE7FFF73AFC41
:10459000A06BE16B884207D3022D05D00498D0B1FF
:1045A000B8F1000F1AD01EE02A4651462046FEF709
:1045B0004EFF616A19B104F1240000F0ADFA20B198
:1045C0003E60BFF34F8FBFF36F8FFFF73BFC0120BF
:1045D00006B0BDE8F087FFF735FC22E06846FFF73C
:1045E000ABFD4FF00108FFF72DFCFFF72BFEFFF7A7
:1045F00009FC94F94400401C01D184F8449094F9DA
:104600004500401C01D184F84590FFF71BFC04A92C
:10461000684600F029F930B12046FFF7BFF900F0F5
:10462000B7FA0020D4E7FFF7EDFBA06BE16B8842FF
:1046300013D1FFF707FC04F110000499FFF78AFD7E
:104640002046FFF7ABF900F0A3FA00289ED13E60A8
:10465000BFF34F8FBFF36F8F98E7FFF7F3FB204651
:10466000FFF79CF900F094FA90E7000004ED00E0F9
:104670002DE9F0471F4690468946040003D0B9F162
:10468000000F08D011E0502080F31188BFF34F8F46
:10469000BFF36F8FFEE7206C38B1502080F3118894
:1046A000BFF34F8FBFF36F8FFEE7022F0AD1E06B8E
:1046B000012807D0502080F31188BFF34F8FBFF33C
:1046C0006F8FFEE7FFF716FC5020EFF3118680F3A3
:1046D0001188BFF34F8FBFF36F8FA06BE16B8842E0
:1046E00006D3022F04D0002086F31188BDE8F0879E
:1046F00094F94550A06B3A4649462046FEF7A7FE7E
:10470000681C04D06D1C84F845500120ECE7606AF9
:104710000028FAD004F1240000F0FEF90028F4D0BB
:10472000B8F1000FF1D00121C8F80010EDE700004A
:104730002DE9F747002683B08A46040003D0BAF17A
:10474000000F08D011E0502080F31188BFF34F8F85
:10475000BFF36F8FFEE7206C38B1502080F31188D3
:10476000BFF34F8FBFF36F8FFEE700F00FF9DFF855
:10477000F4804FF000094FF0805748B9059838B1E0
:10478000502080F31188BFF34F8FBFF36F8FFEE788
:10479000FFF738FBA56BC5B151462046FEF744FE36
:1047A0006D1EA563206950B104F1100000F0B4F94A
:1047B00028B1C8F80070BFF34F8FBFF36F8FFFF7BA
:1047C00041FB012006B0BDE8F087059808B11EB195
:1047D00006E0FFF737FB27E06846FFF7ADFC012650
:1047E000FFF730FBFFF72EFDFFF70CFB94F94400B9
:1047F000401C01D184F8449094F94500401C01D13B
:1048000084F84590FFF71EFB05A9684600F02CF8D8
:10481000002820460AD0FFF7C1F800F0B9F9204679
:10482000FEF756FF0028B3D00020CBE7FEF750FF7D
:1048300090B104F124000599FFF78CFC2046FFF7A6
:10484000ADF800F0A5F90028A2D1C8F80070BFF3B8
:104850004F8FBFF36F8F9BE72046FFF79FF800F065
:1048600097F995E704ED00E02DE9F0410C460500CD
:1048700011D0C4B1FFF7C6FA174BDA686E6820682A
:10488000911B471C17D02F681B6A9F4219D0964274
:1048900017D8012410E0502080F31188BFF34F8F08
:1048A000BFF36F8FFEE7502080F31188BFF34F8F67
:1048B000BFF36F8FFEE70024FFF7C4FA2046BDE880
:1048C000F081884205D9401A20602846FFF734FC61
:1048D000F1E700202060DCE7300000202DE9FF5FD9
:1048E0008346DDE90E87994616468A469000FFF713
:1048F0008BF805001CD05420FFF786F8040014D074
:104900000020256384F85100CDE90240CDE90087FD
:104910004B46324651465846FEF74BFE2046FEF7C0
:10492000EFFC012004B0BDE8F09F2846FFF79EFA97
:104930004FF0FF30F6E7F0B585B0DDE90B640A9D76
:10494000A6B1DCB1542700972663022684F8516093
:10495000002604AFCDE90246CDE90057FEF729FE57
:104960002046FEF7CDFC049805B0F0BD502080F342
:104970001188BFF34F8FBFF36F8FFEE7502080F396
:104980001188BFF34F8FBFF36F8FFEE70548416972
:1049900019B1006B18B10020704701207047022048
:1049A00070470000300000200148C06870470000D8
:1049B000300000202DE9F0412F4C0026206B28B15B
:1049C000A069401CA0613046BDE8F081E5686D1C1F
:1049D000E56013D1606B006838B1502080F3118816
:1049E000BFF34F8FBFF36F8FFEE7606BA16B616307
:1049F000A063206A401C2062FEF750FFA06ADFF827
:104A00007C80854209D3606B0068A0B1606BC06890
:104A1000C7687868854211D2A0622068C06A00EB3E
:104A2000800158F82100012800D90126E0690028FA
:104A3000C9D00126C7E74FF0FF30EDE7381DFFF77B
:104A400085F9B86A18B107F11800FFF77FF9F96A1C
:104A50000120226988401043206101EB810108EBAD
:104A60008100391DFFF7C2F9F86A2168C96A8842D6
:104A7000C9D30126C7E700003000002068080020E5
:104A800070B504004FF0000140D0214D28688442E9
:104A900007D0502080F31188BFF34F8FBFF36F8F83
:104AA000FEE7A06C38B1401EA064636CE26A9A42D3
:104AB0002CD040B12AE0502080F31188BFF34F8FF3
:104AC000BFF36F8FFEE7201DFFF740F9114A012168
:104AD00050B9E06A00EB800352F8233023B92B6908
:104AE00001FA00F083432B61606CE062C0F12000AA
:104AF000A061E06A2B6981401943296100EB8000C5
:104B000002EB8000211DFFF771F90121084670BDFD
:104B100030000020680800202DE9F041C068C4681A
:104B2000ACB104F118000746FFF710F9154D286BDA
:104B30000126A0B139461448FFF758F9E06A296800
:104B4000C96A88421BD90120EE61BDE8F08150207E
:104B500080F31188BFF34F8FBFF36F8FFEE7201DE7
:104B6000FFF7F4F8E16A2A6906FA01F010432861B8
:104B700001EB8100054901EB8000211DDCE70020ED
:104B8000E3E7000030000020100B00206808002040
:104B90002DE9F0472C4D00242746286B38B1FFF74C
:104BA00031F9286B401E2863286B40B146E0502045
:104BB00080F31188BFF34F8FBFF36F8FFEE7A968B3
:104BC000224E0120D1B3A6F52A7980463068E8B19B
:104BD000F068C46804F11800FFF7B8F8201DFFF76B
:104BE000B5F8E06A2A6908FA00F11143296100EB7F
:104BF000800109EB8100211DFFF7F8F8E06A2968C0
:104C0000C96A8842E2D3C5F81C80DFE70CB1FEF721
:104C100045FEAC6944B14646FFF7CCFE00B1EE61FB
:104C2000641EF9D10020A861E86938B1084901275C
:104C300038070860BFF34F8FBFF36F8FFFF702F99C
:104C40003846BDE8F087000030000020100B00203F
:104C500004ED00E010B586B0FEF7BAFB114C2068F9
:104C6000B8B100200390049005AA04A903A8FFF797
:104C70008BF8DDE9032102208DE8070000230AA15B
:104C80000B48059AFFF757FE606010B106B001208F
:104C900010BD502080F31188BFF34F8FBFF36F8F8B
:104CA000FEE700006C000020546D72205376630014
:104CB00079390008FEB51E4613460200089D4FF0E4
:104CC000000014D0124C2768002F0FD0CDE900133C
:104CD0000292062915DAFFF759FE02284FF0000369
:104CE0000DD0002269462068FFF712FCFEBD50205F
:104CF00080F31188BFF34F8FBFF36F8FFEE72A4613
:104D0000F0E70023324669463846FFF7B1FCFEBDA6
:104D10006C000020000000000000000001020304FD
:104D2000060708090000000001020304000000005B
:104D3000000000000000000000000404040404005F
:104D40000004000014140A0000000000000000002D
:104D500000000A0A1F0A0A1F0A0A000000040E15B2
:104D600005060C14150E0400000012150D152E2C4E
:104D70002A1200000000040A0A3615152916000040
:104D800002020100000000000000000010080804FA
:104D900004040404080810000204040808080808B1
:104DA0000404020000000004150E0E1504000000AB
:104DB00000000008083E0808000000000000000095
:104DC000000000000202010000000000003F00009F
:104DD00000000000000000000000000000020000D1
:104DE00000201010080804040202010000000E1147
:104DF00011111111110E0000000004060404040436
:104E0000040E000000000E1111080402011F000032
:104E100000000E11100C1010110E00000000080C04
:104E20000C0A091F081C000000001F01010F1110CF
:104E3000110E000000000C12010D1311110E0000E4
:104E400000001E10080804040404000000000E11F5
:104E5000110E1111110E000000000E111119161083
:104E6000090600000000000004000000000400002B
:104E7000000000000004000000040400000010080E
:104E80000402020408100000000000003F003F0080
:104E900000000000000002040810100804020000D6
:104EA00000000E11110804040004000000001C2280
:104EB000292D2D1D221C0000000004040C0A0A1ECE
:104EC0001233000000000F12120E1212120F000017
:104ED00000001E1101010101110E000000000F125F
:104EE00012121212120F000000001F120A0E0A0204
:104EF000121F000000001F120A0E0A020207000023
:104F000000001C1201013911120C000000003312C4
:104F1000121E12121233000000001F0404040404C5
:104F2000041F000000003E080808080808080907D8
:104F3000000037120A060A121237000000000702AA
:104F400002020202223F000000003B1B1B1B151542
:104F50001535000000003B1216161A1A1217000031
:104F600000000E1111111111110E000000000F129E
:104F7000120E02020207000000000E11111111179B
:104F8000190E180000000F12120E0A12123700003C
:104F900000001E1101060810110F000000001F156F
:104FA00004040404040E0000000033121212121252
:104FB000120C000000003312120A0A0C0404000054
:104FC0000000151515150E0A0A0A000000001B0A3C
:104FD0000A04040A0A1B000000001B0A0A0A04044F
:104FE000040E000000001F0908040402121F000044
:104FF0001C0404040404040404041C00000202044D
:1050000004040808081010000E080808080808081A
:1050100008080E00040A0000000000000000000064
:1050200000000000000000000000003F020400003B
:10503000000000000000000000000000000C121C36
:10504000123C000000030202020E1212120E0000B7
:1050500000000000001C1202120C000000181010CA
:10506000101C1212123C000000000000000C121E66
:10507000021C000000182404041E0404041E000086
:1050800000000000003C120C021C221C0003020263
:10509000020E12121237000000040400000604047D
:1050A000040E000000080800000C080808080807A3
:1050B00000030202021A0A060A1300000007040491
:1050C00004040404041F000000000000000F151574
:1050D0001515000000000000000F1212123700002A
:1050E00000000000000C1212120C00000000000072
:1050F000000F1212120E020700000000001C121214
:10510000121C103800000000001B060202070000FD
:1051100000000000001E020C101E00000000000431
:10512000041E0404041C000000000000001B1212F6
:10513000123C000000000000001B0A0A04040000EA
:10514000000000000015150E0A0A00000000000013
:10515000001B0A040A1B00000000000000331212AA
:105160000C08040300000000001E0804041E0000D8
:1051700018080808080C0808080818000808080893
:1051800008080808080808080604040404080404B9
:1051900004040600160900000000000000000000E2
:1051A00000000000000000000000000000000000FF
:1051B0000000000808080808080800001818000087
:1051C00000486C24120000000000000000000000F5
:1051D0000000002424247F1212127F1212120000F9
:1051E0000000081C2A2A0A0C1828282A2A1C080849
:1051F00000000022251515152A5854545422000089
:105200000000000C1212120A76252911916E00007E
:10521000000606040300000000000000000000007B
:10522000004020101008080808080810102040004E
:1052300000020408081010101010100808040200E2
:105240000000000008086B1C1C6B08080000000030
:1052500000000000080808087F080808080000008F
:10526000000000000000000000000000060604032B
:105270000000000000000000FE0000000000000030
:105280000000000000000000000000000606000012
:105290000000804040202010100808040402020092
:1052A00000000018244242424242424224180000B8
:1052B000000000080E08080808080808083E00005A
:1052C0000000003C4242422020100804427E0000C0
:1052D0000000003C4242201820404042221C0000B6
:1052E000000000203028242422227E202078000084
:1052F0000000007E0202021A26404042221C0000EA
:10530000000000382402021A2642424224180000FB
:105310000000007E2222101008080808080800007B
:105320000000003C4242422418244242423C000019
:10533000000000182442424264584040241C0000EF
:1053400000000000000018180000000018180000FD
:105350000000000000000008000000000008080431
:105360000000004020100804020408102040000043
:105370000000000000007F0000007F00000000002F
:105380000000000204081020402010080402000061
:105390000000003C42424640201010001818000057
:1053A0000000001C225A555555552D42221C000064
:1053B0000000000808181414243C224242E70000B0
:1053C0000000001F2222221E22424242221F000011
:1053D0000000007C4242010101010142221C000048
:1053E0000000001F2242424242424242221F00006D
:1053F0000000003F4212121E12120242423F000001
:105400000000003F4212121E1212020202070000A8
:105410000000003C2222010101712122221C000017
:10542000000000E7424242427E42424242E7000020
:105430000000003E0808080808080808083E0000A8
:105440000000007C10101010101010101010110F20
:105450000000007722120A0E0A12122222770000A0
:10546000000000070202020202020202427F000064
:1054700000000077363636362A2A2A2A2A6B0000A0
:10548000000000E346464A4A525252626247000018
:105490000000001C2241414141414141221C0000C9
:1054A0000000003F424242423E0202020207000068
:1054B0000000001C2241414141414D53321C60001B
:1054C0000000003F4242423E1212222242C7000028
:1054D0000000007C4242020418204042423E00008C
:1054E0000000007F4908080808080808081C000098
:1054F000000000E74242424242424242423C000037
:10550000000000E742422224241414180808000076
:105510000000006B494949495555362222220000B6
:10552000000000E7422424181818242442E7000051
:10553000000000772222141408080808081C000044
:105540000000007E2120101008040442423F0000A9
:1055500000780808080808080808080808087800FB
:105560000000020204040808081010202020404017
:10557000001E1010101010101010101010101E002F
:10558000003844000000000000000000000000009F
:10559000000000000000000000000000000000FF0C
:1055A00000060800000000000000000000000000ED
:1055B000000000000000003C4278444242FC000031
:1055C000000000030202021A26424242261A00008C
:1055D00000000000000000384402020244380000CD
:1055E00000000060404040784442424264D80000DD
:1055F000000000000000003C427E0202423C00002D
:10560000000000F08808087E08080808083E00002E
:10561000000000000000007C22221C023C42423CB0
:10562000000000030202023A4642424242E7000002
:105630000000000C0C00000E08080808083E0000DE
:105640000000003030000038202020202020221EC2
:105650000000000302020272120A161222770000F2
:105660000000000E0808080808080808083E0000A6
:10567000000000000000007F9292929292B700001A
:10568000000000000000003B4642424242E70000AA
:10569000000000000000003C42424242423C000048
:1056A000000000000000001B26424242221E0207AA
:1056B000000000000000007844424242447840E08C
:1056C00000000000000000774C040404041F0000E8
:1056D000000000000000007C42023C40423E00000E
:1056E000000000000008083E080808080830000014
:1056F00000000000000000634242424262DC000001
:1057000000000000000000E7422424140808000004
:1057100000000000000000EB49495555222200001E
:10572000000000000000007624181818246E000005
:1057300000000000000000E74224241418080807B5
:10574000000000000000007E22100808447E0000D7
:1057500000C0202020202010202020202020C00059
:105760001010101010101010101010101010101039
:1057700000060808080808100808080808080600B5
:105780000C32C20000000000000000000000000019
:105790000000000000000000000000000000000009
:1057A00000000000000000000000000000000000F9
:1057B00000000000000000000000000000000000E9
:1057C0000000000000000000600060006000600059
:1057D0006000600060004000200020002000000009
:1057E0000000000060006000600000000000000099
:1057F0000000000060066006300398018800440045
:105800000000000000000000000000000000000098
:105810000000000000000000000000000000000088
:105820000000000000000000100210021002100230
:10583000FE07FE0708020801080108010801FE072B
:10584000FE0704010401040104010000000000003F
:1058500000000000000040004000F00158034C032D
:10586000CC034C0058007000E000C001C0014003B0
:105870004C035C034C034801F00040004000000072
:1058800000000000000000000E010A0191009100DC
:105890009100510051003A00AE03A00250045004A0
:1058A0004804480448048402840300000000000007
:1058B000000000000000000038006C006C006C006C
:1058C0006C006C002C0098071C011A013301330195
:1058D0006301E300C308C6093C07000000000000A4
:1058E000000000000C001C00100010000800040064
:1058F00000000000000000000000000000000000A8
:105900000000000000000000000000000000000097
:105910000000000000040002000180008000400040
:105920004000200020002000200020002000200057
:1059300040004000800080000001000200040000E0
:105940000000000002000400080010001000200009
:105950002000400040004000400040004000400067
:1059600020002000100010000800040002000000C9
:105970000000000000000000000000004000C00027
:105980004000460C4E0FD001F0015E0F460C400067
:105990004000400000000000000000000000000087
:1059A00000000000000000000000000000004000B7
:1059B0004000400040004000FE0F4000400040001A
:1059C0004000400000000000000000000000000057
:1059D00000000000000000000000000000000000C7
:1059E00000000000000000000000000000000000B7
:1059F000000000000C001C00100010000800040053
:105A00000000000000000000000000000000000096
:105A10000000000000000000FE0700000000000081
:105A20000000000000000000000000000000000076
:105A30000000000000000000000000000000000066
:105A40000000000000000000000000000000000056
:105A5000000000001C001C001C00000000000000F2
:105A60000000000000040006000200030001000125
:105A700080008000400040006000200020001000F6
:105A80001000080008000C000400060002000000DE
:105A900000000000000000000000F00098010C036E
:105AA0000C03060606060606060606060606060693
:105AB00006060C030C039801F00000000000000033
:105AC0000000000000000000000040007C006000BA
:105AD00060006000600060006000600060006000C6
